{"abi":[{"type":"function","name":"overflowExample","inputs":[{"name":"_val","type":"uint8","internalType":"uint8"}],"outputs":[{"name":"","type":"uint8","internalType":"uint8"}],"stateMutability":"pure"},{"type":"function","name":"underlowExample","inputs":[{"name":"_val","type":"uint8","internalType":"uint8"}],"outputs":[{"name":"","type":"uint8","internalType":"uint8"}],"stateMutability":"pure"}],"bytecode":{"object":"0x608060405234801561000f575f80fd5b506102298061001d5f395ff3fe608060405234801561000f575f80fd5b5060043610610034575f3560e01c80630a37639314610038578063d83c766014610068575b5f80fd5b610052600480360381019061004d919061010b565b610098565b60405161005f9190610145565b60405180910390f35b610082600480360381019061007d919061010b565b6100b4565b60405161008f9190610145565b60405180910390f35b5f805f905082816100a9919061018b565b905080915050919050565b5f8060ff905082816100c691906101bf565b905080915050919050565b5f80fd5b5f60ff82169050919050565b6100ea816100d5565b81146100f4575f80fd5b50565b5f81359050610105816100e1565b92915050565b5f602082840312156101205761011f6100d1565b5b5f61012d848285016100f7565b91505092915050565b61013f816100d5565b82525050565b5f6020820190506101585f830184610136565b92915050565b7f4e487b71000000000000000000000000000000000000000000000000000000005f52601160045260245ffd5b5f610195826100d5565b91506101a0836100d5565b9250828203905060ff8111156101b9576101b861015e565b5b92915050565b5f6101c9826100d5565b91506101d4836100d5565b9250828201905060ff8111156101ed576101ec61015e565b5b9291505056fea264697066735822122010b3b6be45b4400add666b2d1705982acfd76e7c68747038ee376e768dab9dca64736f6c63430008140033","linkReferences":{}},"methodIdentifiers":{"overflowExample(uint8)":"d83c7660","underlowExample(uint8)":"0a376393"},"id":0}