{"abi":[{"type":"function","name":"performDos","inputs":[{"name":"_iterations","type":"uint256","internalType":"uint256"}],"outputs":[],"stateMutability":"pure"}],"bytecode":{"object":"0x608060405234801561000f575f80fd5b506102598061001d5f395ff3fe608060405234801561000f575f80fd5b5060043610610029575f3560e01c80637c448c121461002d575b5f80fd5b6100476004803603810190610042919061012a565b610049565b005b5f5b8181116100ef575f8267ffffffffffffffff81111561006d5761006c610155565b5b60405190808252806020026020018201604052801561009b5781602001602082028036833780820191505090505b5090505f5b8381116100da57808282815181106100bb576100ba610182565b5b60200260200101818152505080806100d2906101dc565b9150506100a0565b505080806100e7906101dc565b91505061004b565b5050565b5f80fd5b5f819050919050565b610109816100f7565b8114610113575f80fd5b50565b5f8135905061012481610100565b92915050565b5f6020828403121561013f5761013e6100f3565b5b5f61014c84828501610116565b91505092915050565b7f4e487b71000000000000000000000000000000000000000000000000000000005f52604160045260245ffd5b7f4e487b71000000000000000000000000000000000000000000000000000000005f52603260045260245ffd5b7f4e487b71000000000000000000000000000000000000000000000000000000005f52601160045260245ffd5b5f6101e6826100f7565b91507fffffffffffffffffffffffffffffffffffffffffffffffffffffffffffffffff8203610218576102176101af565b5b60018201905091905056fea26469706673582212202127c5047f5b57f2a77a999389a60bc1095b187c1f466fb4c3272241bfe9e1c464736f6c63430008140033","linkReferences":{}},"methodIdentifiers":{"performDos(uint256)":"7c448c12"},"id":36}