{"abi":[{"type":"constructor","inputs":[],"stateMutability":"payable"},{"type":"receive","stateMutability":"payable"},{"type":"function","name":"owner","inputs":[],"outputs":[{"name":"","type":"address","internalType":"address payable"}],"stateMutability":"view"},{"type":"function","name":"retirar","inputs":[{"name":"_cantidad","type":"uint256","internalType":"uint256"}],"outputs":[],"stateMutability":"nonpayable"},{"type":"function","name":"setOwner","inputs":[{"name":"_owner","type":"address","internalType":"address"}],"outputs":[],"stateMutability":"nonpayable"},{"type":"event","name":"Deposit","inputs":[{"name":"account","type":"address","indexed":false,"internalType":"address"},{"name":"amount","type":"uint256","indexed":false,"internalType":"uint256"}],"anonymous":false}],"bytecode":{"object":"0x6080604052335f806101000a81548173ffffffffffffffffffffffffffffffffffffffff021916908373ffffffffffffffffffffffffffffffffffffffff1602179055506104ce806100505f395ff3fe608060405260043610610037575f3560e01c806313af40351461007b5780638da5cb5b146100a3578063e8b1298f146100cd57610077565b36610077577fe1fffcc4923d04b559f4d29a8bfc6cda04eb5b0d3c460751c2402c5c5cc9109c333460405161006d929190610312565b60405180910390a1005b5f80fd5b348015610086575f80fd5b506100a1600480360381019061009c9190610367565b6100f5565b005b3480156100ae575f80fd5b506100b76101c4565b6040516100c491906103b2565b60405180910390f35b3480156100d8575f80fd5b506100f360048036038101906100ee91906103f5565b6101e7565b005b5f8054906101000a900473ffffffffffffffffffffffffffffffffffffffff1673ffffffffffffffffffffffffffffffffffffffff163373ffffffffffffffffffffffffffffffffffffffff1614610182576040517f08c379a00000000000000000000000000000000000000000000000000000000081526004016101799061047a565b60405180910390fd5b805f806101000a81548173ffffffffffffffffffffffffffffffffffffffff021916908373ffffffffffffffffffffffffffffffffffffffff16021790555050565b5f8054906101000a900473ffffffffffffffffffffffffffffffffffffffff1681565b5f8054906101000a900473ffffffffffffffffffffffffffffffffffffffff1673ffffffffffffffffffffffffffffffffffffffff163373ffffffffffffffffffffffffffffffffffffffff1614610274576040517f08c379a000000000000000000000000000000000000000000000000000000000815260040161026b9061047a565b60405180910390fd5b3373ffffffffffffffffffffffffffffffffffffffff166108fc8290811502906040515f60405180830381858888f193505050501580156102b7573d5f803e3d5ffd5b5050565b5f73ffffffffffffffffffffffffffffffffffffffff82169050919050565b5f6102e4826102bb565b9050919050565b6102f4816102da565b82525050565b5f819050919050565b61030c816102fa565b82525050565b5f6040820190506103255f8301856102eb565b6103326020830184610303565b9392505050565b5f80fd5b610346816102da565b8114610350575f80fd5b50565b5f813590506103618161033d565b92915050565b5f6020828403121561037c5761037b610339565b5b5f61038984828501610353565b91505092915050565b5f61039c826102bb565b9050919050565b6103ac81610392565b82525050565b5f6020820190506103c55f8301846103a3565b92915050565b6103d4816102fa565b81146103de575f80fd5b50565b5f813590506103ef816103cb565b92915050565b5f6020828403121561040a57610409610339565b5b5f610417848285016103e1565b91505092915050565b5f82825260208201905092915050565b7f5573746564206e6f20657320656c2070726f706965746172696f0000000000005f82015250565b5f610464601a83610420565b915061046f82610430565b602082019050919050565b5f6020820190508181035f83015261049181610458565b905091905056fea2646970667358221220810c266a0545e5377fa341f528671dd6cc1273f885d6fbf71c3d4d60049dadf964736f6c63430008140033","linkReferences":{}},"methodIdentifiers":{"owner()":"8da5cb5b","retirar(uint256)":"e8b1298f","setOwner(address)":"13af4035"},"id":27}