{"abi":[{"type":"constructor","inputs":[],"stateMutability":"nonpayable"},{"type":"function","name":"getOwner","inputs":[],"outputs":[{"name":"","type":"address","internalType":"address"}],"stateMutability":"view"},{"type":"function","name":"getSecretNumber","inputs":[],"outputs":[{"name":"","type":"uint256","internalType":"uint256"}],"stateMutability":"view"},{"type":"function","name":"setSecretNumber","inputs":[{"name":"_newNumber","type":"uint256","internalType":"uint256"}],"outputs":[],"stateMutability":"nonpayable"}],"bytecode":{"object":"0x608060405234801561000f575f80fd5b503360015f6101000a81548173ffffffffffffffffffffffffffffffffffffffff021916908373ffffffffffffffffffffffffffffffffffffffff1602179055506103198061005d5f395ff3fe608060405234801561000f575f80fd5b506004361061003f575f3560e01c806352ee5a551461004357806384c1d6391461005f578063893d20e81461007d575b5f80fd5b61005d6004803603810190610058919061019a565b61009b565b005b610067610133565b60405161007491906101d4565b60405180910390f35b61008561013b565b604051610092919061022c565b60405180910390f35b60015f9054906101000a900473ffffffffffffffffffffffffffffffffffffffff1673ffffffffffffffffffffffffffffffffffffffff163373ffffffffffffffffffffffffffffffffffffffff161461012a576040517f08c379a0000000000000000000000000000000000000000000000000000000008152600401610121906102c5565b60405180910390fd5b805f8190555050565b5f8054905090565b5f60015f9054906101000a900473ffffffffffffffffffffffffffffffffffffffff16905090565b5f80fd5b5f819050919050565b61017981610167565b8114610183575f80fd5b50565b5f8135905061019481610170565b92915050565b5f602082840312156101af576101ae610163565b5b5f6101bc84828501610186565b91505092915050565b6101ce81610167565b82525050565b5f6020820190506101e75f8301846101c5565b92915050565b5f73ffffffffffffffffffffffffffffffffffffffff82169050919050565b5f610216826101ed565b9050919050565b6102268161020c565b82525050565b5f60208201905061023f5f83018461021d565b92915050565b5f82825260208201905092915050565b7f4f6e6c79206f776e65722063616e2063616c6c20746869732066756e6374696f5f8201527f6e00000000000000000000000000000000000000000000000000000000000000602082015250565b5f6102af602183610245565b91506102ba82610255565b604082019050919050565b5f6020820190508181035f8301526102dc816102a3565b905091905056fea2646970667358221220ca396be391e697dc18055256b4a3220dfa16e40bc1c03728ebf001a7112ad08f64736f6c63430008140033","linkReferences":{}},"methodIdentifiers":{"getOwner()":"893d20e8","getSecretNumber()":"84c1d639","setSecretNumber(uint256)":"52ee5a55"},"id":28}