{"abi":[{"type":"constructor","inputs":[],"stateMutability":"payable"},{"type":"receive","stateMutability":"payable"},{"type":"function","name":"owner","inputs":[],"outputs":[{"name":"","type":"address","internalType":"address payable"}],"stateMutability":"view"},{"type":"function","name":"retirar","inputs":[{"name":"cantidad","type":"uint256","internalType":"uint256"}],"outputs":[],"stateMutability":"nonpayable"},{"type":"function","name":"setOwner","inputs":[{"name":"_owner","type":"address","internalType":"address"}],"outputs":[],"stateMutability":"nonpayable"}],"bytecode":{"object":"0x6080604052335f5f6101000a81548173ffffffffffffffffffffffffffffffffffffffff021916908373ffffffffffffffffffffffffffffffffffffffff160217905550610453806100505f395ff3fe608060405260043610610037575f3560e01c806313af4035146100425780638da5cb5b1461006a578063e8b1298f146100945761003e565b3661003e57005b5f5ffd5b34801561004d575f5ffd5b50610068600480360381019061006391906102e3565b6100bc565b005b348015610075575f5ffd5b5061007e61018c565b60405161008b919061032e565b60405180910390f35b34801561009f575f5ffd5b506100ba60048036038101906100b5919061037a565b6101b0565b005b5f5f9054906101000a900473ffffffffffffffffffffffffffffffffffffffff1673ffffffffffffffffffffffffffffffffffffffff163373ffffffffffffffffffffffffffffffffffffffff161461014a576040517f08c379a0000000000000000000000000000000000000000000000000000000008152600401610141906103ff565b60405180910390fd5b805f5f6101000a81548173ffffffffffffffffffffffffffffffffffffffff021916908373ffffffffffffffffffffffffffffffffffffffff16021790555050565b5f5f9054906101000a900473ffffffffffffffffffffffffffffffffffffffff1681565b5f5f9054906101000a900473ffffffffffffffffffffffffffffffffffffffff1673ffffffffffffffffffffffffffffffffffffffff163373ffffffffffffffffffffffffffffffffffffffff161461023e576040517f08c379a0000000000000000000000000000000000000000000000000000000008152600401610235906103ff565b60405180910390fd5b3373ffffffffffffffffffffffffffffffffffffffff166108fc8290811502906040515f60405180830381858888f19350505050158015610281573d5f5f3e3d5ffd5b5050565b5f5ffd5b5f73ffffffffffffffffffffffffffffffffffffffff82169050919050565b5f6102b282610289565b9050919050565b6102c2816102a8565b81146102cc575f5ffd5b50565b5f813590506102dd816102b9565b92915050565b5f602082840312156102f8576102f7610285565b5b5f610305848285016102cf565b91505092915050565b5f61031882610289565b9050919050565b6103288161030e565b82525050565b5f6020820190506103415f83018461031f565b92915050565b5f819050919050565b61035981610347565b8114610363575f5ffd5b50565b5f8135905061037481610350565b92915050565b5f6020828403121561038f5761038e610285565b5b5f61039c84828501610366565b91505092915050565b5f82825260208201905092915050565b7f5573746564206e6f20657320656c2070726f706965746172696f0000000000005f82015250565b5f6103e9601a836103a5565b91506103f4826103b5565b602082019050919050565b5f6020820190508181035f830152610416816103dd565b905091905056fea26469706673582212202a22cc66eca8a1989b9466b298f0311af5b1ed5793c3aa12d2110bdc0342884364736f6c634300081e0033","linkReferences":{}},"methodIdentifiers":{"owner()":"8da5cb5b","retirar(uint256)":"e8b1298f","setOwner(address)":"13af4035"},"id":19}