{"abi":[{"type":"function","name":"balances","inputs":[{"name":"","type":"address","internalType":"address"}],"outputs":[{"name":"","type":"uint256","internalType":"uint256"}],"stateMutability":"view"},{"type":"function","name":"deposit","inputs":[],"outputs":[],"stateMutability":"payable"},{"type":"function","name":"getBalance","inputs":[{"name":"_address","type":"address","internalType":"address"}],"outputs":[{"name":"","type":"uint256","internalType":"uint256"}],"stateMutability":"view"},{"type":"function","name":"withdraw","inputs":[{"name":"_amount","type":"uint256","internalType":"uint256"}],"outputs":[],"stateMutability":"nonpayable"}],"bytecode":{"object":"0x608060405234801561000f575f80fd5b506105988061001d5f395ff3fe60806040526004361061003e575f3560e01c806327e235e3146100425780632e1a7d4d1461007e578063d0e30db0146100a6578063f8b2cb4f146100b0575b5f80fd5b34801561004d575f80fd5b506100686004803603810190610063919061033e565b6100ec565b6040516100759190610381565b60405180910390f35b348015610089575f80fd5b506100a4600480360381019061009f91906103c4565b610100565b005b6100ae610247565b005b3480156100bb575f80fd5b506100d660048036038101906100d1919061033e565b61029b565b6040516100e39190610381565b60405180910390f35b5f602052805f5260405f205f915090505481565b805f803373ffffffffffffffffffffffffffffffffffffffff1673ffffffffffffffffffffffffffffffffffffffff1681526020019081526020015f2054101561017f576040517f08c379a000000000000000000000000000000000000000000000000000000000815260040161017690610449565b60405180910390fd5b3373ffffffffffffffffffffffffffffffffffffffff166108fc8290811502906040515f60405180830381858888f193505050506101f2576040517f08c379a00000000000000000000000000000000000000000000000000000000081526004016101e9906104b1565b60405180910390fd5b805f803373ffffffffffffffffffffffffffffffffffffffff1673ffffffffffffffffffffffffffffffffffffffff1681526020019081526020015f205f82825461023d91906104fc565b9250508190555050565b345f803373ffffffffffffffffffffffffffffffffffffffff1673ffffffffffffffffffffffffffffffffffffffff1681526020019081526020015f205f828254610292919061052f565b92505081905550565b5f805f8373ffffffffffffffffffffffffffffffffffffffff1673ffffffffffffffffffffffffffffffffffffffff1681526020019081526020015f20549050919050565b5f80fd5b5f73ffffffffffffffffffffffffffffffffffffffff82169050919050565b5f61030d826102e4565b9050919050565b61031d81610303565b8114610327575f80fd5b50565b5f8135905061033881610314565b92915050565b5f60208284031215610353576103526102e0565b5b5f6103608482850161032a565b91505092915050565b5f819050919050565b61037b81610369565b82525050565b5f6020820190506103945f830184610372565b92915050565b6103a381610369565b81146103ad575f80fd5b50565b5f813590506103be8161039a565b92915050565b5f602082840312156103d9576103d86102e0565b5b5f6103e6848285016103b0565b91505092915050565b5f82825260208201905092915050565b7f496e73756666696369656e742062616c616e63650000000000000000000000005f82015250565b5f6104336014836103ef565b915061043e826103ff565b602082019050919050565b5f6020820190508181035f83015261046081610427565b9050919050565b7f5472616e73666572206661696c656400000000000000000000000000000000005f82015250565b5f61049b600f836103ef565b91506104a682610467565b602082019050919050565b5f6020820190508181035f8301526104c88161048f565b9050919050565b7f4e487b71000000000000000000000000000000000000000000000000000000005f52601160045260245ffd5b5f61050682610369565b915061051183610369565b9250828203905081811115610529576105286104cf565b5b92915050565b5f61053982610369565b915061054483610369565b925082820190508082111561055c5761055b6104cf565b5b9291505056fea2646970667358221220341749d9f2468a1f1f303242847854686684b7949bdb39cc17eb74d13a2befdb64736f6c63430008140033","linkReferences":{}},"methodIdentifiers":{"balances(address)":"27e235e3","deposit()":"d0e30db0","getBalance(address)":"f8b2cb4f","withdraw(uint256)":"2e1a7d4d"},"id":7}