{"abi":[{"type":"constructor","inputs":[],"stateMutability":"nonpayable"},{"type":"function","name":"generateRandomNumber","inputs":[],"outputs":[],"stateMutability":"nonpayable"},{"type":"function","name":"randomNumber","inputs":[],"outputs":[{"name":"","type":"uint256","internalType":"uint256"}],"stateMutability":"view"}],"bytecode":{"object":"0x608060405234801561000f575f80fd5b50425f81905550610122806100235f395ff3fe6080604052348015600e575f80fd5b50600436106030575f3560e01c8063773a1154146034578063ccbac9f514603c575b5f80fd5b603a6056565b005b6042608a565b604051604d919060a6565b60405180910390f35b44425f54604051602001606a9392919060bd565b604051602081830303815290604052805190602001205f1c600181905550565b60015481565b5f819050919050565b60a0816090565b82525050565b5f60208201905060b75f8301846099565b92915050565b5f60608201905060ce5f8301866099565b60d960208301856099565b60e460408301846099565b94935050505056fea26469706673582212203cff87744fdaf94c2ecf08fed73d9696cf7ae2c7e9f190d36241a29acf08544c64736f6c63430008140033","linkReferences":{}},"methodIdentifiers":{"generateRandomNumber()":"773a1154","randomNumber()":"ccbac9f5"},"id":0}