{"abi":[{"type":"constructor","inputs":[{"name":"_oracleAddress","type":"address","internalType":"address"}],"stateMutability":"nonpayable"},{"type":"function","name":"generateRandomNumber","inputs":[],"outputs":[],"stateMutability":"nonpayable"},{"type":"function","name":"randomNumber","inputs":[],"outputs":[{"name":"","type":"uint256","internalType":"uint256"}],"stateMutability":"view"}],"bytecode":{"object":"0x608060405234801561000f575f80fd5b506040516103cf3803806103cf833981810160405281019061003191906100d5565b8060015f6101000a81548173ffffffffffffffffffffffffffffffffffffffff021916908373ffffffffffffffffffffffffffffffffffffffff16021790555050610100565b5f80fd5b5f73ffffffffffffffffffffffffffffffffffffffff82169050919050565b5f6100a48261007b565b9050919050565b6100b48161009a565b81146100be575f80fd5b50565b5f815190506100cf816100ab565b92915050565b5f602082840312156100ea576100e9610077565b5b5f6100f7848285016100c1565b91505092915050565b6102c28061010d5f395ff3fe608060405234801561000f575f80fd5b5060043610610034575f3560e01c8063773a115414610038578063ccbac9f514610042575b5f80fd5b610040610060565b005b61004a610185565b60405161005791906101a2565b60405180910390f35b5f73ffffffffffffffffffffffffffffffffffffffff1660015f9054906101000a900473ffffffffffffffffffffffffffffffffffffffff1673ffffffffffffffffffffffffffffffffffffffff16036100ef576040517f08c379a00000000000000000000000000000000000000000000000000000000081526004016100e690610215565b60405180910390fd5b60015f9054906101000a900473ffffffffffffffffffffffffffffffffffffffff1673ffffffffffffffffffffffffffffffffffffffff1663dbdff2c16040518163ffffffff1660e01b81526004016020604051808303815f875af115801561015a573d5f803e3d5ffd5b505050506040513d601f19601f8201168201806040525081019061017e9190610261565b5f81905550565b5f5481565b5f819050919050565b61019c8161018a565b82525050565b5f6020820190506101b55f830184610193565b92915050565b5f82825260208201905092915050565b7f4f7261636c652061646472657373206e6f7420736574000000000000000000005f82015250565b5f6101ff6016836101bb565b915061020a826101cb565b602082019050919050565b5f6020820190508181035f83015261022c816101f3565b9050919050565b5f80fd5b6102408161018a565b811461024a575f80fd5b50565b5f8151905061025b81610237565b92915050565b5f6020828403121561027657610275610233565b5b5f6102838482850161024d565b9150509291505056fea26469706673582212206dbdc2d1bb10243e6091b2020783e6db43d0002414b42abc577265cb9cea231764736f6c63430008140033","linkReferences":{}},"methodIdentifiers":{"generateRandomNumber()":"773a1154","randomNumber()":"ccbac9f5"},"id":24}