{"abi":[{"type":"function","name":"fin","inputs":[],"outputs":[{"name":"","type":"uint256","internalType":"uint256"}],"stateMutability":"view"},{"type":"function","name":"finalizar","inputs":[],"outputs":[],"stateMutability":"view"},{"type":"function","name":"inicio","inputs":[],"outputs":[{"name":"","type":"uint256","internalType":"uint256"}],"stateMutability":"view"},{"type":"function","name":"oferta","inputs":[],"outputs":[],"stateMutability":"view"}],"bytecode":{"object":"0x60806040526201518042610013919061006e565b5f556202a30042610024919061006e565b600155348015610032575f80fd5b506100a1565b5f819050919050565b7f4e487b71000000000000000000000000000000000000000000000000000000005f52601160045260245ffd5b5f61007882610038565b915061008383610038565b925082820190508082111561009b5761009a610041565b5b92915050565b610289806100ae5f395ff3fe608060405234801561000f575f80fd5b5060043610610049575f3560e01c8062a369471461004d5780632541edcc1461006b5780633624850e14610075578063ff8fec8114610093575b5f80fd5b61005561009d565b604051610062919061015a565b60405180910390f35b6100736100a3565b005b61007d6100f6565b60405161008a919061015a565b60405180910390f35b61009b6100fb565b005b60015481565b5f5442101580156100b5575060015442105b6100f4576040517f08c379a00000000000000000000000000000000000000000000000000000000081526004016100eb906101cd565b60405180910390fd5b565b5f5481565b600154421015610140576040517f08c379a000000000000000000000000000000000000000000000000000000000815260040161013790610235565b60405180910390fd5b565b5f819050919050565b61015481610142565b82525050565b5f60208201905061016d5f83018461014b565b92915050565b5f82825260208201905092915050565b7f4e6f207075656465206f666572746172000000000000000000000000000000005f82015250565b5f6101b7601083610173565b91506101c282610183565b602082019050919050565b5f6020820190508181035f8301526101e4816101ab565b9050919050565b7f4e6f2070756564652066696e616c697a617200000000000000000000000000005f82015250565b5f61021f601283610173565b915061022a826101eb565b602082019050919050565b5f6020820190508181035f83015261024c81610213565b905091905056fea264697066735822122093f6873e13a386cdcecff4af6c9c7c7627e82c98de45cb0044df3ddbb0d6ec9264736f6c63430008140033","linkReferences":{}},"methodIdentifiers":{"fin()":"00a36947","finalizar()":"ff8fec81","inicio()":"3624850e","oferta()":"2541edcc"},"id":51}