{"abi":[{"type":"constructor","inputs":[],"stateMutability":"nonpayable"},{"type":"function","name":"actualizarMensaje","inputs":[{"name":"_nuevoMensaje","type":"string","internalType":"string"}],"outputs":[],"stateMutability":"nonpayable"},{"type":"function","name":"obtenerMensaje","inputs":[],"outputs":[{"name":"","type":"string","internalType":"string"}],"stateMutability":"view"}],"bytecode":{"object":"0x608060405234801561000f575f5ffd5b506040518060400160405280601881526020017f486f6c61206d756e646f20646573646520666f756e64727900000000000000008152505f90816100539190610296565b50610365565b5f81519050919050565b7f4e487b71000000000000000000000000000000000000000000000000000000005f52604160045260245ffd5b7f4e487b71000000000000000000000000000000000000000000000000000000005f52602260045260245ffd5b5f60028204905060018216806100d457607f821691505b6020821081036100e7576100e6610090565b5b50919050565b5f819050815f5260205f209050919050565b5f6020601f8301049050919050565b5f82821b905092915050565b5f600883026101497fffffffffffffffffffffffffffffffffffffffffffffffffffffffffffffffff8261010e565b610153868361010e565b95508019841693508086168417925050509392505050565b5f819050919050565b5f819050919050565b5f61019761019261018d8461016b565b610174565b61016b565b9050919050565b5f819050919050565b6101b08361017d565b6101c46101bc8261019e565b84845461011a565b825550505050565b5f5f905090565b6101db6101cc565b6101e68184846101a7565b505050565b5b81811015610209576101fe5f826101d3565b6001810190506101ec565b5050565b601f82111561024e5761021f816100ed565b610228846100ff565b81016020851015610237578190505b61024b610243856100ff565b8301826101eb565b50505b505050565b5f82821c905092915050565b5f61026e5f1984600802610253565b1980831691505092915050565b5f610286838361025f565b9150826002028217905092915050565b61029f82610059565b67ffffffffffffffff8111156102b8576102b7610063565b5b6102c282546100bd565b6102cd82828561020d565b5f60209050601f8311600181146102fe575f84156102ec578287015190505b6102f6858261027b565b86555061035d565b601f19841661030c866100ed565b5f5b828110156103335784890151825560018201915060208501945060208101905061030e565b86831015610350578489015161034c601f89168261025f565b8355505b6001600288020188555050505b505050505050565b610632806103725f395ff3fe608060405234801561000f575f5ffd5b5060043610610034575f3560e01c80637b4b16d714610038578063d3c107ca14610056575b5f5ffd5b610040610072565b60405161004d9190610183565b60405180910390f35b610070600480360381019061006b91906102e0565b610101565b005b60605f805461008090610354565b80601f01602080910402602001604051908101604052809291908181526020018280546100ac90610354565b80156100f75780601f106100ce576101008083540402835291602001916100f7565b820191905f5260205f20905b8154815290600101906020018083116100da57829003601f168201915b5050505050905090565b805f908161010f919061052d565b5050565b5f81519050919050565b5f82825260208201905092915050565b8281835e5f83830152505050565b5f601f19601f8301169050919050565b5f61015582610113565b61015f818561011d565b935061016f81856020860161012d565b6101788161013b565b840191505092915050565b5f6020820190508181035f83015261019b818461014b565b905092915050565b5f604051905090565b5f5ffd5b5f5ffd5b5f5ffd5b5f5ffd5b7f4e487b71000000000000000000000000000000000000000000000000000000005f52604160045260245ffd5b6101f28261013b565b810181811067ffffffffffffffff82111715610211576102106101bc565b5b80604052505050565b5f6102236101a3565b905061022f82826101e9565b919050565b5f67ffffffffffffffff82111561024e5761024d6101bc565b5b6102578261013b565b9050602081019050919050565b828183375f83830152505050565b5f61028461027f84610234565b61021a565b9050828152602081018484840111156102a05761029f6101b8565b5b6102ab848285610264565b509392505050565b5f82601f8301126102c7576102c66101b4565b5b81356102d7848260208601610272565b91505092915050565b5f602082840312156102f5576102f46101ac565b5b5f82013567ffffffffffffffff811115610312576103116101b0565b5b61031e848285016102b3565b91505092915050565b7f4e487b71000000000000000000000000000000000000000000000000000000005f52602260045260245ffd5b5f600282049050600182168061036b57607f821691505b60208210810361037e5761037d610327565b5b50919050565b5f819050815f5260205f209050919050565b5f6020601f8301049050919050565b5f82821b905092915050565b5f600883026103e07fffffffffffffffffffffffffffffffffffffffffffffffffffffffffffffffff826103a5565b6103ea86836103a5565b95508019841693508086168417925050509392505050565b5f819050919050565b5f819050919050565b5f61042e61042961042484610402565b61040b565b610402565b9050919050565b5f819050919050565b61044783610414565b61045b61045382610435565b8484546103b1565b825550505050565b5f5f905090565b610472610463565b61047d81848461043e565b505050565b5b818110156104a0576104955f8261046a565b600181019050610483565b5050565b601f8211156104e5576104b681610384565b6104bf84610396565b810160208510156104ce578190505b6104e26104da85610396565b830182610482565b50505b505050565b5f82821c905092915050565b5f6105055f19846008026104ea565b1980831691505092915050565b5f61051d83836104f6565b9150826002028217905092915050565b61053682610113565b67ffffffffffffffff81111561054f5761054e6101bc565b5b6105598254610354565b6105648282856104a4565b5f60209050601f831160018114610595575f8415610583578287015190505b61058d8582610512565b8655506105f4565b601f1984166105a386610384565b5f5b828110156105ca578489015182556001820191506020850194506020810190506105a5565b868310156105e757848901516105e3601f8916826104f6565b8355505b6001600288020188555050505b50505050505056fea26469706673582212205b5c6e76ebfa180a76ae99a2d478a5551aab874decbc25a5915efd3b36998ad064736f6c634300081e0033","linkReferences":{}},"methodIdentifiers":{"actualizarMensaje(string)":"d3c107ca","obtenerMensaje()":"7b4b16d7"},"id":24}