{"abi":[{"type":"function","name":"balance","inputs":[],"outputs":[{"name":"","type":"uint256","internalType":"uint256"}],"stateMutability":"view"},{"type":"function","name":"balances","inputs":[{"name":"","type":"address","internalType":"address"}],"outputs":[{"name":"","type":"uint256","internalType":"uint256"}],"stateMutability":"view"},{"type":"function","name":"depositar","inputs":[],"outputs":[],"stateMutability":"payable"},{"type":"function","name":"retirar","inputs":[{"name":"_cantidad","type":"uint256","internalType":"uint256"}],"outputs":[],"stateMutability":"nonpayable"}],"bytecode":{"object":"0x608060405234801561000f575f80fd5b506106b08061001d5f395ff3fe60806040526004361061003e575f3560e01c806327e235e3146100425780633d922f901461007e578063b69ef8a814610088578063e8b1298f146100b2575b5f80fd5b34801561004d575f80fd5b50610068600480360381019061006391906103c8565b6100da565b604051610075919061040b565b60405180910390f35b6100866100ef565b005b348015610093575f80fd5b5061009c61015b565b6040516100a9919061040b565b60405180910390f35b3480156100bd575f80fd5b506100d860048036038101906100d3919061044e565b610160565b005b6001602052805f5260405f205f915090505481565b3460015f3373ffffffffffffffffffffffffffffffffffffffff1673ffffffffffffffffffffffffffffffffffffffff1681526020019081526020015f205f82825461013b91906104a6565b92505081905550345f8082825461015291906104a6565b92505081905550565b5f5481565b8060015f3373ffffffffffffffffffffffffffffffffffffffff1673ffffffffffffffffffffffffffffffffffffffff1681526020019081526020015f205410156101e0576040517f08c379a00000000000000000000000000000000000000000000000000000000081526004016101d790610533565b60405180910390fd5b5f60015f3373ffffffffffffffffffffffffffffffffffffffff1673ffffffffffffffffffffffffffffffffffffffff1681526020019081526020015f205490508160015f3373ffffffffffffffffffffffffffffffffffffffff1673ffffffffffffffffffffffffffffffffffffffff1681526020019081526020015f205f82825461026d9190610551565b925050819055503373ffffffffffffffffffffffffffffffffffffffff166108fc8390811502906040515f60405180830381858888f193505050506102e7576040517f08c379a00000000000000000000000000000000000000000000000000000000081526004016102de906105f4565b60405180910390fd5b8060015f3373ffffffffffffffffffffffffffffffffffffffff1673ffffffffffffffffffffffffffffffffffffffff1681526020019081526020015f205414610366576040517f08c379a000000000000000000000000000000000000000000000000000000000815260040161035d9061065c565b60405180910390fd5b5050565b5f80fd5b5f73ffffffffffffffffffffffffffffffffffffffff82169050919050565b5f6103978261036e565b9050919050565b6103a78161038d565b81146103b1575f80fd5b50565b5f813590506103c28161039e565b92915050565b5f602082840312156103dd576103dc61036a565b5b5f6103ea848285016103b4565b91505092915050565b5f819050919050565b610405816103f3565b82525050565b5f60208201905061041e5f8301846103fc565b92915050565b61042d816103f3565b8114610437575f80fd5b50565b5f8135905061044881610424565b92915050565b5f602082840312156104635761046261036a565b5b5f6104708482850161043a565b91505092915050565b7f4e487b71000000000000000000000000000000000000000000000000000000005f52601160045260245ffd5b5f6104b0826103f3565b91506104bb836103f3565b92508282019050808211156104d3576104d2610479565b5b92915050565b5f82825260208201905092915050565b7f53616c646f20696e737566696369656e746500000000000000000000000000005f82015250565b5f61051d6012836104d9565b9150610528826104e9565b602082019050919050565b5f6020820190508181035f83015261054a81610511565b9050919050565b5f61055b826103f3565b9150610566836103f3565b925082820390508181111561057e5761057d610479565b5b92915050565b7f4572726f7220616c207265616c697a6172206c61207472616e73666572656e635f8201527f6961000000000000000000000000000000000000000000000000000000000000602082015250565b5f6105de6022836104d9565b91506105e982610584565b604082019050919050565b5f6020820190508181035f83015261060b816105d2565b9050919050565b7f5261636520636f6e646974696f6e2064657465637461646100000000000000005f82015250565b5f6106466018836104d9565b915061065182610612565b602082019050919050565b5f6020820190508181035f8301526106738161063a565b905091905056fea26469706673582212201d2f1b1e2c0650b786b8620f0d6002e19ba6857f4c4f4d18918b776b0ea7491964736f6c63430008140033","linkReferences":{}},"methodIdentifiers":{"balance()":"b69ef8a8","balances(address)":"27e235e3","depositar()":"3d922f90","retirar(uint256)":"e8b1298f"},"id":0}