{"abi":[{"type":"function","name":"balance","inputs":[],"outputs":[{"name":"","type":"uint256","internalType":"uint256"}],"stateMutability":"view"},{"type":"function","name":"balances","inputs":[{"name":"","type":"address","internalType":"address"}],"outputs":[{"name":"","type":"uint256","internalType":"uint256"}],"stateMutability":"view"},{"type":"function","name":"depositar","inputs":[],"outputs":[],"stateMutability":"payable"},{"type":"function","name":"isTransfering","inputs":[{"name":"","type":"address","internalType":"address"}],"outputs":[{"name":"","type":"bool","internalType":"bool"}],"stateMutability":"view"},{"type":"function","name":"retirar","inputs":[{"name":"_cantidad","type":"uint256","internalType":"uint256"}],"outputs":[],"stateMutability":"nonpayable"}],"bytecode":{"object":"0x608060405234801561000f575f80fd5b506107df8061001d5f395ff3fe608060405260043610610049575f3560e01c806327e235e31461004d5780633d922f9014610089578063b69ef8a814610093578063c25ac000146100bd578063e8b1298f146100f9575b5f80fd5b348015610058575f80fd5b50610073600480360381019061006e919061049e565b610121565b60405161008091906104e1565b60405180910390f35b610091610136565b005b34801561009e575f80fd5b506100a76101a2565b6040516100b491906104e1565b60405180910390f35b3480156100c8575f80fd5b506100e360048036038101906100de919061049e565b6101a7565b6040516100f09190610514565b60405180910390f35b348015610104575f80fd5b5061011f600480360381019061011a9190610557565b6101c4565b005b6001602052805f5260405f205f915090505481565b3460015f3373ffffffffffffffffffffffffffffffffffffffff1673ffffffffffffffffffffffffffffffffffffffff1681526020019081526020015f205f82825461018291906105af565b92505081905550345f8082825461019991906105af565b92505081905550565b5f5481565b6002602052805f5260405f205f915054906101000a900460ff1681565b8060015f3373ffffffffffffffffffffffffffffffffffffffff1673ffffffffffffffffffffffffffffffffffffffff1681526020019081526020015f20541015610244576040517f08c379a000000000000000000000000000000000000000000000000000000000815260040161023b9061063c565b60405180910390fd5b60025f3373ffffffffffffffffffffffffffffffffffffffff1673ffffffffffffffffffffffffffffffffffffffff1681526020019081526020015f205f9054906101000a900460ff16156102ce576040517f08c379a00000000000000000000000000000000000000000000000000000000081526004016102c5906106ca565b60405180910390fd5b600160025f3373ffffffffffffffffffffffffffffffffffffffff1673ffffffffffffffffffffffffffffffffffffffff1681526020019081526020015f205f6101000a81548160ff0219169083151502179055503373ffffffffffffffffffffffffffffffffffffffff166108fc8290811502906040515f60405180830381858888f19350505050610396576040517f08c379a000000000000000000000000000000000000000000000000000000000815260040161038d90610758565b60405180910390fd5b8060015f3373ffffffffffffffffffffffffffffffffffffffff1673ffffffffffffffffffffffffffffffffffffffff1681526020019081526020015f205f8282546103e29190610776565b925050819055505f60025f3373ffffffffffffffffffffffffffffffffffffffff1673ffffffffffffffffffffffffffffffffffffffff1681526020019081526020015f205f6101000a81548160ff02191690831515021790555050565b5f80fd5b5f73ffffffffffffffffffffffffffffffffffffffff82169050919050565b5f61046d82610444565b9050919050565b61047d81610463565b8114610487575f80fd5b50565b5f8135905061049881610474565b92915050565b5f602082840312156104b3576104b2610440565b5b5f6104c08482850161048a565b91505092915050565b5f819050919050565b6104db816104c9565b82525050565b5f6020820190506104f45f8301846104d2565b92915050565b5f8115159050919050565b61050e816104fa565b82525050565b5f6020820190506105275f830184610505565b92915050565b610536816104c9565b8114610540575f80fd5b50565b5f813590506105518161052d565b92915050565b5f6020828403121561056c5761056b610440565b5b5f61057984828501610543565b91505092915050565b7f4e487b71000000000000000000000000000000000000000000000000000000005f52601160045260245ffd5b5f6105b9826104c9565b91506105c4836104c9565b92508282019050808211156105dc576105db610582565b5b92915050565b5f82825260208201905092915050565b7f53616c646f20696e737566696369656e746500000000000000000000000000005f82015250565b5f6106266012836105e2565b9150610631826105f2565b602082019050919050565b5f6020820190508181035f8301526106538161061a565b9050919050565b7f4c61207472616e73666572656e636961207961206573746120656e20637572735f8201527f6f00000000000000000000000000000000000000000000000000000000000000602082015250565b5f6106b46021836105e2565b91506106bf8261065a565b604082019050919050565b5f6020820190508181035f8301526106e1816106a8565b9050919050565b7f4572726f7220616c207265616c697a6172206c61207472616e73666572656e635f8201527f6961000000000000000000000000000000000000000000000000000000000000602082015250565b5f6107426022836105e2565b915061074d826106e8565b604082019050919050565b5f6020820190508181035f83015261076f81610736565b9050919050565b5f610780826104c9565b915061078b836104c9565b92508282039050818111156107a3576107a2610582565b5b9291505056fea26469706673582212204de8c19a206a8dba5164b87b32b6cc10483a26f5847017d12ddbe27510f9d9c664736f6c63430008140033","linkReferences":{}},"methodIdentifiers":{"balance()":"b69ef8a8","balances(address)":"27e235e3","depositar()":"3d922f90","isTransfering(address)":"c25ac000","retirar(uint256)":"e8b1298f"},"id":35}