{"abi":[{"type":"function","name":"transfer","inputs":[{"name":"_from","type":"address","internalType":"address"},{"name":"_to","type":"address","internalType":"address"},{"name":"_amount","type":"uint256","internalType":"uint256"}],"outputs":[],"stateMutability":"nonpayable"},{"type":"function","name":"transferMany","inputs":[{"name":"_from","type":"address","internalType":"address"},{"name":"_to","type":"address[]","internalType":"address[]"},{"name":"_amount","type":"uint256[]","internalType":"uint256[]"}],"outputs":[],"stateMutability":"nonpayable"},{"type":"event","name":"Transfer","inputs":[{"name":"_from","type":"address","indexed":true,"internalType":"address"},{"name":"_to","type":"address","indexed":true,"internalType":"address"},{"name":"_amount","type":"uint256","indexed":false,"internalType":"uint256"}],"anonymous":false}],"bytecode":{"object":"0x608060405234801561000f575f80fd5b506104fd8061001d5f395ff3fe608060405234801561000f575f80fd5b5060043610610034575f3560e01c80631a9d4dc914610038578063beabacc814610054575b5f80fd5b610052600480360381019061004d91906102bf565b610070565b005b61006e60048036038101906100699190610383565b61013d565b005b5f5b84849050811015610135578484828181106100905761008f6103d3565b5b90506020020160208101906100a59190610400565b73ffffffffffffffffffffffffffffffffffffffff168673ffffffffffffffffffffffffffffffffffffffff167fddf252ad1be2c89b69c2b068fc378daa952ba7f163c4a11628f55a4df523b3ef858585818110610106576101056103d3565b5b9050602002013560405161011a919061043a565b60405180910390a3808061012d90610480565b915050610072565b505050505050565b8173ffffffffffffffffffffffffffffffffffffffff168373ffffffffffffffffffffffffffffffffffffffff167fddf252ad1be2c89b69c2b068fc378daa952ba7f163c4a11628f55a4df523b3ef8360405161019a919061043a565b60405180910390a3505050565b5f80fd5b5f80fd5b5f73ffffffffffffffffffffffffffffffffffffffff82169050919050565b5f6101d8826101af565b9050919050565b6101e8816101ce565b81146101f2575f80fd5b50565b5f81359050610203816101df565b92915050565b5f80fd5b5f80fd5b5f80fd5b5f8083601f84011261022a57610229610209565b5b8235905067ffffffffffffffff8111156102475761024661020d565b5b60208301915083602082028301111561026357610262610211565b5b9250929050565b5f8083601f84011261027f5761027e610209565b5b8235905067ffffffffffffffff81111561029c5761029b61020d565b5b6020830191508360208202830111156102b8576102b7610211565b5b9250929050565b5f805f805f606086880312156102d8576102d76101a7565b5b5f6102e5888289016101f5565b955050602086013567ffffffffffffffff811115610306576103056101ab565b5b61031288828901610215565b9450945050604086013567ffffffffffffffff811115610335576103346101ab565b5b6103418882890161026a565b92509250509295509295909350565b5f819050919050565b61036281610350565b811461036c575f80fd5b50565b5f8135905061037d81610359565b92915050565b5f805f6060848603121561039a576103996101a7565b5b5f6103a7868287016101f5565b93505060206103b8868287016101f5565b92505060406103c98682870161036f565b9150509250925092565b7f4e487b71000000000000000000000000000000000000000000000000000000005f52603260045260245ffd5b5f60208284031215610415576104146101a7565b5b5f610422848285016101f5565b91505092915050565b61043481610350565b82525050565b5f60208201905061044d5f83018461042b565b92915050565b7f4e487b71000000000000000000000000000000000000000000000000000000005f52601160045260245ffd5b5f61048a82610350565b91507fffffffffffffffffffffffffffffffffffffffffffffffffffffffffffffffff82036104bc576104bb610453565b5b60018201905091905056fea2646970667358221220a3b9cbc62f91570ee57a7338d1a94704d8bf248e6f0497256a85b72d9d4a131d64736f6c63430008140033","linkReferences":{}},"methodIdentifiers":{"transfer(address,address,uint256)":"beabacc8","transferMany(address,address[],uint256[])":"1a9d4dc9"},"id":25}