{"abi":[{"type":"function","name":"throwCustomError","inputs":[],"outputs":[],"stateMutability":"pure"},{"type":"function","name":"throwError","inputs":[],"outputs":[],"stateMutability":"pure"},{"type":"error","name":"NoAutorizado","inputs":[]}],"bytecode":{"object":"0x6080604052348015600e575f5ffd5b5061016e8061001c5f395ff3fe608060405234801561000f575f5ffd5b5060043610610034575f3560e01c80632f7643a814610038578063c1e2603314610042575b5f5ffd5b61004061004c565b005b61004a61008e565b005b5f61008c576040517f08c379a00000000000000000000000000000000000000000000000000000000081526004016100839061011a565b60405180910390fd5b565b6040517f9334208400000000000000000000000000000000000000000000000000000000815260040160405180910390fd5b5f82825260208201905092915050565b7f4e6f204175746f72697a61646f000000000000000000000000000000000000005f82015250565b5f610104600d836100c0565b915061010f826100d0565b602082019050919050565b5f6020820190508181035f830152610131816100f8565b905091905056fea2646970667358221220bc1487c564440e8fc539ca343d7d454b465b42bc98b3a45038015ba18653ce7a64736f6c634300081e0033","linkReferences":{}},"methodIdentifiers":{"throwCustomError()":"c1e26033","throwError()":"2f7643a8"},"id":19}