{"abi":[{"type":"function","name":"MAX_ITERATIONS","inputs":[],"outputs":[{"name":"","type":"uint256","internalType":"uint256"}],"stateMutability":"view"},{"type":"function","name":"performCostlyOperation","inputs":[],"outputs":[{"name":"result","type":"uint256","internalType":"uint256"}],"stateMutability":"pure"}],"bytecode":{"object":"0x608060405234801561000f575f80fd5b5061021c8061001d5f395ff3fe608060405234801561000f575f80fd5b5060043610610034575f3560e01c80631d92c26d14610038578063f6160de214610056575b5f80fd5b610040610074565b60405161004d91906100cf565b60405180910390f35b61005e61007a565b60405161006b91906100cf565b60405180910390f35b61064081565b5f61008661064061008b565b905090565b5f600260018361009b9190610115565b836100a69190610148565b6100b091906101b6565b9050919050565b5f819050919050565b6100c9816100b7565b82525050565b5f6020820190506100e25f8301846100c0565b92915050565b7f4e487b71000000000000000000000000000000000000000000000000000000005f52601160045260245ffd5b5f61011f826100b7565b915061012a836100b7565b9250828201905080821115610142576101416100e8565b5b92915050565b5f610152826100b7565b915061015d836100b7565b925082820261016b816100b7565b91508282048414831517610182576101816100e8565b5b5092915050565b7f4e487b71000000000000000000000000000000000000000000000000000000005f52601260045260245ffd5b5f6101c0826100b7565b91506101cb836100b7565b9250826101db576101da610189565b5b82820490509291505056fea2646970667358221220530cf7d1629e943f7eda310f233ae7f7c6e937cf53ac31ce4cf84d0e67023a2464736f6c63430008140033","linkReferences":{}},"methodIdentifiers":{"MAX_ITERATIONS()":"1d92c26d","performCostlyOperation()":"f6160de2"},"id":33}