{
	"sc/src/SupplyChainTracker.sol": {
		"SupplyChainTracker": {
			"abi": [
				{
					"inputs": [],
					"stateMutability": "nonpayable",
					"type": "constructor"
				},
				{
					"inputs": [],
					"name": "ReentrancyGuardReentrantCall",
					"type": "error"
				},
				{
					"anonymous": false,
					"inputs": [
						{
							"indexed": true,
							"internalType": "uint256",
							"name": "tokenId",
							"type": "uint256"
						},
						{
							"indexed": true,
							"internalType": "address",
							"name": "creator",
							"type": "address"
						},
						{
							"indexed": false,
							"internalType": "string",
							"name": "name",
							"type": "string"
						},
						{
							"indexed": false,
							"internalType": "uint256",
							"name": "totalSupply",
							"type": "uint256"
						}
					],
					"name": "TokenCreated",
					"type": "event"
				},
				{
					"anonymous": false,
					"inputs": [
						{
							"indexed": true,
							"internalType": "uint256",
							"name": "transferId",
							"type": "uint256"
						}
					],
					"name": "TransferAccepted",
					"type": "event"
				},
				{
					"anonymous": false,
					"inputs": [
						{
							"indexed": true,
							"internalType": "uint256",
							"name": "transferId",
							"type": "uint256"
						}
					],
					"name": "TransferRejected",
					"type": "event"
				},
				{
					"anonymous": false,
					"inputs": [
						{
							"indexed": true,
							"internalType": "uint256",
							"name": "transferId",
							"type": "uint256"
						},
						{
							"indexed": true,
							"internalType": "address",
							"name": "from",
							"type": "address"
						},
						{
							"indexed": true,
							"internalType": "address",
							"name": "to",
							"type": "address"
						},
						{
							"indexed": false,
							"internalType": "uint256",
							"name": "tokenId",
							"type": "uint256"
						},
						{
							"indexed": false,
							"internalType": "uint256",
							"name": "amount",
							"type": "uint256"
						}
					],
					"name": "TransferRequested",
					"type": "event"
				},
				{
					"anonymous": false,
					"inputs": [
						{
							"indexed": true,
							"internalType": "address",
							"name": "user",
							"type": "address"
						},
						{
							"indexed": false,
							"internalType": "bytes32",
							"name": "role",
							"type": "bytes32"
						}
					],
					"name": "UserRoleRequested",
					"type": "event"
				},
				{
					"anonymous": false,
					"inputs": [
						{
							"indexed": true,
							"internalType": "address",
							"name": "user",
							"type": "address"
						},
						{
							"indexed": false,
							"internalType": "enum SupplyChainTracker.UserStatus",
							"name": "status",
							"type": "uint8"
						}
					],
					"name": "UserStatusChanged",
					"type": "event"
				},
				{
					"inputs": [
						{
							"internalType": "uint256",
							"name": "transferId",
							"type": "uint256"
						}
					],
					"name": "acceptTransfer",
					"outputs": [],
					"stateMutability": "nonpayable",
					"type": "function"
				},
				{
					"inputs": [
						{
							"internalType": "address",
							"name": "",
							"type": "address"
						}
					],
					"name": "addressToUserId",
					"outputs": [
						{
							"internalType": "uint256",
							"name": "",
							"type": "uint256"
						}
					],
					"stateMutability": "view",
					"type": "function"
				},
				{
					"inputs": [],
					"name": "admin",
					"outputs": [
						{
							"internalType": "address",
							"name": "",
							"type": "address"
						}
					],
					"stateMutability": "view",
					"type": "function"
				},
				{
					"inputs": [
						{
							"internalType": "address",
							"name": "userAddress",
							"type": "address"
						},
						{
							"internalType": "enum SupplyChainTracker.UserStatus",
							"name": "newStatus",
							"type": "uint8"
						}
					],
					"name": "changeStatusUser",
					"outputs": [],
					"stateMutability": "nonpayable",
					"type": "function"
				},
				{
					"inputs": [
						{
							"internalType": "string",
							"name": "name",
							"type": "string"
						},
						{
							"internalType": "uint256",
							"name": "totalSupply",
							"type": "uint256"
						},
						{
							"internalType": "string",
							"name": "features",
							"type": "string"
						},
						{
							"internalType": "uint256",
							"name": "parentId",
							"type": "uint256"
						}
					],
					"name": "createToken",
					"outputs": [],
					"stateMutability": "nonpayable",
					"type": "function"
				},
				{
					"inputs": [
						{
							"internalType": "uint256",
							"name": "tokenId",
							"type": "uint256"
						}
					],
					"name": "getToken",
					"outputs": [
						{
							"internalType": "uint256",
							"name": "id",
							"type": "uint256"
						},
						{
							"internalType": "address",
							"name": "creator",
							"type": "address"
						},
						{
							"internalType": "string",
							"name": "name",
							"type": "string"
						},
						{
							"internalType": "uint256",
							"name": "totalSupply",
							"type": "uint256"
						},
						{
							"internalType": "string",
							"name": "features",
							"type": "string"
						},
						{
							"internalType": "uint256",
							"name": "parentId",
							"type": "uint256"
						},
						{
							"internalType": "uint256",
							"name": "dateCreated",
							"type": "uint256"
						},
						{
							"internalType": "uint256",
							"name": "balance",
							"type": "uint256"
						}
					],
					"stateMutability": "view",
					"type": "function"
				},
				{
					"inputs": [
						{
							"internalType": "uint256",
							"name": "tokenId",
							"type": "uint256"
						},
						{
							"internalType": "address",
							"name": "user",
							"type": "address"
						}
					],
					"name": "getTokenBalance",
					"outputs": [
						{
							"internalType": "uint256",
							"name": "",
							"type": "uint256"
						}
					],
					"stateMutability": "view",
					"type": "function"
				},
				{
					"inputs": [
						{
							"internalType": "uint256",
							"name": "transferId",
							"type": "uint256"
						}
					],
					"name": "getTransfer",
					"outputs": [
						{
							"components": [
								{
									"internalType": "uint256",
									"name": "id",
									"type": "uint256"
								},
								{
									"internalType": "address",
									"name": "from",
									"type": "address"
								},
								{
									"internalType": "address",
									"name": "to",
									"type": "address"
								},
								{
									"internalType": "uint256",
									"name": "tokenId",
									"type": "uint256"
								},
								{
									"internalType": "uint256",
									"name": "dateCreated",
									"type": "uint256"
								},
								{
									"internalType": "uint256",
									"name": "amount",
									"type": "uint256"
								},
								{
									"internalType": "enum SupplyChainTracker.TransferStatus",
									"name": "status",
									"type": "uint8"
								}
							],
							"internalType": "struct SupplyChainTracker.Transfer",
							"name": "",
							"type": "tuple"
						}
					],
					"stateMutability": "view",
					"type": "function"
				},
				{
					"inputs": [
						{
							"internalType": "address",
							"name": "userAddress",
							"type": "address"
						}
					],
					"name": "getUserInfo",
					"outputs": [
						{
							"components": [
								{
									"internalType": "uint256",
									"name": "id",
									"type": "uint256"
								},
								{
									"internalType": "address",
									"name": "userAddress",
									"type": "address"
								},
								{
									"internalType": "bytes32",
									"name": "role",
									"type": "bytes32"
								},
								{
									"internalType": "enum SupplyChainTracker.UserStatus",
									"name": "status",
									"type": "uint8"
								}
							],
							"internalType": "struct SupplyChainTracker.User",
							"name": "",
							"type": "tuple"
						}
					],
					"stateMutability": "view",
					"type": "function"
				},
				{
					"inputs": [
						{
							"internalType": "address",
							"name": "user",
							"type": "address"
						}
					],
					"name": "getUserTokens",
					"outputs": [
						{
							"internalType": "uint256[]",
							"name": "",
							"type": "uint256[]"
						}
					],
					"stateMutability": "view",
					"type": "function"
				},
				{
					"inputs": [
						{
							"internalType": "address",
							"name": "user",
							"type": "address"
						}
					],
					"name": "getUserTransfers",
					"outputs": [
						{
							"internalType": "uint256[]",
							"name": "",
							"type": "uint256[]"
						}
					],
					"stateMutability": "view",
					"type": "function"
				},
				{
					"inputs": [],
					"name": "nextTokenId",
					"outputs": [
						{
							"internalType": "uint256",
							"name": "",
							"type": "uint256"
						}
					],
					"stateMutability": "view",
					"type": "function"
				},
				{
					"inputs": [],
					"name": "nextTransferId",
					"outputs": [
						{
							"internalType": "uint256",
							"name": "",
							"type": "uint256"
						}
					],
					"stateMutability": "view",
					"type": "function"
				},
				{
					"inputs": [],
					"name": "nextUserId",
					"outputs": [
						{
							"internalType": "uint256",
							"name": "",
							"type": "uint256"
						}
					],
					"stateMutability": "view",
					"type": "function"
				},
				{
					"inputs": [
						{
							"internalType": "uint256",
							"name": "transferId",
							"type": "uint256"
						}
					],
					"name": "rejectTransfer",
					"outputs": [],
					"stateMutability": "nonpayable",
					"type": "function"
				},
				{
					"inputs": [
						{
							"internalType": "bytes32",
							"name": "role",
							"type": "bytes32"
						}
					],
					"name": "requestUserRole",
					"outputs": [],
					"stateMutability": "nonpayable",
					"type": "function"
				},
				{
					"inputs": [
						{
							"internalType": "uint256",
							"name": "",
							"type": "uint256"
						}
					],
					"name": "tokens",
					"outputs": [
						{
							"internalType": "uint256",
							"name": "id",
							"type": "uint256"
						},
						{
							"internalType": "address",
							"name": "creator",
							"type": "address"
						},
						{
							"internalType": "string",
							"name": "name",
							"type": "string"
						},
						{
							"internalType": "uint256",
							"name": "totalSupply",
							"type": "uint256"
						},
						{
							"internalType": "string",
							"name": "features",
							"type": "string"
						},
						{
							"internalType": "uint256",
							"name": "parentId",
							"type": "uint256"
						},
						{
							"internalType": "uint256",
							"name": "dateCreated",
							"type": "uint256"
						}
					],
					"stateMutability": "view",
					"type": "function"
				},
				{
					"inputs": [
						{
							"internalType": "address",
							"name": "to",
							"type": "address"
						},
						{
							"internalType": "uint256",
							"name": "tokenId",
							"type": "uint256"
						},
						{
							"internalType": "uint256",
							"name": "amount",
							"type": "uint256"
						}
					],
					"name": "transfer",
					"outputs": [],
					"stateMutability": "nonpayable",
					"type": "function"
				},
				{
					"inputs": [
						{
							"internalType": "uint256",
							"name": "",
							"type": "uint256"
						}
					],
					"name": "transfers",
					"outputs": [
						{
							"internalType": "uint256",
							"name": "id",
							"type": "uint256"
						},
						{
							"internalType": "address",
							"name": "from",
							"type": "address"
						},
						{
							"internalType": "address",
							"name": "to",
							"type": "address"
						},
						{
							"internalType": "uint256",
							"name": "tokenId",
							"type": "uint256"
						},
						{
							"internalType": "uint256",
							"name": "dateCreated",
							"type": "uint256"
						},
						{
							"internalType": "uint256",
							"name": "amount",
							"type": "uint256"
						},
						{
							"internalType": "enum SupplyChainTracker.TransferStatus",
							"name": "status",
							"type": "uint8"
						}
					],
					"stateMutability": "view",
					"type": "function"
				},
				{
					"inputs": [
						{
							"internalType": "uint256",
							"name": "",
							"type": "uint256"
						}
					],
					"name": "users",
					"outputs": [
						{
							"internalType": "uint256",
							"name": "id",
							"type": "uint256"
						},
						{
							"internalType": "address",
							"name": "userAddress",
							"type": "address"
						},
						{
							"internalType": "bytes32",
							"name": "role",
							"type": "bytes32"
						},
						{
							"internalType": "enum SupplyChainTracker.UserStatus",
							"name": "status",
							"type": "uint8"
						}
					],
					"stateMutability": "view",
					"type": "function"
				}
			],
			"devdoc": {
				"errors": {
					"ReentrancyGuardReentrantCall()": [
						{
							"details": "Unauthorized reentrant call."
						}
					]
				},
				"kind": "dev",
				"methods": {},
				"version": 1
			},
			"evm": {
				"assembly": "    /* \"sc/src/SupplyChainTracker.sol\":356:9483  contract SupplyChainTracker is ReentrancyGuard {... */\n  mstore(0x40, 0xa0)\n    /* \"sc/src/SupplyChainTracker.sol\":1513:1514  1 */\n  0x01\n    /* \"sc/src/SupplyChainTracker.sol\":1484:1514  uint256 public nextTokenId = 1 */\n  dup1\n  sstore\n    /* \"sc/src/SupplyChainTracker.sol\":1552:1553  1 */\n  0x01\n    /* \"sc/src/SupplyChainTracker.sol\":1520:1553  uint256 public nextTransferId = 1 */\n  0x02\n  sstore\n    /* \"sc/src/SupplyChainTracker.sol\":1587:1588  1 */\n  0x01\n    /* \"sc/src/SupplyChainTracker.sol\":1559:1588  uint256 public nextUserId = 1 */\n  0x03\n  sstore\n    /* \"sc/src/SupplyChainTracker.sol\":2621:2670  constructor() {... */\n  callvalue\n  dup1\n  iszero\n  tag_1\n  jumpi\n  revert(0x00, 0x00)\ntag_1:\n  pop\n    /* \"@openzeppelin/contracts/utils/ReentrancyGuard.sol\":1857:1858  1 */\n  0x01\n    /* \"@openzeppelin/contracts/utils/ReentrancyGuard.sol\":2061:2068  _status */\n  0x00\n    /* \"@openzeppelin/contracts/utils/ReentrancyGuard.sol\":2061:2082  _status = NOT_ENTERED */\n  dup2\n  swap1\n  sstore\n  pop\n    /* \"sc/src/SupplyChainTracker.sol\":2653:2663  msg.sender */\n  caller\n    /* \"sc/src/SupplyChainTracker.sol\":2645:2663  admin = msg.sender */\n  0xffffffffffffffffffffffffffffffffffffffff\n  and\n  0x80\n  dup2\n  0xffffffffffffffffffffffffffffffffffffffff\n  and\n  dup2\n  mstore\n  pop\n  pop\n    /* \"sc/src/SupplyChainTracker.sol\":356:9483  contract SupplyChainTracker is ReentrancyGuard {... */\n  mload(0x80)\n  codecopy(0x00, dataOffset(sub_0), dataSize(sub_0))\n  0x00\n  assignImmutable(\"0xb004fbd84afb38927636fa378c0a62a86a02b00862b6ff80fef4d6e948c0571d\")\n  return(0x00, dataSize(sub_0))\nstop\n\nsub_0: assembly {\n        /* \"sc/src/SupplyChainTracker.sol\":356:9483  contract SupplyChainTracker is ReentrancyGuard {... */\n      mstore(0x40, 0x80)\n      callvalue\n      dup1\n      iszero\n      tag_1\n      jumpi\n      revert(0x00, 0x00)\n    tag_1:\n      pop\n      jumpi(tag_2, lt(calldatasize, 0x04))\n      shr(0xe0, calldataload(0x00))\n      dup1\n      0x8782dc00\n      gt\n      tag_23\n      jumpi\n      dup1\n      0xc16fe907\n      gt\n      tag_24\n      jumpi\n      dup1\n      0xc16fe907\n      eq\n      tag_18\n      jumpi\n      dup1\n      0xd67b2d08\n      eq\n      tag_19\n      jumpi\n      dup1\n      0xe4b50cb8\n      eq\n      tag_20\n      jumpi\n      dup1\n      0xef57e2d2\n      eq\n      tag_21\n      jumpi\n      dup1\n      0xf851a440\n      eq\n      tag_22\n      jumpi\n      jump(tag_2)\n    tag_24:\n      dup1\n      0x8782dc00\n      eq\n      tag_13\n      jumpi\n      dup1\n      0x9377d711\n      eq\n      tag_14\n      jumpi\n      dup1\n      0xa1e6a255\n      eq\n      tag_15\n      jumpi\n      dup1\n      0xb5ffbbcc\n      eq\n      tag_16\n      jumpi\n      dup1\n      0xb85b381b\n      eq\n      tag_17\n      jumpi\n      jump(tag_2)\n    tag_23:\n      dup1\n      0x49217ca4\n      gt\n      tag_25\n      jumpi\n      dup1\n      0x49217ca4\n      eq\n      tag_8\n      jumpi\n      dup1\n      0x4f64b2be\n      eq\n      tag_9\n      jumpi\n      dup1\n      0x519dc8d2\n      eq\n      tag_10\n      jumpi\n      dup1\n      0x6386c1c7\n      eq\n      tag_11\n      jumpi\n      dup1\n      0x75794a3c\n      eq\n      tag_12\n      jumpi\n      jump(tag_2)\n    tag_25:\n      dup1\n      0x095bcdb6\n      eq\n      tag_3\n      jumpi\n      dup1\n      0x12effc32\n      eq\n      tag_4\n      jumpi\n      dup1\n      0x274fae7c\n      eq\n      tag_5\n      jumpi\n      dup1\n      0x335d3410\n      eq\n      tag_6\n      jumpi\n      dup1\n      0x365b98b2\n      eq\n      tag_7\n      jumpi\n    tag_2:\n      revert(0x00, 0x00)\n        /* \"sc/src/SupplyChainTracker.sol\":5456:6697  function transfer(address to, uint256 tokenId, uint256 amount) public onlyApprovedUser nonReentrant {... */\n    tag_3:\n      tag_26\n      0x04\n      dup1\n      calldatasize\n      sub\n      dup2\n      add\n      swap1\n      tag_27\n      swap2\n      swap1\n      tag_28\n      jump\t// in\n    tag_27:\n      tag_29\n      jump\t// in\n    tag_26:\n      stop\n        /* \"sc/src/SupplyChainTracker.sol\":7341:7793  function rejectTransfer(uint256 transferId) public nonReentrant {... */\n    tag_4:\n      tag_30\n      0x04\n      dup1\n      calldatasize\n      sub\n      dup2\n      add\n      swap1\n      tag_31\n      swap2\n      swap1\n      tag_32\n      jump\t// in\n    tag_31:\n      tag_33\n      jump\t// in\n    tag_30:\n      stop\n        /* \"sc/src/SupplyChainTracker.sol\":6833:7335  function acceptTransfer(uint256 transferId) public onlyApprovedUser {... */\n    tag_5:\n      tag_34\n      0x04\n      dup1\n      calldatasize\n      sub\n      dup2\n      add\n      swap1\n      tag_35\n      swap2\n      swap1\n      tag_32\n      jump\t// in\n    tag_35:\n      tag_36\n      jump\t// in\n    tag_34:\n      stop\n        /* \"sc/src/SupplyChainTracker.sol\":8922:9481  function getUserTransfers(address user) public view returns (uint256[] memory) {... */\n    tag_6:\n      tag_37\n      0x04\n      dup1\n      calldatasize\n      sub\n      dup2\n      add\n      swap1\n      tag_38\n      swap2\n      swap1\n      tag_39\n      jump\t// in\n    tag_38:\n      tag_40\n      jump\t// in\n    tag_37:\n      mload(0x40)\n      tag_41\n      swap2\n      swap1\n      tag_42\n      jump\t// in\n    tag_41:\n      mload(0x40)\n      dup1\n      swap2\n      sub\n      swap1\n      return\n        /* \"sc/src/SupplyChainTracker.sol\":1691:1728  mapping(uint256 => User) public users */\n    tag_7:\n      tag_43\n      0x04\n      dup1\n      calldatasize\n      sub\n      dup2\n      add\n      swap1\n      tag_44\n      swap2\n      swap1\n      tag_32\n      jump\t// in\n    tag_44:\n      tag_45\n      jump\t// in\n    tag_43:\n      mload(0x40)\n      tag_46\n      swap5\n      swap4\n      swap3\n      swap2\n      swap1\n      tag_47\n      jump\t// in\n    tag_46:\n      mload(0x40)\n      dup1\n      swap2\n      sub\n      swap1\n      return\n        /* \"sc/src/SupplyChainTracker.sol\":2707:3396  function requestUserRole(bytes32 role) public {... */\n    tag_8:\n      tag_48\n      0x04\n      dup1\n      calldatasize\n      sub\n      dup2\n      add\n      swap1\n      tag_49\n      swap2\n      swap1\n      tag_50\n      jump\t// in\n    tag_49:\n      tag_51\n      jump\t// in\n    tag_48:\n      stop\n        /* \"sc/src/SupplyChainTracker.sol\":1595:1634  mapping(uint256 => Token) public tokens */\n    tag_9:\n      tag_52\n      0x04\n      dup1\n      calldatasize\n      sub\n      dup2\n      add\n      swap1\n      tag_53\n      swap2\n      swap1\n      tag_32\n      jump\t// in\n    tag_53:\n      tag_54\n      jump\t// in\n    tag_52:\n      mload(0x40)\n      tag_55\n      swap8\n      swap7\n      swap6\n      swap5\n      swap4\n      swap3\n      swap2\n      swap1\n      tag_56\n      jump\t// in\n    tag_55:\n      mload(0x40)\n      dup1\n      swap2\n      sub\n      swap1\n      return\n        /* \"sc/src/SupplyChainTracker.sol\":8299:8916  function getUserTokens(address user) public view returns (uint256[] memory) {... */\n    tag_10:\n      tag_57\n      0x04\n      dup1\n      calldatasize\n      sub\n      dup2\n      add\n      swap1\n      tag_58\n      swap2\n      swap1\n      tag_39\n      jump\t// in\n    tag_58:\n      tag_59\n      jump\t// in\n    tag_57:\n      mload(0x40)\n      tag_60\n      swap2\n      swap1\n      tag_42\n      jump\t// in\n    tag_60:\n      mload(0x40)\n      dup1\n      swap2\n      sub\n      swap1\n      return\n        /* \"sc/src/SupplyChainTracker.sol\":3702:3931  function getUserInfo(address userAddress) public view returns (User memory) {... */\n    tag_11:\n      tag_61\n      0x04\n      dup1\n      calldatasize\n      sub\n      dup2\n      add\n      swap1\n      tag_62\n      swap2\n      swap1\n      tag_39\n      jump\t// in\n    tag_62:\n      tag_63\n      jump\t// in\n    tag_61:\n      mload(0x40)\n      tag_64\n      swap2\n      swap1\n      tag_65\n      jump\t// in\n    tag_64:\n      mload(0x40)\n      dup1\n      swap2\n      sub\n      swap1\n      return\n        /* \"sc/src/SupplyChainTracker.sol\":1484:1514  uint256 public nextTokenId = 1 */\n    tag_12:\n      tag_66\n      tag_67\n      jump\t// in\n    tag_66:\n      mload(0x40)\n      tag_68\n      swap2\n      swap1\n      tag_69\n      jump\t// in\n    tag_68:\n      mload(0x40)\n      dup1\n      swap2\n      sub\n      swap1\n      return\n        /* \"sc/src/SupplyChainTracker.sol\":3402:3696  function changeStatusUser(address userAddress, UserStatus newStatus) public onlyAdmin {... */\n    tag_13:\n      tag_70\n      0x04\n      dup1\n      calldatasize\n      sub\n      dup2\n      add\n      swap1\n      tag_71\n      swap2\n      swap1\n      tag_72\n      jump\t// in\n    tag_71:\n      tag_73\n      jump\t// in\n    tag_70:\n      stop\n        /* \"sc/src/SupplyChainTracker.sol\":1640:1685  mapping(uint256 => Transfer) public transfers */\n    tag_14:\n      tag_74\n      0x04\n      dup1\n      calldatasize\n      sub\n      dup2\n      add\n      swap1\n      tag_75\n      swap2\n      swap1\n      tag_32\n      jump\t// in\n    tag_75:\n      tag_76\n      jump\t// in\n    tag_74:\n      mload(0x40)\n      tag_77\n      swap8\n      swap7\n      swap6\n      swap5\n      swap4\n      swap3\n      swap2\n      swap1\n      tag_78\n      jump\t// in\n    tag_77:\n      mload(0x40)\n      dup1\n      swap2\n      sub\n      swap1\n      return\n        /* \"sc/src/SupplyChainTracker.sol\":1559:1588  uint256 public nextUserId = 1 */\n    tag_15:\n      tag_79\n      tag_80\n      jump\t// in\n    tag_79:\n      mload(0x40)\n      tag_81\n      swap2\n      swap1\n      tag_69\n      jump\t// in\n    tag_81:\n      mload(0x40)\n      dup1\n      swap2\n      sub\n      swap1\n      return\n        /* \"sc/src/SupplyChainTracker.sol\":1734:1784  mapping(address => uint256) public addressToUserId */\n    tag_16:\n      tag_82\n      0x04\n      dup1\n      calldatasize\n      sub\n      dup2\n      add\n      swap1\n      tag_83\n      swap2\n      swap1\n      tag_39\n      jump\t// in\n    tag_83:\n      tag_84\n      jump\t// in\n    tag_82:\n      mload(0x40)\n      tag_85\n      swap2\n      swap1\n      tag_69\n      jump\t// in\n    tag_85:\n      mload(0x40)\n      dup1\n      swap2\n      sub\n      swap1\n      return\n        /* \"sc/src/SupplyChainTracker.sol\":1520:1553  uint256 public nextTransferId = 1 */\n    tag_17:\n      tag_86\n      tag_87\n      jump\t// in\n    tag_86:\n      mload(0x40)\n      tag_88\n      swap2\n      swap1\n      tag_69\n      jump\t// in\n    tag_88:\n      mload(0x40)\n      dup1\n      swap2\n      sub\n      swap1\n      return\n        /* \"sc/src/SupplyChainTracker.sol\":6703:6827  function getTransfer(uint256 transferId) public view returns (Transfer memory) {... */\n    tag_18:\n      tag_89\n      0x04\n      dup1\n      calldatasize\n      sub\n      dup2\n      add\n      swap1\n      tag_90\n      swap2\n      swap1\n      tag_32\n      jump\t// in\n    tag_90:\n      tag_91\n      jump\t// in\n    tag_89:\n      mload(0x40)\n      tag_92\n      swap2\n      swap1\n      tag_93\n      jump\t// in\n    tag_92:\n      mload(0x40)\n      dup1\n      swap2\n      sub\n      swap1\n      return\n        /* \"sc/src/SupplyChainTracker.sol\":3969:4648  function createToken(... */\n    tag_19:\n      tag_94\n      0x04\n      dup1\n      calldatasize\n      sub\n      dup2\n      add\n      swap1\n      tag_95\n      swap2\n      swap1\n      tag_96\n      jump\t// in\n    tag_95:\n      tag_97\n      jump\t// in\n    tag_94:\n      stop\n        /* \"sc/src/SupplyChainTracker.sol\":4654:5241  function getToken(uint256 tokenId) public view returns (... */\n    tag_20:\n      tag_98\n      0x04\n      dup1\n      calldatasize\n      sub\n      dup2\n      add\n      swap1\n      tag_99\n      swap2\n      swap1\n      tag_32\n      jump\t// in\n    tag_99:\n      tag_100\n      jump\t// in\n    tag_98:\n      mload(0x40)\n      tag_101\n      swap9\n      swap8\n      swap7\n      swap6\n      swap5\n      swap4\n      swap3\n      swap2\n      swap1\n      tag_102\n      jump\t// in\n    tag_101:\n      mload(0x40)\n      dup1\n      swap2\n      sub\n      swap1\n      return\n        /* \"sc/src/SupplyChainTracker.sol\":5247:5450  function getTokenBalance(uint256 tokenId, address user) public view returns (uint256) {... */\n    tag_21:\n      tag_103\n      0x04\n      dup1\n      calldatasize\n      sub\n      dup2\n      add\n      swap1\n      tag_104\n      swap2\n      swap1\n      tag_105\n      jump\t// in\n    tag_104:\n      tag_106\n      jump\t// in\n    tag_103:\n      mload(0x40)\n      tag_107\n      swap2\n      swap1\n      tag_69\n      jump\t// in\n    tag_107:\n      mload(0x40)\n      dup1\n      swap2\n      sub\n      swap1\n      return\n        /* \"sc/src/SupplyChainTracker.sol\":1448:1478  address public immutable admin */\n    tag_22:\n      tag_108\n      tag_109\n      jump\t// in\n    tag_108:\n      mload(0x40)\n      tag_110\n      swap2\n      swap1\n      tag_111\n      jump\t// in\n    tag_110:\n      mload(0x40)\n      dup1\n      swap2\n      sub\n      swap1\n      return\n        /* \"sc/src/SupplyChainTracker.sol\":5456:6697  function transfer(address to, uint256 tokenId, uint256 amount) public onlyApprovedUser nonReentrant {... */\n    tag_29:\n        /* \"sc/src/SupplyChainTracker.sol\":2460:2474  uint256 userId */\n      0x00\n        /* \"sc/src/SupplyChainTracker.sol\":2477:2492  addressToUserId */\n      0x07\n        /* \"sc/src/SupplyChainTracker.sol\":2477:2504  addressToUserId[msg.sender] */\n      0x00\n        /* \"sc/src/SupplyChainTracker.sol\":2493:2503  msg.sender */\n      caller\n        /* \"sc/src/SupplyChainTracker.sol\":2477:2504  addressToUserId[msg.sender] */\n      0xffffffffffffffffffffffffffffffffffffffff\n      and\n      0xffffffffffffffffffffffffffffffffffffffff\n      and\n      dup2\n      mstore\n      0x20\n      add\n      swap1\n      dup2\n      mstore\n      0x20\n      add\n      0x00\n      keccak256\n      sload\n        /* \"sc/src/SupplyChainTracker.sol\":2460:2504  uint256 userId = addressToUserId[msg.sender] */\n      swap1\n      pop\n        /* \"sc/src/SupplyChainTracker.sol\":2532:2533  0 */\n      0x00\n        /* \"sc/src/SupplyChainTracker.sol\":2522:2528  userId */\n      dup2\n        /* \"sc/src/SupplyChainTracker.sol\":2522:2533  userId != 0 */\n      eq\n      iszero\n        /* \"sc/src/SupplyChainTracker.sol\":2522:2580  userId != 0 && users[userId].status == UserStatus.Approved */\n      dup1\n      iszero\n      tag_113\n      jumpi\n      pop\n        /* \"sc/src/SupplyChainTracker.sol\":2561:2580  UserStatus.Approved */\n      0x01\n        /* \"sc/src/SupplyChainTracker.sol\":2537:2580  users[userId].status == UserStatus.Approved */\n      0x03\n      dup2\n      gt\n      iszero\n      tag_114\n      jumpi\n      tag_115\n      tag_116\n      jump\t// in\n    tag_115:\n    tag_114:\n        /* \"sc/src/SupplyChainTracker.sol\":2537:2542  users */\n      0x06\n        /* \"sc/src/SupplyChainTracker.sol\":2537:2550  users[userId] */\n      0x00\n        /* \"sc/src/SupplyChainTracker.sol\":2543:2549  userId */\n      dup4\n        /* \"sc/src/SupplyChainTracker.sol\":2537:2550  users[userId] */\n      dup2\n      mstore\n      0x20\n      add\n      swap1\n      dup2\n      mstore\n      0x20\n      add\n      0x00\n      keccak256\n        /* \"sc/src/SupplyChainTracker.sol\":2537:2557  users[userId].status */\n      0x03\n      add\n      0x00\n      swap1\n      sload\n      swap1\n      0x0100\n      exp\n      swap1\n      div\n      0xff\n      and\n        /* \"sc/src/SupplyChainTracker.sol\":2537:2580  users[userId].status == UserStatus.Approved */\n      0x03\n      dup2\n      gt\n      iszero\n      tag_117\n      jumpi\n      tag_118\n      tag_116\n      jump\t// in\n    tag_118:\n    tag_117:\n      eq\n        /* \"sc/src/SupplyChainTracker.sol\":2522:2580  userId != 0 && users[userId].status == UserStatus.Approved */\n    tag_113:\n        /* \"sc/src/SupplyChainTracker.sol\":2514:2597  require(userId != 0 && users[userId].status == UserStatus.Approved, \"Not approved\") */\n      tag_119\n      jumpi\n      mload(0x40)\n      0x08c379a000000000000000000000000000000000000000000000000000000000\n      dup2\n      mstore\n      0x04\n      add\n      tag_120\n      swap1\n      tag_121\n      jump\t// in\n    tag_120:\n      mload(0x40)\n      dup1\n      swap2\n      sub\n      swap1\n      revert\n    tag_119:\n        /* \"@openzeppelin/contracts/utils/ReentrancyGuard.sol\":2500:2521  _nonReentrantBefore() */\n      tag_123\n        /* \"@openzeppelin/contracts/utils/ReentrancyGuard.sol\":2500:2519  _nonReentrantBefore */\n      tag_124\n        /* \"@openzeppelin/contracts/utils/ReentrancyGuard.sol\":2500:2521  _nonReentrantBefore() */\n      jump\t// in\n    tag_123:\n        /* \"sc/src/SupplyChainTracker.sol\":5588:5589  0 */\n      0x00\n        /* \"sc/src/SupplyChainTracker.sol\":5574:5590  to != address(0) */\n      0xffffffffffffffffffffffffffffffffffffffff\n      and\n        /* \"sc/src/SupplyChainTracker.sol\":5574:5576  to */\n      dup5\n        /* \"sc/src/SupplyChainTracker.sol\":5574:5590  to != address(0) */\n      0xffffffffffffffffffffffffffffffffffffffff\n      and\n      eq\n      iszero\n        /* \"sc/src/SupplyChainTracker.sol\":5574:5610  to != address(0) && to != msg.sender */\n      dup1\n      iszero\n      tag_126\n      jumpi\n      pop\n        /* \"sc/src/SupplyChainTracker.sol\":5600:5610  msg.sender */\n      caller\n        /* \"sc/src/SupplyChainTracker.sol\":5594:5610  to != msg.sender */\n      0xffffffffffffffffffffffffffffffffffffffff\n      and\n        /* \"sc/src/SupplyChainTracker.sol\":5594:5596  to */\n      dup5\n        /* \"sc/src/SupplyChainTracker.sol\":5594:5610  to != msg.sender */\n      0xffffffffffffffffffffffffffffffffffffffff\n      and\n      eq\n      iszero\n        /* \"sc/src/SupplyChainTracker.sol\":5574:5610  to != address(0) && to != msg.sender */\n    tag_126:\n        /* \"sc/src/SupplyChainTracker.sol\":5566:5632  require(to != address(0) && to != msg.sender, \"Invalid recipient\") */\n      tag_127\n      jumpi\n      mload(0x40)\n      0x08c379a000000000000000000000000000000000000000000000000000000000\n      dup2\n      mstore\n      0x04\n      add\n      tag_128\n      swap1\n      tag_129\n      jump\t// in\n    tag_128:\n      mload(0x40)\n      dup1\n      swap2\n      sub\n      swap1\n      revert\n    tag_127:\n        /* \"sc/src/SupplyChainTracker.sol\":5659:5660  0 */\n      0x00\n        /* \"sc/src/SupplyChainTracker.sol\":5650:5656  amount */\n      dup3\n        /* \"sc/src/SupplyChainTracker.sol\":5650:5660  amount > 0 */\n      gt\n        /* \"sc/src/SupplyChainTracker.sol\":5642:5683  require(amount > 0, \"Amount must be > 0\") */\n      tag_130\n      jumpi\n      mload(0x40)\n      0x08c379a000000000000000000000000000000000000000000000000000000000\n      dup2\n      mstore\n      0x04\n      add\n      tag_131\n      swap1\n      tag_132\n      jump\t// in\n    tag_131:\n      mload(0x40)\n      dup1\n      swap2\n      sub\n      swap1\n      revert\n    tag_130:\n        /* \"sc/src/SupplyChainTracker.sol\":5711:5722  nextTokenId */\n      sload(0x01)\n        /* \"sc/src/SupplyChainTracker.sol\":5701:5708  tokenId */\n      dup4\n        /* \"sc/src/SupplyChainTracker.sol\":5701:5722  tokenId < nextTokenId */\n      lt\n        /* \"sc/src/SupplyChainTracker.sol\":5693:5747  require(tokenId < nextTokenId, \"Token does not exist\") */\n      tag_133\n      jumpi\n      mload(0x40)\n      0x08c379a000000000000000000000000000000000000000000000000000000000\n      dup2\n      mstore\n      0x04\n      add\n      tag_134\n      swap1\n      tag_135\n      jump\t// in\n    tag_134:\n      mload(0x40)\n      dup1\n      swap2\n      sub\n      swap1\n      revert\n    tag_133:\n        /* \"sc/src/SupplyChainTracker.sol\":5758:5772  uint256 userId */\n      0x00\n        /* \"sc/src/SupplyChainTracker.sol\":5775:5790  addressToUserId */\n      0x07\n        /* \"sc/src/SupplyChainTracker.sol\":5775:5802  addressToUserId[msg.sender] */\n      0x00\n        /* \"sc/src/SupplyChainTracker.sol\":5791:5801  msg.sender */\n      caller\n        /* \"sc/src/SupplyChainTracker.sol\":5775:5802  addressToUserId[msg.sender] */\n      0xffffffffffffffffffffffffffffffffffffffff\n      and\n      0xffffffffffffffffffffffffffffffffffffffff\n      and\n      dup2\n      mstore\n      0x20\n      add\n      swap1\n      dup2\n      mstore\n      0x20\n      add\n      0x00\n      keccak256\n      sload\n        /* \"sc/src/SupplyChainTracker.sol\":5758:5802  uint256 userId = addressToUserId[msg.sender] */\n      swap1\n      pop\n        /* \"sc/src/SupplyChainTracker.sol\":5812:5824  uint256 toId */\n      0x00\n        /* \"sc/src/SupplyChainTracker.sol\":5827:5842  addressToUserId */\n      0x07\n        /* \"sc/src/SupplyChainTracker.sol\":5827:5846  addressToUserId[to] */\n      0x00\n        /* \"sc/src/SupplyChainTracker.sol\":5843:5845  to */\n      dup8\n        /* \"sc/src/SupplyChainTracker.sol\":5827:5846  addressToUserId[to] */\n      0xffffffffffffffffffffffffffffffffffffffff\n      and\n      0xffffffffffffffffffffffffffffffffffffffff\n      and\n      dup2\n      mstore\n      0x20\n      add\n      swap1\n      dup2\n      mstore\n      0x20\n      add\n      0x00\n      keccak256\n      sload\n        /* \"sc/src/SupplyChainTracker.sol\":5812:5846  uint256 toId = addressToUserId[to] */\n      swap1\n      pop\n        /* \"sc/src/SupplyChainTracker.sol\":5872:5873  0 */\n      0x00\n        /* \"sc/src/SupplyChainTracker.sol\":5864:5868  toId */\n      dup2\n        /* \"sc/src/SupplyChainTracker.sol\":5864:5873  toId != 0 */\n      sub\n        /* \"sc/src/SupplyChainTracker.sol\":5856:5902  require(toId != 0, \"Recipient not registered\") */\n      tag_136\n      jumpi\n      mload(0x40)\n      0x08c379a000000000000000000000000000000000000000000000000000000000\n      dup2\n      mstore\n      0x04\n      add\n      tag_137\n      swap1\n      tag_138\n      jump\t// in\n    tag_137:\n      mload(0x40)\n      dup1\n      swap2\n      sub\n      swap1\n      revert\n    tag_136:\n        /* \"sc/src/SupplyChainTracker.sol\":5921:5952  _isConsumer(users[userId].role) */\n      tag_139\n        /* \"sc/src/SupplyChainTracker.sol\":5933:5938  users */\n      0x06\n        /* \"sc/src/SupplyChainTracker.sol\":5933:5946  users[userId] */\n      0x00\n        /* \"sc/src/SupplyChainTracker.sol\":5939:5945  userId */\n      dup5\n        /* \"sc/src/SupplyChainTracker.sol\":5933:5946  users[userId] */\n      dup2\n      mstore\n      0x20\n      add\n      swap1\n      dup2\n      mstore\n      0x20\n      add\n      0x00\n      keccak256\n        /* \"sc/src/SupplyChainTracker.sol\":5933:5951  users[userId].role */\n      0x02\n      add\n      sload\n        /* \"sc/src/SupplyChainTracker.sol\":5921:5932  _isConsumer */\n      tag_140\n        /* \"sc/src/SupplyChainTracker.sol\":5921:5952  _isConsumer(users[userId].role) */\n      jump\t// in\n    tag_139:\n        /* \"sc/src/SupplyChainTracker.sol\":5920:5952  !_isConsumer(users[userId].role) */\n      iszero\n        /* \"sc/src/SupplyChainTracker.sol\":5912:5981  require(!_isConsumer(users[userId].role), \"Consumer cannot transfer\") */\n      tag_141\n      jumpi\n      mload(0x40)\n      0x08c379a000000000000000000000000000000000000000000000000000000000\n      dup2\n      mstore\n      0x04\n      add\n      tag_142\n      swap1\n      tag_143\n      jump\t// in\n    tag_142:\n      mload(0x40)\n      dup1\n      swap2\n      sub\n      swap1\n      revert\n    tag_141:\n        /* \"sc/src/SupplyChainTracker.sol\":5999:6048  _isNextRole(users[userId].role, users[toId].role) */\n      tag_144\n        /* \"sc/src/SupplyChainTracker.sol\":6011:6016  users */\n      0x06\n        /* \"sc/src/SupplyChainTracker.sol\":6011:6024  users[userId] */\n      0x00\n        /* \"sc/src/SupplyChainTracker.sol\":6017:6023  userId */\n      dup5\n        /* \"sc/src/SupplyChainTracker.sol\":6011:6024  users[userId] */\n      dup2\n      mstore\n      0x20\n      add\n      swap1\n      dup2\n      mstore\n      0x20\n      add\n      0x00\n      keccak256\n        /* \"sc/src/SupplyChainTracker.sol\":6011:6029  users[userId].role */\n      0x02\n      add\n      sload\n        /* \"sc/src/SupplyChainTracker.sol\":6031:6036  users */\n      0x06\n        /* \"sc/src/SupplyChainTracker.sol\":6031:6042  users[toId] */\n      0x00\n        /* \"sc/src/SupplyChainTracker.sol\":6037:6041  toId */\n      dup5\n        /* \"sc/src/SupplyChainTracker.sol\":6031:6042  users[toId] */\n      dup2\n      mstore\n      0x20\n      add\n      swap1\n      dup2\n      mstore\n      0x20\n      add\n      0x00\n      keccak256\n        /* \"sc/src/SupplyChainTracker.sol\":6031:6047  users[toId].role */\n      0x02\n      add\n      sload\n        /* \"sc/src/SupplyChainTracker.sol\":5999:6010  _isNextRole */\n      tag_145\n        /* \"sc/src/SupplyChainTracker.sol\":5999:6048  _isNextRole(users[userId].role, users[toId].role) */\n      jump\t// in\n    tag_144:\n        /* \"sc/src/SupplyChainTracker.sol\":5991:6076  require(_isNextRole(users[userId].role, users[toId].role), \"Invalid role transition\") */\n      tag_146\n      jumpi\n      mload(0x40)\n      0x08c379a000000000000000000000000000000000000000000000000000000000\n      dup2\n      mstore\n      0x04\n      add\n      tag_147\n      swap1\n      tag_148\n      jump\t// in\n    tag_147:\n      mload(0x40)\n      dup1\n      swap2\n      sub\n      swap1\n      revert\n    tag_146:\n        /* \"sc/src/SupplyChainTracker.sol\":6087:6104  Token storage tkn */\n      0x00\n        /* \"sc/src/SupplyChainTracker.sol\":6107:6113  tokens */\n      0x04\n        /* \"sc/src/SupplyChainTracker.sol\":6107:6122  tokens[tokenId] */\n      0x00\n        /* \"sc/src/SupplyChainTracker.sol\":6114:6121  tokenId */\n      dup8\n        /* \"sc/src/SupplyChainTracker.sol\":6107:6122  tokens[tokenId] */\n      dup2\n      mstore\n      0x20\n      add\n      swap1\n      dup2\n      mstore\n      0x20\n      add\n      0x00\n      keccak256\n        /* \"sc/src/SupplyChainTracker.sol\":6087:6122  Token storage tkn = tokens[tokenId] */\n      swap1\n      pop\n        /* \"sc/src/SupplyChainTracker.sol\":6167:6173  amount */\n      dup5\n        /* \"sc/src/SupplyChainTracker.sol\":6140:6143  tkn */\n      dup2\n        /* \"sc/src/SupplyChainTracker.sol\":6140:6151  tkn.balance */\n      0x07\n      add\n        /* \"sc/src/SupplyChainTracker.sol\":6140:6163  tkn.balance[msg.sender] */\n      0x00\n        /* \"sc/src/SupplyChainTracker.sol\":6152:6162  msg.sender */\n      caller\n        /* \"sc/src/SupplyChainTracker.sol\":6140:6163  tkn.balance[msg.sender] */\n      0xffffffffffffffffffffffffffffffffffffffff\n      and\n      0xffffffffffffffffffffffffffffffffffffffff\n      and\n      dup2\n      mstore\n      0x20\n      add\n      swap1\n      dup2\n      mstore\n      0x20\n      add\n      0x00\n      keccak256\n      sload\n        /* \"sc/src/SupplyChainTracker.sol\":6140:6173  tkn.balance[msg.sender] >= amount */\n      lt\n      iszero\n        /* \"sc/src/SupplyChainTracker.sol\":6132:6198  require(tkn.balance[msg.sender] >= amount, \"Insufficient balance\") */\n      tag_149\n      jumpi\n      mload(0x40)\n      0x08c379a000000000000000000000000000000000000000000000000000000000\n      dup2\n      mstore\n      0x04\n      add\n      tag_150\n      swap1\n      tag_151\n      jump\t// in\n    tag_150:\n      mload(0x40)\n      dup1\n      swap2\n      sub\n      swap1\n      revert\n    tag_149:\n        /* \"sc/src/SupplyChainTracker.sol\":6236:6242  amount */\n      dup5\n        /* \"sc/src/SupplyChainTracker.sol\":6209:6212  tkn */\n      dup2\n        /* \"sc/src/SupplyChainTracker.sol\":6209:6220  tkn.balance */\n      0x07\n      add\n        /* \"sc/src/SupplyChainTracker.sol\":6209:6232  tkn.balance[msg.sender] */\n      0x00\n        /* \"sc/src/SupplyChainTracker.sol\":6221:6231  msg.sender */\n      caller\n        /* \"sc/src/SupplyChainTracker.sol\":6209:6232  tkn.balance[msg.sender] */\n      0xffffffffffffffffffffffffffffffffffffffff\n      and\n      0xffffffffffffffffffffffffffffffffffffffff\n      and\n      dup2\n      mstore\n      0x20\n      add\n      swap1\n      dup2\n      mstore\n      0x20\n      add\n      0x00\n      keccak256\n      0x00\n        /* \"sc/src/SupplyChainTracker.sol\":6209:6242  tkn.balance[msg.sender] -= amount */\n      dup3\n      dup3\n      sload\n      tag_152\n      swap2\n      swap1\n      tag_153\n      jump\t// in\n    tag_152:\n      swap3\n      pop\n      pop\n      dup2\n      swap1\n      sstore\n      pop\n        /* \"sc/src/SupplyChainTracker.sol\":6271:6277  amount */\n      dup5\n        /* \"sc/src/SupplyChainTracker.sol\":6252:6255  tkn */\n      dup2\n        /* \"sc/src/SupplyChainTracker.sol\":6252:6263  tkn.balance */\n      0x07\n      add\n        /* \"sc/src/SupplyChainTracker.sol\":6252:6267  tkn.balance[to] */\n      0x00\n        /* \"sc/src/SupplyChainTracker.sol\":6264:6266  to */\n      dup10\n        /* \"sc/src/SupplyChainTracker.sol\":6252:6267  tkn.balance[to] */\n      0xffffffffffffffffffffffffffffffffffffffff\n      and\n      0xffffffffffffffffffffffffffffffffffffffff\n      and\n      dup2\n      mstore\n      0x20\n      add\n      swap1\n      dup2\n      mstore\n      0x20\n      add\n      0x00\n      keccak256\n      0x00\n        /* \"sc/src/SupplyChainTracker.sol\":6252:6277  tkn.balance[to] += amount */\n      dup3\n      dup3\n      sload\n      tag_154\n      swap2\n      swap1\n      tag_155\n      jump\t// in\n    tag_154:\n      swap3\n      pop\n      pop\n      dup2\n      swap1\n      sstore\n      pop\n        /* \"sc/src/SupplyChainTracker.sol\":6288:6309  uint256 newTransferId */\n      0x00\n        /* \"sc/src/SupplyChainTracker.sol\":6312:6326  nextTransferId */\n      0x02\n      0x00\n        /* \"sc/src/SupplyChainTracker.sol\":6312:6328  nextTransferId++ */\n      dup2\n      sload\n      dup1\n      swap3\n      swap2\n      swap1\n      tag_156\n      swap1\n      tag_157\n      jump\t// in\n    tag_156:\n      swap2\n      swap1\n      pop\n      sstore\n        /* \"sc/src/SupplyChainTracker.sol\":6288:6328  uint256 newTransferId = nextTransferId++ */\n      swap1\n      pop\n        /* \"sc/src/SupplyChainTracker.sol\":6365:6610  Transfer({... */\n      mload(0x40)\n      dup1\n      0xe0\n      add\n      0x40\n      mstore\n      dup1\n        /* \"sc/src/SupplyChainTracker.sol\":6392:6405  newTransferId */\n      dup3\n        /* \"sc/src/SupplyChainTracker.sol\":6365:6610  Transfer({... */\n      dup2\n      mstore\n      0x20\n      add\n        /* \"sc/src/SupplyChainTracker.sol\":6425:6435  msg.sender */\n      caller\n        /* \"sc/src/SupplyChainTracker.sol\":6365:6610  Transfer({... */\n      0xffffffffffffffffffffffffffffffffffffffff\n      and\n      dup2\n      mstore\n      0x20\n      add\n        /* \"sc/src/SupplyChainTracker.sol\":6453:6455  to */\n      dup10\n        /* \"sc/src/SupplyChainTracker.sol\":6365:6610  Transfer({... */\n      0xffffffffffffffffffffffffffffffffffffffff\n      and\n      dup2\n      mstore\n      0x20\n      add\n        /* \"sc/src/SupplyChainTracker.sol\":6478:6485  tokenId */\n      dup9\n        /* \"sc/src/SupplyChainTracker.sol\":6365:6610  Transfer({... */\n      dup2\n      mstore\n      0x20\n      add\n        /* \"sc/src/SupplyChainTracker.sol\":6512:6527  block.timestamp */\n      timestamp\n        /* \"sc/src/SupplyChainTracker.sol\":6365:6610  Transfer({... */\n      dup2\n      mstore\n      0x20\n      add\n        /* \"sc/src/SupplyChainTracker.sol\":6549:6555  amount */\n      dup8\n        /* \"sc/src/SupplyChainTracker.sol\":6365:6610  Transfer({... */\n      dup2\n      mstore\n      0x20\n      add\n        /* \"sc/src/SupplyChainTracker.sol\":6577:6599  TransferStatus.Pending */\n      0x00\n        /* \"sc/src/SupplyChainTracker.sol\":6365:6610  Transfer({... */\n      0x02\n      dup2\n      gt\n      iszero\n      tag_158\n      jumpi\n      tag_159\n      tag_116\n      jump\t// in\n    tag_159:\n    tag_158:\n      dup2\n      mstore\n      pop\n        /* \"sc/src/SupplyChainTracker.sol\":6338:6347  transfers */\n      0x05\n        /* \"sc/src/SupplyChainTracker.sol\":6338:6362  transfers[newTransferId] */\n      0x00\n        /* \"sc/src/SupplyChainTracker.sol\":6348:6361  newTransferId */\n      dup4\n        /* \"sc/src/SupplyChainTracker.sol\":6338:6362  transfers[newTransferId] */\n      dup2\n      mstore\n      0x20\n      add\n      swap1\n      dup2\n      mstore\n      0x20\n      add\n      0x00\n      keccak256\n        /* \"sc/src/SupplyChainTracker.sol\":6338:6610  transfers[newTransferId] = Transfer({... */\n      0x00\n      dup3\n      add\n      mload\n      dup2\n      0x00\n      add\n      sstore\n      0x20\n      dup3\n      add\n      mload\n      dup2\n      0x01\n      add\n      exp(0x0100, 0x00)\n      dup2\n      sload\n      dup2\n      0xffffffffffffffffffffffffffffffffffffffff\n      mul\n      not\n      and\n      swap1\n      dup4\n      0xffffffffffffffffffffffffffffffffffffffff\n      and\n      mul\n      or\n      swap1\n      sstore\n      pop\n      0x40\n      dup3\n      add\n      mload\n      dup2\n      0x02\n      add\n      exp(0x0100, 0x00)\n      dup2\n      sload\n      dup2\n      0xffffffffffffffffffffffffffffffffffffffff\n      mul\n      not\n      and\n      swap1\n      dup4\n      0xffffffffffffffffffffffffffffffffffffffff\n      and\n      mul\n      or\n      swap1\n      sstore\n      pop\n      0x60\n      dup3\n      add\n      mload\n      dup2\n      0x03\n      add\n      sstore\n      0x80\n      dup3\n      add\n      mload\n      dup2\n      0x04\n      add\n      sstore\n      0xa0\n      dup3\n      add\n      mload\n      dup2\n      0x05\n      add\n      sstore\n      0xc0\n      dup3\n      add\n      mload\n      dup2\n      0x06\n      add\n      exp(0x0100, 0x00)\n      dup2\n      sload\n      dup2\n      0xff\n      mul\n      not\n      and\n      swap1\n      dup4\n      0x02\n      dup2\n      gt\n      iszero\n      tag_160\n      jumpi\n      tag_161\n      tag_116\n      jump\t// in\n    tag_161:\n    tag_160:\n      mul\n      or\n      swap1\n      sstore\n      pop\n      swap1\n      pop\n      pop\n        /* \"sc/src/SupplyChainTracker.sol\":6670:6672  to */\n      dup8\n        /* \"sc/src/SupplyChainTracker.sol\":6625:6690  TransferRequested(newTransferId, msg.sender, to, tokenId, amount) */\n      0xffffffffffffffffffffffffffffffffffffffff\n      and\n        /* \"sc/src/SupplyChainTracker.sol\":6658:6668  msg.sender */\n      caller\n        /* \"sc/src/SupplyChainTracker.sol\":6625:6690  TransferRequested(newTransferId, msg.sender, to, tokenId, amount) */\n      0xffffffffffffffffffffffffffffffffffffffff\n      and\n        /* \"sc/src/SupplyChainTracker.sol\":6643:6656  newTransferId */\n      dup3\n        /* \"sc/src/SupplyChainTracker.sol\":6625:6690  TransferRequested(newTransferId, msg.sender, to, tokenId, amount) */\n      0xc8262dc04f8f56abc884e1f58ca17a373610558a6cebc5e927b9e1c4668e5fdf\n        /* \"sc/src/SupplyChainTracker.sol\":6674:6681  tokenId */\n      dup11\n        /* \"sc/src/SupplyChainTracker.sol\":6683:6689  amount */\n      dup11\n        /* \"sc/src/SupplyChainTracker.sol\":6625:6690  TransferRequested(newTransferId, msg.sender, to, tokenId, amount) */\n      mload(0x40)\n      tag_162\n      swap3\n      swap2\n      swap1\n      tag_163\n      jump\t// in\n    tag_162:\n      mload(0x40)\n      dup1\n      swap2\n      sub\n      swap1\n      log4\n        /* \"sc/src/SupplyChainTracker.sol\":5556:6697  {... */\n      pop\n      pop\n      pop\n      pop\n        /* \"@openzeppelin/contracts/utils/ReentrancyGuard.sol\":2542:2562  _nonReentrantAfter() */\n      tag_164\n        /* \"@openzeppelin/contracts/utils/ReentrancyGuard.sol\":2542:2560  _nonReentrantAfter */\n      tag_165\n        /* \"@openzeppelin/contracts/utils/ReentrancyGuard.sol\":2542:2562  _nonReentrantAfter() */\n      jump\t// in\n    tag_164:\n        /* \"sc/src/SupplyChainTracker.sol\":2450:2615  {... */\n      pop\n        /* \"sc/src/SupplyChainTracker.sol\":5456:6697  function transfer(address to, uint256 tokenId, uint256 amount) public onlyApprovedUser nonReentrant {... */\n      pop\n      pop\n      pop\n      jump\t// out\n        /* \"sc/src/SupplyChainTracker.sol\":7341:7793  function rejectTransfer(uint256 transferId) public nonReentrant {... */\n    tag_33:\n        /* \"@openzeppelin/contracts/utils/ReentrancyGuard.sol\":2500:2521  _nonReentrantBefore() */\n      tag_167\n        /* \"@openzeppelin/contracts/utils/ReentrancyGuard.sol\":2500:2519  _nonReentrantBefore */\n      tag_124\n        /* \"@openzeppelin/contracts/utils/ReentrancyGuard.sol\":2500:2521  _nonReentrantBefore() */\n      jump\t// in\n    tag_167:\n        /* \"sc/src/SupplyChainTracker.sol\":7415:7434  Transfer storage tr */\n      0x00\n        /* \"sc/src/SupplyChainTracker.sol\":7437:7446  transfers */\n      0x05\n        /* \"sc/src/SupplyChainTracker.sol\":7437:7458  transfers[transferId] */\n      0x00\n        /* \"sc/src/SupplyChainTracker.sol\":7447:7457  transferId */\n      dup4\n        /* \"sc/src/SupplyChainTracker.sol\":7437:7458  transfers[transferId] */\n      dup2\n      mstore\n      0x20\n      add\n      swap1\n      dup2\n      mstore\n      0x20\n      add\n      0x00\n      keccak256\n        /* \"sc/src/SupplyChainTracker.sol\":7415:7458  Transfer storage tr = transfers[transferId] */\n      swap1\n      pop\n        /* \"sc/src/SupplyChainTracker.sol\":7489:7511  TransferStatus.Pending */\n      0x00\n        /* \"sc/src/SupplyChainTracker.sol\":7476:7511  tr.status == TransferStatus.Pending */\n      0x02\n      dup2\n      gt\n      iszero\n      tag_169\n      jumpi\n      tag_170\n      tag_116\n      jump\t// in\n    tag_170:\n    tag_169:\n        /* \"sc/src/SupplyChainTracker.sol\":7476:7478  tr */\n      dup2\n        /* \"sc/src/SupplyChainTracker.sol\":7476:7485  tr.status */\n      0x06\n      add\n      0x00\n      swap1\n      sload\n      swap1\n      0x0100\n      exp\n      swap1\n      div\n      0xff\n      and\n        /* \"sc/src/SupplyChainTracker.sol\":7476:7511  tr.status == TransferStatus.Pending */\n      0x02\n      dup2\n      gt\n      iszero\n      tag_171\n      jumpi\n      tag_172\n      tag_116\n      jump\t// in\n    tag_172:\n    tag_171:\n      eq\n        /* \"sc/src/SupplyChainTracker.sol\":7468:7527  require(tr.status == TransferStatus.Pending, \"Not pending\") */\n      tag_173\n      jumpi\n      mload(0x40)\n      0x08c379a000000000000000000000000000000000000000000000000000000000\n      dup2\n      mstore\n      0x04\n      add\n      tag_174\n      swap1\n      tag_175\n      jump\t// in\n    tag_174:\n      mload(0x40)\n      dup1\n      swap2\n      sub\n      swap1\n      revert\n    tag_173:\n        /* \"sc/src/SupplyChainTracker.sol\":7559:7561  tr */\n      dup1\n        /* \"sc/src/SupplyChainTracker.sol\":7559:7564  tr.to */\n      0x02\n      add\n      0x00\n      swap1\n      sload\n      swap1\n      0x0100\n      exp\n      swap1\n      div\n      0xffffffffffffffffffffffffffffffffffffffff\n      and\n        /* \"sc/src/SupplyChainTracker.sol\":7545:7564  msg.sender == tr.to */\n      0xffffffffffffffffffffffffffffffffffffffff\n      and\n        /* \"sc/src/SupplyChainTracker.sol\":7545:7555  msg.sender */\n      caller\n        /* \"sc/src/SupplyChainTracker.sol\":7545:7564  msg.sender == tr.to */\n      0xffffffffffffffffffffffffffffffffffffffff\n      and\n      eq\n        /* \"sc/src/SupplyChainTracker.sol\":7545:7587  msg.sender == tr.to || msg.sender == admin */\n      dup1\n      tag_176\n      jumpi\n      pop\n        /* \"sc/src/SupplyChainTracker.sol\":7582:7587  admin */\n      immutable(\"0xb004fbd84afb38927636fa378c0a62a86a02b00862b6ff80fef4d6e948c0571d\")\n        /* \"sc/src/SupplyChainTracker.sol\":7568:7587  msg.sender == admin */\n      0xffffffffffffffffffffffffffffffffffffffff\n      and\n        /* \"sc/src/SupplyChainTracker.sol\":7568:7578  msg.sender */\n      caller\n        /* \"sc/src/SupplyChainTracker.sol\":7568:7587  msg.sender == admin */\n      0xffffffffffffffffffffffffffffffffffffffff\n      and\n      eq\n        /* \"sc/src/SupplyChainTracker.sol\":7545:7587  msg.sender == tr.to || msg.sender == admin */\n    tag_176:\n        /* \"sc/src/SupplyChainTracker.sol\":7537:7606  require(msg.sender == tr.to || msg.sender == admin, \"Not authorized\") */\n      tag_177\n      jumpi\n      mload(0x40)\n      0x08c379a000000000000000000000000000000000000000000000000000000000\n      dup2\n      mstore\n      0x04\n      add\n      tag_178\n      swap1\n      tag_179\n      jump\t// in\n    tag_178:\n      mload(0x40)\n      dup1\n      swap2\n      sub\n      swap1\n      revert\n    tag_177:\n        /* \"sc/src/SupplyChainTracker.sol\":7617:7634  Token storage tkn */\n      0x00\n        /* \"sc/src/SupplyChainTracker.sol\":7637:7643  tokens */\n      0x04\n        /* \"sc/src/SupplyChainTracker.sol\":7637:7655  tokens[tr.tokenId] */\n      0x00\n        /* \"sc/src/SupplyChainTracker.sol\":7644:7646  tr */\n      dup4\n        /* \"sc/src/SupplyChainTracker.sol\":7644:7654  tr.tokenId */\n      0x03\n      add\n      sload\n        /* \"sc/src/SupplyChainTracker.sol\":7637:7655  tokens[tr.tokenId] */\n      dup2\n      mstore\n      0x20\n      add\n      swap1\n      dup2\n      mstore\n      0x20\n      add\n      0x00\n      keccak256\n        /* \"sc/src/SupplyChainTracker.sol\":7617:7655  Token storage tkn = tokens[tr.tokenId] */\n      swap1\n      pop\n        /* \"sc/src/SupplyChainTracker.sol\":7689:7691  tr */\n      dup2\n        /* \"sc/src/SupplyChainTracker.sol\":7689:7698  tr.amount */\n      0x05\n      add\n      sload\n        /* \"sc/src/SupplyChainTracker.sol\":7665:7668  tkn */\n      dup2\n        /* \"sc/src/SupplyChainTracker.sol\":7665:7676  tkn.balance */\n      0x07\n      add\n        /* \"sc/src/SupplyChainTracker.sol\":7665:7685  tkn.balance[tr.from] */\n      0x00\n        /* \"sc/src/SupplyChainTracker.sol\":7677:7679  tr */\n      dup5\n        /* \"sc/src/SupplyChainTracker.sol\":7677:7684  tr.from */\n      0x01\n      add\n      0x00\n      swap1\n      sload\n      swap1\n      0x0100\n      exp\n      swap1\n      div\n      0xffffffffffffffffffffffffffffffffffffffff\n      and\n        /* \"sc/src/SupplyChainTracker.sol\":7665:7685  tkn.balance[tr.from] */\n      0xffffffffffffffffffffffffffffffffffffffff\n      and\n      0xffffffffffffffffffffffffffffffffffffffff\n      and\n      dup2\n      mstore\n      0x20\n      add\n      swap1\n      dup2\n      mstore\n      0x20\n      add\n      0x00\n      keccak256\n      0x00\n        /* \"sc/src/SupplyChainTracker.sol\":7665:7698  tkn.balance[tr.from] += tr.amount */\n      dup3\n      dup3\n      sload\n      tag_180\n      swap2\n      swap1\n      tag_155\n      jump\t// in\n    tag_180:\n      swap3\n      pop\n      pop\n      dup2\n      swap1\n      sstore\n      pop\n        /* \"sc/src/SupplyChainTracker.sol\":7720:7743  TransferStatus.Rejected */\n      0x02\n        /* \"sc/src/SupplyChainTracker.sol\":7708:7710  tr */\n      dup3\n        /* \"sc/src/SupplyChainTracker.sol\":7708:7717  tr.status */\n      0x06\n      add\n      0x00\n        /* \"sc/src/SupplyChainTracker.sol\":7708:7743  tr.status = TransferStatus.Rejected */\n      0x0100\n      exp\n      dup2\n      sload\n      dup2\n      0xff\n      mul\n      not\n      and\n      swap1\n      dup4\n      0x02\n      dup2\n      gt\n      iszero\n      tag_181\n      jumpi\n      tag_182\n      tag_116\n      jump\t// in\n    tag_182:\n    tag_181:\n      mul\n      or\n      swap1\n      sstore\n      pop\n        /* \"sc/src/SupplyChainTracker.sol\":7775:7785  transferId */\n      dup3\n        /* \"sc/src/SupplyChainTracker.sol\":7758:7786  TransferRejected(transferId) */\n      0x1f4f8a94e17d25044030f376d297769c8f9a1a2a0616e36b498a1e7370b5863f\n      mload(0x40)\n      mload(0x40)\n      dup1\n      swap2\n      sub\n      swap1\n      log2\n        /* \"sc/src/SupplyChainTracker.sol\":7405:7793  {... */\n      pop\n      pop\n        /* \"@openzeppelin/contracts/utils/ReentrancyGuard.sol\":2542:2562  _nonReentrantAfter() */\n      tag_183\n        /* \"@openzeppelin/contracts/utils/ReentrancyGuard.sol\":2542:2560  _nonReentrantAfter */\n      tag_165\n        /* \"@openzeppelin/contracts/utils/ReentrancyGuard.sol\":2542:2562  _nonReentrantAfter() */\n      jump\t// in\n    tag_183:\n        /* \"sc/src/SupplyChainTracker.sol\":7341:7793  function rejectTransfer(uint256 transferId) public nonReentrant {... */\n      pop\n      jump\t// out\n        /* \"sc/src/SupplyChainTracker.sol\":6833:7335  function acceptTransfer(uint256 transferId) public onlyApprovedUser {... */\n    tag_36:\n        /* \"sc/src/SupplyChainTracker.sol\":2460:2474  uint256 userId */\n      0x00\n        /* \"sc/src/SupplyChainTracker.sol\":2477:2492  addressToUserId */\n      0x07\n        /* \"sc/src/SupplyChainTracker.sol\":2477:2504  addressToUserId[msg.sender] */\n      0x00\n        /* \"sc/src/SupplyChainTracker.sol\":2493:2503  msg.sender */\n      caller\n        /* \"sc/src/SupplyChainTracker.sol\":2477:2504  addressToUserId[msg.sender] */\n      0xffffffffffffffffffffffffffffffffffffffff\n      and\n      0xffffffffffffffffffffffffffffffffffffffff\n      and\n      dup2\n      mstore\n      0x20\n      add\n      swap1\n      dup2\n      mstore\n      0x20\n      add\n      0x00\n      keccak256\n      sload\n        /* \"sc/src/SupplyChainTracker.sol\":2460:2504  uint256 userId = addressToUserId[msg.sender] */\n      swap1\n      pop\n        /* \"sc/src/SupplyChainTracker.sol\":2532:2533  0 */\n      0x00\n        /* \"sc/src/SupplyChainTracker.sol\":2522:2528  userId */\n      dup2\n        /* \"sc/src/SupplyChainTracker.sol\":2522:2533  userId != 0 */\n      eq\n      iszero\n        /* \"sc/src/SupplyChainTracker.sol\":2522:2580  userId != 0 && users[userId].status == UserStatus.Approved */\n      dup1\n      iszero\n      tag_185\n      jumpi\n      pop\n        /* \"sc/src/SupplyChainTracker.sol\":2561:2580  UserStatus.Approved */\n      0x01\n        /* \"sc/src/SupplyChainTracker.sol\":2537:2580  users[userId].status == UserStatus.Approved */\n      0x03\n      dup2\n      gt\n      iszero\n      tag_186\n      jumpi\n      tag_187\n      tag_116\n      jump\t// in\n    tag_187:\n    tag_186:\n        /* \"sc/src/SupplyChainTracker.sol\":2537:2542  users */\n      0x06\n        /* \"sc/src/SupplyChainTracker.sol\":2537:2550  users[userId] */\n      0x00\n        /* \"sc/src/SupplyChainTracker.sol\":2543:2549  userId */\n      dup4\n        /* \"sc/src/SupplyChainTracker.sol\":2537:2550  users[userId] */\n      dup2\n      mstore\n      0x20\n      add\n      swap1\n      dup2\n      mstore\n      0x20\n      add\n      0x00\n      keccak256\n        /* \"sc/src/SupplyChainTracker.sol\":2537:2557  users[userId].status */\n      0x03\n      add\n      0x00\n      swap1\n      sload\n      swap1\n      0x0100\n      exp\n      swap1\n      div\n      0xff\n      and\n        /* \"sc/src/SupplyChainTracker.sol\":2537:2580  users[userId].status == UserStatus.Approved */\n      0x03\n      dup2\n      gt\n      iszero\n      tag_188\n      jumpi\n      tag_189\n      tag_116\n      jump\t// in\n    tag_189:\n    tag_188:\n      eq\n        /* \"sc/src/SupplyChainTracker.sol\":2522:2580  userId != 0 && users[userId].status == UserStatus.Approved */\n    tag_185:\n        /* \"sc/src/SupplyChainTracker.sol\":2514:2597  require(userId != 0 && users[userId].status == UserStatus.Approved, \"Not approved\") */\n      tag_190\n      jumpi\n      mload(0x40)\n      0x08c379a000000000000000000000000000000000000000000000000000000000\n      dup2\n      mstore\n      0x04\n      add\n      tag_191\n      swap1\n      tag_121\n      jump\t// in\n    tag_191:\n      mload(0x40)\n      dup1\n      swap2\n      sub\n      swap1\n      revert\n    tag_190:\n        /* \"sc/src/SupplyChainTracker.sol\":6911:6930  Transfer storage tr */\n      0x00\n        /* \"sc/src/SupplyChainTracker.sol\":6933:6942  transfers */\n      0x05\n        /* \"sc/src/SupplyChainTracker.sol\":6933:6954  transfers[transferId] */\n      0x00\n        /* \"sc/src/SupplyChainTracker.sol\":6943:6953  transferId */\n      dup5\n        /* \"sc/src/SupplyChainTracker.sol\":6933:6954  transfers[transferId] */\n      dup2\n      mstore\n      0x20\n      add\n      swap1\n      dup2\n      mstore\n      0x20\n      add\n      0x00\n      keccak256\n        /* \"sc/src/SupplyChainTracker.sol\":6911:6954  Transfer storage tr = transfers[transferId] */\n      swap1\n      pop\n        /* \"sc/src/SupplyChainTracker.sol\":6985:7007  TransferStatus.Pending */\n      0x00\n        /* \"sc/src/SupplyChainTracker.sol\":6972:7007  tr.status == TransferStatus.Pending */\n      0x02\n      dup2\n      gt\n      iszero\n      tag_193\n      jumpi\n      tag_194\n      tag_116\n      jump\t// in\n    tag_194:\n    tag_193:\n        /* \"sc/src/SupplyChainTracker.sol\":6972:6974  tr */\n      dup2\n        /* \"sc/src/SupplyChainTracker.sol\":6972:6981  tr.status */\n      0x06\n      add\n      0x00\n      swap1\n      sload\n      swap1\n      0x0100\n      exp\n      swap1\n      div\n      0xff\n      and\n        /* \"sc/src/SupplyChainTracker.sol\":6972:7007  tr.status == TransferStatus.Pending */\n      0x02\n      dup2\n      gt\n      iszero\n      tag_195\n      jumpi\n      tag_196\n      tag_116\n      jump\t// in\n    tag_196:\n    tag_195:\n      eq\n        /* \"sc/src/SupplyChainTracker.sol\":6964:7023  require(tr.status == TransferStatus.Pending, \"Not pending\") */\n      tag_197\n      jumpi\n      mload(0x40)\n      0x08c379a000000000000000000000000000000000000000000000000000000000\n      dup2\n      mstore\n      0x04\n      add\n      tag_198\n      swap1\n      tag_175\n      jump\t// in\n    tag_198:\n      mload(0x40)\n      dup1\n      swap2\n      sub\n      swap1\n      revert\n    tag_197:\n        /* \"sc/src/SupplyChainTracker.sol\":7055:7057  tr */\n      dup1\n        /* \"sc/src/SupplyChainTracker.sol\":7055:7060  tr.to */\n      0x02\n      add\n      0x00\n      swap1\n      sload\n      swap1\n      0x0100\n      exp\n      swap1\n      div\n      0xffffffffffffffffffffffffffffffffffffffff\n      and\n        /* \"sc/src/SupplyChainTracker.sol\":7041:7060  msg.sender == tr.to */\n      0xffffffffffffffffffffffffffffffffffffffff\n      and\n        /* \"sc/src/SupplyChainTracker.sol\":7041:7051  msg.sender */\n      caller\n        /* \"sc/src/SupplyChainTracker.sol\":7041:7060  msg.sender == tr.to */\n      0xffffffffffffffffffffffffffffffffffffffff\n      and\n      eq\n        /* \"sc/src/SupplyChainTracker.sol\":7033:7078  require(msg.sender == tr.to, \"Not recipient\") */\n      tag_199\n      jumpi\n      mload(0x40)\n      0x08c379a000000000000000000000000000000000000000000000000000000000\n      dup2\n      mstore\n      0x04\n      add\n      tag_200\n      swap1\n      tag_201\n      jump\t// in\n    tag_200:\n      mload(0x40)\n      dup1\n      swap2\n      sub\n      swap1\n      revert\n    tag_199:\n        /* \"sc/src/SupplyChainTracker.sol\":7089:7101  uint256 toId */\n      0x00\n        /* \"sc/src/SupplyChainTracker.sol\":7104:7119  addressToUserId */\n      0x07\n        /* \"sc/src/SupplyChainTracker.sol\":7104:7126  addressToUserId[tr.to] */\n      0x00\n        /* \"sc/src/SupplyChainTracker.sol\":7120:7122  tr */\n      dup4\n        /* \"sc/src/SupplyChainTracker.sol\":7120:7125  tr.to */\n      0x02\n      add\n      0x00\n      swap1\n      sload\n      swap1\n      0x0100\n      exp\n      swap1\n      div\n      0xffffffffffffffffffffffffffffffffffffffff\n      and\n        /* \"sc/src/SupplyChainTracker.sol\":7104:7126  addressToUserId[tr.to] */\n      0xffffffffffffffffffffffffffffffffffffffff\n      and\n      0xffffffffffffffffffffffffffffffffffffffff\n      and\n      dup2\n      mstore\n      0x20\n      add\n      swap1\n      dup2\n      mstore\n      0x20\n      add\n      0x00\n      keccak256\n      sload\n        /* \"sc/src/SupplyChainTracker.sol\":7089:7126  uint256 toId = addressToUserId[tr.to] */\n      swap1\n      pop\n        /* \"sc/src/SupplyChainTracker.sol\":7144:7211  _isNextRole(users[addressToUserId[tr.from]].role, users[toId].role) */\n      tag_202\n        /* \"sc/src/SupplyChainTracker.sol\":7156:7161  users */\n      0x06\n        /* \"sc/src/SupplyChainTracker.sol\":7156:7187  users[addressToUserId[tr.from]] */\n      0x00\n        /* \"sc/src/SupplyChainTracker.sol\":7162:7177  addressToUserId */\n      0x07\n        /* \"sc/src/SupplyChainTracker.sol\":7162:7186  addressToUserId[tr.from] */\n      0x00\n        /* \"sc/src/SupplyChainTracker.sol\":7178:7180  tr */\n      dup7\n        /* \"sc/src/SupplyChainTracker.sol\":7178:7185  tr.from */\n      0x01\n      add\n      0x00\n      swap1\n      sload\n      swap1\n      0x0100\n      exp\n      swap1\n      div\n      0xffffffffffffffffffffffffffffffffffffffff\n      and\n        /* \"sc/src/SupplyChainTracker.sol\":7162:7186  addressToUserId[tr.from] */\n      0xffffffffffffffffffffffffffffffffffffffff\n      and\n      0xffffffffffffffffffffffffffffffffffffffff\n      and\n      dup2\n      mstore\n      0x20\n      add\n      swap1\n      dup2\n      mstore\n      0x20\n      add\n      0x00\n      keccak256\n      sload\n        /* \"sc/src/SupplyChainTracker.sol\":7156:7187  users[addressToUserId[tr.from]] */\n      dup2\n      mstore\n      0x20\n      add\n      swap1\n      dup2\n      mstore\n      0x20\n      add\n      0x00\n      keccak256\n        /* \"sc/src/SupplyChainTracker.sol\":7156:7192  users[addressToUserId[tr.from]].role */\n      0x02\n      add\n      sload\n        /* \"sc/src/SupplyChainTracker.sol\":7194:7199  users */\n      0x06\n        /* \"sc/src/SupplyChainTracker.sol\":7194:7205  users[toId] */\n      0x00\n        /* \"sc/src/SupplyChainTracker.sol\":7200:7204  toId */\n      dup5\n        /* \"sc/src/SupplyChainTracker.sol\":7194:7205  users[toId] */\n      dup2\n      mstore\n      0x20\n      add\n      swap1\n      dup2\n      mstore\n      0x20\n      add\n      0x00\n      keccak256\n        /* \"sc/src/SupplyChainTracker.sol\":7194:7210  users[toId].role */\n      0x02\n      add\n      sload\n        /* \"sc/src/SupplyChainTracker.sol\":7144:7155  _isNextRole */\n      tag_145\n        /* \"sc/src/SupplyChainTracker.sol\":7144:7211  _isNextRole(users[addressToUserId[tr.from]].role, users[toId].role) */\n      jump\t// in\n    tag_202:\n        /* \"sc/src/SupplyChainTracker.sol\":7136:7239  require(_isNextRole(users[addressToUserId[tr.from]].role, users[toId].role), \"Invalid role transition\") */\n      tag_203\n      jumpi\n      mload(0x40)\n      0x08c379a000000000000000000000000000000000000000000000000000000000\n      dup2\n      mstore\n      0x04\n      add\n      tag_204\n      swap1\n      tag_148\n      jump\t// in\n    tag_204:\n      mload(0x40)\n      dup1\n      swap2\n      sub\n      swap1\n      revert\n    tag_203:\n        /* \"sc/src/SupplyChainTracker.sol\":7262:7285  TransferStatus.Accepted */\n      0x01\n        /* \"sc/src/SupplyChainTracker.sol\":7250:7252  tr */\n      dup3\n        /* \"sc/src/SupplyChainTracker.sol\":7250:7259  tr.status */\n      0x06\n      add\n      0x00\n        /* \"sc/src/SupplyChainTracker.sol\":7250:7285  tr.status = TransferStatus.Accepted */\n      0x0100\n      exp\n      dup2\n      sload\n      dup2\n      0xff\n      mul\n      not\n      and\n      swap1\n      dup4\n      0x02\n      dup2\n      gt\n      iszero\n      tag_205\n      jumpi\n      tag_206\n      tag_116\n      jump\t// in\n    tag_206:\n    tag_205:\n      mul\n      or\n      swap1\n      sstore\n      pop\n        /* \"sc/src/SupplyChainTracker.sol\":7317:7327  transferId */\n      dup4\n        /* \"sc/src/SupplyChainTracker.sol\":7300:7328  TransferAccepted(transferId) */\n      0x91dd4234b45d77221e6eca52c141569a6d0f3b3ffe9b8a18fe8b9aafbc64b44b\n      mload(0x40)\n      mload(0x40)\n      dup1\n      swap2\n      sub\n      swap1\n      log2\n        /* \"sc/src/SupplyChainTracker.sol\":6901:7335  {... */\n      pop\n      pop\n        /* \"sc/src/SupplyChainTracker.sol\":2450:2615  {... */\n      pop\n        /* \"sc/src/SupplyChainTracker.sol\":6833:7335  function acceptTransfer(uint256 transferId) public onlyApprovedUser {... */\n      pop\n      jump\t// out\n        /* \"sc/src/SupplyChainTracker.sol\":8922:9481  function getUserTransfers(address user) public view returns (uint256[] memory) {... */\n    tag_40:\n        /* \"sc/src/SupplyChainTracker.sol\":8983:8999  uint256[] memory */\n      0x60\n        /* \"sc/src/SupplyChainTracker.sol\":9011:9031  uint256[] memory ids */\n      0x00\n        /* \"sc/src/SupplyChainTracker.sol\":9065:9066  1 */\n      0x01\n        /* \"sc/src/SupplyChainTracker.sol\":9048:9062  nextTransferId */\n      sload(0x02)\n        /* \"sc/src/SupplyChainTracker.sol\":9048:9066  nextTransferId - 1 */\n      tag_208\n      swap2\n      swap1\n      tag_153\n      jump\t// in\n    tag_208:\n        /* \"sc/src/SupplyChainTracker.sol\":9034:9067  new uint256[](nextTransferId - 1) */\n      0xffffffffffffffff\n      dup2\n      gt\n      iszero\n      tag_209\n      jumpi\n      tag_210\n      tag_211\n      jump\t// in\n    tag_210:\n    tag_209:\n      mload(0x40)\n      swap1\n      dup1\n      dup3\n      mstore\n      dup1\n      0x20\n      mul\n      0x20\n      add\n      dup3\n      add\n      0x40\n      mstore\n      dup1\n      iszero\n      tag_212\n      jumpi\n      dup2\n      0x20\n      add\n      0x20\n      dup3\n      mul\n      dup1\n      calldatasize\n      dup4\n      calldatacopy\n      dup1\n      dup3\n      add\n      swap2\n      pop\n      pop\n      swap1\n      pop\n    tag_212:\n      pop\n        /* \"sc/src/SupplyChainTracker.sol\":9011:9067  uint256[] memory ids = new uint256[](nextTransferId - 1) */\n      swap1\n      pop\n        /* \"sc/src/SupplyChainTracker.sol\":9077:9090  uint256 count */\n      0x00\n        /* \"sc/src/SupplyChainTracker.sol\":9093:9094  0 */\n      0x00\n        /* \"sc/src/SupplyChainTracker.sol\":9077:9094  uint256 count = 0 */\n      swap1\n      pop\n        /* \"sc/src/SupplyChainTracker.sol\":9109:9118  uint256 i */\n      0x00\n        /* \"sc/src/SupplyChainTracker.sol\":9121:9122  1 */\n      0x01\n        /* \"sc/src/SupplyChainTracker.sol\":9109:9122  uint256 i = 1 */\n      swap1\n      pop\n        /* \"sc/src/SupplyChainTracker.sol\":9104:9308  for (uint256 i = 1; i < nextTransferId; i++) {... */\n    tag_213:\n        /* \"sc/src/SupplyChainTracker.sol\":9128:9142  nextTransferId */\n      sload(0x02)\n        /* \"sc/src/SupplyChainTracker.sol\":9124:9125  i */\n      dup2\n        /* \"sc/src/SupplyChainTracker.sol\":9124:9142  i < nextTransferId */\n      lt\n        /* \"sc/src/SupplyChainTracker.sol\":9104:9308  for (uint256 i = 1; i < nextTransferId; i++) {... */\n      iszero\n      tag_214\n      jumpi\n        /* \"sc/src/SupplyChainTracker.sol\":9163:9182  Transfer storage tr */\n      0x00\n        /* \"sc/src/SupplyChainTracker.sol\":9185:9194  transfers */\n      0x05\n        /* \"sc/src/SupplyChainTracker.sol\":9185:9197  transfers[i] */\n      0x00\n        /* \"sc/src/SupplyChainTracker.sol\":9195:9196  i */\n      dup4\n        /* \"sc/src/SupplyChainTracker.sol\":9185:9197  transfers[i] */\n      dup2\n      mstore\n      0x20\n      add\n      swap1\n      dup2\n      mstore\n      0x20\n      add\n      0x00\n      keccak256\n        /* \"sc/src/SupplyChainTracker.sol\":9163:9197  Transfer storage tr = transfers[i] */\n      swap1\n      pop\n        /* \"sc/src/SupplyChainTracker.sol\":9226:9230  user */\n      dup6\n        /* \"sc/src/SupplyChainTracker.sol\":9215:9230  tr.from == user */\n      0xffffffffffffffffffffffffffffffffffffffff\n      and\n        /* \"sc/src/SupplyChainTracker.sol\":9215:9217  tr */\n      dup2\n        /* \"sc/src/SupplyChainTracker.sol\":9215:9222  tr.from */\n      0x01\n      add\n      0x00\n      swap1\n      sload\n      swap1\n      0x0100\n      exp\n      swap1\n      div\n      0xffffffffffffffffffffffffffffffffffffffff\n      and\n        /* \"sc/src/SupplyChainTracker.sol\":9215:9230  tr.from == user */\n      0xffffffffffffffffffffffffffffffffffffffff\n      and\n      eq\n        /* \"sc/src/SupplyChainTracker.sol\":9215:9247  tr.from == user || tr.to == user */\n      dup1\n      tag_216\n      jumpi\n      pop\n        /* \"sc/src/SupplyChainTracker.sol\":9243:9247  user */\n      dup6\n        /* \"sc/src/SupplyChainTracker.sol\":9234:9247  tr.to == user */\n      0xffffffffffffffffffffffffffffffffffffffff\n      and\n        /* \"sc/src/SupplyChainTracker.sol\":9234:9236  tr */\n      dup2\n        /* \"sc/src/SupplyChainTracker.sol\":9234:9239  tr.to */\n      0x02\n      add\n      0x00\n      swap1\n      sload\n      swap1\n      0x0100\n      exp\n      swap1\n      div\n      0xffffffffffffffffffffffffffffffffffffffff\n      and\n        /* \"sc/src/SupplyChainTracker.sol\":9234:9247  tr.to == user */\n      0xffffffffffffffffffffffffffffffffffffffff\n      and\n      eq\n        /* \"sc/src/SupplyChainTracker.sol\":9215:9247  tr.from == user || tr.to == user */\n    tag_216:\n        /* \"sc/src/SupplyChainTracker.sol\":9211:9298  if (tr.from == user || tr.to == user) {... */\n      iszero\n      tag_217\n      jumpi\n        /* \"sc/src/SupplyChainTracker.sol\":9282:9283  i */\n      dup2\n        /* \"sc/src/SupplyChainTracker.sol\":9267:9270  ids */\n      dup5\n        /* \"sc/src/SupplyChainTracker.sol\":9271:9278  count++ */\n      dup5\n      dup1\n      tag_218\n      swap1\n      tag_157\n      jump\t// in\n    tag_218:\n      swap6\n      pop\n        /* \"sc/src/SupplyChainTracker.sol\":9267:9279  ids[count++] */\n      dup2\n      mload\n      dup2\n      lt\n      tag_219\n      jumpi\n      tag_220\n      tag_221\n      jump\t// in\n    tag_220:\n    tag_219:\n      0x20\n      mul\n      0x20\n      add\n      add\n        /* \"sc/src/SupplyChainTracker.sol\":9267:9283  ids[count++] = i */\n      dup2\n      dup2\n      mstore\n      pop\n      pop\n        /* \"sc/src/SupplyChainTracker.sol\":9211:9298  if (tr.from == user || tr.to == user) {... */\n    tag_217:\n        /* \"sc/src/SupplyChainTracker.sol\":9149:9308  {... */\n      pop\n        /* \"sc/src/SupplyChainTracker.sol\":9144:9147  i++ */\n      dup1\n      dup1\n      0x01\n      add\n      swap2\n      pop\n      pop\n        /* \"sc/src/SupplyChainTracker.sol\":9104:9308  for (uint256 i = 1; i < nextTransferId; i++) {... */\n      jump(tag_213)\n    tag_214:\n      pop\n        /* \"sc/src/SupplyChainTracker.sol\":9317:9340  uint256[] memory result */\n      0x00\n        /* \"sc/src/SupplyChainTracker.sol\":9357:9362  count */\n      dup2\n        /* \"sc/src/SupplyChainTracker.sol\":9343:9363  new uint256[](count) */\n      0xffffffffffffffff\n      dup2\n      gt\n      iszero\n      tag_222\n      jumpi\n      tag_223\n      tag_211\n      jump\t// in\n    tag_223:\n    tag_222:\n      mload(0x40)\n      swap1\n      dup1\n      dup3\n      mstore\n      dup1\n      0x20\n      mul\n      0x20\n      add\n      dup3\n      add\n      0x40\n      mstore\n      dup1\n      iszero\n      tag_224\n      jumpi\n      dup2\n      0x20\n      add\n      0x20\n      dup3\n      mul\n      dup1\n      calldatasize\n      dup4\n      calldatacopy\n      dup1\n      dup3\n      add\n      swap2\n      pop\n      pop\n      swap1\n      pop\n    tag_224:\n      pop\n        /* \"sc/src/SupplyChainTracker.sol\":9317:9363  uint256[] memory result = new uint256[](count) */\n      swap1\n      pop\n        /* \"sc/src/SupplyChainTracker.sol\":9378:9387  uint256 i */\n      0x00\n        /* \"sc/src/SupplyChainTracker.sol\":9390:9391  0 */\n      0x00\n        /* \"sc/src/SupplyChainTracker.sol\":9378:9391  uint256 i = 0 */\n      swap1\n      pop\n        /* \"sc/src/SupplyChainTracker.sol\":9373:9452  for (uint256 i = 0; i < count; i++) {... */\n    tag_225:\n        /* \"sc/src/SupplyChainTracker.sol\":9397:9402  count */\n      dup3\n        /* \"sc/src/SupplyChainTracker.sol\":9393:9394  i */\n      dup2\n        /* \"sc/src/SupplyChainTracker.sol\":9393:9402  i < count */\n      lt\n        /* \"sc/src/SupplyChainTracker.sol\":9373:9452  for (uint256 i = 0; i < count; i++) {... */\n      iszero\n      tag_226\n      jumpi\n        /* \"sc/src/SupplyChainTracker.sol\":9435:9438  ids */\n      dup4\n        /* \"sc/src/SupplyChainTracker.sol\":9439:9440  i */\n      dup2\n        /* \"sc/src/SupplyChainTracker.sol\":9435:9441  ids[i] */\n      dup2\n      mload\n      dup2\n      lt\n      tag_228\n      jumpi\n      tag_229\n      tag_221\n      jump\t// in\n    tag_229:\n    tag_228:\n      0x20\n      mul\n      0x20\n      add\n      add\n      mload\n        /* \"sc/src/SupplyChainTracker.sol\":9423:9429  result */\n      dup3\n        /* \"sc/src/SupplyChainTracker.sol\":9430:9431  i */\n      dup3\n        /* \"sc/src/SupplyChainTracker.sol\":9423:9432  result[i] */\n      dup2\n      mload\n      dup2\n      lt\n      tag_230\n      jumpi\n      tag_231\n      tag_221\n      jump\t// in\n    tag_231:\n    tag_230:\n      0x20\n      mul\n      0x20\n      add\n      add\n        /* \"sc/src/SupplyChainTracker.sol\":9423:9441  result[i] = ids[i] */\n      dup2\n      dup2\n      mstore\n      pop\n      pop\n        /* \"sc/src/SupplyChainTracker.sol\":9404:9407  i++ */\n      dup1\n      dup1\n      0x01\n      add\n      swap2\n      pop\n      pop\n        /* \"sc/src/SupplyChainTracker.sol\":9373:9452  for (uint256 i = 0; i < count; i++) {... */\n      jump(tag_225)\n    tag_226:\n      pop\n        /* \"sc/src/SupplyChainTracker.sol\":9468:9474  result */\n      dup1\n        /* \"sc/src/SupplyChainTracker.sol\":9461:9474  return result */\n      swap4\n      pop\n      pop\n      pop\n      pop\n        /* \"sc/src/SupplyChainTracker.sol\":8922:9481  function getUserTransfers(address user) public view returns (uint256[] memory) {... */\n      swap2\n      swap1\n      pop\n      jump\t// out\n        /* \"sc/src/SupplyChainTracker.sol\":1691:1728  mapping(uint256 => User) public users */\n    tag_45:\n      mstore(0x20, 0x06)\n      dup1\n      0x00\n      mstore\n      keccak256(0x00, 0x40)\n      0x00\n      swap2\n      pop\n      swap1\n      pop\n      dup1\n      0x00\n      add\n      sload\n      swap1\n      dup1\n      0x01\n      add\n      0x00\n      swap1\n      sload\n      swap1\n      0x0100\n      exp\n      swap1\n      div\n      0xffffffffffffffffffffffffffffffffffffffff\n      and\n      swap1\n      dup1\n      0x02\n      add\n      sload\n      swap1\n      dup1\n      0x03\n      add\n      0x00\n      swap1\n      sload\n      swap1\n      0x0100\n      exp\n      swap1\n      div\n      0xff\n      and\n      swap1\n      pop\n      dup5\n      jump\t// out\n        /* \"sc/src/SupplyChainTracker.sol\":2707:3396  function requestUserRole(bytes32 role) public {... */\n    tag_51:\n        /* \"sc/src/SupplyChainTracker.sol\":2779:2780  0 */\n      0x00\n        /* \"sc/src/SupplyChainTracker.sol\":2771:2780  role != 0 */\n      0x00\n      shl\n        /* \"sc/src/SupplyChainTracker.sol\":2771:2775  role */\n      dup2\n        /* \"sc/src/SupplyChainTracker.sol\":2771:2780  role != 0 */\n      sub\n        /* \"sc/src/SupplyChainTracker.sol\":2763:2797  require(role != 0, \"Invalid role\") */\n      tag_233\n      jumpi\n      mload(0x40)\n      0x08c379a000000000000000000000000000000000000000000000000000000000\n      dup2\n      mstore\n      0x04\n      add\n      tag_234\n      swap1\n      tag_235\n      jump\t// in\n    tag_234:\n      mload(0x40)\n      dup1\n      swap2\n      sub\n      swap1\n      revert\n    tag_233:\n        /* \"sc/src/SupplyChainTracker.sol\":2807:2821  uint256 userId */\n      0x00\n        /* \"sc/src/SupplyChainTracker.sol\":2824:2839  addressToUserId */\n      0x07\n        /* \"sc/src/SupplyChainTracker.sol\":2824:2851  addressToUserId[msg.sender] */\n      0x00\n        /* \"sc/src/SupplyChainTracker.sol\":2840:2850  msg.sender */\n      caller\n        /* \"sc/src/SupplyChainTracker.sol\":2824:2851  addressToUserId[msg.sender] */\n      0xffffffffffffffffffffffffffffffffffffffff\n      and\n      0xffffffffffffffffffffffffffffffffffffffff\n      and\n      dup2\n      mstore\n      0x20\n      add\n      swap1\n      dup2\n      mstore\n      0x20\n      add\n      0x00\n      keccak256\n      sload\n        /* \"sc/src/SupplyChainTracker.sol\":2807:2851  uint256 userId = addressToUserId[msg.sender] */\n      swap1\n      pop\n        /* \"sc/src/SupplyChainTracker.sol\":2875:2876  0 */\n      0x00\n        /* \"sc/src/SupplyChainTracker.sol\":2865:2871  userId */\n      dup2\n        /* \"sc/src/SupplyChainTracker.sol\":2865:2876  userId == 0 */\n      sub\n        /* \"sc/src/SupplyChainTracker.sol\":2861:3276  if (userId == 0) {... */\n      tag_236\n      jumpi\n        /* \"sc/src/SupplyChainTracker.sol\":2901:2911  nextUserId */\n      0x03\n      0x00\n        /* \"sc/src/SupplyChainTracker.sol\":2901:2913  nextUserId++ */\n      dup2\n      sload\n      dup1\n      swap3\n      swap2\n      swap1\n      tag_237\n      swap1\n      tag_157\n      jump\t// in\n    tag_237:\n      swap2\n      swap1\n      pop\n      sstore\n        /* \"sc/src/SupplyChainTracker.sol\":2892:2913  userId = nextUserId++ */\n      swap1\n      pop\n        /* \"sc/src/SupplyChainTracker.sol\":2943:3104  User({... */\n      mload(0x40)\n      dup1\n      0x80\n      add\n      0x40\n      mstore\n      dup1\n        /* \"sc/src/SupplyChainTracker.sol\":2970:2976  userId */\n      dup3\n        /* \"sc/src/SupplyChainTracker.sol\":2943:3104  User({... */\n      dup2\n      mstore\n      0x20\n      add\n        /* \"sc/src/SupplyChainTracker.sol\":3007:3017  msg.sender */\n      caller\n        /* \"sc/src/SupplyChainTracker.sol\":2943:3104  User({... */\n      0xffffffffffffffffffffffffffffffffffffffff\n      and\n      dup2\n      mstore\n      0x20\n      add\n        /* \"sc/src/SupplyChainTracker.sol\":3041:3045  role */\n      dup4\n        /* \"sc/src/SupplyChainTracker.sol\":2943:3104  User({... */\n      dup2\n      mstore\n      0x20\n      add\n        /* \"sc/src/SupplyChainTracker.sol\":3071:3089  UserStatus.Pending */\n      0x00\n        /* \"sc/src/SupplyChainTracker.sol\":2943:3104  User({... */\n      0x03\n      dup2\n      gt\n      iszero\n      tag_238\n      jumpi\n      tag_239\n      tag_116\n      jump\t// in\n    tag_239:\n    tag_238:\n      dup2\n      mstore\n      pop\n        /* \"sc/src/SupplyChainTracker.sol\":2927:2932  users */\n      0x06\n        /* \"sc/src/SupplyChainTracker.sol\":2927:2940  users[userId] */\n      0x00\n        /* \"sc/src/SupplyChainTracker.sol\":2933:2939  userId */\n      dup4\n        /* \"sc/src/SupplyChainTracker.sol\":2927:2940  users[userId] */\n      dup2\n      mstore\n      0x20\n      add\n      swap1\n      dup2\n      mstore\n      0x20\n      add\n      0x00\n      keccak256\n        /* \"sc/src/SupplyChainTracker.sol\":2927:3104  users[userId] = User({... */\n      0x00\n      dup3\n      add\n      mload\n      dup2\n      0x00\n      add\n      sstore\n      0x20\n      dup3\n      add\n      mload\n      dup2\n      0x01\n      add\n      exp(0x0100, 0x00)\n      dup2\n      sload\n      dup2\n      0xffffffffffffffffffffffffffffffffffffffff\n      mul\n      not\n      and\n      swap1\n      dup4\n      0xffffffffffffffffffffffffffffffffffffffff\n      and\n      mul\n      or\n      swap1\n      sstore\n      pop\n      0x40\n      dup3\n      add\n      mload\n      dup2\n      0x02\n      add\n      sstore\n      0x60\n      dup3\n      add\n      mload\n      dup2\n      0x03\n      add\n      exp(0x0100, 0x00)\n      dup2\n      sload\n      dup2\n      0xff\n      mul\n      not\n      and\n      swap1\n      dup4\n      0x03\n      dup2\n      gt\n      iszero\n      tag_240\n      jumpi\n      tag_241\n      tag_116\n      jump\t// in\n    tag_241:\n    tag_240:\n      mul\n      or\n      swap1\n      sstore\n      pop\n      swap1\n      pop\n      pop\n        /* \"sc/src/SupplyChainTracker.sol\":3148:3154  userId */\n      dup1\n        /* \"sc/src/SupplyChainTracker.sol\":3118:3133  addressToUserId */\n      0x07\n        /* \"sc/src/SupplyChainTracker.sol\":3118:3145  addressToUserId[msg.sender] */\n      0x00\n        /* \"sc/src/SupplyChainTracker.sol\":3134:3144  msg.sender */\n      caller\n        /* \"sc/src/SupplyChainTracker.sol\":3118:3145  addressToUserId[msg.sender] */\n      0xffffffffffffffffffffffffffffffffffffffff\n      and\n      0xffffffffffffffffffffffffffffffffffffffff\n      and\n      dup2\n      mstore\n      0x20\n      add\n      swap1\n      dup2\n      mstore\n      0x20\n      add\n      0x00\n      keccak256\n        /* \"sc/src/SupplyChainTracker.sol\":3118:3154  addressToUserId[msg.sender] = userId */\n      dup2\n      swap1\n      sstore\n      pop\n        /* \"sc/src/SupplyChainTracker.sol\":2861:3276  if (userId == 0) {... */\n      jump(tag_242)\n    tag_236:\n        /* \"sc/src/SupplyChainTracker.sol\":3206:3210  role */\n      dup2\n        /* \"sc/src/SupplyChainTracker.sol\":3185:3190  users */\n      0x06\n        /* \"sc/src/SupplyChainTracker.sol\":3185:3198  users[userId] */\n      0x00\n        /* \"sc/src/SupplyChainTracker.sol\":3191:3197  userId */\n      dup4\n        /* \"sc/src/SupplyChainTracker.sol\":3185:3198  users[userId] */\n      dup2\n      mstore\n      0x20\n      add\n      swap1\n      dup2\n      mstore\n      0x20\n      add\n      0x00\n      keccak256\n        /* \"sc/src/SupplyChainTracker.sol\":3185:3203  users[userId].role */\n      0x02\n      add\n        /* \"sc/src/SupplyChainTracker.sol\":3185:3210  users[userId].role = role */\n      dup2\n      swap1\n      sstore\n      pop\n        /* \"sc/src/SupplyChainTracker.sol\":3247:3265  UserStatus.Pending */\n      0x00\n        /* \"sc/src/SupplyChainTracker.sol\":3224:3229  users */\n      0x06\n        /* \"sc/src/SupplyChainTracker.sol\":3224:3237  users[userId] */\n      0x00\n        /* \"sc/src/SupplyChainTracker.sol\":3230:3236  userId */\n      dup4\n        /* \"sc/src/SupplyChainTracker.sol\":3224:3237  users[userId] */\n      dup2\n      mstore\n      0x20\n      add\n      swap1\n      dup2\n      mstore\n      0x20\n      add\n      0x00\n      keccak256\n        /* \"sc/src/SupplyChainTracker.sol\":3224:3244  users[userId].status */\n      0x03\n      add\n      0x00\n        /* \"sc/src/SupplyChainTracker.sol\":3224:3265  users[userId].status = UserStatus.Pending */\n      0x0100\n      exp\n      dup2\n      sload\n      dup2\n      0xff\n      mul\n      not\n      and\n      swap1\n      dup4\n      0x03\n      dup2\n      gt\n      iszero\n      tag_243\n      jumpi\n      tag_244\n      tag_116\n      jump\t// in\n    tag_244:\n    tag_243:\n      mul\n      or\n      swap1\n      sstore\n      pop\n        /* \"sc/src/SupplyChainTracker.sol\":2861:3276  if (userId == 0) {... */\n    tag_242:\n        /* \"sc/src/SupplyChainTracker.sol\":3308:3318  msg.sender */\n      caller\n        /* \"sc/src/SupplyChainTracker.sol\":3290:3325  UserRoleRequested(msg.sender, role) */\n      0xffffffffffffffffffffffffffffffffffffffff\n      and\n      0x6462c5e0af9bf3a12e42a57283f899627cb117e108991e3efda5d27188cc85c1\n        /* \"sc/src/SupplyChainTracker.sol\":3320:3324  role */\n      dup4\n        /* \"sc/src/SupplyChainTracker.sol\":3290:3325  UserRoleRequested(msg.sender, role) */\n      mload(0x40)\n      tag_245\n      swap2\n      swap1\n      tag_246\n      jump\t// in\n    tag_245:\n      mload(0x40)\n      dup1\n      swap2\n      sub\n      swap1\n      log2\n        /* \"sc/src/SupplyChainTracker.sol\":3358:3368  msg.sender */\n      caller\n        /* \"sc/src/SupplyChainTracker.sol\":3340:3389  UserStatusChanged(msg.sender, UserStatus.Pending) */\n      0xffffffffffffffffffffffffffffffffffffffff\n      and\n      0xb3b609c7a5e504a312603e90d906d1667fd5caff0a840ad07bf5709a3ca1a045\n        /* \"sc/src/SupplyChainTracker.sol\":3370:3388  UserStatus.Pending */\n      0x00\n        /* \"sc/src/SupplyChainTracker.sol\":3340:3389  UserStatusChanged(msg.sender, UserStatus.Pending) */\n      mload(0x40)\n      tag_247\n      swap2\n      swap1\n      tag_248\n      jump\t// in\n    tag_247:\n      mload(0x40)\n      dup1\n      swap2\n      sub\n      swap1\n      log2\n        /* \"sc/src/SupplyChainTracker.sol\":2753:3396  {... */\n      pop\n        /* \"sc/src/SupplyChainTracker.sol\":2707:3396  function requestUserRole(bytes32 role) public {... */\n      pop\n      jump\t// out\n        /* \"sc/src/SupplyChainTracker.sol\":1595:1634  mapping(uint256 => Token) public tokens */\n    tag_54:\n      mstore(0x20, 0x04)\n      dup1\n      0x00\n      mstore\n      keccak256(0x00, 0x40)\n      0x00\n      swap2\n      pop\n      swap1\n      pop\n      dup1\n      0x00\n      add\n      sload\n      swap1\n      dup1\n      0x01\n      add\n      0x00\n      swap1\n      sload\n      swap1\n      0x0100\n      exp\n      swap1\n      div\n      0xffffffffffffffffffffffffffffffffffffffff\n      and\n      swap1\n      dup1\n      0x02\n      add\n      dup1\n      sload\n      tag_249\n      swap1\n      tag_250\n      jump\t// in\n    tag_249:\n      dup1\n      0x1f\n      add\n      0x20\n      dup1\n      swap2\n      div\n      mul\n      0x20\n      add\n      mload(0x40)\n      swap1\n      dup2\n      add\n      0x40\n      mstore\n      dup1\n      swap3\n      swap2\n      swap1\n      dup2\n      dup2\n      mstore\n      0x20\n      add\n      dup3\n      dup1\n      sload\n      tag_251\n      swap1\n      tag_250\n      jump\t// in\n    tag_251:\n      dup1\n      iszero\n      tag_252\n      jumpi\n      dup1\n      0x1f\n      lt\n      tag_253\n      jumpi\n      0x0100\n      dup1\n      dup4\n      sload\n      div\n      mul\n      dup4\n      mstore\n      swap2\n      0x20\n      add\n      swap2\n      jump(tag_252)\n    tag_253:\n      dup3\n      add\n      swap2\n      swap1\n      0x00\n      mstore\n      keccak256(0x00, 0x20)\n      swap1\n    tag_254:\n      dup2\n      sload\n      dup2\n      mstore\n      swap1\n      0x01\n      add\n      swap1\n      0x20\n      add\n      dup1\n      dup4\n      gt\n      tag_254\n      jumpi\n      dup3\n      swap1\n      sub\n      0x1f\n      and\n      dup3\n      add\n      swap2\n    tag_252:\n      pop\n      pop\n      pop\n      pop\n      pop\n      swap1\n      dup1\n      0x03\n      add\n      sload\n      swap1\n      dup1\n      0x04\n      add\n      dup1\n      sload\n      tag_255\n      swap1\n      tag_250\n      jump\t// in\n    tag_255:\n      dup1\n      0x1f\n      add\n      0x20\n      dup1\n      swap2\n      div\n      mul\n      0x20\n      add\n      mload(0x40)\n      swap1\n      dup2\n      add\n      0x40\n      mstore\n      dup1\n      swap3\n      swap2\n      swap1\n      dup2\n      dup2\n      mstore\n      0x20\n      add\n      dup3\n      dup1\n      sload\n      tag_256\n      swap1\n      tag_250\n      jump\t// in\n    tag_256:\n      dup1\n      iszero\n      tag_257\n      jumpi\n      dup1\n      0x1f\n      lt\n      tag_258\n      jumpi\n      0x0100\n      dup1\n      dup4\n      sload\n      div\n      mul\n      dup4\n      mstore\n      swap2\n      0x20\n      add\n      swap2\n      jump(tag_257)\n    tag_258:\n      dup3\n      add\n      swap2\n      swap1\n      0x00\n      mstore\n      keccak256(0x00, 0x20)\n      swap1\n    tag_259:\n      dup2\n      sload\n      dup2\n      mstore\n      swap1\n      0x01\n      add\n      swap1\n      0x20\n      add\n      dup1\n      dup4\n      gt\n      tag_259\n      jumpi\n      dup3\n      swap1\n      sub\n      0x1f\n      and\n      dup3\n      add\n      swap2\n    tag_257:\n      pop\n      pop\n      pop\n      pop\n      pop\n      swap1\n      dup1\n      0x05\n      add\n      sload\n      swap1\n      dup1\n      0x06\n      add\n      sload\n      swap1\n      pop\n      dup8\n      jump\t// out\n        /* \"sc/src/SupplyChainTracker.sol\":8299:8916  function getUserTokens(address user) public view returns (uint256[] memory) {... */\n    tag_59:\n        /* \"sc/src/SupplyChainTracker.sol\":8357:8373  uint256[] memory */\n      0x60\n        /* \"sc/src/SupplyChainTracker.sol\":8385:8405  uint256[] memory ids */\n      0x00\n        /* \"sc/src/SupplyChainTracker.sol\":8436:8437  1 */\n      0x01\n        /* \"sc/src/SupplyChainTracker.sol\":8422:8433  nextTokenId */\n      dup1\n      sload\n        /* \"sc/src/SupplyChainTracker.sol\":8422:8437  nextTokenId - 1 */\n      tag_261\n      swap2\n      swap1\n      tag_153\n      jump\t// in\n    tag_261:\n        /* \"sc/src/SupplyChainTracker.sol\":8408:8438  new uint256[](nextTokenId - 1) */\n      0xffffffffffffffff\n      dup2\n      gt\n      iszero\n      tag_262\n      jumpi\n      tag_263\n      tag_211\n      jump\t// in\n    tag_263:\n    tag_262:\n      mload(0x40)\n      swap1\n      dup1\n      dup3\n      mstore\n      dup1\n      0x20\n      mul\n      0x20\n      add\n      dup3\n      add\n      0x40\n      mstore\n      dup1\n      iszero\n      tag_264\n      jumpi\n      dup2\n      0x20\n      add\n      0x20\n      dup3\n      mul\n      dup1\n      calldatasize\n      dup4\n      calldatacopy\n      dup1\n      dup3\n      add\n      swap2\n      pop\n      pop\n      swap1\n      pop\n    tag_264:\n      pop\n        /* \"sc/src/SupplyChainTracker.sol\":8385:8438  uint256[] memory ids = new uint256[](nextTokenId - 1) */\n      swap1\n      pop\n        /* \"sc/src/SupplyChainTracker.sol\":8448:8461  uint256 count */\n      0x00\n        /* \"sc/src/SupplyChainTracker.sol\":8464:8465  0 */\n      0x00\n        /* \"sc/src/SupplyChainTracker.sol\":8448:8465  uint256 count = 0 */\n      swap1\n      pop\n        /* \"sc/src/SupplyChainTracker.sol\":8480:8489  uint256 i */\n      0x00\n        /* \"sc/src/SupplyChainTracker.sol\":8492:8493  1 */\n      0x01\n        /* \"sc/src/SupplyChainTracker.sol\":8480:8493  uint256 i = 1 */\n      swap1\n      pop\n        /* \"sc/src/SupplyChainTracker.sol\":8475:8677  for (uint256 i = 1; i < nextTokenId; i++) {... */\n    tag_265:\n        /* \"sc/src/SupplyChainTracker.sol\":8499:8510  nextTokenId */\n      sload(0x01)\n        /* \"sc/src/SupplyChainTracker.sol\":8495:8496  i */\n      dup2\n        /* \"sc/src/SupplyChainTracker.sol\":8495:8510  i < nextTokenId */\n      lt\n        /* \"sc/src/SupplyChainTracker.sol\":8475:8677  for (uint256 i = 1; i < nextTokenId; i++) {... */\n      iszero\n      tag_266\n      jumpi\n        /* \"sc/src/SupplyChainTracker.sol\":8531:8546  Token storage t */\n      0x00\n        /* \"sc/src/SupplyChainTracker.sol\":8549:8555  tokens */\n      0x04\n        /* \"sc/src/SupplyChainTracker.sol\":8549:8558  tokens[i] */\n      0x00\n        /* \"sc/src/SupplyChainTracker.sol\":8556:8557  i */\n      dup4\n        /* \"sc/src/SupplyChainTracker.sol\":8549:8558  tokens[i] */\n      dup2\n      mstore\n      0x20\n      add\n      swap1\n      dup2\n      mstore\n      0x20\n      add\n      0x00\n      keccak256\n        /* \"sc/src/SupplyChainTracker.sol\":8531:8558  Token storage t = tokens[i] */\n      swap1\n      pop\n        /* \"sc/src/SupplyChainTracker.sol\":8589:8593  user */\n      dup6\n        /* \"sc/src/SupplyChainTracker.sol\":8576:8593  t.creator == user */\n      0xffffffffffffffffffffffffffffffffffffffff\n      and\n        /* \"sc/src/SupplyChainTracker.sol\":8576:8577  t */\n      dup2\n        /* \"sc/src/SupplyChainTracker.sol\":8576:8585  t.creator */\n      0x01\n      add\n      0x00\n      swap1\n      sload\n      swap1\n      0x0100\n      exp\n      swap1\n      div\n      0xffffffffffffffffffffffffffffffffffffffff\n      and\n        /* \"sc/src/SupplyChainTracker.sol\":8576:8593  t.creator == user */\n      0xffffffffffffffffffffffffffffffffffffffff\n      and\n      eq\n        /* \"sc/src/SupplyChainTracker.sol\":8576:8616  t.creator == user || t.balance[user] > 0 */\n      dup1\n      tag_268\n      jumpi\n      pop\n        /* \"sc/src/SupplyChainTracker.sol\":8615:8616  0 */\n      0x00\n        /* \"sc/src/SupplyChainTracker.sol\":8597:8598  t */\n      dup2\n        /* \"sc/src/SupplyChainTracker.sol\":8597:8606  t.balance */\n      0x07\n      add\n        /* \"sc/src/SupplyChainTracker.sol\":8597:8612  t.balance[user] */\n      0x00\n        /* \"sc/src/SupplyChainTracker.sol\":8607:8611  user */\n      dup9\n        /* \"sc/src/SupplyChainTracker.sol\":8597:8612  t.balance[user] */\n      0xffffffffffffffffffffffffffffffffffffffff\n      and\n      0xffffffffffffffffffffffffffffffffffffffff\n      and\n      dup2\n      mstore\n      0x20\n      add\n      swap1\n      dup2\n      mstore\n      0x20\n      add\n      0x00\n      keccak256\n      sload\n        /* \"sc/src/SupplyChainTracker.sol\":8597:8616  t.balance[user] > 0 */\n      gt\n        /* \"sc/src/SupplyChainTracker.sol\":8576:8616  t.creator == user || t.balance[user] > 0 */\n    tag_268:\n        /* \"sc/src/SupplyChainTracker.sol\":8572:8667  if (t.creator == user || t.balance[user] > 0) {... */\n      iszero\n      tag_269\n      jumpi\n        /* \"sc/src/SupplyChainTracker.sol\":8651:8652  i */\n      dup2\n        /* \"sc/src/SupplyChainTracker.sol\":8636:8639  ids */\n      dup5\n        /* \"sc/src/SupplyChainTracker.sol\":8640:8647  count++ */\n      dup5\n      dup1\n      tag_270\n      swap1\n      tag_157\n      jump\t// in\n    tag_270:\n      swap6\n      pop\n        /* \"sc/src/SupplyChainTracker.sol\":8636:8648  ids[count++] */\n      dup2\n      mload\n      dup2\n      lt\n      tag_271\n      jumpi\n      tag_272\n      tag_221\n      jump\t// in\n    tag_272:\n    tag_271:\n      0x20\n      mul\n      0x20\n      add\n      add\n        /* \"sc/src/SupplyChainTracker.sol\":8636:8652  ids[count++] = i */\n      dup2\n      dup2\n      mstore\n      pop\n      pop\n        /* \"sc/src/SupplyChainTracker.sol\":8572:8667  if (t.creator == user || t.balance[user] > 0) {... */\n    tag_269:\n        /* \"sc/src/SupplyChainTracker.sol\":8517:8677  {... */\n      pop\n        /* \"sc/src/SupplyChainTracker.sol\":8512:8515  i++ */\n      dup1\n      dup1\n      0x01\n      add\n      swap2\n      pop\n      pop\n        /* \"sc/src/SupplyChainTracker.sol\":8475:8677  for (uint256 i = 1; i < nextTokenId; i++) {... */\n      jump(tag_265)\n    tag_266:\n      pop\n        /* \"sc/src/SupplyChainTracker.sol\":8752:8775  uint256[] memory result */\n      0x00\n        /* \"sc/src/SupplyChainTracker.sol\":8792:8797  count */\n      dup2\n        /* \"sc/src/SupplyChainTracker.sol\":8778:8798  new uint256[](count) */\n      0xffffffffffffffff\n      dup2\n      gt\n      iszero\n      tag_273\n      jumpi\n      tag_274\n      tag_211\n      jump\t// in\n    tag_274:\n    tag_273:\n      mload(0x40)\n      swap1\n      dup1\n      dup3\n      mstore\n      dup1\n      0x20\n      mul\n      0x20\n      add\n      dup3\n      add\n      0x40\n      mstore\n      dup1\n      iszero\n      tag_275\n      jumpi\n      dup2\n      0x20\n      add\n      0x20\n      dup3\n      mul\n      dup1\n      calldatasize\n      dup4\n      calldatacopy\n      dup1\n      dup3\n      add\n      swap2\n      pop\n      pop\n      swap1\n      pop\n    tag_275:\n      pop\n        /* \"sc/src/SupplyChainTracker.sol\":8752:8798  uint256[] memory result = new uint256[](count) */\n      swap1\n      pop\n        /* \"sc/src/SupplyChainTracker.sol\":8813:8822  uint256 i */\n      0x00\n        /* \"sc/src/SupplyChainTracker.sol\":8825:8826  0 */\n      0x00\n        /* \"sc/src/SupplyChainTracker.sol\":8813:8826  uint256 i = 0 */\n      swap1\n      pop\n        /* \"sc/src/SupplyChainTracker.sol\":8808:8887  for (uint256 i = 0; i < count; i++) {... */\n    tag_276:\n        /* \"sc/src/SupplyChainTracker.sol\":8832:8837  count */\n      dup3\n        /* \"sc/src/SupplyChainTracker.sol\":8828:8829  i */\n      dup2\n        /* \"sc/src/SupplyChainTracker.sol\":8828:8837  i < count */\n      lt\n        /* \"sc/src/SupplyChainTracker.sol\":8808:8887  for (uint256 i = 0; i < count; i++) {... */\n      iszero\n      tag_277\n      jumpi\n        /* \"sc/src/SupplyChainTracker.sol\":8870:8873  ids */\n      dup4\n        /* \"sc/src/SupplyChainTracker.sol\":8874:8875  i */\n      dup2\n        /* \"sc/src/SupplyChainTracker.sol\":8870:8876  ids[i] */\n      dup2\n      mload\n      dup2\n      lt\n      tag_279\n      jumpi\n      tag_280\n      tag_221\n      jump\t// in\n    tag_280:\n    tag_279:\n      0x20\n      mul\n      0x20\n      add\n      add\n      mload\n        /* \"sc/src/SupplyChainTracker.sol\":8858:8864  result */\n      dup3\n        /* \"sc/src/SupplyChainTracker.sol\":8865:8866  i */\n      dup3\n        /* \"sc/src/SupplyChainTracker.sol\":8858:8867  result[i] */\n      dup2\n      mload\n      dup2\n      lt\n      tag_281\n      jumpi\n      tag_282\n      tag_221\n      jump\t// in\n    tag_282:\n    tag_281:\n      0x20\n      mul\n      0x20\n      add\n      add\n        /* \"sc/src/SupplyChainTracker.sol\":8858:8876  result[i] = ids[i] */\n      dup2\n      dup2\n      mstore\n      pop\n      pop\n        /* \"sc/src/SupplyChainTracker.sol\":8839:8842  i++ */\n      dup1\n      dup1\n      0x01\n      add\n      swap2\n      pop\n      pop\n        /* \"sc/src/SupplyChainTracker.sol\":8808:8887  for (uint256 i = 0; i < count; i++) {... */\n      jump(tag_276)\n    tag_277:\n      pop\n        /* \"sc/src/SupplyChainTracker.sol\":8903:8909  result */\n      dup1\n        /* \"sc/src/SupplyChainTracker.sol\":8896:8909  return result */\n      swap4\n      pop\n      pop\n      pop\n      pop\n        /* \"sc/src/SupplyChainTracker.sol\":8299:8916  function getUserTokens(address user) public view returns (uint256[] memory) {... */\n      swap2\n      swap1\n      pop\n      jump\t// out\n        /* \"sc/src/SupplyChainTracker.sol\":3702:3931  function getUserInfo(address userAddress) public view returns (User memory) {... */\n    tag_63:\n        /* \"sc/src/SupplyChainTracker.sol\":3765:3776  User memory */\n      tag_283\n      tag_284\n      jump\t// in\n    tag_283:\n        /* \"sc/src/SupplyChainTracker.sol\":3788:3802  uint256 userId */\n      0x00\n        /* \"sc/src/SupplyChainTracker.sol\":3805:3820  addressToUserId */\n      0x07\n        /* \"sc/src/SupplyChainTracker.sol\":3805:3833  addressToUserId[userAddress] */\n      0x00\n        /* \"sc/src/SupplyChainTracker.sol\":3821:3832  userAddress */\n      dup5\n        /* \"sc/src/SupplyChainTracker.sol\":3805:3833  addressToUserId[userAddress] */\n      0xffffffffffffffffffffffffffffffffffffffff\n      and\n      0xffffffffffffffffffffffffffffffffffffffff\n      and\n      dup2\n      mstore\n      0x20\n      add\n      swap1\n      dup2\n      mstore\n      0x20\n      add\n      0x00\n      keccak256\n      sload\n        /* \"sc/src/SupplyChainTracker.sol\":3788:3833  uint256 userId = addressToUserId[userAddress] */\n      swap1\n      pop\n        /* \"sc/src/SupplyChainTracker.sol\":3860:3861  0 */\n      0x00\n        /* \"sc/src/SupplyChainTracker.sol\":3850:3856  userId */\n      dup2\n        /* \"sc/src/SupplyChainTracker.sol\":3850:3861  userId == 0 */\n      eq\n        /* \"sc/src/SupplyChainTracker.sol\":3850:3924  userId == 0 ? User(0, address(0), \"\", UserStatus.Rejected) : users[userId] */\n      tag_286\n      jumpi\n        /* \"sc/src/SupplyChainTracker.sol\":3911:3916  users */\n      0x06\n        /* \"sc/src/SupplyChainTracker.sol\":3911:3924  users[userId] */\n      0x00\n        /* \"sc/src/SupplyChainTracker.sol\":3917:3923  userId */\n      dup3\n        /* \"sc/src/SupplyChainTracker.sol\":3911:3924  users[userId] */\n      dup2\n      mstore\n      0x20\n      add\n      swap1\n      dup2\n      mstore\n      0x20\n      add\n      0x00\n      keccak256\n        /* \"sc/src/SupplyChainTracker.sol\":3850:3924  userId == 0 ? User(0, address(0), \"\", UserStatus.Rejected) : users[userId] */\n      mload(0x40)\n      dup1\n      0x80\n      add\n      0x40\n      mstore\n      swap1\n      dup2\n      0x00\n      dup3\n      add\n      sload\n      dup2\n      mstore\n      0x20\n      add\n      0x01\n      dup3\n      add\n      0x00\n      swap1\n      sload\n      swap1\n      0x0100\n      exp\n      swap1\n      div\n      0xffffffffffffffffffffffffffffffffffffffff\n      and\n      0xffffffffffffffffffffffffffffffffffffffff\n      and\n      0xffffffffffffffffffffffffffffffffffffffff\n      and\n      dup2\n      mstore\n      0x20\n      add\n      0x02\n      dup3\n      add\n      sload\n      dup2\n      mstore\n      0x20\n      add\n      0x03\n      dup3\n      add\n      0x00\n      swap1\n      sload\n      swap1\n      0x0100\n      exp\n      swap1\n      div\n      0xff\n      and\n      0x03\n      dup2\n      gt\n      iszero\n      tag_287\n      jumpi\n      tag_288\n      tag_116\n      jump\t// in\n    tag_288:\n    tag_287:\n      0x03\n      dup2\n      gt\n      iszero\n      tag_289\n      jumpi\n      tag_290\n      tag_116\n      jump\t// in\n    tag_290:\n    tag_289:\n      dup2\n      mstore\n      pop\n      pop\n      jump(tag_291)\n    tag_286:\n        /* \"sc/src/SupplyChainTracker.sol\":3864:3908  User(0, address(0), \"\", UserStatus.Rejected) */\n      mload(0x40)\n      dup1\n      0x80\n      add\n      0x40\n      mstore\n      dup1\n        /* \"sc/src/SupplyChainTracker.sol\":3869:3870  0 */\n      0x00\n        /* \"sc/src/SupplyChainTracker.sol\":3864:3908  User(0, address(0), \"\", UserStatus.Rejected) */\n      dup2\n      mstore\n      0x20\n      add\n        /* \"sc/src/SupplyChainTracker.sol\":3880:3881  0 */\n      0x00\n        /* \"sc/src/SupplyChainTracker.sol\":3864:3908  User(0, address(0), \"\", UserStatus.Rejected) */\n      0xffffffffffffffffffffffffffffffffffffffff\n      and\n      dup2\n      mstore\n      0x20\n      add\n      0x00\n      dup2\n      mstore\n      0x20\n      add\n        /* \"sc/src/SupplyChainTracker.sol\":3888:3907  UserStatus.Rejected */\n      0x02\n        /* \"sc/src/SupplyChainTracker.sol\":3864:3908  User(0, address(0), \"\", UserStatus.Rejected) */\n      0x03\n      dup2\n      gt\n      iszero\n      tag_292\n      jumpi\n      tag_293\n      tag_116\n      jump\t// in\n    tag_293:\n    tag_292:\n      dup2\n      mstore\n      pop\n        /* \"sc/src/SupplyChainTracker.sol\":3850:3924  userId == 0 ? User(0, address(0), \"\", UserStatus.Rejected) : users[userId] */\n    tag_291:\n        /* \"sc/src/SupplyChainTracker.sol\":3843:3924  return userId == 0 ? User(0, address(0), \"\", UserStatus.Rejected) : users[userId] */\n      swap2\n      pop\n      pop\n        /* \"sc/src/SupplyChainTracker.sol\":3702:3931  function getUserInfo(address userAddress) public view returns (User memory) {... */\n      swap2\n      swap1\n      pop\n      jump\t// out\n        /* \"sc/src/SupplyChainTracker.sol\":1484:1514  uint256 public nextTokenId = 1 */\n    tag_67:\n      sload(0x01)\n      dup2\n      jump\t// out\n        /* \"sc/src/SupplyChainTracker.sol\":3402:3696  function changeStatusUser(address userAddress, UserStatus newStatus) public onlyAdmin {... */\n    tag_73:\n        /* \"sc/src/SupplyChainTracker.sol\":2379:2384  admin */\n      immutable(\"0xb004fbd84afb38927636fa378c0a62a86a02b00862b6ff80fef4d6e948c0571d\")\n        /* \"sc/src/SupplyChainTracker.sol\":2365:2384  msg.sender == admin */\n      0xffffffffffffffffffffffffffffffffffffffff\n      and\n        /* \"sc/src/SupplyChainTracker.sol\":2365:2375  msg.sender */\n      caller\n        /* \"sc/src/SupplyChainTracker.sol\":2365:2384  msg.sender == admin */\n      0xffffffffffffffffffffffffffffffffffffffff\n      and\n      eq\n        /* \"sc/src/SupplyChainTracker.sol\":2357:2398  require(msg.sender == admin, \"Not admin\") */\n      tag_295\n      jumpi\n      mload(0x40)\n      0x08c379a000000000000000000000000000000000000000000000000000000000\n      dup2\n      mstore\n      0x04\n      add\n      tag_296\n      swap1\n      tag_297\n      jump\t// in\n    tag_296:\n      mload(0x40)\n      dup1\n      swap2\n      sub\n      swap1\n      revert\n    tag_295:\n        /* \"sc/src/SupplyChainTracker.sol\":3498:3512  uint256 userId */\n      0x00\n        /* \"sc/src/SupplyChainTracker.sol\":3515:3530  addressToUserId */\n      0x07\n        /* \"sc/src/SupplyChainTracker.sol\":3515:3543  addressToUserId[userAddress] */\n      0x00\n        /* \"sc/src/SupplyChainTracker.sol\":3531:3542  userAddress */\n      dup5\n        /* \"sc/src/SupplyChainTracker.sol\":3515:3543  addressToUserId[userAddress] */\n      0xffffffffffffffffffffffffffffffffffffffff\n      and\n      0xffffffffffffffffffffffffffffffffffffffff\n      and\n      dup2\n      mstore\n      0x20\n      add\n      swap1\n      dup2\n      mstore\n      0x20\n      add\n      0x00\n      keccak256\n      sload\n        /* \"sc/src/SupplyChainTracker.sol\":3498:3543  uint256 userId = addressToUserId[userAddress] */\n      swap1\n      pop\n        /* \"sc/src/SupplyChainTracker.sol\":3571:3572  0 */\n      0x00\n        /* \"sc/src/SupplyChainTracker.sol\":3561:3567  userId */\n      dup2\n        /* \"sc/src/SupplyChainTracker.sol\":3561:3572  userId != 0 */\n      sub\n        /* \"sc/src/SupplyChainTracker.sol\":3553:3591  require(userId != 0, \"User not found\") */\n      tag_299\n      jumpi\n      mload(0x40)\n      0x08c379a000000000000000000000000000000000000000000000000000000000\n      dup2\n      mstore\n      0x04\n      add\n      tag_300\n      swap1\n      tag_301\n      jump\t// in\n    tag_300:\n      mload(0x40)\n      dup1\n      swap2\n      sub\n      swap1\n      revert\n    tag_299:\n        /* \"sc/src/SupplyChainTracker.sol\":3624:3633  newStatus */\n      dup2\n        /* \"sc/src/SupplyChainTracker.sol\":3601:3606  users */\n      0x06\n        /* \"sc/src/SupplyChainTracker.sol\":3601:3614  users[userId] */\n      0x00\n        /* \"sc/src/SupplyChainTracker.sol\":3607:3613  userId */\n      dup4\n        /* \"sc/src/SupplyChainTracker.sol\":3601:3614  users[userId] */\n      dup2\n      mstore\n      0x20\n      add\n      swap1\n      dup2\n      mstore\n      0x20\n      add\n      0x00\n      keccak256\n        /* \"sc/src/SupplyChainTracker.sol\":3601:3621  users[userId].status */\n      0x03\n      add\n      0x00\n        /* \"sc/src/SupplyChainTracker.sol\":3601:3633  users[userId].status = newStatus */\n      0x0100\n      exp\n      dup2\n      sload\n      dup2\n      0xff\n      mul\n      not\n      and\n      swap1\n      dup4\n      0x03\n      dup2\n      gt\n      iszero\n      tag_302\n      jumpi\n      tag_303\n      tag_116\n      jump\t// in\n    tag_303:\n    tag_302:\n      mul\n      or\n      swap1\n      sstore\n      pop\n        /* \"sc/src/SupplyChainTracker.sol\":3666:3677  userAddress */\n      dup3\n        /* \"sc/src/SupplyChainTracker.sol\":3648:3689  UserStatusChanged(userAddress, newStatus) */\n      0xffffffffffffffffffffffffffffffffffffffff\n      and\n      0xb3b609c7a5e504a312603e90d906d1667fd5caff0a840ad07bf5709a3ca1a045\n        /* \"sc/src/SupplyChainTracker.sol\":3679:3688  newStatus */\n      dup4\n        /* \"sc/src/SupplyChainTracker.sol\":3648:3689  UserStatusChanged(userAddress, newStatus) */\n      mload(0x40)\n      tag_304\n      swap2\n      swap1\n      tag_248\n      jump\t// in\n    tag_304:\n      mload(0x40)\n      dup1\n      swap2\n      sub\n      swap1\n      log2\n        /* \"sc/src/SupplyChainTracker.sol\":3488:3696  {... */\n      pop\n        /* \"sc/src/SupplyChainTracker.sol\":3402:3696  function changeStatusUser(address userAddress, UserStatus newStatus) public onlyAdmin {... */\n      pop\n      pop\n      jump\t// out\n        /* \"sc/src/SupplyChainTracker.sol\":1640:1685  mapping(uint256 => Transfer) public transfers */\n    tag_76:\n      mstore(0x20, 0x05)\n      dup1\n      0x00\n      mstore\n      keccak256(0x00, 0x40)\n      0x00\n      swap2\n      pop\n      swap1\n      pop\n      dup1\n      0x00\n      add\n      sload\n      swap1\n      dup1\n      0x01\n      add\n      0x00\n      swap1\n      sload\n      swap1\n      0x0100\n      exp\n      swap1\n      div\n      0xffffffffffffffffffffffffffffffffffffffff\n      and\n      swap1\n      dup1\n      0x02\n      add\n      0x00\n      swap1\n      sload\n      swap1\n      0x0100\n      exp\n      swap1\n      div\n      0xffffffffffffffffffffffffffffffffffffffff\n      and\n      swap1\n      dup1\n      0x03\n      add\n      sload\n      swap1\n      dup1\n      0x04\n      add\n      sload\n      swap1\n      dup1\n      0x05\n      add\n      sload\n      swap1\n      dup1\n      0x06\n      add\n      0x00\n      swap1\n      sload\n      swap1\n      0x0100\n      exp\n      swap1\n      div\n      0xff\n      and\n      swap1\n      pop\n      dup8\n      jump\t// out\n        /* \"sc/src/SupplyChainTracker.sol\":1559:1588  uint256 public nextUserId = 1 */\n    tag_80:\n      sload(0x03)\n      dup2\n      jump\t// out\n        /* \"sc/src/SupplyChainTracker.sol\":1734:1784  mapping(address => uint256) public addressToUserId */\n    tag_84:\n      mstore(0x20, 0x07)\n      dup1\n      0x00\n      mstore\n      keccak256(0x00, 0x40)\n      0x00\n      swap2\n      pop\n      swap1\n      pop\n      sload\n      dup2\n      jump\t// out\n        /* \"sc/src/SupplyChainTracker.sol\":1520:1553  uint256 public nextTransferId = 1 */\n    tag_87:\n      sload(0x02)\n      dup2\n      jump\t// out\n        /* \"sc/src/SupplyChainTracker.sol\":6703:6827  function getTransfer(uint256 transferId) public view returns (Transfer memory) {... */\n    tag_91:\n        /* \"sc/src/SupplyChainTracker.sol\":6765:6780  Transfer memory */\n      tag_305\n      tag_306\n      jump\t// in\n    tag_305:\n        /* \"sc/src/SupplyChainTracker.sol\":6799:6808  transfers */\n      0x05\n        /* \"sc/src/SupplyChainTracker.sol\":6799:6820  transfers[transferId] */\n      0x00\n        /* \"sc/src/SupplyChainTracker.sol\":6809:6819  transferId */\n      dup4\n        /* \"sc/src/SupplyChainTracker.sol\":6799:6820  transfers[transferId] */\n      dup2\n      mstore\n      0x20\n      add\n      swap1\n      dup2\n      mstore\n      0x20\n      add\n      0x00\n      keccak256\n        /* \"sc/src/SupplyChainTracker.sol\":6792:6820  return transfers[transferId] */\n      mload(0x40)\n      dup1\n      0xe0\n      add\n      0x40\n      mstore\n      swap1\n      dup2\n      0x00\n      dup3\n      add\n      sload\n      dup2\n      mstore\n      0x20\n      add\n      0x01\n      dup3\n      add\n      0x00\n      swap1\n      sload\n      swap1\n      0x0100\n      exp\n      swap1\n      div\n      0xffffffffffffffffffffffffffffffffffffffff\n      and\n      0xffffffffffffffffffffffffffffffffffffffff\n      and\n      0xffffffffffffffffffffffffffffffffffffffff\n      and\n      dup2\n      mstore\n      0x20\n      add\n      0x02\n      dup3\n      add\n      0x00\n      swap1\n      sload\n      swap1\n      0x0100\n      exp\n      swap1\n      div\n      0xffffffffffffffffffffffffffffffffffffffff\n      and\n      0xffffffffffffffffffffffffffffffffffffffff\n      and\n      0xffffffffffffffffffffffffffffffffffffffff\n      and\n      dup2\n      mstore\n      0x20\n      add\n      0x03\n      dup3\n      add\n      sload\n      dup2\n      mstore\n      0x20\n      add\n      0x04\n      dup3\n      add\n      sload\n      dup2\n      mstore\n      0x20\n      add\n      0x05\n      dup3\n      add\n      sload\n      dup2\n      mstore\n      0x20\n      add\n      0x06\n      dup3\n      add\n      0x00\n      swap1\n      sload\n      swap1\n      0x0100\n      exp\n      swap1\n      div\n      0xff\n      and\n      0x02\n      dup2\n      gt\n      iszero\n      tag_308\n      jumpi\n      tag_309\n      tag_116\n      jump\t// in\n    tag_309:\n    tag_308:\n      0x02\n      dup2\n      gt\n      iszero\n      tag_310\n      jumpi\n      tag_311\n      tag_116\n      jump\t// in\n    tag_311:\n    tag_310:\n      dup2\n      mstore\n      pop\n      pop\n      swap1\n      pop\n        /* \"sc/src/SupplyChainTracker.sol\":6703:6827  function getTransfer(uint256 transferId) public view returns (Transfer memory) {... */\n      swap2\n      swap1\n      pop\n      jump\t// out\n        /* \"sc/src/SupplyChainTracker.sol\":3969:4648  function createToken(... */\n    tag_97:\n        /* \"sc/src/SupplyChainTracker.sol\":2460:2474  uint256 userId */\n      0x00\n        /* \"sc/src/SupplyChainTracker.sol\":2477:2492  addressToUserId */\n      0x07\n        /* \"sc/src/SupplyChainTracker.sol\":2477:2504  addressToUserId[msg.sender] */\n      0x00\n        /* \"sc/src/SupplyChainTracker.sol\":2493:2503  msg.sender */\n      caller\n        /* \"sc/src/SupplyChainTracker.sol\":2477:2504  addressToUserId[msg.sender] */\n      0xffffffffffffffffffffffffffffffffffffffff\n      and\n      0xffffffffffffffffffffffffffffffffffffffff\n      and\n      dup2\n      mstore\n      0x20\n      add\n      swap1\n      dup2\n      mstore\n      0x20\n      add\n      0x00\n      keccak256\n      sload\n        /* \"sc/src/SupplyChainTracker.sol\":2460:2504  uint256 userId = addressToUserId[msg.sender] */\n      swap1\n      pop\n        /* \"sc/src/SupplyChainTracker.sol\":2532:2533  0 */\n      0x00\n        /* \"sc/src/SupplyChainTracker.sol\":2522:2528  userId */\n      dup2\n        /* \"sc/src/SupplyChainTracker.sol\":2522:2533  userId != 0 */\n      eq\n      iszero\n        /* \"sc/src/SupplyChainTracker.sol\":2522:2580  userId != 0 && users[userId].status == UserStatus.Approved */\n      dup1\n      iszero\n      tag_313\n      jumpi\n      pop\n        /* \"sc/src/SupplyChainTracker.sol\":2561:2580  UserStatus.Approved */\n      0x01\n        /* \"sc/src/SupplyChainTracker.sol\":2537:2580  users[userId].status == UserStatus.Approved */\n      0x03\n      dup2\n      gt\n      iszero\n      tag_314\n      jumpi\n      tag_315\n      tag_116\n      jump\t// in\n    tag_315:\n    tag_314:\n        /* \"sc/src/SupplyChainTracker.sol\":2537:2542  users */\n      0x06\n        /* \"sc/src/SupplyChainTracker.sol\":2537:2550  users[userId] */\n      0x00\n        /* \"sc/src/SupplyChainTracker.sol\":2543:2549  userId */\n      dup4\n        /* \"sc/src/SupplyChainTracker.sol\":2537:2550  users[userId] */\n      dup2\n      mstore\n      0x20\n      add\n      swap1\n      dup2\n      mstore\n      0x20\n      add\n      0x00\n      keccak256\n        /* \"sc/src/SupplyChainTracker.sol\":2537:2557  users[userId].status */\n      0x03\n      add\n      0x00\n      swap1\n      sload\n      swap1\n      0x0100\n      exp\n      swap1\n      div\n      0xff\n      and\n        /* \"sc/src/SupplyChainTracker.sol\":2537:2580  users[userId].status == UserStatus.Approved */\n      0x03\n      dup2\n      gt\n      iszero\n      tag_316\n      jumpi\n      tag_317\n      tag_116\n      jump\t// in\n    tag_317:\n    tag_316:\n      eq\n        /* \"sc/src/SupplyChainTracker.sol\":2522:2580  userId != 0 && users[userId].status == UserStatus.Approved */\n    tag_313:\n        /* \"sc/src/SupplyChainTracker.sol\":2514:2597  require(userId != 0 && users[userId].status == UserStatus.Approved, \"Not approved\") */\n      tag_318\n      jumpi\n      mload(0x40)\n      0x08c379a000000000000000000000000000000000000000000000000000000000\n      dup2\n      mstore\n      0x04\n      add\n      tag_319\n      swap1\n      tag_121\n      jump\t// in\n    tag_319:\n      mload(0x40)\n      dup1\n      swap2\n      sub\n      swap1\n      revert\n    tag_318:\n        /* \"sc/src/SupplyChainTracker.sol\":4178:4179  0 */\n      0x00\n        /* \"sc/src/SupplyChainTracker.sol\":4163:4167  name */\n      dup8\n      dup8\n        /* \"sc/src/SupplyChainTracker.sol\":4157:4175  bytes(name).length */\n      swap1\n      pop\n        /* \"sc/src/SupplyChainTracker.sol\":4157:4179  bytes(name).length > 0 */\n      gt\n        /* \"sc/src/SupplyChainTracker.sol\":4149:4194  require(bytes(name).length > 0, \"Name empty\") */\n      tag_321\n      jumpi\n      mload(0x40)\n      0x08c379a000000000000000000000000000000000000000000000000000000000\n      dup2\n      mstore\n      0x04\n      add\n      tag_322\n      swap1\n      tag_323\n      jump\t// in\n    tag_322:\n      mload(0x40)\n      dup1\n      swap2\n      sub\n      swap1\n      revert\n    tag_321:\n        /* \"sc/src/SupplyChainTracker.sol\":4204:4217  uint256 newId */\n      0x00\n        /* \"sc/src/SupplyChainTracker.sol\":4220:4231  nextTokenId */\n      0x01\n      0x00\n        /* \"sc/src/SupplyChainTracker.sol\":4220:4233  nextTokenId++ */\n      dup2\n      sload\n      dup1\n      swap3\n      swap2\n      swap1\n      tag_324\n      swap1\n      tag_157\n      jump\t// in\n    tag_324:\n      swap2\n      swap1\n      pop\n      sstore\n        /* \"sc/src/SupplyChainTracker.sol\":4204:4233  uint256 newId = nextTokenId++ */\n      swap1\n      pop\n        /* \"sc/src/SupplyChainTracker.sol\":4243:4260  Token storage tkn */\n      0x00\n        /* \"sc/src/SupplyChainTracker.sol\":4263:4269  tokens */\n      0x04\n        /* \"sc/src/SupplyChainTracker.sol\":4263:4276  tokens[newId] */\n      0x00\n        /* \"sc/src/SupplyChainTracker.sol\":4270:4275  newId */\n      dup4\n        /* \"sc/src/SupplyChainTracker.sol\":4263:4276  tokens[newId] */\n      dup2\n      mstore\n      0x20\n      add\n      swap1\n      dup2\n      mstore\n      0x20\n      add\n      0x00\n      keccak256\n        /* \"sc/src/SupplyChainTracker.sol\":4243:4276  Token storage tkn = tokens[newId] */\n      swap1\n      pop\n        /* \"sc/src/SupplyChainTracker.sol\":4295:4300  newId */\n      dup2\n        /* \"sc/src/SupplyChainTracker.sol\":4286:4289  tkn */\n      dup2\n        /* \"sc/src/SupplyChainTracker.sol\":4286:4292  tkn.id */\n      0x00\n      add\n        /* \"sc/src/SupplyChainTracker.sol\":4286:4300  tkn.id = newId */\n      dup2\n      swap1\n      sstore\n      pop\n        /* \"sc/src/SupplyChainTracker.sol\":4324:4334  msg.sender */\n      caller\n        /* \"sc/src/SupplyChainTracker.sol\":4310:4313  tkn */\n      dup2\n        /* \"sc/src/SupplyChainTracker.sol\":4310:4321  tkn.creator */\n      0x01\n      add\n      0x00\n        /* \"sc/src/SupplyChainTracker.sol\":4310:4334  tkn.creator = msg.sender */\n      0x0100\n      exp\n      dup2\n      sload\n      dup2\n      0xffffffffffffffffffffffffffffffffffffffff\n      mul\n      not\n      and\n      swap1\n      dup4\n      0xffffffffffffffffffffffffffffffffffffffff\n      and\n      mul\n      or\n      swap1\n      sstore\n      pop\n        /* \"sc/src/SupplyChainTracker.sol\":4355:4359  name */\n      dup9\n      dup9\n        /* \"sc/src/SupplyChainTracker.sol\":4344:4347  tkn */\n      dup3\n        /* \"sc/src/SupplyChainTracker.sol\":4344:4352  tkn.name */\n      0x02\n      add\n        /* \"sc/src/SupplyChainTracker.sol\":4344:4359  tkn.name = name */\n      swap2\n      dup3\n      tag_325\n      swap3\n      swap2\n      swap1\n      tag_326\n      jump\t// in\n    tag_325:\n      pop\n        /* \"sc/src/SupplyChainTracker.sol\":4387:4398  totalSupply */\n      dup7\n        /* \"sc/src/SupplyChainTracker.sol\":4369:4372  tkn */\n      dup2\n        /* \"sc/src/SupplyChainTracker.sol\":4369:4384  tkn.totalSupply */\n      0x03\n      add\n        /* \"sc/src/SupplyChainTracker.sol\":4369:4398  tkn.totalSupply = totalSupply */\n      dup2\n      swap1\n      sstore\n      pop\n        /* \"sc/src/SupplyChainTracker.sol\":4423:4431  features */\n      dup6\n      dup6\n        /* \"sc/src/SupplyChainTracker.sol\":4408:4411  tkn */\n      dup3\n        /* \"sc/src/SupplyChainTracker.sol\":4408:4420  tkn.features */\n      0x04\n      add\n        /* \"sc/src/SupplyChainTracker.sol\":4408:4431  tkn.features = features */\n      swap2\n      dup3\n      tag_327\n      swap3\n      swap2\n      swap1\n      tag_326\n      jump\t// in\n    tag_327:\n      pop\n        /* \"sc/src/SupplyChainTracker.sol\":4456:4464  parentId */\n      dup4\n        /* \"sc/src/SupplyChainTracker.sol\":4441:4444  tkn */\n      dup2\n        /* \"sc/src/SupplyChainTracker.sol\":4441:4453  tkn.parentId */\n      0x05\n      add\n        /* \"sc/src/SupplyChainTracker.sol\":4441:4464  tkn.parentId = parentId */\n      dup2\n      swap1\n      sstore\n      pop\n        /* \"sc/src/SupplyChainTracker.sol\":4492:4507  block.timestamp */\n      timestamp\n        /* \"sc/src/SupplyChainTracker.sol\":4474:4477  tkn */\n      dup2\n        /* \"sc/src/SupplyChainTracker.sol\":4474:4489  tkn.dateCreated */\n      0x06\n      add\n        /* \"sc/src/SupplyChainTracker.sol\":4474:4507  tkn.dateCreated = block.timestamp */\n      dup2\n      swap1\n      sstore\n      pop\n        /* \"sc/src/SupplyChainTracker.sol\":4543:4554  totalSupply */\n      dup7\n        /* \"sc/src/SupplyChainTracker.sol\":4517:4520  tkn */\n      dup2\n        /* \"sc/src/SupplyChainTracker.sol\":4517:4528  tkn.balance */\n      0x07\n      add\n        /* \"sc/src/SupplyChainTracker.sol\":4517:4540  tkn.balance[msg.sender] */\n      0x00\n        /* \"sc/src/SupplyChainTracker.sol\":4529:4539  msg.sender */\n      caller\n        /* \"sc/src/SupplyChainTracker.sol\":4517:4540  tkn.balance[msg.sender] */\n      0xffffffffffffffffffffffffffffffffffffffff\n      and\n      0xffffffffffffffffffffffffffffffffffffffff\n      and\n      dup2\n      mstore\n      0x20\n      add\n      swap1\n      dup2\n      mstore\n      0x20\n      add\n      0x00\n      keccak256\n        /* \"sc/src/SupplyChainTracker.sol\":4517:4554  tkn.balance[msg.sender] = totalSupply */\n      dup2\n      swap1\n      sstore\n      pop\n        /* \"sc/src/SupplyChainTracker.sol\":4611:4621  msg.sender */\n      caller\n        /* \"sc/src/SupplyChainTracker.sol\":4591:4641  TokenCreated(newId, msg.sender, name, totalSupply) */\n      0xffffffffffffffffffffffffffffffffffffffff\n      and\n        /* \"sc/src/SupplyChainTracker.sol\":4604:4609  newId */\n      dup3\n        /* \"sc/src/SupplyChainTracker.sol\":4591:4641  TokenCreated(newId, msg.sender, name, totalSupply) */\n      0x463ec2a62c46678a81e23cde640446ca4b512f102bb3309cf5a3e2a4ae831464\n        /* \"sc/src/SupplyChainTracker.sol\":4623:4627  name */\n      dup12\n      dup12\n        /* \"sc/src/SupplyChainTracker.sol\":4629:4640  totalSupply */\n      dup12\n        /* \"sc/src/SupplyChainTracker.sol\":4591:4641  TokenCreated(newId, msg.sender, name, totalSupply) */\n      mload(0x40)\n      tag_328\n      swap4\n      swap3\n      swap2\n      swap1\n      tag_329\n      jump\t// in\n    tag_328:\n      mload(0x40)\n      dup1\n      swap2\n      sub\n      swap1\n      log3\n        /* \"sc/src/SupplyChainTracker.sol\":4139:4648  {... */\n      pop\n      pop\n        /* \"sc/src/SupplyChainTracker.sol\":2450:2615  {... */\n      pop\n        /* \"sc/src/SupplyChainTracker.sol\":3969:4648  function createToken(... */\n      pop\n      pop\n      pop\n      pop\n      pop\n      pop\n      jump\t// out\n        /* \"sc/src/SupplyChainTracker.sol\":4654:5241  function getToken(uint256 tokenId) public view returns (... */\n    tag_100:\n        /* \"sc/src/SupplyChainTracker.sol\":4719:4729  uint256 id */\n      0x00\n        /* \"sc/src/SupplyChainTracker.sol\":4739:4754  address creator */\n      0x00\n        /* \"sc/src/SupplyChainTracker.sol\":4764:4782  string memory name */\n      0x60\n        /* \"sc/src/SupplyChainTracker.sol\":4792:4811  uint256 totalSupply */\n      0x00\n        /* \"sc/src/SupplyChainTracker.sol\":4821:4843  string memory features */\n      0x60\n        /* \"sc/src/SupplyChainTracker.sol\":4853:4869  uint256 parentId */\n      0x00\n        /* \"sc/src/SupplyChainTracker.sol\":4879:4898  uint256 dateCreated */\n      0x00\n        /* \"sc/src/SupplyChainTracker.sol\":4908:4923  uint256 balance */\n      0x00\n        /* \"sc/src/SupplyChainTracker.sol\":4940:4959  Token storage token */\n      0x00\n        /* \"sc/src/SupplyChainTracker.sol\":4962:4968  tokens */\n      0x04\n        /* \"sc/src/SupplyChainTracker.sol\":4962:4977  tokens[tokenId] */\n      0x00\n        /* \"sc/src/SupplyChainTracker.sol\":4969:4976  tokenId */\n      dup12\n        /* \"sc/src/SupplyChainTracker.sol\":4962:4977  tokens[tokenId] */\n      dup2\n      mstore\n      0x20\n      add\n      swap1\n      dup2\n      mstore\n      0x20\n      add\n      0x00\n      keccak256\n        /* \"sc/src/SupplyChainTracker.sol\":4940:4977  Token storage token = tokens[tokenId] */\n      swap1\n      pop\n        /* \"sc/src/SupplyChainTracker.sol\":5008:5013  token */\n      dup1\n        /* \"sc/src/SupplyChainTracker.sol\":5008:5016  token.id */\n      0x00\n      add\n      sload\n        /* \"sc/src/SupplyChainTracker.sol\":5030:5035  token */\n      dup2\n        /* \"sc/src/SupplyChainTracker.sol\":5030:5043  token.creator */\n      0x01\n      add\n      0x00\n      swap1\n      sload\n      swap1\n      0x0100\n      exp\n      swap1\n      div\n      0xffffffffffffffffffffffffffffffffffffffff\n      and\n        /* \"sc/src/SupplyChainTracker.sol\":5057:5062  token */\n      dup3\n        /* \"sc/src/SupplyChainTracker.sol\":5057:5067  token.name */\n      0x02\n      add\n        /* \"sc/src/SupplyChainTracker.sol\":5081:5086  token */\n      dup4\n        /* \"sc/src/SupplyChainTracker.sol\":5081:5098  token.totalSupply */\n      0x03\n      add\n      sload\n        /* \"sc/src/SupplyChainTracker.sol\":5112:5117  token */\n      dup5\n        /* \"sc/src/SupplyChainTracker.sol\":5112:5126  token.features */\n      0x04\n      add\n        /* \"sc/src/SupplyChainTracker.sol\":5140:5145  token */\n      dup6\n        /* \"sc/src/SupplyChainTracker.sol\":5140:5154  token.parentId */\n      0x05\n      add\n      sload\n        /* \"sc/src/SupplyChainTracker.sol\":5168:5173  token */\n      dup7\n        /* \"sc/src/SupplyChainTracker.sol\":5168:5185  token.dateCreated */\n      0x06\n      add\n      sload\n        /* \"sc/src/SupplyChainTracker.sol\":5199:5204  token */\n      dup8\n        /* \"sc/src/SupplyChainTracker.sol\":5199:5212  token.balance */\n      0x07\n      add\n        /* \"sc/src/SupplyChainTracker.sol\":5199:5224  token.balance[msg.sender] */\n      0x00\n        /* \"sc/src/SupplyChainTracker.sol\":5213:5223  msg.sender */\n      caller\n        /* \"sc/src/SupplyChainTracker.sol\":5199:5224  token.balance[msg.sender] */\n      0xffffffffffffffffffffffffffffffffffffffff\n      and\n      0xffffffffffffffffffffffffffffffffffffffff\n      and\n      dup2\n      mstore\n      0x20\n      add\n      swap1\n      dup2\n      mstore\n      0x20\n      add\n      0x00\n      keccak256\n      sload\n        /* \"sc/src/SupplyChainTracker.sol\":4987:5234  return (... */\n      dup6\n      dup1\n      sload\n      tag_331\n      swap1\n      tag_250\n      jump\t// in\n    tag_331:\n      dup1\n      0x1f\n      add\n      0x20\n      dup1\n      swap2\n      div\n      mul\n      0x20\n      add\n      mload(0x40)\n      swap1\n      dup2\n      add\n      0x40\n      mstore\n      dup1\n      swap3\n      swap2\n      swap1\n      dup2\n      dup2\n      mstore\n      0x20\n      add\n      dup3\n      dup1\n      sload\n      tag_332\n      swap1\n      tag_250\n      jump\t// in\n    tag_332:\n      dup1\n      iszero\n      tag_333\n      jumpi\n      dup1\n      0x1f\n      lt\n      tag_334\n      jumpi\n      0x0100\n      dup1\n      dup4\n      sload\n      div\n      mul\n      dup4\n      mstore\n      swap2\n      0x20\n      add\n      swap2\n      jump(tag_333)\n    tag_334:\n      dup3\n      add\n      swap2\n      swap1\n      0x00\n      mstore\n      keccak256(0x00, 0x20)\n      swap1\n    tag_335:\n      dup2\n      sload\n      dup2\n      mstore\n      swap1\n      0x01\n      add\n      swap1\n      0x20\n      add\n      dup1\n      dup4\n      gt\n      tag_335\n      jumpi\n      dup3\n      swap1\n      sub\n      0x1f\n      and\n      dup3\n      add\n      swap2\n    tag_333:\n      pop\n      pop\n      pop\n      pop\n      pop\n      swap6\n      pop\n      dup4\n      dup1\n      sload\n      tag_336\n      swap1\n      tag_250\n      jump\t// in\n    tag_336:\n      dup1\n      0x1f\n      add\n      0x20\n      dup1\n      swap2\n      div\n      mul\n      0x20\n      add\n      mload(0x40)\n      swap1\n      dup2\n      add\n      0x40\n      mstore\n      dup1\n      swap3\n      swap2\n      swap1\n      dup2\n      dup2\n      mstore\n      0x20\n      add\n      dup3\n      dup1\n      sload\n      tag_337\n      swap1\n      tag_250\n      jump\t// in\n    tag_337:\n      dup1\n      iszero\n      tag_338\n      jumpi\n      dup1\n      0x1f\n      lt\n      tag_339\n      jumpi\n      0x0100\n      dup1\n      dup4\n      sload\n      div\n      mul\n      dup4\n      mstore\n      swap2\n      0x20\n      add\n      swap2\n      jump(tag_338)\n    tag_339:\n      dup3\n      add\n      swap2\n      swap1\n      0x00\n      mstore\n      keccak256(0x00, 0x20)\n      swap1\n    tag_340:\n      dup2\n      sload\n      dup2\n      mstore\n      swap1\n      0x01\n      add\n      swap1\n      0x20\n      add\n      dup1\n      dup4\n      gt\n      tag_340\n      jumpi\n      dup3\n      swap1\n      sub\n      0x1f\n      and\n      dup3\n      add\n      swap2\n    tag_338:\n      pop\n      pop\n      pop\n      pop\n      pop\n      swap4\n      pop\n      swap9\n      pop\n      swap9\n      pop\n      swap9\n      pop\n      swap9\n      pop\n      swap9\n      pop\n      swap9\n      pop\n      swap9\n      pop\n      swap9\n      pop\n      pop\n        /* \"sc/src/SupplyChainTracker.sol\":4654:5241  function getToken(uint256 tokenId) public view returns (... */\n      swap2\n      swap4\n      swap6\n      swap8\n      pop\n      swap2\n      swap4\n      swap6\n      swap8\n      jump\t// out\n        /* \"sc/src/SupplyChainTracker.sol\":5247:5450  function getTokenBalance(uint256 tokenId, address user) public view returns (uint256) {... */\n    tag_106:\n        /* \"sc/src/SupplyChainTracker.sol\":5324:5331  uint256 */\n      0x00\n        /* \"sc/src/SupplyChainTracker.sol\":5361:5372  nextTokenId */\n      sload(0x01)\n        /* \"sc/src/SupplyChainTracker.sol\":5351:5358  tokenId */\n      dup4\n        /* \"sc/src/SupplyChainTracker.sol\":5351:5372  tokenId < nextTokenId */\n      lt\n        /* \"sc/src/SupplyChainTracker.sol\":5343:5397  require(tokenId < nextTokenId, \"Token does not exist\") */\n      tag_342\n      jumpi\n      mload(0x40)\n      0x08c379a000000000000000000000000000000000000000000000000000000000\n      dup2\n      mstore\n      0x04\n      add\n      tag_343\n      swap1\n      tag_135\n      jump\t// in\n    tag_343:\n      mload(0x40)\n      dup1\n      swap2\n      sub\n      swap1\n      revert\n    tag_342:\n        /* \"sc/src/SupplyChainTracker.sol\":5414:5420  tokens */\n      0x04\n        /* \"sc/src/SupplyChainTracker.sol\":5414:5429  tokens[tokenId] */\n      0x00\n        /* \"sc/src/SupplyChainTracker.sol\":5421:5428  tokenId */\n      dup5\n        /* \"sc/src/SupplyChainTracker.sol\":5414:5429  tokens[tokenId] */\n      dup2\n      mstore\n      0x20\n      add\n      swap1\n      dup2\n      mstore\n      0x20\n      add\n      0x00\n      keccak256\n        /* \"sc/src/SupplyChainTracker.sol\":5414:5437  tokens[tokenId].balance */\n      0x07\n      add\n        /* \"sc/src/SupplyChainTracker.sol\":5414:5443  tokens[tokenId].balance[user] */\n      0x00\n        /* \"sc/src/SupplyChainTracker.sol\":5438:5442  user */\n      dup4\n        /* \"sc/src/SupplyChainTracker.sol\":5414:5443  tokens[tokenId].balance[user] */\n      0xffffffffffffffffffffffffffffffffffffffff\n      and\n      0xffffffffffffffffffffffffffffffffffffffff\n      and\n      dup2\n      mstore\n      0x20\n      add\n      swap1\n      dup2\n      mstore\n      0x20\n      add\n      0x00\n      keccak256\n      sload\n        /* \"sc/src/SupplyChainTracker.sol\":5407:5443  return tokens[tokenId].balance[user] */\n      swap1\n      pop\n        /* \"sc/src/SupplyChainTracker.sol\":5247:5450  function getTokenBalance(uint256 tokenId, address user) public view returns (uint256) {... */\n      swap3\n      swap2\n      pop\n      pop\n      jump\t// out\n        /* \"sc/src/SupplyChainTracker.sol\":1448:1478  address public immutable admin */\n    tag_109:\n      immutable(\"0xb004fbd84afb38927636fa378c0a62a86a02b00862b6ff80fef4d6e948c0571d\")\n      dup2\n      jump\t// out\n        /* \"@openzeppelin/contracts/utils/ReentrancyGuard.sol\":2575:2882  function _nonReentrantBefore() private {... */\n    tag_124:\n        /* \"@openzeppelin/contracts/utils/ReentrancyGuard.sol\":1899:1900  2 */\n      0x02\n        /* \"@openzeppelin/contracts/utils/ReentrancyGuard.sol\":2702:2709  _status */\n      sload(0x00)\n        /* \"@openzeppelin/contracts/utils/ReentrancyGuard.sol\":2702:2720  _status == ENTERED */\n      sub\n        /* \"@openzeppelin/contracts/utils/ReentrancyGuard.sol\":2698:2784  if (_status == ENTERED) {... */\n      tag_345\n      jumpi\n        /* \"@openzeppelin/contracts/utils/ReentrancyGuard.sol\":2743:2773  ReentrancyGuardReentrantCall() */\n      mload(0x40)\n      0x3ee5aeb500000000000000000000000000000000000000000000000000000000\n      dup2\n      mstore\n      0x04\n      add\n      mload(0x40)\n      dup1\n      swap2\n      sub\n      swap1\n      revert\n        /* \"@openzeppelin/contracts/utils/ReentrancyGuard.sol\":2698:2784  if (_status == ENTERED) {... */\n    tag_345:\n        /* \"@openzeppelin/contracts/utils/ReentrancyGuard.sol\":1899:1900  2 */\n      0x02\n        /* \"@openzeppelin/contracts/utils/ReentrancyGuard.sol\":2858:2865  _status */\n      0x00\n        /* \"@openzeppelin/contracts/utils/ReentrancyGuard.sol\":2858:2875  _status = ENTERED */\n      dup2\n      swap1\n      sstore\n      pop\n        /* \"@openzeppelin/contracts/utils/ReentrancyGuard.sol\":2575:2882  function _nonReentrantBefore() private {... */\n      jump\t// out\n        /* \"sc/src/SupplyChainTracker.sol\":8131:8235  function _isConsumer(bytes32 role) internal pure returns (bool) {... */\n    tag_140:\n        /* \"sc/src/SupplyChainTracker.sol\":8189:8193  bool */\n      0x00\n        /* \"sc/src/SupplyChainTracker.sol\":657:678  keccak256(\"Consumer\") */\n      0xc0878b4b16a78e8085cba0ca02fc0924f1492924058d153153a3f286e0fd70ff\n        /* \"sc/src/SupplyChainTracker.sol\":8212:8216  role */\n      dup3\n        /* \"sc/src/SupplyChainTracker.sol\":8212:8228  role == CONSUMER */\n      eq\n        /* \"sc/src/SupplyChainTracker.sol\":8205:8228  return role == CONSUMER */\n      swap1\n      pop\n        /* \"sc/src/SupplyChainTracker.sol\":8131:8235  function _isConsumer(bytes32 role) internal pure returns (bool) {... */\n      swap2\n      swap1\n      pop\n      jump\t// out\n        /* \"sc/src/SupplyChainTracker.sol\":7831:8125  function _isNextRole(bytes32 fromRole, bytes32 toRole) internal pure returns (bool) {... */\n    tag_145:\n        /* \"sc/src/SupplyChainTracker.sol\":7909:7913  bool */\n      0x00\n        /* \"sc/src/SupplyChainTracker.sol\":470:491  keccak256(\"Producer\") */\n      0x95329f0f598032755f454b63034035528a2f09e00bb3dde055a4f8e3f7b11683\n        /* \"sc/src/SupplyChainTracker.sol\":7947:7955  fromRole */\n      dup4\n        /* \"sc/src/SupplyChainTracker.sol\":7947:7967  fromRole == PRODUCER */\n      eq\n        /* \"sc/src/SupplyChainTracker.sol\":7947:7988  fromRole == PRODUCER && toRole == FACTORY */\n      dup1\n      iszero\n      tag_348\n      jumpi\n      pop\n        /* \"sc/src/SupplyChainTracker.sol\":532:552  keccak256(\"Factory\") */\n      0x992f90ffb92c5ad86f1df6829115f18aaea41d6094dadc8955c35086081a7bb9\n        /* \"sc/src/SupplyChainTracker.sol\":7971:7977  toRole */\n      dup3\n        /* \"sc/src/SupplyChainTracker.sol\":7971:7988  toRole == FACTORY */\n      eq\n        /* \"sc/src/SupplyChainTracker.sol\":7947:7988  fromRole == PRODUCER && toRole == FACTORY */\n    tag_348:\n        /* \"sc/src/SupplyChainTracker.sol\":7946:8048  (fromRole == PRODUCER && toRole == FACTORY) ||... */\n      dup1\n      tag_349\n      jumpi\n      pop\n        /* \"sc/src/SupplyChainTracker.sol\":532:552  keccak256(\"Factory\") */\n      0x992f90ffb92c5ad86f1df6829115f18aaea41d6094dadc8955c35086081a7bb9\n        /* \"sc/src/SupplyChainTracker.sol\":8006:8014  fromRole */\n      dup4\n        /* \"sc/src/SupplyChainTracker.sol\":8006:8025  fromRole == FACTORY */\n      eq\n        /* \"sc/src/SupplyChainTracker.sol\":8006:8047  fromRole == FACTORY && toRole == RETAILER */\n      dup1\n      iszero\n      tag_350\n      jumpi\n      pop\n        /* \"sc/src/SupplyChainTracker.sol\":594:615  keccak256(\"Retailer\") */\n      0x1534e98f9dd33e3681193a0541f0c2e3d732d183dcdc630aac2b943280af42a0\n        /* \"sc/src/SupplyChainTracker.sol\":8029:8035  toRole */\n      dup3\n        /* \"sc/src/SupplyChainTracker.sol\":8029:8047  toRole == RETAILER */\n      eq\n        /* \"sc/src/SupplyChainTracker.sol\":8006:8047  fromRole == FACTORY && toRole == RETAILER */\n    tag_350:\n        /* \"sc/src/SupplyChainTracker.sol\":7946:8048  (fromRole == PRODUCER && toRole == FACTORY) ||... */\n    tag_349:\n        /* \"sc/src/SupplyChainTracker.sol\":7946:8108  (fromRole == PRODUCER && toRole == FACTORY) ||... */\n      dup1\n      tag_351\n      jumpi\n      pop\n        /* \"sc/src/SupplyChainTracker.sol\":594:615  keccak256(\"Retailer\") */\n      0x1534e98f9dd33e3681193a0541f0c2e3d732d183dcdc630aac2b943280af42a0\n        /* \"sc/src/SupplyChainTracker.sol\":8065:8073  fromRole */\n      dup4\n        /* \"sc/src/SupplyChainTracker.sol\":8065:8085  fromRole == RETAILER */\n      eq\n        /* \"sc/src/SupplyChainTracker.sol\":8065:8107  fromRole == RETAILER && toRole == CONSUMER */\n      dup1\n      iszero\n      tag_352\n      jumpi\n      pop\n        /* \"sc/src/SupplyChainTracker.sol\":657:678  keccak256(\"Consumer\") */\n      0xc0878b4b16a78e8085cba0ca02fc0924f1492924058d153153a3f286e0fd70ff\n        /* \"sc/src/SupplyChainTracker.sol\":8089:8095  toRole */\n      dup3\n        /* \"sc/src/SupplyChainTracker.sol\":8089:8107  toRole == CONSUMER */\n      eq\n        /* \"sc/src/SupplyChainTracker.sol\":8065:8107  fromRole == RETAILER && toRole == CONSUMER */\n    tag_352:\n        /* \"sc/src/SupplyChainTracker.sol\":7946:8108  (fromRole == PRODUCER && toRole == FACTORY) ||... */\n    tag_351:\n        /* \"sc/src/SupplyChainTracker.sol\":7925:8118  return (... */\n      swap1\n      pop\n        /* \"sc/src/SupplyChainTracker.sol\":7831:8125  function _isNextRole(bytes32 fromRole, bytes32 toRole) internal pure returns (bool) {... */\n      swap3\n      swap2\n      pop\n      pop\n      jump\t// out\n        /* \"@openzeppelin/contracts/utils/ReentrancyGuard.sol\":2888:3096  function _nonReentrantAfter() private {... */\n    tag_165:\n        /* \"@openzeppelin/contracts/utils/ReentrancyGuard.sol\":1857:1858  1 */\n      0x01\n        /* \"@openzeppelin/contracts/utils/ReentrancyGuard.sol\":3068:3075  _status */\n      0x00\n        /* \"@openzeppelin/contracts/utils/ReentrancyGuard.sol\":3068:3089  _status = NOT_ENTERED */\n      dup2\n      swap1\n      sstore\n      pop\n        /* \"@openzeppelin/contracts/utils/ReentrancyGuard.sol\":2888:3096  function _nonReentrantAfter() private {... */\n      jump\t// out\n    tag_284:\n      mload(0x40)\n      dup1\n      0x80\n      add\n      0x40\n      mstore\n      dup1\n      0x00\n      dup2\n      mstore\n      0x20\n      add\n      and(0xffffffffffffffffffffffffffffffffffffffff, 0x00)\n      dup2\n      mstore\n      0x20\n      add\n      0x00\n      dup2\n      mstore\n      0x20\n      add\n      0x00\n      0x03\n      dup2\n      gt\n      iszero\n      tag_354\n      jumpi\n      tag_355\n      tag_116\n      jump\t// in\n    tag_355:\n    tag_354:\n      dup2\n      mstore\n      pop\n      swap1\n      jump\t// out\n    tag_306:\n      mload(0x40)\n      dup1\n      0xe0\n      add\n      0x40\n      mstore\n      dup1\n      0x00\n      dup2\n      mstore\n      0x20\n      add\n      and(0xffffffffffffffffffffffffffffffffffffffff, 0x00)\n      dup2\n      mstore\n      0x20\n      add\n      and(0xffffffffffffffffffffffffffffffffffffffff, 0x00)\n      dup2\n      mstore\n      0x20\n      add\n      0x00\n      dup2\n      mstore\n      0x20\n      add\n      0x00\n      dup2\n      mstore\n      0x20\n      add\n      0x00\n      dup2\n      mstore\n      0x20\n      add\n      0x00\n      0x02\n      dup2\n      gt\n      iszero\n      tag_356\n      jumpi\n      tag_357\n      tag_116\n      jump\t// in\n    tag_357:\n    tag_356:\n      dup2\n      mstore\n      pop\n      swap1\n      jump\t// out\n        /* \"#utility.yul\":88:205   */\n    tag_359:\n        /* \"#utility.yul\":197:198   */\n      0x00\n        /* \"#utility.yul\":194:195   */\n      0x00\n        /* \"#utility.yul\":187:199   */\n      revert\n        /* \"#utility.yul\":211:328   */\n    tag_360:\n        /* \"#utility.yul\":320:321   */\n      0x00\n        /* \"#utility.yul\":317:318   */\n      0x00\n        /* \"#utility.yul\":310:322   */\n      revert\n        /* \"#utility.yul\":334:460   */\n    tag_361:\n        /* \"#utility.yul\":371:378   */\n      0x00\n        /* \"#utility.yul\":411:453   */\n      0xffffffffffffffffffffffffffffffffffffffff\n        /* \"#utility.yul\":404:409   */\n      dup3\n        /* \"#utility.yul\":400:454   */\n      and\n        /* \"#utility.yul\":389:454   */\n      swap1\n      pop\n        /* \"#utility.yul\":334:460   */\n      swap2\n      swap1\n      pop\n      jump\t// out\n        /* \"#utility.yul\":466:562   */\n    tag_362:\n        /* \"#utility.yul\":503:510   */\n      0x00\n        /* \"#utility.yul\":532:556   */\n      tag_462\n        /* \"#utility.yul\":550:555   */\n      dup3\n        /* \"#utility.yul\":532:556   */\n      tag_361\n      jump\t// in\n    tag_462:\n        /* \"#utility.yul\":521:556   */\n      swap1\n      pop\n        /* \"#utility.yul\":466:562   */\n      swap2\n      swap1\n      pop\n      jump\t// out\n        /* \"#utility.yul\":568:690   */\n    tag_363:\n        /* \"#utility.yul\":641:665   */\n      tag_464\n        /* \"#utility.yul\":659:664   */\n      dup2\n        /* \"#utility.yul\":641:665   */\n      tag_362\n      jump\t// in\n    tag_464:\n        /* \"#utility.yul\":634:639   */\n      dup2\n        /* \"#utility.yul\":631:666   */\n      eq\n        /* \"#utility.yul\":621:684   */\n      tag_465\n      jumpi\n        /* \"#utility.yul\":680:681   */\n      0x00\n        /* \"#utility.yul\":677:678   */\n      0x00\n        /* \"#utility.yul\":670:682   */\n      revert\n        /* \"#utility.yul\":621:684   */\n    tag_465:\n        /* \"#utility.yul\":568:690   */\n      pop\n      jump\t// out\n        /* \"#utility.yul\":696:835   */\n    tag_364:\n        /* \"#utility.yul\":742:747   */\n      0x00\n        /* \"#utility.yul\":780:786   */\n      dup2\n        /* \"#utility.yul\":767:787   */\n      calldataload\n        /* \"#utility.yul\":758:787   */\n      swap1\n      pop\n        /* \"#utility.yul\":796:829   */\n      tag_467\n        /* \"#utility.yul\":823:828   */\n      dup2\n        /* \"#utility.yul\":796:829   */\n      tag_363\n      jump\t// in\n    tag_467:\n        /* \"#utility.yul\":696:835   */\n      swap3\n      swap2\n      pop\n      pop\n      jump\t// out\n        /* \"#utility.yul\":841:918   */\n    tag_365:\n        /* \"#utility.yul\":878:885   */\n      0x00\n        /* \"#utility.yul\":907:912   */\n      dup2\n        /* \"#utility.yul\":896:912   */\n      swap1\n      pop\n        /* \"#utility.yul\":841:918   */\n      swap2\n      swap1\n      pop\n      jump\t// out\n        /* \"#utility.yul\":924:1046   */\n    tag_366:\n        /* \"#utility.yul\":997:1021   */\n      tag_470\n        /* \"#utility.yul\":1015:1020   */\n      dup2\n        /* \"#utility.yul\":997:1021   */\n      tag_365\n      jump\t// in\n    tag_470:\n        /* \"#utility.yul\":990:995   */\n      dup2\n        /* \"#utility.yul\":987:1022   */\n      eq\n        /* \"#utility.yul\":977:1040   */\n      tag_471\n      jumpi\n        /* \"#utility.yul\":1036:1037   */\n      0x00\n        /* \"#utility.yul\":1033:1034   */\n      0x00\n        /* \"#utility.yul\":1026:1038   */\n      revert\n        /* \"#utility.yul\":977:1040   */\n    tag_471:\n        /* \"#utility.yul\":924:1046   */\n      pop\n      jump\t// out\n        /* \"#utility.yul\":1052:1191   */\n    tag_367:\n        /* \"#utility.yul\":1098:1103   */\n      0x00\n        /* \"#utility.yul\":1136:1142   */\n      dup2\n        /* \"#utility.yul\":1123:1143   */\n      calldataload\n        /* \"#utility.yul\":1114:1143   */\n      swap1\n      pop\n        /* \"#utility.yul\":1152:1185   */\n      tag_473\n        /* \"#utility.yul\":1179:1184   */\n      dup2\n        /* \"#utility.yul\":1152:1185   */\n      tag_366\n      jump\t// in\n    tag_473:\n        /* \"#utility.yul\":1052:1191   */\n      swap3\n      swap2\n      pop\n      pop\n      jump\t// out\n        /* \"#utility.yul\":1197:1816   */\n    tag_28:\n        /* \"#utility.yul\":1274:1280   */\n      0x00\n        /* \"#utility.yul\":1282:1288   */\n      0x00\n        /* \"#utility.yul\":1290:1296   */\n      0x00\n        /* \"#utility.yul\":1339:1341   */\n      0x60\n        /* \"#utility.yul\":1327:1336   */\n      dup5\n        /* \"#utility.yul\":1318:1325   */\n      dup7\n        /* \"#utility.yul\":1314:1337   */\n      sub\n        /* \"#utility.yul\":1310:1342   */\n      slt\n        /* \"#utility.yul\":1307:1426   */\n      iszero\n      tag_475\n      jumpi\n        /* \"#utility.yul\":1345:1424   */\n      tag_476\n      tag_359\n      jump\t// in\n    tag_476:\n        /* \"#utility.yul\":1307:1426   */\n    tag_475:\n        /* \"#utility.yul\":1465:1466   */\n      0x00\n        /* \"#utility.yul\":1490:1543   */\n      tag_477\n        /* \"#utility.yul\":1535:1542   */\n      dup7\n        /* \"#utility.yul\":1526:1532   */\n      dup3\n        /* \"#utility.yul\":1515:1524   */\n      dup8\n        /* \"#utility.yul\":1511:1533   */\n      add\n        /* \"#utility.yul\":1490:1543   */\n      tag_364\n      jump\t// in\n    tag_477:\n        /* \"#utility.yul\":1480:1543   */\n      swap4\n      pop\n        /* \"#utility.yul\":1436:1553   */\n      pop\n        /* \"#utility.yul\":1592:1594   */\n      0x20\n        /* \"#utility.yul\":1618:1671   */\n      tag_478\n        /* \"#utility.yul\":1663:1670   */\n      dup7\n        /* \"#utility.yul\":1654:1660   */\n      dup3\n        /* \"#utility.yul\":1643:1652   */\n      dup8\n        /* \"#utility.yul\":1639:1661   */\n      add\n        /* \"#utility.yul\":1618:1671   */\n      tag_367\n      jump\t// in\n    tag_478:\n        /* \"#utility.yul\":1608:1671   */\n      swap3\n      pop\n        /* \"#utility.yul\":1563:1681   */\n      pop\n        /* \"#utility.yul\":1720:1722   */\n      0x40\n        /* \"#utility.yul\":1746:1799   */\n      tag_479\n        /* \"#utility.yul\":1791:1798   */\n      dup7\n        /* \"#utility.yul\":1782:1788   */\n      dup3\n        /* \"#utility.yul\":1771:1780   */\n      dup8\n        /* \"#utility.yul\":1767:1789   */\n      add\n        /* \"#utility.yul\":1746:1799   */\n      tag_367\n      jump\t// in\n    tag_479:\n        /* \"#utility.yul\":1736:1799   */\n      swap2\n      pop\n        /* \"#utility.yul\":1691:1809   */\n      pop\n        /* \"#utility.yul\":1197:1816   */\n      swap3\n      pop\n      swap3\n      pop\n      swap3\n      jump\t// out\n        /* \"#utility.yul\":1822:2151   */\n    tag_32:\n        /* \"#utility.yul\":1881:1887   */\n      0x00\n        /* \"#utility.yul\":1930:1932   */\n      0x20\n        /* \"#utility.yul\":1918:1927   */\n      dup3\n        /* \"#utility.yul\":1909:1916   */\n      dup5\n        /* \"#utility.yul\":1905:1928   */\n      sub\n        /* \"#utility.yul\":1901:1933   */\n      slt\n        /* \"#utility.yul\":1898:2017   */\n      iszero\n      tag_481\n      jumpi\n        /* \"#utility.yul\":1936:2015   */\n      tag_482\n      tag_359\n      jump\t// in\n    tag_482:\n        /* \"#utility.yul\":1898:2017   */\n    tag_481:\n        /* \"#utility.yul\":2056:2057   */\n      0x00\n        /* \"#utility.yul\":2081:2134   */\n      tag_483\n        /* \"#utility.yul\":2126:2133   */\n      dup5\n        /* \"#utility.yul\":2117:2123   */\n      dup3\n        /* \"#utility.yul\":2106:2115   */\n      dup6\n        /* \"#utility.yul\":2102:2124   */\n      add\n        /* \"#utility.yul\":2081:2134   */\n      tag_367\n      jump\t// in\n    tag_483:\n        /* \"#utility.yul\":2071:2134   */\n      swap2\n      pop\n        /* \"#utility.yul\":2027:2144   */\n      pop\n        /* \"#utility.yul\":1822:2151   */\n      swap3\n      swap2\n      pop\n      pop\n      jump\t// out\n        /* \"#utility.yul\":2157:2486   */\n    tag_39:\n        /* \"#utility.yul\":2216:2222   */\n      0x00\n        /* \"#utility.yul\":2265:2267   */\n      0x20\n        /* \"#utility.yul\":2253:2262   */\n      dup3\n        /* \"#utility.yul\":2244:2251   */\n      dup5\n        /* \"#utility.yul\":2240:2263   */\n      sub\n        /* \"#utility.yul\":2236:2268   */\n      slt\n        /* \"#utility.yul\":2233:2352   */\n      iszero\n      tag_485\n      jumpi\n        /* \"#utility.yul\":2271:2350   */\n      tag_486\n      tag_359\n      jump\t// in\n    tag_486:\n        /* \"#utility.yul\":2233:2352   */\n    tag_485:\n        /* \"#utility.yul\":2391:2392   */\n      0x00\n        /* \"#utility.yul\":2416:2469   */\n      tag_487\n        /* \"#utility.yul\":2461:2468   */\n      dup5\n        /* \"#utility.yul\":2452:2458   */\n      dup3\n        /* \"#utility.yul\":2441:2450   */\n      dup6\n        /* \"#utility.yul\":2437:2459   */\n      add\n        /* \"#utility.yul\":2416:2469   */\n      tag_364\n      jump\t// in\n    tag_487:\n        /* \"#utility.yul\":2406:2469   */\n      swap2\n      pop\n        /* \"#utility.yul\":2362:2479   */\n      pop\n        /* \"#utility.yul\":2157:2486   */\n      swap3\n      swap2\n      pop\n      pop\n      jump\t// out\n        /* \"#utility.yul\":2492:2606   */\n    tag_368:\n        /* \"#utility.yul\":2559:2565   */\n      0x00\n        /* \"#utility.yul\":2593:2598   */\n      dup2\n        /* \"#utility.yul\":2587:2599   */\n      mload\n        /* \"#utility.yul\":2577:2599   */\n      swap1\n      pop\n        /* \"#utility.yul\":2492:2606   */\n      swap2\n      swap1\n      pop\n      jump\t// out\n        /* \"#utility.yul\":2612:2796   */\n    tag_369:\n        /* \"#utility.yul\":2711:2722   */\n      0x00\n        /* \"#utility.yul\":2745:2751   */\n      dup3\n        /* \"#utility.yul\":2740:2743   */\n      dup3\n        /* \"#utility.yul\":2733:2752   */\n      mstore\n        /* \"#utility.yul\":2785:2789   */\n      0x20\n        /* \"#utility.yul\":2780:2783   */\n      dup3\n        /* \"#utility.yul\":2776:2790   */\n      add\n        /* \"#utility.yul\":2761:2790   */\n      swap1\n      pop\n        /* \"#utility.yul\":2612:2796   */\n      swap3\n      swap2\n      pop\n      pop\n      jump\t// out\n        /* \"#utility.yul\":2802:2934   */\n    tag_370:\n        /* \"#utility.yul\":2869:2873   */\n      0x00\n        /* \"#utility.yul\":2892:2895   */\n      dup2\n        /* \"#utility.yul\":2884:2895   */\n      swap1\n      pop\n        /* \"#utility.yul\":2922:2926   */\n      0x20\n        /* \"#utility.yul\":2917:2920   */\n      dup3\n        /* \"#utility.yul\":2913:2927   */\n      add\n        /* \"#utility.yul\":2905:2927   */\n      swap1\n      pop\n        /* \"#utility.yul\":2802:2934   */\n      swap2\n      swap1\n      pop\n      jump\t// out\n        /* \"#utility.yul\":2940:3048   */\n    tag_371:\n        /* \"#utility.yul\":3017:3041   */\n      tag_492\n        /* \"#utility.yul\":3035:3040   */\n      dup2\n        /* \"#utility.yul\":3017:3041   */\n      tag_365\n      jump\t// in\n    tag_492:\n        /* \"#utility.yul\":3012:3015   */\n      dup3\n        /* \"#utility.yul\":3005:3042   */\n      mstore\n        /* \"#utility.yul\":2940:3048   */\n      pop\n      pop\n      jump\t// out\n        /* \"#utility.yul\":3054:3233   */\n    tag_372:\n        /* \"#utility.yul\":3123:3133   */\n      0x00\n        /* \"#utility.yul\":3144:3190   */\n      tag_494\n        /* \"#utility.yul\":3186:3189   */\n      dup4\n        /* \"#utility.yul\":3178:3184   */\n      dup4\n        /* \"#utility.yul\":3144:3190   */\n      tag_371\n      jump\t// in\n    tag_494:\n        /* \"#utility.yul\":3222:3226   */\n      0x20\n        /* \"#utility.yul\":3217:3220   */\n      dup4\n        /* \"#utility.yul\":3213:3227   */\n      add\n        /* \"#utility.yul\":3199:3227   */\n      swap1\n      pop\n        /* \"#utility.yul\":3054:3233   */\n      swap3\n      swap2\n      pop\n      pop\n      jump\t// out\n        /* \"#utility.yul\":3239:3352   */\n    tag_373:\n        /* \"#utility.yul\":3309:3313   */\n      0x00\n        /* \"#utility.yul\":3341:3345   */\n      0x20\n        /* \"#utility.yul\":3336:3339   */\n      dup3\n        /* \"#utility.yul\":3332:3346   */\n      add\n        /* \"#utility.yul\":3324:3346   */\n      swap1\n      pop\n        /* \"#utility.yul\":3239:3352   */\n      swap2\n      swap1\n      pop\n      jump\t// out\n        /* \"#utility.yul\":3388:4120   */\n    tag_374:\n        /* \"#utility.yul\":3507:3510   */\n      0x00\n        /* \"#utility.yul\":3536:3590   */\n      tag_497\n        /* \"#utility.yul\":3584:3589   */\n      dup3\n        /* \"#utility.yul\":3536:3590   */\n      tag_368\n      jump\t// in\n    tag_497:\n        /* \"#utility.yul\":3606:3692   */\n      tag_498\n        /* \"#utility.yul\":3685:3691   */\n      dup2\n        /* \"#utility.yul\":3680:3683   */\n      dup6\n        /* \"#utility.yul\":3606:3692   */\n      tag_369\n      jump\t// in\n    tag_498:\n        /* \"#utility.yul\":3599:3692   */\n      swap4\n      pop\n        /* \"#utility.yul\":3716:3772   */\n      tag_499\n        /* \"#utility.yul\":3766:3771   */\n      dup4\n        /* \"#utility.yul\":3716:3772   */\n      tag_370\n      jump\t// in\n    tag_499:\n        /* \"#utility.yul\":3795:3802   */\n      dup1\n        /* \"#utility.yul\":3826:3827   */\n      0x00\n        /* \"#utility.yul\":3811:4095   */\n    tag_500:\n        /* \"#utility.yul\":3836:3842   */\n      dup4\n        /* \"#utility.yul\":3833:3834   */\n      dup2\n        /* \"#utility.yul\":3830:3843   */\n      lt\n        /* \"#utility.yul\":3811:4095   */\n      iszero\n      tag_502\n      jumpi\n        /* \"#utility.yul\":3912:3918   */\n      dup2\n        /* \"#utility.yul\":3906:3919   */\n      mload\n        /* \"#utility.yul\":3939:4002   */\n      tag_503\n        /* \"#utility.yul\":3998:4001   */\n      dup9\n        /* \"#utility.yul\":3983:3996   */\n      dup3\n        /* \"#utility.yul\":3939:4002   */\n      tag_372\n      jump\t// in\n    tag_503:\n        /* \"#utility.yul\":3932:4002   */\n      swap8\n      pop\n        /* \"#utility.yul\":4025:4085   */\n      tag_504\n        /* \"#utility.yul\":4078:4084   */\n      dup4\n        /* \"#utility.yul\":4025:4085   */\n      tag_373\n      jump\t// in\n    tag_504:\n        /* \"#utility.yul\":4015:4085   */\n      swap3\n      pop\n        /* \"#utility.yul\":3871:4095   */\n      pop\n        /* \"#utility.yul\":3858:3859   */\n      0x01\n        /* \"#utility.yul\":3855:3856   */\n      dup2\n        /* \"#utility.yul\":3851:3860   */\n      add\n        /* \"#utility.yul\":3846:3860   */\n      swap1\n      pop\n        /* \"#utility.yul\":3811:4095   */\n      jump(tag_500)\n    tag_502:\n        /* \"#utility.yul\":3815:3829   */\n      pop\n        /* \"#utility.yul\":4111:4114   */\n      dup6\n        /* \"#utility.yul\":4104:4114   */\n      swap4\n      pop\n        /* \"#utility.yul\":3512:4120   */\n      pop\n      pop\n      pop\n        /* \"#utility.yul\":3388:4120   */\n      swap3\n      swap2\n      pop\n      pop\n      jump\t// out\n        /* \"#utility.yul\":4126:4499   */\n    tag_42:\n        /* \"#utility.yul\":4269:4273   */\n      0x00\n        /* \"#utility.yul\":4307:4309   */\n      0x20\n        /* \"#utility.yul\":4296:4305   */\n      dup3\n        /* \"#utility.yul\":4292:4310   */\n      add\n        /* \"#utility.yul\":4284:4310   */\n      swap1\n      pop\n        /* \"#utility.yul\":4356:4365   */\n      dup2\n        /* \"#utility.yul\":4350:4354   */\n      dup2\n        /* \"#utility.yul\":4346:4366   */\n      sub\n        /* \"#utility.yul\":4342:4343   */\n      0x00\n        /* \"#utility.yul\":4331:4340   */\n      dup4\n        /* \"#utility.yul\":4327:4344   */\n      add\n        /* \"#utility.yul\":4320:4367   */\n      mstore\n        /* \"#utility.yul\":4384:4492   */\n      tag_506\n        /* \"#utility.yul\":4487:4491   */\n      dup2\n        /* \"#utility.yul\":4478:4484   */\n      dup5\n        /* \"#utility.yul\":4384:4492   */\n      tag_374\n      jump\t// in\n    tag_506:\n        /* \"#utility.yul\":4376:4492   */\n      swap1\n      pop\n        /* \"#utility.yul\":4126:4499   */\n      swap3\n      swap2\n      pop\n      pop\n      jump\t// out\n        /* \"#utility.yul\":4505:4623   */\n    tag_375:\n        /* \"#utility.yul\":4592:4616   */\n      tag_508\n        /* \"#utility.yul\":4610:4615   */\n      dup2\n        /* \"#utility.yul\":4592:4616   */\n      tag_365\n      jump\t// in\n    tag_508:\n        /* \"#utility.yul\":4587:4590   */\n      dup3\n        /* \"#utility.yul\":4580:4617   */\n      mstore\n        /* \"#utility.yul\":4505:4623   */\n      pop\n      pop\n      jump\t// out\n        /* \"#utility.yul\":4629:4747   */\n    tag_376:\n        /* \"#utility.yul\":4716:4740   */\n      tag_510\n        /* \"#utility.yul\":4734:4739   */\n      dup2\n        /* \"#utility.yul\":4716:4740   */\n      tag_362\n      jump\t// in\n    tag_510:\n        /* \"#utility.yul\":4711:4714   */\n      dup3\n        /* \"#utility.yul\":4704:4741   */\n      mstore\n        /* \"#utility.yul\":4629:4747   */\n      pop\n      pop\n      jump\t// out\n        /* \"#utility.yul\":4753:4830   */\n    tag_377:\n        /* \"#utility.yul\":4790:4797   */\n      0x00\n        /* \"#utility.yul\":4819:4824   */\n      dup2\n        /* \"#utility.yul\":4808:4824   */\n      swap1\n      pop\n        /* \"#utility.yul\":4753:4830   */\n      swap2\n      swap1\n      pop\n      jump\t// out\n        /* \"#utility.yul\":4836:4954   */\n    tag_378:\n        /* \"#utility.yul\":4923:4947   */\n      tag_513\n        /* \"#utility.yul\":4941:4946   */\n      dup2\n        /* \"#utility.yul\":4923:4947   */\n      tag_377\n      jump\t// in\n    tag_513:\n        /* \"#utility.yul\":4918:4921   */\n      dup3\n        /* \"#utility.yul\":4911:4948   */\n      mstore\n        /* \"#utility.yul\":4836:4954   */\n      pop\n      pop\n      jump\t// out\n        /* \"#utility.yul\":4960:5140   */\n    tag_116:\n        /* \"#utility.yul\":5008:5085   */\n      0x4e487b7100000000000000000000000000000000000000000000000000000000\n        /* \"#utility.yul\":5005:5006   */\n      0x00\n        /* \"#utility.yul\":4998:5086   */\n      mstore\n        /* \"#utility.yul\":5105:5109   */\n      0x21\n        /* \"#utility.yul\":5102:5103   */\n      0x04\n        /* \"#utility.yul\":5095:5110   */\n      mstore\n        /* \"#utility.yul\":5129:5133   */\n      0x24\n        /* \"#utility.yul\":5126:5127   */\n      0x00\n        /* \"#utility.yul\":5119:5134   */\n      revert\n        /* \"#utility.yul\":5146:5264   */\n    tag_379:\n        /* \"#utility.yul\":5232:5233   */\n      0x04\n        /* \"#utility.yul\":5225:5230   */\n      dup2\n        /* \"#utility.yul\":5222:5234   */\n      lt\n        /* \"#utility.yul\":5212:5258   */\n      tag_516\n      jumpi\n        /* \"#utility.yul\":5238:5256   */\n      tag_517\n      tag_116\n      jump\t// in\n    tag_517:\n        /* \"#utility.yul\":5212:5258   */\n    tag_516:\n        /* \"#utility.yul\":5146:5264   */\n      pop\n      jump\t// out\n        /* \"#utility.yul\":5270:5407   */\n    tag_380:\n        /* \"#utility.yul\":5320:5327   */\n      0x00\n        /* \"#utility.yul\":5349:5354   */\n      dup2\n        /* \"#utility.yul\":5338:5354   */\n      swap1\n      pop\n        /* \"#utility.yul\":5355:5401   */\n      tag_519\n        /* \"#utility.yul\":5395:5400   */\n      dup3\n        /* \"#utility.yul\":5355:5401   */\n      tag_379\n      jump\t// in\n    tag_519:\n        /* \"#utility.yul\":5270:5407   */\n      swap2\n      swap1\n      pop\n      jump\t// out\n        /* \"#utility.yul\":5413:5550   */\n    tag_381:\n        /* \"#utility.yul\":5474:5483   */\n      0x00\n        /* \"#utility.yul\":5507:5544   */\n      tag_521\n        /* \"#utility.yul\":5538:5543   */\n      dup3\n        /* \"#utility.yul\":5507:5544   */\n      tag_380\n      jump\t// in\n    tag_521:\n        /* \"#utility.yul\":5494:5544   */\n      swap1\n      pop\n        /* \"#utility.yul\":5413:5550   */\n      swap2\n      swap1\n      pop\n      jump\t// out\n        /* \"#utility.yul\":5556:5709   */\n    tag_382:\n        /* \"#utility.yul\":5654:5702   */\n      tag_523\n        /* \"#utility.yul\":5696:5701   */\n      dup2\n        /* \"#utility.yul\":5654:5702   */\n      tag_381\n      jump\t// in\n    tag_523:\n        /* \"#utility.yul\":5649:5652   */\n      dup3\n        /* \"#utility.yul\":5642:5703   */\n      mstore\n        /* \"#utility.yul\":5556:5709   */\n      pop\n      pop\n      jump\t// out\n        /* \"#utility.yul\":5715:6290   */\n    tag_47:\n        /* \"#utility.yul\":5903:5907   */\n      0x00\n        /* \"#utility.yul\":5941:5944   */\n      0x80\n        /* \"#utility.yul\":5930:5939   */\n      dup3\n        /* \"#utility.yul\":5926:5945   */\n      add\n        /* \"#utility.yul\":5918:5945   */\n      swap1\n      pop\n        /* \"#utility.yul\":5955:6026   */\n      tag_525\n        /* \"#utility.yul\":6023:6024   */\n      0x00\n        /* \"#utility.yul\":6012:6021   */\n      dup4\n        /* \"#utility.yul\":6008:6025   */\n      add\n        /* \"#utility.yul\":5999:6005   */\n      dup8\n        /* \"#utility.yul\":5955:6026   */\n      tag_375\n      jump\t// in\n    tag_525:\n        /* \"#utility.yul\":6036:6108   */\n      tag_526\n        /* \"#utility.yul\":6104:6106   */\n      0x20\n        /* \"#utility.yul\":6093:6102   */\n      dup4\n        /* \"#utility.yul\":6089:6107   */\n      add\n        /* \"#utility.yul\":6080:6086   */\n      dup7\n        /* \"#utility.yul\":6036:6108   */\n      tag_376\n      jump\t// in\n    tag_526:\n        /* \"#utility.yul\":6118:6190   */\n      tag_527\n        /* \"#utility.yul\":6186:6188   */\n      0x40\n        /* \"#utility.yul\":6175:6184   */\n      dup4\n        /* \"#utility.yul\":6171:6189   */\n      add\n        /* \"#utility.yul\":6162:6168   */\n      dup6\n        /* \"#utility.yul\":6118:6190   */\n      tag_378\n      jump\t// in\n    tag_527:\n        /* \"#utility.yul\":6200:6283   */\n      tag_528\n        /* \"#utility.yul\":6279:6281   */\n      0x60\n        /* \"#utility.yul\":6268:6277   */\n      dup4\n        /* \"#utility.yul\":6264:6282   */\n      add\n        /* \"#utility.yul\":6255:6261   */\n      dup5\n        /* \"#utility.yul\":6200:6283   */\n      tag_382\n      jump\t// in\n    tag_528:\n        /* \"#utility.yul\":5715:6290   */\n      swap6\n      swap5\n      pop\n      pop\n      pop\n      pop\n      pop\n      jump\t// out\n        /* \"#utility.yul\":6296:6418   */\n    tag_383:\n        /* \"#utility.yul\":6369:6393   */\n      tag_530\n        /* \"#utility.yul\":6387:6392   */\n      dup2\n        /* \"#utility.yul\":6369:6393   */\n      tag_377\n      jump\t// in\n    tag_530:\n        /* \"#utility.yul\":6362:6367   */\n      dup2\n        /* \"#utility.yul\":6359:6394   */\n      eq\n        /* \"#utility.yul\":6349:6412   */\n      tag_531\n      jumpi\n        /* \"#utility.yul\":6408:6409   */\n      0x00\n        /* \"#utility.yul\":6405:6406   */\n      0x00\n        /* \"#utility.yul\":6398:6410   */\n      revert\n        /* \"#utility.yul\":6349:6412   */\n    tag_531:\n        /* \"#utility.yul\":6296:6418   */\n      pop\n      jump\t// out\n        /* \"#utility.yul\":6424:6563   */\n    tag_384:\n        /* \"#utility.yul\":6470:6475   */\n      0x00\n        /* \"#utility.yul\":6508:6514   */\n      dup2\n        /* \"#utility.yul\":6495:6515   */\n      calldataload\n        /* \"#utility.yul\":6486:6515   */\n      swap1\n      pop\n        /* \"#utility.yul\":6524:6557   */\n      tag_533\n        /* \"#utility.yul\":6551:6556   */\n      dup2\n        /* \"#utility.yul\":6524:6557   */\n      tag_383\n      jump\t// in\n    tag_533:\n        /* \"#utility.yul\":6424:6563   */\n      swap3\n      swap2\n      pop\n      pop\n      jump\t// out\n        /* \"#utility.yul\":6569:6898   */\n    tag_50:\n        /* \"#utility.yul\":6628:6634   */\n      0x00\n        /* \"#utility.yul\":6677:6679   */\n      0x20\n        /* \"#utility.yul\":6665:6674   */\n      dup3\n        /* \"#utility.yul\":6656:6663   */\n      dup5\n        /* \"#utility.yul\":6652:6675   */\n      sub\n        /* \"#utility.yul\":6648:6680   */\n      slt\n        /* \"#utility.yul\":6645:6764   */\n      iszero\n      tag_535\n      jumpi\n        /* \"#utility.yul\":6683:6762   */\n      tag_536\n      tag_359\n      jump\t// in\n    tag_536:\n        /* \"#utility.yul\":6645:6764   */\n    tag_535:\n        /* \"#utility.yul\":6803:6804   */\n      0x00\n        /* \"#utility.yul\":6828:6881   */\n      tag_537\n        /* \"#utility.yul\":6873:6880   */\n      dup5\n        /* \"#utility.yul\":6864:6870   */\n      dup3\n        /* \"#utility.yul\":6853:6862   */\n      dup6\n        /* \"#utility.yul\":6849:6871   */\n      add\n        /* \"#utility.yul\":6828:6881   */\n      tag_384\n      jump\t// in\n    tag_537:\n        /* \"#utility.yul\":6818:6881   */\n      swap2\n      pop\n        /* \"#utility.yul\":6774:6891   */\n      pop\n        /* \"#utility.yul\":6569:6898   */\n      swap3\n      swap2\n      pop\n      pop\n      jump\t// out\n        /* \"#utility.yul\":6904:7003   */\n    tag_385:\n        /* \"#utility.yul\":6956:6962   */\n      0x00\n        /* \"#utility.yul\":6990:6995   */\n      dup2\n        /* \"#utility.yul\":6984:6996   */\n      mload\n        /* \"#utility.yul\":6974:6996   */\n      swap1\n      pop\n        /* \"#utility.yul\":6904:7003   */\n      swap2\n      swap1\n      pop\n      jump\t// out\n        /* \"#utility.yul\":7009:7178   */\n    tag_386:\n        /* \"#utility.yul\":7093:7104   */\n      0x00\n        /* \"#utility.yul\":7127:7133   */\n      dup3\n        /* \"#utility.yul\":7122:7125   */\n      dup3\n        /* \"#utility.yul\":7115:7134   */\n      mstore\n        /* \"#utility.yul\":7167:7171   */\n      0x20\n        /* \"#utility.yul\":7162:7165   */\n      dup3\n        /* \"#utility.yul\":7158:7172   */\n      add\n        /* \"#utility.yul\":7143:7172   */\n      swap1\n      pop\n        /* \"#utility.yul\":7009:7178   */\n      swap3\n      swap2\n      pop\n      pop\n      jump\t// out\n        /* \"#utility.yul\":7184:7323   */\n    tag_387:\n        /* \"#utility.yul\":7273:7279   */\n      dup3\n        /* \"#utility.yul\":7268:7271   */\n      dup2\n        /* \"#utility.yul\":7263:7266   */\n      dup4\n        /* \"#utility.yul\":7257:7280   */\n      mcopy\n        /* \"#utility.yul\":7314:7315   */\n      0x00\n        /* \"#utility.yul\":7305:7311   */\n      dup4\n        /* \"#utility.yul\":7300:7303   */\n      dup4\n        /* \"#utility.yul\":7296:7312   */\n      add\n        /* \"#utility.yul\":7289:7316   */\n      mstore\n        /* \"#utility.yul\":7184:7323   */\n      pop\n      pop\n      pop\n      jump\t// out\n        /* \"#utility.yul\":7329:7431   */\n    tag_388:\n        /* \"#utility.yul\":7370:7376   */\n      0x00\n        /* \"#utility.yul\":7421:7423   */\n      0x1f\n        /* \"#utility.yul\":7417:7424   */\n      not\n        /* \"#utility.yul\":7412:7414   */\n      0x1f\n        /* \"#utility.yul\":7405:7410   */\n      dup4\n        /* \"#utility.yul\":7401:7415   */\n      add\n        /* \"#utility.yul\":7397:7425   */\n      and\n        /* \"#utility.yul\":7387:7425   */\n      swap1\n      pop\n        /* \"#utility.yul\":7329:7431   */\n      swap2\n      swap1\n      pop\n      jump\t// out\n        /* \"#utility.yul\":7437:7814   */\n    tag_389:\n        /* \"#utility.yul\":7525:7528   */\n      0x00\n        /* \"#utility.yul\":7553:7592   */\n      tag_543\n        /* \"#utility.yul\":7586:7591   */\n      dup3\n        /* \"#utility.yul\":7553:7592   */\n      tag_385\n      jump\t// in\n    tag_543:\n        /* \"#utility.yul\":7608:7679   */\n      tag_544\n        /* \"#utility.yul\":7672:7678   */\n      dup2\n        /* \"#utility.yul\":7667:7670   */\n      dup6\n        /* \"#utility.yul\":7608:7679   */\n      tag_386\n      jump\t// in\n    tag_544:\n        /* \"#utility.yul\":7601:7679   */\n      swap4\n      pop\n        /* \"#utility.yul\":7688:7753   */\n      tag_545\n        /* \"#utility.yul\":7746:7752   */\n      dup2\n        /* \"#utility.yul\":7741:7744   */\n      dup6\n        /* \"#utility.yul\":7734:7738   */\n      0x20\n        /* \"#utility.yul\":7727:7732   */\n      dup7\n        /* \"#utility.yul\":7723:7739   */\n      add\n        /* \"#utility.yul\":7688:7753   */\n      tag_387\n      jump\t// in\n    tag_545:\n        /* \"#utility.yul\":7778:7807   */\n      tag_546\n        /* \"#utility.yul\":7800:7806   */\n      dup2\n        /* \"#utility.yul\":7778:7807   */\n      tag_388\n      jump\t// in\n    tag_546:\n        /* \"#utility.yul\":7773:7776   */\n      dup5\n        /* \"#utility.yul\":7769:7808   */\n      add\n        /* \"#utility.yul\":7762:7808   */\n      swap2\n      pop\n        /* \"#utility.yul\":7529:7814   */\n      pop\n        /* \"#utility.yul\":7437:7814   */\n      swap3\n      swap2\n      pop\n      pop\n      jump\t// out\n        /* \"#utility.yul\":7820:8888   */\n    tag_56:\n        /* \"#utility.yul\":8121:8125   */\n      0x00\n        /* \"#utility.yul\":8159:8162   */\n      0xe0\n        /* \"#utility.yul\":8148:8157   */\n      dup3\n        /* \"#utility.yul\":8144:8163   */\n      add\n        /* \"#utility.yul\":8136:8163   */\n      swap1\n      pop\n        /* \"#utility.yul\":8173:8244   */\n      tag_548\n        /* \"#utility.yul\":8241:8242   */\n      0x00\n        /* \"#utility.yul\":8230:8239   */\n      dup4\n        /* \"#utility.yul\":8226:8243   */\n      add\n        /* \"#utility.yul\":8217:8223   */\n      dup11\n        /* \"#utility.yul\":8173:8244   */\n      tag_375\n      jump\t// in\n    tag_548:\n        /* \"#utility.yul\":8254:8326   */\n      tag_549\n        /* \"#utility.yul\":8322:8324   */\n      0x20\n        /* \"#utility.yul\":8311:8320   */\n      dup4\n        /* \"#utility.yul\":8307:8325   */\n      add\n        /* \"#utility.yul\":8298:8304   */\n      dup10\n        /* \"#utility.yul\":8254:8326   */\n      tag_376\n      jump\t// in\n    tag_549:\n        /* \"#utility.yul\":8373:8382   */\n      dup2\n        /* \"#utility.yul\":8367:8371   */\n      dup2\n        /* \"#utility.yul\":8363:8383   */\n      sub\n        /* \"#utility.yul\":8358:8360   */\n      0x40\n        /* \"#utility.yul\":8347:8356   */\n      dup4\n        /* \"#utility.yul\":8343:8361   */\n      add\n        /* \"#utility.yul\":8336:8384   */\n      mstore\n        /* \"#utility.yul\":8401:8479   */\n      tag_550\n        /* \"#utility.yul\":8474:8478   */\n      dup2\n        /* \"#utility.yul\":8465:8471   */\n      dup9\n        /* \"#utility.yul\":8401:8479   */\n      tag_389\n      jump\t// in\n    tag_550:\n        /* \"#utility.yul\":8393:8479   */\n      swap1\n      pop\n        /* \"#utility.yul\":8489:8561   */\n      tag_551\n        /* \"#utility.yul\":8557:8559   */\n      0x60\n        /* \"#utility.yul\":8546:8555   */\n      dup4\n        /* \"#utility.yul\":8542:8560   */\n      add\n        /* \"#utility.yul\":8533:8539   */\n      dup8\n        /* \"#utility.yul\":8489:8561   */\n      tag_375\n      jump\t// in\n    tag_551:\n        /* \"#utility.yul\":8609:8618   */\n      dup2\n        /* \"#utility.yul\":8603:8607   */\n      dup2\n        /* \"#utility.yul\":8599:8619   */\n      sub\n        /* \"#utility.yul\":8593:8596   */\n      0x80\n        /* \"#utility.yul\":8582:8591   */\n      dup4\n        /* \"#utility.yul\":8578:8597   */\n      add\n        /* \"#utility.yul\":8571:8620   */\n      mstore\n        /* \"#utility.yul\":8637:8715   */\n      tag_552\n        /* \"#utility.yul\":8710:8714   */\n      dup2\n        /* \"#utility.yul\":8701:8707   */\n      dup7\n        /* \"#utility.yul\":8637:8715   */\n      tag_389\n      jump\t// in\n    tag_552:\n        /* \"#utility.yul\":8629:8715   */\n      swap1\n      pop\n        /* \"#utility.yul\":8725:8798   */\n      tag_553\n        /* \"#utility.yul\":8793:8796   */\n      0xa0\n        /* \"#utility.yul\":8782:8791   */\n      dup4\n        /* \"#utility.yul\":8778:8797   */\n      add\n        /* \"#utility.yul\":8769:8775   */\n      dup6\n        /* \"#utility.yul\":8725:8798   */\n      tag_375\n      jump\t// in\n    tag_553:\n        /* \"#utility.yul\":8808:8881   */\n      tag_554\n        /* \"#utility.yul\":8876:8879   */\n      0xc0\n        /* \"#utility.yul\":8865:8874   */\n      dup4\n        /* \"#utility.yul\":8861:8880   */\n      add\n        /* \"#utility.yul\":8852:8858   */\n      dup5\n        /* \"#utility.yul\":8808:8881   */\n      tag_375\n      jump\t// in\n    tag_554:\n        /* \"#utility.yul\":7820:8888   */\n      swap9\n      swap8\n      pop\n      pop\n      pop\n      pop\n      pop\n      pop\n      pop\n      pop\n      jump\t// out\n        /* \"#utility.yul\":8894:9002   */\n    tag_390:\n        /* \"#utility.yul\":8971:8995   */\n      tag_556\n        /* \"#utility.yul\":8989:8994   */\n      dup2\n        /* \"#utility.yul\":8971:8995   */\n      tag_362\n      jump\t// in\n    tag_556:\n        /* \"#utility.yul\":8966:8969   */\n      dup3\n        /* \"#utility.yul\":8959:8996   */\n      mstore\n        /* \"#utility.yul\":8894:9002   */\n      pop\n      pop\n      jump\t// out\n        /* \"#utility.yul\":9008:9116   */\n    tag_391:\n        /* \"#utility.yul\":9085:9109   */\n      tag_558\n        /* \"#utility.yul\":9103:9108   */\n      dup2\n        /* \"#utility.yul\":9085:9109   */\n      tag_377\n      jump\t// in\n    tag_558:\n        /* \"#utility.yul\":9080:9083   */\n      dup3\n        /* \"#utility.yul\":9073:9110   */\n      mstore\n        /* \"#utility.yul\":9008:9116   */\n      pop\n      pop\n      jump\t// out\n        /* \"#utility.yul\":9122:9265   */\n    tag_392:\n        /* \"#utility.yul\":9210:9258   */\n      tag_560\n        /* \"#utility.yul\":9252:9257   */\n      dup2\n        /* \"#utility.yul\":9210:9258   */\n      tag_381\n      jump\t// in\n    tag_560:\n        /* \"#utility.yul\":9205:9208   */\n      dup3\n        /* \"#utility.yul\":9198:9259   */\n      mstore\n        /* \"#utility.yul\":9122:9265   */\n      pop\n      pop\n      jump\t// out\n        /* \"#utility.yul\":9343:10208   */\n    tag_393:\n        /* \"#utility.yul\":9482:9486   */\n      0x80\n        /* \"#utility.yul\":9477:9480   */\n      dup3\n        /* \"#utility.yul\":9473:9487   */\n      add\n        /* \"#utility.yul\":9567:9571   */\n      0x00\n        /* \"#utility.yul\":9560:9565   */\n      dup3\n        /* \"#utility.yul\":9556:9572   */\n      add\n        /* \"#utility.yul\":9550:9573   */\n      mload\n        /* \"#utility.yul\":9586:9649   */\n      tag_562\n        /* \"#utility.yul\":9643:9647   */\n      0x00\n        /* \"#utility.yul\":9638:9641   */\n      dup6\n        /* \"#utility.yul\":9634:9648   */\n      add\n        /* \"#utility.yul\":9620:9632   */\n      dup3\n        /* \"#utility.yul\":9586:9649   */\n      tag_371\n      jump\t// in\n    tag_562:\n        /* \"#utility.yul\":9497:9659   */\n      pop\n        /* \"#utility.yul\":9748:9752   */\n      0x20\n        /* \"#utility.yul\":9741:9746   */\n      dup3\n        /* \"#utility.yul\":9737:9753   */\n      add\n        /* \"#utility.yul\":9731:9754   */\n      mload\n        /* \"#utility.yul\":9767:9830   */\n      tag_563\n        /* \"#utility.yul\":9824:9828   */\n      0x20\n        /* \"#utility.yul\":9819:9822   */\n      dup6\n        /* \"#utility.yul\":9815:9829   */\n      add\n        /* \"#utility.yul\":9801:9813   */\n      dup3\n        /* \"#utility.yul\":9767:9830   */\n      tag_390\n      jump\t// in\n    tag_563:\n        /* \"#utility.yul\":9669:9840   */\n      pop\n        /* \"#utility.yul\":9922:9926   */\n      0x40\n        /* \"#utility.yul\":9915:9920   */\n      dup3\n        /* \"#utility.yul\":9911:9927   */\n      add\n        /* \"#utility.yul\":9905:9928   */\n      mload\n        /* \"#utility.yul\":9941:10004   */\n      tag_564\n        /* \"#utility.yul\":9998:10002   */\n      0x40\n        /* \"#utility.yul\":9993:9996   */\n      dup6\n        /* \"#utility.yul\":9989:10003   */\n      add\n        /* \"#utility.yul\":9975:9987   */\n      dup3\n        /* \"#utility.yul\":9941:10004   */\n      tag_391\n      jump\t// in\n    tag_564:\n        /* \"#utility.yul\":9850:10014   */\n      pop\n        /* \"#utility.yul\":10098:10102   */\n      0x60\n        /* \"#utility.yul\":10091:10096   */\n      dup3\n        /* \"#utility.yul\":10087:10103   */\n      add\n        /* \"#utility.yul\":10081:10104   */\n      mload\n        /* \"#utility.yul\":10117:10191   */\n      tag_565\n        /* \"#utility.yul\":10185:10189   */\n      0x60\n        /* \"#utility.yul\":10180:10183   */\n      dup6\n        /* \"#utility.yul\":10176:10190   */\n      add\n        /* \"#utility.yul\":10162:10174   */\n      dup3\n        /* \"#utility.yul\":10117:10191   */\n      tag_392\n      jump\t// in\n    tag_565:\n        /* \"#utility.yul\":10024:10201   */\n      pop\n        /* \"#utility.yul\":9451:10208   */\n      pop\n        /* \"#utility.yul\":9343:10208   */\n      pop\n      pop\n      jump\t// out\n        /* \"#utility.yul\":10214:10521   */\n    tag_65:\n        /* \"#utility.yul\":10349:10353   */\n      0x00\n        /* \"#utility.yul\":10387:10390   */\n      0x80\n        /* \"#utility.yul\":10376:10385   */\n      dup3\n        /* \"#utility.yul\":10372:10391   */\n      add\n        /* \"#utility.yul\":10364:10391   */\n      swap1\n      pop\n        /* \"#utility.yul\":10401:10514   */\n      tag_567\n        /* \"#utility.yul\":10511:10512   */\n      0x00\n        /* \"#utility.yul\":10500:10509   */\n      dup4\n        /* \"#utility.yul\":10496:10513   */\n      add\n        /* \"#utility.yul\":10487:10493   */\n      dup5\n        /* \"#utility.yul\":10401:10514   */\n      tag_393\n      jump\t// in\n    tag_567:\n        /* \"#utility.yul\":10214:10521   */\n      swap3\n      swap2\n      pop\n      pop\n      jump\t// out\n        /* \"#utility.yul\":10527:10749   */\n    tag_69:\n        /* \"#utility.yul\":10620:10624   */\n      0x00\n        /* \"#utility.yul\":10658:10660   */\n      0x20\n        /* \"#utility.yul\":10647:10656   */\n      dup3\n        /* \"#utility.yul\":10643:10661   */\n      add\n        /* \"#utility.yul\":10635:10661   */\n      swap1\n      pop\n        /* \"#utility.yul\":10671:10742   */\n      tag_569\n        /* \"#utility.yul\":10739:10740   */\n      0x00\n        /* \"#utility.yul\":10728:10737   */\n      dup4\n        /* \"#utility.yul\":10724:10741   */\n      add\n        /* \"#utility.yul\":10715:10721   */\n      dup5\n        /* \"#utility.yul\":10671:10742   */\n      tag_375\n      jump\t// in\n    tag_569:\n        /* \"#utility.yul\":10527:10749   */\n      swap3\n      swap2\n      pop\n      pop\n      jump\t// out\n        /* \"#utility.yul\":10755:10867   */\n    tag_394:\n        /* \"#utility.yul\":10841:10842   */\n      0x04\n        /* \"#utility.yul\":10834:10839   */\n      dup2\n        /* \"#utility.yul\":10831:10843   */\n      lt\n        /* \"#utility.yul\":10821:10861   */\n      tag_571\n      jumpi\n        /* \"#utility.yul\":10857:10858   */\n      0x00\n        /* \"#utility.yul\":10854:10855   */\n      0x00\n        /* \"#utility.yul\":10847:10859   */\n      revert\n        /* \"#utility.yul\":10821:10861   */\n    tag_571:\n        /* \"#utility.yul\":10755:10867   */\n      pop\n      jump\t// out\n        /* \"#utility.yul\":10873:11038   */\n    tag_395:\n        /* \"#utility.yul\":10932:10937   */\n      0x00\n        /* \"#utility.yul\":10970:10976   */\n      dup2\n        /* \"#utility.yul\":10957:10977   */\n      calldataload\n        /* \"#utility.yul\":10948:10977   */\n      swap1\n      pop\n        /* \"#utility.yul\":10986:11032   */\n      tag_573\n        /* \"#utility.yul\":11026:11031   */\n      dup2\n        /* \"#utility.yul\":10986:11032   */\n      tag_394\n      jump\t// in\n    tag_573:\n        /* \"#utility.yul\":10873:11038   */\n      swap3\n      swap2\n      pop\n      pop\n      jump\t// out\n        /* \"#utility.yul\":11044:11544   */\n    tag_72:\n        /* \"#utility.yul\":11125:11131   */\n      0x00\n        /* \"#utility.yul\":11133:11139   */\n      0x00\n        /* \"#utility.yul\":11182:11184   */\n      0x40\n        /* \"#utility.yul\":11170:11179   */\n      dup4\n        /* \"#utility.yul\":11161:11168   */\n      dup6\n        /* \"#utility.yul\":11157:11180   */\n      sub\n        /* \"#utility.yul\":11153:11185   */\n      slt\n        /* \"#utility.yul\":11150:11269   */\n      iszero\n      tag_575\n      jumpi\n        /* \"#utility.yul\":11188:11267   */\n      tag_576\n      tag_359\n      jump\t// in\n    tag_576:\n        /* \"#utility.yul\":11150:11269   */\n    tag_575:\n        /* \"#utility.yul\":11308:11309   */\n      0x00\n        /* \"#utility.yul\":11333:11386   */\n      tag_577\n        /* \"#utility.yul\":11378:11385   */\n      dup6\n        /* \"#utility.yul\":11369:11375   */\n      dup3\n        /* \"#utility.yul\":11358:11367   */\n      dup7\n        /* \"#utility.yul\":11354:11376   */\n      add\n        /* \"#utility.yul\":11333:11386   */\n      tag_364\n      jump\t// in\n    tag_577:\n        /* \"#utility.yul\":11323:11386   */\n      swap3\n      pop\n        /* \"#utility.yul\":11279:11396   */\n      pop\n        /* \"#utility.yul\":11435:11437   */\n      0x20\n        /* \"#utility.yul\":11461:11527   */\n      tag_578\n        /* \"#utility.yul\":11519:11526   */\n      dup6\n        /* \"#utility.yul\":11510:11516   */\n      dup3\n        /* \"#utility.yul\":11499:11508   */\n      dup7\n        /* \"#utility.yul\":11495:11517   */\n      add\n        /* \"#utility.yul\":11461:11527   */\n      tag_395\n      jump\t// in\n    tag_578:\n        /* \"#utility.yul\":11451:11527   */\n      swap2\n      pop\n        /* \"#utility.yul\":11406:11537   */\n      pop\n        /* \"#utility.yul\":11044:11544   */\n      swap3\n      pop\n      swap3\n      swap1\n      pop\n      jump\t// out\n        /* \"#utility.yul\":11550:11673   */\n    tag_396:\n        /* \"#utility.yul\":11641:11642   */\n      0x03\n        /* \"#utility.yul\":11634:11639   */\n      dup2\n        /* \"#utility.yul\":11631:11643   */\n      lt\n        /* \"#utility.yul\":11621:11667   */\n      tag_580\n      jumpi\n        /* \"#utility.yul\":11647:11665   */\n      tag_581\n      tag_116\n      jump\t// in\n    tag_581:\n        /* \"#utility.yul\":11621:11667   */\n    tag_580:\n        /* \"#utility.yul\":11550:11673   */\n      pop\n      jump\t// out\n        /* \"#utility.yul\":11679:11826   */\n    tag_397:\n        /* \"#utility.yul\":11734:11741   */\n      0x00\n        /* \"#utility.yul\":11763:11768   */\n      dup2\n        /* \"#utility.yul\":11752:11768   */\n      swap1\n      pop\n        /* \"#utility.yul\":11769:11820   */\n      tag_583\n        /* \"#utility.yul\":11814:11819   */\n      dup3\n        /* \"#utility.yul\":11769:11820   */\n      tag_396\n      jump\t// in\n    tag_583:\n        /* \"#utility.yul\":11679:11826   */\n      swap2\n      swap1\n      pop\n      jump\t// out\n        /* \"#utility.yul\":11832:11979   */\n    tag_398:\n        /* \"#utility.yul\":11898:11907   */\n      0x00\n        /* \"#utility.yul\":11931:11973   */\n      tag_585\n        /* \"#utility.yul\":11967:11972   */\n      dup3\n        /* \"#utility.yul\":11931:11973   */\n      tag_397\n      jump\t// in\n    tag_585:\n        /* \"#utility.yul\":11918:11973   */\n      swap1\n      pop\n        /* \"#utility.yul\":11832:11979   */\n      swap2\n      swap1\n      pop\n      jump\t// out\n        /* \"#utility.yul\":11985:12148   */\n    tag_399:\n        /* \"#utility.yul\":12088:12141   */\n      tag_587\n        /* \"#utility.yul\":12135:12140   */\n      dup2\n        /* \"#utility.yul\":12088:12141   */\n      tag_398\n      jump\t// in\n    tag_587:\n        /* \"#utility.yul\":12083:12086   */\n      dup3\n        /* \"#utility.yul\":12076:12142   */\n      mstore\n        /* \"#utility.yul\":11985:12148   */\n      pop\n      pop\n      jump\t// out\n        /* \"#utility.yul\":12154:13072   */\n    tag_78:\n        /* \"#utility.yul\":12431:12435   */\n      0x00\n        /* \"#utility.yul\":12469:12472   */\n      0xe0\n        /* \"#utility.yul\":12458:12467   */\n      dup3\n        /* \"#utility.yul\":12454:12473   */\n      add\n        /* \"#utility.yul\":12446:12473   */\n      swap1\n      pop\n        /* \"#utility.yul\":12483:12554   */\n      tag_589\n        /* \"#utility.yul\":12551:12552   */\n      0x00\n        /* \"#utility.yul\":12540:12549   */\n      dup4\n        /* \"#utility.yul\":12536:12553   */\n      add\n        /* \"#utility.yul\":12527:12533   */\n      dup11\n        /* \"#utility.yul\":12483:12554   */\n      tag_375\n      jump\t// in\n    tag_589:\n        /* \"#utility.yul\":12564:12636   */\n      tag_590\n        /* \"#utility.yul\":12632:12634   */\n      0x20\n        /* \"#utility.yul\":12621:12630   */\n      dup4\n        /* \"#utility.yul\":12617:12635   */\n      add\n        /* \"#utility.yul\":12608:12614   */\n      dup10\n        /* \"#utility.yul\":12564:12636   */\n      tag_376\n      jump\t// in\n    tag_590:\n        /* \"#utility.yul\":12646:12718   */\n      tag_591\n        /* \"#utility.yul\":12714:12716   */\n      0x40\n        /* \"#utility.yul\":12703:12712   */\n      dup4\n        /* \"#utility.yul\":12699:12717   */\n      add\n        /* \"#utility.yul\":12690:12696   */\n      dup9\n        /* \"#utility.yul\":12646:12718   */\n      tag_376\n      jump\t// in\n    tag_591:\n        /* \"#utility.yul\":12728:12800   */\n      tag_592\n        /* \"#utility.yul\":12796:12798   */\n      0x60\n        /* \"#utility.yul\":12785:12794   */\n      dup4\n        /* \"#utility.yul\":12781:12799   */\n      add\n        /* \"#utility.yul\":12772:12778   */\n      dup8\n        /* \"#utility.yul\":12728:12800   */\n      tag_375\n      jump\t// in\n    tag_592:\n        /* \"#utility.yul\":12810:12883   */\n      tag_593\n        /* \"#utility.yul\":12878:12881   */\n      0x80\n        /* \"#utility.yul\":12867:12876   */\n      dup4\n        /* \"#utility.yul\":12863:12882   */\n      add\n        /* \"#utility.yul\":12854:12860   */\n      dup7\n        /* \"#utility.yul\":12810:12883   */\n      tag_375\n      jump\t// in\n    tag_593:\n        /* \"#utility.yul\":12893:12966   */\n      tag_594\n        /* \"#utility.yul\":12961:12964   */\n      0xa0\n        /* \"#utility.yul\":12950:12959   */\n      dup4\n        /* \"#utility.yul\":12946:12965   */\n      add\n        /* \"#utility.yul\":12937:12943   */\n      dup6\n        /* \"#utility.yul\":12893:12966   */\n      tag_375\n      jump\t// in\n    tag_594:\n        /* \"#utility.yul\":12976:13065   */\n      tag_595\n        /* \"#utility.yul\":13060:13063   */\n      0xc0\n        /* \"#utility.yul\":13049:13058   */\n      dup4\n        /* \"#utility.yul\":13045:13064   */\n      add\n        /* \"#utility.yul\":13036:13042   */\n      dup5\n        /* \"#utility.yul\":12976:13065   */\n      tag_399\n      jump\t// in\n    tag_595:\n        /* \"#utility.yul\":12154:13072   */\n      swap9\n      swap8\n      pop\n      pop\n      pop\n      pop\n      pop\n      pop\n      pop\n      pop\n      jump\t// out\n        /* \"#utility.yul\":13078:13231   */\n    tag_400:\n        /* \"#utility.yul\":13171:13224   */\n      tag_597\n        /* \"#utility.yul\":13218:13223   */\n      dup2\n        /* \"#utility.yul\":13171:13224   */\n      tag_398\n      jump\t// in\n    tag_597:\n        /* \"#utility.yul\":13166:13169   */\n      dup3\n        /* \"#utility.yul\":13159:13225   */\n      mstore\n        /* \"#utility.yul\":13078:13231   */\n      pop\n      pop\n      jump\t// out\n        /* \"#utility.yul\":13317:14720   */\n    tag_401:\n        /* \"#utility.yul\":13464:13468   */\n      0xe0\n        /* \"#utility.yul\":13459:13462   */\n      dup3\n        /* \"#utility.yul\":13455:13469   */\n      add\n        /* \"#utility.yul\":13549:13553   */\n      0x00\n        /* \"#utility.yul\":13542:13547   */\n      dup3\n        /* \"#utility.yul\":13538:13554   */\n      add\n        /* \"#utility.yul\":13532:13555   */\n      mload\n        /* \"#utility.yul\":13568:13631   */\n      tag_599\n        /* \"#utility.yul\":13625:13629   */\n      0x00\n        /* \"#utility.yul\":13620:13623   */\n      dup6\n        /* \"#utility.yul\":13616:13630   */\n      add\n        /* \"#utility.yul\":13602:13614   */\n      dup3\n        /* \"#utility.yul\":13568:13631   */\n      tag_371\n      jump\t// in\n    tag_599:\n        /* \"#utility.yul\":13479:13641   */\n      pop\n        /* \"#utility.yul\":13723:13727   */\n      0x20\n        /* \"#utility.yul\":13716:13721   */\n      dup3\n        /* \"#utility.yul\":13712:13728   */\n      add\n        /* \"#utility.yul\":13706:13729   */\n      mload\n        /* \"#utility.yul\":13742:13805   */\n      tag_600\n        /* \"#utility.yul\":13799:13803   */\n      0x20\n        /* \"#utility.yul\":13794:13797   */\n      dup6\n        /* \"#utility.yul\":13790:13804   */\n      add\n        /* \"#utility.yul\":13776:13788   */\n      dup3\n        /* \"#utility.yul\":13742:13805   */\n      tag_390\n      jump\t// in\n    tag_600:\n        /* \"#utility.yul\":13651:13815   */\n      pop\n        /* \"#utility.yul\":13895:13899   */\n      0x40\n        /* \"#utility.yul\":13888:13893   */\n      dup3\n        /* \"#utility.yul\":13884:13900   */\n      add\n        /* \"#utility.yul\":13878:13901   */\n      mload\n        /* \"#utility.yul\":13914:13977   */\n      tag_601\n        /* \"#utility.yul\":13971:13975   */\n      0x40\n        /* \"#utility.yul\":13966:13969   */\n      dup6\n        /* \"#utility.yul\":13962:13976   */\n      add\n        /* \"#utility.yul\":13948:13960   */\n      dup3\n        /* \"#utility.yul\":13914:13977   */\n      tag_390\n      jump\t// in\n    tag_601:\n        /* \"#utility.yul\":13825:13987   */\n      pop\n        /* \"#utility.yul\":14072:14076   */\n      0x60\n        /* \"#utility.yul\":14065:14070   */\n      dup3\n        /* \"#utility.yul\":14061:14077   */\n      add\n        /* \"#utility.yul\":14055:14078   */\n      mload\n        /* \"#utility.yul\":14091:14154   */\n      tag_602\n        /* \"#utility.yul\":14148:14152   */\n      0x60\n        /* \"#utility.yul\":14143:14146   */\n      dup6\n        /* \"#utility.yul\":14139:14153   */\n      add\n        /* \"#utility.yul\":14125:14137   */\n      dup3\n        /* \"#utility.yul\":14091:14154   */\n      tag_371\n      jump\t// in\n    tag_602:\n        /* \"#utility.yul\":13997:14164   */\n      pop\n        /* \"#utility.yul\":14253:14257   */\n      0x80\n        /* \"#utility.yul\":14246:14251   */\n      dup3\n        /* \"#utility.yul\":14242:14258   */\n      add\n        /* \"#utility.yul\":14236:14259   */\n      mload\n        /* \"#utility.yul\":14272:14335   */\n      tag_603\n        /* \"#utility.yul\":14329:14333   */\n      0x80\n        /* \"#utility.yul\":14324:14327   */\n      dup6\n        /* \"#utility.yul\":14320:14334   */\n      add\n        /* \"#utility.yul\":14306:14318   */\n      dup3\n        /* \"#utility.yul\":14272:14335   */\n      tag_371\n      jump\t// in\n    tag_603:\n        /* \"#utility.yul\":14174:14345   */\n      pop\n        /* \"#utility.yul\":14429:14433   */\n      0xa0\n        /* \"#utility.yul\":14422:14427   */\n      dup3\n        /* \"#utility.yul\":14418:14434   */\n      add\n        /* \"#utility.yul\":14412:14435   */\n      mload\n        /* \"#utility.yul\":14448:14511   */\n      tag_604\n        /* \"#utility.yul\":14505:14509   */\n      0xa0\n        /* \"#utility.yul\":14500:14503   */\n      dup6\n        /* \"#utility.yul\":14496:14510   */\n      add\n        /* \"#utility.yul\":14482:14494   */\n      dup3\n        /* \"#utility.yul\":14448:14511   */\n      tag_371\n      jump\t// in\n    tag_604:\n        /* \"#utility.yul\":14355:14521   */\n      pop\n        /* \"#utility.yul\":14605:14609   */\n      0xc0\n        /* \"#utility.yul\":14598:14603   */\n      dup3\n        /* \"#utility.yul\":14594:14610   */\n      add\n        /* \"#utility.yul\":14588:14611   */\n      mload\n        /* \"#utility.yul\":14624:14703   */\n      tag_605\n        /* \"#utility.yul\":14697:14701   */\n      0xc0\n        /* \"#utility.yul\":14692:14695   */\n      dup6\n        /* \"#utility.yul\":14688:14702   */\n      add\n        /* \"#utility.yul\":14674:14686   */\n      dup3\n        /* \"#utility.yul\":14624:14703   */\n      tag_400\n      jump\t// in\n    tag_605:\n        /* \"#utility.yul\":14531:14713   */\n      pop\n        /* \"#utility.yul\":13433:14720   */\n      pop\n        /* \"#utility.yul\":13317:14720   */\n      pop\n      pop\n      jump\t// out\n        /* \"#utility.yul\":14726:15049   */\n    tag_93:\n        /* \"#utility.yul\":14869:14873   */\n      0x00\n        /* \"#utility.yul\":14907:14910   */\n      0xe0\n        /* \"#utility.yul\":14896:14905   */\n      dup3\n        /* \"#utility.yul\":14892:14911   */\n      add\n        /* \"#utility.yul\":14884:14911   */\n      swap1\n      pop\n        /* \"#utility.yul\":14921:15042   */\n      tag_607\n        /* \"#utility.yul\":15039:15040   */\n      0x00\n        /* \"#utility.yul\":15028:15037   */\n      dup4\n        /* \"#utility.yul\":15024:15041   */\n      add\n        /* \"#utility.yul\":15015:15021   */\n      dup5\n        /* \"#utility.yul\":14921:15042   */\n      tag_401\n      jump\t// in\n    tag_607:\n        /* \"#utility.yul\":14726:15049   */\n      swap3\n      swap2\n      pop\n      pop\n      jump\t// out\n        /* \"#utility.yul\":15055:15172   */\n    tag_402:\n        /* \"#utility.yul\":15164:15165   */\n      0x00\n        /* \"#utility.yul\":15161:15162   */\n      0x00\n        /* \"#utility.yul\":15154:15166   */\n      revert\n        /* \"#utility.yul\":15178:15295   */\n    tag_403:\n        /* \"#utility.yul\":15287:15288   */\n      0x00\n        /* \"#utility.yul\":15284:15285   */\n      0x00\n        /* \"#utility.yul\":15277:15289   */\n      revert\n        /* \"#utility.yul\":15301:15418   */\n    tag_404:\n        /* \"#utility.yul\":15410:15411   */\n      0x00\n        /* \"#utility.yul\":15407:15408   */\n      0x00\n        /* \"#utility.yul\":15400:15412   */\n      revert\n        /* \"#utility.yul\":15438:15991   */\n    tag_405:\n        /* \"#utility.yul\":15496:15504   */\n      0x00\n        /* \"#utility.yul\":15506:15512   */\n      0x00\n        /* \"#utility.yul\":15556:15559   */\n      dup4\n        /* \"#utility.yul\":15549:15553   */\n      0x1f\n        /* \"#utility.yul\":15541:15547   */\n      dup5\n        /* \"#utility.yul\":15537:15554   */\n      add\n        /* \"#utility.yul\":15533:15560   */\n      slt\n        /* \"#utility.yul\":15523:15645   */\n      tag_612\n      jumpi\n        /* \"#utility.yul\":15564:15643   */\n      tag_613\n      tag_402\n      jump\t// in\n    tag_613:\n        /* \"#utility.yul\":15523:15645   */\n    tag_612:\n        /* \"#utility.yul\":15677:15683   */\n      dup3\n        /* \"#utility.yul\":15664:15684   */\n      calldataload\n        /* \"#utility.yul\":15654:15684   */\n      swap1\n      pop\n        /* \"#utility.yul\":15707:15725   */\n      0xffffffffffffffff\n        /* \"#utility.yul\":15699:15705   */\n      dup2\n        /* \"#utility.yul\":15696:15726   */\n      gt\n        /* \"#utility.yul\":15693:15810   */\n      iszero\n      tag_614\n      jumpi\n        /* \"#utility.yul\":15729:15808   */\n      tag_615\n      tag_403\n      jump\t// in\n    tag_615:\n        /* \"#utility.yul\":15693:15810   */\n    tag_614:\n        /* \"#utility.yul\":15843:15847   */\n      0x20\n        /* \"#utility.yul\":15835:15841   */\n      dup4\n        /* \"#utility.yul\":15831:15848   */\n      add\n        /* \"#utility.yul\":15819:15848   */\n      swap2\n      pop\n        /* \"#utility.yul\":15897:15900   */\n      dup4\n        /* \"#utility.yul\":15889:15893   */\n      0x01\n        /* \"#utility.yul\":15881:15887   */\n      dup3\n        /* \"#utility.yul\":15877:15894   */\n      mul\n        /* \"#utility.yul\":15867:15875   */\n      dup4\n        /* \"#utility.yul\":15863:15895   */\n      add\n        /* \"#utility.yul\":15860:15901   */\n      gt\n        /* \"#utility.yul\":15857:15985   */\n      iszero\n      tag_616\n      jumpi\n        /* \"#utility.yul\":15904:15983   */\n      tag_617\n      tag_404\n      jump\t// in\n    tag_617:\n        /* \"#utility.yul\":15857:15985   */\n    tag_616:\n        /* \"#utility.yul\":15438:15991   */\n      swap3\n      pop\n      swap3\n      swap1\n      pop\n      jump\t// out\n        /* \"#utility.yul\":15997:17162   */\n    tag_96:\n        /* \"#utility.yul\":16107:16113   */\n      0x00\n        /* \"#utility.yul\":16115:16121   */\n      0x00\n        /* \"#utility.yul\":16123:16129   */\n      0x00\n        /* \"#utility.yul\":16131:16137   */\n      0x00\n        /* \"#utility.yul\":16139:16145   */\n      0x00\n        /* \"#utility.yul\":16147:16153   */\n      0x00\n        /* \"#utility.yul\":16196:16199   */\n      0x80\n        /* \"#utility.yul\":16184:16193   */\n      dup8\n        /* \"#utility.yul\":16175:16182   */\n      dup10\n        /* \"#utility.yul\":16171:16194   */\n      sub\n        /* \"#utility.yul\":16167:16200   */\n      slt\n        /* \"#utility.yul\":16164:16284   */\n      iszero\n      tag_619\n      jumpi\n        /* \"#utility.yul\":16203:16282   */\n      tag_620\n      tag_359\n      jump\t// in\n    tag_620:\n        /* \"#utility.yul\":16164:16284   */\n    tag_619:\n        /* \"#utility.yul\":16351:16352   */\n      0x00\n        /* \"#utility.yul\":16340:16349   */\n      dup8\n        /* \"#utility.yul\":16336:16353   */\n      add\n        /* \"#utility.yul\":16323:16354   */\n      calldataload\n        /* \"#utility.yul\":16381:16399   */\n      0xffffffffffffffff\n        /* \"#utility.yul\":16373:16379   */\n      dup2\n        /* \"#utility.yul\":16370:16400   */\n      gt\n        /* \"#utility.yul\":16367:16484   */\n      iszero\n      tag_621\n      jumpi\n        /* \"#utility.yul\":16403:16482   */\n      tag_622\n      tag_360\n      jump\t// in\n    tag_622:\n        /* \"#utility.yul\":16367:16484   */\n    tag_621:\n        /* \"#utility.yul\":16516:16581   */\n      tag_623\n        /* \"#utility.yul\":16573:16580   */\n      dup10\n        /* \"#utility.yul\":16564:16570   */\n      dup3\n        /* \"#utility.yul\":16553:16562   */\n      dup11\n        /* \"#utility.yul\":16549:16571   */\n      add\n        /* \"#utility.yul\":16516:16581   */\n      tag_405\n      jump\t// in\n    tag_623:\n        /* \"#utility.yul\":16498:16581   */\n      swap7\n      pop\n      swap7\n      pop\n        /* \"#utility.yul\":16294:16591   */\n      pop\n        /* \"#utility.yul\":16630:16632   */\n      0x20\n        /* \"#utility.yul\":16656:16709   */\n      tag_624\n        /* \"#utility.yul\":16701:16708   */\n      dup10\n        /* \"#utility.yul\":16692:16698   */\n      dup3\n        /* \"#utility.yul\":16681:16690   */\n      dup11\n        /* \"#utility.yul\":16677:16699   */\n      add\n        /* \"#utility.yul\":16656:16709   */\n      tag_367\n      jump\t// in\n    tag_624:\n        /* \"#utility.yul\":16646:16709   */\n      swap5\n      pop\n        /* \"#utility.yul\":16601:16719   */\n      pop\n        /* \"#utility.yul\":16786:16788   */\n      0x40\n        /* \"#utility.yul\":16775:16784   */\n      dup8\n        /* \"#utility.yul\":16771:16789   */\n      add\n        /* \"#utility.yul\":16758:16790   */\n      calldataload\n        /* \"#utility.yul\":16817:16835   */\n      0xffffffffffffffff\n        /* \"#utility.yul\":16809:16815   */\n      dup2\n        /* \"#utility.yul\":16806:16836   */\n      gt\n        /* \"#utility.yul\":16803:16920   */\n      iszero\n      tag_625\n      jumpi\n        /* \"#utility.yul\":16839:16918   */\n      tag_626\n      tag_360\n      jump\t// in\n    tag_626:\n        /* \"#utility.yul\":16803:16920   */\n    tag_625:\n        /* \"#utility.yul\":16952:17017   */\n      tag_627\n        /* \"#utility.yul\":17009:17016   */\n      dup10\n        /* \"#utility.yul\":17000:17006   */\n      dup3\n        /* \"#utility.yul\":16989:16998   */\n      dup11\n        /* \"#utility.yul\":16985:17007   */\n      add\n        /* \"#utility.yul\":16952:17017   */\n      tag_405\n      jump\t// in\n    tag_627:\n        /* \"#utility.yul\":16934:17017   */\n      swap4\n      pop\n      swap4\n      pop\n        /* \"#utility.yul\":16729:17027   */\n      pop\n        /* \"#utility.yul\":17066:17068   */\n      0x60\n        /* \"#utility.yul\":17092:17145   */\n      tag_628\n        /* \"#utility.yul\":17137:17144   */\n      dup10\n        /* \"#utility.yul\":17128:17134   */\n      dup3\n        /* \"#utility.yul\":17117:17126   */\n      dup11\n        /* \"#utility.yul\":17113:17135   */\n      add\n        /* \"#utility.yul\":17092:17145   */\n      tag_367\n      jump\t// in\n    tag_628:\n        /* \"#utility.yul\":17082:17145   */\n      swap2\n      pop\n        /* \"#utility.yul\":17037:17155   */\n      pop\n        /* \"#utility.yul\":15997:17162   */\n      swap3\n      swap6\n      pop\n      swap3\n      swap6\n      pop\n      swap3\n      swap6\n      jump\t// out\n        /* \"#utility.yul\":17168:18347   */\n    tag_102:\n        /* \"#utility.yul\":17497:17501   */\n      0x00\n        /* \"#utility.yul\":17535:17538   */\n      0x0100\n        /* \"#utility.yul\":17524:17533   */\n      dup3\n        /* \"#utility.yul\":17520:17539   */\n      add\n        /* \"#utility.yul\":17512:17539   */\n      swap1\n      pop\n        /* \"#utility.yul\":17549:17620   */\n      tag_630\n        /* \"#utility.yul\":17617:17618   */\n      0x00\n        /* \"#utility.yul\":17606:17615   */\n      dup4\n        /* \"#utility.yul\":17602:17619   */\n      add\n        /* \"#utility.yul\":17593:17599   */\n      dup12\n        /* \"#utility.yul\":17549:17620   */\n      tag_375\n      jump\t// in\n    tag_630:\n        /* \"#utility.yul\":17630:17702   */\n      tag_631\n        /* \"#utility.yul\":17698:17700   */\n      0x20\n        /* \"#utility.yul\":17687:17696   */\n      dup4\n        /* \"#utility.yul\":17683:17701   */\n      add\n        /* \"#utility.yul\":17674:17680   */\n      dup11\n        /* \"#utility.yul\":17630:17702   */\n      tag_376\n      jump\t// in\n    tag_631:\n        /* \"#utility.yul\":17749:17758   */\n      dup2\n        /* \"#utility.yul\":17743:17747   */\n      dup2\n        /* \"#utility.yul\":17739:17759   */\n      sub\n        /* \"#utility.yul\":17734:17736   */\n      0x40\n        /* \"#utility.yul\":17723:17732   */\n      dup4\n        /* \"#utility.yul\":17719:17737   */\n      add\n        /* \"#utility.yul\":17712:17760   */\n      mstore\n        /* \"#utility.yul\":17777:17855   */\n      tag_632\n        /* \"#utility.yul\":17850:17854   */\n      dup2\n        /* \"#utility.yul\":17841:17847   */\n      dup10\n        /* \"#utility.yul\":17777:17855   */\n      tag_389\n      jump\t// in\n    tag_632:\n        /* \"#utility.yul\":17769:17855   */\n      swap1\n      pop\n        /* \"#utility.yul\":17865:17937   */\n      tag_633\n        /* \"#utility.yul\":17933:17935   */\n      0x60\n        /* \"#utility.yul\":17922:17931   */\n      dup4\n        /* \"#utility.yul\":17918:17936   */\n      add\n        /* \"#utility.yul\":17909:17915   */\n      dup9\n        /* \"#utility.yul\":17865:17937   */\n      tag_375\n      jump\t// in\n    tag_633:\n        /* \"#utility.yul\":17985:17994   */\n      dup2\n        /* \"#utility.yul\":17979:17983   */\n      dup2\n        /* \"#utility.yul\":17975:17995   */\n      sub\n        /* \"#utility.yul\":17969:17972   */\n      0x80\n        /* \"#utility.yul\":17958:17967   */\n      dup4\n        /* \"#utility.yul\":17954:17973   */\n      add\n        /* \"#utility.yul\":17947:17996   */\n      mstore\n        /* \"#utility.yul\":18013:18091   */\n      tag_634\n        /* \"#utility.yul\":18086:18090   */\n      dup2\n        /* \"#utility.yul\":18077:18083   */\n      dup8\n        /* \"#utility.yul\":18013:18091   */\n      tag_389\n      jump\t// in\n    tag_634:\n        /* \"#utility.yul\":18005:18091   */\n      swap1\n      pop\n        /* \"#utility.yul\":18101:18174   */\n      tag_635\n        /* \"#utility.yul\":18169:18172   */\n      0xa0\n        /* \"#utility.yul\":18158:18167   */\n      dup4\n        /* \"#utility.yul\":18154:18173   */\n      add\n        /* \"#utility.yul\":18145:18151   */\n      dup7\n        /* \"#utility.yul\":18101:18174   */\n      tag_375\n      jump\t// in\n    tag_635:\n        /* \"#utility.yul\":18184:18257   */\n      tag_636\n        /* \"#utility.yul\":18252:18255   */\n      0xc0\n        /* \"#utility.yul\":18241:18250   */\n      dup4\n        /* \"#utility.yul\":18237:18256   */\n      add\n        /* \"#utility.yul\":18228:18234   */\n      dup6\n        /* \"#utility.yul\":18184:18257   */\n      tag_375\n      jump\t// in\n    tag_636:\n        /* \"#utility.yul\":18267:18340   */\n      tag_637\n        /* \"#utility.yul\":18335:18338   */\n      0xe0\n        /* \"#utility.yul\":18324:18333   */\n      dup4\n        /* \"#utility.yul\":18320:18339   */\n      add\n        /* \"#utility.yul\":18311:18317   */\n      dup5\n        /* \"#utility.yul\":18267:18340   */\n      tag_375\n      jump\t// in\n    tag_637:\n        /* \"#utility.yul\":17168:18347   */\n      swap10\n      swap9\n      pop\n      pop\n      pop\n      pop\n      pop\n      pop\n      pop\n      pop\n      pop\n      jump\t// out\n        /* \"#utility.yul\":18353:18827   */\n    tag_105:\n        /* \"#utility.yul\":18421:18427   */\n      0x00\n        /* \"#utility.yul\":18429:18435   */\n      0x00\n        /* \"#utility.yul\":18478:18480   */\n      0x40\n        /* \"#utility.yul\":18466:18475   */\n      dup4\n        /* \"#utility.yul\":18457:18464   */\n      dup6\n        /* \"#utility.yul\":18453:18476   */\n      sub\n        /* \"#utility.yul\":18449:18481   */\n      slt\n        /* \"#utility.yul\":18446:18565   */\n      iszero\n      tag_639\n      jumpi\n        /* \"#utility.yul\":18484:18563   */\n      tag_640\n      tag_359\n      jump\t// in\n    tag_640:\n        /* \"#utility.yul\":18446:18565   */\n    tag_639:\n        /* \"#utility.yul\":18604:18605   */\n      0x00\n        /* \"#utility.yul\":18629:18682   */\n      tag_641\n        /* \"#utility.yul\":18674:18681   */\n      dup6\n        /* \"#utility.yul\":18665:18671   */\n      dup3\n        /* \"#utility.yul\":18654:18663   */\n      dup7\n        /* \"#utility.yul\":18650:18672   */\n      add\n        /* \"#utility.yul\":18629:18682   */\n      tag_367\n      jump\t// in\n    tag_641:\n        /* \"#utility.yul\":18619:18682   */\n      swap3\n      pop\n        /* \"#utility.yul\":18575:18692   */\n      pop\n        /* \"#utility.yul\":18731:18733   */\n      0x20\n        /* \"#utility.yul\":18757:18810   */\n      tag_642\n        /* \"#utility.yul\":18802:18809   */\n      dup6\n        /* \"#utility.yul\":18793:18799   */\n      dup3\n        /* \"#utility.yul\":18782:18791   */\n      dup7\n        /* \"#utility.yul\":18778:18800   */\n      add\n        /* \"#utility.yul\":18757:18810   */\n      tag_364\n      jump\t// in\n    tag_642:\n        /* \"#utility.yul\":18747:18810   */\n      swap2\n      pop\n        /* \"#utility.yul\":18702:18820   */\n      pop\n        /* \"#utility.yul\":18353:18827   */\n      swap3\n      pop\n      swap3\n      swap1\n      pop\n      jump\t// out\n        /* \"#utility.yul\":18833:19055   */\n    tag_111:\n        /* \"#utility.yul\":18926:18930   */\n      0x00\n        /* \"#utility.yul\":18964:18966   */\n      0x20\n        /* \"#utility.yul\":18953:18962   */\n      dup3\n        /* \"#utility.yul\":18949:18967   */\n      add\n        /* \"#utility.yul\":18941:18967   */\n      swap1\n      pop\n        /* \"#utility.yul\":18977:19048   */\n      tag_644\n        /* \"#utility.yul\":19045:19046   */\n      0x00\n        /* \"#utility.yul\":19034:19043   */\n      dup4\n        /* \"#utility.yul\":19030:19047   */\n      add\n        /* \"#utility.yul\":19021:19027   */\n      dup5\n        /* \"#utility.yul\":18977:19048   */\n      tag_376\n      jump\t// in\n    tag_644:\n        /* \"#utility.yul\":18833:19055   */\n      swap3\n      swap2\n      pop\n      pop\n      jump\t// out\n        /* \"#utility.yul\":19061:19223   */\n    tag_406:\n        /* \"#utility.yul\":19201:19215   */\n      0x4e6f7420617070726f7665640000000000000000000000000000000000000000\n        /* \"#utility.yul\":19197:19198   */\n      0x00\n        /* \"#utility.yul\":19189:19195   */\n      dup3\n        /* \"#utility.yul\":19185:19199   */\n      add\n        /* \"#utility.yul\":19178:19216   */\n      mstore\n        /* \"#utility.yul\":19061:19223   */\n      pop\n      jump\t// out\n        /* \"#utility.yul\":19229:19595   */\n    tag_407:\n        /* \"#utility.yul\":19371:19374   */\n      0x00\n        /* \"#utility.yul\":19392:19459   */\n      tag_647\n        /* \"#utility.yul\":19456:19458   */\n      0x0c\n        /* \"#utility.yul\":19451:19454   */\n      dup4\n        /* \"#utility.yul\":19392:19459   */\n      tag_386\n      jump\t// in\n    tag_647:\n        /* \"#utility.yul\":19385:19459   */\n      swap2\n      pop\n        /* \"#utility.yul\":19468:19561   */\n      tag_648\n        /* \"#utility.yul\":19557:19560   */\n      dup3\n        /* \"#utility.yul\":19468:19561   */\n      tag_406\n      jump\t// in\n    tag_648:\n        /* \"#utility.yul\":19586:19588   */\n      0x20\n        /* \"#utility.yul\":19581:19584   */\n      dup3\n        /* \"#utility.yul\":19577:19589   */\n      add\n        /* \"#utility.yul\":19570:19589   */\n      swap1\n      pop\n        /* \"#utility.yul\":19229:19595   */\n      swap2\n      swap1\n      pop\n      jump\t// out\n        /* \"#utility.yul\":19601:20020   */\n    tag_121:\n        /* \"#utility.yul\":19767:19771   */\n      0x00\n        /* \"#utility.yul\":19805:19807   */\n      0x20\n        /* \"#utility.yul\":19794:19803   */\n      dup3\n        /* \"#utility.yul\":19790:19808   */\n      add\n        /* \"#utility.yul\":19782:19808   */\n      swap1\n      pop\n        /* \"#utility.yul\":19854:19863   */\n      dup2\n        /* \"#utility.yul\":19848:19852   */\n      dup2\n        /* \"#utility.yul\":19844:19864   */\n      sub\n        /* \"#utility.yul\":19840:19841   */\n      0x00\n        /* \"#utility.yul\":19829:19838   */\n      dup4\n        /* \"#utility.yul\":19825:19842   */\n      add\n        /* \"#utility.yul\":19818:19865   */\n      mstore\n        /* \"#utility.yul\":19882:20013   */\n      tag_650\n        /* \"#utility.yul\":20008:20012   */\n      dup2\n        /* \"#utility.yul\":19882:20013   */\n      tag_407\n      jump\t// in\n    tag_650:\n        /* \"#utility.yul\":19874:20013   */\n      swap1\n      pop\n        /* \"#utility.yul\":19601:20020   */\n      swap2\n      swap1\n      pop\n      jump\t// out\n        /* \"#utility.yul\":20026:20193   */\n    tag_408:\n        /* \"#utility.yul\":20166:20185   */\n      0x496e76616c696420726563697069656e74000000000000000000000000000000\n        /* \"#utility.yul\":20162:20163   */\n      0x00\n        /* \"#utility.yul\":20154:20160   */\n      dup3\n        /* \"#utility.yul\":20150:20164   */\n      add\n        /* \"#utility.yul\":20143:20186   */\n      mstore\n        /* \"#utility.yul\":20026:20193   */\n      pop\n      jump\t// out\n        /* \"#utility.yul\":20199:20565   */\n    tag_409:\n        /* \"#utility.yul\":20341:20344   */\n      0x00\n        /* \"#utility.yul\":20362:20429   */\n      tag_653\n        /* \"#utility.yul\":20426:20428   */\n      0x11\n        /* \"#utility.yul\":20421:20424   */\n      dup4\n        /* \"#utility.yul\":20362:20429   */\n      tag_386\n      jump\t// in\n    tag_653:\n        /* \"#utility.yul\":20355:20429   */\n      swap2\n      pop\n        /* \"#utility.yul\":20438:20531   */\n      tag_654\n        /* \"#utility.yul\":20527:20530   */\n      dup3\n        /* \"#utility.yul\":20438:20531   */\n      tag_408\n      jump\t// in\n    tag_654:\n        /* \"#utility.yul\":20556:20558   */\n      0x20\n        /* \"#utility.yul\":20551:20554   */\n      dup3\n        /* \"#utility.yul\":20547:20559   */\n      add\n        /* \"#utility.yul\":20540:20559   */\n      swap1\n      pop\n        /* \"#utility.yul\":20199:20565   */\n      swap2\n      swap1\n      pop\n      jump\t// out\n        /* \"#utility.yul\":20571:20990   */\n    tag_129:\n        /* \"#utility.yul\":20737:20741   */\n      0x00\n        /* \"#utility.yul\":20775:20777   */\n      0x20\n        /* \"#utility.yul\":20764:20773   */\n      dup3\n        /* \"#utility.yul\":20760:20778   */\n      add\n        /* \"#utility.yul\":20752:20778   */\n      swap1\n      pop\n        /* \"#utility.yul\":20824:20833   */\n      dup2\n        /* \"#utility.yul\":20818:20822   */\n      dup2\n        /* \"#utility.yul\":20814:20834   */\n      sub\n        /* \"#utility.yul\":20810:20811   */\n      0x00\n        /* \"#utility.yul\":20799:20808   */\n      dup4\n        /* \"#utility.yul\":20795:20812   */\n      add\n        /* \"#utility.yul\":20788:20835   */\n      mstore\n        /* \"#utility.yul\":20852:20983   */\n      tag_656\n        /* \"#utility.yul\":20978:20982   */\n      dup2\n        /* \"#utility.yul\":20852:20983   */\n      tag_409\n      jump\t// in\n    tag_656:\n        /* \"#utility.yul\":20844:20983   */\n      swap1\n      pop\n        /* \"#utility.yul\":20571:20990   */\n      swap2\n      swap1\n      pop\n      jump\t// out\n        /* \"#utility.yul\":20996:21164   */\n    tag_410:\n        /* \"#utility.yul\":21136:21156   */\n      0x416d6f756e74206d757374206265203e20300000000000000000000000000000\n        /* \"#utility.yul\":21132:21133   */\n      0x00\n        /* \"#utility.yul\":21124:21130   */\n      dup3\n        /* \"#utility.yul\":21120:21134   */\n      add\n        /* \"#utility.yul\":21113:21157   */\n      mstore\n        /* \"#utility.yul\":20996:21164   */\n      pop\n      jump\t// out\n        /* \"#utility.yul\":21170:21536   */\n    tag_411:\n        /* \"#utility.yul\":21312:21315   */\n      0x00\n        /* \"#utility.yul\":21333:21400   */\n      tag_659\n        /* \"#utility.yul\":21397:21399   */\n      0x12\n        /* \"#utility.yul\":21392:21395   */\n      dup4\n        /* \"#utility.yul\":21333:21400   */\n      tag_386\n      jump\t// in\n    tag_659:\n        /* \"#utility.yul\":21326:21400   */\n      swap2\n      pop\n        /* \"#utility.yul\":21409:21502   */\n      tag_660\n        /* \"#utility.yul\":21498:21501   */\n      dup3\n        /* \"#utility.yul\":21409:21502   */\n      tag_410\n      jump\t// in\n    tag_660:\n        /* \"#utility.yul\":21527:21529   */\n      0x20\n        /* \"#utility.yul\":21522:21525   */\n      dup3\n        /* \"#utility.yul\":21518:21530   */\n      add\n        /* \"#utility.yul\":21511:21530   */\n      swap1\n      pop\n        /* \"#utility.yul\":21170:21536   */\n      swap2\n      swap1\n      pop\n      jump\t// out\n        /* \"#utility.yul\":21542:21961   */\n    tag_132:\n        /* \"#utility.yul\":21708:21712   */\n      0x00\n        /* \"#utility.yul\":21746:21748   */\n      0x20\n        /* \"#utility.yul\":21735:21744   */\n      dup3\n        /* \"#utility.yul\":21731:21749   */\n      add\n        /* \"#utility.yul\":21723:21749   */\n      swap1\n      pop\n        /* \"#utility.yul\":21795:21804   */\n      dup2\n        /* \"#utility.yul\":21789:21793   */\n      dup2\n        /* \"#utility.yul\":21785:21805   */\n      sub\n        /* \"#utility.yul\":21781:21782   */\n      0x00\n        /* \"#utility.yul\":21770:21779   */\n      dup4\n        /* \"#utility.yul\":21766:21783   */\n      add\n        /* \"#utility.yul\":21759:21806   */\n      mstore\n        /* \"#utility.yul\":21823:21954   */\n      tag_662\n        /* \"#utility.yul\":21949:21953   */\n      dup2\n        /* \"#utility.yul\":21823:21954   */\n      tag_411\n      jump\t// in\n    tag_662:\n        /* \"#utility.yul\":21815:21954   */\n      swap1\n      pop\n        /* \"#utility.yul\":21542:21961   */\n      swap2\n      swap1\n      pop\n      jump\t// out\n        /* \"#utility.yul\":21967:22137   */\n    tag_412:\n        /* \"#utility.yul\":22107:22129   */\n      0x546f6b656e20646f6573206e6f74206578697374000000000000000000000000\n        /* \"#utility.yul\":22103:22104   */\n      0x00\n        /* \"#utility.yul\":22095:22101   */\n      dup3\n        /* \"#utility.yul\":22091:22105   */\n      add\n        /* \"#utility.yul\":22084:22130   */\n      mstore\n        /* \"#utility.yul\":21967:22137   */\n      pop\n      jump\t// out\n        /* \"#utility.yul\":22143:22509   */\n    tag_413:\n        /* \"#utility.yul\":22285:22288   */\n      0x00\n        /* \"#utility.yul\":22306:22373   */\n      tag_665\n        /* \"#utility.yul\":22370:22372   */\n      0x14\n        /* \"#utility.yul\":22365:22368   */\n      dup4\n        /* \"#utility.yul\":22306:22373   */\n      tag_386\n      jump\t// in\n    tag_665:\n        /* \"#utility.yul\":22299:22373   */\n      swap2\n      pop\n        /* \"#utility.yul\":22382:22475   */\n      tag_666\n        /* \"#utility.yul\":22471:22474   */\n      dup3\n        /* \"#utility.yul\":22382:22475   */\n      tag_412\n      jump\t// in\n    tag_666:\n        /* \"#utility.yul\":22500:22502   */\n      0x20\n        /* \"#utility.yul\":22495:22498   */\n      dup3\n        /* \"#utility.yul\":22491:22503   */\n      add\n        /* \"#utility.yul\":22484:22503   */\n      swap1\n      pop\n        /* \"#utility.yul\":22143:22509   */\n      swap2\n      swap1\n      pop\n      jump\t// out\n        /* \"#utility.yul\":22515:22934   */\n    tag_135:\n        /* \"#utility.yul\":22681:22685   */\n      0x00\n        /* \"#utility.yul\":22719:22721   */\n      0x20\n        /* \"#utility.yul\":22708:22717   */\n      dup3\n        /* \"#utility.yul\":22704:22722   */\n      add\n        /* \"#utility.yul\":22696:22722   */\n      swap1\n      pop\n        /* \"#utility.yul\":22768:22777   */\n      dup2\n        /* \"#utility.yul\":22762:22766   */\n      dup2\n        /* \"#utility.yul\":22758:22778   */\n      sub\n        /* \"#utility.yul\":22754:22755   */\n      0x00\n        /* \"#utility.yul\":22743:22752   */\n      dup4\n        /* \"#utility.yul\":22739:22756   */\n      add\n        /* \"#utility.yul\":22732:22779   */\n      mstore\n        /* \"#utility.yul\":22796:22927   */\n      tag_668\n        /* \"#utility.yul\":22922:22926   */\n      dup2\n        /* \"#utility.yul\":22796:22927   */\n      tag_413\n      jump\t// in\n    tag_668:\n        /* \"#utility.yul\":22788:22927   */\n      swap1\n      pop\n        /* \"#utility.yul\":22515:22934   */\n      swap2\n      swap1\n      pop\n      jump\t// out\n        /* \"#utility.yul\":22940:23114   */\n    tag_414:\n        /* \"#utility.yul\":23080:23106   */\n      0x526563697069656e74206e6f7420726567697374657265640000000000000000\n        /* \"#utility.yul\":23076:23077   */\n      0x00\n        /* \"#utility.yul\":23068:23074   */\n      dup3\n        /* \"#utility.yul\":23064:23078   */\n      add\n        /* \"#utility.yul\":23057:23107   */\n      mstore\n        /* \"#utility.yul\":22940:23114   */\n      pop\n      jump\t// out\n        /* \"#utility.yul\":23120:23486   */\n    tag_415:\n        /* \"#utility.yul\":23262:23265   */\n      0x00\n        /* \"#utility.yul\":23283:23350   */\n      tag_671\n        /* \"#utility.yul\":23347:23349   */\n      0x18\n        /* \"#utility.yul\":23342:23345   */\n      dup4\n        /* \"#utility.yul\":23283:23350   */\n      tag_386\n      jump\t// in\n    tag_671:\n        /* \"#utility.yul\":23276:23350   */\n      swap2\n      pop\n        /* \"#utility.yul\":23359:23452   */\n      tag_672\n        /* \"#utility.yul\":23448:23451   */\n      dup3\n        /* \"#utility.yul\":23359:23452   */\n      tag_414\n      jump\t// in\n    tag_672:\n        /* \"#utility.yul\":23477:23479   */\n      0x20\n        /* \"#utility.yul\":23472:23475   */\n      dup3\n        /* \"#utility.yul\":23468:23480   */\n      add\n        /* \"#utility.yul\":23461:23480   */\n      swap1\n      pop\n        /* \"#utility.yul\":23120:23486   */\n      swap2\n      swap1\n      pop\n      jump\t// out\n        /* \"#utility.yul\":23492:23911   */\n    tag_138:\n        /* \"#utility.yul\":23658:23662   */\n      0x00\n        /* \"#utility.yul\":23696:23698   */\n      0x20\n        /* \"#utility.yul\":23685:23694   */\n      dup3\n        /* \"#utility.yul\":23681:23699   */\n      add\n        /* \"#utility.yul\":23673:23699   */\n      swap1\n      pop\n        /* \"#utility.yul\":23745:23754   */\n      dup2\n        /* \"#utility.yul\":23739:23743   */\n      dup2\n        /* \"#utility.yul\":23735:23755   */\n      sub\n        /* \"#utility.yul\":23731:23732   */\n      0x00\n        /* \"#utility.yul\":23720:23729   */\n      dup4\n        /* \"#utility.yul\":23716:23733   */\n      add\n        /* \"#utility.yul\":23709:23756   */\n      mstore\n        /* \"#utility.yul\":23773:23904   */\n      tag_674\n        /* \"#utility.yul\":23899:23903   */\n      dup2\n        /* \"#utility.yul\":23773:23904   */\n      tag_415\n      jump\t// in\n    tag_674:\n        /* \"#utility.yul\":23765:23904   */\n      swap1\n      pop\n        /* \"#utility.yul\":23492:23911   */\n      swap2\n      swap1\n      pop\n      jump\t// out\n        /* \"#utility.yul\":23917:24091   */\n    tag_416:\n        /* \"#utility.yul\":24057:24083   */\n      0x436f6e73756d65722063616e6e6f74207472616e736665720000000000000000\n        /* \"#utility.yul\":24053:24054   */\n      0x00\n        /* \"#utility.yul\":24045:24051   */\n      dup3\n        /* \"#utility.yul\":24041:24055   */\n      add\n        /* \"#utility.yul\":24034:24084   */\n      mstore\n        /* \"#utility.yul\":23917:24091   */\n      pop\n      jump\t// out\n        /* \"#utility.yul\":24097:24463   */\n    tag_417:\n        /* \"#utility.yul\":24239:24242   */\n      0x00\n        /* \"#utility.yul\":24260:24327   */\n      tag_677\n        /* \"#utility.yul\":24324:24326   */\n      0x18\n        /* \"#utility.yul\":24319:24322   */\n      dup4\n        /* \"#utility.yul\":24260:24327   */\n      tag_386\n      jump\t// in\n    tag_677:\n        /* \"#utility.yul\":24253:24327   */\n      swap2\n      pop\n        /* \"#utility.yul\":24336:24429   */\n      tag_678\n        /* \"#utility.yul\":24425:24428   */\n      dup3\n        /* \"#utility.yul\":24336:24429   */\n      tag_416\n      jump\t// in\n    tag_678:\n        /* \"#utility.yul\":24454:24456   */\n      0x20\n        /* \"#utility.yul\":24449:24452   */\n      dup3\n        /* \"#utility.yul\":24445:24457   */\n      add\n        /* \"#utility.yul\":24438:24457   */\n      swap1\n      pop\n        /* \"#utility.yul\":24097:24463   */\n      swap2\n      swap1\n      pop\n      jump\t// out\n        /* \"#utility.yul\":24469:24888   */\n    tag_143:\n        /* \"#utility.yul\":24635:24639   */\n      0x00\n        /* \"#utility.yul\":24673:24675   */\n      0x20\n        /* \"#utility.yul\":24662:24671   */\n      dup3\n        /* \"#utility.yul\":24658:24676   */\n      add\n        /* \"#utility.yul\":24650:24676   */\n      swap1\n      pop\n        /* \"#utility.yul\":24722:24731   */\n      dup2\n        /* \"#utility.yul\":24716:24720   */\n      dup2\n        /* \"#utility.yul\":24712:24732   */\n      sub\n        /* \"#utility.yul\":24708:24709   */\n      0x00\n        /* \"#utility.yul\":24697:24706   */\n      dup4\n        /* \"#utility.yul\":24693:24710   */\n      add\n        /* \"#utility.yul\":24686:24733   */\n      mstore\n        /* \"#utility.yul\":24750:24881   */\n      tag_680\n        /* \"#utility.yul\":24876:24880   */\n      dup2\n        /* \"#utility.yul\":24750:24881   */\n      tag_417\n      jump\t// in\n    tag_680:\n        /* \"#utility.yul\":24742:24881   */\n      swap1\n      pop\n        /* \"#utility.yul\":24469:24888   */\n      swap2\n      swap1\n      pop\n      jump\t// out\n        /* \"#utility.yul\":24894:25067   */\n    tag_418:\n        /* \"#utility.yul\":25034:25059   */\n      0x496e76616c696420726f6c65207472616e736974696f6e000000000000000000\n        /* \"#utility.yul\":25030:25031   */\n      0x00\n        /* \"#utility.yul\":25022:25028   */\n      dup3\n        /* \"#utility.yul\":25018:25032   */\n      add\n        /* \"#utility.yul\":25011:25060   */\n      mstore\n        /* \"#utility.yul\":24894:25067   */\n      pop\n      jump\t// out\n        /* \"#utility.yul\":25073:25439   */\n    tag_419:\n        /* \"#utility.yul\":25215:25218   */\n      0x00\n        /* \"#utility.yul\":25236:25303   */\n      tag_683\n        /* \"#utility.yul\":25300:25302   */\n      0x17\n        /* \"#utility.yul\":25295:25298   */\n      dup4\n        /* \"#utility.yul\":25236:25303   */\n      tag_386\n      jump\t// in\n    tag_683:\n        /* \"#utility.yul\":25229:25303   */\n      swap2\n      pop\n        /* \"#utility.yul\":25312:25405   */\n      tag_684\n        /* \"#utility.yul\":25401:25404   */\n      dup3\n        /* \"#utility.yul\":25312:25405   */\n      tag_418\n      jump\t// in\n    tag_684:\n        /* \"#utility.yul\":25430:25432   */\n      0x20\n        /* \"#utility.yul\":25425:25428   */\n      dup3\n        /* \"#utility.yul\":25421:25433   */\n      add\n        /* \"#utility.yul\":25414:25433   */\n      swap1\n      pop\n        /* \"#utility.yul\":25073:25439   */\n      swap2\n      swap1\n      pop\n      jump\t// out\n        /* \"#utility.yul\":25445:25864   */\n    tag_148:\n        /* \"#utility.yul\":25611:25615   */\n      0x00\n        /* \"#utility.yul\":25649:25651   */\n      0x20\n        /* \"#utility.yul\":25638:25647   */\n      dup3\n        /* \"#utility.yul\":25634:25652   */\n      add\n        /* \"#utility.yul\":25626:25652   */\n      swap1\n      pop\n        /* \"#utility.yul\":25698:25707   */\n      dup2\n        /* \"#utility.yul\":25692:25696   */\n      dup2\n        /* \"#utility.yul\":25688:25708   */\n      sub\n        /* \"#utility.yul\":25684:25685   */\n      0x00\n        /* \"#utility.yul\":25673:25682   */\n      dup4\n        /* \"#utility.yul\":25669:25686   */\n      add\n        /* \"#utility.yul\":25662:25709   */\n      mstore\n        /* \"#utility.yul\":25726:25857   */\n      tag_686\n        /* \"#utility.yul\":25852:25856   */\n      dup2\n        /* \"#utility.yul\":25726:25857   */\n      tag_419\n      jump\t// in\n    tag_686:\n        /* \"#utility.yul\":25718:25857   */\n      swap1\n      pop\n        /* \"#utility.yul\":25445:25864   */\n      swap2\n      swap1\n      pop\n      jump\t// out\n        /* \"#utility.yul\":25870:26040   */\n    tag_420:\n        /* \"#utility.yul\":26010:26032   */\n      0x496e73756666696369656e742062616c616e6365000000000000000000000000\n        /* \"#utility.yul\":26006:26007   */\n      0x00\n        /* \"#utility.yul\":25998:26004   */\n      dup3\n        /* \"#utility.yul\":25994:26008   */\n      add\n        /* \"#utility.yul\":25987:26033   */\n      mstore\n        /* \"#utility.yul\":25870:26040   */\n      pop\n      jump\t// out\n        /* \"#utility.yul\":26046:26412   */\n    tag_421:\n        /* \"#utility.yul\":26188:26191   */\n      0x00\n        /* \"#utility.yul\":26209:26276   */\n      tag_689\n        /* \"#utility.yul\":26273:26275   */\n      0x14\n        /* \"#utility.yul\":26268:26271   */\n      dup4\n        /* \"#utility.yul\":26209:26276   */\n      tag_386\n      jump\t// in\n    tag_689:\n        /* \"#utility.yul\":26202:26276   */\n      swap2\n      pop\n        /* \"#utility.yul\":26285:26378   */\n      tag_690\n        /* \"#utility.yul\":26374:26377   */\n      dup3\n        /* \"#utility.yul\":26285:26378   */\n      tag_420\n      jump\t// in\n    tag_690:\n        /* \"#utility.yul\":26403:26405   */\n      0x20\n        /* \"#utility.yul\":26398:26401   */\n      dup3\n        /* \"#utility.yul\":26394:26406   */\n      add\n        /* \"#utility.yul\":26387:26406   */\n      swap1\n      pop\n        /* \"#utility.yul\":26046:26412   */\n      swap2\n      swap1\n      pop\n      jump\t// out\n        /* \"#utility.yul\":26418:26837   */\n    tag_151:\n        /* \"#utility.yul\":26584:26588   */\n      0x00\n        /* \"#utility.yul\":26622:26624   */\n      0x20\n        /* \"#utility.yul\":26611:26620   */\n      dup3\n        /* \"#utility.yul\":26607:26625   */\n      add\n        /* \"#utility.yul\":26599:26625   */\n      swap1\n      pop\n        /* \"#utility.yul\":26671:26680   */\n      dup2\n        /* \"#utility.yul\":26665:26669   */\n      dup2\n        /* \"#utility.yul\":26661:26681   */\n      sub\n        /* \"#utility.yul\":26657:26658   */\n      0x00\n        /* \"#utility.yul\":26646:26655   */\n      dup4\n        /* \"#utility.yul\":26642:26659   */\n      add\n        /* \"#utility.yul\":26635:26682   */\n      mstore\n        /* \"#utility.yul\":26699:26830   */\n      tag_692\n        /* \"#utility.yul\":26825:26829   */\n      dup2\n        /* \"#utility.yul\":26699:26830   */\n      tag_421\n      jump\t// in\n    tag_692:\n        /* \"#utility.yul\":26691:26830   */\n      swap1\n      pop\n        /* \"#utility.yul\":26418:26837   */\n      swap2\n      swap1\n      pop\n      jump\t// out\n        /* \"#utility.yul\":26843:27023   */\n    tag_422:\n        /* \"#utility.yul\":26891:26968   */\n      0x4e487b7100000000000000000000000000000000000000000000000000000000\n        /* \"#utility.yul\":26888:26889   */\n      0x00\n        /* \"#utility.yul\":26881:26969   */\n      mstore\n        /* \"#utility.yul\":26988:26992   */\n      0x11\n        /* \"#utility.yul\":26985:26986   */\n      0x04\n        /* \"#utility.yul\":26978:26993   */\n      mstore\n        /* \"#utility.yul\":27012:27016   */\n      0x24\n        /* \"#utility.yul\":27009:27010   */\n      0x00\n        /* \"#utility.yul\":27002:27017   */\n      revert\n        /* \"#utility.yul\":27029:27223   */\n    tag_153:\n        /* \"#utility.yul\":27069:27073   */\n      0x00\n        /* \"#utility.yul\":27089:27109   */\n      tag_695\n        /* \"#utility.yul\":27107:27108   */\n      dup3\n        /* \"#utility.yul\":27089:27109   */\n      tag_365\n      jump\t// in\n    tag_695:\n        /* \"#utility.yul\":27084:27109   */\n      swap2\n      pop\n        /* \"#utility.yul\":27123:27143   */\n      tag_696\n        /* \"#utility.yul\":27141:27142   */\n      dup4\n        /* \"#utility.yul\":27123:27143   */\n      tag_365\n      jump\t// in\n    tag_696:\n        /* \"#utility.yul\":27118:27143   */\n      swap3\n      pop\n        /* \"#utility.yul\":27167:27168   */\n      dup3\n        /* \"#utility.yul\":27164:27165   */\n      dup3\n        /* \"#utility.yul\":27160:27169   */\n      sub\n        /* \"#utility.yul\":27152:27169   */\n      swap1\n      pop\n        /* \"#utility.yul\":27191:27192   */\n      dup2\n        /* \"#utility.yul\":27185:27189   */\n      dup2\n        /* \"#utility.yul\":27182:27193   */\n      gt\n        /* \"#utility.yul\":27179:27216   */\n      iszero\n      tag_697\n      jumpi\n        /* \"#utility.yul\":27196:27214   */\n      tag_698\n      tag_422\n      jump\t// in\n    tag_698:\n        /* \"#utility.yul\":27179:27216   */\n    tag_697:\n        /* \"#utility.yul\":27029:27223   */\n      swap3\n      swap2\n      pop\n      pop\n      jump\t// out\n        /* \"#utility.yul\":27229:27420   */\n    tag_155:\n        /* \"#utility.yul\":27269:27272   */\n      0x00\n        /* \"#utility.yul\":27288:27308   */\n      tag_700\n        /* \"#utility.yul\":27306:27307   */\n      dup3\n        /* \"#utility.yul\":27288:27308   */\n      tag_365\n      jump\t// in\n    tag_700:\n        /* \"#utility.yul\":27283:27308   */\n      swap2\n      pop\n        /* \"#utility.yul\":27322:27342   */\n      tag_701\n        /* \"#utility.yul\":27340:27341   */\n      dup4\n        /* \"#utility.yul\":27322:27342   */\n      tag_365\n      jump\t// in\n    tag_701:\n        /* \"#utility.yul\":27317:27342   */\n      swap3\n      pop\n        /* \"#utility.yul\":27365:27366   */\n      dup3\n        /* \"#utility.yul\":27362:27363   */\n      dup3\n        /* \"#utility.yul\":27358:27367   */\n      add\n        /* \"#utility.yul\":27351:27367   */\n      swap1\n      pop\n        /* \"#utility.yul\":27386:27389   */\n      dup1\n        /* \"#utility.yul\":27383:27384   */\n      dup3\n        /* \"#utility.yul\":27380:27390   */\n      gt\n        /* \"#utility.yul\":27377:27413   */\n      iszero\n      tag_702\n      jumpi\n        /* \"#utility.yul\":27393:27411   */\n      tag_703\n      tag_422\n      jump\t// in\n    tag_703:\n        /* \"#utility.yul\":27377:27413   */\n    tag_702:\n        /* \"#utility.yul\":27229:27420   */\n      swap3\n      swap2\n      pop\n      pop\n      jump\t// out\n        /* \"#utility.yul\":27426:27659   */\n    tag_157:\n        /* \"#utility.yul\":27465:27468   */\n      0x00\n        /* \"#utility.yul\":27488:27512   */\n      tag_705\n        /* \"#utility.yul\":27506:27511   */\n      dup3\n        /* \"#utility.yul\":27488:27512   */\n      tag_365\n      jump\t// in\n    tag_705:\n        /* \"#utility.yul\":27479:27512   */\n      swap2\n      pop\n        /* \"#utility.yul\":27534:27600   */\n      0xffffffffffffffffffffffffffffffffffffffffffffffffffffffffffffffff\n        /* \"#utility.yul\":27527:27532   */\n      dup3\n        /* \"#utility.yul\":27524:27601   */\n      sub\n        /* \"#utility.yul\":27521:27624   */\n      tag_706\n      jumpi\n        /* \"#utility.yul\":27604:27622   */\n      tag_707\n      tag_422\n      jump\t// in\n    tag_707:\n        /* \"#utility.yul\":27521:27624   */\n    tag_706:\n        /* \"#utility.yul\":27651:27652   */\n      0x01\n        /* \"#utility.yul\":27644:27649   */\n      dup3\n        /* \"#utility.yul\":27640:27653   */\n      add\n        /* \"#utility.yul\":27633:27653   */\n      swap1\n      pop\n        /* \"#utility.yul\":27426:27659   */\n      swap2\n      swap1\n      pop\n      jump\t// out\n        /* \"#utility.yul\":27665:27997   */\n    tag_163:\n        /* \"#utility.yul\":27786:27790   */\n      0x00\n        /* \"#utility.yul\":27824:27826   */\n      0x40\n        /* \"#utility.yul\":27813:27822   */\n      dup3\n        /* \"#utility.yul\":27809:27827   */\n      add\n        /* \"#utility.yul\":27801:27827   */\n      swap1\n      pop\n        /* \"#utility.yul\":27837:27908   */\n      tag_709\n        /* \"#utility.yul\":27905:27906   */\n      0x00\n        /* \"#utility.yul\":27894:27903   */\n      dup4\n        /* \"#utility.yul\":27890:27907   */\n      add\n        /* \"#utility.yul\":27881:27887   */\n      dup6\n        /* \"#utility.yul\":27837:27908   */\n      tag_375\n      jump\t// in\n    tag_709:\n        /* \"#utility.yul\":27918:27990   */\n      tag_710\n        /* \"#utility.yul\":27986:27988   */\n      0x20\n        /* \"#utility.yul\":27975:27984   */\n      dup4\n        /* \"#utility.yul\":27971:27989   */\n      add\n        /* \"#utility.yul\":27962:27968   */\n      dup5\n        /* \"#utility.yul\":27918:27990   */\n      tag_375\n      jump\t// in\n    tag_710:\n        /* \"#utility.yul\":27665:27997   */\n      swap4\n      swap3\n      pop\n      pop\n      pop\n      jump\t// out\n        /* \"#utility.yul\":28003:28164   */\n    tag_423:\n        /* \"#utility.yul\":28143:28156   */\n      0x4e6f742070656e64696e67000000000000000000000000000000000000000000\n        /* \"#utility.yul\":28139:28140   */\n      0x00\n        /* \"#utility.yul\":28131:28137   */\n      dup3\n        /* \"#utility.yul\":28127:28141   */\n      add\n        /* \"#utility.yul\":28120:28157   */\n      mstore\n        /* \"#utility.yul\":28003:28164   */\n      pop\n      jump\t// out\n        /* \"#utility.yul\":28170:28536   */\n    tag_424:\n        /* \"#utility.yul\":28312:28315   */\n      0x00\n        /* \"#utility.yul\":28333:28400   */\n      tag_713\n        /* \"#utility.yul\":28397:28399   */\n      0x0b\n        /* \"#utility.yul\":28392:28395   */\n      dup4\n        /* \"#utility.yul\":28333:28400   */\n      tag_386\n      jump\t// in\n    tag_713:\n        /* \"#utility.yul\":28326:28400   */\n      swap2\n      pop\n        /* \"#utility.yul\":28409:28502   */\n      tag_714\n        /* \"#utility.yul\":28498:28501   */\n      dup3\n        /* \"#utility.yul\":28409:28502   */\n      tag_423\n      jump\t// in\n    tag_714:\n        /* \"#utility.yul\":28527:28529   */\n      0x20\n        /* \"#utility.yul\":28522:28525   */\n      dup3\n        /* \"#utility.yul\":28518:28530   */\n      add\n        /* \"#utility.yul\":28511:28530   */\n      swap1\n      pop\n        /* \"#utility.yul\":28170:28536   */\n      swap2\n      swap1\n      pop\n      jump\t// out\n        /* \"#utility.yul\":28542:28961   */\n    tag_175:\n        /* \"#utility.yul\":28708:28712   */\n      0x00\n        /* \"#utility.yul\":28746:28748   */\n      0x20\n        /* \"#utility.yul\":28735:28744   */\n      dup3\n        /* \"#utility.yul\":28731:28749   */\n      add\n        /* \"#utility.yul\":28723:28749   */\n      swap1\n      pop\n        /* \"#utility.yul\":28795:28804   */\n      dup2\n        /* \"#utility.yul\":28789:28793   */\n      dup2\n        /* \"#utility.yul\":28785:28805   */\n      sub\n        /* \"#utility.yul\":28781:28782   */\n      0x00\n        /* \"#utility.yul\":28770:28779   */\n      dup4\n        /* \"#utility.yul\":28766:28783   */\n      add\n        /* \"#utility.yul\":28759:28806   */\n      mstore\n        /* \"#utility.yul\":28823:28954   */\n      tag_716\n        /* \"#utility.yul\":28949:28953   */\n      dup2\n        /* \"#utility.yul\":28823:28954   */\n      tag_424\n      jump\t// in\n    tag_716:\n        /* \"#utility.yul\":28815:28954   */\n      swap1\n      pop\n        /* \"#utility.yul\":28542:28961   */\n      swap2\n      swap1\n      pop\n      jump\t// out\n        /* \"#utility.yul\":28967:29131   */\n    tag_425:\n        /* \"#utility.yul\":29107:29123   */\n      0x4e6f7420617574686f72697a6564000000000000000000000000000000000000\n        /* \"#utility.yul\":29103:29104   */\n      0x00\n        /* \"#utility.yul\":29095:29101   */\n      dup3\n        /* \"#utility.yul\":29091:29105   */\n      add\n        /* \"#utility.yul\":29084:29124   */\n      mstore\n        /* \"#utility.yul\":28967:29131   */\n      pop\n      jump\t// out\n        /* \"#utility.yul\":29137:29503   */\n    tag_426:\n        /* \"#utility.yul\":29279:29282   */\n      0x00\n        /* \"#utility.yul\":29300:29367   */\n      tag_719\n        /* \"#utility.yul\":29364:29366   */\n      0x0e\n        /* \"#utility.yul\":29359:29362   */\n      dup4\n        /* \"#utility.yul\":29300:29367   */\n      tag_386\n      jump\t// in\n    tag_719:\n        /* \"#utility.yul\":29293:29367   */\n      swap2\n      pop\n        /* \"#utility.yul\":29376:29469   */\n      tag_720\n        /* \"#utility.yul\":29465:29468   */\n      dup3\n        /* \"#utility.yul\":29376:29469   */\n      tag_425\n      jump\t// in\n    tag_720:\n        /* \"#utility.yul\":29494:29496   */\n      0x20\n        /* \"#utility.yul\":29489:29492   */\n      dup3\n        /* \"#utility.yul\":29485:29497   */\n      add\n        /* \"#utility.yul\":29478:29497   */\n      swap1\n      pop\n        /* \"#utility.yul\":29137:29503   */\n      swap2\n      swap1\n      pop\n      jump\t// out\n        /* \"#utility.yul\":29509:29928   */\n    tag_179:\n        /* \"#utility.yul\":29675:29679   */\n      0x00\n        /* \"#utility.yul\":29713:29715   */\n      0x20\n        /* \"#utility.yul\":29702:29711   */\n      dup3\n        /* \"#utility.yul\":29698:29716   */\n      add\n        /* \"#utility.yul\":29690:29716   */\n      swap1\n      pop\n        /* \"#utility.yul\":29762:29771   */\n      dup2\n        /* \"#utility.yul\":29756:29760   */\n      dup2\n        /* \"#utility.yul\":29752:29772   */\n      sub\n        /* \"#utility.yul\":29748:29749   */\n      0x00\n        /* \"#utility.yul\":29737:29746   */\n      dup4\n        /* \"#utility.yul\":29733:29750   */\n      add\n        /* \"#utility.yul\":29726:29773   */\n      mstore\n        /* \"#utility.yul\":29790:29921   */\n      tag_722\n        /* \"#utility.yul\":29916:29920   */\n      dup2\n        /* \"#utility.yul\":29790:29921   */\n      tag_426\n      jump\t// in\n    tag_722:\n        /* \"#utility.yul\":29782:29921   */\n      swap1\n      pop\n        /* \"#utility.yul\":29509:29928   */\n      swap2\n      swap1\n      pop\n      jump\t// out\n        /* \"#utility.yul\":29934:30097   */\n    tag_427:\n        /* \"#utility.yul\":30074:30089   */\n      0x4e6f7420726563697069656e7400000000000000000000000000000000000000\n        /* \"#utility.yul\":30070:30071   */\n      0x00\n        /* \"#utility.yul\":30062:30068   */\n      dup3\n        /* \"#utility.yul\":30058:30072   */\n      add\n        /* \"#utility.yul\":30051:30090   */\n      mstore\n        /* \"#utility.yul\":29934:30097   */\n      pop\n      jump\t// out\n        /* \"#utility.yul\":30103:30469   */\n    tag_428:\n        /* \"#utility.yul\":30245:30248   */\n      0x00\n        /* \"#utility.yul\":30266:30333   */\n      tag_725\n        /* \"#utility.yul\":30330:30332   */\n      0x0d\n        /* \"#utility.yul\":30325:30328   */\n      dup4\n        /* \"#utility.yul\":30266:30333   */\n      tag_386\n      jump\t// in\n    tag_725:\n        /* \"#utility.yul\":30259:30333   */\n      swap2\n      pop\n        /* \"#utility.yul\":30342:30435   */\n      tag_726\n        /* \"#utility.yul\":30431:30434   */\n      dup3\n        /* \"#utility.yul\":30342:30435   */\n      tag_427\n      jump\t// in\n    tag_726:\n        /* \"#utility.yul\":30460:30462   */\n      0x20\n        /* \"#utility.yul\":30455:30458   */\n      dup3\n        /* \"#utility.yul\":30451:30463   */\n      add\n        /* \"#utility.yul\":30444:30463   */\n      swap1\n      pop\n        /* \"#utility.yul\":30103:30469   */\n      swap2\n      swap1\n      pop\n      jump\t// out\n        /* \"#utility.yul\":30475:30894   */\n    tag_201:\n        /* \"#utility.yul\":30641:30645   */\n      0x00\n        /* \"#utility.yul\":30679:30681   */\n      0x20\n        /* \"#utility.yul\":30668:30677   */\n      dup3\n        /* \"#utility.yul\":30664:30682   */\n      add\n        /* \"#utility.yul\":30656:30682   */\n      swap1\n      pop\n        /* \"#utility.yul\":30728:30737   */\n      dup2\n        /* \"#utility.yul\":30722:30726   */\n      dup2\n        /* \"#utility.yul\":30718:30738   */\n      sub\n        /* \"#utility.yul\":30714:30715   */\n      0x00\n        /* \"#utility.yul\":30703:30712   */\n      dup4\n        /* \"#utility.yul\":30699:30716   */\n      add\n        /* \"#utility.yul\":30692:30739   */\n      mstore\n        /* \"#utility.yul\":30756:30887   */\n      tag_728\n        /* \"#utility.yul\":30882:30886   */\n      dup2\n        /* \"#utility.yul\":30756:30887   */\n      tag_428\n      jump\t// in\n    tag_728:\n        /* \"#utility.yul\":30748:30887   */\n      swap1\n      pop\n        /* \"#utility.yul\":30475:30894   */\n      swap2\n      swap1\n      pop\n      jump\t// out\n        /* \"#utility.yul\":30900:31080   */\n    tag_211:\n        /* \"#utility.yul\":30948:31025   */\n      0x4e487b7100000000000000000000000000000000000000000000000000000000\n        /* \"#utility.yul\":30945:30946   */\n      0x00\n        /* \"#utility.yul\":30938:31026   */\n      mstore\n        /* \"#utility.yul\":31045:31049   */\n      0x41\n        /* \"#utility.yul\":31042:31043   */\n      0x04\n        /* \"#utility.yul\":31035:31050   */\n      mstore\n        /* \"#utility.yul\":31069:31073   */\n      0x24\n        /* \"#utility.yul\":31066:31067   */\n      0x00\n        /* \"#utility.yul\":31059:31074   */\n      revert\n        /* \"#utility.yul\":31086:31266   */\n    tag_221:\n        /* \"#utility.yul\":31134:31211   */\n      0x4e487b7100000000000000000000000000000000000000000000000000000000\n        /* \"#utility.yul\":31131:31132   */\n      0x00\n        /* \"#utility.yul\":31124:31212   */\n      mstore\n        /* \"#utility.yul\":31231:31235   */\n      0x32\n        /* \"#utility.yul\":31228:31229   */\n      0x04\n        /* \"#utility.yul\":31221:31236   */\n      mstore\n        /* \"#utility.yul\":31255:31259   */\n      0x24\n        /* \"#utility.yul\":31252:31253   */\n      0x00\n        /* \"#utility.yul\":31245:31260   */\n      revert\n        /* \"#utility.yul\":31272:31434   */\n    tag_429:\n        /* \"#utility.yul\":31412:31426   */\n      0x496e76616c696420726f6c650000000000000000000000000000000000000000\n        /* \"#utility.yul\":31408:31409   */\n      0x00\n        /* \"#utility.yul\":31400:31406   */\n      dup3\n        /* \"#utility.yul\":31396:31410   */\n      add\n        /* \"#utility.yul\":31389:31427   */\n      mstore\n        /* \"#utility.yul\":31272:31434   */\n      pop\n      jump\t// out\n        /* \"#utility.yul\":31440:31806   */\n    tag_430:\n        /* \"#utility.yul\":31582:31585   */\n      0x00\n        /* \"#utility.yul\":31603:31670   */\n      tag_733\n        /* \"#utility.yul\":31667:31669   */\n      0x0c\n        /* \"#utility.yul\":31662:31665   */\n      dup4\n        /* \"#utility.yul\":31603:31670   */\n      tag_386\n      jump\t// in\n    tag_733:\n        /* \"#utility.yul\":31596:31670   */\n      swap2\n      pop\n        /* \"#utility.yul\":31679:31772   */\n      tag_734\n        /* \"#utility.yul\":31768:31771   */\n      dup3\n        /* \"#utility.yul\":31679:31772   */\n      tag_429\n      jump\t// in\n    tag_734:\n        /* \"#utility.yul\":31797:31799   */\n      0x20\n        /* \"#utility.yul\":31792:31795   */\n      dup3\n        /* \"#utility.yul\":31788:31800   */\n      add\n        /* \"#utility.yul\":31781:31800   */\n      swap1\n      pop\n        /* \"#utility.yul\":31440:31806   */\n      swap2\n      swap1\n      pop\n      jump\t// out\n        /* \"#utility.yul\":31812:32231   */\n    tag_235:\n        /* \"#utility.yul\":31978:31982   */\n      0x00\n        /* \"#utility.yul\":32016:32018   */\n      0x20\n        /* \"#utility.yul\":32005:32014   */\n      dup3\n        /* \"#utility.yul\":32001:32019   */\n      add\n        /* \"#utility.yul\":31993:32019   */\n      swap1\n      pop\n        /* \"#utility.yul\":32065:32074   */\n      dup2\n        /* \"#utility.yul\":32059:32063   */\n      dup2\n        /* \"#utility.yul\":32055:32075   */\n      sub\n        /* \"#utility.yul\":32051:32052   */\n      0x00\n        /* \"#utility.yul\":32040:32049   */\n      dup4\n        /* \"#utility.yul\":32036:32053   */\n      add\n        /* \"#utility.yul\":32029:32076   */\n      mstore\n        /* \"#utility.yul\":32093:32224   */\n      tag_736\n        /* \"#utility.yul\":32219:32223   */\n      dup2\n        /* \"#utility.yul\":32093:32224   */\n      tag_430\n      jump\t// in\n    tag_736:\n        /* \"#utility.yul\":32085:32224   */\n      swap1\n      pop\n        /* \"#utility.yul\":31812:32231   */\n      swap2\n      swap1\n      pop\n      jump\t// out\n        /* \"#utility.yul\":32237:32459   */\n    tag_246:\n        /* \"#utility.yul\":32330:32334   */\n      0x00\n        /* \"#utility.yul\":32368:32370   */\n      0x20\n        /* \"#utility.yul\":32357:32366   */\n      dup3\n        /* \"#utility.yul\":32353:32371   */\n      add\n        /* \"#utility.yul\":32345:32371   */\n      swap1\n      pop\n        /* \"#utility.yul\":32381:32452   */\n      tag_738\n        /* \"#utility.yul\":32449:32450   */\n      0x00\n        /* \"#utility.yul\":32438:32447   */\n      dup4\n        /* \"#utility.yul\":32434:32451   */\n      add\n        /* \"#utility.yul\":32425:32431   */\n      dup5\n        /* \"#utility.yul\":32381:32452   */\n      tag_378\n      jump\t// in\n    tag_738:\n        /* \"#utility.yul\":32237:32459   */\n      swap3\n      swap2\n      pop\n      pop\n      jump\t// out\n        /* \"#utility.yul\":32465:32709   */\n    tag_248:\n        /* \"#utility.yul\":32569:32573   */\n      0x00\n        /* \"#utility.yul\":32607:32609   */\n      0x20\n        /* \"#utility.yul\":32596:32605   */\n      dup3\n        /* \"#utility.yul\":32592:32610   */\n      add\n        /* \"#utility.yul\":32584:32610   */\n      swap1\n      pop\n        /* \"#utility.yul\":32620:32702   */\n      tag_740\n        /* \"#utility.yul\":32699:32700   */\n      0x00\n        /* \"#utility.yul\":32688:32697   */\n      dup4\n        /* \"#utility.yul\":32684:32701   */\n      add\n        /* \"#utility.yul\":32675:32681   */\n      dup5\n        /* \"#utility.yul\":32620:32702   */\n      tag_382\n      jump\t// in\n    tag_740:\n        /* \"#utility.yul\":32465:32709   */\n      swap3\n      swap2\n      pop\n      pop\n      jump\t// out\n        /* \"#utility.yul\":32715:32895   */\n    tag_431:\n        /* \"#utility.yul\":32763:32840   */\n      0x4e487b7100000000000000000000000000000000000000000000000000000000\n        /* \"#utility.yul\":32760:32761   */\n      0x00\n        /* \"#utility.yul\":32753:32841   */\n      mstore\n        /* \"#utility.yul\":32860:32864   */\n      0x22\n        /* \"#utility.yul\":32857:32858   */\n      0x04\n        /* \"#utility.yul\":32850:32865   */\n      mstore\n        /* \"#utility.yul\":32884:32888   */\n      0x24\n        /* \"#utility.yul\":32881:32882   */\n      0x00\n        /* \"#utility.yul\":32874:32889   */\n      revert\n        /* \"#utility.yul\":32901:33221   */\n    tag_250:\n        /* \"#utility.yul\":32945:32951   */\n      0x00\n        /* \"#utility.yul\":32982:32983   */\n      0x02\n        /* \"#utility.yul\":32976:32980   */\n      dup3\n        /* \"#utility.yul\":32972:32984   */\n      div\n        /* \"#utility.yul\":32962:32984   */\n      swap1\n      pop\n        /* \"#utility.yul\":33029:33030   */\n      0x01\n        /* \"#utility.yul\":33023:33027   */\n      dup3\n        /* \"#utility.yul\":33019:33031   */\n      and\n        /* \"#utility.yul\":33050:33068   */\n      dup1\n        /* \"#utility.yul\":33040:33121   */\n      tag_743\n      jumpi\n        /* \"#utility.yul\":33106:33110   */\n      0x7f\n        /* \"#utility.yul\":33098:33104   */\n      dup3\n        /* \"#utility.yul\":33094:33111   */\n      and\n        /* \"#utility.yul\":33084:33111   */\n      swap2\n      pop\n        /* \"#utility.yul\":33040:33121   */\n    tag_743:\n        /* \"#utility.yul\":33168:33170   */\n      0x20\n        /* \"#utility.yul\":33160:33166   */\n      dup3\n        /* \"#utility.yul\":33157:33171   */\n      lt\n        /* \"#utility.yul\":33137:33155   */\n      dup2\n        /* \"#utility.yul\":33134:33172   */\n      sub\n        /* \"#utility.yul\":33131:33215   */\n      tag_744\n      jumpi\n        /* \"#utility.yul\":33187:33205   */\n      tag_745\n      tag_431\n      jump\t// in\n    tag_745:\n        /* \"#utility.yul\":33131:33215   */\n    tag_744:\n        /* \"#utility.yul\":32952:33221   */\n      pop\n        /* \"#utility.yul\":32901:33221   */\n      swap2\n      swap1\n      pop\n      jump\t// out\n        /* \"#utility.yul\":33227:33386   */\n    tag_432:\n        /* \"#utility.yul\":33367:33378   */\n      0x4e6f742061646d696e0000000000000000000000000000000000000000000000\n        /* \"#utility.yul\":33363:33364   */\n      0x00\n        /* \"#utility.yul\":33355:33361   */\n      dup3\n        /* \"#utility.yul\":33351:33365   */\n      add\n        /* \"#utility.yul\":33344:33379   */\n      mstore\n        /* \"#utility.yul\":33227:33386   */\n      pop\n      jump\t// out\n        /* \"#utility.yul\":33392:33757   */\n    tag_433:\n        /* \"#utility.yul\":33534:33537   */\n      0x00\n        /* \"#utility.yul\":33555:33621   */\n      tag_748\n        /* \"#utility.yul\":33619:33620   */\n      0x09\n        /* \"#utility.yul\":33614:33617   */\n      dup4\n        /* \"#utility.yul\":33555:33621   */\n      tag_386\n      jump\t// in\n    tag_748:\n        /* \"#utility.yul\":33548:33621   */\n      swap2\n      pop\n        /* \"#utility.yul\":33630:33723   */\n      tag_749\n        /* \"#utility.yul\":33719:33722   */\n      dup3\n        /* \"#utility.yul\":33630:33723   */\n      tag_432\n      jump\t// in\n    tag_749:\n        /* \"#utility.yul\":33748:33750   */\n      0x20\n        /* \"#utility.yul\":33743:33746   */\n      dup3\n        /* \"#utility.yul\":33739:33751   */\n      add\n        /* \"#utility.yul\":33732:33751   */\n      swap1\n      pop\n        /* \"#utility.yul\":33392:33757   */\n      swap2\n      swap1\n      pop\n      jump\t// out\n        /* \"#utility.yul\":33763:34182   */\n    tag_297:\n        /* \"#utility.yul\":33929:33933   */\n      0x00\n        /* \"#utility.yul\":33967:33969   */\n      0x20\n        /* \"#utility.yul\":33956:33965   */\n      dup3\n        /* \"#utility.yul\":33952:33970   */\n      add\n        /* \"#utility.yul\":33944:33970   */\n      swap1\n      pop\n        /* \"#utility.yul\":34016:34025   */\n      dup2\n        /* \"#utility.yul\":34010:34014   */\n      dup2\n        /* \"#utility.yul\":34006:34026   */\n      sub\n        /* \"#utility.yul\":34002:34003   */\n      0x00\n        /* \"#utility.yul\":33991:34000   */\n      dup4\n        /* \"#utility.yul\":33987:34004   */\n      add\n        /* \"#utility.yul\":33980:34027   */\n      mstore\n        /* \"#utility.yul\":34044:34175   */\n      tag_751\n        /* \"#utility.yul\":34170:34174   */\n      dup2\n        /* \"#utility.yul\":34044:34175   */\n      tag_433\n      jump\t// in\n    tag_751:\n        /* \"#utility.yul\":34036:34175   */\n      swap1\n      pop\n        /* \"#utility.yul\":33763:34182   */\n      swap2\n      swap1\n      pop\n      jump\t// out\n        /* \"#utility.yul\":34188:34352   */\n    tag_434:\n        /* \"#utility.yul\":34328:34344   */\n      0x55736572206e6f7420666f756e64000000000000000000000000000000000000\n        /* \"#utility.yul\":34324:34325   */\n      0x00\n        /* \"#utility.yul\":34316:34322   */\n      dup3\n        /* \"#utility.yul\":34312:34326   */\n      add\n        /* \"#utility.yul\":34305:34345   */\n      mstore\n        /* \"#utility.yul\":34188:34352   */\n      pop\n      jump\t// out\n        /* \"#utility.yul\":34358:34724   */\n    tag_435:\n        /* \"#utility.yul\":34500:34503   */\n      0x00\n        /* \"#utility.yul\":34521:34588   */\n      tag_754\n        /* \"#utility.yul\":34585:34587   */\n      0x0e\n        /* \"#utility.yul\":34580:34583   */\n      dup4\n        /* \"#utility.yul\":34521:34588   */\n      tag_386\n      jump\t// in\n    tag_754:\n        /* \"#utility.yul\":34514:34588   */\n      swap2\n      pop\n        /* \"#utility.yul\":34597:34690   */\n      tag_755\n        /* \"#utility.yul\":34686:34689   */\n      dup3\n        /* \"#utility.yul\":34597:34690   */\n      tag_434\n      jump\t// in\n    tag_755:\n        /* \"#utility.yul\":34715:34717   */\n      0x20\n        /* \"#utility.yul\":34710:34713   */\n      dup3\n        /* \"#utility.yul\":34706:34718   */\n      add\n        /* \"#utility.yul\":34699:34718   */\n      swap1\n      pop\n        /* \"#utility.yul\":34358:34724   */\n      swap2\n      swap1\n      pop\n      jump\t// out\n        /* \"#utility.yul\":34730:35149   */\n    tag_301:\n        /* \"#utility.yul\":34896:34900   */\n      0x00\n        /* \"#utility.yul\":34934:34936   */\n      0x20\n        /* \"#utility.yul\":34923:34932   */\n      dup3\n        /* \"#utility.yul\":34919:34937   */\n      add\n        /* \"#utility.yul\":34911:34937   */\n      swap1\n      pop\n        /* \"#utility.yul\":34983:34992   */\n      dup2\n        /* \"#utility.yul\":34977:34981   */\n      dup2\n        /* \"#utility.yul\":34973:34993   */\n      sub\n        /* \"#utility.yul\":34969:34970   */\n      0x00\n        /* \"#utility.yul\":34958:34967   */\n      dup4\n        /* \"#utility.yul\":34954:34971   */\n      add\n        /* \"#utility.yul\":34947:34994   */\n      mstore\n        /* \"#utility.yul\":35011:35142   */\n      tag_757\n        /* \"#utility.yul\":35137:35141   */\n      dup2\n        /* \"#utility.yul\":35011:35142   */\n      tag_435\n      jump\t// in\n    tag_757:\n        /* \"#utility.yul\":35003:35142   */\n      swap1\n      pop\n        /* \"#utility.yul\":34730:35149   */\n      swap2\n      swap1\n      pop\n      jump\t// out\n        /* \"#utility.yul\":35155:35315   */\n    tag_436:\n        /* \"#utility.yul\":35295:35307   */\n      0x4e616d6520656d70747900000000000000000000000000000000000000000000\n        /* \"#utility.yul\":35291:35292   */\n      0x00\n        /* \"#utility.yul\":35283:35289   */\n      dup3\n        /* \"#utility.yul\":35279:35293   */\n      add\n        /* \"#utility.yul\":35272:35308   */\n      mstore\n        /* \"#utility.yul\":35155:35315   */\n      pop\n      jump\t// out\n        /* \"#utility.yul\":35321:35687   */\n    tag_437:\n        /* \"#utility.yul\":35463:35466   */\n      0x00\n        /* \"#utility.yul\":35484:35551   */\n      tag_760\n        /* \"#utility.yul\":35548:35550   */\n      0x0a\n        /* \"#utility.yul\":35543:35546   */\n      dup4\n        /* \"#utility.yul\":35484:35551   */\n      tag_386\n      jump\t// in\n    tag_760:\n        /* \"#utility.yul\":35477:35551   */\n      swap2\n      pop\n        /* \"#utility.yul\":35560:35653   */\n      tag_761\n        /* \"#utility.yul\":35649:35652   */\n      dup3\n        /* \"#utility.yul\":35560:35653   */\n      tag_436\n      jump\t// in\n    tag_761:\n        /* \"#utility.yul\":35678:35680   */\n      0x20\n        /* \"#utility.yul\":35673:35676   */\n      dup3\n        /* \"#utility.yul\":35669:35681   */\n      add\n        /* \"#utility.yul\":35662:35681   */\n      swap1\n      pop\n        /* \"#utility.yul\":35321:35687   */\n      swap2\n      swap1\n      pop\n      jump\t// out\n        /* \"#utility.yul\":35693:36112   */\n    tag_323:\n        /* \"#utility.yul\":35859:35863   */\n      0x00\n        /* \"#utility.yul\":35897:35899   */\n      0x20\n        /* \"#utility.yul\":35886:35895   */\n      dup3\n        /* \"#utility.yul\":35882:35900   */\n      add\n        /* \"#utility.yul\":35874:35900   */\n      swap1\n      pop\n        /* \"#utility.yul\":35946:35955   */\n      dup2\n        /* \"#utility.yul\":35940:35944   */\n      dup2\n        /* \"#utility.yul\":35936:35956   */\n      sub\n        /* \"#utility.yul\":35932:35933   */\n      0x00\n        /* \"#utility.yul\":35921:35930   */\n      dup4\n        /* \"#utility.yul\":35917:35934   */\n      add\n        /* \"#utility.yul\":35910:35957   */\n      mstore\n        /* \"#utility.yul\":35974:36105   */\n      tag_763\n        /* \"#utility.yul\":36100:36104   */\n      dup2\n        /* \"#utility.yul\":35974:36105   */\n      tag_437\n      jump\t// in\n    tag_763:\n        /* \"#utility.yul\":35966:36105   */\n      swap1\n      pop\n        /* \"#utility.yul\":35693:36112   */\n      swap2\n      swap1\n      pop\n      jump\t// out\n        /* \"#utility.yul\":36118:36215   */\n    tag_438:\n        /* \"#utility.yul\":36177:36183   */\n      0x00\n        /* \"#utility.yul\":36205:36208   */\n      dup3\n        /* \"#utility.yul\":36195:36208   */\n      swap1\n      pop\n        /* \"#utility.yul\":36118:36215   */\n      swap3\n      swap2\n      pop\n      pop\n      jump\t// out\n        /* \"#utility.yul\":36221:36362   */\n    tag_439:\n        /* \"#utility.yul\":36270:36274   */\n      0x00\n        /* \"#utility.yul\":36293:36296   */\n      dup2\n        /* \"#utility.yul\":36285:36296   */\n      swap1\n      pop\n        /* \"#utility.yul\":36316:36319   */\n      dup2\n        /* \"#utility.yul\":36313:36314   */\n      0x00\n        /* \"#utility.yul\":36306:36320   */\n      mstore\n        /* \"#utility.yul\":36350:36354   */\n      0x20\n        /* \"#utility.yul\":36347:36348   */\n      0x00\n        /* \"#utility.yul\":36337:36355   */\n      keccak256\n        /* \"#utility.yul\":36329:36355   */\n      swap1\n      pop\n        /* \"#utility.yul\":36221:36362   */\n      swap2\n      swap1\n      pop\n      jump\t// out\n        /* \"#utility.yul\":36368:36461   */\n    tag_440:\n        /* \"#utility.yul\":36405:36411   */\n      0x00\n        /* \"#utility.yul\":36452:36454   */\n      0x20\n        /* \"#utility.yul\":36447:36449   */\n      0x1f\n        /* \"#utility.yul\":36440:36445   */\n      dup4\n        /* \"#utility.yul\":36436:36450   */\n      add\n        /* \"#utility.yul\":36432:36455   */\n      div\n        /* \"#utility.yul\":36422:36455   */\n      swap1\n      pop\n        /* \"#utility.yul\":36368:36461   */\n      swap2\n      swap1\n      pop\n      jump\t// out\n        /* \"#utility.yul\":36467:36574   */\n    tag_441:\n        /* \"#utility.yul\":36511:36519   */\n      0x00\n        /* \"#utility.yul\":36561:36566   */\n      dup3\n        /* \"#utility.yul\":36555:36559   */\n      dup3\n        /* \"#utility.yul\":36551:36567   */\n      shl\n        /* \"#utility.yul\":36530:36567   */\n      swap1\n      pop\n        /* \"#utility.yul\":36467:36574   */\n      swap3\n      swap2\n      pop\n      pop\n      jump\t// out\n        /* \"#utility.yul\":36580:36973   */\n    tag_442:\n        /* \"#utility.yul\":36649:36655   */\n      0x00\n        /* \"#utility.yul\":36699:36700   */\n      0x08\n        /* \"#utility.yul\":36687:36697   */\n      dup4\n        /* \"#utility.yul\":36683:36701   */\n      mul\n        /* \"#utility.yul\":36722:36819   */\n      tag_769\n        /* \"#utility.yul\":36752:36818   */\n      0xffffffffffffffffffffffffffffffffffffffffffffffffffffffffffffffff\n        /* \"#utility.yul\":36741:36750   */\n      dup3\n        /* \"#utility.yul\":36722:36819   */\n      tag_441\n      jump\t// in\n    tag_769:\n        /* \"#utility.yul\":36840:36879   */\n      tag_770\n        /* \"#utility.yul\":36870:36878   */\n      dup7\n        /* \"#utility.yul\":36859:36868   */\n      dup4\n        /* \"#utility.yul\":36840:36879   */\n      tag_441\n      jump\t// in\n    tag_770:\n        /* \"#utility.yul\":36828:36879   */\n      swap6\n      pop\n        /* \"#utility.yul\":36912:36916   */\n      dup1\n        /* \"#utility.yul\":36908:36917   */\n      not\n        /* \"#utility.yul\":36901:36906   */\n      dup5\n        /* \"#utility.yul\":36897:36918   */\n      and\n        /* \"#utility.yul\":36888:36918   */\n      swap4\n      pop\n        /* \"#utility.yul\":36961:36965   */\n      dup1\n        /* \"#utility.yul\":36951:36959   */\n      dup7\n        /* \"#utility.yul\":36947:36966   */\n      and\n        /* \"#utility.yul\":36940:36945   */\n      dup5\n        /* \"#utility.yul\":36937:36967   */\n      or\n        /* \"#utility.yul\":36927:36967   */\n      swap3\n      pop\n        /* \"#utility.yul\":36656:36973   */\n      pop\n      pop\n        /* \"#utility.yul\":36580:36973   */\n      swap4\n      swap3\n      pop\n      pop\n      pop\n      jump\t// out\n        /* \"#utility.yul\":36979:37039   */\n    tag_443:\n        /* \"#utility.yul\":37007:37010   */\n      0x00\n        /* \"#utility.yul\":37028:37033   */\n      dup2\n        /* \"#utility.yul\":37021:37033   */\n      swap1\n      pop\n        /* \"#utility.yul\":36979:37039   */\n      swap2\n      swap1\n      pop\n      jump\t// out\n        /* \"#utility.yul\":37045:37187   */\n    tag_444:\n        /* \"#utility.yul\":37095:37104   */\n      0x00\n        /* \"#utility.yul\":37128:37181   */\n      tag_773\n        /* \"#utility.yul\":37146:37180   */\n      tag_774\n        /* \"#utility.yul\":37155:37179   */\n      tag_775\n        /* \"#utility.yul\":37173:37178   */\n      dup5\n        /* \"#utility.yul\":37155:37179   */\n      tag_365\n      jump\t// in\n    tag_775:\n        /* \"#utility.yul\":37146:37180   */\n      tag_443\n      jump\t// in\n    tag_774:\n        /* \"#utility.yul\":37128:37181   */\n      tag_365\n      jump\t// in\n    tag_773:\n        /* \"#utility.yul\":37115:37181   */\n      swap1\n      pop\n        /* \"#utility.yul\":37045:37187   */\n      swap2\n      swap1\n      pop\n      jump\t// out\n        /* \"#utility.yul\":37193:37268   */\n    tag_445:\n        /* \"#utility.yul\":37236:37239   */\n      0x00\n        /* \"#utility.yul\":37257:37262   */\n      dup2\n        /* \"#utility.yul\":37250:37262   */\n      swap1\n      pop\n        /* \"#utility.yul\":37193:37268   */\n      swap2\n      swap1\n      pop\n      jump\t// out\n        /* \"#utility.yul\":37274:37543   */\n    tag_446:\n        /* \"#utility.yul\":37384:37423   */\n      tag_778\n        /* \"#utility.yul\":37415:37422   */\n      dup4\n        /* \"#utility.yul\":37384:37423   */\n      tag_444\n      jump\t// in\n    tag_778:\n        /* \"#utility.yul\":37445:37536   */\n      tag_779\n        /* \"#utility.yul\":37494:37535   */\n      tag_780\n        /* \"#utility.yul\":37518:37534   */\n      dup3\n        /* \"#utility.yul\":37494:37535   */\n      tag_445\n      jump\t// in\n    tag_780:\n        /* \"#utility.yul\":37486:37492   */\n      dup5\n        /* \"#utility.yul\":37479:37483   */\n      dup5\n        /* \"#utility.yul\":37473:37484   */\n      sload\n        /* \"#utility.yul\":37445:37536   */\n      tag_442\n      jump\t// in\n    tag_779:\n        /* \"#utility.yul\":37439:37443   */\n      dup3\n        /* \"#utility.yul\":37432:37537   */\n      sstore\n        /* \"#utility.yul\":37350:37543   */\n      pop\n        /* \"#utility.yul\":37274:37543   */\n      pop\n      pop\n      pop\n      jump\t// out\n        /* \"#utility.yul\":37549:37622   */\n    tag_447:\n        /* \"#utility.yul\":37594:37597   */\n      0x00\n        /* \"#utility.yul\":37615:37616   */\n      0x00\n        /* \"#utility.yul\":37608:37616   */\n      swap1\n      pop\n        /* \"#utility.yul\":37549:37622   */\n      swap1\n      jump\t// out\n        /* \"#utility.yul\":37628:37817   */\n    tag_448:\n        /* \"#utility.yul\":37705:37737   */\n      tag_783\n      tag_447\n      jump\t// in\n    tag_783:\n        /* \"#utility.yul\":37746:37811   */\n      tag_784\n        /* \"#utility.yul\":37804:37810   */\n      dup2\n        /* \"#utility.yul\":37796:37802   */\n      dup5\n        /* \"#utility.yul\":37790:37794   */\n      dup5\n        /* \"#utility.yul\":37746:37811   */\n      tag_446\n      jump\t// in\n    tag_784:\n        /* \"#utility.yul\":37681:37817   */\n      pop\n        /* \"#utility.yul\":37628:37817   */\n      pop\n      pop\n      jump\t// out\n        /* \"#utility.yul\":37823:38009   */\n    tag_449:\n        /* \"#utility.yul\":37883:38003   */\n    tag_786:\n        /* \"#utility.yul\":37900:37903   */\n      dup2\n        /* \"#utility.yul\":37893:37898   */\n      dup2\n        /* \"#utility.yul\":37890:37904   */\n      lt\n        /* \"#utility.yul\":37883:38003   */\n      iszero\n      tag_788\n      jumpi\n        /* \"#utility.yul\":37954:37993   */\n      tag_789\n        /* \"#utility.yul\":37991:37992   */\n      0x00\n        /* \"#utility.yul\":37984:37989   */\n      dup3\n        /* \"#utility.yul\":37954:37993   */\n      tag_448\n      jump\t// in\n    tag_789:\n        /* \"#utility.yul\":37927:37928   */\n      0x01\n        /* \"#utility.yul\":37920:37925   */\n      dup2\n        /* \"#utility.yul\":37916:37929   */\n      add\n        /* \"#utility.yul\":37907:37929   */\n      swap1\n      pop\n        /* \"#utility.yul\":37883:38003   */\n      jump(tag_786)\n    tag_788:\n        /* \"#utility.yul\":37823:38009   */\n      pop\n      pop\n      jump\t// out\n        /* \"#utility.yul\":38015:38558   */\n    tag_450:\n        /* \"#utility.yul\":38116:38118   */\n      0x1f\n        /* \"#utility.yul\":38111:38114   */\n      dup3\n        /* \"#utility.yul\":38108:38119   */\n      gt\n        /* \"#utility.yul\":38105:38551   */\n      iszero\n      tag_791\n      jumpi\n        /* \"#utility.yul\":38150:38188   */\n      tag_792\n        /* \"#utility.yul\":38182:38187   */\n      dup2\n        /* \"#utility.yul\":38150:38188   */\n      tag_439\n      jump\t// in\n    tag_792:\n        /* \"#utility.yul\":38234:38263   */\n      tag_793\n        /* \"#utility.yul\":38252:38262   */\n      dup5\n        /* \"#utility.yul\":38234:38263   */\n      tag_440\n      jump\t// in\n    tag_793:\n        /* \"#utility.yul\":38224:38232   */\n      dup2\n        /* \"#utility.yul\":38220:38264   */\n      add\n        /* \"#utility.yul\":38417:38419   */\n      0x20\n        /* \"#utility.yul\":38405:38415   */\n      dup6\n        /* \"#utility.yul\":38402:38420   */\n      lt\n        /* \"#utility.yul\":38399:38448   */\n      iszero\n      tag_794\n      jumpi\n        /* \"#utility.yul\":38438:38446   */\n      dup2\n        /* \"#utility.yul\":38423:38446   */\n      swap1\n      pop\n        /* \"#utility.yul\":38399:38448   */\n    tag_794:\n        /* \"#utility.yul\":38461:38541   */\n      tag_795\n        /* \"#utility.yul\":38517:38539   */\n      tag_796\n        /* \"#utility.yul\":38535:38538   */\n      dup6\n        /* \"#utility.yul\":38517:38539   */\n      tag_440\n      jump\t// in\n    tag_796:\n        /* \"#utility.yul\":38507:38515   */\n      dup4\n        /* \"#utility.yul\":38503:38540   */\n      add\n        /* \"#utility.yul\":38490:38501   */\n      dup3\n        /* \"#utility.yul\":38461:38541   */\n      tag_449\n      jump\t// in\n    tag_795:\n        /* \"#utility.yul\":38120:38551   */\n      pop\n      pop\n        /* \"#utility.yul\":38105:38551   */\n    tag_791:\n        /* \"#utility.yul\":38015:38558   */\n      pop\n      pop\n      pop\n      jump\t// out\n        /* \"#utility.yul\":38564:38681   */\n    tag_451:\n        /* \"#utility.yul\":38618:38626   */\n      0x00\n        /* \"#utility.yul\":38668:38673   */\n      dup3\n        /* \"#utility.yul\":38662:38666   */\n      dup3\n        /* \"#utility.yul\":38658:38674   */\n      shr\n        /* \"#utility.yul\":38637:38674   */\n      swap1\n      pop\n        /* \"#utility.yul\":38564:38681   */\n      swap3\n      swap2\n      pop\n      pop\n      jump\t// out\n        /* \"#utility.yul\":38687:38856   */\n    tag_452:\n        /* \"#utility.yul\":38731:38737   */\n      0x00\n        /* \"#utility.yul\":38764:38815   */\n      tag_799\n        /* \"#utility.yul\":38812:38813   */\n      0x00\n        /* \"#utility.yul\":38808:38814   */\n      not\n        /* \"#utility.yul\":38800:38805   */\n      dup5\n        /* \"#utility.yul\":38797:38798   */\n      0x08\n        /* \"#utility.yul\":38793:38806   */\n      mul\n        /* \"#utility.yul\":38764:38815   */\n      tag_451\n      jump\t// in\n    tag_799:\n        /* \"#utility.yul\":38760:38816   */\n      not\n        /* \"#utility.yul\":38845:38849   */\n      dup1\n        /* \"#utility.yul\":38839:38843   */\n      dup4\n        /* \"#utility.yul\":38835:38850   */\n      and\n        /* \"#utility.yul\":38825:38850   */\n      swap2\n      pop\n        /* \"#utility.yul\":38738:38856   */\n      pop\n        /* \"#utility.yul\":38687:38856   */\n      swap3\n      swap2\n      pop\n      pop\n      jump\t// out\n        /* \"#utility.yul\":38861:39156   */\n    tag_453:\n        /* \"#utility.yul\":38937:38941   */\n      0x00\n        /* \"#utility.yul\":39083:39112   */\n      tag_801\n        /* \"#utility.yul\":39108:39111   */\n      dup4\n        /* \"#utility.yul\":39102:39106   */\n      dup4\n        /* \"#utility.yul\":39083:39112   */\n      tag_452\n      jump\t// in\n    tag_801:\n        /* \"#utility.yul\":39075:39112   */\n      swap2\n      pop\n        /* \"#utility.yul\":39145:39148   */\n      dup3\n        /* \"#utility.yul\":39142:39143   */\n      0x02\n        /* \"#utility.yul\":39138:39149   */\n      mul\n        /* \"#utility.yul\":39132:39136   */\n      dup3\n        /* \"#utility.yul\":39129:39150   */\n      or\n        /* \"#utility.yul\":39121:39150   */\n      swap1\n      pop\n        /* \"#utility.yul\":38861:39156   */\n      swap3\n      swap2\n      pop\n      pop\n      jump\t// out\n        /* \"#utility.yul\":39161:40564   */\n    tag_326:\n        /* \"#utility.yul\":39285:39329   */\n      tag_803\n        /* \"#utility.yul\":39325:39328   */\n      dup4\n        /* \"#utility.yul\":39320:39323   */\n      dup4\n        /* \"#utility.yul\":39285:39329   */\n      tag_438\n      jump\t// in\n    tag_803:\n        /* \"#utility.yul\":39394:39412   */\n      0xffffffffffffffff\n        /* \"#utility.yul\":39386:39392   */\n      dup2\n        /* \"#utility.yul\":39383:39413   */\n      gt\n        /* \"#utility.yul\":39380:39436   */\n      iszero\n      tag_804\n      jumpi\n        /* \"#utility.yul\":39416:39434   */\n      tag_805\n      tag_211\n      jump\t// in\n    tag_805:\n        /* \"#utility.yul\":39380:39436   */\n    tag_804:\n        /* \"#utility.yul\":39460:39498   */\n      tag_806\n        /* \"#utility.yul\":39492:39496   */\n      dup3\n        /* \"#utility.yul\":39486:39497   */\n      sload\n        /* \"#utility.yul\":39460:39498   */\n      tag_250\n      jump\t// in\n    tag_806:\n        /* \"#utility.yul\":39545:39612   */\n      tag_807\n        /* \"#utility.yul\":39605:39611   */\n      dup3\n        /* \"#utility.yul\":39597:39603   */\n      dup3\n        /* \"#utility.yul\":39591:39595   */\n      dup6\n        /* \"#utility.yul\":39545:39612   */\n      tag_450\n      jump\t// in\n    tag_807:\n        /* \"#utility.yul\":39639:39640   */\n      0x00\n        /* \"#utility.yul\":39668:39670   */\n      0x1f\n        /* \"#utility.yul\":39660:39666   */\n      dup4\n        /* \"#utility.yul\":39657:39671   */\n      gt\n        /* \"#utility.yul\":39685:39686   */\n      0x01\n        /* \"#utility.yul\":39680:40312   */\n      dup2\n      eq\n      tag_809\n      jumpi\n        /* \"#utility.yul\":40356:40357   */\n      0x00\n        /* \"#utility.yul\":40373:40379   */\n      dup5\n        /* \"#utility.yul\":40370:40454   */\n      iszero\n      tag_810\n      jumpi\n        /* \"#utility.yul\":40429:40438   */\n      dup3\n        /* \"#utility.yul\":40424:40427   */\n      dup8\n        /* \"#utility.yul\":40420:40439   */\n      add\n        /* \"#utility.yul\":40407:40440   */\n      calldataload\n        /* \"#utility.yul\":40398:40440   */\n      swap1\n      pop\n        /* \"#utility.yul\":40370:40454   */\n    tag_810:\n        /* \"#utility.yul\":40480:40547   */\n      tag_811\n        /* \"#utility.yul\":40540:40546   */\n      dup6\n        /* \"#utility.yul\":40533:40538   */\n      dup3\n        /* \"#utility.yul\":40480:40547   */\n      tag_453\n      jump\t// in\n    tag_811:\n        /* \"#utility.yul\":40474:40478   */\n      dup7\n        /* \"#utility.yul\":40467:40548   */\n      sstore\n        /* \"#utility.yul\":40329:40558   */\n      pop\n        /* \"#utility.yul\":39650:40558   */\n      jump(tag_808)\n        /* \"#utility.yul\":39680:40312   */\n    tag_809:\n        /* \"#utility.yul\":39732:39736   */\n      0x1f\n        /* \"#utility.yul\":39728:39737   */\n      not\n        /* \"#utility.yul\":39720:39726   */\n      dup5\n        /* \"#utility.yul\":39716:39738   */\n      and\n        /* \"#utility.yul\":39766:39803   */\n      tag_812\n        /* \"#utility.yul\":39798:39802   */\n      dup7\n        /* \"#utility.yul\":39766:39803   */\n      tag_439\n      jump\t// in\n    tag_812:\n        /* \"#utility.yul\":39825:39826   */\n      0x00\n        /* \"#utility.yul\":39839:40054   */\n    tag_813:\n        /* \"#utility.yul\":39853:39860   */\n      dup3\n        /* \"#utility.yul\":39850:39851   */\n      dup2\n        /* \"#utility.yul\":39847:39861   */\n      lt\n        /* \"#utility.yul\":39839:40054   */\n      iszero\n      tag_815\n      jumpi\n        /* \"#utility.yul\":39939:39948   */\n      dup5\n        /* \"#utility.yul\":39934:39937   */\n      dup10\n        /* \"#utility.yul\":39930:39949   */\n      add\n        /* \"#utility.yul\":39917:39950   */\n      calldataload\n        /* \"#utility.yul\":39909:39915   */\n      dup3\n        /* \"#utility.yul\":39902:39951   */\n      sstore\n        /* \"#utility.yul\":39990:39991   */\n      0x01\n        /* \"#utility.yul\":39982:39988   */\n      dup3\n        /* \"#utility.yul\":39978:39992   */\n      add\n        /* \"#utility.yul\":39968:39992   */\n      swap2\n      pop\n        /* \"#utility.yul\":40037:40039   */\n      0x20\n        /* \"#utility.yul\":40026:40035   */\n      dup6\n        /* \"#utility.yul\":40022:40040   */\n      add\n        /* \"#utility.yul\":40009:40040   */\n      swap5\n      pop\n        /* \"#utility.yul\":39876:39880   */\n      0x20\n        /* \"#utility.yul\":39873:39874   */\n      dup2\n        /* \"#utility.yul\":39869:39881   */\n      add\n        /* \"#utility.yul\":39864:39881   */\n      swap1\n      pop\n        /* \"#utility.yul\":39839:40054   */\n      jump(tag_813)\n    tag_815:\n        /* \"#utility.yul\":40082:40088   */\n      dup7\n        /* \"#utility.yul\":40073:40080   */\n      dup4\n        /* \"#utility.yul\":40070:40089   */\n      lt\n        /* \"#utility.yul\":40067:40253   */\n      iszero\n      tag_816\n      jumpi\n        /* \"#utility.yul\":40147:40156   */\n      dup5\n        /* \"#utility.yul\":40142:40145   */\n      dup10\n        /* \"#utility.yul\":40138:40157   */\n      add\n        /* \"#utility.yul\":40125:40158   */\n      calldataload\n        /* \"#utility.yul\":40190:40238   */\n      tag_817\n        /* \"#utility.yul\":40232:40236   */\n      0x1f\n        /* \"#utility.yul\":40224:40230   */\n      dup10\n        /* \"#utility.yul\":40220:40237   */\n      and\n        /* \"#utility.yul\":40209:40218   */\n      dup3\n        /* \"#utility.yul\":40190:40238   */\n      tag_452\n      jump\t// in\n    tag_817:\n        /* \"#utility.yul\":40182:40188   */\n      dup4\n        /* \"#utility.yul\":40175:40239   */\n      sstore\n        /* \"#utility.yul\":40090:40253   */\n      pop\n        /* \"#utility.yul\":40067:40253   */\n    tag_816:\n        /* \"#utility.yul\":40299:40300   */\n      0x01\n        /* \"#utility.yul\":40295:40296   */\n      0x02\n        /* \"#utility.yul\":40287:40293   */\n      dup9\n        /* \"#utility.yul\":40283:40297   */\n      mul\n        /* \"#utility.yul\":40279:40301   */\n      add\n        /* \"#utility.yul\":40273:40277   */\n      dup9\n        /* \"#utility.yul\":40266:40302   */\n      sstore\n        /* \"#utility.yul\":39687:40312   */\n      pop\n      pop\n      pop\n        /* \"#utility.yul\":39650:40558   */\n    tag_808:\n      pop\n        /* \"#utility.yul\":39260:40564   */\n      pop\n      pop\n      pop\n        /* \"#utility.yul\":39161:40564   */\n      pop\n      pop\n      pop\n      jump\t// out\n        /* \"#utility.yul\":40570:40718   */\n    tag_454:\n        /* \"#utility.yul\":40668:40674   */\n      dup3\n        /* \"#utility.yul\":40663:40666   */\n      dup2\n        /* \"#utility.yul\":40658:40661   */\n      dup4\n        /* \"#utility.yul\":40645:40675   */\n      calldatacopy\n        /* \"#utility.yul\":40709:40710   */\n      0x00\n        /* \"#utility.yul\":40700:40706   */\n      dup4\n        /* \"#utility.yul\":40695:40698   */\n      dup4\n        /* \"#utility.yul\":40691:40707   */\n      add\n        /* \"#utility.yul\":40684:40711   */\n      mstore\n        /* \"#utility.yul\":40570:40718   */\n      pop\n      pop\n      pop\n      jump\t// out\n        /* \"#utility.yul\":40748:41065   */\n    tag_455:\n        /* \"#utility.yul\":40846:40849   */\n      0x00\n        /* \"#utility.yul\":40867:40938   */\n      tag_820\n        /* \"#utility.yul\":40931:40937   */\n      dup4\n        /* \"#utility.yul\":40926:40929   */\n      dup6\n        /* \"#utility.yul\":40867:40938   */\n      tag_386\n      jump\t// in\n    tag_820:\n        /* \"#utility.yul\":40860:40938   */\n      swap4\n      pop\n        /* \"#utility.yul\":40948:41004   */\n      tag_821\n        /* \"#utility.yul\":40997:41003   */\n      dup4\n        /* \"#utility.yul\":40992:40995   */\n      dup6\n        /* \"#utility.yul\":40985:40990   */\n      dup5\n        /* \"#utility.yul\":40948:41004   */\n      tag_454\n      jump\t// in\n    tag_821:\n        /* \"#utility.yul\":41029:41058   */\n      tag_822\n        /* \"#utility.yul\":41051:41057   */\n      dup4\n        /* \"#utility.yul\":41029:41058   */\n      tag_388\n      jump\t// in\n    tag_822:\n        /* \"#utility.yul\":41024:41027   */\n      dup5\n        /* \"#utility.yul\":41020:41059   */\n      add\n        /* \"#utility.yul\":41013:41059   */\n      swap1\n      pop\n        /* \"#utility.yul\":40748:41065   */\n      swap4\n      swap3\n      pop\n      pop\n      pop\n      jump\t// out\n        /* \"#utility.yul\":41071:41514   */\n    tag_329:\n        /* \"#utility.yul\":41222:41226   */\n      0x00\n        /* \"#utility.yul\":41260:41262   */\n      0x40\n        /* \"#utility.yul\":41249:41258   */\n      dup3\n        /* \"#utility.yul\":41245:41263   */\n      add\n        /* \"#utility.yul\":41237:41263   */\n      swap1\n      pop\n        /* \"#utility.yul\":41309:41318   */\n      dup2\n        /* \"#utility.yul\":41303:41307   */\n      dup2\n        /* \"#utility.yul\":41299:41319   */\n      sub\n        /* \"#utility.yul\":41295:41296   */\n      0x00\n        /* \"#utility.yul\":41284:41293   */\n      dup4\n        /* \"#utility.yul\":41280:41297   */\n      add\n        /* \"#utility.yul\":41273:41320   */\n      mstore\n        /* \"#utility.yul\":41337:41425   */\n      tag_824\n        /* \"#utility.yul\":41420:41424   */\n      dup2\n        /* \"#utility.yul\":41411:41417   */\n      dup6\n        /* \"#utility.yul\":41403:41409   */\n      dup8\n        /* \"#utility.yul\":41337:41425   */\n      tag_455\n      jump\t// in\n    tag_824:\n        /* \"#utility.yul\":41329:41425   */\n      swap1\n      pop\n        /* \"#utility.yul\":41435:41507   */\n      tag_825\n        /* \"#utility.yul\":41503:41505   */\n      0x20\n        /* \"#utility.yul\":41492:41501   */\n      dup4\n        /* \"#utility.yul\":41488:41506   */\n      add\n        /* \"#utility.yul\":41479:41485   */\n      dup5\n        /* \"#utility.yul\":41435:41507   */\n      tag_375\n      jump\t// in\n    tag_825:\n        /* \"#utility.yul\":41071:41514   */\n      swap5\n      swap4\n      pop\n      pop\n      pop\n      pop\n      jump\t// out\n\n    auxdata: 0xa26469706673582212205f8f3bac04302aaf1e83e3c07fb691493b1951bf3b33cee89b23a2a06e7ab84364736f6c634300081e0033\n}\n",
				"bytecode": {
					"linkReferences": {},
					"object": "60a06040526001805560016002556001600355348015601c575f5ffd5b5060015f819055503373ffffffffffffffffffffffffffffffffffffffff1660808173ffffffffffffffffffffffffffffffffffffffff168152505060805161399561007e5f395f8181610c0401528181611b27015261238401526139955ff3fe608060405234801561000f575f5ffd5b506004361061012a575f3560e01c80638782dc00116100ab578063c16fe9071161006f578063c16fe90714610373578063d67b2d08146103a3578063e4b50cb8146103bf578063ef57e2d2146103f6578063f851a440146104265761012a565b80638782dc00146102b55780639377d711146102d1578063a1e6a25514610307578063b5ffbbcc14610325578063b85b381b146103555761012a565b806349217ca4116100f257806349217ca4146101e55780634f64b2be14610201578063519dc8d2146102375780636386c1c71461026757806375794a3c146102975761012a565b8063095bcdb61461012e57806312effc321461014a578063274fae7c14610166578063335d341014610182578063365b98b2146101b2575b5f5ffd5b61014860048036038101906101439190612674565b610444565b005b610164600480360381019061015f91906126c4565b610b18565b005b610180600480360381019061017b91906126c4565b610d8b565b005b61019c600480360381019061019791906126ef565b61110e565b6040516101a991906127d1565b60405180910390f35b6101cc60048036038101906101c791906126c4565b61132a565b6040516101dc949392919061289a565b60405180910390f35b6101ff60048036038101906101fa9190612907565b611381565b005b61021b600480360381019061021691906126c4565b611645565b60405161022e97969594939291906129a2565b60405180910390f35b610251600480360381019061024c91906126ef565b6117ae565b60405161025e91906127d1565b60405180910390f35b610281600480360381019061027c91906126ef565b6119b9565b60405161028e9190612a9d565b60405180910390f35b61029f611b1f565b6040516102ac9190612ab6565b60405180910390f35b6102cf60048036038101906102ca9190612af2565b611b25565b005b6102eb60048036038101906102e691906126c4565b611cc4565b6040516102fe9796959493929190612b76565b60405180910390f35b61030f611d4c565b60405161031c9190612ab6565b60405180910390f35b61033f600480360381019061033a91906126ef565b611d52565b60405161034c9190612ab6565b60405180910390f35b61035d611d67565b60405161036a9190612ab6565b60405180910390f35b61038d600480360381019061038891906126c4565b611d6d565b60405161039a9190612c7e565b60405180910390f35b6103bd60048036038101906103b89190612cf8565b611ea3565b005b6103d960048036038101906103d491906126c4565b612118565b6040516103ed989796959493929190612d9b565b60405180910390f35b610410600480360381019061040b9190612e25565b6122e5565b60405161041d9190612ab6565b60405180910390f35b61042e612382565b60405161043b9190612e63565b60405180910390f35b5f60075f3373ffffffffffffffffffffffffffffffffffffffff1673ffffffffffffffffffffffffffffffffffffffff1681526020019081526020015f205490505f81141580156104d95750600160038111156104a4576104a3612827565b5b60065f8381526020019081526020015f206003015f9054906101000a900460ff1660038111156104d7576104d6612827565b5b145b610518576040517f08c379a000000000000000000000000000000000000000000000000000000000815260040161050f90612ec6565b60405180910390fd5b6105206123a6565b5f73ffffffffffffffffffffffffffffffffffffffff168473ffffffffffffffffffffffffffffffffffffffff161415801561058857503373ffffffffffffffffffffffffffffffffffffffff168473ffffffffffffffffffffffffffffffffffffffff1614155b6105c7576040517f08c379a00000000000000000000000000000000000000000000000000000000081526004016105be90612f2e565b60405180910390fd5b5f8211610609576040517f08c379a000000000000000000000000000000000000000000000000000000000815260040161060090612f96565b60405180910390fd5b600154831061064d576040517f08c379a000000000000000000000000000000000000000000000000000000000815260040161064490612ffe565b60405180910390fd5b5f60075f3373ffffffffffffffffffffffffffffffffffffffff1673ffffffffffffffffffffffffffffffffffffffff1681526020019081526020015f205490505f60075f8773ffffffffffffffffffffffffffffffffffffffff1673ffffffffffffffffffffffffffffffffffffffff1681526020019081526020015f205490505f8103610711576040517f08c379a000000000000000000000000000000000000000000000000000000000815260040161070890613066565b60405180910390fd5b61072e60065f8481526020019081526020015f20600201546123ea565b1561076e576040517f08c379a0000000000000000000000000000000000000000000000000000000008152600401610765906130ce565b60405180910390fd5b6107a060065f8481526020019081526020015f206002015460065f8481526020019081526020015f2060020154612415565b6107df576040517f08c379a00000000000000000000000000000000000000000000000000000000081526004016107d690613136565b60405180910390fd5b5f60045f8781526020019081526020015f20905084816007015f3373ffffffffffffffffffffffffffffffffffffffff1673ffffffffffffffffffffffffffffffffffffffff1681526020019081526020015f20541015610875576040517f08c379a000000000000000000000000000000000000000000000000000000000815260040161086c9061319e565b60405180910390fd5b84816007015f3373ffffffffffffffffffffffffffffffffffffffff1673ffffffffffffffffffffffffffffffffffffffff1681526020019081526020015f205f8282546108c391906131e9565b9250508190555084816007015f8973ffffffffffffffffffffffffffffffffffffffff1673ffffffffffffffffffffffffffffffffffffffff1681526020019081526020015f205f828254610918919061321c565b925050819055505f60025f8154809291906109329061324f565b9190505590506040518060e001604052808281526020013373ffffffffffffffffffffffffffffffffffffffff1681526020018973ffffffffffffffffffffffffffffffffffffffff1681526020018881526020014281526020018781526020015f60028111156109a6576109a5612827565b5b81525060055f8381526020019081526020015f205f820151815f01556020820151816001015f6101000a81548173ffffffffffffffffffffffffffffffffffffffff021916908373ffffffffffffffffffffffffffffffffffffffff1602179055506040820151816002015f6101000a81548173ffffffffffffffffffffffffffffffffffffffff021916908373ffffffffffffffffffffffffffffffffffffffff160217905550606082015181600301556080820151816004015560a0820151816005015560c0820151816006015f6101000a81548160ff02191690836002811115610a9657610a95612827565b5b02179055509050508773ffffffffffffffffffffffffffffffffffffffff163373ffffffffffffffffffffffffffffffffffffffff16827fc8262dc04f8f56abc884e1f58ca17a373610558a6cebc5e927b9e1c4668e5fdf8a8a604051610afe929190613296565b60405180910390a450505050610b12612516565b50505050565b610b206123a6565b5f60055f8381526020019081526020015f2090505f6002811115610b4757610b46612827565b5b816006015f9054906101000a900460ff166002811115610b6a57610b69612827565b5b14610baa576040517f08c379a0000000000000000000000000000000000000000000000000000000008152600401610ba190613307565b60405180910390fd5b806002015f9054906101000a900473ffffffffffffffffffffffffffffffffffffffff1673ffffffffffffffffffffffffffffffffffffffff163373ffffffffffffffffffffffffffffffffffffffff161480610c5257507f000000000000000000000000000000000000000000000000000000000000000073ffffffffffffffffffffffffffffffffffffffff163373ffffffffffffffffffffffffffffffffffffffff16145b610c91576040517f08c379a0000000000000000000000000000000000000000000000000000000008152600401610c889061336f565b60405180910390fd5b5f60045f836003015481526020019081526020015f2090508160050154816007015f846001015f9054906101000a900473ffffffffffffffffffffffffffffffffffffffff1673ffffffffffffffffffffffffffffffffffffffff1673ffffffffffffffffffffffffffffffffffffffff1681526020019081526020015f205f828254610d1e919061321c565b925050819055506002826006015f6101000a81548160ff02191690836002811115610d4c57610d4b612827565b5b0217905550827f1f4f8a94e17d25044030f376d297769c8f9a1a2a0616e36b498a1e7370b5863f60405160405180910390a25050610d88612516565b50565b5f60075f3373ffffffffffffffffffffffffffffffffffffffff1673ffffffffffffffffffffffffffffffffffffffff1681526020019081526020015f205490505f8114158015610e20575060016003811115610deb57610dea612827565b5b60065f8381526020019081526020015f206003015f9054906101000a900460ff166003811115610e1e57610e1d612827565b5b145b610e5f576040517f08c379a0000000000000000000000000000000000000000000000000000000008152600401610e5690612ec6565b60405180910390fd5b5f60055f8481526020019081526020015f2090505f6002811115610e8657610e85612827565b5b816006015f9054906101000a900460ff166002811115610ea957610ea8612827565b5b14610ee9576040517f08c379a0000000000000000000000000000000000000000000000000000000008152600401610ee090613307565b60405180910390fd5b806002015f9054906101000a900473ffffffffffffffffffffffffffffffffffffffff1673ffffffffffffffffffffffffffffffffffffffff163373ffffffffffffffffffffffffffffffffffffffff1614610f7a576040517f08c379a0000000000000000000000000000000000000000000000000000000008152600401610f71906133d7565b60405180910390fd5b5f60075f836002015f9054906101000a900473ffffffffffffffffffffffffffffffffffffffff1673ffffffffffffffffffffffffffffffffffffffff1673ffffffffffffffffffffffffffffffffffffffff1681526020019081526020015f2054905061107060065f60075f866001015f9054906101000a900473ffffffffffffffffffffffffffffffffffffffff1673ffffffffffffffffffffffffffffffffffffffff1673ffffffffffffffffffffffffffffffffffffffff1681526020019081526020015f205481526020019081526020015f206002015460065f8481526020019081526020015f2060020154612415565b6110af576040517f08c379a00000000000000000000000000000000000000000000000000000000081526004016110a690613136565b60405180910390fd5b6001826006015f6101000a81548160ff021916908360028111156110d6576110d5612827565b5b0217905550837f91dd4234b45d77221e6eca52c141569a6d0f3b3ffe9b8a18fe8b9aafbc64b44b60405160405180910390a250505050565b60605f600160025461112091906131e9565b67ffffffffffffffff811115611139576111386133f5565b5b6040519080825280602002602001820160405280156111675781602001602082028036833780820191505090505b5090505f5f90505f600190505b60025481101561127d575f60055f8381526020019081526020015f2090508573ffffffffffffffffffffffffffffffffffffffff16816001015f9054906101000a900473ffffffffffffffffffffffffffffffffffffffff1673ffffffffffffffffffffffffffffffffffffffff16148061123d57508573ffffffffffffffffffffffffffffffffffffffff16816002015f9054906101000a900473ffffffffffffffffffffffffffffffffffffffff1673ffffffffffffffffffffffffffffffffffffffff16145b1561126f578184848061124f9061324f565b95508151811061126257611261613422565b5b6020026020010181815250505b508080600101915050611174565b505f8167ffffffffffffffff811115611299576112986133f5565b5b6040519080825280602002602001820160405280156112c75781602001602082028036833780820191505090505b5090505f5f90505b8281101561131e578381815181106112ea576112e9613422565b5b602002602001015182828151811061130557611304613422565b5b60200260200101818152505080806001019150506112cf565b50809350505050919050565b6006602052805f5260405f205f91509050805f015490806001015f9054906101000a900473ffffffffffffffffffffffffffffffffffffffff1690806002015490806003015f9054906101000a900460ff16905084565b5f5f1b81036113c5576040517f08c379a00000000000000000000000000000000000000000000000000000000081526004016113bc90613499565b60405180910390fd5b5f60075f3373ffffffffffffffffffffffffffffffffffffffff1673ffffffffffffffffffffffffffffffffffffffff1681526020019081526020015f205490505f81036115505760035f81548092919061141f9061324f565b91905055905060405180608001604052808281526020013373ffffffffffffffffffffffffffffffffffffffff1681526020018381526020015f600381111561146b5761146a612827565b5b81525060065f8381526020019081526020015f205f820151815f01556020820151816001015f6101000a81548173ffffffffffffffffffffffffffffffffffffffff021916908373ffffffffffffffffffffffffffffffffffffffff160217905550604082015181600201556060820151816003015f6101000a81548160ff0219169083600381111561150157611500612827565b5b02179055509050508060075f3373ffffffffffffffffffffffffffffffffffffffff1673ffffffffffffffffffffffffffffffffffffffff1681526020019081526020015f20819055506115a5565b8160065f8381526020019081526020015f20600201819055505f60065f8381526020019081526020015f206003015f6101000a81548160ff0219169083600381111561159f5761159e612827565b5b02179055505b3373ffffffffffffffffffffffffffffffffffffffff167f6462c5e0af9bf3a12e42a57283f899627cb117e108991e3efda5d27188cc85c1836040516115eb91906134b7565b60405180910390a23373ffffffffffffffffffffffffffffffffffffffff167fb3b609c7a5e504a312603e90d906d1667fd5caff0a840ad07bf5709a3ca1a0455f60405161163991906134d0565b60405180910390a25050565b6004602052805f5260405f205f91509050805f015490806001015f9054906101000a900473ffffffffffffffffffffffffffffffffffffffff169080600201805461168f90613516565b80601f01602080910402602001604051908101604052809291908181526020018280546116bb90613516565b80156117065780601f106116dd57610100808354040283529160200191611706565b820191905f5260205f20905b8154815290600101906020018083116116e957829003601f168201915b50505050509080600301549080600401805461172190613516565b80601f016020809104026020016040519081016040528092919081815260200182805461174d90613516565b80156117985780601f1061176f57610100808354040283529160200191611798565b820191905f5260205f20905b81548152906001019060200180831161177b57829003601f168201915b5050505050908060050154908060060154905087565b60605f600180546117bf91906131e9565b67ffffffffffffffff8111156117d8576117d76133f5565b5b6040519080825280602002602001820160405280156118065781602001602082028036833780820191505090505b5090505f5f90505f600190505b60015481101561190c575f60045f8381526020019081526020015f2090508573ffffffffffffffffffffffffffffffffffffffff16816001015f9054906101000a900473ffffffffffffffffffffffffffffffffffffffff1673ffffffffffffffffffffffffffffffffffffffff1614806118cc57505f816007015f8873ffffffffffffffffffffffffffffffffffffffff1673ffffffffffffffffffffffffffffffffffffffff1681526020019081526020015f2054115b156118fe57818484806118de9061324f565b9550815181106118f1576118f0613422565b5b6020026020010181815250505b508080600101915050611813565b505f8167ffffffffffffffff811115611928576119276133f5565b5b6040519080825280602002602001820160405280156119565781602001602082028036833780820191505090505b5090505f5f90505b828110156119ad5783818151811061197957611978613422565b5b602002602001015182828151811061199457611993613422565b5b602002602001018181525050808060010191505061195e565b50809350505050919050565b6119c161251f565b5f60075f8473ffffffffffffffffffffffffffffffffffffffff1673ffffffffffffffffffffffffffffffffffffffff1681526020019081526020015f205490505f8114611acc5760065f8281526020019081526020015f206040518060800160405290815f8201548152602001600182015f9054906101000a900473ffffffffffffffffffffffffffffffffffffffff1673ffffffffffffffffffffffffffffffffffffffff1673ffffffffffffffffffffffffffffffffffffffff16815260200160028201548152602001600382015f9054906101000a900460ff166003811115611ab157611ab0612827565b5b6003811115611ac357611ac2612827565b5b81525050611b17565b60405180608001604052805f81526020015f73ffffffffffffffffffffffffffffffffffffffff1681526020015f815260200160026003811115611b1357611b12612827565b5b8152505b915050919050565b60015481565b7f000000000000000000000000000000000000000000000000000000000000000073ffffffffffffffffffffffffffffffffffffffff163373ffffffffffffffffffffffffffffffffffffffff1614611bb3576040517f08c379a0000000000000000000000000000000000000000000000000000000008152600401611baa90613590565b60405180910390fd5b5f60075f8473ffffffffffffffffffffffffffffffffffffffff1673ffffffffffffffffffffffffffffffffffffffff1681526020019081526020015f205490505f8103611c36576040517f08c379a0000000000000000000000000000000000000000000000000000000008152600401611c2d906135f8565b60405180910390fd5b8160065f8381526020019081526020015f206003015f6101000a81548160ff02191690836003811115611c6c57611c6b612827565b5b02179055508273ffffffffffffffffffffffffffffffffffffffff167fb3b609c7a5e504a312603e90d906d1667fd5caff0a840ad07bf5709a3ca1a04583604051611cb791906134d0565b60405180910390a2505050565b6005602052805f5260405f205f91509050805f015490806001015f9054906101000a900473ffffffffffffffffffffffffffffffffffffffff1690806002015f9054906101000a900473ffffffffffffffffffffffffffffffffffffffff1690806003015490806004015490806005015490806006015f9054906101000a900460ff16905087565b60035481565b6007602052805f5260405f205f915090505481565b60025481565b611d7561256b565b60055f8381526020019081526020015f206040518060e00160405290815f8201548152602001600182015f9054906101000a900473ffffffffffffffffffffffffffffffffffffffff1673ffffffffffffffffffffffffffffffffffffffff1673ffffffffffffffffffffffffffffffffffffffff168152602001600282015f9054906101000a900473ffffffffffffffffffffffffffffffffffffffff1673ffffffffffffffffffffffffffffffffffffffff1673ffffffffffffffffffffffffffffffffffffffff168152602001600382015481526020016004820154815260200160058201548152602001600682015f9054906101000a900460ff166002811115611e8657611e85612827565b5b6002811115611e9857611e97612827565b5b815250509050919050565b5f60075f3373ffffffffffffffffffffffffffffffffffffffff1673ffffffffffffffffffffffffffffffffffffffff1681526020019081526020015f205490505f8114158015611f38575060016003811115611f0357611f02612827565b5b60065f8381526020019081526020015f206003015f9054906101000a900460ff166003811115611f3657611f35612827565b5b145b611f77576040517f08c379a0000000000000000000000000000000000000000000000000000000008152600401611f6e90612ec6565b60405180910390fd5b5f8787905011611fbc576040517f08c379a0000000000000000000000000000000000000000000000000000000008152600401611fb390613660565b60405180910390fd5b5f60015f815480929190611fcf9061324f565b9190505590505f60045f8381526020019081526020015f20905081815f018190555033816001015f6101000a81548173ffffffffffffffffffffffffffffffffffffffff021916908373ffffffffffffffffffffffffffffffffffffffff1602179055508888826002019182612046929190613828565b508681600301819055508585826004019182612063929190613828565b5083816005018190555042816006018190555086816007015f3373ffffffffffffffffffffffffffffffffffffffff1673ffffffffffffffffffffffffffffffffffffffff1681526020019081526020015f20819055503373ffffffffffffffffffffffffffffffffffffffff16827f463ec2a62c46678a81e23cde640446ca4b512f102bb3309cf5a3e2a4ae8314648b8b8b6040516121059392919061392f565b60405180910390a3505050505050505050565b5f5f60605f60605f5f5f5f60045f8b81526020019081526020015f209050805f0154816001015f9054906101000a900473ffffffffffffffffffffffffffffffffffffffff168260020183600301548460040185600501548660060154876007015f3373ffffffffffffffffffffffffffffffffffffffff1673ffffffffffffffffffffffffffffffffffffffff1681526020019081526020015f20548580546121c190613516565b80601f01602080910402602001604051908101604052809291908181526020018280546121ed90613516565b80156122385780601f1061220f57610100808354040283529160200191612238565b820191905f5260205f20905b81548152906001019060200180831161221b57829003601f168201915b5050505050955083805461224b90613516565b80601f016020809104026020016040519081016040528092919081815260200182805461227790613516565b80156122c25780601f10612299576101008083540402835291602001916122c2565b820191905f5260205f20905b8154815290600101906020018083116122a557829003601f168201915b505050505093509850985098509850985098509850985050919395975091939597565b5f600154831061232a576040517f08c379a000000000000000000000000000000000000000000000000000000000815260040161232190612ffe565b60405180910390fd5b60045f8481526020019081526020015f206007015f8373ffffffffffffffffffffffffffffffffffffffff1673ffffffffffffffffffffffffffffffffffffffff1681526020019081526020015f2054905092915050565b7f000000000000000000000000000000000000000000000000000000000000000081565b60025f54036123e1576040517f3ee5aeb500000000000000000000000000000000000000000000000000000000815260040160405180910390fd5b60025f81905550565b5f7fc0878b4b16a78e8085cba0ca02fc0924f1492924058d153153a3f286e0fd70ff82149050919050565b5f7f95329f0f598032755f454b63034035528a2f09e00bb3dde055a4f8e3f7b116838314801561246457507f992f90ffb92c5ad86f1df6829115f18aaea41d6094dadc8955c35086081a7bb982145b806124b957507f992f90ffb92c5ad86f1df6829115f18aaea41d6094dadc8955c35086081a7bb9831480156124b857507f1534e98f9dd33e3681193a0541f0c2e3d732d183dcdc630aac2b943280af42a082145b5b8061250e57507f1534e98f9dd33e3681193a0541f0c2e3d732d183dcdc630aac2b943280af42a08314801561250d57507fc0878b4b16a78e8085cba0ca02fc0924f1492924058d153153a3f286e0fd70ff82145b5b905092915050565b60015f81905550565b60405180608001604052805f81526020015f73ffffffffffffffffffffffffffffffffffffffff1681526020015f81526020015f600381111561256557612564612827565b5b81525090565b6040518060e001604052805f81526020015f73ffffffffffffffffffffffffffffffffffffffff1681526020015f73ffffffffffffffffffffffffffffffffffffffff1681526020015f81526020015f81526020015f81526020015f60028111156125d9576125d8612827565b5b81525090565b5f5ffd5b5f5ffd5b5f73ffffffffffffffffffffffffffffffffffffffff82169050919050565b5f612610826125e7565b9050919050565b61262081612606565b811461262a575f5ffd5b50565b5f8135905061263b81612617565b92915050565b5f819050919050565b61265381612641565b811461265d575f5ffd5b50565b5f8135905061266e8161264a565b92915050565b5f5f5f6060848603121561268b5761268a6125df565b5b5f6126988682870161262d565b93505060206126a986828701612660565b92505060406126ba86828701612660565b9150509250925092565b5f602082840312156126d9576126d86125df565b5b5f6126e684828501612660565b91505092915050565b5f60208284031215612704576127036125df565b5b5f6127118482850161262d565b91505092915050565b5f81519050919050565b5f82825260208201905092915050565b5f819050602082019050919050565b61274c81612641565b82525050565b5f61275d8383612743565b60208301905092915050565b5f602082019050919050565b5f61277f8261271a565b6127898185612724565b935061279483612734565b805f5b838110156127c45781516127ab8882612752565b97506127b683612769565b925050600181019050612797565b5085935050505092915050565b5f6020820190508181035f8301526127e98184612775565b905092915050565b6127fa81612641565b82525050565b61280981612606565b82525050565b5f819050919050565b6128218161280f565b82525050565b7f4e487b71000000000000000000000000000000000000000000000000000000005f52602160045260245ffd5b6004811061286557612864612827565b5b50565b5f81905061287582612854565b919050565b5f61288482612868565b9050919050565b6128948161287a565b82525050565b5f6080820190506128ad5f8301876127f1565b6128ba6020830186612800565b6128c76040830185612818565b6128d4606083018461288b565b95945050505050565b6128e68161280f565b81146128f0575f5ffd5b50565b5f81359050612901816128dd565b92915050565b5f6020828403121561291c5761291b6125df565b5b5f612929848285016128f3565b91505092915050565b5f81519050919050565b5f82825260208201905092915050565b8281835e5f83830152505050565b5f601f19601f8301169050919050565b5f61297482612932565b61297e818561293c565b935061298e81856020860161294c565b6129978161295a565b840191505092915050565b5f60e0820190506129b55f83018a6127f1565b6129c26020830189612800565b81810360408301526129d4818861296a565b90506129e360608301876127f1565b81810360808301526129f5818661296a565b9050612a0460a08301856127f1565b612a1160c08301846127f1565b98975050505050505050565b612a2681612606565b82525050565b612a358161280f565b82525050565b612a448161287a565b82525050565b608082015f820151612a5e5f850182612743565b506020820151612a716020850182612a1d565b506040820151612a846040850182612a2c565b506060820151612a976060850182612a3b565b50505050565b5f608082019050612ab05f830184612a4a565b92915050565b5f602082019050612ac95f8301846127f1565b92915050565b60048110612adb575f5ffd5b50565b5f81359050612aec81612acf565b92915050565b5f5f60408385031215612b0857612b076125df565b5b5f612b158582860161262d565b9250506020612b2685828601612ade565b9150509250929050565b60038110612b4157612b40612827565b5b50565b5f819050612b5182612b30565b919050565b5f612b6082612b44565b9050919050565b612b7081612b56565b82525050565b5f60e082019050612b895f83018a6127f1565b612b966020830189612800565b612ba36040830188612800565b612bb060608301876127f1565b612bbd60808301866127f1565b612bca60a08301856127f1565b612bd760c0830184612b67565b98975050505050505050565b612bec81612b56565b82525050565b60e082015f820151612c065f850182612743565b506020820151612c196020850182612a1d565b506040820151612c2c6040850182612a1d565b506060820151612c3f6060850182612743565b506080820151612c526080850182612743565b5060a0820151612c6560a0850182612743565b5060c0820151612c7860c0850182612be3565b50505050565b5f60e082019050612c915f830184612bf2565b92915050565b5f5ffd5b5f5ffd5b5f5ffd5b5f5f83601f840112612cb857612cb7612c97565b5b8235905067ffffffffffffffff811115612cd557612cd4612c9b565b5b602083019150836001820283011115612cf157612cf0612c9f565b5b9250929050565b5f5f5f5f5f5f60808789031215612d1257612d116125df565b5b5f87013567ffffffffffffffff811115612d2f57612d2e6125e3565b5b612d3b89828a01612ca3565b96509650506020612d4e89828a01612660565b945050604087013567ffffffffffffffff811115612d6f57612d6e6125e3565b5b612d7b89828a01612ca3565b93509350506060612d8e89828a01612660565b9150509295509295509295565b5f61010082019050612daf5f83018b6127f1565b612dbc602083018a612800565b8181036040830152612dce818961296a565b9050612ddd60608301886127f1565b8181036080830152612def818761296a565b9050612dfe60a08301866127f1565b612e0b60c08301856127f1565b612e1860e08301846127f1565b9998505050505050505050565b5f5f60408385031215612e3b57612e3a6125df565b5b5f612e4885828601612660565b9250506020612e598582860161262d565b9150509250929050565b5f602082019050612e765f830184612800565b92915050565b7f4e6f7420617070726f76656400000000000000000000000000000000000000005f82015250565b5f612eb0600c8361293c565b9150612ebb82612e7c565b602082019050919050565b5f6020820190508181035f830152612edd81612ea4565b9050919050565b7f496e76616c696420726563697069656e740000000000000000000000000000005f82015250565b5f612f1860118361293c565b9150612f2382612ee4565b602082019050919050565b5f6020820190508181035f830152612f4581612f0c565b9050919050565b7f416d6f756e74206d757374206265203e203000000000000000000000000000005f82015250565b5f612f8060128361293c565b9150612f8b82612f4c565b602082019050919050565b5f6020820190508181035f830152612fad81612f74565b9050919050565b7f546f6b656e20646f6573206e6f742065786973740000000000000000000000005f82015250565b5f612fe860148361293c565b9150612ff382612fb4565b602082019050919050565b5f6020820190508181035f83015261301581612fdc565b9050919050565b7f526563697069656e74206e6f74207265676973746572656400000000000000005f82015250565b5f61305060188361293c565b915061305b8261301c565b602082019050919050565b5f6020820190508181035f83015261307d81613044565b9050919050565b7f436f6e73756d65722063616e6e6f74207472616e7366657200000000000000005f82015250565b5f6130b860188361293c565b91506130c382613084565b602082019050919050565b5f6020820190508181035f8301526130e5816130ac565b9050919050565b7f496e76616c696420726f6c65207472616e736974696f6e0000000000000000005f82015250565b5f61312060178361293c565b915061312b826130ec565b602082019050919050565b5f6020820190508181035f83015261314d81613114565b9050919050565b7f496e73756666696369656e742062616c616e63650000000000000000000000005f82015250565b5f61318860148361293c565b915061319382613154565b602082019050919050565b5f6020820190508181035f8301526131b58161317c565b9050919050565b7f4e487b71000000000000000000000000000000000000000000000000000000005f52601160045260245ffd5b5f6131f382612641565b91506131fe83612641565b9250828203905081811115613216576132156131bc565b5b92915050565b5f61322682612641565b915061323183612641565b9250828201905080821115613249576132486131bc565b5b92915050565b5f61325982612641565b91507fffffffffffffffffffffffffffffffffffffffffffffffffffffffffffffffff820361328b5761328a6131bc565b5b600182019050919050565b5f6040820190506132a95f8301856127f1565b6132b660208301846127f1565b9392505050565b7f4e6f742070656e64696e670000000000000000000000000000000000000000005f82015250565b5f6132f1600b8361293c565b91506132fc826132bd565b602082019050919050565b5f6020820190508181035f83015261331e816132e5565b9050919050565b7f4e6f7420617574686f72697a65640000000000000000000000000000000000005f82015250565b5f613359600e8361293c565b915061336482613325565b602082019050919050565b5f6020820190508181035f8301526133868161334d565b9050919050565b7f4e6f7420726563697069656e74000000000000000000000000000000000000005f82015250565b5f6133c1600d8361293c565b91506133cc8261338d565b602082019050919050565b5f6020820190508181035f8301526133ee816133b5565b9050919050565b7f4e487b71000000000000000000000000000000000000000000000000000000005f52604160045260245ffd5b7f4e487b71000000000000000000000000000000000000000000000000000000005f52603260045260245ffd5b7f496e76616c696420726f6c6500000000000000000000000000000000000000005f82015250565b5f613483600c8361293c565b915061348e8261344f565b602082019050919050565b5f6020820190508181035f8301526134b081613477565b9050919050565b5f6020820190506134ca5f830184612818565b92915050565b5f6020820190506134e35f83018461288b565b92915050565b7f4e487b71000000000000000000000000000000000000000000000000000000005f52602260045260245ffd5b5f600282049050600182168061352d57607f821691505b6020821081036135405761353f6134e9565b5b50919050565b7f4e6f742061646d696e00000000000000000000000000000000000000000000005f82015250565b5f61357a60098361293c565b915061358582613546565b602082019050919050565b5f6020820190508181035f8301526135a78161356e565b9050919050565b7f55736572206e6f7420666f756e640000000000000000000000000000000000005f82015250565b5f6135e2600e8361293c565b91506135ed826135ae565b602082019050919050565b5f6020820190508181035f83015261360f816135d6565b9050919050565b7f4e616d6520656d707479000000000000000000000000000000000000000000005f82015250565b5f61364a600a8361293c565b915061365582613616565b602082019050919050565b5f6020820190508181035f8301526136778161363e565b9050919050565b5f82905092915050565b5f819050815f5260205f209050919050565b5f6020601f8301049050919050565b5f82821b905092915050565b5f600883026136e47fffffffffffffffffffffffffffffffffffffffffffffffffffffffffffffffff826136a9565b6136ee86836136a9565b95508019841693508086168417925050509392505050565b5f819050919050565b5f61372961372461371f84612641565b613706565b612641565b9050919050565b5f819050919050565b6137428361370f565b61375661374e82613730565b8484546136b5565b825550505050565b5f5f905090565b61376d61375e565b613778818484613739565b505050565b5b8181101561379b576137905f82613765565b60018101905061377e565b5050565b601f8211156137e0576137b181613688565b6137ba8461369a565b810160208510156137c9578190505b6137dd6137d58561369a565b83018261377d565b50505b505050565b5f82821c905092915050565b5f6138005f19846008026137e5565b1980831691505092915050565b5f61381883836137f1565b9150826002028217905092915050565b613832838361367e565b67ffffffffffffffff81111561384b5761384a6133f5565b5b6138558254613516565b61386082828561379f565b5f601f83116001811461388d575f841561387b578287013590505b613885858261380d565b8655506138ec565b601f19841661389b86613688565b5f5b828110156138c25784890135825560018201915060208501945060208101905061389d565b868310156138df57848901356138db601f8916826137f1565b8355505b6001600288020188555050505b50505050505050565b828183375f83830152505050565b5f61390e838561293c565b935061391b8385846138f5565b6139248361295a565b840190509392505050565b5f6040820190508181035f830152613948818587613903565b905061395760208301846127f1565b94935050505056fea26469706673582212205f8f3bac04302aaf1e83e3c07fb691493b1951bf3b33cee89b23a2a06e7ab84364736f6c634300081e0033",
					"opcodes": "PUSH1 0xA0 PUSH1 0x40 MSTORE PUSH1 0x1 DUP1 SSTORE PUSH1 0x1 PUSH1 0x2 SSTORE PUSH1 0x1 PUSH1 0x3 SSTORE CALLVALUE DUP1 ISZERO PUSH1 0x1C JUMPI PUSH0 PUSH0 REVERT JUMPDEST POP PUSH1 0x1 PUSH0 DUP2 SWAP1 SSTORE POP CALLER PUSH20 0xFFFFFFFFFFFFFFFFFFFFFFFFFFFFFFFFFFFFFFFF AND PUSH1 0x80 DUP2 PUSH20 0xFFFFFFFFFFFFFFFFFFFFFFFFFFFFFFFFFFFFFFFF AND DUP2 MSTORE POP POP PUSH1 0x80 MLOAD PUSH2 0x3995 PUSH2 0x7E PUSH0 CODECOPY PUSH0 DUP2 DUP2 PUSH2 0xC04 ADD MSTORE DUP2 DUP2 PUSH2 0x1B27 ADD MSTORE PUSH2 0x2384 ADD MSTORE PUSH2 0x3995 PUSH0 RETURN INVALID PUSH1 0x80 PUSH1 0x40 MSTORE CALLVALUE DUP1 ISZERO PUSH2 0xF JUMPI PUSH0 PUSH0 REVERT JUMPDEST POP PUSH1 0x4 CALLDATASIZE LT PUSH2 0x12A JUMPI PUSH0 CALLDATALOAD PUSH1 0xE0 SHR DUP1 PUSH4 0x8782DC00 GT PUSH2 0xAB JUMPI DUP1 PUSH4 0xC16FE907 GT PUSH2 0x6F JUMPI DUP1 PUSH4 0xC16FE907 EQ PUSH2 0x373 JUMPI DUP1 PUSH4 0xD67B2D08 EQ PUSH2 0x3A3 JUMPI DUP1 PUSH4 0xE4B50CB8 EQ PUSH2 0x3BF JUMPI DUP1 PUSH4 0xEF57E2D2 EQ PUSH2 0x3F6 JUMPI DUP1 PUSH4 0xF851A440 EQ PUSH2 0x426 JUMPI PUSH2 0x12A JUMP JUMPDEST DUP1 PUSH4 0x8782DC00 EQ PUSH2 0x2B5 JUMPI DUP1 PUSH4 0x9377D711 EQ PUSH2 0x2D1 JUMPI DUP1 PUSH4 0xA1E6A255 EQ PUSH2 0x307 JUMPI DUP1 PUSH4 0xB5FFBBCC EQ PUSH2 0x325 JUMPI DUP1 PUSH4 0xB85B381B EQ PUSH2 0x355 JUMPI PUSH2 0x12A JUMP JUMPDEST DUP1 PUSH4 0x49217CA4 GT PUSH2 0xF2 JUMPI DUP1 PUSH4 0x49217CA4 EQ PUSH2 0x1E5 JUMPI DUP1 PUSH4 0x4F64B2BE EQ PUSH2 0x201 JUMPI DUP1 PUSH4 0x519DC8D2 EQ PUSH2 0x237 JUMPI DUP1 PUSH4 0x6386C1C7 EQ PUSH2 0x267 JUMPI DUP1 PUSH4 0x75794A3C EQ PUSH2 0x297 JUMPI PUSH2 0x12A JUMP JUMPDEST DUP1 PUSH4 0x95BCDB6 EQ PUSH2 0x12E JUMPI DUP1 PUSH4 0x12EFFC32 EQ PUSH2 0x14A JUMPI DUP1 PUSH4 0x274FAE7C EQ PUSH2 0x166 JUMPI DUP1 PUSH4 0x335D3410 EQ PUSH2 0x182 JUMPI DUP1 PUSH4 0x365B98B2 EQ PUSH2 0x1B2 JUMPI JUMPDEST PUSH0 PUSH0 REVERT JUMPDEST PUSH2 0x148 PUSH1 0x4 DUP1 CALLDATASIZE SUB DUP2 ADD SWAP1 PUSH2 0x143 SWAP2 SWAP1 PUSH2 0x2674 JUMP JUMPDEST PUSH2 0x444 JUMP JUMPDEST STOP JUMPDEST PUSH2 0x164 PUSH1 0x4 DUP1 CALLDATASIZE SUB DUP2 ADD SWAP1 PUSH2 0x15F SWAP2 SWAP1 PUSH2 0x26C4 JUMP JUMPDEST PUSH2 0xB18 JUMP JUMPDEST STOP JUMPDEST PUSH2 0x180 PUSH1 0x4 DUP1 CALLDATASIZE SUB DUP2 ADD SWAP1 PUSH2 0x17B SWAP2 SWAP1 PUSH2 0x26C4 JUMP JUMPDEST PUSH2 0xD8B JUMP JUMPDEST STOP JUMPDEST PUSH2 0x19C PUSH1 0x4 DUP1 CALLDATASIZE SUB DUP2 ADD SWAP1 PUSH2 0x197 SWAP2 SWAP1 PUSH2 0x26EF JUMP JUMPDEST PUSH2 0x110E JUMP JUMPDEST PUSH1 0x40 MLOAD PUSH2 0x1A9 SWAP2 SWAP1 PUSH2 0x27D1 JUMP JUMPDEST PUSH1 0x40 MLOAD DUP1 SWAP2 SUB SWAP1 RETURN JUMPDEST PUSH2 0x1CC PUSH1 0x4 DUP1 CALLDATASIZE SUB DUP2 ADD SWAP1 PUSH2 0x1C7 SWAP2 SWAP1 PUSH2 0x26C4 JUMP JUMPDEST PUSH2 0x132A JUMP JUMPDEST PUSH1 0x40 MLOAD PUSH2 0x1DC SWAP5 SWAP4 SWAP3 SWAP2 SWAP1 PUSH2 0x289A JUMP JUMPDEST PUSH1 0x40 MLOAD DUP1 SWAP2 SUB SWAP1 RETURN JUMPDEST PUSH2 0x1FF PUSH1 0x4 DUP1 CALLDATASIZE SUB DUP2 ADD SWAP1 PUSH2 0x1FA SWAP2 SWAP1 PUSH2 0x2907 JUMP JUMPDEST PUSH2 0x1381 JUMP JUMPDEST STOP JUMPDEST PUSH2 0x21B PUSH1 0x4 DUP1 CALLDATASIZE SUB DUP2 ADD SWAP1 PUSH2 0x216 SWAP2 SWAP1 PUSH2 0x26C4 JUMP JUMPDEST PUSH2 0x1645 JUMP JUMPDEST PUSH1 0x40 MLOAD PUSH2 0x22E SWAP8 SWAP7 SWAP6 SWAP5 SWAP4 SWAP3 SWAP2 SWAP1 PUSH2 0x29A2 JUMP JUMPDEST PUSH1 0x40 MLOAD DUP1 SWAP2 SUB SWAP1 RETURN JUMPDEST PUSH2 0x251 PUSH1 0x4 DUP1 CALLDATASIZE SUB DUP2 ADD SWAP1 PUSH2 0x24C SWAP2 SWAP1 PUSH2 0x26EF JUMP JUMPDEST PUSH2 0x17AE JUMP JUMPDEST PUSH1 0x40 MLOAD PUSH2 0x25E SWAP2 SWAP1 PUSH2 0x27D1 JUMP JUMPDEST PUSH1 0x40 MLOAD DUP1 SWAP2 SUB SWAP1 RETURN JUMPDEST PUSH2 0x281 PUSH1 0x4 DUP1 CALLDATASIZE SUB DUP2 ADD SWAP1 PUSH2 0x27C SWAP2 SWAP1 PUSH2 0x26EF JUMP JUMPDEST PUSH2 0x19B9 JUMP JUMPDEST PUSH1 0x40 MLOAD PUSH2 0x28E SWAP2 SWAP1 PUSH2 0x2A9D JUMP JUMPDEST PUSH1 0x40 MLOAD DUP1 SWAP2 SUB SWAP1 RETURN JUMPDEST PUSH2 0x29F PUSH2 0x1B1F JUMP JUMPDEST PUSH1 0x40 MLOAD PUSH2 0x2AC SWAP2 SWAP1 PUSH2 0x2AB6 JUMP JUMPDEST PUSH1 0x40 MLOAD DUP1 SWAP2 SUB SWAP1 RETURN JUMPDEST PUSH2 0x2CF PUSH1 0x4 DUP1 CALLDATASIZE SUB DUP2 ADD SWAP1 PUSH2 0x2CA SWAP2 SWAP1 PUSH2 0x2AF2 JUMP JUMPDEST PUSH2 0x1B25 JUMP JUMPDEST STOP JUMPDEST PUSH2 0x2EB PUSH1 0x4 DUP1 CALLDATASIZE SUB DUP2 ADD SWAP1 PUSH2 0x2E6 SWAP2 SWAP1 PUSH2 0x26C4 JUMP JUMPDEST PUSH2 0x1CC4 JUMP JUMPDEST PUSH1 0x40 MLOAD PUSH2 0x2FE SWAP8 SWAP7 SWAP6 SWAP5 SWAP4 SWAP3 SWAP2 SWAP1 PUSH2 0x2B76 JUMP JUMPDEST PUSH1 0x40 MLOAD DUP1 SWAP2 SUB SWAP1 RETURN JUMPDEST PUSH2 0x30F PUSH2 0x1D4C JUMP JUMPDEST PUSH1 0x40 MLOAD PUSH2 0x31C SWAP2 SWAP1 PUSH2 0x2AB6 JUMP JUMPDEST PUSH1 0x40 MLOAD DUP1 SWAP2 SUB SWAP1 RETURN JUMPDEST PUSH2 0x33F PUSH1 0x4 DUP1 CALLDATASIZE SUB DUP2 ADD SWAP1 PUSH2 0x33A SWAP2 SWAP1 PUSH2 0x26EF JUMP JUMPDEST PUSH2 0x1D52 JUMP JUMPDEST PUSH1 0x40 MLOAD PUSH2 0x34C SWAP2 SWAP1 PUSH2 0x2AB6 JUMP JUMPDEST PUSH1 0x40 MLOAD DUP1 SWAP2 SUB SWAP1 RETURN JUMPDEST PUSH2 0x35D PUSH2 0x1D67 JUMP JUMPDEST PUSH1 0x40 MLOAD PUSH2 0x36A SWAP2 SWAP1 PUSH2 0x2AB6 JUMP JUMPDEST PUSH1 0x40 MLOAD DUP1 SWAP2 SUB SWAP1 RETURN JUMPDEST PUSH2 0x38D PUSH1 0x4 DUP1 CALLDATASIZE SUB DUP2 ADD SWAP1 PUSH2 0x388 SWAP2 SWAP1 PUSH2 0x26C4 JUMP JUMPDEST PUSH2 0x1D6D JUMP JUMPDEST PUSH1 0x40 MLOAD PUSH2 0x39A SWAP2 SWAP1 PUSH2 0x2C7E JUMP JUMPDEST PUSH1 0x40 MLOAD DUP1 SWAP2 SUB SWAP1 RETURN JUMPDEST PUSH2 0x3BD PUSH1 0x4 DUP1 CALLDATASIZE SUB DUP2 ADD SWAP1 PUSH2 0x3B8 SWAP2 SWAP1 PUSH2 0x2CF8 JUMP JUMPDEST PUSH2 0x1EA3 JUMP JUMPDEST STOP JUMPDEST PUSH2 0x3D9 PUSH1 0x4 DUP1 CALLDATASIZE SUB DUP2 ADD SWAP1 PUSH2 0x3D4 SWAP2 SWAP1 PUSH2 0x26C4 JUMP JUMPDEST PUSH2 0x2118 JUMP JUMPDEST PUSH1 0x40 MLOAD PUSH2 0x3ED SWAP9 SWAP8 SWAP7 SWAP6 SWAP5 SWAP4 SWAP3 SWAP2 SWAP1 PUSH2 0x2D9B JUMP JUMPDEST PUSH1 0x40 MLOAD DUP1 SWAP2 SUB SWAP1 RETURN JUMPDEST PUSH2 0x410 PUSH1 0x4 DUP1 CALLDATASIZE SUB DUP2 ADD SWAP1 PUSH2 0x40B SWAP2 SWAP1 PUSH2 0x2E25 JUMP JUMPDEST PUSH2 0x22E5 JUMP JUMPDEST PUSH1 0x40 MLOAD PUSH2 0x41D SWAP2 SWAP1 PUSH2 0x2AB6 JUMP JUMPDEST PUSH1 0x40 MLOAD DUP1 SWAP2 SUB SWAP1 RETURN JUMPDEST PUSH2 0x42E PUSH2 0x2382 JUMP JUMPDEST PUSH1 0x40 MLOAD PUSH2 0x43B SWAP2 SWAP1 PUSH2 0x2E63 JUMP JUMPDEST PUSH1 0x40 MLOAD DUP1 SWAP2 SUB SWAP1 RETURN JUMPDEST PUSH0 PUSH1 0x7 PUSH0 CALLER PUSH20 0xFFFFFFFFFFFFFFFFFFFFFFFFFFFFFFFFFFFFFFFF AND PUSH20 0xFFFFFFFFFFFFFFFFFFFFFFFFFFFFFFFFFFFFFFFF AND DUP2 MSTORE PUSH1 0x20 ADD SWAP1 DUP2 MSTORE PUSH1 0x20 ADD PUSH0 KECCAK256 SLOAD SWAP1 POP PUSH0 DUP2 EQ ISZERO DUP1 ISZERO PUSH2 0x4D9 JUMPI POP PUSH1 0x1 PUSH1 0x3 DUP2 GT ISZERO PUSH2 0x4A4 JUMPI PUSH2 0x4A3 PUSH2 0x2827 JUMP JUMPDEST JUMPDEST PUSH1 0x6 PUSH0 DUP4 DUP2 MSTORE PUSH1 0x20 ADD SWAP1 DUP2 MSTORE PUSH1 0x20 ADD PUSH0 KECCAK256 PUSH1 0x3 ADD PUSH0 SWAP1 SLOAD SWAP1 PUSH2 0x100 EXP SWAP1 DIV PUSH1 0xFF AND PUSH1 0x3 DUP2 GT ISZERO PUSH2 0x4D7 JUMPI PUSH2 0x4D6 PUSH2 0x2827 JUMP JUMPDEST JUMPDEST EQ JUMPDEST PUSH2 0x518 JUMPI PUSH1 0x40 MLOAD PUSH32 0x8C379A000000000000000000000000000000000000000000000000000000000 DUP2 MSTORE PUSH1 0x4 ADD PUSH2 0x50F SWAP1 PUSH2 0x2EC6 JUMP JUMPDEST PUSH1 0x40 MLOAD DUP1 SWAP2 SUB SWAP1 REVERT JUMPDEST PUSH2 0x520 PUSH2 0x23A6 JUMP JUMPDEST PUSH0 PUSH20 0xFFFFFFFFFFFFFFFFFFFFFFFFFFFFFFFFFFFFFFFF AND DUP5 PUSH20 0xFFFFFFFFFFFFFFFFFFFFFFFFFFFFFFFFFFFFFFFF AND EQ ISZERO DUP1 ISZERO PUSH2 0x588 JUMPI POP CALLER PUSH20 0xFFFFFFFFFFFFFFFFFFFFFFFFFFFFFFFFFFFFFFFF AND DUP5 PUSH20 0xFFFFFFFFFFFFFFFFFFFFFFFFFFFFFFFFFFFFFFFF AND EQ ISZERO JUMPDEST PUSH2 0x5C7 JUMPI PUSH1 0x40 MLOAD PUSH32 0x8C379A000000000000000000000000000000000000000000000000000000000 DUP2 MSTORE PUSH1 0x4 ADD PUSH2 0x5BE SWAP1 PUSH2 0x2F2E JUMP JUMPDEST PUSH1 0x40 MLOAD DUP1 SWAP2 SUB SWAP1 REVERT JUMPDEST PUSH0 DUP3 GT PUSH2 0x609 JUMPI PUSH1 0x40 MLOAD PUSH32 0x8C379A000000000000000000000000000000000000000000000000000000000 DUP2 MSTORE PUSH1 0x4 ADD PUSH2 0x600 SWAP1 PUSH2 0x2F96 JUMP JUMPDEST PUSH1 0x40 MLOAD DUP1 SWAP2 SUB SWAP1 REVERT JUMPDEST PUSH1 0x1 SLOAD DUP4 LT PUSH2 0x64D JUMPI PUSH1 0x40 MLOAD PUSH32 0x8C379A000000000000000000000000000000000000000000000000000000000 DUP2 MSTORE PUSH1 0x4 ADD PUSH2 0x644 SWAP1 PUSH2 0x2FFE JUMP JUMPDEST PUSH1 0x40 MLOAD DUP1 SWAP2 SUB SWAP1 REVERT JUMPDEST PUSH0 PUSH1 0x7 PUSH0 CALLER PUSH20 0xFFFFFFFFFFFFFFFFFFFFFFFFFFFFFFFFFFFFFFFF AND PUSH20 0xFFFFFFFFFFFFFFFFFFFFFFFFFFFFFFFFFFFFFFFF AND DUP2 MSTORE PUSH1 0x20 ADD SWAP1 DUP2 MSTORE PUSH1 0x20 ADD PUSH0 KECCAK256 SLOAD SWAP1 POP PUSH0 PUSH1 0x7 PUSH0 DUP8 PUSH20 0xFFFFFFFFFFFFFFFFFFFFFFFFFFFFFFFFFFFFFFFF AND PUSH20 0xFFFFFFFFFFFFFFFFFFFFFFFFFFFFFFFFFFFFFFFF AND DUP2 MSTORE PUSH1 0x20 ADD SWAP1 DUP2 MSTORE PUSH1 0x20 ADD PUSH0 KECCAK256 SLOAD SWAP1 POP PUSH0 DUP2 SUB PUSH2 0x711 JUMPI PUSH1 0x40 MLOAD PUSH32 0x8C379A000000000000000000000000000000000000000000000000000000000 DUP2 MSTORE PUSH1 0x4 ADD PUSH2 0x708 SWAP1 PUSH2 0x3066 JUMP JUMPDEST PUSH1 0x40 MLOAD DUP1 SWAP2 SUB SWAP1 REVERT JUMPDEST PUSH2 0x72E PUSH1 0x6 PUSH0 DUP5 DUP2 MSTORE PUSH1 0x20 ADD SWAP1 DUP2 MSTORE PUSH1 0x20 ADD PUSH0 KECCAK256 PUSH1 0x2 ADD SLOAD PUSH2 0x23EA JUMP JUMPDEST ISZERO PUSH2 0x76E JUMPI PUSH1 0x40 MLOAD PUSH32 0x8C379A000000000000000000000000000000000000000000000000000000000 DUP2 MSTORE PUSH1 0x4 ADD PUSH2 0x765 SWAP1 PUSH2 0x30CE JUMP JUMPDEST PUSH1 0x40 MLOAD DUP1 SWAP2 SUB SWAP1 REVERT JUMPDEST PUSH2 0x7A0 PUSH1 0x6 PUSH0 DUP5 DUP2 MSTORE PUSH1 0x20 ADD SWAP1 DUP2 MSTORE PUSH1 0x20 ADD PUSH0 KECCAK256 PUSH1 0x2 ADD SLOAD PUSH1 0x6 PUSH0 DUP5 DUP2 MSTORE PUSH1 0x20 ADD SWAP1 DUP2 MSTORE PUSH1 0x20 ADD PUSH0 KECCAK256 PUSH1 0x2 ADD SLOAD PUSH2 0x2415 JUMP JUMPDEST PUSH2 0x7DF JUMPI PUSH1 0x40 MLOAD PUSH32 0x8C379A000000000000000000000000000000000000000000000000000000000 DUP2 MSTORE PUSH1 0x4 ADD PUSH2 0x7D6 SWAP1 PUSH2 0x3136 JUMP JUMPDEST PUSH1 0x40 MLOAD DUP1 SWAP2 SUB SWAP1 REVERT JUMPDEST PUSH0 PUSH1 0x4 PUSH0 DUP8 DUP2 MSTORE PUSH1 0x20 ADD SWAP1 DUP2 MSTORE PUSH1 0x20 ADD PUSH0 KECCAK256 SWAP1 POP DUP5 DUP2 PUSH1 0x7 ADD PUSH0 CALLER PUSH20 0xFFFFFFFFFFFFFFFFFFFFFFFFFFFFFFFFFFFFFFFF AND PUSH20 0xFFFFFFFFFFFFFFFFFFFFFFFFFFFFFFFFFFFFFFFF AND DUP2 MSTORE PUSH1 0x20 ADD SWAP1 DUP2 MSTORE PUSH1 0x20 ADD PUSH0 KECCAK256 SLOAD LT ISZERO PUSH2 0x875 JUMPI PUSH1 0x40 MLOAD PUSH32 0x8C379A000000000000000000000000000000000000000000000000000000000 DUP2 MSTORE PUSH1 0x4 ADD PUSH2 0x86C SWAP1 PUSH2 0x319E JUMP JUMPDEST PUSH1 0x40 MLOAD DUP1 SWAP2 SUB SWAP1 REVERT JUMPDEST DUP5 DUP2 PUSH1 0x7 ADD PUSH0 CALLER PUSH20 0xFFFFFFFFFFFFFFFFFFFFFFFFFFFFFFFFFFFFFFFF AND PUSH20 0xFFFFFFFFFFFFFFFFFFFFFFFFFFFFFFFFFFFFFFFF AND DUP2 MSTORE PUSH1 0x20 ADD SWAP1 DUP2 MSTORE PUSH1 0x20 ADD PUSH0 KECCAK256 PUSH0 DUP3 DUP3 SLOAD PUSH2 0x8C3 SWAP2 SWAP1 PUSH2 0x31E9 JUMP JUMPDEST SWAP3 POP POP DUP2 SWAP1 SSTORE POP DUP5 DUP2 PUSH1 0x7 ADD PUSH0 DUP10 PUSH20 0xFFFFFFFFFFFFFFFFFFFFFFFFFFFFFFFFFFFFFFFF AND PUSH20 0xFFFFFFFFFFFFFFFFFFFFFFFFFFFFFFFFFFFFFFFF AND DUP2 MSTORE PUSH1 0x20 ADD SWAP1 DUP2 MSTORE PUSH1 0x20 ADD PUSH0 KECCAK256 PUSH0 DUP3 DUP3 SLOAD PUSH2 0x918 SWAP2 SWAP1 PUSH2 0x321C JUMP JUMPDEST SWAP3 POP POP DUP2 SWAP1 SSTORE POP PUSH0 PUSH1 0x2 PUSH0 DUP2 SLOAD DUP1 SWAP3 SWAP2 SWAP1 PUSH2 0x932 SWAP1 PUSH2 0x324F JUMP JUMPDEST SWAP2 SWAP1 POP SSTORE SWAP1 POP PUSH1 0x40 MLOAD DUP1 PUSH1 0xE0 ADD PUSH1 0x40 MSTORE DUP1 DUP3 DUP2 MSTORE PUSH1 0x20 ADD CALLER PUSH20 0xFFFFFFFFFFFFFFFFFFFFFFFFFFFFFFFFFFFFFFFF AND DUP2 MSTORE PUSH1 0x20 ADD DUP10 PUSH20 0xFFFFFFFFFFFFFFFFFFFFFFFFFFFFFFFFFFFFFFFF AND DUP2 MSTORE PUSH1 0x20 ADD DUP9 DUP2 MSTORE PUSH1 0x20 ADD TIMESTAMP DUP2 MSTORE PUSH1 0x20 ADD DUP8 DUP2 MSTORE PUSH1 0x20 ADD PUSH0 PUSH1 0x2 DUP2 GT ISZERO PUSH2 0x9A6 JUMPI PUSH2 0x9A5 PUSH2 0x2827 JUMP JUMPDEST JUMPDEST DUP2 MSTORE POP PUSH1 0x5 PUSH0 DUP4 DUP2 MSTORE PUSH1 0x20 ADD SWAP1 DUP2 MSTORE PUSH1 0x20 ADD PUSH0 KECCAK256 PUSH0 DUP3 ADD MLOAD DUP2 PUSH0 ADD SSTORE PUSH1 0x20 DUP3 ADD MLOAD DUP2 PUSH1 0x1 ADD PUSH0 PUSH2 0x100 EXP DUP2 SLOAD DUP2 PUSH20 0xFFFFFFFFFFFFFFFFFFFFFFFFFFFFFFFFFFFFFFFF MUL NOT AND SWAP1 DUP4 PUSH20 0xFFFFFFFFFFFFFFFFFFFFFFFFFFFFFFFFFFFFFFFF AND MUL OR SWAP1 SSTORE POP PUSH1 0x40 DUP3 ADD MLOAD DUP2 PUSH1 0x2 ADD PUSH0 PUSH2 0x100 EXP DUP2 SLOAD DUP2 PUSH20 0xFFFFFFFFFFFFFFFFFFFFFFFFFFFFFFFFFFFFFFFF MUL NOT AND SWAP1 DUP4 PUSH20 0xFFFFFFFFFFFFFFFFFFFFFFFFFFFFFFFFFFFFFFFF AND MUL OR SWAP1 SSTORE POP PUSH1 0x60 DUP3 ADD MLOAD DUP2 PUSH1 0x3 ADD SSTORE PUSH1 0x80 DUP3 ADD MLOAD DUP2 PUSH1 0x4 ADD SSTORE PUSH1 0xA0 DUP3 ADD MLOAD DUP2 PUSH1 0x5 ADD SSTORE PUSH1 0xC0 DUP3 ADD MLOAD DUP2 PUSH1 0x6 ADD PUSH0 PUSH2 0x100 EXP DUP2 SLOAD DUP2 PUSH1 0xFF MUL NOT AND SWAP1 DUP4 PUSH1 0x2 DUP2 GT ISZERO PUSH2 0xA96 JUMPI PUSH2 0xA95 PUSH2 0x2827 JUMP JUMPDEST JUMPDEST MUL OR SWAP1 SSTORE POP SWAP1 POP POP DUP8 PUSH20 0xFFFFFFFFFFFFFFFFFFFFFFFFFFFFFFFFFFFFFFFF AND CALLER PUSH20 0xFFFFFFFFFFFFFFFFFFFFFFFFFFFFFFFFFFFFFFFF AND DUP3 PUSH32 0xC8262DC04F8F56ABC884E1F58CA17A373610558A6CEBC5E927B9E1C4668E5FDF DUP11 DUP11 PUSH1 0x40 MLOAD PUSH2 0xAFE SWAP3 SWAP2 SWAP1 PUSH2 0x3296 JUMP JUMPDEST PUSH1 0x40 MLOAD DUP1 SWAP2 SUB SWAP1 LOG4 POP POP POP POP PUSH2 0xB12 PUSH2 0x2516 JUMP JUMPDEST POP POP POP POP JUMP JUMPDEST PUSH2 0xB20 PUSH2 0x23A6 JUMP JUMPDEST PUSH0 PUSH1 0x5 PUSH0 DUP4 DUP2 MSTORE PUSH1 0x20 ADD SWAP1 DUP2 MSTORE PUSH1 0x20 ADD PUSH0 KECCAK256 SWAP1 POP PUSH0 PUSH1 0x2 DUP2 GT ISZERO PUSH2 0xB47 JUMPI PUSH2 0xB46 PUSH2 0x2827 JUMP JUMPDEST JUMPDEST DUP2 PUSH1 0x6 ADD PUSH0 SWAP1 SLOAD SWAP1 PUSH2 0x100 EXP SWAP1 DIV PUSH1 0xFF AND PUSH1 0x2 DUP2 GT ISZERO PUSH2 0xB6A JUMPI PUSH2 0xB69 PUSH2 0x2827 JUMP JUMPDEST JUMPDEST EQ PUSH2 0xBAA JUMPI PUSH1 0x40 MLOAD PUSH32 0x8C379A000000000000000000000000000000000000000000000000000000000 DUP2 MSTORE PUSH1 0x4 ADD PUSH2 0xBA1 SWAP1 PUSH2 0x3307 JUMP JUMPDEST PUSH1 0x40 MLOAD DUP1 SWAP2 SUB SWAP1 REVERT JUMPDEST DUP1 PUSH1 0x2 ADD PUSH0 SWAP1 SLOAD SWAP1 PUSH2 0x100 EXP SWAP1 DIV PUSH20 0xFFFFFFFFFFFFFFFFFFFFFFFFFFFFFFFFFFFFFFFF AND PUSH20 0xFFFFFFFFFFFFFFFFFFFFFFFFFFFFFFFFFFFFFFFF AND CALLER PUSH20 0xFFFFFFFFFFFFFFFFFFFFFFFFFFFFFFFFFFFFFFFF AND EQ DUP1 PUSH2 0xC52 JUMPI POP PUSH32 0x0 PUSH20 0xFFFFFFFFFFFFFFFFFFFFFFFFFFFFFFFFFFFFFFFF AND CALLER PUSH20 0xFFFFFFFFFFFFFFFFFFFFFFFFFFFFFFFFFFFFFFFF AND EQ JUMPDEST PUSH2 0xC91 JUMPI PUSH1 0x40 MLOAD PUSH32 0x8C379A000000000000000000000000000000000000000000000000000000000 DUP2 MSTORE PUSH1 0x4 ADD PUSH2 0xC88 SWAP1 PUSH2 0x336F JUMP JUMPDEST PUSH1 0x40 MLOAD DUP1 SWAP2 SUB SWAP1 REVERT JUMPDEST PUSH0 PUSH1 0x4 PUSH0 DUP4 PUSH1 0x3 ADD SLOAD DUP2 MSTORE PUSH1 0x20 ADD SWAP1 DUP2 MSTORE PUSH1 0x20 ADD PUSH0 KECCAK256 SWAP1 POP DUP2 PUSH1 0x5 ADD SLOAD DUP2 PUSH1 0x7 ADD PUSH0 DUP5 PUSH1 0x1 ADD PUSH0 SWAP1 SLOAD SWAP1 PUSH2 0x100 EXP SWAP1 DIV PUSH20 0xFFFFFFFFFFFFFFFFFFFFFFFFFFFFFFFFFFFFFFFF AND PUSH20 0xFFFFFFFFFFFFFFFFFFFFFFFFFFFFFFFFFFFFFFFF AND PUSH20 0xFFFFFFFFFFFFFFFFFFFFFFFFFFFFFFFFFFFFFFFF AND DUP2 MSTORE PUSH1 0x20 ADD SWAP1 DUP2 MSTORE PUSH1 0x20 ADD PUSH0 KECCAK256 PUSH0 DUP3 DUP3 SLOAD PUSH2 0xD1E SWAP2 SWAP1 PUSH2 0x321C JUMP JUMPDEST SWAP3 POP POP DUP2 SWAP1 SSTORE POP PUSH1 0x2 DUP3 PUSH1 0x6 ADD PUSH0 PUSH2 0x100 EXP DUP2 SLOAD DUP2 PUSH1 0xFF MUL NOT AND SWAP1 DUP4 PUSH1 0x2 DUP2 GT ISZERO PUSH2 0xD4C JUMPI PUSH2 0xD4B PUSH2 0x2827 JUMP JUMPDEST JUMPDEST MUL OR SWAP1 SSTORE POP DUP3 PUSH32 0x1F4F8A94E17D25044030F376D297769C8F9A1A2A0616E36B498A1E7370B5863F PUSH1 0x40 MLOAD PUSH1 0x40 MLOAD DUP1 SWAP2 SUB SWAP1 LOG2 POP POP PUSH2 0xD88 PUSH2 0x2516 JUMP JUMPDEST POP JUMP JUMPDEST PUSH0 PUSH1 0x7 PUSH0 CALLER PUSH20 0xFFFFFFFFFFFFFFFFFFFFFFFFFFFFFFFFFFFFFFFF AND PUSH20 0xFFFFFFFFFFFFFFFFFFFFFFFFFFFFFFFFFFFFFFFF AND DUP2 MSTORE PUSH1 0x20 ADD SWAP1 DUP2 MSTORE PUSH1 0x20 ADD PUSH0 KECCAK256 SLOAD SWAP1 POP PUSH0 DUP2 EQ ISZERO DUP1 ISZERO PUSH2 0xE20 JUMPI POP PUSH1 0x1 PUSH1 0x3 DUP2 GT ISZERO PUSH2 0xDEB JUMPI PUSH2 0xDEA PUSH2 0x2827 JUMP JUMPDEST JUMPDEST PUSH1 0x6 PUSH0 DUP4 DUP2 MSTORE PUSH1 0x20 ADD SWAP1 DUP2 MSTORE PUSH1 0x20 ADD PUSH0 KECCAK256 PUSH1 0x3 ADD PUSH0 SWAP1 SLOAD SWAP1 PUSH2 0x100 EXP SWAP1 DIV PUSH1 0xFF AND PUSH1 0x3 DUP2 GT ISZERO PUSH2 0xE1E JUMPI PUSH2 0xE1D PUSH2 0x2827 JUMP JUMPDEST JUMPDEST EQ JUMPDEST PUSH2 0xE5F JUMPI PUSH1 0x40 MLOAD PUSH32 0x8C379A000000000000000000000000000000000000000000000000000000000 DUP2 MSTORE PUSH1 0x4 ADD PUSH2 0xE56 SWAP1 PUSH2 0x2EC6 JUMP JUMPDEST PUSH1 0x40 MLOAD DUP1 SWAP2 SUB SWAP1 REVERT JUMPDEST PUSH0 PUSH1 0x5 PUSH0 DUP5 DUP2 MSTORE PUSH1 0x20 ADD SWAP1 DUP2 MSTORE PUSH1 0x20 ADD PUSH0 KECCAK256 SWAP1 POP PUSH0 PUSH1 0x2 DUP2 GT ISZERO PUSH2 0xE86 JUMPI PUSH2 0xE85 PUSH2 0x2827 JUMP JUMPDEST JUMPDEST DUP2 PUSH1 0x6 ADD PUSH0 SWAP1 SLOAD SWAP1 PUSH2 0x100 EXP SWAP1 DIV PUSH1 0xFF AND PUSH1 0x2 DUP2 GT ISZERO PUSH2 0xEA9 JUMPI PUSH2 0xEA8 PUSH2 0x2827 JUMP JUMPDEST JUMPDEST EQ PUSH2 0xEE9 JUMPI PUSH1 0x40 MLOAD PUSH32 0x8C379A000000000000000000000000000000000000000000000000000000000 DUP2 MSTORE PUSH1 0x4 ADD PUSH2 0xEE0 SWAP1 PUSH2 0x3307 JUMP JUMPDEST PUSH1 0x40 MLOAD DUP1 SWAP2 SUB SWAP1 REVERT JUMPDEST DUP1 PUSH1 0x2 ADD PUSH0 SWAP1 SLOAD SWAP1 PUSH2 0x100 EXP SWAP1 DIV PUSH20 0xFFFFFFFFFFFFFFFFFFFFFFFFFFFFFFFFFFFFFFFF AND PUSH20 0xFFFFFFFFFFFFFFFFFFFFFFFFFFFFFFFFFFFFFFFF AND CALLER PUSH20 0xFFFFFFFFFFFFFFFFFFFFFFFFFFFFFFFFFFFFFFFF AND EQ PUSH2 0xF7A JUMPI PUSH1 0x40 MLOAD PUSH32 0x8C379A000000000000000000000000000000000000000000000000000000000 DUP2 MSTORE PUSH1 0x4 ADD PUSH2 0xF71 SWAP1 PUSH2 0x33D7 JUMP JUMPDEST PUSH1 0x40 MLOAD DUP1 SWAP2 SUB SWAP1 REVERT JUMPDEST PUSH0 PUSH1 0x7 PUSH0 DUP4 PUSH1 0x2 ADD PUSH0 SWAP1 SLOAD SWAP1 PUSH2 0x100 EXP SWAP1 DIV PUSH20 0xFFFFFFFFFFFFFFFFFFFFFFFFFFFFFFFFFFFFFFFF AND PUSH20 0xFFFFFFFFFFFFFFFFFFFFFFFFFFFFFFFFFFFFFFFF AND PUSH20 0xFFFFFFFFFFFFFFFFFFFFFFFFFFFFFFFFFFFFFFFF AND DUP2 MSTORE PUSH1 0x20 ADD SWAP1 DUP2 MSTORE PUSH1 0x20 ADD PUSH0 KECCAK256 SLOAD SWAP1 POP PUSH2 0x1070 PUSH1 0x6 PUSH0 PUSH1 0x7 PUSH0 DUP7 PUSH1 0x1 ADD PUSH0 SWAP1 SLOAD SWAP1 PUSH2 0x100 EXP SWAP1 DIV PUSH20 0xFFFFFFFFFFFFFFFFFFFFFFFFFFFFFFFFFFFFFFFF AND PUSH20 0xFFFFFFFFFFFFFFFFFFFFFFFFFFFFFFFFFFFFFFFF AND PUSH20 0xFFFFFFFFFFFFFFFFFFFFFFFFFFFFFFFFFFFFFFFF AND DUP2 MSTORE PUSH1 0x20 ADD SWAP1 DUP2 MSTORE PUSH1 0x20 ADD PUSH0 KECCAK256 SLOAD DUP2 MSTORE PUSH1 0x20 ADD SWAP1 DUP2 MSTORE PUSH1 0x20 ADD PUSH0 KECCAK256 PUSH1 0x2 ADD SLOAD PUSH1 0x6 PUSH0 DUP5 DUP2 MSTORE PUSH1 0x20 ADD SWAP1 DUP2 MSTORE PUSH1 0x20 ADD PUSH0 KECCAK256 PUSH1 0x2 ADD SLOAD PUSH2 0x2415 JUMP JUMPDEST PUSH2 0x10AF JUMPI PUSH1 0x40 MLOAD PUSH32 0x8C379A000000000000000000000000000000000000000000000000000000000 DUP2 MSTORE PUSH1 0x4 ADD PUSH2 0x10A6 SWAP1 PUSH2 0x3136 JUMP JUMPDEST PUSH1 0x40 MLOAD DUP1 SWAP2 SUB SWAP1 REVERT JUMPDEST PUSH1 0x1 DUP3 PUSH1 0x6 ADD PUSH0 PUSH2 0x100 EXP DUP2 SLOAD DUP2 PUSH1 0xFF MUL NOT AND SWAP1 DUP4 PUSH1 0x2 DUP2 GT ISZERO PUSH2 0x10D6 JUMPI PUSH2 0x10D5 PUSH2 0x2827 JUMP JUMPDEST JUMPDEST MUL OR SWAP1 SSTORE POP DUP4 PUSH32 0x91DD4234B45D77221E6ECA52C141569A6D0F3B3FFE9B8A18FE8B9AAFBC64B44B PUSH1 0x40 MLOAD PUSH1 0x40 MLOAD DUP1 SWAP2 SUB SWAP1 LOG2 POP POP POP POP JUMP JUMPDEST PUSH1 0x60 PUSH0 PUSH1 0x1 PUSH1 0x2 SLOAD PUSH2 0x1120 SWAP2 SWAP1 PUSH2 0x31E9 JUMP JUMPDEST PUSH8 0xFFFFFFFFFFFFFFFF DUP2 GT ISZERO PUSH2 0x1139 JUMPI PUSH2 0x1138 PUSH2 0x33F5 JUMP JUMPDEST JUMPDEST PUSH1 0x40 MLOAD SWAP1 DUP1 DUP3 MSTORE DUP1 PUSH1 0x20 MUL PUSH1 0x20 ADD DUP3 ADD PUSH1 0x40 MSTORE DUP1 ISZERO PUSH2 0x1167 JUMPI DUP2 PUSH1 0x20 ADD PUSH1 0x20 DUP3 MUL DUP1 CALLDATASIZE DUP4 CALLDATACOPY DUP1 DUP3 ADD SWAP2 POP POP SWAP1 POP JUMPDEST POP SWAP1 POP PUSH0 PUSH0 SWAP1 POP PUSH0 PUSH1 0x1 SWAP1 POP JUMPDEST PUSH1 0x2 SLOAD DUP2 LT ISZERO PUSH2 0x127D JUMPI PUSH0 PUSH1 0x5 PUSH0 DUP4 DUP2 MSTORE PUSH1 0x20 ADD SWAP1 DUP2 MSTORE PUSH1 0x20 ADD PUSH0 KECCAK256 SWAP1 POP DUP6 PUSH20 0xFFFFFFFFFFFFFFFFFFFFFFFFFFFFFFFFFFFFFFFF AND DUP2 PUSH1 0x1 ADD PUSH0 SWAP1 SLOAD SWAP1 PUSH2 0x100 EXP SWAP1 DIV PUSH20 0xFFFFFFFFFFFFFFFFFFFFFFFFFFFFFFFFFFFFFFFF AND PUSH20 0xFFFFFFFFFFFFFFFFFFFFFFFFFFFFFFFFFFFFFFFF AND EQ DUP1 PUSH2 0x123D JUMPI POP DUP6 PUSH20 0xFFFFFFFFFFFFFFFFFFFFFFFFFFFFFFFFFFFFFFFF AND DUP2 PUSH1 0x2 ADD PUSH0 SWAP1 SLOAD SWAP1 PUSH2 0x100 EXP SWAP1 DIV PUSH20 0xFFFFFFFFFFFFFFFFFFFFFFFFFFFFFFFFFFFFFFFF AND PUSH20 0xFFFFFFFFFFFFFFFFFFFFFFFFFFFFFFFFFFFFFFFF AND EQ JUMPDEST ISZERO PUSH2 0x126F JUMPI DUP2 DUP5 DUP5 DUP1 PUSH2 0x124F SWAP1 PUSH2 0x324F JUMP JUMPDEST SWAP6 POP DUP2 MLOAD DUP2 LT PUSH2 0x1262 JUMPI PUSH2 0x1261 PUSH2 0x3422 JUMP JUMPDEST JUMPDEST PUSH1 0x20 MUL PUSH1 0x20 ADD ADD DUP2 DUP2 MSTORE POP POP JUMPDEST POP DUP1 DUP1 PUSH1 0x1 ADD SWAP2 POP POP PUSH2 0x1174 JUMP JUMPDEST POP PUSH0 DUP2 PUSH8 0xFFFFFFFFFFFFFFFF DUP2 GT ISZERO PUSH2 0x1299 JUMPI PUSH2 0x1298 PUSH2 0x33F5 JUMP JUMPDEST JUMPDEST PUSH1 0x40 MLOAD SWAP1 DUP1 DUP3 MSTORE DUP1 PUSH1 0x20 MUL PUSH1 0x20 ADD DUP3 ADD PUSH1 0x40 MSTORE DUP1 ISZERO PUSH2 0x12C7 JUMPI DUP2 PUSH1 0x20 ADD PUSH1 0x20 DUP3 MUL DUP1 CALLDATASIZE DUP4 CALLDATACOPY DUP1 DUP3 ADD SWAP2 POP POP SWAP1 POP JUMPDEST POP SWAP1 POP PUSH0 PUSH0 SWAP1 POP JUMPDEST DUP3 DUP2 LT ISZERO PUSH2 0x131E JUMPI DUP4 DUP2 DUP2 MLOAD DUP2 LT PUSH2 0x12EA JUMPI PUSH2 0x12E9 PUSH2 0x3422 JUMP JUMPDEST JUMPDEST PUSH1 0x20 MUL PUSH1 0x20 ADD ADD MLOAD DUP3 DUP3 DUP2 MLOAD DUP2 LT PUSH2 0x1305 JUMPI PUSH2 0x1304 PUSH2 0x3422 JUMP JUMPDEST JUMPDEST PUSH1 0x20 MUL PUSH1 0x20 ADD ADD DUP2 DUP2 MSTORE POP POP DUP1 DUP1 PUSH1 0x1 ADD SWAP2 POP POP PUSH2 0x12CF JUMP JUMPDEST POP DUP1 SWAP4 POP POP POP POP SWAP2 SWAP1 POP JUMP JUMPDEST PUSH1 0x6 PUSH1 0x20 MSTORE DUP1 PUSH0 MSTORE PUSH1 0x40 PUSH0 KECCAK256 PUSH0 SWAP2 POP SWAP1 POP DUP1 PUSH0 ADD SLOAD SWAP1 DUP1 PUSH1 0x1 ADD PUSH0 SWAP1 SLOAD SWAP1 PUSH2 0x100 EXP SWAP1 DIV PUSH20 0xFFFFFFFFFFFFFFFFFFFFFFFFFFFFFFFFFFFFFFFF AND SWAP1 DUP1 PUSH1 0x2 ADD SLOAD SWAP1 DUP1 PUSH1 0x3 ADD PUSH0 SWAP1 SLOAD SWAP1 PUSH2 0x100 EXP SWAP1 DIV PUSH1 0xFF AND SWAP1 POP DUP5 JUMP JUMPDEST PUSH0 PUSH0 SHL DUP2 SUB PUSH2 0x13C5 JUMPI PUSH1 0x40 MLOAD PUSH32 0x8C379A000000000000000000000000000000000000000000000000000000000 DUP2 MSTORE PUSH1 0x4 ADD PUSH2 0x13BC SWAP1 PUSH2 0x3499 JUMP JUMPDEST PUSH1 0x40 MLOAD DUP1 SWAP2 SUB SWAP1 REVERT JUMPDEST PUSH0 PUSH1 0x7 PUSH0 CALLER PUSH20 0xFFFFFFFFFFFFFFFFFFFFFFFFFFFFFFFFFFFFFFFF AND PUSH20 0xFFFFFFFFFFFFFFFFFFFFFFFFFFFFFFFFFFFFFFFF AND DUP2 MSTORE PUSH1 0x20 ADD SWAP1 DUP2 MSTORE PUSH1 0x20 ADD PUSH0 KECCAK256 SLOAD SWAP1 POP PUSH0 DUP2 SUB PUSH2 0x1550 JUMPI PUSH1 0x3 PUSH0 DUP2 SLOAD DUP1 SWAP3 SWAP2 SWAP1 PUSH2 0x141F SWAP1 PUSH2 0x324F JUMP JUMPDEST SWAP2 SWAP1 POP SSTORE SWAP1 POP PUSH1 0x40 MLOAD DUP1 PUSH1 0x80 ADD PUSH1 0x40 MSTORE DUP1 DUP3 DUP2 MSTORE PUSH1 0x20 ADD CALLER PUSH20 0xFFFFFFFFFFFFFFFFFFFFFFFFFFFFFFFFFFFFFFFF AND DUP2 MSTORE PUSH1 0x20 ADD DUP4 DUP2 MSTORE PUSH1 0x20 ADD PUSH0 PUSH1 0x3 DUP2 GT ISZERO PUSH2 0x146B JUMPI PUSH2 0x146A PUSH2 0x2827 JUMP JUMPDEST JUMPDEST DUP2 MSTORE POP PUSH1 0x6 PUSH0 DUP4 DUP2 MSTORE PUSH1 0x20 ADD SWAP1 DUP2 MSTORE PUSH1 0x20 ADD PUSH0 KECCAK256 PUSH0 DUP3 ADD MLOAD DUP2 PUSH0 ADD SSTORE PUSH1 0x20 DUP3 ADD MLOAD DUP2 PUSH1 0x1 ADD PUSH0 PUSH2 0x100 EXP DUP2 SLOAD DUP2 PUSH20 0xFFFFFFFFFFFFFFFFFFFFFFFFFFFFFFFFFFFFFFFF MUL NOT AND SWAP1 DUP4 PUSH20 0xFFFFFFFFFFFFFFFFFFFFFFFFFFFFFFFFFFFFFFFF AND MUL OR SWAP1 SSTORE POP PUSH1 0x40 DUP3 ADD MLOAD DUP2 PUSH1 0x2 ADD SSTORE PUSH1 0x60 DUP3 ADD MLOAD DUP2 PUSH1 0x3 ADD PUSH0 PUSH2 0x100 EXP DUP2 SLOAD DUP2 PUSH1 0xFF MUL NOT AND SWAP1 DUP4 PUSH1 0x3 DUP2 GT ISZERO PUSH2 0x1501 JUMPI PUSH2 0x1500 PUSH2 0x2827 JUMP JUMPDEST JUMPDEST MUL OR SWAP1 SSTORE POP SWAP1 POP POP DUP1 PUSH1 0x7 PUSH0 CALLER PUSH20 0xFFFFFFFFFFFFFFFFFFFFFFFFFFFFFFFFFFFFFFFF AND PUSH20 0xFFFFFFFFFFFFFFFFFFFFFFFFFFFFFFFFFFFFFFFF AND DUP2 MSTORE PUSH1 0x20 ADD SWAP1 DUP2 MSTORE PUSH1 0x20 ADD PUSH0 KECCAK256 DUP2 SWAP1 SSTORE POP PUSH2 0x15A5 JUMP JUMPDEST DUP2 PUSH1 0x6 PUSH0 DUP4 DUP2 MSTORE PUSH1 0x20 ADD SWAP1 DUP2 MSTORE PUSH1 0x20 ADD PUSH0 KECCAK256 PUSH1 0x2 ADD DUP2 SWAP1 SSTORE POP PUSH0 PUSH1 0x6 PUSH0 DUP4 DUP2 MSTORE PUSH1 0x20 ADD SWAP1 DUP2 MSTORE PUSH1 0x20 ADD PUSH0 KECCAK256 PUSH1 0x3 ADD PUSH0 PUSH2 0x100 EXP DUP2 SLOAD DUP2 PUSH1 0xFF MUL NOT AND SWAP1 DUP4 PUSH1 0x3 DUP2 GT ISZERO PUSH2 0x159F JUMPI PUSH2 0x159E PUSH2 0x2827 JUMP JUMPDEST JUMPDEST MUL OR SWAP1 SSTORE POP JUMPDEST CALLER PUSH20 0xFFFFFFFFFFFFFFFFFFFFFFFFFFFFFFFFFFFFFFFF AND PUSH32 0x6462C5E0AF9BF3A12E42A57283F899627CB117E108991E3EFDA5D27188CC85C1 DUP4 PUSH1 0x40 MLOAD PUSH2 0x15EB SWAP2 SWAP1 PUSH2 0x34B7 JUMP JUMPDEST PUSH1 0x40 MLOAD DUP1 SWAP2 SUB SWAP1 LOG2 CALLER PUSH20 0xFFFFFFFFFFFFFFFFFFFFFFFFFFFFFFFFFFFFFFFF AND PUSH32 0xB3B609C7A5E504A312603E90D906D1667FD5CAFF0A840AD07BF5709A3CA1A045 PUSH0 PUSH1 0x40 MLOAD PUSH2 0x1639 SWAP2 SWAP1 PUSH2 0x34D0 JUMP JUMPDEST PUSH1 0x40 MLOAD DUP1 SWAP2 SUB SWAP1 LOG2 POP POP JUMP JUMPDEST PUSH1 0x4 PUSH1 0x20 MSTORE DUP1 PUSH0 MSTORE PUSH1 0x40 PUSH0 KECCAK256 PUSH0 SWAP2 POP SWAP1 POP DUP1 PUSH0 ADD SLOAD SWAP1 DUP1 PUSH1 0x1 ADD PUSH0 SWAP1 SLOAD SWAP1 PUSH2 0x100 EXP SWAP1 DIV PUSH20 0xFFFFFFFFFFFFFFFFFFFFFFFFFFFFFFFFFFFFFFFF AND SWAP1 DUP1 PUSH1 0x2 ADD DUP1 SLOAD PUSH2 0x168F SWAP1 PUSH2 0x3516 JUMP JUMPDEST DUP1 PUSH1 0x1F ADD PUSH1 0x20 DUP1 SWAP2 DIV MUL PUSH1 0x20 ADD PUSH1 0x40 MLOAD SWAP1 DUP2 ADD PUSH1 0x40 MSTORE DUP1 SWAP3 SWAP2 SWAP1 DUP2 DUP2 MSTORE PUSH1 0x20 ADD DUP3 DUP1 SLOAD PUSH2 0x16BB SWAP1 PUSH2 0x3516 JUMP JUMPDEST DUP1 ISZERO PUSH2 0x1706 JUMPI DUP1 PUSH1 0x1F LT PUSH2 0x16DD JUMPI PUSH2 0x100 DUP1 DUP4 SLOAD DIV MUL DUP4 MSTORE SWAP2 PUSH1 0x20 ADD SWAP2 PUSH2 0x1706 JUMP JUMPDEST DUP3 ADD SWAP2 SWAP1 PUSH0 MSTORE PUSH1 0x20 PUSH0 KECCAK256 SWAP1 JUMPDEST DUP2 SLOAD DUP2 MSTORE SWAP1 PUSH1 0x1 ADD SWAP1 PUSH1 0x20 ADD DUP1 DUP4 GT PUSH2 0x16E9 JUMPI DUP3 SWAP1 SUB PUSH1 0x1F AND DUP3 ADD SWAP2 JUMPDEST POP POP POP POP POP SWAP1 DUP1 PUSH1 0x3 ADD SLOAD SWAP1 DUP1 PUSH1 0x4 ADD DUP1 SLOAD PUSH2 0x1721 SWAP1 PUSH2 0x3516 JUMP JUMPDEST DUP1 PUSH1 0x1F ADD PUSH1 0x20 DUP1 SWAP2 DIV MUL PUSH1 0x20 ADD PUSH1 0x40 MLOAD SWAP1 DUP2 ADD PUSH1 0x40 MSTORE DUP1 SWAP3 SWAP2 SWAP1 DUP2 DUP2 MSTORE PUSH1 0x20 ADD DUP3 DUP1 SLOAD PUSH2 0x174D SWAP1 PUSH2 0x3516 JUMP JUMPDEST DUP1 ISZERO PUSH2 0x1798 JUMPI DUP1 PUSH1 0x1F LT PUSH2 0x176F JUMPI PUSH2 0x100 DUP1 DUP4 SLOAD DIV MUL DUP4 MSTORE SWAP2 PUSH1 0x20 ADD SWAP2 PUSH2 0x1798 JUMP JUMPDEST DUP3 ADD SWAP2 SWAP1 PUSH0 MSTORE PUSH1 0x20 PUSH0 KECCAK256 SWAP1 JUMPDEST DUP2 SLOAD DUP2 MSTORE SWAP1 PUSH1 0x1 ADD SWAP1 PUSH1 0x20 ADD DUP1 DUP4 GT PUSH2 0x177B JUMPI DUP3 SWAP1 SUB PUSH1 0x1F AND DUP3 ADD SWAP2 JUMPDEST POP POP POP POP POP SWAP1 DUP1 PUSH1 0x5 ADD SLOAD SWAP1 DUP1 PUSH1 0x6 ADD SLOAD SWAP1 POP DUP8 JUMP JUMPDEST PUSH1 0x60 PUSH0 PUSH1 0x1 DUP1 SLOAD PUSH2 0x17BF SWAP2 SWAP1 PUSH2 0x31E9 JUMP JUMPDEST PUSH8 0xFFFFFFFFFFFFFFFF DUP2 GT ISZERO PUSH2 0x17D8 JUMPI PUSH2 0x17D7 PUSH2 0x33F5 JUMP JUMPDEST JUMPDEST PUSH1 0x40 MLOAD SWAP1 DUP1 DUP3 MSTORE DUP1 PUSH1 0x20 MUL PUSH1 0x20 ADD DUP3 ADD PUSH1 0x40 MSTORE DUP1 ISZERO PUSH2 0x1806 JUMPI DUP2 PUSH1 0x20 ADD PUSH1 0x20 DUP3 MUL DUP1 CALLDATASIZE DUP4 CALLDATACOPY DUP1 DUP3 ADD SWAP2 POP POP SWAP1 POP JUMPDEST POP SWAP1 POP PUSH0 PUSH0 SWAP1 POP PUSH0 PUSH1 0x1 SWAP1 POP JUMPDEST PUSH1 0x1 SLOAD DUP2 LT ISZERO PUSH2 0x190C JUMPI PUSH0 PUSH1 0x4 PUSH0 DUP4 DUP2 MSTORE PUSH1 0x20 ADD SWAP1 DUP2 MSTORE PUSH1 0x20 ADD PUSH0 KECCAK256 SWAP1 POP DUP6 PUSH20 0xFFFFFFFFFFFFFFFFFFFFFFFFFFFFFFFFFFFFFFFF AND DUP2 PUSH1 0x1 ADD PUSH0 SWAP1 SLOAD SWAP1 PUSH2 0x100 EXP SWAP1 DIV PUSH20 0xFFFFFFFFFFFFFFFFFFFFFFFFFFFFFFFFFFFFFFFF AND PUSH20 0xFFFFFFFFFFFFFFFFFFFFFFFFFFFFFFFFFFFFFFFF AND EQ DUP1 PUSH2 0x18CC JUMPI POP PUSH0 DUP2 PUSH1 0x7 ADD PUSH0 DUP9 PUSH20 0xFFFFFFFFFFFFFFFFFFFFFFFFFFFFFFFFFFFFFFFF AND PUSH20 0xFFFFFFFFFFFFFFFFFFFFFFFFFFFFFFFFFFFFFFFF AND DUP2 MSTORE PUSH1 0x20 ADD SWAP1 DUP2 MSTORE PUSH1 0x20 ADD PUSH0 KECCAK256 SLOAD GT JUMPDEST ISZERO PUSH2 0x18FE JUMPI DUP2 DUP5 DUP5 DUP1 PUSH2 0x18DE SWAP1 PUSH2 0x324F JUMP JUMPDEST SWAP6 POP DUP2 MLOAD DUP2 LT PUSH2 0x18F1 JUMPI PUSH2 0x18F0 PUSH2 0x3422 JUMP JUMPDEST JUMPDEST PUSH1 0x20 MUL PUSH1 0x20 ADD ADD DUP2 DUP2 MSTORE POP POP JUMPDEST POP DUP1 DUP1 PUSH1 0x1 ADD SWAP2 POP POP PUSH2 0x1813 JUMP JUMPDEST POP PUSH0 DUP2 PUSH8 0xFFFFFFFFFFFFFFFF DUP2 GT ISZERO PUSH2 0x1928 JUMPI PUSH2 0x1927 PUSH2 0x33F5 JUMP JUMPDEST JUMPDEST PUSH1 0x40 MLOAD SWAP1 DUP1 DUP3 MSTORE DUP1 PUSH1 0x20 MUL PUSH1 0x20 ADD DUP3 ADD PUSH1 0x40 MSTORE DUP1 ISZERO PUSH2 0x1956 JUMPI DUP2 PUSH1 0x20 ADD PUSH1 0x20 DUP3 MUL DUP1 CALLDATASIZE DUP4 CALLDATACOPY DUP1 DUP3 ADD SWAP2 POP POP SWAP1 POP JUMPDEST POP SWAP1 POP PUSH0 PUSH0 SWAP1 POP JUMPDEST DUP3 DUP2 LT ISZERO PUSH2 0x19AD JUMPI DUP4 DUP2 DUP2 MLOAD DUP2 LT PUSH2 0x1979 JUMPI PUSH2 0x1978 PUSH2 0x3422 JUMP JUMPDEST JUMPDEST PUSH1 0x20 MUL PUSH1 0x20 ADD ADD MLOAD DUP3 DUP3 DUP2 MLOAD DUP2 LT PUSH2 0x1994 JUMPI PUSH2 0x1993 PUSH2 0x3422 JUMP JUMPDEST JUMPDEST PUSH1 0x20 MUL PUSH1 0x20 ADD ADD DUP2 DUP2 MSTORE POP POP DUP1 DUP1 PUSH1 0x1 ADD SWAP2 POP POP PUSH2 0x195E JUMP JUMPDEST POP DUP1 SWAP4 POP POP POP POP SWAP2 SWAP1 POP JUMP JUMPDEST PUSH2 0x19C1 PUSH2 0x251F JUMP JUMPDEST PUSH0 PUSH1 0x7 PUSH0 DUP5 PUSH20 0xFFFFFFFFFFFFFFFFFFFFFFFFFFFFFFFFFFFFFFFF AND PUSH20 0xFFFFFFFFFFFFFFFFFFFFFFFFFFFFFFFFFFFFFFFF AND DUP2 MSTORE PUSH1 0x20 ADD SWAP1 DUP2 MSTORE PUSH1 0x20 ADD PUSH0 KECCAK256 SLOAD SWAP1 POP PUSH0 DUP2 EQ PUSH2 0x1ACC JUMPI PUSH1 0x6 PUSH0 DUP3 DUP2 MSTORE PUSH1 0x20 ADD SWAP1 DUP2 MSTORE PUSH1 0x20 ADD PUSH0 KECCAK256 PUSH1 0x40 MLOAD DUP1 PUSH1 0x80 ADD PUSH1 0x40 MSTORE SWAP1 DUP2 PUSH0 DUP3 ADD SLOAD DUP2 MSTORE PUSH1 0x20 ADD PUSH1 0x1 DUP3 ADD PUSH0 SWAP1 SLOAD SWAP1 PUSH2 0x100 EXP SWAP1 DIV PUSH20 0xFFFFFFFFFFFFFFFFFFFFFFFFFFFFFFFFFFFFFFFF AND PUSH20 0xFFFFFFFFFFFFFFFFFFFFFFFFFFFFFFFFFFFFFFFF AND PUSH20 0xFFFFFFFFFFFFFFFFFFFFFFFFFFFFFFFFFFFFFFFF AND DUP2 MSTORE PUSH1 0x20 ADD PUSH1 0x2 DUP3 ADD SLOAD DUP2 MSTORE PUSH1 0x20 ADD PUSH1 0x3 DUP3 ADD PUSH0 SWAP1 SLOAD SWAP1 PUSH2 0x100 EXP SWAP1 DIV PUSH1 0xFF AND PUSH1 0x3 DUP2 GT ISZERO PUSH2 0x1AB1 JUMPI PUSH2 0x1AB0 PUSH2 0x2827 JUMP JUMPDEST JUMPDEST PUSH1 0x3 DUP2 GT ISZERO PUSH2 0x1AC3 JUMPI PUSH2 0x1AC2 PUSH2 0x2827 JUMP JUMPDEST JUMPDEST DUP2 MSTORE POP POP PUSH2 0x1B17 JUMP JUMPDEST PUSH1 0x40 MLOAD DUP1 PUSH1 0x80 ADD PUSH1 0x40 MSTORE DUP1 PUSH0 DUP2 MSTORE PUSH1 0x20 ADD PUSH0 PUSH20 0xFFFFFFFFFFFFFFFFFFFFFFFFFFFFFFFFFFFFFFFF AND DUP2 MSTORE PUSH1 0x20 ADD PUSH0 DUP2 MSTORE PUSH1 0x20 ADD PUSH1 0x2 PUSH1 0x3 DUP2 GT ISZERO PUSH2 0x1B13 JUMPI PUSH2 0x1B12 PUSH2 0x2827 JUMP JUMPDEST JUMPDEST DUP2 MSTORE POP JUMPDEST SWAP2 POP POP SWAP2 SWAP1 POP JUMP JUMPDEST PUSH1 0x1 SLOAD DUP2 JUMP JUMPDEST PUSH32 0x0 PUSH20 0xFFFFFFFFFFFFFFFFFFFFFFFFFFFFFFFFFFFFFFFF AND CALLER PUSH20 0xFFFFFFFFFFFFFFFFFFFFFFFFFFFFFFFFFFFFFFFF AND EQ PUSH2 0x1BB3 JUMPI PUSH1 0x40 MLOAD PUSH32 0x8C379A000000000000000000000000000000000000000000000000000000000 DUP2 MSTORE PUSH1 0x4 ADD PUSH2 0x1BAA SWAP1 PUSH2 0x3590 JUMP JUMPDEST PUSH1 0x40 MLOAD DUP1 SWAP2 SUB SWAP1 REVERT JUMPDEST PUSH0 PUSH1 0x7 PUSH0 DUP5 PUSH20 0xFFFFFFFFFFFFFFFFFFFFFFFFFFFFFFFFFFFFFFFF AND PUSH20 0xFFFFFFFFFFFFFFFFFFFFFFFFFFFFFFFFFFFFFFFF AND DUP2 MSTORE PUSH1 0x20 ADD SWAP1 DUP2 MSTORE PUSH1 0x20 ADD PUSH0 KECCAK256 SLOAD SWAP1 POP PUSH0 DUP2 SUB PUSH2 0x1C36 JUMPI PUSH1 0x40 MLOAD PUSH32 0x8C379A000000000000000000000000000000000000000000000000000000000 DUP2 MSTORE PUSH1 0x4 ADD PUSH2 0x1C2D SWAP1 PUSH2 0x35F8 JUMP JUMPDEST PUSH1 0x40 MLOAD DUP1 SWAP2 SUB SWAP1 REVERT JUMPDEST DUP2 PUSH1 0x6 PUSH0 DUP4 DUP2 MSTORE PUSH1 0x20 ADD SWAP1 DUP2 MSTORE PUSH1 0x20 ADD PUSH0 KECCAK256 PUSH1 0x3 ADD PUSH0 PUSH2 0x100 EXP DUP2 SLOAD DUP2 PUSH1 0xFF MUL NOT AND SWAP1 DUP4 PUSH1 0x3 DUP2 GT ISZERO PUSH2 0x1C6C JUMPI PUSH2 0x1C6B PUSH2 0x2827 JUMP JUMPDEST JUMPDEST MUL OR SWAP1 SSTORE POP DUP3 PUSH20 0xFFFFFFFFFFFFFFFFFFFFFFFFFFFFFFFFFFFFFFFF AND PUSH32 0xB3B609C7A5E504A312603E90D906D1667FD5CAFF0A840AD07BF5709A3CA1A045 DUP4 PUSH1 0x40 MLOAD PUSH2 0x1CB7 SWAP2 SWAP1 PUSH2 0x34D0 JUMP JUMPDEST PUSH1 0x40 MLOAD DUP1 SWAP2 SUB SWAP1 LOG2 POP POP POP JUMP JUMPDEST PUSH1 0x5 PUSH1 0x20 MSTORE DUP1 PUSH0 MSTORE PUSH1 0x40 PUSH0 KECCAK256 PUSH0 SWAP2 POP SWAP1 POP DUP1 PUSH0 ADD SLOAD SWAP1 DUP1 PUSH1 0x1 ADD PUSH0 SWAP1 SLOAD SWAP1 PUSH2 0x100 EXP SWAP1 DIV PUSH20 0xFFFFFFFFFFFFFFFFFFFFFFFFFFFFFFFFFFFFFFFF AND SWAP1 DUP1 PUSH1 0x2 ADD PUSH0 SWAP1 SLOAD SWAP1 PUSH2 0x100 EXP SWAP1 DIV PUSH20 0xFFFFFFFFFFFFFFFFFFFFFFFFFFFFFFFFFFFFFFFF AND SWAP1 DUP1 PUSH1 0x3 ADD SLOAD SWAP1 DUP1 PUSH1 0x4 ADD SLOAD SWAP1 DUP1 PUSH1 0x5 ADD SLOAD SWAP1 DUP1 PUSH1 0x6 ADD PUSH0 SWAP1 SLOAD SWAP1 PUSH2 0x100 EXP SWAP1 DIV PUSH1 0xFF AND SWAP1 POP DUP8 JUMP JUMPDEST PUSH1 0x3 SLOAD DUP2 JUMP JUMPDEST PUSH1 0x7 PUSH1 0x20 MSTORE DUP1 PUSH0 MSTORE PUSH1 0x40 PUSH0 KECCAK256 PUSH0 SWAP2 POP SWAP1 POP SLOAD DUP2 JUMP JUMPDEST PUSH1 0x2 SLOAD DUP2 JUMP JUMPDEST PUSH2 0x1D75 PUSH2 0x256B JUMP JUMPDEST PUSH1 0x5 PUSH0 DUP4 DUP2 MSTORE PUSH1 0x20 ADD SWAP1 DUP2 MSTORE PUSH1 0x20 ADD PUSH0 KECCAK256 PUSH1 0x40 MLOAD DUP1 PUSH1 0xE0 ADD PUSH1 0x40 MSTORE SWAP1 DUP2 PUSH0 DUP3 ADD SLOAD DUP2 MSTORE PUSH1 0x20 ADD PUSH1 0x1 DUP3 ADD PUSH0 SWAP1 SLOAD SWAP1 PUSH2 0x100 EXP SWAP1 DIV PUSH20 0xFFFFFFFFFFFFFFFFFFFFFFFFFFFFFFFFFFFFFFFF AND PUSH20 0xFFFFFFFFFFFFFFFFFFFFFFFFFFFFFFFFFFFFFFFF AND PUSH20 0xFFFFFFFFFFFFFFFFFFFFFFFFFFFFFFFFFFFFFFFF AND DUP2 MSTORE PUSH1 0x20 ADD PUSH1 0x2 DUP3 ADD PUSH0 SWAP1 SLOAD SWAP1 PUSH2 0x100 EXP SWAP1 DIV PUSH20 0xFFFFFFFFFFFFFFFFFFFFFFFFFFFFFFFFFFFFFFFF AND PUSH20 0xFFFFFFFFFFFFFFFFFFFFFFFFFFFFFFFFFFFFFFFF AND PUSH20 0xFFFFFFFFFFFFFFFFFFFFFFFFFFFFFFFFFFFFFFFF AND DUP2 MSTORE PUSH1 0x20 ADD PUSH1 0x3 DUP3 ADD SLOAD DUP2 MSTORE PUSH1 0x20 ADD PUSH1 0x4 DUP3 ADD SLOAD DUP2 MSTORE PUSH1 0x20 ADD PUSH1 0x5 DUP3 ADD SLOAD DUP2 MSTORE PUSH1 0x20 ADD PUSH1 0x6 DUP3 ADD PUSH0 SWAP1 SLOAD SWAP1 PUSH2 0x100 EXP SWAP1 DIV PUSH1 0xFF AND PUSH1 0x2 DUP2 GT ISZERO PUSH2 0x1E86 JUMPI PUSH2 0x1E85 PUSH2 0x2827 JUMP JUMPDEST JUMPDEST PUSH1 0x2 DUP2 GT ISZERO PUSH2 0x1E98 JUMPI PUSH2 0x1E97 PUSH2 0x2827 JUMP JUMPDEST JUMPDEST DUP2 MSTORE POP POP SWAP1 POP SWAP2 SWAP1 POP JUMP JUMPDEST PUSH0 PUSH1 0x7 PUSH0 CALLER PUSH20 0xFFFFFFFFFFFFFFFFFFFFFFFFFFFFFFFFFFFFFFFF AND PUSH20 0xFFFFFFFFFFFFFFFFFFFFFFFFFFFFFFFFFFFFFFFF AND DUP2 MSTORE PUSH1 0x20 ADD SWAP1 DUP2 MSTORE PUSH1 0x20 ADD PUSH0 KECCAK256 SLOAD SWAP1 POP PUSH0 DUP2 EQ ISZERO DUP1 ISZERO PUSH2 0x1F38 JUMPI POP PUSH1 0x1 PUSH1 0x3 DUP2 GT ISZERO PUSH2 0x1F03 JUMPI PUSH2 0x1F02 PUSH2 0x2827 JUMP JUMPDEST JUMPDEST PUSH1 0x6 PUSH0 DUP4 DUP2 MSTORE PUSH1 0x20 ADD SWAP1 DUP2 MSTORE PUSH1 0x20 ADD PUSH0 KECCAK256 PUSH1 0x3 ADD PUSH0 SWAP1 SLOAD SWAP1 PUSH2 0x100 EXP SWAP1 DIV PUSH1 0xFF AND PUSH1 0x3 DUP2 GT ISZERO PUSH2 0x1F36 JUMPI PUSH2 0x1F35 PUSH2 0x2827 JUMP JUMPDEST JUMPDEST EQ JUMPDEST PUSH2 0x1F77 JUMPI PUSH1 0x40 MLOAD PUSH32 0x8C379A000000000000000000000000000000000000000000000000000000000 DUP2 MSTORE PUSH1 0x4 ADD PUSH2 0x1F6E SWAP1 PUSH2 0x2EC6 JUMP JUMPDEST PUSH1 0x40 MLOAD DUP1 SWAP2 SUB SWAP1 REVERT JUMPDEST PUSH0 DUP8 DUP8 SWAP1 POP GT PUSH2 0x1FBC JUMPI PUSH1 0x40 MLOAD PUSH32 0x8C379A000000000000000000000000000000000000000000000000000000000 DUP2 MSTORE PUSH1 0x4 ADD PUSH2 0x1FB3 SWAP1 PUSH2 0x3660 JUMP JUMPDEST PUSH1 0x40 MLOAD DUP1 SWAP2 SUB SWAP1 REVERT JUMPDEST PUSH0 PUSH1 0x1 PUSH0 DUP2 SLOAD DUP1 SWAP3 SWAP2 SWAP1 PUSH2 0x1FCF SWAP1 PUSH2 0x324F JUMP JUMPDEST SWAP2 SWAP1 POP SSTORE SWAP1 POP PUSH0 PUSH1 0x4 PUSH0 DUP4 DUP2 MSTORE PUSH1 0x20 ADD SWAP1 DUP2 MSTORE PUSH1 0x20 ADD PUSH0 KECCAK256 SWAP1 POP DUP2 DUP2 PUSH0 ADD DUP2 SWAP1 SSTORE POP CALLER DUP2 PUSH1 0x1 ADD PUSH0 PUSH2 0x100 EXP DUP2 SLOAD DUP2 PUSH20 0xFFFFFFFFFFFFFFFFFFFFFFFFFFFFFFFFFFFFFFFF MUL NOT AND SWAP1 DUP4 PUSH20 0xFFFFFFFFFFFFFFFFFFFFFFFFFFFFFFFFFFFFFFFF AND MUL OR SWAP1 SSTORE POP DUP9 DUP9 DUP3 PUSH1 0x2 ADD SWAP2 DUP3 PUSH2 0x2046 SWAP3 SWAP2 SWAP1 PUSH2 0x3828 JUMP JUMPDEST POP DUP7 DUP2 PUSH1 0x3 ADD DUP2 SWAP1 SSTORE POP DUP6 DUP6 DUP3 PUSH1 0x4 ADD SWAP2 DUP3 PUSH2 0x2063 SWAP3 SWAP2 SWAP1 PUSH2 0x3828 JUMP JUMPDEST POP DUP4 DUP2 PUSH1 0x5 ADD DUP2 SWAP1 SSTORE POP TIMESTAMP DUP2 PUSH1 0x6 ADD DUP2 SWAP1 SSTORE POP DUP7 DUP2 PUSH1 0x7 ADD PUSH0 CALLER PUSH20 0xFFFFFFFFFFFFFFFFFFFFFFFFFFFFFFFFFFFFFFFF AND PUSH20 0xFFFFFFFFFFFFFFFFFFFFFFFFFFFFFFFFFFFFFFFF AND DUP2 MSTORE PUSH1 0x20 ADD SWAP1 DUP2 MSTORE PUSH1 0x20 ADD PUSH0 KECCAK256 DUP2 SWAP1 SSTORE POP CALLER PUSH20 0xFFFFFFFFFFFFFFFFFFFFFFFFFFFFFFFFFFFFFFFF AND DUP3 PUSH32 0x463EC2A62C46678A81E23CDE640446CA4B512F102BB3309CF5A3E2A4AE831464 DUP12 DUP12 DUP12 PUSH1 0x40 MLOAD PUSH2 0x2105 SWAP4 SWAP3 SWAP2 SWAP1 PUSH2 0x392F JUMP JUMPDEST PUSH1 0x40 MLOAD DUP1 SWAP2 SUB SWAP1 LOG3 POP POP POP POP POP POP POP POP POP JUMP JUMPDEST PUSH0 PUSH0 PUSH1 0x60 PUSH0 PUSH1 0x60 PUSH0 PUSH0 PUSH0 PUSH0 PUSH1 0x4 PUSH0 DUP12 DUP2 MSTORE PUSH1 0x20 ADD SWAP1 DUP2 MSTORE PUSH1 0x20 ADD PUSH0 KECCAK256 SWAP1 POP DUP1 PUSH0 ADD SLOAD DUP2 PUSH1 0x1 ADD PUSH0 SWAP1 SLOAD SWAP1 PUSH2 0x100 EXP SWAP1 DIV PUSH20 0xFFFFFFFFFFFFFFFFFFFFFFFFFFFFFFFFFFFFFFFF AND DUP3 PUSH1 0x2 ADD DUP4 PUSH1 0x3 ADD SLOAD DUP5 PUSH1 0x4 ADD DUP6 PUSH1 0x5 ADD SLOAD DUP7 PUSH1 0x6 ADD SLOAD DUP8 PUSH1 0x7 ADD PUSH0 CALLER PUSH20 0xFFFFFFFFFFFFFFFFFFFFFFFFFFFFFFFFFFFFFFFF AND PUSH20 0xFFFFFFFFFFFFFFFFFFFFFFFFFFFFFFFFFFFFFFFF AND DUP2 MSTORE PUSH1 0x20 ADD SWAP1 DUP2 MSTORE PUSH1 0x20 ADD PUSH0 KECCAK256 SLOAD DUP6 DUP1 SLOAD PUSH2 0x21C1 SWAP1 PUSH2 0x3516 JUMP JUMPDEST DUP1 PUSH1 0x1F ADD PUSH1 0x20 DUP1 SWAP2 DIV MUL PUSH1 0x20 ADD PUSH1 0x40 MLOAD SWAP1 DUP2 ADD PUSH1 0x40 MSTORE DUP1 SWAP3 SWAP2 SWAP1 DUP2 DUP2 MSTORE PUSH1 0x20 ADD DUP3 DUP1 SLOAD PUSH2 0x21ED SWAP1 PUSH2 0x3516 JUMP JUMPDEST DUP1 ISZERO PUSH2 0x2238 JUMPI DUP1 PUSH1 0x1F LT PUSH2 0x220F JUMPI PUSH2 0x100 DUP1 DUP4 SLOAD DIV MUL DUP4 MSTORE SWAP2 PUSH1 0x20 ADD SWAP2 PUSH2 0x2238 JUMP JUMPDEST DUP3 ADD SWAP2 SWAP1 PUSH0 MSTORE PUSH1 0x20 PUSH0 KECCAK256 SWAP1 JUMPDEST DUP2 SLOAD DUP2 MSTORE SWAP1 PUSH1 0x1 ADD SWAP1 PUSH1 0x20 ADD DUP1 DUP4 GT PUSH2 0x221B JUMPI DUP3 SWAP1 SUB PUSH1 0x1F AND DUP3 ADD SWAP2 JUMPDEST POP POP POP POP POP SWAP6 POP DUP4 DUP1 SLOAD PUSH2 0x224B SWAP1 PUSH2 0x3516 JUMP JUMPDEST DUP1 PUSH1 0x1F ADD PUSH1 0x20 DUP1 SWAP2 DIV MUL PUSH1 0x20 ADD PUSH1 0x40 MLOAD SWAP1 DUP2 ADD PUSH1 0x40 MSTORE DUP1 SWAP3 SWAP2 SWAP1 DUP2 DUP2 MSTORE PUSH1 0x20 ADD DUP3 DUP1 SLOAD PUSH2 0x2277 SWAP1 PUSH2 0x3516 JUMP JUMPDEST DUP1 ISZERO PUSH2 0x22C2 JUMPI DUP1 PUSH1 0x1F LT PUSH2 0x2299 JUMPI PUSH2 0x100 DUP1 DUP4 SLOAD DIV MUL DUP4 MSTORE SWAP2 PUSH1 0x20 ADD SWAP2 PUSH2 0x22C2 JUMP JUMPDEST DUP3 ADD SWAP2 SWAP1 PUSH0 MSTORE PUSH1 0x20 PUSH0 KECCAK256 SWAP1 JUMPDEST DUP2 SLOAD DUP2 MSTORE SWAP1 PUSH1 0x1 ADD SWAP1 PUSH1 0x20 ADD DUP1 DUP4 GT PUSH2 0x22A5 JUMPI DUP3 SWAP1 SUB PUSH1 0x1F AND DUP3 ADD SWAP2 JUMPDEST POP POP POP POP POP SWAP4 POP SWAP9 POP SWAP9 POP SWAP9 POP SWAP9 POP SWAP9 POP SWAP9 POP SWAP9 POP SWAP9 POP POP SWAP2 SWAP4 SWAP6 SWAP8 POP SWAP2 SWAP4 SWAP6 SWAP8 JUMP JUMPDEST PUSH0 PUSH1 0x1 SLOAD DUP4 LT PUSH2 0x232A JUMPI PUSH1 0x40 MLOAD PUSH32 0x8C379A000000000000000000000000000000000000000000000000000000000 DUP2 MSTORE PUSH1 0x4 ADD PUSH2 0x2321 SWAP1 PUSH2 0x2FFE JUMP JUMPDEST PUSH1 0x40 MLOAD DUP1 SWAP2 SUB SWAP1 REVERT JUMPDEST PUSH1 0x4 PUSH0 DUP5 DUP2 MSTORE PUSH1 0x20 ADD SWAP1 DUP2 MSTORE PUSH1 0x20 ADD PUSH0 KECCAK256 PUSH1 0x7 ADD PUSH0 DUP4 PUSH20 0xFFFFFFFFFFFFFFFFFFFFFFFFFFFFFFFFFFFFFFFF AND PUSH20 0xFFFFFFFFFFFFFFFFFFFFFFFFFFFFFFFFFFFFFFFF AND DUP2 MSTORE PUSH1 0x20 ADD SWAP1 DUP2 MSTORE PUSH1 0x20 ADD PUSH0 KECCAK256 SLOAD SWAP1 POP SWAP3 SWAP2 POP POP JUMP JUMPDEST PUSH32 0x0 DUP2 JUMP JUMPDEST PUSH1 0x2 PUSH0 SLOAD SUB PUSH2 0x23E1 JUMPI PUSH1 0x40 MLOAD PUSH32 0x3EE5AEB500000000000000000000000000000000000000000000000000000000 DUP2 MSTORE PUSH1 0x4 ADD PUSH1 0x40 MLOAD DUP1 SWAP2 SUB SWAP1 REVERT JUMPDEST PUSH1 0x2 PUSH0 DUP2 SWAP1 SSTORE POP JUMP JUMPDEST PUSH0 PUSH32 0xC0878B4B16A78E8085CBA0CA02FC0924F1492924058D153153A3F286E0FD70FF DUP3 EQ SWAP1 POP SWAP2 SWAP1 POP JUMP JUMPDEST PUSH0 PUSH32 0x95329F0F598032755F454B63034035528A2F09E00BB3DDE055A4F8E3F7B11683 DUP4 EQ DUP1 ISZERO PUSH2 0x2464 JUMPI POP PUSH32 0x992F90FFB92C5AD86F1DF6829115F18AAEA41D6094DADC8955C35086081A7BB9 DUP3 EQ JUMPDEST DUP1 PUSH2 0x24B9 JUMPI POP PUSH32 0x992F90FFB92C5AD86F1DF6829115F18AAEA41D6094DADC8955C35086081A7BB9 DUP4 EQ DUP1 ISZERO PUSH2 0x24B8 JUMPI POP PUSH32 0x1534E98F9DD33E3681193A0541F0C2E3D732D183DCDC630AAC2B943280AF42A0 DUP3 EQ JUMPDEST JUMPDEST DUP1 PUSH2 0x250E JUMPI POP PUSH32 0x1534E98F9DD33E3681193A0541F0C2E3D732D183DCDC630AAC2B943280AF42A0 DUP4 EQ DUP1 ISZERO PUSH2 0x250D JUMPI POP PUSH32 0xC0878B4B16A78E8085CBA0CA02FC0924F1492924058D153153A3F286E0FD70FF DUP3 EQ JUMPDEST JUMPDEST SWAP1 POP SWAP3 SWAP2 POP POP JUMP JUMPDEST PUSH1 0x1 PUSH0 DUP2 SWAP1 SSTORE POP JUMP JUMPDEST PUSH1 0x40 MLOAD DUP1 PUSH1 0x80 ADD PUSH1 0x40 MSTORE DUP1 PUSH0 DUP2 MSTORE PUSH1 0x20 ADD PUSH0 PUSH20 0xFFFFFFFFFFFFFFFFFFFFFFFFFFFFFFFFFFFFFFFF AND DUP2 MSTORE PUSH1 0x20 ADD PUSH0 DUP2 MSTORE PUSH1 0x20 ADD PUSH0 PUSH1 0x3 DUP2 GT ISZERO PUSH2 0x2565 JUMPI PUSH2 0x2564 PUSH2 0x2827 JUMP JUMPDEST JUMPDEST DUP2 MSTORE POP SWAP1 JUMP JUMPDEST PUSH1 0x40 MLOAD DUP1 PUSH1 0xE0 ADD PUSH1 0x40 MSTORE DUP1 PUSH0 DUP2 MSTORE PUSH1 0x20 ADD PUSH0 PUSH20 0xFFFFFFFFFFFFFFFFFFFFFFFFFFFFFFFFFFFFFFFF AND DUP2 MSTORE PUSH1 0x20 ADD PUSH0 PUSH20 0xFFFFFFFFFFFFFFFFFFFFFFFFFFFFFFFFFFFFFFFF AND DUP2 MSTORE PUSH1 0x20 ADD PUSH0 DUP2 MSTORE PUSH1 0x20 ADD PUSH0 DUP2 MSTORE PUSH1 0x20 ADD PUSH0 DUP2 MSTORE PUSH1 0x20 ADD PUSH0 PUSH1 0x2 DUP2 GT ISZERO PUSH2 0x25D9 JUMPI PUSH2 0x25D8 PUSH2 0x2827 JUMP JUMPDEST JUMPDEST DUP2 MSTORE POP SWAP1 JUMP JUMPDEST PUSH0 PUSH0 REVERT JUMPDEST PUSH0 PUSH0 REVERT JUMPDEST PUSH0 PUSH20 0xFFFFFFFFFFFFFFFFFFFFFFFFFFFFFFFFFFFFFFFF DUP3 AND SWAP1 POP SWAP2 SWAP1 POP JUMP JUMPDEST PUSH0 PUSH2 0x2610 DUP3 PUSH2 0x25E7 JUMP JUMPDEST SWAP1 POP SWAP2 SWAP1 POP JUMP JUMPDEST PUSH2 0x2620 DUP2 PUSH2 0x2606 JUMP JUMPDEST DUP2 EQ PUSH2 0x262A JUMPI PUSH0 PUSH0 REVERT JUMPDEST POP JUMP JUMPDEST PUSH0 DUP2 CALLDATALOAD SWAP1 POP PUSH2 0x263B DUP2 PUSH2 0x2617 JUMP JUMPDEST SWAP3 SWAP2 POP POP JUMP JUMPDEST PUSH0 DUP2 SWAP1 POP SWAP2 SWAP1 POP JUMP JUMPDEST PUSH2 0x2653 DUP2 PUSH2 0x2641 JUMP JUMPDEST DUP2 EQ PUSH2 0x265D JUMPI PUSH0 PUSH0 REVERT JUMPDEST POP JUMP JUMPDEST PUSH0 DUP2 CALLDATALOAD SWAP1 POP PUSH2 0x266E DUP2 PUSH2 0x264A JUMP JUMPDEST SWAP3 SWAP2 POP POP JUMP JUMPDEST PUSH0 PUSH0 PUSH0 PUSH1 0x60 DUP5 DUP7 SUB SLT ISZERO PUSH2 0x268B JUMPI PUSH2 0x268A PUSH2 0x25DF JUMP JUMPDEST JUMPDEST PUSH0 PUSH2 0x2698 DUP7 DUP3 DUP8 ADD PUSH2 0x262D JUMP JUMPDEST SWAP4 POP POP PUSH1 0x20 PUSH2 0x26A9 DUP7 DUP3 DUP8 ADD PUSH2 0x2660 JUMP JUMPDEST SWAP3 POP POP PUSH1 0x40 PUSH2 0x26BA DUP7 DUP3 DUP8 ADD PUSH2 0x2660 JUMP JUMPDEST SWAP2 POP POP SWAP3 POP SWAP3 POP SWAP3 JUMP JUMPDEST PUSH0 PUSH1 0x20 DUP3 DUP5 SUB SLT ISZERO PUSH2 0x26D9 JUMPI PUSH2 0x26D8 PUSH2 0x25DF JUMP JUMPDEST JUMPDEST PUSH0 PUSH2 0x26E6 DUP5 DUP3 DUP6 ADD PUSH2 0x2660 JUMP JUMPDEST SWAP2 POP POP SWAP3 SWAP2 POP POP JUMP JUMPDEST PUSH0 PUSH1 0x20 DUP3 DUP5 SUB SLT ISZERO PUSH2 0x2704 JUMPI PUSH2 0x2703 PUSH2 0x25DF JUMP JUMPDEST JUMPDEST PUSH0 PUSH2 0x2711 DUP5 DUP3 DUP6 ADD PUSH2 0x262D JUMP JUMPDEST SWAP2 POP POP SWAP3 SWAP2 POP POP JUMP JUMPDEST PUSH0 DUP2 MLOAD SWAP1 POP SWAP2 SWAP1 POP JUMP JUMPDEST PUSH0 DUP3 DUP3 MSTORE PUSH1 0x20 DUP3 ADD SWAP1 POP SWAP3 SWAP2 POP POP JUMP JUMPDEST PUSH0 DUP2 SWAP1 POP PUSH1 0x20 DUP3 ADD SWAP1 POP SWAP2 SWAP1 POP JUMP JUMPDEST PUSH2 0x274C DUP2 PUSH2 0x2641 JUMP JUMPDEST DUP3 MSTORE POP POP JUMP JUMPDEST PUSH0 PUSH2 0x275D DUP4 DUP4 PUSH2 0x2743 JUMP JUMPDEST PUSH1 0x20 DUP4 ADD SWAP1 POP SWAP3 SWAP2 POP POP JUMP JUMPDEST PUSH0 PUSH1 0x20 DUP3 ADD SWAP1 POP SWAP2 SWAP1 POP JUMP JUMPDEST PUSH0 PUSH2 0x277F DUP3 PUSH2 0x271A JUMP JUMPDEST PUSH2 0x2789 DUP2 DUP6 PUSH2 0x2724 JUMP JUMPDEST SWAP4 POP PUSH2 0x2794 DUP4 PUSH2 0x2734 JUMP JUMPDEST DUP1 PUSH0 JUMPDEST DUP4 DUP2 LT ISZERO PUSH2 0x27C4 JUMPI DUP2 MLOAD PUSH2 0x27AB DUP9 DUP3 PUSH2 0x2752 JUMP JUMPDEST SWAP8 POP PUSH2 0x27B6 DUP4 PUSH2 0x2769 JUMP JUMPDEST SWAP3 POP POP PUSH1 0x1 DUP2 ADD SWAP1 POP PUSH2 0x2797 JUMP JUMPDEST POP DUP6 SWAP4 POP POP POP POP SWAP3 SWAP2 POP POP JUMP JUMPDEST PUSH0 PUSH1 0x20 DUP3 ADD SWAP1 POP DUP2 DUP2 SUB PUSH0 DUP4 ADD MSTORE PUSH2 0x27E9 DUP2 DUP5 PUSH2 0x2775 JUMP JUMPDEST SWAP1 POP SWAP3 SWAP2 POP POP JUMP JUMPDEST PUSH2 0x27FA DUP2 PUSH2 0x2641 JUMP JUMPDEST DUP3 MSTORE POP POP JUMP JUMPDEST PUSH2 0x2809 DUP2 PUSH2 0x2606 JUMP JUMPDEST DUP3 MSTORE POP POP JUMP JUMPDEST PUSH0 DUP2 SWAP1 POP SWAP2 SWAP1 POP JUMP JUMPDEST PUSH2 0x2821 DUP2 PUSH2 0x280F JUMP JUMPDEST DUP3 MSTORE POP POP JUMP JUMPDEST PUSH32 0x4E487B7100000000000000000000000000000000000000000000000000000000 PUSH0 MSTORE PUSH1 0x21 PUSH1 0x4 MSTORE PUSH1 0x24 PUSH0 REVERT JUMPDEST PUSH1 0x4 DUP2 LT PUSH2 0x2865 JUMPI PUSH2 0x2864 PUSH2 0x2827 JUMP JUMPDEST JUMPDEST POP JUMP JUMPDEST PUSH0 DUP2 SWAP1 POP PUSH2 0x2875 DUP3 PUSH2 0x2854 JUMP JUMPDEST SWAP2 SWAP1 POP JUMP JUMPDEST PUSH0 PUSH2 0x2884 DUP3 PUSH2 0x2868 JUMP JUMPDEST SWAP1 POP SWAP2 SWAP1 POP JUMP JUMPDEST PUSH2 0x2894 DUP2 PUSH2 0x287A JUMP JUMPDEST DUP3 MSTORE POP POP JUMP JUMPDEST PUSH0 PUSH1 0x80 DUP3 ADD SWAP1 POP PUSH2 0x28AD PUSH0 DUP4 ADD DUP8 PUSH2 0x27F1 JUMP JUMPDEST PUSH2 0x28BA PUSH1 0x20 DUP4 ADD DUP7 PUSH2 0x2800 JUMP JUMPDEST PUSH2 0x28C7 PUSH1 0x40 DUP4 ADD DUP6 PUSH2 0x2818 JUMP JUMPDEST PUSH2 0x28D4 PUSH1 0x60 DUP4 ADD DUP5 PUSH2 0x288B JUMP JUMPDEST SWAP6 SWAP5 POP POP POP POP POP JUMP JUMPDEST PUSH2 0x28E6 DUP2 PUSH2 0x280F JUMP JUMPDEST DUP2 EQ PUSH2 0x28F0 JUMPI PUSH0 PUSH0 REVERT JUMPDEST POP JUMP JUMPDEST PUSH0 DUP2 CALLDATALOAD SWAP1 POP PUSH2 0x2901 DUP2 PUSH2 0x28DD JUMP JUMPDEST SWAP3 SWAP2 POP POP JUMP JUMPDEST PUSH0 PUSH1 0x20 DUP3 DUP5 SUB SLT ISZERO PUSH2 0x291C JUMPI PUSH2 0x291B PUSH2 0x25DF JUMP JUMPDEST JUMPDEST PUSH0 PUSH2 0x2929 DUP5 DUP3 DUP6 ADD PUSH2 0x28F3 JUMP JUMPDEST SWAP2 POP POP SWAP3 SWAP2 POP POP JUMP JUMPDEST PUSH0 DUP2 MLOAD SWAP1 POP SWAP2 SWAP1 POP JUMP JUMPDEST PUSH0 DUP3 DUP3 MSTORE PUSH1 0x20 DUP3 ADD SWAP1 POP SWAP3 SWAP2 POP POP JUMP JUMPDEST DUP3 DUP2 DUP4 MCOPY PUSH0 DUP4 DUP4 ADD MSTORE POP POP POP JUMP JUMPDEST PUSH0 PUSH1 0x1F NOT PUSH1 0x1F DUP4 ADD AND SWAP1 POP SWAP2 SWAP1 POP JUMP JUMPDEST PUSH0 PUSH2 0x2974 DUP3 PUSH2 0x2932 JUMP JUMPDEST PUSH2 0x297E DUP2 DUP6 PUSH2 0x293C JUMP JUMPDEST SWAP4 POP PUSH2 0x298E DUP2 DUP6 PUSH1 0x20 DUP7 ADD PUSH2 0x294C JUMP JUMPDEST PUSH2 0x2997 DUP2 PUSH2 0x295A JUMP JUMPDEST DUP5 ADD SWAP2 POP POP SWAP3 SWAP2 POP POP JUMP JUMPDEST PUSH0 PUSH1 0xE0 DUP3 ADD SWAP1 POP PUSH2 0x29B5 PUSH0 DUP4 ADD DUP11 PUSH2 0x27F1 JUMP JUMPDEST PUSH2 0x29C2 PUSH1 0x20 DUP4 ADD DUP10 PUSH2 0x2800 JUMP JUMPDEST DUP2 DUP2 SUB PUSH1 0x40 DUP4 ADD MSTORE PUSH2 0x29D4 DUP2 DUP9 PUSH2 0x296A JUMP JUMPDEST SWAP1 POP PUSH2 0x29E3 PUSH1 0x60 DUP4 ADD DUP8 PUSH2 0x27F1 JUMP JUMPDEST DUP2 DUP2 SUB PUSH1 0x80 DUP4 ADD MSTORE PUSH2 0x29F5 DUP2 DUP7 PUSH2 0x296A JUMP JUMPDEST SWAP1 POP PUSH2 0x2A04 PUSH1 0xA0 DUP4 ADD DUP6 PUSH2 0x27F1 JUMP JUMPDEST PUSH2 0x2A11 PUSH1 0xC0 DUP4 ADD DUP5 PUSH2 0x27F1 JUMP JUMPDEST SWAP9 SWAP8 POP POP POP POP POP POP POP POP JUMP JUMPDEST PUSH2 0x2A26 DUP2 PUSH2 0x2606 JUMP JUMPDEST DUP3 MSTORE POP POP JUMP JUMPDEST PUSH2 0x2A35 DUP2 PUSH2 0x280F JUMP JUMPDEST DUP3 MSTORE POP POP JUMP JUMPDEST PUSH2 0x2A44 DUP2 PUSH2 0x287A JUMP JUMPDEST DUP3 MSTORE POP POP JUMP JUMPDEST PUSH1 0x80 DUP3 ADD PUSH0 DUP3 ADD MLOAD PUSH2 0x2A5E PUSH0 DUP6 ADD DUP3 PUSH2 0x2743 JUMP JUMPDEST POP PUSH1 0x20 DUP3 ADD MLOAD PUSH2 0x2A71 PUSH1 0x20 DUP6 ADD DUP3 PUSH2 0x2A1D JUMP JUMPDEST POP PUSH1 0x40 DUP3 ADD MLOAD PUSH2 0x2A84 PUSH1 0x40 DUP6 ADD DUP3 PUSH2 0x2A2C JUMP JUMPDEST POP PUSH1 0x60 DUP3 ADD MLOAD PUSH2 0x2A97 PUSH1 0x60 DUP6 ADD DUP3 PUSH2 0x2A3B JUMP JUMPDEST POP POP POP POP JUMP JUMPDEST PUSH0 PUSH1 0x80 DUP3 ADD SWAP1 POP PUSH2 0x2AB0 PUSH0 DUP4 ADD DUP5 PUSH2 0x2A4A JUMP JUMPDEST SWAP3 SWAP2 POP POP JUMP JUMPDEST PUSH0 PUSH1 0x20 DUP3 ADD SWAP1 POP PUSH2 0x2AC9 PUSH0 DUP4 ADD DUP5 PUSH2 0x27F1 JUMP JUMPDEST SWAP3 SWAP2 POP POP JUMP JUMPDEST PUSH1 0x4 DUP2 LT PUSH2 0x2ADB JUMPI PUSH0 PUSH0 REVERT JUMPDEST POP JUMP JUMPDEST PUSH0 DUP2 CALLDATALOAD SWAP1 POP PUSH2 0x2AEC DUP2 PUSH2 0x2ACF JUMP JUMPDEST SWAP3 SWAP2 POP POP JUMP JUMPDEST PUSH0 PUSH0 PUSH1 0x40 DUP4 DUP6 SUB SLT ISZERO PUSH2 0x2B08 JUMPI PUSH2 0x2B07 PUSH2 0x25DF JUMP JUMPDEST JUMPDEST PUSH0 PUSH2 0x2B15 DUP6 DUP3 DUP7 ADD PUSH2 0x262D JUMP JUMPDEST SWAP3 POP POP PUSH1 0x20 PUSH2 0x2B26 DUP6 DUP3 DUP7 ADD PUSH2 0x2ADE JUMP JUMPDEST SWAP2 POP POP SWAP3 POP SWAP3 SWAP1 POP JUMP JUMPDEST PUSH1 0x3 DUP2 LT PUSH2 0x2B41 JUMPI PUSH2 0x2B40 PUSH2 0x2827 JUMP JUMPDEST JUMPDEST POP JUMP JUMPDEST PUSH0 DUP2 SWAP1 POP PUSH2 0x2B51 DUP3 PUSH2 0x2B30 JUMP JUMPDEST SWAP2 SWAP1 POP JUMP JUMPDEST PUSH0 PUSH2 0x2B60 DUP3 PUSH2 0x2B44 JUMP JUMPDEST SWAP1 POP SWAP2 SWAP1 POP JUMP JUMPDEST PUSH2 0x2B70 DUP2 PUSH2 0x2B56 JUMP JUMPDEST DUP3 MSTORE POP POP JUMP JUMPDEST PUSH0 PUSH1 0xE0 DUP3 ADD SWAP1 POP PUSH2 0x2B89 PUSH0 DUP4 ADD DUP11 PUSH2 0x27F1 JUMP JUMPDEST PUSH2 0x2B96 PUSH1 0x20 DUP4 ADD DUP10 PUSH2 0x2800 JUMP JUMPDEST PUSH2 0x2BA3 PUSH1 0x40 DUP4 ADD DUP9 PUSH2 0x2800 JUMP JUMPDEST PUSH2 0x2BB0 PUSH1 0x60 DUP4 ADD DUP8 PUSH2 0x27F1 JUMP JUMPDEST PUSH2 0x2BBD PUSH1 0x80 DUP4 ADD DUP7 PUSH2 0x27F1 JUMP JUMPDEST PUSH2 0x2BCA PUSH1 0xA0 DUP4 ADD DUP6 PUSH2 0x27F1 JUMP JUMPDEST PUSH2 0x2BD7 PUSH1 0xC0 DUP4 ADD DUP5 PUSH2 0x2B67 JUMP JUMPDEST SWAP9 SWAP8 POP POP POP POP POP POP POP POP JUMP JUMPDEST PUSH2 0x2BEC DUP2 PUSH2 0x2B56 JUMP JUMPDEST DUP3 MSTORE POP POP JUMP JUMPDEST PUSH1 0xE0 DUP3 ADD PUSH0 DUP3 ADD MLOAD PUSH2 0x2C06 PUSH0 DUP6 ADD DUP3 PUSH2 0x2743 JUMP JUMPDEST POP PUSH1 0x20 DUP3 ADD MLOAD PUSH2 0x2C19 PUSH1 0x20 DUP6 ADD DUP3 PUSH2 0x2A1D JUMP JUMPDEST POP PUSH1 0x40 DUP3 ADD MLOAD PUSH2 0x2C2C PUSH1 0x40 DUP6 ADD DUP3 PUSH2 0x2A1D JUMP JUMPDEST POP PUSH1 0x60 DUP3 ADD MLOAD PUSH2 0x2C3F PUSH1 0x60 DUP6 ADD DUP3 PUSH2 0x2743 JUMP JUMPDEST POP PUSH1 0x80 DUP3 ADD MLOAD PUSH2 0x2C52 PUSH1 0x80 DUP6 ADD DUP3 PUSH2 0x2743 JUMP JUMPDEST POP PUSH1 0xA0 DUP3 ADD MLOAD PUSH2 0x2C65 PUSH1 0xA0 DUP6 ADD DUP3 PUSH2 0x2743 JUMP JUMPDEST POP PUSH1 0xC0 DUP3 ADD MLOAD PUSH2 0x2C78 PUSH1 0xC0 DUP6 ADD DUP3 PUSH2 0x2BE3 JUMP JUMPDEST POP POP POP POP JUMP JUMPDEST PUSH0 PUSH1 0xE0 DUP3 ADD SWAP1 POP PUSH2 0x2C91 PUSH0 DUP4 ADD DUP5 PUSH2 0x2BF2 JUMP JUMPDEST SWAP3 SWAP2 POP POP JUMP JUMPDEST PUSH0 PUSH0 REVERT JUMPDEST PUSH0 PUSH0 REVERT JUMPDEST PUSH0 PUSH0 REVERT JUMPDEST PUSH0 PUSH0 DUP4 PUSH1 0x1F DUP5 ADD SLT PUSH2 0x2CB8 JUMPI PUSH2 0x2CB7 PUSH2 0x2C97 JUMP JUMPDEST JUMPDEST DUP3 CALLDATALOAD SWAP1 POP PUSH8 0xFFFFFFFFFFFFFFFF DUP2 GT ISZERO PUSH2 0x2CD5 JUMPI PUSH2 0x2CD4 PUSH2 0x2C9B JUMP JUMPDEST JUMPDEST PUSH1 0x20 DUP4 ADD SWAP2 POP DUP4 PUSH1 0x1 DUP3 MUL DUP4 ADD GT ISZERO PUSH2 0x2CF1 JUMPI PUSH2 0x2CF0 PUSH2 0x2C9F JUMP JUMPDEST JUMPDEST SWAP3 POP SWAP3 SWAP1 POP JUMP JUMPDEST PUSH0 PUSH0 PUSH0 PUSH0 PUSH0 PUSH0 PUSH1 0x80 DUP8 DUP10 SUB SLT ISZERO PUSH2 0x2D12 JUMPI PUSH2 0x2D11 PUSH2 0x25DF JUMP JUMPDEST JUMPDEST PUSH0 DUP8 ADD CALLDATALOAD PUSH8 0xFFFFFFFFFFFFFFFF DUP2 GT ISZERO PUSH2 0x2D2F JUMPI PUSH2 0x2D2E PUSH2 0x25E3 JUMP JUMPDEST JUMPDEST PUSH2 0x2D3B DUP10 DUP3 DUP11 ADD PUSH2 0x2CA3 JUMP JUMPDEST SWAP7 POP SWAP7 POP POP PUSH1 0x20 PUSH2 0x2D4E DUP10 DUP3 DUP11 ADD PUSH2 0x2660 JUMP JUMPDEST SWAP5 POP POP PUSH1 0x40 DUP8 ADD CALLDATALOAD PUSH8 0xFFFFFFFFFFFFFFFF DUP2 GT ISZERO PUSH2 0x2D6F JUMPI PUSH2 0x2D6E PUSH2 0x25E3 JUMP JUMPDEST JUMPDEST PUSH2 0x2D7B DUP10 DUP3 DUP11 ADD PUSH2 0x2CA3 JUMP JUMPDEST SWAP4 POP SWAP4 POP POP PUSH1 0x60 PUSH2 0x2D8E DUP10 DUP3 DUP11 ADD PUSH2 0x2660 JUMP JUMPDEST SWAP2 POP POP SWAP3 SWAP6 POP SWAP3 SWAP6 POP SWAP3 SWAP6 JUMP JUMPDEST PUSH0 PUSH2 0x100 DUP3 ADD SWAP1 POP PUSH2 0x2DAF PUSH0 DUP4 ADD DUP12 PUSH2 0x27F1 JUMP JUMPDEST PUSH2 0x2DBC PUSH1 0x20 DUP4 ADD DUP11 PUSH2 0x2800 JUMP JUMPDEST DUP2 DUP2 SUB PUSH1 0x40 DUP4 ADD MSTORE PUSH2 0x2DCE DUP2 DUP10 PUSH2 0x296A JUMP JUMPDEST SWAP1 POP PUSH2 0x2DDD PUSH1 0x60 DUP4 ADD DUP9 PUSH2 0x27F1 JUMP JUMPDEST DUP2 DUP2 SUB PUSH1 0x80 DUP4 ADD MSTORE PUSH2 0x2DEF DUP2 DUP8 PUSH2 0x296A JUMP JUMPDEST SWAP1 POP PUSH2 0x2DFE PUSH1 0xA0 DUP4 ADD DUP7 PUSH2 0x27F1 JUMP JUMPDEST PUSH2 0x2E0B PUSH1 0xC0 DUP4 ADD DUP6 PUSH2 0x27F1 JUMP JUMPDEST PUSH2 0x2E18 PUSH1 0xE0 DUP4 ADD DUP5 PUSH2 0x27F1 JUMP JUMPDEST SWAP10 SWAP9 POP POP POP POP POP POP POP POP POP JUMP JUMPDEST PUSH0 PUSH0 PUSH1 0x40 DUP4 DUP6 SUB SLT ISZERO PUSH2 0x2E3B JUMPI PUSH2 0x2E3A PUSH2 0x25DF JUMP JUMPDEST JUMPDEST PUSH0 PUSH2 0x2E48 DUP6 DUP3 DUP7 ADD PUSH2 0x2660 JUMP JUMPDEST SWAP3 POP POP PUSH1 0x20 PUSH2 0x2E59 DUP6 DUP3 DUP7 ADD PUSH2 0x262D JUMP JUMPDEST SWAP2 POP POP SWAP3 POP SWAP3 SWAP1 POP JUMP JUMPDEST PUSH0 PUSH1 0x20 DUP3 ADD SWAP1 POP PUSH2 0x2E76 PUSH0 DUP4 ADD DUP5 PUSH2 0x2800 JUMP JUMPDEST SWAP3 SWAP2 POP POP JUMP JUMPDEST PUSH32 0x4E6F7420617070726F7665640000000000000000000000000000000000000000 PUSH0 DUP3 ADD MSTORE POP JUMP JUMPDEST PUSH0 PUSH2 0x2EB0 PUSH1 0xC DUP4 PUSH2 0x293C JUMP JUMPDEST SWAP2 POP PUSH2 0x2EBB DUP3 PUSH2 0x2E7C JUMP JUMPDEST PUSH1 0x20 DUP3 ADD SWAP1 POP SWAP2 SWAP1 POP JUMP JUMPDEST PUSH0 PUSH1 0x20 DUP3 ADD SWAP1 POP DUP2 DUP2 SUB PUSH0 DUP4 ADD MSTORE PUSH2 0x2EDD DUP2 PUSH2 0x2EA4 JUMP JUMPDEST SWAP1 POP SWAP2 SWAP1 POP JUMP JUMPDEST PUSH32 0x496E76616C696420726563697069656E74000000000000000000000000000000 PUSH0 DUP3 ADD MSTORE POP JUMP JUMPDEST PUSH0 PUSH2 0x2F18 PUSH1 0x11 DUP4 PUSH2 0x293C JUMP JUMPDEST SWAP2 POP PUSH2 0x2F23 DUP3 PUSH2 0x2EE4 JUMP JUMPDEST PUSH1 0x20 DUP3 ADD SWAP1 POP SWAP2 SWAP1 POP JUMP JUMPDEST PUSH0 PUSH1 0x20 DUP3 ADD SWAP1 POP DUP2 DUP2 SUB PUSH0 DUP4 ADD MSTORE PUSH2 0x2F45 DUP2 PUSH2 0x2F0C JUMP JUMPDEST SWAP1 POP SWAP2 SWAP1 POP JUMP JUMPDEST PUSH32 0x416D6F756E74206D757374206265203E20300000000000000000000000000000 PUSH0 DUP3 ADD MSTORE POP JUMP JUMPDEST PUSH0 PUSH2 0x2F80 PUSH1 0x12 DUP4 PUSH2 0x293C JUMP JUMPDEST SWAP2 POP PUSH2 0x2F8B DUP3 PUSH2 0x2F4C JUMP JUMPDEST PUSH1 0x20 DUP3 ADD SWAP1 POP SWAP2 SWAP1 POP JUMP JUMPDEST PUSH0 PUSH1 0x20 DUP3 ADD SWAP1 POP DUP2 DUP2 SUB PUSH0 DUP4 ADD MSTORE PUSH2 0x2FAD DUP2 PUSH2 0x2F74 JUMP JUMPDEST SWAP1 POP SWAP2 SWAP1 POP JUMP JUMPDEST PUSH32 0x546F6B656E20646F6573206E6F74206578697374000000000000000000000000 PUSH0 DUP3 ADD MSTORE POP JUMP JUMPDEST PUSH0 PUSH2 0x2FE8 PUSH1 0x14 DUP4 PUSH2 0x293C JUMP JUMPDEST SWAP2 POP PUSH2 0x2FF3 DUP3 PUSH2 0x2FB4 JUMP JUMPDEST PUSH1 0x20 DUP3 ADD SWAP1 POP SWAP2 SWAP1 POP JUMP JUMPDEST PUSH0 PUSH1 0x20 DUP3 ADD SWAP1 POP DUP2 DUP2 SUB PUSH0 DUP4 ADD MSTORE PUSH2 0x3015 DUP2 PUSH2 0x2FDC JUMP JUMPDEST SWAP1 POP SWAP2 SWAP1 POP JUMP JUMPDEST PUSH32 0x526563697069656E74206E6F7420726567697374657265640000000000000000 PUSH0 DUP3 ADD MSTORE POP JUMP JUMPDEST PUSH0 PUSH2 0x3050 PUSH1 0x18 DUP4 PUSH2 0x293C JUMP JUMPDEST SWAP2 POP PUSH2 0x305B DUP3 PUSH2 0x301C JUMP JUMPDEST PUSH1 0x20 DUP3 ADD SWAP1 POP SWAP2 SWAP1 POP JUMP JUMPDEST PUSH0 PUSH1 0x20 DUP3 ADD SWAP1 POP DUP2 DUP2 SUB PUSH0 DUP4 ADD MSTORE PUSH2 0x307D DUP2 PUSH2 0x3044 JUMP JUMPDEST SWAP1 POP SWAP2 SWAP1 POP JUMP JUMPDEST PUSH32 0x436F6E73756D65722063616E6E6F74207472616E736665720000000000000000 PUSH0 DUP3 ADD MSTORE POP JUMP JUMPDEST PUSH0 PUSH2 0x30B8 PUSH1 0x18 DUP4 PUSH2 0x293C JUMP JUMPDEST SWAP2 POP PUSH2 0x30C3 DUP3 PUSH2 0x3084 JUMP JUMPDEST PUSH1 0x20 DUP3 ADD SWAP1 POP SWAP2 SWAP1 POP JUMP JUMPDEST PUSH0 PUSH1 0x20 DUP3 ADD SWAP1 POP DUP2 DUP2 SUB PUSH0 DUP4 ADD MSTORE PUSH2 0x30E5 DUP2 PUSH2 0x30AC JUMP JUMPDEST SWAP1 POP SWAP2 SWAP1 POP JUMP JUMPDEST PUSH32 0x496E76616C696420726F6C65207472616E736974696F6E000000000000000000 PUSH0 DUP3 ADD MSTORE POP JUMP JUMPDEST PUSH0 PUSH2 0x3120 PUSH1 0x17 DUP4 PUSH2 0x293C JUMP JUMPDEST SWAP2 POP PUSH2 0x312B DUP3 PUSH2 0x30EC JUMP JUMPDEST PUSH1 0x20 DUP3 ADD SWAP1 POP SWAP2 SWAP1 POP JUMP JUMPDEST PUSH0 PUSH1 0x20 DUP3 ADD SWAP1 POP DUP2 DUP2 SUB PUSH0 DUP4 ADD MSTORE PUSH2 0x314D DUP2 PUSH2 0x3114 JUMP JUMPDEST SWAP1 POP SWAP2 SWAP1 POP JUMP JUMPDEST PUSH32 0x496E73756666696369656E742062616C616E6365000000000000000000000000 PUSH0 DUP3 ADD MSTORE POP JUMP JUMPDEST PUSH0 PUSH2 0x3188 PUSH1 0x14 DUP4 PUSH2 0x293C JUMP JUMPDEST SWAP2 POP PUSH2 0x3193 DUP3 PUSH2 0x3154 JUMP JUMPDEST PUSH1 0x20 DUP3 ADD SWAP1 POP SWAP2 SWAP1 POP JUMP JUMPDEST PUSH0 PUSH1 0x20 DUP3 ADD SWAP1 POP DUP2 DUP2 SUB PUSH0 DUP4 ADD MSTORE PUSH2 0x31B5 DUP2 PUSH2 0x317C JUMP JUMPDEST SWAP1 POP SWAP2 SWAP1 POP JUMP JUMPDEST PUSH32 0x4E487B7100000000000000000000000000000000000000000000000000000000 PUSH0 MSTORE PUSH1 0x11 PUSH1 0x4 MSTORE PUSH1 0x24 PUSH0 REVERT JUMPDEST PUSH0 PUSH2 0x31F3 DUP3 PUSH2 0x2641 JUMP JUMPDEST SWAP2 POP PUSH2 0x31FE DUP4 PUSH2 0x2641 JUMP JUMPDEST SWAP3 POP DUP3 DUP3 SUB SWAP1 POP DUP2 DUP2 GT ISZERO PUSH2 0x3216 JUMPI PUSH2 0x3215 PUSH2 0x31BC JUMP JUMPDEST JUMPDEST SWAP3 SWAP2 POP POP JUMP JUMPDEST PUSH0 PUSH2 0x3226 DUP3 PUSH2 0x2641 JUMP JUMPDEST SWAP2 POP PUSH2 0x3231 DUP4 PUSH2 0x2641 JUMP JUMPDEST SWAP3 POP DUP3 DUP3 ADD SWAP1 POP DUP1 DUP3 GT ISZERO PUSH2 0x3249 JUMPI PUSH2 0x3248 PUSH2 0x31BC JUMP JUMPDEST JUMPDEST SWAP3 SWAP2 POP POP JUMP JUMPDEST PUSH0 PUSH2 0x3259 DUP3 PUSH2 0x2641 JUMP JUMPDEST SWAP2 POP PUSH32 0xFFFFFFFFFFFFFFFFFFFFFFFFFFFFFFFFFFFFFFFFFFFFFFFFFFFFFFFFFFFFFFFF DUP3 SUB PUSH2 0x328B JUMPI PUSH2 0x328A PUSH2 0x31BC JUMP JUMPDEST JUMPDEST PUSH1 0x1 DUP3 ADD SWAP1 POP SWAP2 SWAP1 POP JUMP JUMPDEST PUSH0 PUSH1 0x40 DUP3 ADD SWAP1 POP PUSH2 0x32A9 PUSH0 DUP4 ADD DUP6 PUSH2 0x27F1 JUMP JUMPDEST PUSH2 0x32B6 PUSH1 0x20 DUP4 ADD DUP5 PUSH2 0x27F1 JUMP JUMPDEST SWAP4 SWAP3 POP POP POP JUMP JUMPDEST PUSH32 0x4E6F742070656E64696E67000000000000000000000000000000000000000000 PUSH0 DUP3 ADD MSTORE POP JUMP JUMPDEST PUSH0 PUSH2 0x32F1 PUSH1 0xB DUP4 PUSH2 0x293C JUMP JUMPDEST SWAP2 POP PUSH2 0x32FC DUP3 PUSH2 0x32BD JUMP JUMPDEST PUSH1 0x20 DUP3 ADD SWAP1 POP SWAP2 SWAP1 POP JUMP JUMPDEST PUSH0 PUSH1 0x20 DUP3 ADD SWAP1 POP DUP2 DUP2 SUB PUSH0 DUP4 ADD MSTORE PUSH2 0x331E DUP2 PUSH2 0x32E5 JUMP JUMPDEST SWAP1 POP SWAP2 SWAP1 POP JUMP JUMPDEST PUSH32 0x4E6F7420617574686F72697A6564000000000000000000000000000000000000 PUSH0 DUP3 ADD MSTORE POP JUMP JUMPDEST PUSH0 PUSH2 0x3359 PUSH1 0xE DUP4 PUSH2 0x293C JUMP JUMPDEST SWAP2 POP PUSH2 0x3364 DUP3 PUSH2 0x3325 JUMP JUMPDEST PUSH1 0x20 DUP3 ADD SWAP1 POP SWAP2 SWAP1 POP JUMP JUMPDEST PUSH0 PUSH1 0x20 DUP3 ADD SWAP1 POP DUP2 DUP2 SUB PUSH0 DUP4 ADD MSTORE PUSH2 0x3386 DUP2 PUSH2 0x334D JUMP JUMPDEST SWAP1 POP SWAP2 SWAP1 POP JUMP JUMPDEST PUSH32 0x4E6F7420726563697069656E7400000000000000000000000000000000000000 PUSH0 DUP3 ADD MSTORE POP JUMP JUMPDEST PUSH0 PUSH2 0x33C1 PUSH1 0xD DUP4 PUSH2 0x293C JUMP JUMPDEST SWAP2 POP PUSH2 0x33CC DUP3 PUSH2 0x338D JUMP JUMPDEST PUSH1 0x20 DUP3 ADD SWAP1 POP SWAP2 SWAP1 POP JUMP JUMPDEST PUSH0 PUSH1 0x20 DUP3 ADD SWAP1 POP DUP2 DUP2 SUB PUSH0 DUP4 ADD MSTORE PUSH2 0x33EE DUP2 PUSH2 0x33B5 JUMP JUMPDEST SWAP1 POP SWAP2 SWAP1 POP JUMP JUMPDEST PUSH32 0x4E487B7100000000000000000000000000000000000000000000000000000000 PUSH0 MSTORE PUSH1 0x41 PUSH1 0x4 MSTORE PUSH1 0x24 PUSH0 REVERT JUMPDEST PUSH32 0x4E487B7100000000000000000000000000000000000000000000000000000000 PUSH0 MSTORE PUSH1 0x32 PUSH1 0x4 MSTORE PUSH1 0x24 PUSH0 REVERT JUMPDEST PUSH32 0x496E76616C696420726F6C650000000000000000000000000000000000000000 PUSH0 DUP3 ADD MSTORE POP JUMP JUMPDEST PUSH0 PUSH2 0x3483 PUSH1 0xC DUP4 PUSH2 0x293C JUMP JUMPDEST SWAP2 POP PUSH2 0x348E DUP3 PUSH2 0x344F JUMP JUMPDEST PUSH1 0x20 DUP3 ADD SWAP1 POP SWAP2 SWAP1 POP JUMP JUMPDEST PUSH0 PUSH1 0x20 DUP3 ADD SWAP1 POP DUP2 DUP2 SUB PUSH0 DUP4 ADD MSTORE PUSH2 0x34B0 DUP2 PUSH2 0x3477 JUMP JUMPDEST SWAP1 POP SWAP2 SWAP1 POP JUMP JUMPDEST PUSH0 PUSH1 0x20 DUP3 ADD SWAP1 POP PUSH2 0x34CA PUSH0 DUP4 ADD DUP5 PUSH2 0x2818 JUMP JUMPDEST SWAP3 SWAP2 POP POP JUMP JUMPDEST PUSH0 PUSH1 0x20 DUP3 ADD SWAP1 POP PUSH2 0x34E3 PUSH0 DUP4 ADD DUP5 PUSH2 0x288B JUMP JUMPDEST SWAP3 SWAP2 POP POP JUMP JUMPDEST PUSH32 0x4E487B7100000000000000000000000000000000000000000000000000000000 PUSH0 MSTORE PUSH1 0x22 PUSH1 0x4 MSTORE PUSH1 0x24 PUSH0 REVERT JUMPDEST PUSH0 PUSH1 0x2 DUP3 DIV SWAP1 POP PUSH1 0x1 DUP3 AND DUP1 PUSH2 0x352D JUMPI PUSH1 0x7F DUP3 AND SWAP2 POP JUMPDEST PUSH1 0x20 DUP3 LT DUP2 SUB PUSH2 0x3540 JUMPI PUSH2 0x353F PUSH2 0x34E9 JUMP JUMPDEST JUMPDEST POP SWAP2 SWAP1 POP JUMP JUMPDEST PUSH32 0x4E6F742061646D696E0000000000000000000000000000000000000000000000 PUSH0 DUP3 ADD MSTORE POP JUMP JUMPDEST PUSH0 PUSH2 0x357A PUSH1 0x9 DUP4 PUSH2 0x293C JUMP JUMPDEST SWAP2 POP PUSH2 0x3585 DUP3 PUSH2 0x3546 JUMP JUMPDEST PUSH1 0x20 DUP3 ADD SWAP1 POP SWAP2 SWAP1 POP JUMP JUMPDEST PUSH0 PUSH1 0x20 DUP3 ADD SWAP1 POP DUP2 DUP2 SUB PUSH0 DUP4 ADD MSTORE PUSH2 0x35A7 DUP2 PUSH2 0x356E JUMP JUMPDEST SWAP1 POP SWAP2 SWAP1 POP JUMP JUMPDEST PUSH32 0x55736572206E6F7420666F756E64000000000000000000000000000000000000 PUSH0 DUP3 ADD MSTORE POP JUMP JUMPDEST PUSH0 PUSH2 0x35E2 PUSH1 0xE DUP4 PUSH2 0x293C JUMP JUMPDEST SWAP2 POP PUSH2 0x35ED DUP3 PUSH2 0x35AE JUMP JUMPDEST PUSH1 0x20 DUP3 ADD SWAP1 POP SWAP2 SWAP1 POP JUMP JUMPDEST PUSH0 PUSH1 0x20 DUP3 ADD SWAP1 POP DUP2 DUP2 SUB PUSH0 DUP4 ADD MSTORE PUSH2 0x360F DUP2 PUSH2 0x35D6 JUMP JUMPDEST SWAP1 POP SWAP2 SWAP1 POP JUMP JUMPDEST PUSH32 0x4E616D6520656D70747900000000000000000000000000000000000000000000 PUSH0 DUP3 ADD MSTORE POP JUMP JUMPDEST PUSH0 PUSH2 0x364A PUSH1 0xA DUP4 PUSH2 0x293C JUMP JUMPDEST SWAP2 POP PUSH2 0x3655 DUP3 PUSH2 0x3616 JUMP JUMPDEST PUSH1 0x20 DUP3 ADD SWAP1 POP SWAP2 SWAP1 POP JUMP JUMPDEST PUSH0 PUSH1 0x20 DUP3 ADD SWAP1 POP DUP2 DUP2 SUB PUSH0 DUP4 ADD MSTORE PUSH2 0x3677 DUP2 PUSH2 0x363E JUMP JUMPDEST SWAP1 POP SWAP2 SWAP1 POP JUMP JUMPDEST PUSH0 DUP3 SWAP1 POP SWAP3 SWAP2 POP POP JUMP JUMPDEST PUSH0 DUP2 SWAP1 POP DUP2 PUSH0 MSTORE PUSH1 0x20 PUSH0 KECCAK256 SWAP1 POP SWAP2 SWAP1 POP JUMP JUMPDEST PUSH0 PUSH1 0x20 PUSH1 0x1F DUP4 ADD DIV SWAP1 POP SWAP2 SWAP1 POP JUMP JUMPDEST PUSH0 DUP3 DUP3 SHL SWAP1 POP SWAP3 SWAP2 POP POP JUMP JUMPDEST PUSH0 PUSH1 0x8 DUP4 MUL PUSH2 0x36E4 PUSH32 0xFFFFFFFFFFFFFFFFFFFFFFFFFFFFFFFFFFFFFFFFFFFFFFFFFFFFFFFFFFFFFFFF DUP3 PUSH2 0x36A9 JUMP JUMPDEST PUSH2 0x36EE DUP7 DUP4 PUSH2 0x36A9 JUMP JUMPDEST SWAP6 POP DUP1 NOT DUP5 AND SWAP4 POP DUP1 DUP7 AND DUP5 OR SWAP3 POP POP POP SWAP4 SWAP3 POP POP POP JUMP JUMPDEST PUSH0 DUP2 SWAP1 POP SWAP2 SWAP1 POP JUMP JUMPDEST PUSH0 PUSH2 0x3729 PUSH2 0x3724 PUSH2 0x371F DUP5 PUSH2 0x2641 JUMP JUMPDEST PUSH2 0x3706 JUMP JUMPDEST PUSH2 0x2641 JUMP JUMPDEST SWAP1 POP SWAP2 SWAP1 POP JUMP JUMPDEST PUSH0 DUP2 SWAP1 POP SWAP2 SWAP1 POP JUMP JUMPDEST PUSH2 0x3742 DUP4 PUSH2 0x370F JUMP JUMPDEST PUSH2 0x3756 PUSH2 0x374E DUP3 PUSH2 0x3730 JUMP JUMPDEST DUP5 DUP5 SLOAD PUSH2 0x36B5 JUMP JUMPDEST DUP3 SSTORE POP POP POP POP JUMP JUMPDEST PUSH0 PUSH0 SWAP1 POP SWAP1 JUMP JUMPDEST PUSH2 0x376D PUSH2 0x375E JUMP JUMPDEST PUSH2 0x3778 DUP2 DUP5 DUP5 PUSH2 0x3739 JUMP JUMPDEST POP POP POP JUMP JUMPDEST JUMPDEST DUP2 DUP2 LT ISZERO PUSH2 0x379B JUMPI PUSH2 0x3790 PUSH0 DUP3 PUSH2 0x3765 JUMP JUMPDEST PUSH1 0x1 DUP2 ADD SWAP1 POP PUSH2 0x377E JUMP JUMPDEST POP POP JUMP JUMPDEST PUSH1 0x1F DUP3 GT ISZERO PUSH2 0x37E0 JUMPI PUSH2 0x37B1 DUP2 PUSH2 0x3688 JUMP JUMPDEST PUSH2 0x37BA DUP5 PUSH2 0x369A JUMP JUMPDEST DUP2 ADD PUSH1 0x20 DUP6 LT ISZERO PUSH2 0x37C9 JUMPI DUP2 SWAP1 POP JUMPDEST PUSH2 0x37DD PUSH2 0x37D5 DUP6 PUSH2 0x369A JUMP JUMPDEST DUP4 ADD DUP3 PUSH2 0x377D JUMP JUMPDEST POP POP JUMPDEST POP POP POP JUMP JUMPDEST PUSH0 DUP3 DUP3 SHR SWAP1 POP SWAP3 SWAP2 POP POP JUMP JUMPDEST PUSH0 PUSH2 0x3800 PUSH0 NOT DUP5 PUSH1 0x8 MUL PUSH2 0x37E5 JUMP JUMPDEST NOT DUP1 DUP4 AND SWAP2 POP POP SWAP3 SWAP2 POP POP JUMP JUMPDEST PUSH0 PUSH2 0x3818 DUP4 DUP4 PUSH2 0x37F1 JUMP JUMPDEST SWAP2 POP DUP3 PUSH1 0x2 MUL DUP3 OR SWAP1 POP SWAP3 SWAP2 POP POP JUMP JUMPDEST PUSH2 0x3832 DUP4 DUP4 PUSH2 0x367E JUMP JUMPDEST PUSH8 0xFFFFFFFFFFFFFFFF DUP2 GT ISZERO PUSH2 0x384B JUMPI PUSH2 0x384A PUSH2 0x33F5 JUMP JUMPDEST JUMPDEST PUSH2 0x3855 DUP3 SLOAD PUSH2 0x3516 JUMP JUMPDEST PUSH2 0x3860 DUP3 DUP3 DUP6 PUSH2 0x379F JUMP JUMPDEST PUSH0 PUSH1 0x1F DUP4 GT PUSH1 0x1 DUP2 EQ PUSH2 0x388D JUMPI PUSH0 DUP5 ISZERO PUSH2 0x387B JUMPI DUP3 DUP8 ADD CALLDATALOAD SWAP1 POP JUMPDEST PUSH2 0x3885 DUP6 DUP3 PUSH2 0x380D JUMP JUMPDEST DUP7 SSTORE POP PUSH2 0x38EC JUMP JUMPDEST PUSH1 0x1F NOT DUP5 AND PUSH2 0x389B DUP7 PUSH2 0x3688 JUMP JUMPDEST PUSH0 JUMPDEST DUP3 DUP2 LT ISZERO PUSH2 0x38C2 JUMPI DUP5 DUP10 ADD CALLDATALOAD DUP3 SSTORE PUSH1 0x1 DUP3 ADD SWAP2 POP PUSH1 0x20 DUP6 ADD SWAP5 POP PUSH1 0x20 DUP2 ADD SWAP1 POP PUSH2 0x389D JUMP JUMPDEST DUP7 DUP4 LT ISZERO PUSH2 0x38DF JUMPI DUP5 DUP10 ADD CALLDATALOAD PUSH2 0x38DB PUSH1 0x1F DUP10 AND DUP3 PUSH2 0x37F1 JUMP JUMPDEST DUP4 SSTORE POP JUMPDEST PUSH1 0x1 PUSH1 0x2 DUP9 MUL ADD DUP9 SSTORE POP POP POP JUMPDEST POP POP POP POP POP POP POP JUMP JUMPDEST DUP3 DUP2 DUP4 CALLDATACOPY PUSH0 DUP4 DUP4 ADD MSTORE POP POP POP JUMP JUMPDEST PUSH0 PUSH2 0x390E DUP4 DUP6 PUSH2 0x293C JUMP JUMPDEST SWAP4 POP PUSH2 0x391B DUP4 DUP6 DUP5 PUSH2 0x38F5 JUMP JUMPDEST PUSH2 0x3924 DUP4 PUSH2 0x295A JUMP JUMPDEST DUP5 ADD SWAP1 POP SWAP4 SWAP3 POP POP POP JUMP JUMPDEST PUSH0 PUSH1 0x40 DUP3 ADD SWAP1 POP DUP2 DUP2 SUB PUSH0 DUP4 ADD MSTORE PUSH2 0x3948 DUP2 DUP6 DUP8 PUSH2 0x3903 JUMP JUMPDEST SWAP1 POP PUSH2 0x3957 PUSH1 0x20 DUP4 ADD DUP5 PUSH2 0x27F1 JUMP JUMPDEST SWAP5 SWAP4 POP POP POP POP JUMP INVALID LOG2 PUSH5 0x6970667358 0x22 SLT KECCAK256 PUSH0 DUP16 EXTCODESIZE 0xAC DIV ADDRESS 0x2A 0xAF 0x1E DUP4 CALLF 0xC07F 0xB6 SWAP2 BLOBHASH EXTCODESIZE NOT MLOAD 0xBF EXTCODESIZE CALLER 0xCE 0xE8 SWAP12 0x23 LOG2 LOG0 PUSH15 0x7AB84364736F6C634300081E003300 "
				},
				"gasEstimates": {
					"creation": {
						"codeDepositCost": "2948200",
						"executionCost": "infinite",
						"totalCost": "infinite"
					},
					"external": {
						"acceptTransfer(uint256)": "48171",
						"addressToUserId(address)": "2891",
						"admin()": "infinite",
						"changeStatusUser(address,uint8)": "infinite",
						"createToken(string,uint256,string,uint256)": "infinite",
						"getToken(uint256)": "infinite",
						"getTokenBalance(uint256,address)": "infinite",
						"getTransfer(uint256)": "infinite",
						"getUserInfo(address)": "infinite",
						"getUserTokens(address)": "infinite",
						"getUserTransfers(address)": "infinite",
						"nextTokenId()": "2536",
						"nextTransferId()": "2536",
						"nextUserId()": "2492",
						"rejectTransfer(uint256)": "infinite",
						"requestUserRole(bytes32)": "infinite",
						"tokens(uint256)": "infinite",
						"transfer(address,uint256,uint256)": "infinite",
						"transfers(uint256)": "infinite",
						"users(uint256)": "infinite"
					},
					"internal": {
						"_isConsumer(bytes32)": "33",
						"_isNextRole(bytes32,bytes32)": "184"
					}
				},
				"methodIdentifiers": {
					"acceptTransfer(uint256)": "274fae7c",
					"addressToUserId(address)": "b5ffbbcc",
					"admin()": "f851a440",
					"changeStatusUser(address,uint8)": "8782dc00",
					"createToken(string,uint256,string,uint256)": "d67b2d08",
					"getToken(uint256)": "e4b50cb8",
					"getTokenBalance(uint256,address)": "ef57e2d2",
					"getTransfer(uint256)": "c16fe907",
					"getUserInfo(address)": "6386c1c7",
					"getUserTokens(address)": "519dc8d2",
					"getUserTransfers(address)": "335d3410",
					"nextTokenId()": "75794a3c",
					"nextTransferId()": "b85b381b",
					"nextUserId()": "a1e6a255",
					"rejectTransfer(uint256)": "12effc32",
					"requestUserRole(bytes32)": "49217ca4",
					"tokens(uint256)": "4f64b2be",
					"transfer(address,uint256,uint256)": "095bcdb6",
					"transfers(uint256)": "9377d711",
					"users(uint256)": "365b98b2"
				}
			},
			"storageLayout": {
				"storage": [
					{
						"astId": 10,
						"contract": "sc/src/SupplyChainTracker.sol:SupplyChainTracker",
						"label": "_status",
						"offset": 0,
						"slot": "0",
						"type": "t_uint256"
					},
					{
						"astId": 152,
						"contract": "sc/src/SupplyChainTracker.sol:SupplyChainTracker",
						"label": "nextTokenId",
						"offset": 0,
						"slot": "1",
						"type": "t_uint256"
					},
					{
						"astId": 155,
						"contract": "sc/src/SupplyChainTracker.sol:SupplyChainTracker",
						"label": "nextTransferId",
						"offset": 0,
						"slot": "2",
						"type": "t_uint256"
					},
					{
						"astId": 158,
						"contract": "sc/src/SupplyChainTracker.sol:SupplyChainTracker",
						"label": "nextUserId",
						"offset": 0,
						"slot": "3",
						"type": "t_uint256"
					},
					{
						"astId": 163,
						"contract": "sc/src/SupplyChainTracker.sol:SupplyChainTracker",
						"label": "tokens",
						"offset": 0,
						"slot": "4",
						"type": "t_mapping(t_uint256,t_struct(Token)121_storage)"
					},
					{
						"astId": 168,
						"contract": "sc/src/SupplyChainTracker.sol:SupplyChainTracker",
						"label": "transfers",
						"offset": 0,
						"slot": "5",
						"type": "t_mapping(t_uint256,t_struct(Transfer)137_storage)"
					},
					{
						"astId": 173,
						"contract": "sc/src/SupplyChainTracker.sol:SupplyChainTracker",
						"label": "users",
						"offset": 0,
						"slot": "6",
						"type": "t_mapping(t_uint256,t_struct(User)147_storage)"
					},
					{
						"astId": 177,
						"contract": "sc/src/SupplyChainTracker.sol:SupplyChainTracker",
						"label": "addressToUserId",
						"offset": 0,
						"slot": "7",
						"type": "t_mapping(t_address,t_uint256)"
					}
				],
				"types": {
					"t_address": {
						"encoding": "inplace",
						"label": "address",
						"numberOfBytes": "20"
					},
					"t_bytes32": {
						"encoding": "inplace",
						"label": "bytes32",
						"numberOfBytes": "32"
					},
					"t_enum(TransferStatus)102": {
						"encoding": "inplace",
						"label": "enum SupplyChainTracker.TransferStatus",
						"numberOfBytes": "1"
					},
					"t_enum(UserStatus)98": {
						"encoding": "inplace",
						"label": "enum SupplyChainTracker.UserStatus",
						"numberOfBytes": "1"
					},
					"t_mapping(t_address,t_uint256)": {
						"encoding": "mapping",
						"key": "t_address",
						"label": "mapping(address => uint256)",
						"numberOfBytes": "32",
						"value": "t_uint256"
					},
					"t_mapping(t_uint256,t_struct(Token)121_storage)": {
						"encoding": "mapping",
						"key": "t_uint256",
						"label": "mapping(uint256 => struct SupplyChainTracker.Token)",
						"numberOfBytes": "32",
						"value": "t_struct(Token)121_storage"
					},
					"t_mapping(t_uint256,t_struct(Transfer)137_storage)": {
						"encoding": "mapping",
						"key": "t_uint256",
						"label": "mapping(uint256 => struct SupplyChainTracker.Transfer)",
						"numberOfBytes": "32",
						"value": "t_struct(Transfer)137_storage"
					},
					"t_mapping(t_uint256,t_struct(User)147_storage)": {
						"encoding": "mapping",
						"key": "t_uint256",
						"label": "mapping(uint256 => struct SupplyChainTracker.User)",
						"numberOfBytes": "32",
						"value": "t_struct(User)147_storage"
					},
					"t_string_storage": {
						"encoding": "bytes",
						"label": "string",
						"numberOfBytes": "32"
					},
					"t_struct(Token)121_storage": {
						"encoding": "inplace",
						"label": "struct SupplyChainTracker.Token",
						"members": [
							{
								"astId": 104,
								"contract": "sc/src/SupplyChainTracker.sol:SupplyChainTracker",
								"label": "id",
								"offset": 0,
								"slot": "0",
								"type": "t_uint256"
							},
							{
								"astId": 106,
								"contract": "sc/src/SupplyChainTracker.sol:SupplyChainTracker",
								"label": "creator",
								"offset": 0,
								"slot": "1",
								"type": "t_address"
							},
							{
								"astId": 108,
								"contract": "sc/src/SupplyChainTracker.sol:SupplyChainTracker",
								"label": "name",
								"offset": 0,
								"slot": "2",
								"type": "t_string_storage"
							},
							{
								"astId": 110,
								"contract": "sc/src/SupplyChainTracker.sol:SupplyChainTracker",
								"label": "totalSupply",
								"offset": 0,
								"slot": "3",
								"type": "t_uint256"
							},
							{
								"astId": 112,
								"contract": "sc/src/SupplyChainTracker.sol:SupplyChainTracker",
								"label": "features",
								"offset": 0,
								"slot": "4",
								"type": "t_string_storage"
							},
							{
								"astId": 114,
								"contract": "sc/src/SupplyChainTracker.sol:SupplyChainTracker",
								"label": "parentId",
								"offset": 0,
								"slot": "5",
								"type": "t_uint256"
							},
							{
								"astId": 116,
								"contract": "sc/src/SupplyChainTracker.sol:SupplyChainTracker",
								"label": "dateCreated",
								"offset": 0,
								"slot": "6",
								"type": "t_uint256"
							},
							{
								"astId": 120,
								"contract": "sc/src/SupplyChainTracker.sol:SupplyChainTracker",
								"label": "balance",
								"offset": 0,
								"slot": "7",
								"type": "t_mapping(t_address,t_uint256)"
							}
						],
						"numberOfBytes": "256"
					},
					"t_struct(Transfer)137_storage": {
						"encoding": "inplace",
						"label": "struct SupplyChainTracker.Transfer",
						"members": [
							{
								"astId": 123,
								"contract": "sc/src/SupplyChainTracker.sol:SupplyChainTracker",
								"label": "id",
								"offset": 0,
								"slot": "0",
								"type": "t_uint256"
							},
							{
								"astId": 125,
								"contract": "sc/src/SupplyChainTracker.sol:SupplyChainTracker",
								"label": "from",
								"offset": 0,
								"slot": "1",
								"type": "t_address"
							},
							{
								"astId": 127,
								"contract": "sc/src/SupplyChainTracker.sol:SupplyChainTracker",
								"label": "to",
								"offset": 0,
								"slot": "2",
								"type": "t_address"
							},
							{
								"astId": 129,
								"contract": "sc/src/SupplyChainTracker.sol:SupplyChainTracker",
								"label": "tokenId",
								"offset": 0,
								"slot": "3",
								"type": "t_uint256"
							},
							{
								"astId": 131,
								"contract": "sc/src/SupplyChainTracker.sol:SupplyChainTracker",
								"label": "dateCreated",
								"offset": 0,
								"slot": "4",
								"type": "t_uint256"
							},
							{
								"astId": 133,
								"contract": "sc/src/SupplyChainTracker.sol:SupplyChainTracker",
								"label": "amount",
								"offset": 0,
								"slot": "5",
								"type": "t_uint256"
							},
							{
								"astId": 136,
								"contract": "sc/src/SupplyChainTracker.sol:SupplyChainTracker",
								"label": "status",
								"offset": 0,
								"slot": "6",
								"type": "t_enum(TransferStatus)102"
							}
						],
						"numberOfBytes": "224"
					},
					"t_struct(User)147_storage": {
						"encoding": "inplace",
						"label": "struct SupplyChainTracker.User",
						"members": [
							{
								"astId": 139,
								"contract": "sc/src/SupplyChainTracker.sol:SupplyChainTracker",
								"label": "id",
								"offset": 0,
								"slot": "0",
								"type": "t_uint256"
							},
							{
								"astId": 141,
								"contract": "sc/src/SupplyChainTracker.sol:SupplyChainTracker",
								"label": "userAddress",
								"offset": 0,
								"slot": "1",
								"type": "t_address"
							},
							{
								"astId": 143,
								"contract": "sc/src/SupplyChainTracker.sol:SupplyChainTracker",
								"label": "role",
								"offset": 0,
								"slot": "2",
								"type": "t_bytes32"
							},
							{
								"astId": 146,
								"contract": "sc/src/SupplyChainTracker.sol:SupplyChainTracker",
								"label": "status",
								"offset": 0,
								"slot": "3",
								"type": "t_enum(UserStatus)98"
							}
						],
						"numberOfBytes": "128"
					},
					"t_uint256": {
						"encoding": "inplace",
						"label": "uint256",
						"numberOfBytes": "32"
					}
				}
			},
			"userdoc": {
				"kind": "user",
				"methods": {},
				"version": 1
			}
		}
	}
}