{"abi":[{"type":"function","name":"deposit","inputs":[],"outputs":[],"stateMutability":"payable"},{"type":"function","name":"getBalance","inputs":[{"name":"_address","type":"address","internalType":"address"}],"outputs":[{"name":"","type":"uint256","internalType":"uint256"}],"stateMutability":"view"},{"type":"function","name":"withdraw","inputs":[{"name":"_amount","type":"uint256","internalType":"uint256"}],"outputs":[],"stateMutability":"nonpayable"}],"bytecode":{"object":"0x608060405234801561000f575f80fd5b506105738061001d5f395ff3fe608060405260043610610033575f3560e01c80632e1a7d4d14610037578063d0e30db01461005f578063f8b2cb4f14610069575b5f80fd5b348015610042575f80fd5b5061005d600480360381019061005891906102e4565b6100a5565b005b610067610214565b005b348015610074575f80fd5b5061008f600480360381019061008a9190610369565b610268565b60405161009c91906103a3565b60405180910390f35b5f803373ffffffffffffffffffffffffffffffffffffffff1673ffffffffffffffffffffffffffffffffffffffff1681526020019081526020015f2054811115610124576040517f08c379a000000000000000000000000000000000000000000000000000000000815260040161011b90610416565b60405180910390fd5b5f3373ffffffffffffffffffffffffffffffffffffffff168260405161014990610461565b5f6040518083038185875af1925050503d805f8114610183576040519150601f19603f3d011682016040523d82523d5f602084013e610188565b606091505b50509050806101cc576040517f08c379a00000000000000000000000000000000000000000000000000000000081526004016101c3906104bf565b60405180910390fd5b3373ffffffffffffffffffffffffffffffffffffffff166108fc8390811502906040515f60405180830381858888f1935050505015801561020f573d5f803e3d5ffd5b505050565b345f803373ffffffffffffffffffffffffffffffffffffffff1673ffffffffffffffffffffffffffffffffffffffff1681526020019081526020015f205f82825461025f919061050a565b92505081905550565b5f805f8373ffffffffffffffffffffffffffffffffffffffff1673ffffffffffffffffffffffffffffffffffffffff1681526020019081526020015f20549050919050565b5f80fd5b5f819050919050565b6102c3816102b1565b81146102cd575f80fd5b50565b5f813590506102de816102ba565b92915050565b5f602082840312156102f9576102f86102ad565b5b5f610306848285016102d0565b91505092915050565b5f73ffffffffffffffffffffffffffffffffffffffff82169050919050565b5f6103388261030f565b9050919050565b6103488161032e565b8114610352575f80fd5b50565b5f813590506103638161033f565b92915050565b5f6020828403121561037e5761037d6102ad565b5b5f61038b84828501610355565b91505092915050565b61039d816102b1565b82525050565b5f6020820190506103b65f830184610394565b92915050565b5f82825260208201905092915050565b7f496e73756666696369656e742062616c616e63650000000000000000000000005f82015250565b5f6104006014836103bc565b915061040b826103cc565b602082019050919050565b5f6020820190508181035f83015261042d816103f4565b9050919050565b5f81905092915050565b50565b5f61044c5f83610434565b91506104578261043e565b5f82019050919050565b5f61046b82610441565b9150819050919050565b7f5472616e73666572206661696c656400000000000000000000000000000000005f82015250565b5f6104a9600f836103bc565b91506104b482610475565b602082019050919050565b5f6020820190508181035f8301526104d68161049d565b9050919050565b7f4e487b71000000000000000000000000000000000000000000000000000000005f52601160045260245ffd5b5f610514826102b1565b915061051f836102b1565b9250828201905080821115610537576105366104dd565b5b9291505056fea2646970667358221220f085d018390b572066603c38ec1541d0ecbccb2a9a1e5d274de575c4d1c7f18364736f6c63430008140033","linkReferences":{}},"methodIdentifiers":{"deposit()":"d0e30db0","getBalance(address)":"f8b2cb4f","withdraw(uint256)":"2e1a7d4d"},"id":1}