{"abi":[{"type":"function","name":"MAX_ITERATIONS","inputs":[],"outputs":[{"name":"","type":"uint256","internalType":"uint256"}],"stateMutability":"view"},{"type":"function","name":"performCostlyOperation","inputs":[],"outputs":[{"name":"result","type":"uint256","internalType":"uint256"}],"stateMutability":"pure"}],"bytecode":{"object":"0x608060405234801561000f575f80fd5b506101bb8061001d5f395ff3fe608060405234801561000f575f80fd5b5060043610610034575f3560e01c80631d92c26d14610038578063f6160de214610056575b5f80fd5b610040610074565b60405161004d91906100c5565b60405180910390f35b61005e61007a565b60405161006b91906100c5565b60405180910390f35b61064081565b5f805b6106408110156100a957600182610094919061010b565b915080806100a19061013e565b91505061007d565b5090565b5f819050919050565b6100bf816100ad565b82525050565b5f6020820190506100d85f8301846100b6565b92915050565b7f4e487b71000000000000000000000000000000000000000000000000000000005f52601160045260245ffd5b5f610115826100ad565b9150610120836100ad565b9250828201905080821115610138576101376100de565b5b92915050565b5f610148826100ad565b91507fffffffffffffffffffffffffffffffffffffffffffffffffffffffffffffffff820361017a576101796100de565b5b60018201905091905056fea2646970667358221220c1653c589d704e5afdf9415df2b9a0c157d17f3229bfe83d5bf6d70ea3dc6ed564736f6c63430008140033","linkReferences":{}},"methodIdentifiers":{"MAX_ITERATIONS()":"1d92c26d","performCostlyOperation()":"f6160de2"},"id":9}