{"abi":[{"type":"fallback","stateMutability":"payable"},{"type":"receive","stateMutability":"payable"},{"type":"function","name":"deposit","inputs":[],"outputs":[],"stateMutability":"payable"},{"type":"function","name":"withdraw","inputs":[],"outputs":[],"stateMutability":"nonpayable"}],"bytecode":{"object":"0x608060405234801561000f575f80fd5b5061049f8061001d5f395ff3fe60806040526004361061002c575f3560e01c80633ccfd60b1461006e578063d0e30db01461008457610033565b3661003357005b6040517f08c379a0000000000000000000000000000000000000000000000000000000008152600401610065906102d1565b60405180910390fd5b348015610079575f80fd5b5061008261008e565b005b61008c6101fd565b005b5f805f3373ffffffffffffffffffffffffffffffffffffffff1673ffffffffffffffffffffffffffffffffffffffff1681526020019081526020015f205490505f8111610110576040517f08c379a000000000000000000000000000000000000000000000000000000000815260040161010790610339565b60405180910390fd5b5f805f3373ffffffffffffffffffffffffffffffffffffffff1673ffffffffffffffffffffffffffffffffffffffff1681526020019081526020015f20819055505f3373ffffffffffffffffffffffffffffffffffffffff168260405161017690610384565b5f6040518083038185875af1925050503d805f81146101b0576040519150601f19603f3d011682016040523d82523d5f602084013e6101b5565b606091505b50509050806101f9576040517f08c379a00000000000000000000000000000000000000000000000000000000081526004016101f0906103e2565b60405180910390fd5b5050565b345f803373ffffffffffffffffffffffffffffffffffffffff1673ffffffffffffffffffffffffffffffffffffffff1681526020019081526020015f205f8282546102489190610436565b92505081905550565b5f82825260208201905092915050565b7f457374612066756e6369266f61637574653b6e206e6f206573742661616375745f8201527f653b20686162696c697461646120706172612072656369626972207061676f73602082015250565b5f6102bb604083610251565b91506102c682610261565b604082019050919050565b5f6020820190508181035f8301526102e8816102af565b9050919050565b7f53616c646f20696e737566696369656e746500000000000000000000000000005f82015250565b5f610323601283610251565b915061032e826102ef565b602082019050919050565b5f6020820190508181035f83015261035081610317565b9050919050565b5f81905092915050565b50565b5f61036f5f83610357565b915061037a82610361565b5f82019050919050565b5f61038e82610364565b9150819050919050565b7f5472616e73666572656e6369612066616c6c69646100000000000000000000005f82015250565b5f6103cc601583610251565b91506103d782610398565b602082019050919050565b5f6020820190508181035f8301526103f9816103c0565b9050919050565b5f819050919050565b7f4e487b71000000000000000000000000000000000000000000000000000000005f52601160045260245ffd5b5f61044082610400565b915061044b83610400565b925082820190508082111561046357610462610409565b5b9291505056fea26469706673582212209e274a60891dd8d200f47d210ba0df656d6f84987979cecea2ec50377dbb2a2264736f6c63430008140033","linkReferences":{}},"methodIdentifiers":{"deposit()":"d0e30db0","withdraw()":"3ccfd60b"},"id":3}