{
	"src/SupplyChainTracker.sol": {
		"SupplyChainTracker": {
			"abi": [
				{
					"inputs": [],
					"stateMutability": "nonpayable",
					"type": "constructor"
				},
				{
					"inputs": [],
					"name": "ReentrancyGuardReentrantCall",
					"type": "error"
				},
				{
					"anonymous": false,
					"inputs": [
						{
							"indexed": true,
							"internalType": "uint256",
							"name": "tokenId",
							"type": "uint256"
						},
						{
							"indexed": true,
							"internalType": "address",
							"name": "creator",
							"type": "address"
						},
						{
							"indexed": false,
							"internalType": "string",
							"name": "name",
							"type": "string"
						},
						{
							"indexed": false,
							"internalType": "uint256",
							"name": "totalSupply",
							"type": "uint256"
						}
					],
					"name": "TokenCreated",
					"type": "event"
				},
				{
					"anonymous": false,
					"inputs": [
						{
							"indexed": true,
							"internalType": "uint256",
							"name": "transferId",
							"type": "uint256"
						}
					],
					"name": "TransferAccepted",
					"type": "event"
				},
				{
					"anonymous": false,
					"inputs": [
						{
							"indexed": true,
							"internalType": "uint256",
							"name": "transferId",
							"type": "uint256"
						}
					],
					"name": "TransferRejected",
					"type": "event"
				},
				{
					"anonymous": false,
					"inputs": [
						{
							"indexed": true,
							"internalType": "uint256",
							"name": "transferId",
							"type": "uint256"
						},
						{
							"indexed": true,
							"internalType": "address",
							"name": "from",
							"type": "address"
						},
						{
							"indexed": true,
							"internalType": "address",
							"name": "to",
							"type": "address"
						},
						{
							"indexed": false,
							"internalType": "uint256",
							"name": "tokenId",
							"type": "uint256"
						},
						{
							"indexed": false,
							"internalType": "uint256",
							"name": "amount",
							"type": "uint256"
						}
					],
					"name": "TransferRequested",
					"type": "event"
				},
				{
					"anonymous": false,
					"inputs": [
						{
							"indexed": true,
							"internalType": "address",
							"name": "user",
							"type": "address"
						},
						{
							"indexed": false,
							"internalType": "bytes32",
							"name": "role",
							"type": "bytes32"
						}
					],
					"name": "UserRoleRequested",
					"type": "event"
				},
				{
					"anonymous": false,
					"inputs": [
						{
							"indexed": true,
							"internalType": "address",
							"name": "user",
							"type": "address"
						},
						{
							"indexed": false,
							"internalType": "enum SupplyChainTracker.UserStatus",
							"name": "status",
							"type": "uint8"
						}
					],
					"name": "UserStatusChanged",
					"type": "event"
				},
				{
					"inputs": [
						{
							"internalType": "uint256",
							"name": "transferId",
							"type": "uint256"
						}
					],
					"name": "acceptTransfer",
					"outputs": [],
					"stateMutability": "nonpayable",
					"type": "function"
				},
				{
					"inputs": [
						{
							"internalType": "address",
							"name": "",
							"type": "address"
						}
					],
					"name": "addressToUserId",
					"outputs": [
						{
							"internalType": "uint256",
							"name": "",
							"type": "uint256"
						}
					],
					"stateMutability": "view",
					"type": "function"
				},
				{
					"inputs": [],
					"name": "admin",
					"outputs": [
						{
							"internalType": "address",
							"name": "",
							"type": "address"
						}
					],
					"stateMutability": "view",
					"type": "function"
				},
				{
					"inputs": [
						{
							"internalType": "address",
							"name": "userAddress",
							"type": "address"
						},
						{
							"internalType": "enum SupplyChainTracker.UserStatus",
							"name": "newStatus",
							"type": "uint8"
						}
					],
					"name": "changeStatusUser",
					"outputs": [],
					"stateMutability": "nonpayable",
					"type": "function"
				},
				{
					"inputs": [
						{
							"internalType": "string",
							"name": "name",
							"type": "string"
						},
						{
							"internalType": "uint256",
							"name": "totalSupply",
							"type": "uint256"
						},
						{
							"internalType": "string",
							"name": "features",
							"type": "string"
						},
						{
							"internalType": "uint256",
							"name": "parentId",
							"type": "uint256"
						}
					],
					"name": "createToken",
					"outputs": [],
					"stateMutability": "nonpayable",
					"type": "function"
				},
				{
					"inputs": [
						{
							"internalType": "uint256",
							"name": "tokenId",
							"type": "uint256"
						}
					],
					"name": "getToken",
					"outputs": [
						{
							"internalType": "uint256",
							"name": "id",
							"type": "uint256"
						},
						{
							"internalType": "address",
							"name": "creator",
							"type": "address"
						},
						{
							"internalType": "string",
							"name": "name",
							"type": "string"
						},
						{
							"internalType": "uint256",
							"name": "totalSupply",
							"type": "uint256"
						},
						{
							"internalType": "string",
							"name": "features",
							"type": "string"
						},
						{
							"internalType": "uint256",
							"name": "parentId",
							"type": "uint256"
						},
						{
							"internalType": "uint256",
							"name": "dateCreated",
							"type": "uint256"
						},
						{
							"internalType": "uint256",
							"name": "balance",
							"type": "uint256"
						}
					],
					"stateMutability": "view",
					"type": "function"
				},
				{
					"inputs": [
						{
							"internalType": "uint256",
							"name": "tokenId",
							"type": "uint256"
						},
						{
							"internalType": "address",
							"name": "user",
							"type": "address"
						}
					],
					"name": "getTokenBalance",
					"outputs": [
						{
							"internalType": "uint256",
							"name": "",
							"type": "uint256"
						}
					],
					"stateMutability": "view",
					"type": "function"
				},
				{
					"inputs": [
						{
							"internalType": "uint256",
							"name": "transferId",
							"type": "uint256"
						}
					],
					"name": "getTransfer",
					"outputs": [
						{
							"components": [
								{
									"internalType": "uint256",
									"name": "id",
									"type": "uint256"
								},
								{
									"internalType": "address",
									"name": "from",
									"type": "address"
								},
								{
									"internalType": "address",
									"name": "to",
									"type": "address"
								},
								{
									"internalType": "uint256",
									"name": "tokenId",
									"type": "uint256"
								},
								{
									"internalType": "uint256",
									"name": "dateCreated",
									"type": "uint256"
								},
								{
									"internalType": "uint256",
									"name": "amount",
									"type": "uint256"
								},
								{
									"internalType": "enum SupplyChainTracker.TransferStatus",
									"name": "status",
									"type": "uint8"
								}
							],
							"internalType": "struct SupplyChainTracker.Transfer",
							"name": "",
							"type": "tuple"
						}
					],
					"stateMutability": "view",
					"type": "function"
				},
				{
					"inputs": [
						{
							"internalType": "address",
							"name": "userAddress",
							"type": "address"
						}
					],
					"name": "getUserInfo",
					"outputs": [
						{
							"components": [
								{
									"internalType": "uint256",
									"name": "id",
									"type": "uint256"
								},
								{
									"internalType": "address",
									"name": "userAddress",
									"type": "address"
								},
								{
									"internalType": "bytes32",
									"name": "role",
									"type": "bytes32"
								},
								{
									"internalType": "enum SupplyChainTracker.UserStatus",
									"name": "status",
									"type": "uint8"
								}
							],
							"internalType": "struct SupplyChainTracker.User",
							"name": "",
							"type": "tuple"
						}
					],
					"stateMutability": "view",
					"type": "function"
				},
				{
					"inputs": [
						{
							"internalType": "address",
							"name": "user",
							"type": "address"
						}
					],
					"name": "getUserTokens",
					"outputs": [
						{
							"internalType": "uint256[]",
							"name": "",
							"type": "uint256[]"
						}
					],
					"stateMutability": "view",
					"type": "function"
				},
				{
					"inputs": [
						{
							"internalType": "address",
							"name": "user",
							"type": "address"
						}
					],
					"name": "getUserTransfers",
					"outputs": [
						{
							"internalType": "uint256[]",
							"name": "",
							"type": "uint256[]"
						}
					],
					"stateMutability": "view",
					"type": "function"
				},
				{
					"inputs": [],
					"name": "nextTokenId",
					"outputs": [
						{
							"internalType": "uint256",
							"name": "",
							"type": "uint256"
						}
					],
					"stateMutability": "view",
					"type": "function"
				},
				{
					"inputs": [],
					"name": "nextTransferId",
					"outputs": [
						{
							"internalType": "uint256",
							"name": "",
							"type": "uint256"
						}
					],
					"stateMutability": "view",
					"type": "function"
				},
				{
					"inputs": [],
					"name": "nextUserId",
					"outputs": [
						{
							"internalType": "uint256",
							"name": "",
							"type": "uint256"
						}
					],
					"stateMutability": "view",
					"type": "function"
				},
				{
					"inputs": [
						{
							"internalType": "uint256",
							"name": "transferId",
							"type": "uint256"
						}
					],
					"name": "rejectTransfer",
					"outputs": [],
					"stateMutability": "nonpayable",
					"type": "function"
				},
				{
					"inputs": [
						{
							"internalType": "bytes32",
							"name": "role",
							"type": "bytes32"
						}
					],
					"name": "requestUserRole",
					"outputs": [],
					"stateMutability": "nonpayable",
					"type": "function"
				},
				{
					"inputs": [
						{
							"internalType": "uint256",
							"name": "",
							"type": "uint256"
						}
					],
					"name": "tokens",
					"outputs": [
						{
							"internalType": "uint256",
							"name": "id",
							"type": "uint256"
						},
						{
							"internalType": "address",
							"name": "creator",
							"type": "address"
						},
						{
							"internalType": "string",
							"name": "name",
							"type": "string"
						},
						{
							"internalType": "uint256",
							"name": "totalSupply",
							"type": "uint256"
						},
						{
							"internalType": "string",
							"name": "features",
							"type": "string"
						},
						{
							"internalType": "uint256",
							"name": "parentId",
							"type": "uint256"
						},
						{
							"internalType": "uint256",
							"name": "dateCreated",
							"type": "uint256"
						}
					],
					"stateMutability": "view",
					"type": "function"
				},
				{
					"inputs": [
						{
							"internalType": "address",
							"name": "to",
							"type": "address"
						},
						{
							"internalType": "uint256",
							"name": "tokenId",
							"type": "uint256"
						},
						{
							"internalType": "uint256",
							"name": "amount",
							"type": "uint256"
						}
					],
					"name": "transfer",
					"outputs": [],
					"stateMutability": "nonpayable",
					"type": "function"
				},
				{
					"inputs": [
						{
							"internalType": "uint256",
							"name": "",
							"type": "uint256"
						}
					],
					"name": "transfers",
					"outputs": [
						{
							"internalType": "uint256",
							"name": "id",
							"type": "uint256"
						},
						{
							"internalType": "address",
							"name": "from",
							"type": "address"
						},
						{
							"internalType": "address",
							"name": "to",
							"type": "address"
						},
						{
							"internalType": "uint256",
							"name": "tokenId",
							"type": "uint256"
						},
						{
							"internalType": "uint256",
							"name": "dateCreated",
							"type": "uint256"
						},
						{
							"internalType": "uint256",
							"name": "amount",
							"type": "uint256"
						},
						{
							"internalType": "enum SupplyChainTracker.TransferStatus",
							"name": "status",
							"type": "uint8"
						}
					],
					"stateMutability": "view",
					"type": "function"
				},
				{
					"inputs": [
						{
							"internalType": "uint256",
							"name": "",
							"type": "uint256"
						}
					],
					"name": "users",
					"outputs": [
						{
							"internalType": "uint256",
							"name": "id",
							"type": "uint256"
						},
						{
							"internalType": "address",
							"name": "userAddress",
							"type": "address"
						},
						{
							"internalType": "bytes32",
							"name": "role",
							"type": "bytes32"
						},
						{
							"internalType": "enum SupplyChainTracker.UserStatus",
							"name": "status",
							"type": "uint8"
						}
					],
					"stateMutability": "view",
					"type": "function"
				}
			],
			"devdoc": {
				"errors": {
					"ReentrancyGuardReentrantCall()": [
						{
							"details": "Unauthorized reentrant call."
						}
					]
				},
				"kind": "dev",
				"methods": {},
				"version": 1
			},
			"evm": {
				"assembly": "    /* \"src/SupplyChainTracker.sol\":356:9483  contract SupplyChainTracker is ReentrancyGuard {... */\n  mstore(0x40, 0xa0)\n    /* \"src/SupplyChainTracker.sol\":1513:1514  1 */\n  0x01\n    /* \"src/SupplyChainTracker.sol\":1484:1514  uint256 public nextTokenId = 1 */\n  0x00\n  sstore\n    /* \"src/SupplyChainTracker.sol\":1552:1553  1 */\n  0x01\n    /* \"src/SupplyChainTracker.sol\":1520:1553  uint256 public nextTransferId = 1 */\n  dup1\n  sstore\n    /* \"src/SupplyChainTracker.sol\":1587:1588  1 */\n  0x01\n    /* \"src/SupplyChainTracker.sol\":1559:1588  uint256 public nextUserId = 1 */\n  0x02\n  sstore\n    /* \"src/SupplyChainTracker.sol\":2621:2670  constructor() {... */\n  callvalue\n  dup1\n  iszero\n  tag_1\n  jumpi\n  revert(0x00, 0x00)\ntag_1:\n  pop\n    /* \"@openzeppelin/contracts/utils/ReentrancyGuard.sol\":2365:2366  1 */\n  0x01\n    /* \"@openzeppelin/contracts/utils/ReentrancyGuard.sol\":2539:2585  _reentrancyGuardStorageSlot().getUint256Slot() */\n  tag_5\n    /* \"@openzeppelin/contracts/utils/ReentrancyGuard.sol\":2539:2568  _reentrancyGuardStorageSlot() */\n  tag_6\n    /* \"@openzeppelin/contracts/utils/ReentrancyGuard.sol\":2539:2566  _reentrancyGuardStorageSlot */\n  shl(0x20, tag_7)\n    /* \"@openzeppelin/contracts/utils/ReentrancyGuard.sol\":2539:2568  _reentrancyGuardStorageSlot() */\n  0x20\n  shr\n  jump\t// in\ntag_6:\n    /* \"@openzeppelin/contracts/utils/ReentrancyGuard.sol\":2539:2583  _reentrancyGuardStorageSlot().getUint256Slot */\n  shl(0x20, tag_8)\n    /* \"@openzeppelin/contracts/utils/ReentrancyGuard.sol\":2539:2585  _reentrancyGuardStorageSlot().getUint256Slot() */\n  0x20\n  shr\n  jump\t// in\ntag_5:\n    /* \"@openzeppelin/contracts/utils/ReentrancyGuard.sol\":2539:2591  _reentrancyGuardStorageSlot().getUint256Slot().value */\n  0x00\n  add\n    /* \"@openzeppelin/contracts/utils/ReentrancyGuard.sol\":2539:2605  _reentrancyGuardStorageSlot().getUint256Slot().value = NOT_ENTERED */\n  dup2\n  swap1\n  sstore\n  pop\n    /* \"src/SupplyChainTracker.sol\":2653:2663  msg.sender */\n  caller\n    /* \"src/SupplyChainTracker.sol\":2645:2663  admin = msg.sender */\n  0xffffffffffffffffffffffffffffffffffffffff\n  and\n  0x80\n  dup2\n  0xffffffffffffffffffffffffffffffffffffffff\n  and\n  dup2\n  mstore\n  pop\n  pop\n    /* \"src/SupplyChainTracker.sol\":356:9483  contract SupplyChainTracker is ReentrancyGuard {... */\n  jump(tag_10)\n    /* \"@openzeppelin/contracts/utils/ReentrancyGuard.sol\":4636:4763  function _reentrancyGuardStorageSlot() internal pure virtual returns (bytes32) {... */\ntag_7:\n    /* \"@openzeppelin/contracts/utils/ReentrancyGuard.sol\":4706:4713  bytes32 */\n  0x00\n    /* \"@openzeppelin/contracts/utils/ReentrancyGuard.sol\":1505:1571  0x9b779b17422d0df92223018b32b4d1fa46e071723d6817e2486d003becc55f00 */\n  0x9b779b17422d0df92223018b32b4d1fa46e071723d6817e2486d003becc55f00\n    /* \"@openzeppelin/contracts/utils/ReentrancyGuard.sol\":4732:4756  REENTRANCY_GUARD_STORAGE */\n  0x00\n  shl\n    /* \"@openzeppelin/contracts/utils/ReentrancyGuard.sol\":4725:4756  return REENTRANCY_GUARD_STORAGE */\n  swap1\n  pop\n    /* \"@openzeppelin/contracts/utils/ReentrancyGuard.sol\":4636:4763  function _reentrancyGuardStorageSlot() internal pure virtual returns (bytes32) {... */\n  swap1\n  jump\t// out\n    /* \"@openzeppelin/contracts/utils/StorageSlot.sol\":2679:2842  function getUint256Slot(bytes32 slot) internal pure returns (Uint256Slot storage r) {... */\ntag_8:\n    /* \"@openzeppelin/contracts/utils/StorageSlot.sol\":2740:2761  Uint256Slot storage r */\n  0x00\n    /* \"@openzeppelin/contracts/utils/StorageSlot.sol\":2822:2826  slot */\n  dup2\n    /* \"@openzeppelin/contracts/utils/StorageSlot.sol\":2812:2826  r.slot := slot */\n  swap1\n  pop\n    /* \"@openzeppelin/contracts/utils/StorageSlot.sol\":2679:2842  function getUint256Slot(bytes32 slot) internal pure returns (Uint256Slot storage r) {... */\n  swap2\n  swap1\n  pop\n  jump\t// out\n    /* \"src/SupplyChainTracker.sol\":356:9483  contract SupplyChainTracker is ReentrancyGuard {... */\ntag_10:\n  mload(0x80)\n  codecopy(0x00, dataOffset(sub_0), dataSize(sub_0))\n  0x00\n  assignImmutable(\"0x7aec2e6420b6fcb778a66c2b9d8fa18a316e494bda11ec5e5a11deee861d114c\")\n  return(0x00, dataSize(sub_0))\nstop\n\nsub_0: assembly {\n        /* \"src/SupplyChainTracker.sol\":356:9483  contract SupplyChainTracker is ReentrancyGuard {... */\n      mstore(0x40, 0x80)\n      callvalue\n      dup1\n      iszero\n      tag_1\n      jumpi\n      revert(0x00, 0x00)\n    tag_1:\n      pop\n      jumpi(tag_2, lt(calldatasize, 0x04))\n      shr(0xe0, calldataload(0x00))\n      dup1\n      0x8782dc00\n      gt\n      tag_23\n      jumpi\n      dup1\n      0xc16fe907\n      gt\n      tag_24\n      jumpi\n      dup1\n      0xc16fe907\n      eq\n      tag_18\n      jumpi\n      dup1\n      0xd67b2d08\n      eq\n      tag_19\n      jumpi\n      dup1\n      0xe4b50cb8\n      eq\n      tag_20\n      jumpi\n      dup1\n      0xef57e2d2\n      eq\n      tag_21\n      jumpi\n      dup1\n      0xf851a440\n      eq\n      tag_22\n      jumpi\n      jump(tag_2)\n    tag_24:\n      dup1\n      0x8782dc00\n      eq\n      tag_13\n      jumpi\n      dup1\n      0x9377d711\n      eq\n      tag_14\n      jumpi\n      dup1\n      0xa1e6a255\n      eq\n      tag_15\n      jumpi\n      dup1\n      0xb5ffbbcc\n      eq\n      tag_16\n      jumpi\n      dup1\n      0xb85b381b\n      eq\n      tag_17\n      jumpi\n      jump(tag_2)\n    tag_23:\n      dup1\n      0x49217ca4\n      gt\n      tag_25\n      jumpi\n      dup1\n      0x49217ca4\n      eq\n      tag_8\n      jumpi\n      dup1\n      0x4f64b2be\n      eq\n      tag_9\n      jumpi\n      dup1\n      0x519dc8d2\n      eq\n      tag_10\n      jumpi\n      dup1\n      0x6386c1c7\n      eq\n      tag_11\n      jumpi\n      dup1\n      0x75794a3c\n      eq\n      tag_12\n      jumpi\n      jump(tag_2)\n    tag_25:\n      dup1\n      0x095bcdb6\n      eq\n      tag_3\n      jumpi\n      dup1\n      0x12effc32\n      eq\n      tag_4\n      jumpi\n      dup1\n      0x274fae7c\n      eq\n      tag_5\n      jumpi\n      dup1\n      0x335d3410\n      eq\n      tag_6\n      jumpi\n      dup1\n      0x365b98b2\n      eq\n      tag_7\n      jumpi\n    tag_2:\n      revert(0x00, 0x00)\n        /* \"src/SupplyChainTracker.sol\":5456:6697  function transfer(address to, uint256 tokenId, uint256 amount) public onlyApprovedUser nonReentrant {... */\n    tag_3:\n      tag_26\n      0x04\n      dup1\n      calldatasize\n      sub\n      dup2\n      add\n      swap1\n      tag_27\n      swap2\n      swap1\n      tag_28\n      jump\t// in\n    tag_27:\n      tag_29\n      jump\t// in\n    tag_26:\n      stop\n        /* \"src/SupplyChainTracker.sol\":7341:7793  function rejectTransfer(uint256 transferId) public nonReentrant {... */\n    tag_4:\n      tag_30\n      0x04\n      dup1\n      calldatasize\n      sub\n      dup2\n      add\n      swap1\n      tag_31\n      swap2\n      swap1\n      tag_32\n      jump\t// in\n    tag_31:\n      tag_33\n      jump\t// in\n    tag_30:\n      stop\n        /* \"src/SupplyChainTracker.sol\":6833:7335  function acceptTransfer(uint256 transferId) public onlyApprovedUser {... */\n    tag_5:\n      tag_34\n      0x04\n      dup1\n      calldatasize\n      sub\n      dup2\n      add\n      swap1\n      tag_35\n      swap2\n      swap1\n      tag_32\n      jump\t// in\n    tag_35:\n      tag_36\n      jump\t// in\n    tag_34:\n      stop\n        /* \"src/SupplyChainTracker.sol\":8922:9481  function getUserTransfers(address user) public view returns (uint256[] memory) {... */\n    tag_6:\n      tag_37\n      0x04\n      dup1\n      calldatasize\n      sub\n      dup2\n      add\n      swap1\n      tag_38\n      swap2\n      swap1\n      tag_39\n      jump\t// in\n    tag_38:\n      tag_40\n      jump\t// in\n    tag_37:\n      mload(0x40)\n      tag_41\n      swap2\n      swap1\n      tag_42\n      jump\t// in\n    tag_41:\n      mload(0x40)\n      dup1\n      swap2\n      sub\n      swap1\n      return\n        /* \"src/SupplyChainTracker.sol\":1691:1728  mapping(uint256 => User) public users */\n    tag_7:\n      tag_43\n      0x04\n      dup1\n      calldatasize\n      sub\n      dup2\n      add\n      swap1\n      tag_44\n      swap2\n      swap1\n      tag_32\n      jump\t// in\n    tag_44:\n      tag_45\n      jump\t// in\n    tag_43:\n      mload(0x40)\n      tag_46\n      swap5\n      swap4\n      swap3\n      swap2\n      swap1\n      tag_47\n      jump\t// in\n    tag_46:\n      mload(0x40)\n      dup1\n      swap2\n      sub\n      swap1\n      return\n        /* \"src/SupplyChainTracker.sol\":2707:3396  function requestUserRole(bytes32 role) public {... */\n    tag_8:\n      tag_48\n      0x04\n      dup1\n      calldatasize\n      sub\n      dup2\n      add\n      swap1\n      tag_49\n      swap2\n      swap1\n      tag_50\n      jump\t// in\n    tag_49:\n      tag_51\n      jump\t// in\n    tag_48:\n      stop\n        /* \"src/SupplyChainTracker.sol\":1595:1634  mapping(uint256 => Token) public tokens */\n    tag_9:\n      tag_52\n      0x04\n      dup1\n      calldatasize\n      sub\n      dup2\n      add\n      swap1\n      tag_53\n      swap2\n      swap1\n      tag_32\n      jump\t// in\n    tag_53:\n      tag_54\n      jump\t// in\n    tag_52:\n      mload(0x40)\n      tag_55\n      swap8\n      swap7\n      swap6\n      swap5\n      swap4\n      swap3\n      swap2\n      swap1\n      tag_56\n      jump\t// in\n    tag_55:\n      mload(0x40)\n      dup1\n      swap2\n      sub\n      swap1\n      return\n        /* \"src/SupplyChainTracker.sol\":8299:8916  function getUserTokens(address user) public view returns (uint256[] memory) {... */\n    tag_10:\n      tag_57\n      0x04\n      dup1\n      calldatasize\n      sub\n      dup2\n      add\n      swap1\n      tag_58\n      swap2\n      swap1\n      tag_39\n      jump\t// in\n    tag_58:\n      tag_59\n      jump\t// in\n    tag_57:\n      mload(0x40)\n      tag_60\n      swap2\n      swap1\n      tag_42\n      jump\t// in\n    tag_60:\n      mload(0x40)\n      dup1\n      swap2\n      sub\n      swap1\n      return\n        /* \"src/SupplyChainTracker.sol\":3702:3931  function getUserInfo(address userAddress) public view returns (User memory) {... */\n    tag_11:\n      tag_61\n      0x04\n      dup1\n      calldatasize\n      sub\n      dup2\n      add\n      swap1\n      tag_62\n      swap2\n      swap1\n      tag_39\n      jump\t// in\n    tag_62:\n      tag_63\n      jump\t// in\n    tag_61:\n      mload(0x40)\n      tag_64\n      swap2\n      swap1\n      tag_65\n      jump\t// in\n    tag_64:\n      mload(0x40)\n      dup1\n      swap2\n      sub\n      swap1\n      return\n        /* \"src/SupplyChainTracker.sol\":1484:1514  uint256 public nextTokenId = 1 */\n    tag_12:\n      tag_66\n      tag_67\n      jump\t// in\n    tag_66:\n      mload(0x40)\n      tag_68\n      swap2\n      swap1\n      tag_69\n      jump\t// in\n    tag_68:\n      mload(0x40)\n      dup1\n      swap2\n      sub\n      swap1\n      return\n        /* \"src/SupplyChainTracker.sol\":3402:3696  function changeStatusUser(address userAddress, UserStatus newStatus) public onlyAdmin {... */\n    tag_13:\n      tag_70\n      0x04\n      dup1\n      calldatasize\n      sub\n      dup2\n      add\n      swap1\n      tag_71\n      swap2\n      swap1\n      tag_72\n      jump\t// in\n    tag_71:\n      tag_73\n      jump\t// in\n    tag_70:\n      stop\n        /* \"src/SupplyChainTracker.sol\":1640:1685  mapping(uint256 => Transfer) public transfers */\n    tag_14:\n      tag_74\n      0x04\n      dup1\n      calldatasize\n      sub\n      dup2\n      add\n      swap1\n      tag_75\n      swap2\n      swap1\n      tag_32\n      jump\t// in\n    tag_75:\n      tag_76\n      jump\t// in\n    tag_74:\n      mload(0x40)\n      tag_77\n      swap8\n      swap7\n      swap6\n      swap5\n      swap4\n      swap3\n      swap2\n      swap1\n      tag_78\n      jump\t// in\n    tag_77:\n      mload(0x40)\n      dup1\n      swap2\n      sub\n      swap1\n      return\n        /* \"src/SupplyChainTracker.sol\":1559:1588  uint256 public nextUserId = 1 */\n    tag_15:\n      tag_79\n      tag_80\n      jump\t// in\n    tag_79:\n      mload(0x40)\n      tag_81\n      swap2\n      swap1\n      tag_69\n      jump\t// in\n    tag_81:\n      mload(0x40)\n      dup1\n      swap2\n      sub\n      swap1\n      return\n        /* \"src/SupplyChainTracker.sol\":1734:1784  mapping(address => uint256) public addressToUserId */\n    tag_16:\n      tag_82\n      0x04\n      dup1\n      calldatasize\n      sub\n      dup2\n      add\n      swap1\n      tag_83\n      swap2\n      swap1\n      tag_39\n      jump\t// in\n    tag_83:\n      tag_84\n      jump\t// in\n    tag_82:\n      mload(0x40)\n      tag_85\n      swap2\n      swap1\n      tag_69\n      jump\t// in\n    tag_85:\n      mload(0x40)\n      dup1\n      swap2\n      sub\n      swap1\n      return\n        /* \"src/SupplyChainTracker.sol\":1520:1553  uint256 public nextTransferId = 1 */\n    tag_17:\n      tag_86\n      tag_87\n      jump\t// in\n    tag_86:\n      mload(0x40)\n      tag_88\n      swap2\n      swap1\n      tag_69\n      jump\t// in\n    tag_88:\n      mload(0x40)\n      dup1\n      swap2\n      sub\n      swap1\n      return\n        /* \"src/SupplyChainTracker.sol\":6703:6827  function getTransfer(uint256 transferId) public view returns (Transfer memory) {... */\n    tag_18:\n      tag_89\n      0x04\n      dup1\n      calldatasize\n      sub\n      dup2\n      add\n      swap1\n      tag_90\n      swap2\n      swap1\n      tag_32\n      jump\t// in\n    tag_90:\n      tag_91\n      jump\t// in\n    tag_89:\n      mload(0x40)\n      tag_92\n      swap2\n      swap1\n      tag_93\n      jump\t// in\n    tag_92:\n      mload(0x40)\n      dup1\n      swap2\n      sub\n      swap1\n      return\n        /* \"src/SupplyChainTracker.sol\":3969:4648  function createToken(... */\n    tag_19:\n      tag_94\n      0x04\n      dup1\n      calldatasize\n      sub\n      dup2\n      add\n      swap1\n      tag_95\n      swap2\n      swap1\n      tag_96\n      jump\t// in\n    tag_95:\n      tag_97\n      jump\t// in\n    tag_94:\n      stop\n        /* \"src/SupplyChainTracker.sol\":4654:5241  function getToken(uint256 tokenId) public view returns (... */\n    tag_20:\n      tag_98\n      0x04\n      dup1\n      calldatasize\n      sub\n      dup2\n      add\n      swap1\n      tag_99\n      swap2\n      swap1\n      tag_32\n      jump\t// in\n    tag_99:\n      tag_100\n      jump\t// in\n    tag_98:\n      mload(0x40)\n      tag_101\n      swap9\n      swap8\n      swap7\n      swap6\n      swap5\n      swap4\n      swap3\n      swap2\n      swap1\n      tag_102\n      jump\t// in\n    tag_101:\n      mload(0x40)\n      dup1\n      swap2\n      sub\n      swap1\n      return\n        /* \"src/SupplyChainTracker.sol\":5247:5450  function getTokenBalance(uint256 tokenId, address user) public view returns (uint256) {... */\n    tag_21:\n      tag_103\n      0x04\n      dup1\n      calldatasize\n      sub\n      dup2\n      add\n      swap1\n      tag_104\n      swap2\n      swap1\n      tag_105\n      jump\t// in\n    tag_104:\n      tag_106\n      jump\t// in\n    tag_103:\n      mload(0x40)\n      tag_107\n      swap2\n      swap1\n      tag_69\n      jump\t// in\n    tag_107:\n      mload(0x40)\n      dup1\n      swap2\n      sub\n      swap1\n      return\n        /* \"src/SupplyChainTracker.sol\":1448:1478  address public immutable admin */\n    tag_22:\n      tag_108\n      tag_109\n      jump\t// in\n    tag_108:\n      mload(0x40)\n      tag_110\n      swap2\n      swap1\n      tag_111\n      jump\t// in\n    tag_110:\n      mload(0x40)\n      dup1\n      swap2\n      sub\n      swap1\n      return\n        /* \"src/SupplyChainTracker.sol\":5456:6697  function transfer(address to, uint256 tokenId, uint256 amount) public onlyApprovedUser nonReentrant {... */\n    tag_29:\n        /* \"src/SupplyChainTracker.sol\":2460:2474  uint256 userId */\n      0x00\n        /* \"src/SupplyChainTracker.sol\":2477:2492  addressToUserId */\n      0x06\n        /* \"src/SupplyChainTracker.sol\":2477:2504  addressToUserId[msg.sender] */\n      0x00\n        /* \"src/SupplyChainTracker.sol\":2493:2503  msg.sender */\n      caller\n        /* \"src/SupplyChainTracker.sol\":2477:2504  addressToUserId[msg.sender] */\n      0xffffffffffffffffffffffffffffffffffffffff\n      and\n      0xffffffffffffffffffffffffffffffffffffffff\n      and\n      dup2\n      mstore\n      0x20\n      add\n      swap1\n      dup2\n      mstore\n      0x20\n      add\n      0x00\n      keccak256\n      sload\n        /* \"src/SupplyChainTracker.sol\":2460:2504  uint256 userId = addressToUserId[msg.sender] */\n      swap1\n      pop\n        /* \"src/SupplyChainTracker.sol\":2532:2533  0 */\n      0x00\n        /* \"src/SupplyChainTracker.sol\":2522:2528  userId */\n      dup2\n        /* \"src/SupplyChainTracker.sol\":2522:2533  userId != 0 */\n      eq\n      iszero\n        /* \"src/SupplyChainTracker.sol\":2522:2580  userId != 0 && users[userId].status == UserStatus.Approved */\n      dup1\n      iszero\n      tag_113\n      jumpi\n      pop\n        /* \"src/SupplyChainTracker.sol\":2561:2580  UserStatus.Approved */\n      0x01\n        /* \"src/SupplyChainTracker.sol\":2537:2580  users[userId].status == UserStatus.Approved */\n      0x03\n      dup2\n      gt\n      iszero\n      tag_114\n      jumpi\n      tag_115\n      tag_116\n      jump\t// in\n    tag_115:\n    tag_114:\n        /* \"src/SupplyChainTracker.sol\":2537:2542  users */\n      0x05\n        /* \"src/SupplyChainTracker.sol\":2537:2550  users[userId] */\n      0x00\n        /* \"src/SupplyChainTracker.sol\":2543:2549  userId */\n      dup4\n        /* \"src/SupplyChainTracker.sol\":2537:2550  users[userId] */\n      dup2\n      mstore\n      0x20\n      add\n      swap1\n      dup2\n      mstore\n      0x20\n      add\n      0x00\n      keccak256\n        /* \"src/SupplyChainTracker.sol\":2537:2557  users[userId].status */\n      0x03\n      add\n      0x00\n      swap1\n      sload\n      swap1\n      0x0100\n      exp\n      swap1\n      div\n      0xff\n      and\n        /* \"src/SupplyChainTracker.sol\":2537:2580  users[userId].status == UserStatus.Approved */\n      0x03\n      dup2\n      gt\n      iszero\n      tag_117\n      jumpi\n      tag_118\n      tag_116\n      jump\t// in\n    tag_118:\n    tag_117:\n      eq\n        /* \"src/SupplyChainTracker.sol\":2522:2580  userId != 0 && users[userId].status == UserStatus.Approved */\n    tag_113:\n        /* \"src/SupplyChainTracker.sol\":2514:2597  require(userId != 0 && users[userId].status == UserStatus.Approved, \"Not approved\") */\n      tag_119\n      jumpi\n      mload(0x40)\n      0x08c379a000000000000000000000000000000000000000000000000000000000\n      dup2\n      mstore\n      0x04\n      add\n      tag_120\n      swap1\n      tag_121\n      jump\t// in\n    tag_120:\n      mload(0x40)\n      dup1\n      swap2\n      sub\n      swap1\n      revert\n    tag_119:\n        /* \"@openzeppelin/contracts/utils/ReentrancyGuard.sol\":3023:3044  _nonReentrantBefore() */\n      tag_123\n        /* \"@openzeppelin/contracts/utils/ReentrancyGuard.sol\":3023:3042  _nonReentrantBefore */\n      tag_124\n        /* \"@openzeppelin/contracts/utils/ReentrancyGuard.sol\":3023:3044  _nonReentrantBefore() */\n      jump\t// in\n    tag_123:\n        /* \"src/SupplyChainTracker.sol\":5588:5589  0 */\n      0x00\n        /* \"src/SupplyChainTracker.sol\":5574:5590  to != address(0) */\n      0xffffffffffffffffffffffffffffffffffffffff\n      and\n        /* \"src/SupplyChainTracker.sol\":5574:5576  to */\n      dup5\n        /* \"src/SupplyChainTracker.sol\":5574:5590  to != address(0) */\n      0xffffffffffffffffffffffffffffffffffffffff\n      and\n      eq\n      iszero\n        /* \"src/SupplyChainTracker.sol\":5574:5610  to != address(0) && to != msg.sender */\n      dup1\n      iszero\n      tag_126\n      jumpi\n      pop\n        /* \"src/SupplyChainTracker.sol\":5600:5610  msg.sender */\n      caller\n        /* \"src/SupplyChainTracker.sol\":5594:5610  to != msg.sender */\n      0xffffffffffffffffffffffffffffffffffffffff\n      and\n        /* \"src/SupplyChainTracker.sol\":5594:5596  to */\n      dup5\n        /* \"src/SupplyChainTracker.sol\":5594:5610  to != msg.sender */\n      0xffffffffffffffffffffffffffffffffffffffff\n      and\n      eq\n      iszero\n        /* \"src/SupplyChainTracker.sol\":5574:5610  to != address(0) && to != msg.sender */\n    tag_126:\n        /* \"src/SupplyChainTracker.sol\":5566:5632  require(to != address(0) && to != msg.sender, \"Invalid recipient\") */\n      tag_127\n      jumpi\n      mload(0x40)\n      0x08c379a000000000000000000000000000000000000000000000000000000000\n      dup2\n      mstore\n      0x04\n      add\n      tag_128\n      swap1\n      tag_129\n      jump\t// in\n    tag_128:\n      mload(0x40)\n      dup1\n      swap2\n      sub\n      swap1\n      revert\n    tag_127:\n        /* \"src/SupplyChainTracker.sol\":5659:5660  0 */\n      0x00\n        /* \"src/SupplyChainTracker.sol\":5650:5656  amount */\n      dup3\n        /* \"src/SupplyChainTracker.sol\":5650:5660  amount > 0 */\n      gt\n        /* \"src/SupplyChainTracker.sol\":5642:5683  require(amount > 0, \"Amount must be > 0\") */\n      tag_130\n      jumpi\n      mload(0x40)\n      0x08c379a000000000000000000000000000000000000000000000000000000000\n      dup2\n      mstore\n      0x04\n      add\n      tag_131\n      swap1\n      tag_132\n      jump\t// in\n    tag_131:\n      mload(0x40)\n      dup1\n      swap2\n      sub\n      swap1\n      revert\n    tag_130:\n        /* \"src/SupplyChainTracker.sol\":5711:5722  nextTokenId */\n      sload(0x00)\n        /* \"src/SupplyChainTracker.sol\":5701:5708  tokenId */\n      dup4\n        /* \"src/SupplyChainTracker.sol\":5701:5722  tokenId < nextTokenId */\n      lt\n        /* \"src/SupplyChainTracker.sol\":5693:5747  require(tokenId < nextTokenId, \"Token does not exist\") */\n      tag_133\n      jumpi\n      mload(0x40)\n      0x08c379a000000000000000000000000000000000000000000000000000000000\n      dup2\n      mstore\n      0x04\n      add\n      tag_134\n      swap1\n      tag_135\n      jump\t// in\n    tag_134:\n      mload(0x40)\n      dup1\n      swap2\n      sub\n      swap1\n      revert\n    tag_133:\n        /* \"src/SupplyChainTracker.sol\":5758:5772  uint256 userId */\n      0x00\n        /* \"src/SupplyChainTracker.sol\":5775:5790  addressToUserId */\n      0x06\n        /* \"src/SupplyChainTracker.sol\":5775:5802  addressToUserId[msg.sender] */\n      0x00\n        /* \"src/SupplyChainTracker.sol\":5791:5801  msg.sender */\n      caller\n        /* \"src/SupplyChainTracker.sol\":5775:5802  addressToUserId[msg.sender] */\n      0xffffffffffffffffffffffffffffffffffffffff\n      and\n      0xffffffffffffffffffffffffffffffffffffffff\n      and\n      dup2\n      mstore\n      0x20\n      add\n      swap1\n      dup2\n      mstore\n      0x20\n      add\n      0x00\n      keccak256\n      sload\n        /* \"src/SupplyChainTracker.sol\":5758:5802  uint256 userId = addressToUserId[msg.sender] */\n      swap1\n      pop\n        /* \"src/SupplyChainTracker.sol\":5812:5824  uint256 toId */\n      0x00\n        /* \"src/SupplyChainTracker.sol\":5827:5842  addressToUserId */\n      0x06\n        /* \"src/SupplyChainTracker.sol\":5827:5846  addressToUserId[to] */\n      0x00\n        /* \"src/SupplyChainTracker.sol\":5843:5845  to */\n      dup8\n        /* \"src/SupplyChainTracker.sol\":5827:5846  addressToUserId[to] */\n      0xffffffffffffffffffffffffffffffffffffffff\n      and\n      0xffffffffffffffffffffffffffffffffffffffff\n      and\n      dup2\n      mstore\n      0x20\n      add\n      swap1\n      dup2\n      mstore\n      0x20\n      add\n      0x00\n      keccak256\n      sload\n        /* \"src/SupplyChainTracker.sol\":5812:5846  uint256 toId = addressToUserId[to] */\n      swap1\n      pop\n        /* \"src/SupplyChainTracker.sol\":5872:5873  0 */\n      0x00\n        /* \"src/SupplyChainTracker.sol\":5864:5868  toId */\n      dup2\n        /* \"src/SupplyChainTracker.sol\":5864:5873  toId != 0 */\n      sub\n        /* \"src/SupplyChainTracker.sol\":5856:5902  require(toId != 0, \"Recipient not registered\") */\n      tag_136\n      jumpi\n      mload(0x40)\n      0x08c379a000000000000000000000000000000000000000000000000000000000\n      dup2\n      mstore\n      0x04\n      add\n      tag_137\n      swap1\n      tag_138\n      jump\t// in\n    tag_137:\n      mload(0x40)\n      dup1\n      swap2\n      sub\n      swap1\n      revert\n    tag_136:\n        /* \"src/SupplyChainTracker.sol\":5921:5952  _isConsumer(users[userId].role) */\n      tag_139\n        /* \"src/SupplyChainTracker.sol\":5933:5938  users */\n      0x05\n        /* \"src/SupplyChainTracker.sol\":5933:5946  users[userId] */\n      0x00\n        /* \"src/SupplyChainTracker.sol\":5939:5945  userId */\n      dup5\n        /* \"src/SupplyChainTracker.sol\":5933:5946  users[userId] */\n      dup2\n      mstore\n      0x20\n      add\n      swap1\n      dup2\n      mstore\n      0x20\n      add\n      0x00\n      keccak256\n        /* \"src/SupplyChainTracker.sol\":5933:5951  users[userId].role */\n      0x02\n      add\n      sload\n        /* \"src/SupplyChainTracker.sol\":5921:5932  _isConsumer */\n      tag_140\n        /* \"src/SupplyChainTracker.sol\":5921:5952  _isConsumer(users[userId].role) */\n      jump\t// in\n    tag_139:\n        /* \"src/SupplyChainTracker.sol\":5920:5952  !_isConsumer(users[userId].role) */\n      iszero\n        /* \"src/SupplyChainTracker.sol\":5912:5981  require(!_isConsumer(users[userId].role), \"Consumer cannot transfer\") */\n      tag_141\n      jumpi\n      mload(0x40)\n      0x08c379a000000000000000000000000000000000000000000000000000000000\n      dup2\n      mstore\n      0x04\n      add\n      tag_142\n      swap1\n      tag_143\n      jump\t// in\n    tag_142:\n      mload(0x40)\n      dup1\n      swap2\n      sub\n      swap1\n      revert\n    tag_141:\n        /* \"src/SupplyChainTracker.sol\":5999:6048  _isNextRole(users[userId].role, users[toId].role) */\n      tag_144\n        /* \"src/SupplyChainTracker.sol\":6011:6016  users */\n      0x05\n        /* \"src/SupplyChainTracker.sol\":6011:6024  users[userId] */\n      0x00\n        /* \"src/SupplyChainTracker.sol\":6017:6023  userId */\n      dup5\n        /* \"src/SupplyChainTracker.sol\":6011:6024  users[userId] */\n      dup2\n      mstore\n      0x20\n      add\n      swap1\n      dup2\n      mstore\n      0x20\n      add\n      0x00\n      keccak256\n        /* \"src/SupplyChainTracker.sol\":6011:6029  users[userId].role */\n      0x02\n      add\n      sload\n        /* \"src/SupplyChainTracker.sol\":6031:6036  users */\n      0x05\n        /* \"src/SupplyChainTracker.sol\":6031:6042  users[toId] */\n      0x00\n        /* \"src/SupplyChainTracker.sol\":6037:6041  toId */\n      dup5\n        /* \"src/SupplyChainTracker.sol\":6031:6042  users[toId] */\n      dup2\n      mstore\n      0x20\n      add\n      swap1\n      dup2\n      mstore\n      0x20\n      add\n      0x00\n      keccak256\n        /* \"src/SupplyChainTracker.sol\":6031:6047  users[toId].role */\n      0x02\n      add\n      sload\n        /* \"src/SupplyChainTracker.sol\":5999:6010  _isNextRole */\n      tag_145\n        /* \"src/SupplyChainTracker.sol\":5999:6048  _isNextRole(users[userId].role, users[toId].role) */\n      jump\t// in\n    tag_144:\n        /* \"src/SupplyChainTracker.sol\":5991:6076  require(_isNextRole(users[userId].role, users[toId].role), \"Invalid role transition\") */\n      tag_146\n      jumpi\n      mload(0x40)\n      0x08c379a000000000000000000000000000000000000000000000000000000000\n      dup2\n      mstore\n      0x04\n      add\n      tag_147\n      swap1\n      tag_148\n      jump\t// in\n    tag_147:\n      mload(0x40)\n      dup1\n      swap2\n      sub\n      swap1\n      revert\n    tag_146:\n        /* \"src/SupplyChainTracker.sol\":6087:6104  Token storage tkn */\n      0x00\n        /* \"src/SupplyChainTracker.sol\":6107:6113  tokens */\n      0x03\n        /* \"src/SupplyChainTracker.sol\":6107:6122  tokens[tokenId] */\n      0x00\n        /* \"src/SupplyChainTracker.sol\":6114:6121  tokenId */\n      dup8\n        /* \"src/SupplyChainTracker.sol\":6107:6122  tokens[tokenId] */\n      dup2\n      mstore\n      0x20\n      add\n      swap1\n      dup2\n      mstore\n      0x20\n      add\n      0x00\n      keccak256\n        /* \"src/SupplyChainTracker.sol\":6087:6122  Token storage tkn = tokens[tokenId] */\n      swap1\n      pop\n        /* \"src/SupplyChainTracker.sol\":6167:6173  amount */\n      dup5\n        /* \"src/SupplyChainTracker.sol\":6140:6143  tkn */\n      dup2\n        /* \"src/SupplyChainTracker.sol\":6140:6151  tkn.balance */\n      0x07\n      add\n        /* \"src/SupplyChainTracker.sol\":6140:6163  tkn.balance[msg.sender] */\n      0x00\n        /* \"src/SupplyChainTracker.sol\":6152:6162  msg.sender */\n      caller\n        /* \"src/SupplyChainTracker.sol\":6140:6163  tkn.balance[msg.sender] */\n      0xffffffffffffffffffffffffffffffffffffffff\n      and\n      0xffffffffffffffffffffffffffffffffffffffff\n      and\n      dup2\n      mstore\n      0x20\n      add\n      swap1\n      dup2\n      mstore\n      0x20\n      add\n      0x00\n      keccak256\n      sload\n        /* \"src/SupplyChainTracker.sol\":6140:6173  tkn.balance[msg.sender] >= amount */\n      lt\n      iszero\n        /* \"src/SupplyChainTracker.sol\":6132:6198  require(tkn.balance[msg.sender] >= amount, \"Insufficient balance\") */\n      tag_149\n      jumpi\n      mload(0x40)\n      0x08c379a000000000000000000000000000000000000000000000000000000000\n      dup2\n      mstore\n      0x04\n      add\n      tag_150\n      swap1\n      tag_151\n      jump\t// in\n    tag_150:\n      mload(0x40)\n      dup1\n      swap2\n      sub\n      swap1\n      revert\n    tag_149:\n        /* \"src/SupplyChainTracker.sol\":6236:6242  amount */\n      dup5\n        /* \"src/SupplyChainTracker.sol\":6209:6212  tkn */\n      dup2\n        /* \"src/SupplyChainTracker.sol\":6209:6220  tkn.balance */\n      0x07\n      add\n        /* \"src/SupplyChainTracker.sol\":6209:6232  tkn.balance[msg.sender] */\n      0x00\n        /* \"src/SupplyChainTracker.sol\":6221:6231  msg.sender */\n      caller\n        /* \"src/SupplyChainTracker.sol\":6209:6232  tkn.balance[msg.sender] */\n      0xffffffffffffffffffffffffffffffffffffffff\n      and\n      0xffffffffffffffffffffffffffffffffffffffff\n      and\n      dup2\n      mstore\n      0x20\n      add\n      swap1\n      dup2\n      mstore\n      0x20\n      add\n      0x00\n      keccak256\n      0x00\n        /* \"src/SupplyChainTracker.sol\":6209:6242  tkn.balance[msg.sender] -= amount */\n      dup3\n      dup3\n      sload\n      tag_152\n      swap2\n      swap1\n      tag_153\n      jump\t// in\n    tag_152:\n      swap3\n      pop\n      pop\n      dup2\n      swap1\n      sstore\n      pop\n        /* \"src/SupplyChainTracker.sol\":6271:6277  amount */\n      dup5\n        /* \"src/SupplyChainTracker.sol\":6252:6255  tkn */\n      dup2\n        /* \"src/SupplyChainTracker.sol\":6252:6263  tkn.balance */\n      0x07\n      add\n        /* \"src/SupplyChainTracker.sol\":6252:6267  tkn.balance[to] */\n      0x00\n        /* \"src/SupplyChainTracker.sol\":6264:6266  to */\n      dup10\n        /* \"src/SupplyChainTracker.sol\":6252:6267  tkn.balance[to] */\n      0xffffffffffffffffffffffffffffffffffffffff\n      and\n      0xffffffffffffffffffffffffffffffffffffffff\n      and\n      dup2\n      mstore\n      0x20\n      add\n      swap1\n      dup2\n      mstore\n      0x20\n      add\n      0x00\n      keccak256\n      0x00\n        /* \"src/SupplyChainTracker.sol\":6252:6277  tkn.balance[to] += amount */\n      dup3\n      dup3\n      sload\n      tag_154\n      swap2\n      swap1\n      tag_155\n      jump\t// in\n    tag_154:\n      swap3\n      pop\n      pop\n      dup2\n      swap1\n      sstore\n      pop\n        /* \"src/SupplyChainTracker.sol\":6288:6309  uint256 newTransferId */\n      0x00\n        /* \"src/SupplyChainTracker.sol\":6312:6326  nextTransferId */\n      0x01\n      0x00\n        /* \"src/SupplyChainTracker.sol\":6312:6328  nextTransferId++ */\n      dup2\n      sload\n      dup1\n      swap3\n      swap2\n      swap1\n      tag_156\n      swap1\n      tag_157\n      jump\t// in\n    tag_156:\n      swap2\n      swap1\n      pop\n      sstore\n        /* \"src/SupplyChainTracker.sol\":6288:6328  uint256 newTransferId = nextTransferId++ */\n      swap1\n      pop\n        /* \"src/SupplyChainTracker.sol\":6365:6610  Transfer({... */\n      mload(0x40)\n      dup1\n      0xe0\n      add\n      0x40\n      mstore\n      dup1\n        /* \"src/SupplyChainTracker.sol\":6392:6405  newTransferId */\n      dup3\n        /* \"src/SupplyChainTracker.sol\":6365:6610  Transfer({... */\n      dup2\n      mstore\n      0x20\n      add\n        /* \"src/SupplyChainTracker.sol\":6425:6435  msg.sender */\n      caller\n        /* \"src/SupplyChainTracker.sol\":6365:6610  Transfer({... */\n      0xffffffffffffffffffffffffffffffffffffffff\n      and\n      dup2\n      mstore\n      0x20\n      add\n        /* \"src/SupplyChainTracker.sol\":6453:6455  to */\n      dup10\n        /* \"src/SupplyChainTracker.sol\":6365:6610  Transfer({... */\n      0xffffffffffffffffffffffffffffffffffffffff\n      and\n      dup2\n      mstore\n      0x20\n      add\n        /* \"src/SupplyChainTracker.sol\":6478:6485  tokenId */\n      dup9\n        /* \"src/SupplyChainTracker.sol\":6365:6610  Transfer({... */\n      dup2\n      mstore\n      0x20\n      add\n        /* \"src/SupplyChainTracker.sol\":6512:6527  block.timestamp */\n      timestamp\n        /* \"src/SupplyChainTracker.sol\":6365:6610  Transfer({... */\n      dup2\n      mstore\n      0x20\n      add\n        /* \"src/SupplyChainTracker.sol\":6549:6555  amount */\n      dup8\n        /* \"src/SupplyChainTracker.sol\":6365:6610  Transfer({... */\n      dup2\n      mstore\n      0x20\n      add\n        /* \"src/SupplyChainTracker.sol\":6577:6599  TransferStatus.Pending */\n      0x00\n        /* \"src/SupplyChainTracker.sol\":6365:6610  Transfer({... */\n      0x02\n      dup2\n      gt\n      iszero\n      tag_158\n      jumpi\n      tag_159\n      tag_116\n      jump\t// in\n    tag_159:\n    tag_158:\n      dup2\n      mstore\n      pop\n        /* \"src/SupplyChainTracker.sol\":6338:6347  transfers */\n      0x04\n        /* \"src/SupplyChainTracker.sol\":6338:6362  transfers[newTransferId] */\n      0x00\n        /* \"src/SupplyChainTracker.sol\":6348:6361  newTransferId */\n      dup4\n        /* \"src/SupplyChainTracker.sol\":6338:6362  transfers[newTransferId] */\n      dup2\n      mstore\n      0x20\n      add\n      swap1\n      dup2\n      mstore\n      0x20\n      add\n      0x00\n      keccak256\n        /* \"src/SupplyChainTracker.sol\":6338:6610  transfers[newTransferId] = Transfer({... */\n      0x00\n      dup3\n      add\n      mload\n      dup2\n      0x00\n      add\n      sstore\n      0x20\n      dup3\n      add\n      mload\n      dup2\n      0x01\n      add\n      exp(0x0100, 0x00)\n      dup2\n      sload\n      dup2\n      0xffffffffffffffffffffffffffffffffffffffff\n      mul\n      not\n      and\n      swap1\n      dup4\n      0xffffffffffffffffffffffffffffffffffffffff\n      and\n      mul\n      or\n      swap1\n      sstore\n      pop\n      0x40\n      dup3\n      add\n      mload\n      dup2\n      0x02\n      add\n      exp(0x0100, 0x00)\n      dup2\n      sload\n      dup2\n      0xffffffffffffffffffffffffffffffffffffffff\n      mul\n      not\n      and\n      swap1\n      dup4\n      0xffffffffffffffffffffffffffffffffffffffff\n      and\n      mul\n      or\n      swap1\n      sstore\n      pop\n      0x60\n      dup3\n      add\n      mload\n      dup2\n      0x03\n      add\n      sstore\n      0x80\n      dup3\n      add\n      mload\n      dup2\n      0x04\n      add\n      sstore\n      0xa0\n      dup3\n      add\n      mload\n      dup2\n      0x05\n      add\n      sstore\n      0xc0\n      dup3\n      add\n      mload\n      dup2\n      0x06\n      add\n      exp(0x0100, 0x00)\n      dup2\n      sload\n      dup2\n      0xff\n      mul\n      not\n      and\n      swap1\n      dup4\n      0x02\n      dup2\n      gt\n      iszero\n      tag_160\n      jumpi\n      tag_161\n      tag_116\n      jump\t// in\n    tag_161:\n    tag_160:\n      mul\n      or\n      swap1\n      sstore\n      pop\n      swap1\n      pop\n      pop\n        /* \"src/SupplyChainTracker.sol\":6670:6672  to */\n      dup8\n        /* \"src/SupplyChainTracker.sol\":6625:6690  TransferRequested(newTransferId, msg.sender, to, tokenId, amount) */\n      0xffffffffffffffffffffffffffffffffffffffff\n      and\n        /* \"src/SupplyChainTracker.sol\":6658:6668  msg.sender */\n      caller\n        /* \"src/SupplyChainTracker.sol\":6625:6690  TransferRequested(newTransferId, msg.sender, to, tokenId, amount) */\n      0xffffffffffffffffffffffffffffffffffffffff\n      and\n        /* \"src/SupplyChainTracker.sol\":6643:6656  newTransferId */\n      dup3\n        /* \"src/SupplyChainTracker.sol\":6625:6690  TransferRequested(newTransferId, msg.sender, to, tokenId, amount) */\n      0xc8262dc04f8f56abc884e1f58ca17a373610558a6cebc5e927b9e1c4668e5fdf\n        /* \"src/SupplyChainTracker.sol\":6674:6681  tokenId */\n      dup11\n        /* \"src/SupplyChainTracker.sol\":6683:6689  amount */\n      dup11\n        /* \"src/SupplyChainTracker.sol\":6625:6690  TransferRequested(newTransferId, msg.sender, to, tokenId, amount) */\n      mload(0x40)\n      tag_162\n      swap3\n      swap2\n      swap1\n      tag_163\n      jump\t// in\n    tag_162:\n      mload(0x40)\n      dup1\n      swap2\n      sub\n      swap1\n      log4\n        /* \"src/SupplyChainTracker.sol\":5556:6697  {... */\n      pop\n      pop\n      pop\n      pop\n        /* \"@openzeppelin/contracts/utils/ReentrancyGuard.sol\":3065:3085  _nonReentrantAfter() */\n      tag_164\n        /* \"@openzeppelin/contracts/utils/ReentrancyGuard.sol\":3065:3083  _nonReentrantAfter */\n      tag_165\n        /* \"@openzeppelin/contracts/utils/ReentrancyGuard.sol\":3065:3085  _nonReentrantAfter() */\n      jump\t// in\n    tag_164:\n        /* \"src/SupplyChainTracker.sol\":2450:2615  {... */\n      pop\n        /* \"src/SupplyChainTracker.sol\":5456:6697  function transfer(address to, uint256 tokenId, uint256 amount) public onlyApprovedUser nonReentrant {... */\n      pop\n      pop\n      pop\n      jump\t// out\n        /* \"src/SupplyChainTracker.sol\":7341:7793  function rejectTransfer(uint256 transferId) public nonReentrant {... */\n    tag_33:\n        /* \"@openzeppelin/contracts/utils/ReentrancyGuard.sol\":3023:3044  _nonReentrantBefore() */\n      tag_167\n        /* \"@openzeppelin/contracts/utils/ReentrancyGuard.sol\":3023:3042  _nonReentrantBefore */\n      tag_124\n        /* \"@openzeppelin/contracts/utils/ReentrancyGuard.sol\":3023:3044  _nonReentrantBefore() */\n      jump\t// in\n    tag_167:\n        /* \"src/SupplyChainTracker.sol\":7415:7434  Transfer storage tr */\n      0x00\n        /* \"src/SupplyChainTracker.sol\":7437:7446  transfers */\n      0x04\n        /* \"src/SupplyChainTracker.sol\":7437:7458  transfers[transferId] */\n      0x00\n        /* \"src/SupplyChainTracker.sol\":7447:7457  transferId */\n      dup4\n        /* \"src/SupplyChainTracker.sol\":7437:7458  transfers[transferId] */\n      dup2\n      mstore\n      0x20\n      add\n      swap1\n      dup2\n      mstore\n      0x20\n      add\n      0x00\n      keccak256\n        /* \"src/SupplyChainTracker.sol\":7415:7458  Transfer storage tr = transfers[transferId] */\n      swap1\n      pop\n        /* \"src/SupplyChainTracker.sol\":7489:7511  TransferStatus.Pending */\n      0x00\n        /* \"src/SupplyChainTracker.sol\":7476:7511  tr.status == TransferStatus.Pending */\n      0x02\n      dup2\n      gt\n      iszero\n      tag_169\n      jumpi\n      tag_170\n      tag_116\n      jump\t// in\n    tag_170:\n    tag_169:\n        /* \"src/SupplyChainTracker.sol\":7476:7478  tr */\n      dup2\n        /* \"src/SupplyChainTracker.sol\":7476:7485  tr.status */\n      0x06\n      add\n      0x00\n      swap1\n      sload\n      swap1\n      0x0100\n      exp\n      swap1\n      div\n      0xff\n      and\n        /* \"src/SupplyChainTracker.sol\":7476:7511  tr.status == TransferStatus.Pending */\n      0x02\n      dup2\n      gt\n      iszero\n      tag_171\n      jumpi\n      tag_172\n      tag_116\n      jump\t// in\n    tag_172:\n    tag_171:\n      eq\n        /* \"src/SupplyChainTracker.sol\":7468:7527  require(tr.status == TransferStatus.Pending, \"Not pending\") */\n      tag_173\n      jumpi\n      mload(0x40)\n      0x08c379a000000000000000000000000000000000000000000000000000000000\n      dup2\n      mstore\n      0x04\n      add\n      tag_174\n      swap1\n      tag_175\n      jump\t// in\n    tag_174:\n      mload(0x40)\n      dup1\n      swap2\n      sub\n      swap1\n      revert\n    tag_173:\n        /* \"src/SupplyChainTracker.sol\":7559:7561  tr */\n      dup1\n        /* \"src/SupplyChainTracker.sol\":7559:7564  tr.to */\n      0x02\n      add\n      0x00\n      swap1\n      sload\n      swap1\n      0x0100\n      exp\n      swap1\n      div\n      0xffffffffffffffffffffffffffffffffffffffff\n      and\n        /* \"src/SupplyChainTracker.sol\":7545:7564  msg.sender == tr.to */\n      0xffffffffffffffffffffffffffffffffffffffff\n      and\n        /* \"src/SupplyChainTracker.sol\":7545:7555  msg.sender */\n      caller\n        /* \"src/SupplyChainTracker.sol\":7545:7564  msg.sender == tr.to */\n      0xffffffffffffffffffffffffffffffffffffffff\n      and\n      eq\n        /* \"src/SupplyChainTracker.sol\":7545:7587  msg.sender == tr.to || msg.sender == admin */\n      dup1\n      tag_176\n      jumpi\n      pop\n        /* \"src/SupplyChainTracker.sol\":7582:7587  admin */\n      immutable(\"0x7aec2e6420b6fcb778a66c2b9d8fa18a316e494bda11ec5e5a11deee861d114c\")\n        /* \"src/SupplyChainTracker.sol\":7568:7587  msg.sender == admin */\n      0xffffffffffffffffffffffffffffffffffffffff\n      and\n        /* \"src/SupplyChainTracker.sol\":7568:7578  msg.sender */\n      caller\n        /* \"src/SupplyChainTracker.sol\":7568:7587  msg.sender == admin */\n      0xffffffffffffffffffffffffffffffffffffffff\n      and\n      eq\n        /* \"src/SupplyChainTracker.sol\":7545:7587  msg.sender == tr.to || msg.sender == admin */\n    tag_176:\n        /* \"src/SupplyChainTracker.sol\":7537:7606  require(msg.sender == tr.to || msg.sender == admin, \"Not authorized\") */\n      tag_177\n      jumpi\n      mload(0x40)\n      0x08c379a000000000000000000000000000000000000000000000000000000000\n      dup2\n      mstore\n      0x04\n      add\n      tag_178\n      swap1\n      tag_179\n      jump\t// in\n    tag_178:\n      mload(0x40)\n      dup1\n      swap2\n      sub\n      swap1\n      revert\n    tag_177:\n        /* \"src/SupplyChainTracker.sol\":7617:7634  Token storage tkn */\n      0x00\n        /* \"src/SupplyChainTracker.sol\":7637:7643  tokens */\n      0x03\n        /* \"src/SupplyChainTracker.sol\":7637:7655  tokens[tr.tokenId] */\n      0x00\n        /* \"src/SupplyChainTracker.sol\":7644:7646  tr */\n      dup4\n        /* \"src/SupplyChainTracker.sol\":7644:7654  tr.tokenId */\n      0x03\n      add\n      sload\n        /* \"src/SupplyChainTracker.sol\":7637:7655  tokens[tr.tokenId] */\n      dup2\n      mstore\n      0x20\n      add\n      swap1\n      dup2\n      mstore\n      0x20\n      add\n      0x00\n      keccak256\n        /* \"src/SupplyChainTracker.sol\":7617:7655  Token storage tkn = tokens[tr.tokenId] */\n      swap1\n      pop\n        /* \"src/SupplyChainTracker.sol\":7689:7691  tr */\n      dup2\n        /* \"src/SupplyChainTracker.sol\":7689:7698  tr.amount */\n      0x05\n      add\n      sload\n        /* \"src/SupplyChainTracker.sol\":7665:7668  tkn */\n      dup2\n        /* \"src/SupplyChainTracker.sol\":7665:7676  tkn.balance */\n      0x07\n      add\n        /* \"src/SupplyChainTracker.sol\":7665:7685  tkn.balance[tr.from] */\n      0x00\n        /* \"src/SupplyChainTracker.sol\":7677:7679  tr */\n      dup5\n        /* \"src/SupplyChainTracker.sol\":7677:7684  tr.from */\n      0x01\n      add\n      0x00\n      swap1\n      sload\n      swap1\n      0x0100\n      exp\n      swap1\n      div\n      0xffffffffffffffffffffffffffffffffffffffff\n      and\n        /* \"src/SupplyChainTracker.sol\":7665:7685  tkn.balance[tr.from] */\n      0xffffffffffffffffffffffffffffffffffffffff\n      and\n      0xffffffffffffffffffffffffffffffffffffffff\n      and\n      dup2\n      mstore\n      0x20\n      add\n      swap1\n      dup2\n      mstore\n      0x20\n      add\n      0x00\n      keccak256\n      0x00\n        /* \"src/SupplyChainTracker.sol\":7665:7698  tkn.balance[tr.from] += tr.amount */\n      dup3\n      dup3\n      sload\n      tag_180\n      swap2\n      swap1\n      tag_155\n      jump\t// in\n    tag_180:\n      swap3\n      pop\n      pop\n      dup2\n      swap1\n      sstore\n      pop\n        /* \"src/SupplyChainTracker.sol\":7720:7743  TransferStatus.Rejected */\n      0x02\n        /* \"src/SupplyChainTracker.sol\":7708:7710  tr */\n      dup3\n        /* \"src/SupplyChainTracker.sol\":7708:7717  tr.status */\n      0x06\n      add\n      0x00\n        /* \"src/SupplyChainTracker.sol\":7708:7743  tr.status = TransferStatus.Rejected */\n      0x0100\n      exp\n      dup2\n      sload\n      dup2\n      0xff\n      mul\n      not\n      and\n      swap1\n      dup4\n      0x02\n      dup2\n      gt\n      iszero\n      tag_181\n      jumpi\n      tag_182\n      tag_116\n      jump\t// in\n    tag_182:\n    tag_181:\n      mul\n      or\n      swap1\n      sstore\n      pop\n        /* \"src/SupplyChainTracker.sol\":7775:7785  transferId */\n      dup3\n        /* \"src/SupplyChainTracker.sol\":7758:7786  TransferRejected(transferId) */\n      0x1f4f8a94e17d25044030f376d297769c8f9a1a2a0616e36b498a1e7370b5863f\n      mload(0x40)\n      mload(0x40)\n      dup1\n      swap2\n      sub\n      swap1\n      log2\n        /* \"src/SupplyChainTracker.sol\":7405:7793  {... */\n      pop\n      pop\n        /* \"@openzeppelin/contracts/utils/ReentrancyGuard.sol\":3065:3085  _nonReentrantAfter() */\n      tag_183\n        /* \"@openzeppelin/contracts/utils/ReentrancyGuard.sol\":3065:3083  _nonReentrantAfter */\n      tag_165\n        /* \"@openzeppelin/contracts/utils/ReentrancyGuard.sol\":3065:3085  _nonReentrantAfter() */\n      jump\t// in\n    tag_183:\n        /* \"src/SupplyChainTracker.sol\":7341:7793  function rejectTransfer(uint256 transferId) public nonReentrant {... */\n      pop\n      jump\t// out\n        /* \"src/SupplyChainTracker.sol\":6833:7335  function acceptTransfer(uint256 transferId) public onlyApprovedUser {... */\n    tag_36:\n        /* \"src/SupplyChainTracker.sol\":2460:2474  uint256 userId */\n      0x00\n        /* \"src/SupplyChainTracker.sol\":2477:2492  addressToUserId */\n      0x06\n        /* \"src/SupplyChainTracker.sol\":2477:2504  addressToUserId[msg.sender] */\n      0x00\n        /* \"src/SupplyChainTracker.sol\":2493:2503  msg.sender */\n      caller\n        /* \"src/SupplyChainTracker.sol\":2477:2504  addressToUserId[msg.sender] */\n      0xffffffffffffffffffffffffffffffffffffffff\n      and\n      0xffffffffffffffffffffffffffffffffffffffff\n      and\n      dup2\n      mstore\n      0x20\n      add\n      swap1\n      dup2\n      mstore\n      0x20\n      add\n      0x00\n      keccak256\n      sload\n        /* \"src/SupplyChainTracker.sol\":2460:2504  uint256 userId = addressToUserId[msg.sender] */\n      swap1\n      pop\n        /* \"src/SupplyChainTracker.sol\":2532:2533  0 */\n      0x00\n        /* \"src/SupplyChainTracker.sol\":2522:2528  userId */\n      dup2\n        /* \"src/SupplyChainTracker.sol\":2522:2533  userId != 0 */\n      eq\n      iszero\n        /* \"src/SupplyChainTracker.sol\":2522:2580  userId != 0 && users[userId].status == UserStatus.Approved */\n      dup1\n      iszero\n      tag_185\n      jumpi\n      pop\n        /* \"src/SupplyChainTracker.sol\":2561:2580  UserStatus.Approved */\n      0x01\n        /* \"src/SupplyChainTracker.sol\":2537:2580  users[userId].status == UserStatus.Approved */\n      0x03\n      dup2\n      gt\n      iszero\n      tag_186\n      jumpi\n      tag_187\n      tag_116\n      jump\t// in\n    tag_187:\n    tag_186:\n        /* \"src/SupplyChainTracker.sol\":2537:2542  users */\n      0x05\n        /* \"src/SupplyChainTracker.sol\":2537:2550  users[userId] */\n      0x00\n        /* \"src/SupplyChainTracker.sol\":2543:2549  userId */\n      dup4\n        /* \"src/SupplyChainTracker.sol\":2537:2550  users[userId] */\n      dup2\n      mstore\n      0x20\n      add\n      swap1\n      dup2\n      mstore\n      0x20\n      add\n      0x00\n      keccak256\n        /* \"src/SupplyChainTracker.sol\":2537:2557  users[userId].status */\n      0x03\n      add\n      0x00\n      swap1\n      sload\n      swap1\n      0x0100\n      exp\n      swap1\n      div\n      0xff\n      and\n        /* \"src/SupplyChainTracker.sol\":2537:2580  users[userId].status == UserStatus.Approved */\n      0x03\n      dup2\n      gt\n      iszero\n      tag_188\n      jumpi\n      tag_189\n      tag_116\n      jump\t// in\n    tag_189:\n    tag_188:\n      eq\n        /* \"src/SupplyChainTracker.sol\":2522:2580  userId != 0 && users[userId].status == UserStatus.Approved */\n    tag_185:\n        /* \"src/SupplyChainTracker.sol\":2514:2597  require(userId != 0 && users[userId].status == UserStatus.Approved, \"Not approved\") */\n      tag_190\n      jumpi\n      mload(0x40)\n      0x08c379a000000000000000000000000000000000000000000000000000000000\n      dup2\n      mstore\n      0x04\n      add\n      tag_191\n      swap1\n      tag_121\n      jump\t// in\n    tag_191:\n      mload(0x40)\n      dup1\n      swap2\n      sub\n      swap1\n      revert\n    tag_190:\n        /* \"src/SupplyChainTracker.sol\":6911:6930  Transfer storage tr */\n      0x00\n        /* \"src/SupplyChainTracker.sol\":6933:6942  transfers */\n      0x04\n        /* \"src/SupplyChainTracker.sol\":6933:6954  transfers[transferId] */\n      0x00\n        /* \"src/SupplyChainTracker.sol\":6943:6953  transferId */\n      dup5\n        /* \"src/SupplyChainTracker.sol\":6933:6954  transfers[transferId] */\n      dup2\n      mstore\n      0x20\n      add\n      swap1\n      dup2\n      mstore\n      0x20\n      add\n      0x00\n      keccak256\n        /* \"src/SupplyChainTracker.sol\":6911:6954  Transfer storage tr = transfers[transferId] */\n      swap1\n      pop\n        /* \"src/SupplyChainTracker.sol\":6985:7007  TransferStatus.Pending */\n      0x00\n        /* \"src/SupplyChainTracker.sol\":6972:7007  tr.status == TransferStatus.Pending */\n      0x02\n      dup2\n      gt\n      iszero\n      tag_193\n      jumpi\n      tag_194\n      tag_116\n      jump\t// in\n    tag_194:\n    tag_193:\n        /* \"src/SupplyChainTracker.sol\":6972:6974  tr */\n      dup2\n        /* \"src/SupplyChainTracker.sol\":6972:6981  tr.status */\n      0x06\n      add\n      0x00\n      swap1\n      sload\n      swap1\n      0x0100\n      exp\n      swap1\n      div\n      0xff\n      and\n        /* \"src/SupplyChainTracker.sol\":6972:7007  tr.status == TransferStatus.Pending */\n      0x02\n      dup2\n      gt\n      iszero\n      tag_195\n      jumpi\n      tag_196\n      tag_116\n      jump\t// in\n    tag_196:\n    tag_195:\n      eq\n        /* \"src/SupplyChainTracker.sol\":6964:7023  require(tr.status == TransferStatus.Pending, \"Not pending\") */\n      tag_197\n      jumpi\n      mload(0x40)\n      0x08c379a000000000000000000000000000000000000000000000000000000000\n      dup2\n      mstore\n      0x04\n      add\n      tag_198\n      swap1\n      tag_175\n      jump\t// in\n    tag_198:\n      mload(0x40)\n      dup1\n      swap2\n      sub\n      swap1\n      revert\n    tag_197:\n        /* \"src/SupplyChainTracker.sol\":7055:7057  tr */\n      dup1\n        /* \"src/SupplyChainTracker.sol\":7055:7060  tr.to */\n      0x02\n      add\n      0x00\n      swap1\n      sload\n      swap1\n      0x0100\n      exp\n      swap1\n      div\n      0xffffffffffffffffffffffffffffffffffffffff\n      and\n        /* \"src/SupplyChainTracker.sol\":7041:7060  msg.sender == tr.to */\n      0xffffffffffffffffffffffffffffffffffffffff\n      and\n        /* \"src/SupplyChainTracker.sol\":7041:7051  msg.sender */\n      caller\n        /* \"src/SupplyChainTracker.sol\":7041:7060  msg.sender == tr.to */\n      0xffffffffffffffffffffffffffffffffffffffff\n      and\n      eq\n        /* \"src/SupplyChainTracker.sol\":7033:7078  require(msg.sender == tr.to, \"Not recipient\") */\n      tag_199\n      jumpi\n      mload(0x40)\n      0x08c379a000000000000000000000000000000000000000000000000000000000\n      dup2\n      mstore\n      0x04\n      add\n      tag_200\n      swap1\n      tag_201\n      jump\t// in\n    tag_200:\n      mload(0x40)\n      dup1\n      swap2\n      sub\n      swap1\n      revert\n    tag_199:\n        /* \"src/SupplyChainTracker.sol\":7089:7101  uint256 toId */\n      0x00\n        /* \"src/SupplyChainTracker.sol\":7104:7119  addressToUserId */\n      0x06\n        /* \"src/SupplyChainTracker.sol\":7104:7126  addressToUserId[tr.to] */\n      0x00\n        /* \"src/SupplyChainTracker.sol\":7120:7122  tr */\n      dup4\n        /* \"src/SupplyChainTracker.sol\":7120:7125  tr.to */\n      0x02\n      add\n      0x00\n      swap1\n      sload\n      swap1\n      0x0100\n      exp\n      swap1\n      div\n      0xffffffffffffffffffffffffffffffffffffffff\n      and\n        /* \"src/SupplyChainTracker.sol\":7104:7126  addressToUserId[tr.to] */\n      0xffffffffffffffffffffffffffffffffffffffff\n      and\n      0xffffffffffffffffffffffffffffffffffffffff\n      and\n      dup2\n      mstore\n      0x20\n      add\n      swap1\n      dup2\n      mstore\n      0x20\n      add\n      0x00\n      keccak256\n      sload\n        /* \"src/SupplyChainTracker.sol\":7089:7126  uint256 toId = addressToUserId[tr.to] */\n      swap1\n      pop\n        /* \"src/SupplyChainTracker.sol\":7144:7211  _isNextRole(users[addressToUserId[tr.from]].role, users[toId].role) */\n      tag_202\n        /* \"src/SupplyChainTracker.sol\":7156:7161  users */\n      0x05\n        /* \"src/SupplyChainTracker.sol\":7156:7187  users[addressToUserId[tr.from]] */\n      0x00\n        /* \"src/SupplyChainTracker.sol\":7162:7177  addressToUserId */\n      0x06\n        /* \"src/SupplyChainTracker.sol\":7162:7186  addressToUserId[tr.from] */\n      0x00\n        /* \"src/SupplyChainTracker.sol\":7178:7180  tr */\n      dup7\n        /* \"src/SupplyChainTracker.sol\":7178:7185  tr.from */\n      0x01\n      add\n      0x00\n      swap1\n      sload\n      swap1\n      0x0100\n      exp\n      swap1\n      div\n      0xffffffffffffffffffffffffffffffffffffffff\n      and\n        /* \"src/SupplyChainTracker.sol\":7162:7186  addressToUserId[tr.from] */\n      0xffffffffffffffffffffffffffffffffffffffff\n      and\n      0xffffffffffffffffffffffffffffffffffffffff\n      and\n      dup2\n      mstore\n      0x20\n      add\n      swap1\n      dup2\n      mstore\n      0x20\n      add\n      0x00\n      keccak256\n      sload\n        /* \"src/SupplyChainTracker.sol\":7156:7187  users[addressToUserId[tr.from]] */\n      dup2\n      mstore\n      0x20\n      add\n      swap1\n      dup2\n      mstore\n      0x20\n      add\n      0x00\n      keccak256\n        /* \"src/SupplyChainTracker.sol\":7156:7192  users[addressToUserId[tr.from]].role */\n      0x02\n      add\n      sload\n        /* \"src/SupplyChainTracker.sol\":7194:7199  users */\n      0x05\n        /* \"src/SupplyChainTracker.sol\":7194:7205  users[toId] */\n      0x00\n        /* \"src/SupplyChainTracker.sol\":7200:7204  toId */\n      dup5\n        /* \"src/SupplyChainTracker.sol\":7194:7205  users[toId] */\n      dup2\n      mstore\n      0x20\n      add\n      swap1\n      dup2\n      mstore\n      0x20\n      add\n      0x00\n      keccak256\n        /* \"src/SupplyChainTracker.sol\":7194:7210  users[toId].role */\n      0x02\n      add\n      sload\n        /* \"src/SupplyChainTracker.sol\":7144:7155  _isNextRole */\n      tag_145\n        /* \"src/SupplyChainTracker.sol\":7144:7211  _isNextRole(users[addressToUserId[tr.from]].role, users[toId].role) */\n      jump\t// in\n    tag_202:\n        /* \"src/SupplyChainTracker.sol\":7136:7239  require(_isNextRole(users[addressToUserId[tr.from]].role, users[toId].role), \"Invalid role transition\") */\n      tag_203\n      jumpi\n      mload(0x40)\n      0x08c379a000000000000000000000000000000000000000000000000000000000\n      dup2\n      mstore\n      0x04\n      add\n      tag_204\n      swap1\n      tag_148\n      jump\t// in\n    tag_204:\n      mload(0x40)\n      dup1\n      swap2\n      sub\n      swap1\n      revert\n    tag_203:\n        /* \"src/SupplyChainTracker.sol\":7262:7285  TransferStatus.Accepted */\n      0x01\n        /* \"src/SupplyChainTracker.sol\":7250:7252  tr */\n      dup3\n        /* \"src/SupplyChainTracker.sol\":7250:7259  tr.status */\n      0x06\n      add\n      0x00\n        /* \"src/SupplyChainTracker.sol\":7250:7285  tr.status = TransferStatus.Accepted */\n      0x0100\n      exp\n      dup2\n      sload\n      dup2\n      0xff\n      mul\n      not\n      and\n      swap1\n      dup4\n      0x02\n      dup2\n      gt\n      iszero\n      tag_205\n      jumpi\n      tag_206\n      tag_116\n      jump\t// in\n    tag_206:\n    tag_205:\n      mul\n      or\n      swap1\n      sstore\n      pop\n        /* \"src/SupplyChainTracker.sol\":7317:7327  transferId */\n      dup4\n        /* \"src/SupplyChainTracker.sol\":7300:7328  TransferAccepted(transferId) */\n      0x91dd4234b45d77221e6eca52c141569a6d0f3b3ffe9b8a18fe8b9aafbc64b44b\n      mload(0x40)\n      mload(0x40)\n      dup1\n      swap2\n      sub\n      swap1\n      log2\n        /* \"src/SupplyChainTracker.sol\":6901:7335  {... */\n      pop\n      pop\n        /* \"src/SupplyChainTracker.sol\":2450:2615  {... */\n      pop\n        /* \"src/SupplyChainTracker.sol\":6833:7335  function acceptTransfer(uint256 transferId) public onlyApprovedUser {... */\n      pop\n      jump\t// out\n        /* \"src/SupplyChainTracker.sol\":8922:9481  function getUserTransfers(address user) public view returns (uint256[] memory) {... */\n    tag_40:\n        /* \"src/SupplyChainTracker.sol\":8983:8999  uint256[] memory */\n      0x60\n        /* \"src/SupplyChainTracker.sol\":9011:9031  uint256[] memory ids */\n      0x00\n        /* \"src/SupplyChainTracker.sol\":9065:9066  1 */\n      0x01\n        /* \"src/SupplyChainTracker.sol\":9048:9062  nextTransferId */\n      dup1\n      sload\n        /* \"src/SupplyChainTracker.sol\":9048:9066  nextTransferId - 1 */\n      tag_208\n      swap2\n      swap1\n      tag_153\n      jump\t// in\n    tag_208:\n        /* \"src/SupplyChainTracker.sol\":9034:9067  new uint256[](nextTransferId - 1) */\n      0xffffffffffffffff\n      dup2\n      gt\n      iszero\n      tag_209\n      jumpi\n      tag_210\n      tag_211\n      jump\t// in\n    tag_210:\n    tag_209:\n      mload(0x40)\n      swap1\n      dup1\n      dup3\n      mstore\n      dup1\n      0x20\n      mul\n      0x20\n      add\n      dup3\n      add\n      0x40\n      mstore\n      dup1\n      iszero\n      tag_212\n      jumpi\n      dup2\n      0x20\n      add\n      0x20\n      dup3\n      mul\n      dup1\n      calldatasize\n      dup4\n      calldatacopy\n      dup1\n      dup3\n      add\n      swap2\n      pop\n      pop\n      swap1\n      pop\n    tag_212:\n      pop\n        /* \"src/SupplyChainTracker.sol\":9011:9067  uint256[] memory ids = new uint256[](nextTransferId - 1) */\n      swap1\n      pop\n        /* \"src/SupplyChainTracker.sol\":9077:9090  uint256 count */\n      0x00\n        /* \"src/SupplyChainTracker.sol\":9093:9094  0 */\n      0x00\n        /* \"src/SupplyChainTracker.sol\":9077:9094  uint256 count = 0 */\n      swap1\n      pop\n        /* \"src/SupplyChainTracker.sol\":9109:9118  uint256 i */\n      0x00\n        /* \"src/SupplyChainTracker.sol\":9121:9122  1 */\n      0x01\n        /* \"src/SupplyChainTracker.sol\":9109:9122  uint256 i = 1 */\n      swap1\n      pop\n        /* \"src/SupplyChainTracker.sol\":9104:9308  for (uint256 i = 1; i < nextTransferId; i++) {... */\n    tag_213:\n        /* \"src/SupplyChainTracker.sol\":9128:9142  nextTransferId */\n      sload(0x01)\n        /* \"src/SupplyChainTracker.sol\":9124:9125  i */\n      dup2\n        /* \"src/SupplyChainTracker.sol\":9124:9142  i < nextTransferId */\n      lt\n        /* \"src/SupplyChainTracker.sol\":9104:9308  for (uint256 i = 1; i < nextTransferId; i++) {... */\n      iszero\n      tag_214\n      jumpi\n        /* \"src/SupplyChainTracker.sol\":9163:9182  Transfer storage tr */\n      0x00\n        /* \"src/SupplyChainTracker.sol\":9185:9194  transfers */\n      0x04\n        /* \"src/SupplyChainTracker.sol\":9185:9197  transfers[i] */\n      0x00\n        /* \"src/SupplyChainTracker.sol\":9195:9196  i */\n      dup4\n        /* \"src/SupplyChainTracker.sol\":9185:9197  transfers[i] */\n      dup2\n      mstore\n      0x20\n      add\n      swap1\n      dup2\n      mstore\n      0x20\n      add\n      0x00\n      keccak256\n        /* \"src/SupplyChainTracker.sol\":9163:9197  Transfer storage tr = transfers[i] */\n      swap1\n      pop\n        /* \"src/SupplyChainTracker.sol\":9226:9230  user */\n      dup6\n        /* \"src/SupplyChainTracker.sol\":9215:9230  tr.from == user */\n      0xffffffffffffffffffffffffffffffffffffffff\n      and\n        /* \"src/SupplyChainTracker.sol\":9215:9217  tr */\n      dup2\n        /* \"src/SupplyChainTracker.sol\":9215:9222  tr.from */\n      0x01\n      add\n      0x00\n      swap1\n      sload\n      swap1\n      0x0100\n      exp\n      swap1\n      div\n      0xffffffffffffffffffffffffffffffffffffffff\n      and\n        /* \"src/SupplyChainTracker.sol\":9215:9230  tr.from == user */\n      0xffffffffffffffffffffffffffffffffffffffff\n      and\n      eq\n        /* \"src/SupplyChainTracker.sol\":9215:9247  tr.from == user || tr.to == user */\n      dup1\n      tag_216\n      jumpi\n      pop\n        /* \"src/SupplyChainTracker.sol\":9243:9247  user */\n      dup6\n        /* \"src/SupplyChainTracker.sol\":9234:9247  tr.to == user */\n      0xffffffffffffffffffffffffffffffffffffffff\n      and\n        /* \"src/SupplyChainTracker.sol\":9234:9236  tr */\n      dup2\n        /* \"src/SupplyChainTracker.sol\":9234:9239  tr.to */\n      0x02\n      add\n      0x00\n      swap1\n      sload\n      swap1\n      0x0100\n      exp\n      swap1\n      div\n      0xffffffffffffffffffffffffffffffffffffffff\n      and\n        /* \"src/SupplyChainTracker.sol\":9234:9247  tr.to == user */\n      0xffffffffffffffffffffffffffffffffffffffff\n      and\n      eq\n        /* \"src/SupplyChainTracker.sol\":9215:9247  tr.from == user || tr.to == user */\n    tag_216:\n        /* \"src/SupplyChainTracker.sol\":9211:9298  if (tr.from == user || tr.to == user) {... */\n      iszero\n      tag_217\n      jumpi\n        /* \"src/SupplyChainTracker.sol\":9282:9283  i */\n      dup2\n        /* \"src/SupplyChainTracker.sol\":9267:9270  ids */\n      dup5\n        /* \"src/SupplyChainTracker.sol\":9271:9278  count++ */\n      dup5\n      dup1\n      tag_218\n      swap1\n      tag_157\n      jump\t// in\n    tag_218:\n      swap6\n      pop\n        /* \"src/SupplyChainTracker.sol\":9267:9279  ids[count++] */\n      dup2\n      mload\n      dup2\n      lt\n      tag_219\n      jumpi\n      tag_220\n      tag_221\n      jump\t// in\n    tag_220:\n    tag_219:\n      0x20\n      mul\n      0x20\n      add\n      add\n        /* \"src/SupplyChainTracker.sol\":9267:9283  ids[count++] = i */\n      dup2\n      dup2\n      mstore\n      pop\n      pop\n        /* \"src/SupplyChainTracker.sol\":9211:9298  if (tr.from == user || tr.to == user) {... */\n    tag_217:\n        /* \"src/SupplyChainTracker.sol\":9149:9308  {... */\n      pop\n        /* \"src/SupplyChainTracker.sol\":9144:9147  i++ */\n      dup1\n      dup1\n      0x01\n      add\n      swap2\n      pop\n      pop\n        /* \"src/SupplyChainTracker.sol\":9104:9308  for (uint256 i = 1; i < nextTransferId; i++) {... */\n      jump(tag_213)\n    tag_214:\n      pop\n        /* \"src/SupplyChainTracker.sol\":9317:9340  uint256[] memory result */\n      0x00\n        /* \"src/SupplyChainTracker.sol\":9357:9362  count */\n      dup2\n        /* \"src/SupplyChainTracker.sol\":9343:9363  new uint256[](count) */\n      0xffffffffffffffff\n      dup2\n      gt\n      iszero\n      tag_222\n      jumpi\n      tag_223\n      tag_211\n      jump\t// in\n    tag_223:\n    tag_222:\n      mload(0x40)\n      swap1\n      dup1\n      dup3\n      mstore\n      dup1\n      0x20\n      mul\n      0x20\n      add\n      dup3\n      add\n      0x40\n      mstore\n      dup1\n      iszero\n      tag_224\n      jumpi\n      dup2\n      0x20\n      add\n      0x20\n      dup3\n      mul\n      dup1\n      calldatasize\n      dup4\n      calldatacopy\n      dup1\n      dup3\n      add\n      swap2\n      pop\n      pop\n      swap1\n      pop\n    tag_224:\n      pop\n        /* \"src/SupplyChainTracker.sol\":9317:9363  uint256[] memory result = new uint256[](count) */\n      swap1\n      pop\n        /* \"src/SupplyChainTracker.sol\":9378:9387  uint256 i */\n      0x00\n        /* \"src/SupplyChainTracker.sol\":9390:9391  0 */\n      0x00\n        /* \"src/SupplyChainTracker.sol\":9378:9391  uint256 i = 0 */\n      swap1\n      pop\n        /* \"src/SupplyChainTracker.sol\":9373:9452  for (uint256 i = 0; i < count; i++) {... */\n    tag_225:\n        /* \"src/SupplyChainTracker.sol\":9397:9402  count */\n      dup3\n        /* \"src/SupplyChainTracker.sol\":9393:9394  i */\n      dup2\n        /* \"src/SupplyChainTracker.sol\":9393:9402  i < count */\n      lt\n        /* \"src/SupplyChainTracker.sol\":9373:9452  for (uint256 i = 0; i < count; i++) {... */\n      iszero\n      tag_226\n      jumpi\n        /* \"src/SupplyChainTracker.sol\":9435:9438  ids */\n      dup4\n        /* \"src/SupplyChainTracker.sol\":9439:9440  i */\n      dup2\n        /* \"src/SupplyChainTracker.sol\":9435:9441  ids[i] */\n      dup2\n      mload\n      dup2\n      lt\n      tag_228\n      jumpi\n      tag_229\n      tag_221\n      jump\t// in\n    tag_229:\n    tag_228:\n      0x20\n      mul\n      0x20\n      add\n      add\n      mload\n        /* \"src/SupplyChainTracker.sol\":9423:9429  result */\n      dup3\n        /* \"src/SupplyChainTracker.sol\":9430:9431  i */\n      dup3\n        /* \"src/SupplyChainTracker.sol\":9423:9432  result[i] */\n      dup2\n      mload\n      dup2\n      lt\n      tag_230\n      jumpi\n      tag_231\n      tag_221\n      jump\t// in\n    tag_231:\n    tag_230:\n      0x20\n      mul\n      0x20\n      add\n      add\n        /* \"src/SupplyChainTracker.sol\":9423:9441  result[i] = ids[i] */\n      dup2\n      dup2\n      mstore\n      pop\n      pop\n        /* \"src/SupplyChainTracker.sol\":9404:9407  i++ */\n      dup1\n      dup1\n      0x01\n      add\n      swap2\n      pop\n      pop\n        /* \"src/SupplyChainTracker.sol\":9373:9452  for (uint256 i = 0; i < count; i++) {... */\n      jump(tag_225)\n    tag_226:\n      pop\n        /* \"src/SupplyChainTracker.sol\":9468:9474  result */\n      dup1\n        /* \"src/SupplyChainTracker.sol\":9461:9474  return result */\n      swap4\n      pop\n      pop\n      pop\n      pop\n        /* \"src/SupplyChainTracker.sol\":8922:9481  function getUserTransfers(address user) public view returns (uint256[] memory) {... */\n      swap2\n      swap1\n      pop\n      jump\t// out\n        /* \"src/SupplyChainTracker.sol\":1691:1728  mapping(uint256 => User) public users */\n    tag_45:\n      mstore(0x20, 0x05)\n      dup1\n      0x00\n      mstore\n      keccak256(0x00, 0x40)\n      0x00\n      swap2\n      pop\n      swap1\n      pop\n      dup1\n      0x00\n      add\n      sload\n      swap1\n      dup1\n      0x01\n      add\n      0x00\n      swap1\n      sload\n      swap1\n      0x0100\n      exp\n      swap1\n      div\n      0xffffffffffffffffffffffffffffffffffffffff\n      and\n      swap1\n      dup1\n      0x02\n      add\n      sload\n      swap1\n      dup1\n      0x03\n      add\n      0x00\n      swap1\n      sload\n      swap1\n      0x0100\n      exp\n      swap1\n      div\n      0xff\n      and\n      swap1\n      pop\n      dup5\n      jump\t// out\n        /* \"src/SupplyChainTracker.sol\":2707:3396  function requestUserRole(bytes32 role) public {... */\n    tag_51:\n        /* \"src/SupplyChainTracker.sol\":2779:2780  0 */\n      0x00\n        /* \"src/SupplyChainTracker.sol\":2771:2780  role != 0 */\n      0x00\n      shl\n        /* \"src/SupplyChainTracker.sol\":2771:2775  role */\n      dup2\n        /* \"src/SupplyChainTracker.sol\":2771:2780  role != 0 */\n      sub\n        /* \"src/SupplyChainTracker.sol\":2763:2797  require(role != 0, \"Invalid role\") */\n      tag_233\n      jumpi\n      mload(0x40)\n      0x08c379a000000000000000000000000000000000000000000000000000000000\n      dup2\n      mstore\n      0x04\n      add\n      tag_234\n      swap1\n      tag_235\n      jump\t// in\n    tag_234:\n      mload(0x40)\n      dup1\n      swap2\n      sub\n      swap1\n      revert\n    tag_233:\n        /* \"src/SupplyChainTracker.sol\":2807:2821  uint256 userId */\n      0x00\n        /* \"src/SupplyChainTracker.sol\":2824:2839  addressToUserId */\n      0x06\n        /* \"src/SupplyChainTracker.sol\":2824:2851  addressToUserId[msg.sender] */\n      0x00\n        /* \"src/SupplyChainTracker.sol\":2840:2850  msg.sender */\n      caller\n        /* \"src/SupplyChainTracker.sol\":2824:2851  addressToUserId[msg.sender] */\n      0xffffffffffffffffffffffffffffffffffffffff\n      and\n      0xffffffffffffffffffffffffffffffffffffffff\n      and\n      dup2\n      mstore\n      0x20\n      add\n      swap1\n      dup2\n      mstore\n      0x20\n      add\n      0x00\n      keccak256\n      sload\n        /* \"src/SupplyChainTracker.sol\":2807:2851  uint256 userId = addressToUserId[msg.sender] */\n      swap1\n      pop\n        /* \"src/SupplyChainTracker.sol\":2875:2876  0 */\n      0x00\n        /* \"src/SupplyChainTracker.sol\":2865:2871  userId */\n      dup2\n        /* \"src/SupplyChainTracker.sol\":2865:2876  userId == 0 */\n      sub\n        /* \"src/SupplyChainTracker.sol\":2861:3276  if (userId == 0) {... */\n      tag_236\n      jumpi\n        /* \"src/SupplyChainTracker.sol\":2901:2911  nextUserId */\n      0x02\n      0x00\n        /* \"src/SupplyChainTracker.sol\":2901:2913  nextUserId++ */\n      dup2\n      sload\n      dup1\n      swap3\n      swap2\n      swap1\n      tag_237\n      swap1\n      tag_157\n      jump\t// in\n    tag_237:\n      swap2\n      swap1\n      pop\n      sstore\n        /* \"src/SupplyChainTracker.sol\":2892:2913  userId = nextUserId++ */\n      swap1\n      pop\n        /* \"src/SupplyChainTracker.sol\":2943:3104  User({... */\n      mload(0x40)\n      dup1\n      0x80\n      add\n      0x40\n      mstore\n      dup1\n        /* \"src/SupplyChainTracker.sol\":2970:2976  userId */\n      dup3\n        /* \"src/SupplyChainTracker.sol\":2943:3104  User({... */\n      dup2\n      mstore\n      0x20\n      add\n        /* \"src/SupplyChainTracker.sol\":3007:3017  msg.sender */\n      caller\n        /* \"src/SupplyChainTracker.sol\":2943:3104  User({... */\n      0xffffffffffffffffffffffffffffffffffffffff\n      and\n      dup2\n      mstore\n      0x20\n      add\n        /* \"src/SupplyChainTracker.sol\":3041:3045  role */\n      dup4\n        /* \"src/SupplyChainTracker.sol\":2943:3104  User({... */\n      dup2\n      mstore\n      0x20\n      add\n        /* \"src/SupplyChainTracker.sol\":3071:3089  UserStatus.Pending */\n      0x00\n        /* \"src/SupplyChainTracker.sol\":2943:3104  User({... */\n      0x03\n      dup2\n      gt\n      iszero\n      tag_238\n      jumpi\n      tag_239\n      tag_116\n      jump\t// in\n    tag_239:\n    tag_238:\n      dup2\n      mstore\n      pop\n        /* \"src/SupplyChainTracker.sol\":2927:2932  users */\n      0x05\n        /* \"src/SupplyChainTracker.sol\":2927:2940  users[userId] */\n      0x00\n        /* \"src/SupplyChainTracker.sol\":2933:2939  userId */\n      dup4\n        /* \"src/SupplyChainTracker.sol\":2927:2940  users[userId] */\n      dup2\n      mstore\n      0x20\n      add\n      swap1\n      dup2\n      mstore\n      0x20\n      add\n      0x00\n      keccak256\n        /* \"src/SupplyChainTracker.sol\":2927:3104  users[userId] = User({... */\n      0x00\n      dup3\n      add\n      mload\n      dup2\n      0x00\n      add\n      sstore\n      0x20\n      dup3\n      add\n      mload\n      dup2\n      0x01\n      add\n      exp(0x0100, 0x00)\n      dup2\n      sload\n      dup2\n      0xffffffffffffffffffffffffffffffffffffffff\n      mul\n      not\n      and\n      swap1\n      dup4\n      0xffffffffffffffffffffffffffffffffffffffff\n      and\n      mul\n      or\n      swap1\n      sstore\n      pop\n      0x40\n      dup3\n      add\n      mload\n      dup2\n      0x02\n      add\n      sstore\n      0x60\n      dup3\n      add\n      mload\n      dup2\n      0x03\n      add\n      exp(0x0100, 0x00)\n      dup2\n      sload\n      dup2\n      0xff\n      mul\n      not\n      and\n      swap1\n      dup4\n      0x03\n      dup2\n      gt\n      iszero\n      tag_240\n      jumpi\n      tag_241\n      tag_116\n      jump\t// in\n    tag_241:\n    tag_240:\n      mul\n      or\n      swap1\n      sstore\n      pop\n      swap1\n      pop\n      pop\n        /* \"src/SupplyChainTracker.sol\":3148:3154  userId */\n      dup1\n        /* \"src/SupplyChainTracker.sol\":3118:3133  addressToUserId */\n      0x06\n        /* \"src/SupplyChainTracker.sol\":3118:3145  addressToUserId[msg.sender] */\n      0x00\n        /* \"src/SupplyChainTracker.sol\":3134:3144  msg.sender */\n      caller\n        /* \"src/SupplyChainTracker.sol\":3118:3145  addressToUserId[msg.sender] */\n      0xffffffffffffffffffffffffffffffffffffffff\n      and\n      0xffffffffffffffffffffffffffffffffffffffff\n      and\n      dup2\n      mstore\n      0x20\n      add\n      swap1\n      dup2\n      mstore\n      0x20\n      add\n      0x00\n      keccak256\n        /* \"src/SupplyChainTracker.sol\":3118:3154  addressToUserId[msg.sender] = userId */\n      dup2\n      swap1\n      sstore\n      pop\n        /* \"src/SupplyChainTracker.sol\":2861:3276  if (userId == 0) {... */\n      jump(tag_242)\n    tag_236:\n        /* \"src/SupplyChainTracker.sol\":3206:3210  role */\n      dup2\n        /* \"src/SupplyChainTracker.sol\":3185:3190  users */\n      0x05\n        /* \"src/SupplyChainTracker.sol\":3185:3198  users[userId] */\n      0x00\n        /* \"src/SupplyChainTracker.sol\":3191:3197  userId */\n      dup4\n        /* \"src/SupplyChainTracker.sol\":3185:3198  users[userId] */\n      dup2\n      mstore\n      0x20\n      add\n      swap1\n      dup2\n      mstore\n      0x20\n      add\n      0x00\n      keccak256\n        /* \"src/SupplyChainTracker.sol\":3185:3203  users[userId].role */\n      0x02\n      add\n        /* \"src/SupplyChainTracker.sol\":3185:3210  users[userId].role = role */\n      dup2\n      swap1\n      sstore\n      pop\n        /* \"src/SupplyChainTracker.sol\":3247:3265  UserStatus.Pending */\n      0x00\n        /* \"src/SupplyChainTracker.sol\":3224:3229  users */\n      0x05\n        /* \"src/SupplyChainTracker.sol\":3224:3237  users[userId] */\n      0x00\n        /* \"src/SupplyChainTracker.sol\":3230:3236  userId */\n      dup4\n        /* \"src/SupplyChainTracker.sol\":3224:3237  users[userId] */\n      dup2\n      mstore\n      0x20\n      add\n      swap1\n      dup2\n      mstore\n      0x20\n      add\n      0x00\n      keccak256\n        /* \"src/SupplyChainTracker.sol\":3224:3244  users[userId].status */\n      0x03\n      add\n      0x00\n        /* \"src/SupplyChainTracker.sol\":3224:3265  users[userId].status = UserStatus.Pending */\n      0x0100\n      exp\n      dup2\n      sload\n      dup2\n      0xff\n      mul\n      not\n      and\n      swap1\n      dup4\n      0x03\n      dup2\n      gt\n      iszero\n      tag_243\n      jumpi\n      tag_244\n      tag_116\n      jump\t// in\n    tag_244:\n    tag_243:\n      mul\n      or\n      swap1\n      sstore\n      pop\n        /* \"src/SupplyChainTracker.sol\":2861:3276  if (userId == 0) {... */\n    tag_242:\n        /* \"src/SupplyChainTracker.sol\":3308:3318  msg.sender */\n      caller\n        /* \"src/SupplyChainTracker.sol\":3290:3325  UserRoleRequested(msg.sender, role) */\n      0xffffffffffffffffffffffffffffffffffffffff\n      and\n      0x6462c5e0af9bf3a12e42a57283f899627cb117e108991e3efda5d27188cc85c1\n        /* \"src/SupplyChainTracker.sol\":3320:3324  role */\n      dup4\n        /* \"src/SupplyChainTracker.sol\":3290:3325  UserRoleRequested(msg.sender, role) */\n      mload(0x40)\n      tag_245\n      swap2\n      swap1\n      tag_246\n      jump\t// in\n    tag_245:\n      mload(0x40)\n      dup1\n      swap2\n      sub\n      swap1\n      log2\n        /* \"src/SupplyChainTracker.sol\":3358:3368  msg.sender */\n      caller\n        /* \"src/SupplyChainTracker.sol\":3340:3389  UserStatusChanged(msg.sender, UserStatus.Pending) */\n      0xffffffffffffffffffffffffffffffffffffffff\n      and\n      0xb3b609c7a5e504a312603e90d906d1667fd5caff0a840ad07bf5709a3ca1a045\n        /* \"src/SupplyChainTracker.sol\":3370:3388  UserStatus.Pending */\n      0x00\n        /* \"src/SupplyChainTracker.sol\":3340:3389  UserStatusChanged(msg.sender, UserStatus.Pending) */\n      mload(0x40)\n      tag_247\n      swap2\n      swap1\n      tag_248\n      jump\t// in\n    tag_247:\n      mload(0x40)\n      dup1\n      swap2\n      sub\n      swap1\n      log2\n        /* \"src/SupplyChainTracker.sol\":2753:3396  {... */\n      pop\n        /* \"src/SupplyChainTracker.sol\":2707:3396  function requestUserRole(bytes32 role) public {... */\n      pop\n      jump\t// out\n        /* \"src/SupplyChainTracker.sol\":1595:1634  mapping(uint256 => Token) public tokens */\n    tag_54:\n      mstore(0x20, 0x03)\n      dup1\n      0x00\n      mstore\n      keccak256(0x00, 0x40)\n      0x00\n      swap2\n      pop\n      swap1\n      pop\n      dup1\n      0x00\n      add\n      sload\n      swap1\n      dup1\n      0x01\n      add\n      0x00\n      swap1\n      sload\n      swap1\n      0x0100\n      exp\n      swap1\n      div\n      0xffffffffffffffffffffffffffffffffffffffff\n      and\n      swap1\n      dup1\n      0x02\n      add\n      dup1\n      sload\n      tag_249\n      swap1\n      tag_250\n      jump\t// in\n    tag_249:\n      dup1\n      0x1f\n      add\n      0x20\n      dup1\n      swap2\n      div\n      mul\n      0x20\n      add\n      mload(0x40)\n      swap1\n      dup2\n      add\n      0x40\n      mstore\n      dup1\n      swap3\n      swap2\n      swap1\n      dup2\n      dup2\n      mstore\n      0x20\n      add\n      dup3\n      dup1\n      sload\n      tag_251\n      swap1\n      tag_250\n      jump\t// in\n    tag_251:\n      dup1\n      iszero\n      tag_252\n      jumpi\n      dup1\n      0x1f\n      lt\n      tag_253\n      jumpi\n      0x0100\n      dup1\n      dup4\n      sload\n      div\n      mul\n      dup4\n      mstore\n      swap2\n      0x20\n      add\n      swap2\n      jump(tag_252)\n    tag_253:\n      dup3\n      add\n      swap2\n      swap1\n      0x00\n      mstore\n      keccak256(0x00, 0x20)\n      swap1\n    tag_254:\n      dup2\n      sload\n      dup2\n      mstore\n      swap1\n      0x01\n      add\n      swap1\n      0x20\n      add\n      dup1\n      dup4\n      gt\n      tag_254\n      jumpi\n      dup3\n      swap1\n      sub\n      0x1f\n      and\n      dup3\n      add\n      swap2\n    tag_252:\n      pop\n      pop\n      pop\n      pop\n      pop\n      swap1\n      dup1\n      0x03\n      add\n      sload\n      swap1\n      dup1\n      0x04\n      add\n      dup1\n      sload\n      tag_255\n      swap1\n      tag_250\n      jump\t// in\n    tag_255:\n      dup1\n      0x1f\n      add\n      0x20\n      dup1\n      swap2\n      div\n      mul\n      0x20\n      add\n      mload(0x40)\n      swap1\n      dup2\n      add\n      0x40\n      mstore\n      dup1\n      swap3\n      swap2\n      swap1\n      dup2\n      dup2\n      mstore\n      0x20\n      add\n      dup3\n      dup1\n      sload\n      tag_256\n      swap1\n      tag_250\n      jump\t// in\n    tag_256:\n      dup1\n      iszero\n      tag_257\n      jumpi\n      dup1\n      0x1f\n      lt\n      tag_258\n      jumpi\n      0x0100\n      dup1\n      dup4\n      sload\n      div\n      mul\n      dup4\n      mstore\n      swap2\n      0x20\n      add\n      swap2\n      jump(tag_257)\n    tag_258:\n      dup3\n      add\n      swap2\n      swap1\n      0x00\n      mstore\n      keccak256(0x00, 0x20)\n      swap1\n    tag_259:\n      dup2\n      sload\n      dup2\n      mstore\n      swap1\n      0x01\n      add\n      swap1\n      0x20\n      add\n      dup1\n      dup4\n      gt\n      tag_259\n      jumpi\n      dup3\n      swap1\n      sub\n      0x1f\n      and\n      dup3\n      add\n      swap2\n    tag_257:\n      pop\n      pop\n      pop\n      pop\n      pop\n      swap1\n      dup1\n      0x05\n      add\n      sload\n      swap1\n      dup1\n      0x06\n      add\n      sload\n      swap1\n      pop\n      dup8\n      jump\t// out\n        /* \"src/SupplyChainTracker.sol\":8299:8916  function getUserTokens(address user) public view returns (uint256[] memory) {... */\n    tag_59:\n        /* \"src/SupplyChainTracker.sol\":8357:8373  uint256[] memory */\n      0x60\n        /* \"src/SupplyChainTracker.sol\":8385:8405  uint256[] memory ids */\n      0x00\n        /* \"src/SupplyChainTracker.sol\":8436:8437  1 */\n      0x01\n        /* \"src/SupplyChainTracker.sol\":8422:8433  nextTokenId */\n      sload(0x00)\n        /* \"src/SupplyChainTracker.sol\":8422:8437  nextTokenId - 1 */\n      tag_261\n      swap2\n      swap1\n      tag_153\n      jump\t// in\n    tag_261:\n        /* \"src/SupplyChainTracker.sol\":8408:8438  new uint256[](nextTokenId - 1) */\n      0xffffffffffffffff\n      dup2\n      gt\n      iszero\n      tag_262\n      jumpi\n      tag_263\n      tag_211\n      jump\t// in\n    tag_263:\n    tag_262:\n      mload(0x40)\n      swap1\n      dup1\n      dup3\n      mstore\n      dup1\n      0x20\n      mul\n      0x20\n      add\n      dup3\n      add\n      0x40\n      mstore\n      dup1\n      iszero\n      tag_264\n      jumpi\n      dup2\n      0x20\n      add\n      0x20\n      dup3\n      mul\n      dup1\n      calldatasize\n      dup4\n      calldatacopy\n      dup1\n      dup3\n      add\n      swap2\n      pop\n      pop\n      swap1\n      pop\n    tag_264:\n      pop\n        /* \"src/SupplyChainTracker.sol\":8385:8438  uint256[] memory ids = new uint256[](nextTokenId - 1) */\n      swap1\n      pop\n        /* \"src/SupplyChainTracker.sol\":8448:8461  uint256 count */\n      0x00\n        /* \"src/SupplyChainTracker.sol\":8464:8465  0 */\n      0x00\n        /* \"src/SupplyChainTracker.sol\":8448:8465  uint256 count = 0 */\n      swap1\n      pop\n        /* \"src/SupplyChainTracker.sol\":8480:8489  uint256 i */\n      0x00\n        /* \"src/SupplyChainTracker.sol\":8492:8493  1 */\n      0x01\n        /* \"src/SupplyChainTracker.sol\":8480:8493  uint256 i = 1 */\n      swap1\n      pop\n        /* \"src/SupplyChainTracker.sol\":8475:8677  for (uint256 i = 1; i < nextTokenId; i++) {... */\n    tag_265:\n        /* \"src/SupplyChainTracker.sol\":8499:8510  nextTokenId */\n      sload(0x00)\n        /* \"src/SupplyChainTracker.sol\":8495:8496  i */\n      dup2\n        /* \"src/SupplyChainTracker.sol\":8495:8510  i < nextTokenId */\n      lt\n        /* \"src/SupplyChainTracker.sol\":8475:8677  for (uint256 i = 1; i < nextTokenId; i++) {... */\n      iszero\n      tag_266\n      jumpi\n        /* \"src/SupplyChainTracker.sol\":8531:8546  Token storage t */\n      0x00\n        /* \"src/SupplyChainTracker.sol\":8549:8555  tokens */\n      0x03\n        /* \"src/SupplyChainTracker.sol\":8549:8558  tokens[i] */\n      0x00\n        /* \"src/SupplyChainTracker.sol\":8556:8557  i */\n      dup4\n        /* \"src/SupplyChainTracker.sol\":8549:8558  tokens[i] */\n      dup2\n      mstore\n      0x20\n      add\n      swap1\n      dup2\n      mstore\n      0x20\n      add\n      0x00\n      keccak256\n        /* \"src/SupplyChainTracker.sol\":8531:8558  Token storage t = tokens[i] */\n      swap1\n      pop\n        /* \"src/SupplyChainTracker.sol\":8589:8593  user */\n      dup6\n        /* \"src/SupplyChainTracker.sol\":8576:8593  t.creator == user */\n      0xffffffffffffffffffffffffffffffffffffffff\n      and\n        /* \"src/SupplyChainTracker.sol\":8576:8577  t */\n      dup2\n        /* \"src/SupplyChainTracker.sol\":8576:8585  t.creator */\n      0x01\n      add\n      0x00\n      swap1\n      sload\n      swap1\n      0x0100\n      exp\n      swap1\n      div\n      0xffffffffffffffffffffffffffffffffffffffff\n      and\n        /* \"src/SupplyChainTracker.sol\":8576:8593  t.creator == user */\n      0xffffffffffffffffffffffffffffffffffffffff\n      and\n      eq\n        /* \"src/SupplyChainTracker.sol\":8576:8616  t.creator == user || t.balance[user] > 0 */\n      dup1\n      tag_268\n      jumpi\n      pop\n        /* \"src/SupplyChainTracker.sol\":8615:8616  0 */\n      0x00\n        /* \"src/SupplyChainTracker.sol\":8597:8598  t */\n      dup2\n        /* \"src/SupplyChainTracker.sol\":8597:8606  t.balance */\n      0x07\n      add\n        /* \"src/SupplyChainTracker.sol\":8597:8612  t.balance[user] */\n      0x00\n        /* \"src/SupplyChainTracker.sol\":8607:8611  user */\n      dup9\n        /* \"src/SupplyChainTracker.sol\":8597:8612  t.balance[user] */\n      0xffffffffffffffffffffffffffffffffffffffff\n      and\n      0xffffffffffffffffffffffffffffffffffffffff\n      and\n      dup2\n      mstore\n      0x20\n      add\n      swap1\n      dup2\n      mstore\n      0x20\n      add\n      0x00\n      keccak256\n      sload\n        /* \"src/SupplyChainTracker.sol\":8597:8616  t.balance[user] > 0 */\n      gt\n        /* \"src/SupplyChainTracker.sol\":8576:8616  t.creator == user || t.balance[user] > 0 */\n    tag_268:\n        /* \"src/SupplyChainTracker.sol\":8572:8667  if (t.creator == user || t.balance[user] > 0) {... */\n      iszero\n      tag_269\n      jumpi\n        /* \"src/SupplyChainTracker.sol\":8651:8652  i */\n      dup2\n        /* \"src/SupplyChainTracker.sol\":8636:8639  ids */\n      dup5\n        /* \"src/SupplyChainTracker.sol\":8640:8647  count++ */\n      dup5\n      dup1\n      tag_270\n      swap1\n      tag_157\n      jump\t// in\n    tag_270:\n      swap6\n      pop\n        /* \"src/SupplyChainTracker.sol\":8636:8648  ids[count++] */\n      dup2\n      mload\n      dup2\n      lt\n      tag_271\n      jumpi\n      tag_272\n      tag_221\n      jump\t// in\n    tag_272:\n    tag_271:\n      0x20\n      mul\n      0x20\n      add\n      add\n        /* \"src/SupplyChainTracker.sol\":8636:8652  ids[count++] = i */\n      dup2\n      dup2\n      mstore\n      pop\n      pop\n        /* \"src/SupplyChainTracker.sol\":8572:8667  if (t.creator == user || t.balance[user] > 0) {... */\n    tag_269:\n        /* \"src/SupplyChainTracker.sol\":8517:8677  {... */\n      pop\n        /* \"src/SupplyChainTracker.sol\":8512:8515  i++ */\n      dup1\n      dup1\n      0x01\n      add\n      swap2\n      pop\n      pop\n        /* \"src/SupplyChainTracker.sol\":8475:8677  for (uint256 i = 1; i < nextTokenId; i++) {... */\n      jump(tag_265)\n    tag_266:\n      pop\n        /* \"src/SupplyChainTracker.sol\":8752:8775  uint256[] memory result */\n      0x00\n        /* \"src/SupplyChainTracker.sol\":8792:8797  count */\n      dup2\n        /* \"src/SupplyChainTracker.sol\":8778:8798  new uint256[](count) */\n      0xffffffffffffffff\n      dup2\n      gt\n      iszero\n      tag_273\n      jumpi\n      tag_274\n      tag_211\n      jump\t// in\n    tag_274:\n    tag_273:\n      mload(0x40)\n      swap1\n      dup1\n      dup3\n      mstore\n      dup1\n      0x20\n      mul\n      0x20\n      add\n      dup3\n      add\n      0x40\n      mstore\n      dup1\n      iszero\n      tag_275\n      jumpi\n      dup2\n      0x20\n      add\n      0x20\n      dup3\n      mul\n      dup1\n      calldatasize\n      dup4\n      calldatacopy\n      dup1\n      dup3\n      add\n      swap2\n      pop\n      pop\n      swap1\n      pop\n    tag_275:\n      pop\n        /* \"src/SupplyChainTracker.sol\":8752:8798  uint256[] memory result = new uint256[](count) */\n      swap1\n      pop\n        /* \"src/SupplyChainTracker.sol\":8813:8822  uint256 i */\n      0x00\n        /* \"src/SupplyChainTracker.sol\":8825:8826  0 */\n      0x00\n        /* \"src/SupplyChainTracker.sol\":8813:8826  uint256 i = 0 */\n      swap1\n      pop\n        /* \"src/SupplyChainTracker.sol\":8808:8887  for (uint256 i = 0; i < count; i++) {... */\n    tag_276:\n        /* \"src/SupplyChainTracker.sol\":8832:8837  count */\n      dup3\n        /* \"src/SupplyChainTracker.sol\":8828:8829  i */\n      dup2\n        /* \"src/SupplyChainTracker.sol\":8828:8837  i < count */\n      lt\n        /* \"src/SupplyChainTracker.sol\":8808:8887  for (uint256 i = 0; i < count; i++) {... */\n      iszero\n      tag_277\n      jumpi\n        /* \"src/SupplyChainTracker.sol\":8870:8873  ids */\n      dup4\n        /* \"src/SupplyChainTracker.sol\":8874:8875  i */\n      dup2\n        /* \"src/SupplyChainTracker.sol\":8870:8876  ids[i] */\n      dup2\n      mload\n      dup2\n      lt\n      tag_279\n      jumpi\n      tag_280\n      tag_221\n      jump\t// in\n    tag_280:\n    tag_279:\n      0x20\n      mul\n      0x20\n      add\n      add\n      mload\n        /* \"src/SupplyChainTracker.sol\":8858:8864  result */\n      dup3\n        /* \"src/SupplyChainTracker.sol\":8865:8866  i */\n      dup3\n        /* \"src/SupplyChainTracker.sol\":8858:8867  result[i] */\n      dup2\n      mload\n      dup2\n      lt\n      tag_281\n      jumpi\n      tag_282\n      tag_221\n      jump\t// in\n    tag_282:\n    tag_281:\n      0x20\n      mul\n      0x20\n      add\n      add\n        /* \"src/SupplyChainTracker.sol\":8858:8876  result[i] = ids[i] */\n      dup2\n      dup2\n      mstore\n      pop\n      pop\n        /* \"src/SupplyChainTracker.sol\":8839:8842  i++ */\n      dup1\n      dup1\n      0x01\n      add\n      swap2\n      pop\n      pop\n        /* \"src/SupplyChainTracker.sol\":8808:8887  for (uint256 i = 0; i < count; i++) {... */\n      jump(tag_276)\n    tag_277:\n      pop\n        /* \"src/SupplyChainTracker.sol\":8903:8909  result */\n      dup1\n        /* \"src/SupplyChainTracker.sol\":8896:8909  return result */\n      swap4\n      pop\n      pop\n      pop\n      pop\n        /* \"src/SupplyChainTracker.sol\":8299:8916  function getUserTokens(address user) public view returns (uint256[] memory) {... */\n      swap2\n      swap1\n      pop\n      jump\t// out\n        /* \"src/SupplyChainTracker.sol\":3702:3931  function getUserInfo(address userAddress) public view returns (User memory) {... */\n    tag_63:\n        /* \"src/SupplyChainTracker.sol\":3765:3776  User memory */\n      tag_283\n      tag_284\n      jump\t// in\n    tag_283:\n        /* \"src/SupplyChainTracker.sol\":3788:3802  uint256 userId */\n      0x00\n        /* \"src/SupplyChainTracker.sol\":3805:3820  addressToUserId */\n      0x06\n        /* \"src/SupplyChainTracker.sol\":3805:3833  addressToUserId[userAddress] */\n      0x00\n        /* \"src/SupplyChainTracker.sol\":3821:3832  userAddress */\n      dup5\n        /* \"src/SupplyChainTracker.sol\":3805:3833  addressToUserId[userAddress] */\n      0xffffffffffffffffffffffffffffffffffffffff\n      and\n      0xffffffffffffffffffffffffffffffffffffffff\n      and\n      dup2\n      mstore\n      0x20\n      add\n      swap1\n      dup2\n      mstore\n      0x20\n      add\n      0x00\n      keccak256\n      sload\n        /* \"src/SupplyChainTracker.sol\":3788:3833  uint256 userId = addressToUserId[userAddress] */\n      swap1\n      pop\n        /* \"src/SupplyChainTracker.sol\":3860:3861  0 */\n      0x00\n        /* \"src/SupplyChainTracker.sol\":3850:3856  userId */\n      dup2\n        /* \"src/SupplyChainTracker.sol\":3850:3861  userId == 0 */\n      eq\n        /* \"src/SupplyChainTracker.sol\":3850:3924  userId == 0 ? User(0, address(0), \"\", UserStatus.Rejected) : users[userId] */\n      tag_286\n      jumpi\n        /* \"src/SupplyChainTracker.sol\":3911:3916  users */\n      0x05\n        /* \"src/SupplyChainTracker.sol\":3911:3924  users[userId] */\n      0x00\n        /* \"src/SupplyChainTracker.sol\":3917:3923  userId */\n      dup3\n        /* \"src/SupplyChainTracker.sol\":3911:3924  users[userId] */\n      dup2\n      mstore\n      0x20\n      add\n      swap1\n      dup2\n      mstore\n      0x20\n      add\n      0x00\n      keccak256\n        /* \"src/SupplyChainTracker.sol\":3850:3924  userId == 0 ? User(0, address(0), \"\", UserStatus.Rejected) : users[userId] */\n      mload(0x40)\n      dup1\n      0x80\n      add\n      0x40\n      mstore\n      swap1\n      dup2\n      0x00\n      dup3\n      add\n      sload\n      dup2\n      mstore\n      0x20\n      add\n      0x01\n      dup3\n      add\n      0x00\n      swap1\n      sload\n      swap1\n      0x0100\n      exp\n      swap1\n      div\n      0xffffffffffffffffffffffffffffffffffffffff\n      and\n      0xffffffffffffffffffffffffffffffffffffffff\n      and\n      0xffffffffffffffffffffffffffffffffffffffff\n      and\n      dup2\n      mstore\n      0x20\n      add\n      0x02\n      dup3\n      add\n      sload\n      dup2\n      mstore\n      0x20\n      add\n      0x03\n      dup3\n      add\n      0x00\n      swap1\n      sload\n      swap1\n      0x0100\n      exp\n      swap1\n      div\n      0xff\n      and\n      0x03\n      dup2\n      gt\n      iszero\n      tag_287\n      jumpi\n      tag_288\n      tag_116\n      jump\t// in\n    tag_288:\n    tag_287:\n      0x03\n      dup2\n      gt\n      iszero\n      tag_289\n      jumpi\n      tag_290\n      tag_116\n      jump\t// in\n    tag_290:\n    tag_289:\n      dup2\n      mstore\n      pop\n      pop\n      jump(tag_291)\n    tag_286:\n        /* \"src/SupplyChainTracker.sol\":3864:3908  User(0, address(0), \"\", UserStatus.Rejected) */\n      mload(0x40)\n      dup1\n      0x80\n      add\n      0x40\n      mstore\n      dup1\n        /* \"src/SupplyChainTracker.sol\":3869:3870  0 */\n      0x00\n        /* \"src/SupplyChainTracker.sol\":3864:3908  User(0, address(0), \"\", UserStatus.Rejected) */\n      dup2\n      mstore\n      0x20\n      add\n        /* \"src/SupplyChainTracker.sol\":3880:3881  0 */\n      0x00\n        /* \"src/SupplyChainTracker.sol\":3864:3908  User(0, address(0), \"\", UserStatus.Rejected) */\n      0xffffffffffffffffffffffffffffffffffffffff\n      and\n      dup2\n      mstore\n      0x20\n      add\n      0x00\n      dup2\n      mstore\n      0x20\n      add\n        /* \"src/SupplyChainTracker.sol\":3888:3907  UserStatus.Rejected */\n      0x02\n        /* \"src/SupplyChainTracker.sol\":3864:3908  User(0, address(0), \"\", UserStatus.Rejected) */\n      0x03\n      dup2\n      gt\n      iszero\n      tag_292\n      jumpi\n      tag_293\n      tag_116\n      jump\t// in\n    tag_293:\n    tag_292:\n      dup2\n      mstore\n      pop\n        /* \"src/SupplyChainTracker.sol\":3850:3924  userId == 0 ? User(0, address(0), \"\", UserStatus.Rejected) : users[userId] */\n    tag_291:\n        /* \"src/SupplyChainTracker.sol\":3843:3924  return userId == 0 ? User(0, address(0), \"\", UserStatus.Rejected) : users[userId] */\n      swap2\n      pop\n      pop\n        /* \"src/SupplyChainTracker.sol\":3702:3931  function getUserInfo(address userAddress) public view returns (User memory) {... */\n      swap2\n      swap1\n      pop\n      jump\t// out\n        /* \"src/SupplyChainTracker.sol\":1484:1514  uint256 public nextTokenId = 1 */\n    tag_67:\n      sload(0x00)\n      dup2\n      jump\t// out\n        /* \"src/SupplyChainTracker.sol\":3402:3696  function changeStatusUser(address userAddress, UserStatus newStatus) public onlyAdmin {... */\n    tag_73:\n        /* \"src/SupplyChainTracker.sol\":2379:2384  admin */\n      immutable(\"0x7aec2e6420b6fcb778a66c2b9d8fa18a316e494bda11ec5e5a11deee861d114c\")\n        /* \"src/SupplyChainTracker.sol\":2365:2384  msg.sender == admin */\n      0xffffffffffffffffffffffffffffffffffffffff\n      and\n        /* \"src/SupplyChainTracker.sol\":2365:2375  msg.sender */\n      caller\n        /* \"src/SupplyChainTracker.sol\":2365:2384  msg.sender == admin */\n      0xffffffffffffffffffffffffffffffffffffffff\n      and\n      eq\n        /* \"src/SupplyChainTracker.sol\":2357:2398  require(msg.sender == admin, \"Not admin\") */\n      tag_295\n      jumpi\n      mload(0x40)\n      0x08c379a000000000000000000000000000000000000000000000000000000000\n      dup2\n      mstore\n      0x04\n      add\n      tag_296\n      swap1\n      tag_297\n      jump\t// in\n    tag_296:\n      mload(0x40)\n      dup1\n      swap2\n      sub\n      swap1\n      revert\n    tag_295:\n        /* \"src/SupplyChainTracker.sol\":3498:3512  uint256 userId */\n      0x00\n        /* \"src/SupplyChainTracker.sol\":3515:3530  addressToUserId */\n      0x06\n        /* \"src/SupplyChainTracker.sol\":3515:3543  addressToUserId[userAddress] */\n      0x00\n        /* \"src/SupplyChainTracker.sol\":3531:3542  userAddress */\n      dup5\n        /* \"src/SupplyChainTracker.sol\":3515:3543  addressToUserId[userAddress] */\n      0xffffffffffffffffffffffffffffffffffffffff\n      and\n      0xffffffffffffffffffffffffffffffffffffffff\n      and\n      dup2\n      mstore\n      0x20\n      add\n      swap1\n      dup2\n      mstore\n      0x20\n      add\n      0x00\n      keccak256\n      sload\n        /* \"src/SupplyChainTracker.sol\":3498:3543  uint256 userId = addressToUserId[userAddress] */\n      swap1\n      pop\n        /* \"src/SupplyChainTracker.sol\":3571:3572  0 */\n      0x00\n        /* \"src/SupplyChainTracker.sol\":3561:3567  userId */\n      dup2\n        /* \"src/SupplyChainTracker.sol\":3561:3572  userId != 0 */\n      sub\n        /* \"src/SupplyChainTracker.sol\":3553:3591  require(userId != 0, \"User not found\") */\n      tag_299\n      jumpi\n      mload(0x40)\n      0x08c379a000000000000000000000000000000000000000000000000000000000\n      dup2\n      mstore\n      0x04\n      add\n      tag_300\n      swap1\n      tag_301\n      jump\t// in\n    tag_300:\n      mload(0x40)\n      dup1\n      swap2\n      sub\n      swap1\n      revert\n    tag_299:\n        /* \"src/SupplyChainTracker.sol\":3624:3633  newStatus */\n      dup2\n        /* \"src/SupplyChainTracker.sol\":3601:3606  users */\n      0x05\n        /* \"src/SupplyChainTracker.sol\":3601:3614  users[userId] */\n      0x00\n        /* \"src/SupplyChainTracker.sol\":3607:3613  userId */\n      dup4\n        /* \"src/SupplyChainTracker.sol\":3601:3614  users[userId] */\n      dup2\n      mstore\n      0x20\n      add\n      swap1\n      dup2\n      mstore\n      0x20\n      add\n      0x00\n      keccak256\n        /* \"src/SupplyChainTracker.sol\":3601:3621  users[userId].status */\n      0x03\n      add\n      0x00\n        /* \"src/SupplyChainTracker.sol\":3601:3633  users[userId].status = newStatus */\n      0x0100\n      exp\n      dup2\n      sload\n      dup2\n      0xff\n      mul\n      not\n      and\n      swap1\n      dup4\n      0x03\n      dup2\n      gt\n      iszero\n      tag_302\n      jumpi\n      tag_303\n      tag_116\n      jump\t// in\n    tag_303:\n    tag_302:\n      mul\n      or\n      swap1\n      sstore\n      pop\n        /* \"src/SupplyChainTracker.sol\":3666:3677  userAddress */\n      dup3\n        /* \"src/SupplyChainTracker.sol\":3648:3689  UserStatusChanged(userAddress, newStatus) */\n      0xffffffffffffffffffffffffffffffffffffffff\n      and\n      0xb3b609c7a5e504a312603e90d906d1667fd5caff0a840ad07bf5709a3ca1a045\n        /* \"src/SupplyChainTracker.sol\":3679:3688  newStatus */\n      dup4\n        /* \"src/SupplyChainTracker.sol\":3648:3689  UserStatusChanged(userAddress, newStatus) */\n      mload(0x40)\n      tag_304\n      swap2\n      swap1\n      tag_248\n      jump\t// in\n    tag_304:\n      mload(0x40)\n      dup1\n      swap2\n      sub\n      swap1\n      log2\n        /* \"src/SupplyChainTracker.sol\":3488:3696  {... */\n      pop\n        /* \"src/SupplyChainTracker.sol\":3402:3696  function changeStatusUser(address userAddress, UserStatus newStatus) public onlyAdmin {... */\n      pop\n      pop\n      jump\t// out\n        /* \"src/SupplyChainTracker.sol\":1640:1685  mapping(uint256 => Transfer) public transfers */\n    tag_76:\n      mstore(0x20, 0x04)\n      dup1\n      0x00\n      mstore\n      keccak256(0x00, 0x40)\n      0x00\n      swap2\n      pop\n      swap1\n      pop\n      dup1\n      0x00\n      add\n      sload\n      swap1\n      dup1\n      0x01\n      add\n      0x00\n      swap1\n      sload\n      swap1\n      0x0100\n      exp\n      swap1\n      div\n      0xffffffffffffffffffffffffffffffffffffffff\n      and\n      swap1\n      dup1\n      0x02\n      add\n      0x00\n      swap1\n      sload\n      swap1\n      0x0100\n      exp\n      swap1\n      div\n      0xffffffffffffffffffffffffffffffffffffffff\n      and\n      swap1\n      dup1\n      0x03\n      add\n      sload\n      swap1\n      dup1\n      0x04\n      add\n      sload\n      swap1\n      dup1\n      0x05\n      add\n      sload\n      swap1\n      dup1\n      0x06\n      add\n      0x00\n      swap1\n      sload\n      swap1\n      0x0100\n      exp\n      swap1\n      div\n      0xff\n      and\n      swap1\n      pop\n      dup8\n      jump\t// out\n        /* \"src/SupplyChainTracker.sol\":1559:1588  uint256 public nextUserId = 1 */\n    tag_80:\n      sload(0x02)\n      dup2\n      jump\t// out\n        /* \"src/SupplyChainTracker.sol\":1734:1784  mapping(address => uint256) public addressToUserId */\n    tag_84:\n      mstore(0x20, 0x06)\n      dup1\n      0x00\n      mstore\n      keccak256(0x00, 0x40)\n      0x00\n      swap2\n      pop\n      swap1\n      pop\n      sload\n      dup2\n      jump\t// out\n        /* \"src/SupplyChainTracker.sol\":1520:1553  uint256 public nextTransferId = 1 */\n    tag_87:\n      sload(0x01)\n      dup2\n      jump\t// out\n        /* \"src/SupplyChainTracker.sol\":6703:6827  function getTransfer(uint256 transferId) public view returns (Transfer memory) {... */\n    tag_91:\n        /* \"src/SupplyChainTracker.sol\":6765:6780  Transfer memory */\n      tag_305\n      tag_306\n      jump\t// in\n    tag_305:\n        /* \"src/SupplyChainTracker.sol\":6799:6808  transfers */\n      0x04\n        /* \"src/SupplyChainTracker.sol\":6799:6820  transfers[transferId] */\n      0x00\n        /* \"src/SupplyChainTracker.sol\":6809:6819  transferId */\n      dup4\n        /* \"src/SupplyChainTracker.sol\":6799:6820  transfers[transferId] */\n      dup2\n      mstore\n      0x20\n      add\n      swap1\n      dup2\n      mstore\n      0x20\n      add\n      0x00\n      keccak256\n        /* \"src/SupplyChainTracker.sol\":6792:6820  return transfers[transferId] */\n      mload(0x40)\n      dup1\n      0xe0\n      add\n      0x40\n      mstore\n      swap1\n      dup2\n      0x00\n      dup3\n      add\n      sload\n      dup2\n      mstore\n      0x20\n      add\n      0x01\n      dup3\n      add\n      0x00\n      swap1\n      sload\n      swap1\n      0x0100\n      exp\n      swap1\n      div\n      0xffffffffffffffffffffffffffffffffffffffff\n      and\n      0xffffffffffffffffffffffffffffffffffffffff\n      and\n      0xffffffffffffffffffffffffffffffffffffffff\n      and\n      dup2\n      mstore\n      0x20\n      add\n      0x02\n      dup3\n      add\n      0x00\n      swap1\n      sload\n      swap1\n      0x0100\n      exp\n      swap1\n      div\n      0xffffffffffffffffffffffffffffffffffffffff\n      and\n      0xffffffffffffffffffffffffffffffffffffffff\n      and\n      0xffffffffffffffffffffffffffffffffffffffff\n      and\n      dup2\n      mstore\n      0x20\n      add\n      0x03\n      dup3\n      add\n      sload\n      dup2\n      mstore\n      0x20\n      add\n      0x04\n      dup3\n      add\n      sload\n      dup2\n      mstore\n      0x20\n      add\n      0x05\n      dup3\n      add\n      sload\n      dup2\n      mstore\n      0x20\n      add\n      0x06\n      dup3\n      add\n      0x00\n      swap1\n      sload\n      swap1\n      0x0100\n      exp\n      swap1\n      div\n      0xff\n      and\n      0x02\n      dup2\n      gt\n      iszero\n      tag_308\n      jumpi\n      tag_309\n      tag_116\n      jump\t// in\n    tag_309:\n    tag_308:\n      0x02\n      dup2\n      gt\n      iszero\n      tag_310\n      jumpi\n      tag_311\n      tag_116\n      jump\t// in\n    tag_311:\n    tag_310:\n      dup2\n      mstore\n      pop\n      pop\n      swap1\n      pop\n        /* \"src/SupplyChainTracker.sol\":6703:6827  function getTransfer(uint256 transferId) public view returns (Transfer memory) {... */\n      swap2\n      swap1\n      pop\n      jump\t// out\n        /* \"src/SupplyChainTracker.sol\":3969:4648  function createToken(... */\n    tag_97:\n        /* \"src/SupplyChainTracker.sol\":2460:2474  uint256 userId */\n      0x00\n        /* \"src/SupplyChainTracker.sol\":2477:2492  addressToUserId */\n      0x06\n        /* \"src/SupplyChainTracker.sol\":2477:2504  addressToUserId[msg.sender] */\n      0x00\n        /* \"src/SupplyChainTracker.sol\":2493:2503  msg.sender */\n      caller\n        /* \"src/SupplyChainTracker.sol\":2477:2504  addressToUserId[msg.sender] */\n      0xffffffffffffffffffffffffffffffffffffffff\n      and\n      0xffffffffffffffffffffffffffffffffffffffff\n      and\n      dup2\n      mstore\n      0x20\n      add\n      swap1\n      dup2\n      mstore\n      0x20\n      add\n      0x00\n      keccak256\n      sload\n        /* \"src/SupplyChainTracker.sol\":2460:2504  uint256 userId = addressToUserId[msg.sender] */\n      swap1\n      pop\n        /* \"src/SupplyChainTracker.sol\":2532:2533  0 */\n      0x00\n        /* \"src/SupplyChainTracker.sol\":2522:2528  userId */\n      dup2\n        /* \"src/SupplyChainTracker.sol\":2522:2533  userId != 0 */\n      eq\n      iszero\n        /* \"src/SupplyChainTracker.sol\":2522:2580  userId != 0 && users[userId].status == UserStatus.Approved */\n      dup1\n      iszero\n      tag_313\n      jumpi\n      pop\n        /* \"src/SupplyChainTracker.sol\":2561:2580  UserStatus.Approved */\n      0x01\n        /* \"src/SupplyChainTracker.sol\":2537:2580  users[userId].status == UserStatus.Approved */\n      0x03\n      dup2\n      gt\n      iszero\n      tag_314\n      jumpi\n      tag_315\n      tag_116\n      jump\t// in\n    tag_315:\n    tag_314:\n        /* \"src/SupplyChainTracker.sol\":2537:2542  users */\n      0x05\n        /* \"src/SupplyChainTracker.sol\":2537:2550  users[userId] */\n      0x00\n        /* \"src/SupplyChainTracker.sol\":2543:2549  userId */\n      dup4\n        /* \"src/SupplyChainTracker.sol\":2537:2550  users[userId] */\n      dup2\n      mstore\n      0x20\n      add\n      swap1\n      dup2\n      mstore\n      0x20\n      add\n      0x00\n      keccak256\n        /* \"src/SupplyChainTracker.sol\":2537:2557  users[userId].status */\n      0x03\n      add\n      0x00\n      swap1\n      sload\n      swap1\n      0x0100\n      exp\n      swap1\n      div\n      0xff\n      and\n        /* \"src/SupplyChainTracker.sol\":2537:2580  users[userId].status == UserStatus.Approved */\n      0x03\n      dup2\n      gt\n      iszero\n      tag_316\n      jumpi\n      tag_317\n      tag_116\n      jump\t// in\n    tag_317:\n    tag_316:\n      eq\n        /* \"src/SupplyChainTracker.sol\":2522:2580  userId != 0 && users[userId].status == UserStatus.Approved */\n    tag_313:\n        /* \"src/SupplyChainTracker.sol\":2514:2597  require(userId != 0 && users[userId].status == UserStatus.Approved, \"Not approved\") */\n      tag_318\n      jumpi\n      mload(0x40)\n      0x08c379a000000000000000000000000000000000000000000000000000000000\n      dup2\n      mstore\n      0x04\n      add\n      tag_319\n      swap1\n      tag_121\n      jump\t// in\n    tag_319:\n      mload(0x40)\n      dup1\n      swap2\n      sub\n      swap1\n      revert\n    tag_318:\n        /* \"src/SupplyChainTracker.sol\":4178:4179  0 */\n      0x00\n        /* \"src/SupplyChainTracker.sol\":4163:4167  name */\n      dup8\n      dup8\n        /* \"src/SupplyChainTracker.sol\":4157:4175  bytes(name).length */\n      swap1\n      pop\n        /* \"src/SupplyChainTracker.sol\":4157:4179  bytes(name).length > 0 */\n      gt\n        /* \"src/SupplyChainTracker.sol\":4149:4194  require(bytes(name).length > 0, \"Name empty\") */\n      tag_321\n      jumpi\n      mload(0x40)\n      0x08c379a000000000000000000000000000000000000000000000000000000000\n      dup2\n      mstore\n      0x04\n      add\n      tag_322\n      swap1\n      tag_323\n      jump\t// in\n    tag_322:\n      mload(0x40)\n      dup1\n      swap2\n      sub\n      swap1\n      revert\n    tag_321:\n        /* \"src/SupplyChainTracker.sol\":4204:4217  uint256 newId */\n      0x00\n        /* \"src/SupplyChainTracker.sol\":4220:4231  nextTokenId */\n      0x00\n      0x00\n        /* \"src/SupplyChainTracker.sol\":4220:4233  nextTokenId++ */\n      dup2\n      sload\n      dup1\n      swap3\n      swap2\n      swap1\n      tag_324\n      swap1\n      tag_157\n      jump\t// in\n    tag_324:\n      swap2\n      swap1\n      pop\n      sstore\n        /* \"src/SupplyChainTracker.sol\":4204:4233  uint256 newId = nextTokenId++ */\n      swap1\n      pop\n        /* \"src/SupplyChainTracker.sol\":4243:4260  Token storage tkn */\n      0x00\n        /* \"src/SupplyChainTracker.sol\":4263:4269  tokens */\n      0x03\n        /* \"src/SupplyChainTracker.sol\":4263:4276  tokens[newId] */\n      0x00\n        /* \"src/SupplyChainTracker.sol\":4270:4275  newId */\n      dup4\n        /* \"src/SupplyChainTracker.sol\":4263:4276  tokens[newId] */\n      dup2\n      mstore\n      0x20\n      add\n      swap1\n      dup2\n      mstore\n      0x20\n      add\n      0x00\n      keccak256\n        /* \"src/SupplyChainTracker.sol\":4243:4276  Token storage tkn = tokens[newId] */\n      swap1\n      pop\n        /* \"src/SupplyChainTracker.sol\":4295:4300  newId */\n      dup2\n        /* \"src/SupplyChainTracker.sol\":4286:4289  tkn */\n      dup2\n        /* \"src/SupplyChainTracker.sol\":4286:4292  tkn.id */\n      0x00\n      add\n        /* \"src/SupplyChainTracker.sol\":4286:4300  tkn.id = newId */\n      dup2\n      swap1\n      sstore\n      pop\n        /* \"src/SupplyChainTracker.sol\":4324:4334  msg.sender */\n      caller\n        /* \"src/SupplyChainTracker.sol\":4310:4313  tkn */\n      dup2\n        /* \"src/SupplyChainTracker.sol\":4310:4321  tkn.creator */\n      0x01\n      add\n      0x00\n        /* \"src/SupplyChainTracker.sol\":4310:4334  tkn.creator = msg.sender */\n      0x0100\n      exp\n      dup2\n      sload\n      dup2\n      0xffffffffffffffffffffffffffffffffffffffff\n      mul\n      not\n      and\n      swap1\n      dup4\n      0xffffffffffffffffffffffffffffffffffffffff\n      and\n      mul\n      or\n      swap1\n      sstore\n      pop\n        /* \"src/SupplyChainTracker.sol\":4355:4359  name */\n      dup9\n      dup9\n        /* \"src/SupplyChainTracker.sol\":4344:4347  tkn */\n      dup3\n        /* \"src/SupplyChainTracker.sol\":4344:4352  tkn.name */\n      0x02\n      add\n        /* \"src/SupplyChainTracker.sol\":4344:4359  tkn.name = name */\n      swap2\n      dup3\n      tag_325\n      swap3\n      swap2\n      swap1\n      tag_326\n      jump\t// in\n    tag_325:\n      pop\n        /* \"src/SupplyChainTracker.sol\":4387:4398  totalSupply */\n      dup7\n        /* \"src/SupplyChainTracker.sol\":4369:4372  tkn */\n      dup2\n        /* \"src/SupplyChainTracker.sol\":4369:4384  tkn.totalSupply */\n      0x03\n      add\n        /* \"src/SupplyChainTracker.sol\":4369:4398  tkn.totalSupply = totalSupply */\n      dup2\n      swap1\n      sstore\n      pop\n        /* \"src/SupplyChainTracker.sol\":4423:4431  features */\n      dup6\n      dup6\n        /* \"src/SupplyChainTracker.sol\":4408:4411  tkn */\n      dup3\n        /* \"src/SupplyChainTracker.sol\":4408:4420  tkn.features */\n      0x04\n      add\n        /* \"src/SupplyChainTracker.sol\":4408:4431  tkn.features = features */\n      swap2\n      dup3\n      tag_327\n      swap3\n      swap2\n      swap1\n      tag_326\n      jump\t// in\n    tag_327:\n      pop\n        /* \"src/SupplyChainTracker.sol\":4456:4464  parentId */\n      dup4\n        /* \"src/SupplyChainTracker.sol\":4441:4444  tkn */\n      dup2\n        /* \"src/SupplyChainTracker.sol\":4441:4453  tkn.parentId */\n      0x05\n      add\n        /* \"src/SupplyChainTracker.sol\":4441:4464  tkn.parentId = parentId */\n      dup2\n      swap1\n      sstore\n      pop\n        /* \"src/SupplyChainTracker.sol\":4492:4507  block.timestamp */\n      timestamp\n        /* \"src/SupplyChainTracker.sol\":4474:4477  tkn */\n      dup2\n        /* \"src/SupplyChainTracker.sol\":4474:4489  tkn.dateCreated */\n      0x06\n      add\n        /* \"src/SupplyChainTracker.sol\":4474:4507  tkn.dateCreated = block.timestamp */\n      dup2\n      swap1\n      sstore\n      pop\n        /* \"src/SupplyChainTracker.sol\":4543:4554  totalSupply */\n      dup7\n        /* \"src/SupplyChainTracker.sol\":4517:4520  tkn */\n      dup2\n        /* \"src/SupplyChainTracker.sol\":4517:4528  tkn.balance */\n      0x07\n      add\n        /* \"src/SupplyChainTracker.sol\":4517:4540  tkn.balance[msg.sender] */\n      0x00\n        /* \"src/SupplyChainTracker.sol\":4529:4539  msg.sender */\n      caller\n        /* \"src/SupplyChainTracker.sol\":4517:4540  tkn.balance[msg.sender] */\n      0xffffffffffffffffffffffffffffffffffffffff\n      and\n      0xffffffffffffffffffffffffffffffffffffffff\n      and\n      dup2\n      mstore\n      0x20\n      add\n      swap1\n      dup2\n      mstore\n      0x20\n      add\n      0x00\n      keccak256\n        /* \"src/SupplyChainTracker.sol\":4517:4554  tkn.balance[msg.sender] = totalSupply */\n      dup2\n      swap1\n      sstore\n      pop\n        /* \"src/SupplyChainTracker.sol\":4611:4621  msg.sender */\n      caller\n        /* \"src/SupplyChainTracker.sol\":4591:4641  TokenCreated(newId, msg.sender, name, totalSupply) */\n      0xffffffffffffffffffffffffffffffffffffffff\n      and\n        /* \"src/SupplyChainTracker.sol\":4604:4609  newId */\n      dup3\n        /* \"src/SupplyChainTracker.sol\":4591:4641  TokenCreated(newId, msg.sender, name, totalSupply) */\n      0x463ec2a62c46678a81e23cde640446ca4b512f102bb3309cf5a3e2a4ae831464\n        /* \"src/SupplyChainTracker.sol\":4623:4627  name */\n      dup12\n      dup12\n        /* \"src/SupplyChainTracker.sol\":4629:4640  totalSupply */\n      dup12\n        /* \"src/SupplyChainTracker.sol\":4591:4641  TokenCreated(newId, msg.sender, name, totalSupply) */\n      mload(0x40)\n      tag_328\n      swap4\n      swap3\n      swap2\n      swap1\n      tag_329\n      jump\t// in\n    tag_328:\n      mload(0x40)\n      dup1\n      swap2\n      sub\n      swap1\n      log3\n        /* \"src/SupplyChainTracker.sol\":4139:4648  {... */\n      pop\n      pop\n        /* \"src/SupplyChainTracker.sol\":2450:2615  {... */\n      pop\n        /* \"src/SupplyChainTracker.sol\":3969:4648  function createToken(... */\n      pop\n      pop\n      pop\n      pop\n      pop\n      pop\n      jump\t// out\n        /* \"src/SupplyChainTracker.sol\":4654:5241  function getToken(uint256 tokenId) public view returns (... */\n    tag_100:\n        /* \"src/SupplyChainTracker.sol\":4719:4729  uint256 id */\n      0x00\n        /* \"src/SupplyChainTracker.sol\":4739:4754  address creator */\n      0x00\n        /* \"src/SupplyChainTracker.sol\":4764:4782  string memory name */\n      0x60\n        /* \"src/SupplyChainTracker.sol\":4792:4811  uint256 totalSupply */\n      0x00\n        /* \"src/SupplyChainTracker.sol\":4821:4843  string memory features */\n      0x60\n        /* \"src/SupplyChainTracker.sol\":4853:4869  uint256 parentId */\n      0x00\n        /* \"src/SupplyChainTracker.sol\":4879:4898  uint256 dateCreated */\n      0x00\n        /* \"src/SupplyChainTracker.sol\":4908:4923  uint256 balance */\n      0x00\n        /* \"src/SupplyChainTracker.sol\":4940:4959  Token storage token */\n      0x00\n        /* \"src/SupplyChainTracker.sol\":4962:4968  tokens */\n      0x03\n        /* \"src/SupplyChainTracker.sol\":4962:4977  tokens[tokenId] */\n      0x00\n        /* \"src/SupplyChainTracker.sol\":4969:4976  tokenId */\n      dup12\n        /* \"src/SupplyChainTracker.sol\":4962:4977  tokens[tokenId] */\n      dup2\n      mstore\n      0x20\n      add\n      swap1\n      dup2\n      mstore\n      0x20\n      add\n      0x00\n      keccak256\n        /* \"src/SupplyChainTracker.sol\":4940:4977  Token storage token = tokens[tokenId] */\n      swap1\n      pop\n        /* \"src/SupplyChainTracker.sol\":5008:5013  token */\n      dup1\n        /* \"src/SupplyChainTracker.sol\":5008:5016  token.id */\n      0x00\n      add\n      sload\n        /* \"src/SupplyChainTracker.sol\":5030:5035  token */\n      dup2\n        /* \"src/SupplyChainTracker.sol\":5030:5043  token.creator */\n      0x01\n      add\n      0x00\n      swap1\n      sload\n      swap1\n      0x0100\n      exp\n      swap1\n      div\n      0xffffffffffffffffffffffffffffffffffffffff\n      and\n        /* \"src/SupplyChainTracker.sol\":5057:5062  token */\n      dup3\n        /* \"src/SupplyChainTracker.sol\":5057:5067  token.name */\n      0x02\n      add\n        /* \"src/SupplyChainTracker.sol\":5081:5086  token */\n      dup4\n        /* \"src/SupplyChainTracker.sol\":5081:5098  token.totalSupply */\n      0x03\n      add\n      sload\n        /* \"src/SupplyChainTracker.sol\":5112:5117  token */\n      dup5\n        /* \"src/SupplyChainTracker.sol\":5112:5126  token.features */\n      0x04\n      add\n        /* \"src/SupplyChainTracker.sol\":5140:5145  token */\n      dup6\n        /* \"src/SupplyChainTracker.sol\":5140:5154  token.parentId */\n      0x05\n      add\n      sload\n        /* \"src/SupplyChainTracker.sol\":5168:5173  token */\n      dup7\n        /* \"src/SupplyChainTracker.sol\":5168:5185  token.dateCreated */\n      0x06\n      add\n      sload\n        /* \"src/SupplyChainTracker.sol\":5199:5204  token */\n      dup8\n        /* \"src/SupplyChainTracker.sol\":5199:5212  token.balance */\n      0x07\n      add\n        /* \"src/SupplyChainTracker.sol\":5199:5224  token.balance[msg.sender] */\n      0x00\n        /* \"src/SupplyChainTracker.sol\":5213:5223  msg.sender */\n      caller\n        /* \"src/SupplyChainTracker.sol\":5199:5224  token.balance[msg.sender] */\n      0xffffffffffffffffffffffffffffffffffffffff\n      and\n      0xffffffffffffffffffffffffffffffffffffffff\n      and\n      dup2\n      mstore\n      0x20\n      add\n      swap1\n      dup2\n      mstore\n      0x20\n      add\n      0x00\n      keccak256\n      sload\n        /* \"src/SupplyChainTracker.sol\":4987:5234  return (... */\n      dup6\n      dup1\n      sload\n      tag_331\n      swap1\n      tag_250\n      jump\t// in\n    tag_331:\n      dup1\n      0x1f\n      add\n      0x20\n      dup1\n      swap2\n      div\n      mul\n      0x20\n      add\n      mload(0x40)\n      swap1\n      dup2\n      add\n      0x40\n      mstore\n      dup1\n      swap3\n      swap2\n      swap1\n      dup2\n      dup2\n      mstore\n      0x20\n      add\n      dup3\n      dup1\n      sload\n      tag_332\n      swap1\n      tag_250\n      jump\t// in\n    tag_332:\n      dup1\n      iszero\n      tag_333\n      jumpi\n      dup1\n      0x1f\n      lt\n      tag_334\n      jumpi\n      0x0100\n      dup1\n      dup4\n      sload\n      div\n      mul\n      dup4\n      mstore\n      swap2\n      0x20\n      add\n      swap2\n      jump(tag_333)\n    tag_334:\n      dup3\n      add\n      swap2\n      swap1\n      0x00\n      mstore\n      keccak256(0x00, 0x20)\n      swap1\n    tag_335:\n      dup2\n      sload\n      dup2\n      mstore\n      swap1\n      0x01\n      add\n      swap1\n      0x20\n      add\n      dup1\n      dup4\n      gt\n      tag_335\n      jumpi\n      dup3\n      swap1\n      sub\n      0x1f\n      and\n      dup3\n      add\n      swap2\n    tag_333:\n      pop\n      pop\n      pop\n      pop\n      pop\n      swap6\n      pop\n      dup4\n      dup1\n      sload\n      tag_336\n      swap1\n      tag_250\n      jump\t// in\n    tag_336:\n      dup1\n      0x1f\n      add\n      0x20\n      dup1\n      swap2\n      div\n      mul\n      0x20\n      add\n      mload(0x40)\n      swap1\n      dup2\n      add\n      0x40\n      mstore\n      dup1\n      swap3\n      swap2\n      swap1\n      dup2\n      dup2\n      mstore\n      0x20\n      add\n      dup3\n      dup1\n      sload\n      tag_337\n      swap1\n      tag_250\n      jump\t// in\n    tag_337:\n      dup1\n      iszero\n      tag_338\n      jumpi\n      dup1\n      0x1f\n      lt\n      tag_339\n      jumpi\n      0x0100\n      dup1\n      dup4\n      sload\n      div\n      mul\n      dup4\n      mstore\n      swap2\n      0x20\n      add\n      swap2\n      jump(tag_338)\n    tag_339:\n      dup3\n      add\n      swap2\n      swap1\n      0x00\n      mstore\n      keccak256(0x00, 0x20)\n      swap1\n    tag_340:\n      dup2\n      sload\n      dup2\n      mstore\n      swap1\n      0x01\n      add\n      swap1\n      0x20\n      add\n      dup1\n      dup4\n      gt\n      tag_340\n      jumpi\n      dup3\n      swap1\n      sub\n      0x1f\n      and\n      dup3\n      add\n      swap2\n    tag_338:\n      pop\n      pop\n      pop\n      pop\n      pop\n      swap4\n      pop\n      swap9\n      pop\n      swap9\n      pop\n      swap9\n      pop\n      swap9\n      pop\n      swap9\n      pop\n      swap9\n      pop\n      swap9\n      pop\n      swap9\n      pop\n      pop\n        /* \"src/SupplyChainTracker.sol\":4654:5241  function getToken(uint256 tokenId) public view returns (... */\n      swap2\n      swap4\n      swap6\n      swap8\n      pop\n      swap2\n      swap4\n      swap6\n      swap8\n      jump\t// out\n        /* \"src/SupplyChainTracker.sol\":5247:5450  function getTokenBalance(uint256 tokenId, address user) public view returns (uint256) {... */\n    tag_106:\n        /* \"src/SupplyChainTracker.sol\":5324:5331  uint256 */\n      0x00\n        /* \"src/SupplyChainTracker.sol\":5361:5372  nextTokenId */\n      sload(0x00)\n        /* \"src/SupplyChainTracker.sol\":5351:5358  tokenId */\n      dup4\n        /* \"src/SupplyChainTracker.sol\":5351:5372  tokenId < nextTokenId */\n      lt\n        /* \"src/SupplyChainTracker.sol\":5343:5397  require(tokenId < nextTokenId, \"Token does not exist\") */\n      tag_342\n      jumpi\n      mload(0x40)\n      0x08c379a000000000000000000000000000000000000000000000000000000000\n      dup2\n      mstore\n      0x04\n      add\n      tag_343\n      swap1\n      tag_135\n      jump\t// in\n    tag_343:\n      mload(0x40)\n      dup1\n      swap2\n      sub\n      swap1\n      revert\n    tag_342:\n        /* \"src/SupplyChainTracker.sol\":5414:5420  tokens */\n      0x03\n        /* \"src/SupplyChainTracker.sol\":5414:5429  tokens[tokenId] */\n      0x00\n        /* \"src/SupplyChainTracker.sol\":5421:5428  tokenId */\n      dup5\n        /* \"src/SupplyChainTracker.sol\":5414:5429  tokens[tokenId] */\n      dup2\n      mstore\n      0x20\n      add\n      swap1\n      dup2\n      mstore\n      0x20\n      add\n      0x00\n      keccak256\n        /* \"src/SupplyChainTracker.sol\":5414:5437  tokens[tokenId].balance */\n      0x07\n      add\n        /* \"src/SupplyChainTracker.sol\":5414:5443  tokens[tokenId].balance[user] */\n      0x00\n        /* \"src/SupplyChainTracker.sol\":5438:5442  user */\n      dup4\n        /* \"src/SupplyChainTracker.sol\":5414:5443  tokens[tokenId].balance[user] */\n      0xffffffffffffffffffffffffffffffffffffffff\n      and\n      0xffffffffffffffffffffffffffffffffffffffff\n      and\n      dup2\n      mstore\n      0x20\n      add\n      swap1\n      dup2\n      mstore\n      0x20\n      add\n      0x00\n      keccak256\n      sload\n        /* \"src/SupplyChainTracker.sol\":5407:5443  return tokens[tokenId].balance[user] */\n      swap1\n      pop\n        /* \"src/SupplyChainTracker.sol\":5247:5450  function getTokenBalance(uint256 tokenId, address user) public view returns (uint256) {... */\n      swap3\n      swap2\n      pop\n      pop\n      jump\t// out\n        /* \"src/SupplyChainTracker.sol\":1448:1478  address public immutable admin */\n    tag_109:\n      immutable(\"0x7aec2e6420b6fcb778a66c2b9d8fa18a316e494bda11ec5e5a11deee861d114c\")\n      dup2\n      jump\t// out\n        /* \"@openzeppelin/contracts/utils/ReentrancyGuard.sol\":3749:4041  function _nonReentrantBefore() private {... */\n    tag_124:\n        /* \"@openzeppelin/contracts/utils/ReentrancyGuard.sol\":3872:3897  _nonReentrantBeforeView() */\n      tag_345\n        /* \"@openzeppelin/contracts/utils/ReentrancyGuard.sol\":3872:3895  _nonReentrantBeforeView */\n      tag_346\n        /* \"@openzeppelin/contracts/utils/ReentrancyGuard.sol\":3872:3897  _nonReentrantBeforeView() */\n      jump\t// in\n    tag_345:\n        /* \"@openzeppelin/contracts/utils/ReentrancyGuard.sol\":2407:2408  2 */\n      0x02\n        /* \"@openzeppelin/contracts/utils/ReentrancyGuard.sol\":3972:4018  _reentrancyGuardStorageSlot().getUint256Slot() */\n      tag_347\n        /* \"@openzeppelin/contracts/utils/ReentrancyGuard.sol\":3972:4001  _reentrancyGuardStorageSlot() */\n      tag_348\n        /* \"@openzeppelin/contracts/utils/ReentrancyGuard.sol\":3972:3999  _reentrancyGuardStorageSlot */\n      tag_349\n        /* \"@openzeppelin/contracts/utils/ReentrancyGuard.sol\":3972:4001  _reentrancyGuardStorageSlot() */\n      jump\t// in\n    tag_348:\n        /* \"@openzeppelin/contracts/utils/ReentrancyGuard.sol\":3972:4016  _reentrancyGuardStorageSlot().getUint256Slot */\n      tag_350\n        /* \"@openzeppelin/contracts/utils/ReentrancyGuard.sol\":3972:4018  _reentrancyGuardStorageSlot().getUint256Slot() */\n      jump\t// in\n    tag_347:\n        /* \"@openzeppelin/contracts/utils/ReentrancyGuard.sol\":3972:4024  _reentrancyGuardStorageSlot().getUint256Slot().value */\n      0x00\n      add\n        /* \"@openzeppelin/contracts/utils/ReentrancyGuard.sol\":3972:4034  _reentrancyGuardStorageSlot().getUint256Slot().value = ENTERED */\n      dup2\n      swap1\n      sstore\n      pop\n        /* \"@openzeppelin/contracts/utils/ReentrancyGuard.sol\":3749:4041  function _nonReentrantBefore() private {... */\n      jump\t// out\n        /* \"src/SupplyChainTracker.sol\":8131:8235  function _isConsumer(bytes32 role) internal pure returns (bool) {... */\n    tag_140:\n        /* \"src/SupplyChainTracker.sol\":8189:8193  bool */\n      0x00\n        /* \"src/SupplyChainTracker.sol\":657:678  keccak256(\"Consumer\") */\n      0xc0878b4b16a78e8085cba0ca02fc0924f1492924058d153153a3f286e0fd70ff\n        /* \"src/SupplyChainTracker.sol\":8212:8216  role */\n      dup3\n        /* \"src/SupplyChainTracker.sol\":8212:8228  role == CONSUMER */\n      eq\n        /* \"src/SupplyChainTracker.sol\":8205:8228  return role == CONSUMER */\n      swap1\n      pop\n        /* \"src/SupplyChainTracker.sol\":8131:8235  function _isConsumer(bytes32 role) internal pure returns (bool) {... */\n      swap2\n      swap1\n      pop\n      jump\t// out\n        /* \"src/SupplyChainTracker.sol\":7831:8125  function _isNextRole(bytes32 fromRole, bytes32 toRole) internal pure returns (bool) {... */\n    tag_145:\n        /* \"src/SupplyChainTracker.sol\":7909:7913  bool */\n      0x00\n        /* \"src/SupplyChainTracker.sol\":470:491  keccak256(\"Producer\") */\n      0x95329f0f598032755f454b63034035528a2f09e00bb3dde055a4f8e3f7b11683\n        /* \"src/SupplyChainTracker.sol\":7947:7955  fromRole */\n      dup4\n        /* \"src/SupplyChainTracker.sol\":7947:7967  fromRole == PRODUCER */\n      eq\n        /* \"src/SupplyChainTracker.sol\":7947:7988  fromRole == PRODUCER && toRole == FACTORY */\n      dup1\n      iszero\n      tag_353\n      jumpi\n      pop\n        /* \"src/SupplyChainTracker.sol\":532:552  keccak256(\"Factory\") */\n      0x992f90ffb92c5ad86f1df6829115f18aaea41d6094dadc8955c35086081a7bb9\n        /* \"src/SupplyChainTracker.sol\":7971:7977  toRole */\n      dup3\n        /* \"src/SupplyChainTracker.sol\":7971:7988  toRole == FACTORY */\n      eq\n        /* \"src/SupplyChainTracker.sol\":7947:7988  fromRole == PRODUCER && toRole == FACTORY */\n    tag_353:\n        /* \"src/SupplyChainTracker.sol\":7946:8048  (fromRole == PRODUCER && toRole == FACTORY) ||... */\n      dup1\n      tag_354\n      jumpi\n      pop\n        /* \"src/SupplyChainTracker.sol\":532:552  keccak256(\"Factory\") */\n      0x992f90ffb92c5ad86f1df6829115f18aaea41d6094dadc8955c35086081a7bb9\n        /* \"src/SupplyChainTracker.sol\":8006:8014  fromRole */\n      dup4\n        /* \"src/SupplyChainTracker.sol\":8006:8025  fromRole == FACTORY */\n      eq\n        /* \"src/SupplyChainTracker.sol\":8006:8047  fromRole == FACTORY && toRole == RETAILER */\n      dup1\n      iszero\n      tag_355\n      jumpi\n      pop\n        /* \"src/SupplyChainTracker.sol\":594:615  keccak256(\"Retailer\") */\n      0x1534e98f9dd33e3681193a0541f0c2e3d732d183dcdc630aac2b943280af42a0\n        /* \"src/SupplyChainTracker.sol\":8029:8035  toRole */\n      dup3\n        /* \"src/SupplyChainTracker.sol\":8029:8047  toRole == RETAILER */\n      eq\n        /* \"src/SupplyChainTracker.sol\":8006:8047  fromRole == FACTORY && toRole == RETAILER */\n    tag_355:\n        /* \"src/SupplyChainTracker.sol\":7946:8048  (fromRole == PRODUCER && toRole == FACTORY) ||... */\n    tag_354:\n        /* \"src/SupplyChainTracker.sol\":7946:8108  (fromRole == PRODUCER && toRole == FACTORY) ||... */\n      dup1\n      tag_356\n      jumpi\n      pop\n        /* \"src/SupplyChainTracker.sol\":594:615  keccak256(\"Retailer\") */\n      0x1534e98f9dd33e3681193a0541f0c2e3d732d183dcdc630aac2b943280af42a0\n        /* \"src/SupplyChainTracker.sol\":8065:8073  fromRole */\n      dup4\n        /* \"src/SupplyChainTracker.sol\":8065:8085  fromRole == RETAILER */\n      eq\n        /* \"src/SupplyChainTracker.sol\":8065:8107  fromRole == RETAILER && toRole == CONSUMER */\n      dup1\n      iszero\n      tag_357\n      jumpi\n      pop\n        /* \"src/SupplyChainTracker.sol\":657:678  keccak256(\"Consumer\") */\n      0xc0878b4b16a78e8085cba0ca02fc0924f1492924058d153153a3f286e0fd70ff\n        /* \"src/SupplyChainTracker.sol\":8089:8095  toRole */\n      dup3\n        /* \"src/SupplyChainTracker.sol\":8089:8107  toRole == CONSUMER */\n      eq\n        /* \"src/SupplyChainTracker.sol\":8065:8107  fromRole == RETAILER && toRole == CONSUMER */\n    tag_357:\n        /* \"src/SupplyChainTracker.sol\":7946:8108  (fromRole == PRODUCER && toRole == FACTORY) ||... */\n    tag_356:\n        /* \"src/SupplyChainTracker.sol\":7925:8118  return (... */\n      swap1\n      pop\n        /* \"src/SupplyChainTracker.sol\":7831:8125  function _isNextRole(bytes32 fromRole, bytes32 toRole) internal pure returns (bool) {... */\n      swap3\n      swap2\n      pop\n      pop\n      jump\t// out\n        /* \"@openzeppelin/contracts/utils/ReentrancyGuard.sol\":4047:4300  function _nonReentrantAfter() private {... */\n    tag_165:\n        /* \"@openzeppelin/contracts/utils/ReentrancyGuard.sol\":2365:2366  1 */\n      0x01\n        /* \"@openzeppelin/contracts/utils/ReentrancyGuard.sol\":4227:4273  _reentrancyGuardStorageSlot().getUint256Slot() */\n      tag_359\n        /* \"@openzeppelin/contracts/utils/ReentrancyGuard.sol\":4227:4256  _reentrancyGuardStorageSlot() */\n      tag_360\n        /* \"@openzeppelin/contracts/utils/ReentrancyGuard.sol\":4227:4254  _reentrancyGuardStorageSlot */\n      tag_349\n        /* \"@openzeppelin/contracts/utils/ReentrancyGuard.sol\":4227:4256  _reentrancyGuardStorageSlot() */\n      jump\t// in\n    tag_360:\n        /* \"@openzeppelin/contracts/utils/ReentrancyGuard.sol\":4227:4271  _reentrancyGuardStorageSlot().getUint256Slot */\n      tag_350\n        /* \"@openzeppelin/contracts/utils/ReentrancyGuard.sol\":4227:4273  _reentrancyGuardStorageSlot().getUint256Slot() */\n      jump\t// in\n    tag_359:\n        /* \"@openzeppelin/contracts/utils/ReentrancyGuard.sol\":4227:4279  _reentrancyGuardStorageSlot().getUint256Slot().value */\n      0x00\n      add\n        /* \"@openzeppelin/contracts/utils/ReentrancyGuard.sol\":4227:4293  _reentrancyGuardStorageSlot().getUint256Slot().value = NOT_ENTERED */\n      dup2\n      swap1\n      sstore\n      pop\n        /* \"@openzeppelin/contracts/utils/ReentrancyGuard.sol\":4047:4300  function _nonReentrantAfter() private {... */\n      jump\t// out\n        /* \"@openzeppelin/contracts/utils/ReentrancyGuard.sol\":3586:3743  function _nonReentrantBeforeView() private view {... */\n    tag_346:\n        /* \"@openzeppelin/contracts/utils/ReentrancyGuard.sol\":3648:3673  _reentrancyGuardEntered() */\n      tag_362\n        /* \"@openzeppelin/contracts/utils/ReentrancyGuard.sol\":3648:3671  _reentrancyGuardEntered */\n      tag_363\n        /* \"@openzeppelin/contracts/utils/ReentrancyGuard.sol\":3648:3673  _reentrancyGuardEntered() */\n      jump\t// in\n    tag_362:\n        /* \"@openzeppelin/contracts/utils/ReentrancyGuard.sol\":3644:3737  if (_reentrancyGuardEntered()) {... */\n      iszero\n      tag_364\n      jumpi\n        /* \"@openzeppelin/contracts/utils/ReentrancyGuard.sol\":3696:3726  ReentrancyGuardReentrantCall() */\n      mload(0x40)\n      0x3ee5aeb500000000000000000000000000000000000000000000000000000000\n      dup2\n      mstore\n      0x04\n      add\n      mload(0x40)\n      dup1\n      swap2\n      sub\n      swap1\n      revert\n        /* \"@openzeppelin/contracts/utils/ReentrancyGuard.sol\":3644:3737  if (_reentrancyGuardEntered()) {... */\n    tag_364:\n        /* \"@openzeppelin/contracts/utils/ReentrancyGuard.sol\":3586:3743  function _nonReentrantBeforeView() private view {... */\n      jump\t// out\n        /* \"@openzeppelin/contracts/utils/ReentrancyGuard.sol\":4636:4763  function _reentrancyGuardStorageSlot() internal pure virtual returns (bytes32) {... */\n    tag_349:\n        /* \"@openzeppelin/contracts/utils/ReentrancyGuard.sol\":4706:4713  bytes32 */\n      0x00\n        /* \"@openzeppelin/contracts/utils/ReentrancyGuard.sol\":1505:1571  0x9b779b17422d0df92223018b32b4d1fa46e071723d6817e2486d003becc55f00 */\n      0x9b779b17422d0df92223018b32b4d1fa46e071723d6817e2486d003becc55f00\n        /* \"@openzeppelin/contracts/utils/ReentrancyGuard.sol\":4732:4756  REENTRANCY_GUARD_STORAGE */\n      0x00\n      shl\n        /* \"@openzeppelin/contracts/utils/ReentrancyGuard.sol\":4725:4756  return REENTRANCY_GUARD_STORAGE */\n      swap1\n      pop\n        /* \"@openzeppelin/contracts/utils/ReentrancyGuard.sol\":4636:4763  function _reentrancyGuardStorageSlot() internal pure virtual returns (bytes32) {... */\n      swap1\n      jump\t// out\n        /* \"@openzeppelin/contracts/utils/StorageSlot.sol\":2679:2842  function getUint256Slot(bytes32 slot) internal pure returns (Uint256Slot storage r) {... */\n    tag_350:\n        /* \"@openzeppelin/contracts/utils/StorageSlot.sol\":2740:2761  Uint256Slot storage r */\n      0x00\n        /* \"@openzeppelin/contracts/utils/StorageSlot.sol\":2822:2826  slot */\n      dup2\n        /* \"@openzeppelin/contracts/utils/StorageSlot.sol\":2812:2826  r.slot := slot */\n      swap1\n      pop\n        /* \"@openzeppelin/contracts/utils/StorageSlot.sol\":2679:2842  function getUint256Slot(bytes32 slot) internal pure returns (Uint256Slot storage r) {... */\n      swap2\n      swap1\n      pop\n      jump\t// out\n        /* \"@openzeppelin/contracts/utils/ReentrancyGuard.sol\":4479:4630  function _reentrancyGuardEntered() internal view returns (bool) {... */\n    tag_363:\n        /* \"@openzeppelin/contracts/utils/ReentrancyGuard.sol\":4537:4541  bool */\n      0x00\n        /* \"@openzeppelin/contracts/utils/ReentrancyGuard.sol\":2407:2408  2 */\n      0x02\n        /* \"@openzeppelin/contracts/utils/ReentrancyGuard.sol\":4560:4606  _reentrancyGuardStorageSlot().getUint256Slot() */\n      tag_368\n        /* \"@openzeppelin/contracts/utils/ReentrancyGuard.sol\":4560:4589  _reentrancyGuardStorageSlot() */\n      tag_369\n        /* \"@openzeppelin/contracts/utils/ReentrancyGuard.sol\":4560:4587  _reentrancyGuardStorageSlot */\n      tag_349\n        /* \"@openzeppelin/contracts/utils/ReentrancyGuard.sol\":4560:4589  _reentrancyGuardStorageSlot() */\n      jump\t// in\n    tag_369:\n        /* \"@openzeppelin/contracts/utils/ReentrancyGuard.sol\":4560:4604  _reentrancyGuardStorageSlot().getUint256Slot */\n      tag_350\n        /* \"@openzeppelin/contracts/utils/ReentrancyGuard.sol\":4560:4606  _reentrancyGuardStorageSlot().getUint256Slot() */\n      jump\t// in\n    tag_368:\n        /* \"@openzeppelin/contracts/utils/ReentrancyGuard.sol\":4560:4612  _reentrancyGuardStorageSlot().getUint256Slot().value */\n      0x00\n      add\n      sload\n        /* \"@openzeppelin/contracts/utils/ReentrancyGuard.sol\":4560:4623  _reentrancyGuardStorageSlot().getUint256Slot().value == ENTERED */\n      eq\n        /* \"@openzeppelin/contracts/utils/ReentrancyGuard.sol\":4553:4623  return _reentrancyGuardStorageSlot().getUint256Slot().value == ENTERED */\n      swap1\n      pop\n        /* \"@openzeppelin/contracts/utils/ReentrancyGuard.sol\":4479:4630  function _reentrancyGuardEntered() internal view returns (bool) {... */\n      swap1\n      jump\t// out\n    tag_284:\n      mload(0x40)\n      dup1\n      0x80\n      add\n      0x40\n      mstore\n      dup1\n      0x00\n      dup2\n      mstore\n      0x20\n      add\n      and(0xffffffffffffffffffffffffffffffffffffffff, 0x00)\n      dup2\n      mstore\n      0x20\n      add\n      0x00\n      dup2\n      mstore\n      0x20\n      add\n      0x00\n      0x03\n      dup2\n      gt\n      iszero\n      tag_370\n      jumpi\n      tag_371\n      tag_116\n      jump\t// in\n    tag_371:\n    tag_370:\n      dup2\n      mstore\n      pop\n      swap1\n      jump\t// out\n    tag_306:\n      mload(0x40)\n      dup1\n      0xe0\n      add\n      0x40\n      mstore\n      dup1\n      0x00\n      dup2\n      mstore\n      0x20\n      add\n      and(0xffffffffffffffffffffffffffffffffffffffff, 0x00)\n      dup2\n      mstore\n      0x20\n      add\n      and(0xffffffffffffffffffffffffffffffffffffffff, 0x00)\n      dup2\n      mstore\n      0x20\n      add\n      0x00\n      dup2\n      mstore\n      0x20\n      add\n      0x00\n      dup2\n      mstore\n      0x20\n      add\n      0x00\n      dup2\n      mstore\n      0x20\n      add\n      0x00\n      0x02\n      dup2\n      gt\n      iszero\n      tag_372\n      jumpi\n      tag_373\n      tag_116\n      jump\t// in\n    tag_373:\n    tag_372:\n      dup2\n      mstore\n      pop\n      swap1\n      jump\t// out\n        /* \"#utility.yul\":88:205   */\n    tag_375:\n        /* \"#utility.yul\":197:198   */\n      0x00\n        /* \"#utility.yul\":194:195   */\n      0x00\n        /* \"#utility.yul\":187:199   */\n      revert\n        /* \"#utility.yul\":211:328   */\n    tag_376:\n        /* \"#utility.yul\":320:321   */\n      0x00\n        /* \"#utility.yul\":317:318   */\n      0x00\n        /* \"#utility.yul\":310:322   */\n      revert\n        /* \"#utility.yul\":334:460   */\n    tag_377:\n        /* \"#utility.yul\":371:378   */\n      0x00\n        /* \"#utility.yul\":411:453   */\n      0xffffffffffffffffffffffffffffffffffffffff\n        /* \"#utility.yul\":404:409   */\n      dup3\n        /* \"#utility.yul\":400:454   */\n      and\n        /* \"#utility.yul\":389:454   */\n      swap1\n      pop\n        /* \"#utility.yul\":334:460   */\n      swap2\n      swap1\n      pop\n      jump\t// out\n        /* \"#utility.yul\":466:562   */\n    tag_378:\n        /* \"#utility.yul\":503:510   */\n      0x00\n        /* \"#utility.yul\":532:556   */\n      tag_478\n        /* \"#utility.yul\":550:555   */\n      dup3\n        /* \"#utility.yul\":532:556   */\n      tag_377\n      jump\t// in\n    tag_478:\n        /* \"#utility.yul\":521:556   */\n      swap1\n      pop\n        /* \"#utility.yul\":466:562   */\n      swap2\n      swap1\n      pop\n      jump\t// out\n        /* \"#utility.yul\":568:690   */\n    tag_379:\n        /* \"#utility.yul\":641:665   */\n      tag_480\n        /* \"#utility.yul\":659:664   */\n      dup2\n        /* \"#utility.yul\":641:665   */\n      tag_378\n      jump\t// in\n    tag_480:\n        /* \"#utility.yul\":634:639   */\n      dup2\n        /* \"#utility.yul\":631:666   */\n      eq\n        /* \"#utility.yul\":621:684   */\n      tag_481\n      jumpi\n        /* \"#utility.yul\":680:681   */\n      0x00\n        /* \"#utility.yul\":677:678   */\n      0x00\n        /* \"#utility.yul\":670:682   */\n      revert\n        /* \"#utility.yul\":621:684   */\n    tag_481:\n        /* \"#utility.yul\":568:690   */\n      pop\n      jump\t// out\n        /* \"#utility.yul\":696:835   */\n    tag_380:\n        /* \"#utility.yul\":742:747   */\n      0x00\n        /* \"#utility.yul\":780:786   */\n      dup2\n        /* \"#utility.yul\":767:787   */\n      calldataload\n        /* \"#utility.yul\":758:787   */\n      swap1\n      pop\n        /* \"#utility.yul\":796:829   */\n      tag_483\n        /* \"#utility.yul\":823:828   */\n      dup2\n        /* \"#utility.yul\":796:829   */\n      tag_379\n      jump\t// in\n    tag_483:\n        /* \"#utility.yul\":696:835   */\n      swap3\n      swap2\n      pop\n      pop\n      jump\t// out\n        /* \"#utility.yul\":841:918   */\n    tag_381:\n        /* \"#utility.yul\":878:885   */\n      0x00\n        /* \"#utility.yul\":907:912   */\n      dup2\n        /* \"#utility.yul\":896:912   */\n      swap1\n      pop\n        /* \"#utility.yul\":841:918   */\n      swap2\n      swap1\n      pop\n      jump\t// out\n        /* \"#utility.yul\":924:1046   */\n    tag_382:\n        /* \"#utility.yul\":997:1021   */\n      tag_486\n        /* \"#utility.yul\":1015:1020   */\n      dup2\n        /* \"#utility.yul\":997:1021   */\n      tag_381\n      jump\t// in\n    tag_486:\n        /* \"#utility.yul\":990:995   */\n      dup2\n        /* \"#utility.yul\":987:1022   */\n      eq\n        /* \"#utility.yul\":977:1040   */\n      tag_487\n      jumpi\n        /* \"#utility.yul\":1036:1037   */\n      0x00\n        /* \"#utility.yul\":1033:1034   */\n      0x00\n        /* \"#utility.yul\":1026:1038   */\n      revert\n        /* \"#utility.yul\":977:1040   */\n    tag_487:\n        /* \"#utility.yul\":924:1046   */\n      pop\n      jump\t// out\n        /* \"#utility.yul\":1052:1191   */\n    tag_383:\n        /* \"#utility.yul\":1098:1103   */\n      0x00\n        /* \"#utility.yul\":1136:1142   */\n      dup2\n        /* \"#utility.yul\":1123:1143   */\n      calldataload\n        /* \"#utility.yul\":1114:1143   */\n      swap1\n      pop\n        /* \"#utility.yul\":1152:1185   */\n      tag_489\n        /* \"#utility.yul\":1179:1184   */\n      dup2\n        /* \"#utility.yul\":1152:1185   */\n      tag_382\n      jump\t// in\n    tag_489:\n        /* \"#utility.yul\":1052:1191   */\n      swap3\n      swap2\n      pop\n      pop\n      jump\t// out\n        /* \"#utility.yul\":1197:1816   */\n    tag_28:\n        /* \"#utility.yul\":1274:1280   */\n      0x00\n        /* \"#utility.yul\":1282:1288   */\n      0x00\n        /* \"#utility.yul\":1290:1296   */\n      0x00\n        /* \"#utility.yul\":1339:1341   */\n      0x60\n        /* \"#utility.yul\":1327:1336   */\n      dup5\n        /* \"#utility.yul\":1318:1325   */\n      dup7\n        /* \"#utility.yul\":1314:1337   */\n      sub\n        /* \"#utility.yul\":1310:1342   */\n      slt\n        /* \"#utility.yul\":1307:1426   */\n      iszero\n      tag_491\n      jumpi\n        /* \"#utility.yul\":1345:1424   */\n      tag_492\n      tag_375\n      jump\t// in\n    tag_492:\n        /* \"#utility.yul\":1307:1426   */\n    tag_491:\n        /* \"#utility.yul\":1465:1466   */\n      0x00\n        /* \"#utility.yul\":1490:1543   */\n      tag_493\n        /* \"#utility.yul\":1535:1542   */\n      dup7\n        /* \"#utility.yul\":1526:1532   */\n      dup3\n        /* \"#utility.yul\":1515:1524   */\n      dup8\n        /* \"#utility.yul\":1511:1533   */\n      add\n        /* \"#utility.yul\":1490:1543   */\n      tag_380\n      jump\t// in\n    tag_493:\n        /* \"#utility.yul\":1480:1543   */\n      swap4\n      pop\n        /* \"#utility.yul\":1436:1553   */\n      pop\n        /* \"#utility.yul\":1592:1594   */\n      0x20\n        /* \"#utility.yul\":1618:1671   */\n      tag_494\n        /* \"#utility.yul\":1663:1670   */\n      dup7\n        /* \"#utility.yul\":1654:1660   */\n      dup3\n        /* \"#utility.yul\":1643:1652   */\n      dup8\n        /* \"#utility.yul\":1639:1661   */\n      add\n        /* \"#utility.yul\":1618:1671   */\n      tag_383\n      jump\t// in\n    tag_494:\n        /* \"#utility.yul\":1608:1671   */\n      swap3\n      pop\n        /* \"#utility.yul\":1563:1681   */\n      pop\n        /* \"#utility.yul\":1720:1722   */\n      0x40\n        /* \"#utility.yul\":1746:1799   */\n      tag_495\n        /* \"#utility.yul\":1791:1798   */\n      dup7\n        /* \"#utility.yul\":1782:1788   */\n      dup3\n        /* \"#utility.yul\":1771:1780   */\n      dup8\n        /* \"#utility.yul\":1767:1789   */\n      add\n        /* \"#utility.yul\":1746:1799   */\n      tag_383\n      jump\t// in\n    tag_495:\n        /* \"#utility.yul\":1736:1799   */\n      swap2\n      pop\n        /* \"#utility.yul\":1691:1809   */\n      pop\n        /* \"#utility.yul\":1197:1816   */\n      swap3\n      pop\n      swap3\n      pop\n      swap3\n      jump\t// out\n        /* \"#utility.yul\":1822:2151   */\n    tag_32:\n        /* \"#utility.yul\":1881:1887   */\n      0x00\n        /* \"#utility.yul\":1930:1932   */\n      0x20\n        /* \"#utility.yul\":1918:1927   */\n      dup3\n        /* \"#utility.yul\":1909:1916   */\n      dup5\n        /* \"#utility.yul\":1905:1928   */\n      sub\n        /* \"#utility.yul\":1901:1933   */\n      slt\n        /* \"#utility.yul\":1898:2017   */\n      iszero\n      tag_497\n      jumpi\n        /* \"#utility.yul\":1936:2015   */\n      tag_498\n      tag_375\n      jump\t// in\n    tag_498:\n        /* \"#utility.yul\":1898:2017   */\n    tag_497:\n        /* \"#utility.yul\":2056:2057   */\n      0x00\n        /* \"#utility.yul\":2081:2134   */\n      tag_499\n        /* \"#utility.yul\":2126:2133   */\n      dup5\n        /* \"#utility.yul\":2117:2123   */\n      dup3\n        /* \"#utility.yul\":2106:2115   */\n      dup6\n        /* \"#utility.yul\":2102:2124   */\n      add\n        /* \"#utility.yul\":2081:2134   */\n      tag_383\n      jump\t// in\n    tag_499:\n        /* \"#utility.yul\":2071:2134   */\n      swap2\n      pop\n        /* \"#utility.yul\":2027:2144   */\n      pop\n        /* \"#utility.yul\":1822:2151   */\n      swap3\n      swap2\n      pop\n      pop\n      jump\t// out\n        /* \"#utility.yul\":2157:2486   */\n    tag_39:\n        /* \"#utility.yul\":2216:2222   */\n      0x00\n        /* \"#utility.yul\":2265:2267   */\n      0x20\n        /* \"#utility.yul\":2253:2262   */\n      dup3\n        /* \"#utility.yul\":2244:2251   */\n      dup5\n        /* \"#utility.yul\":2240:2263   */\n      sub\n        /* \"#utility.yul\":2236:2268   */\n      slt\n        /* \"#utility.yul\":2233:2352   */\n      iszero\n      tag_501\n      jumpi\n        /* \"#utility.yul\":2271:2350   */\n      tag_502\n      tag_375\n      jump\t// in\n    tag_502:\n        /* \"#utility.yul\":2233:2352   */\n    tag_501:\n        /* \"#utility.yul\":2391:2392   */\n      0x00\n        /* \"#utility.yul\":2416:2469   */\n      tag_503\n        /* \"#utility.yul\":2461:2468   */\n      dup5\n        /* \"#utility.yul\":2452:2458   */\n      dup3\n        /* \"#utility.yul\":2441:2450   */\n      dup6\n        /* \"#utility.yul\":2437:2459   */\n      add\n        /* \"#utility.yul\":2416:2469   */\n      tag_380\n      jump\t// in\n    tag_503:\n        /* \"#utility.yul\":2406:2469   */\n      swap2\n      pop\n        /* \"#utility.yul\":2362:2479   */\n      pop\n        /* \"#utility.yul\":2157:2486   */\n      swap3\n      swap2\n      pop\n      pop\n      jump\t// out\n        /* \"#utility.yul\":2492:2606   */\n    tag_384:\n        /* \"#utility.yul\":2559:2565   */\n      0x00\n        /* \"#utility.yul\":2593:2598   */\n      dup2\n        /* \"#utility.yul\":2587:2599   */\n      mload\n        /* \"#utility.yul\":2577:2599   */\n      swap1\n      pop\n        /* \"#utility.yul\":2492:2606   */\n      swap2\n      swap1\n      pop\n      jump\t// out\n        /* \"#utility.yul\":2612:2796   */\n    tag_385:\n        /* \"#utility.yul\":2711:2722   */\n      0x00\n        /* \"#utility.yul\":2745:2751   */\n      dup3\n        /* \"#utility.yul\":2740:2743   */\n      dup3\n        /* \"#utility.yul\":2733:2752   */\n      mstore\n        /* \"#utility.yul\":2785:2789   */\n      0x20\n        /* \"#utility.yul\":2780:2783   */\n      dup3\n        /* \"#utility.yul\":2776:2790   */\n      add\n        /* \"#utility.yul\":2761:2790   */\n      swap1\n      pop\n        /* \"#utility.yul\":2612:2796   */\n      swap3\n      swap2\n      pop\n      pop\n      jump\t// out\n        /* \"#utility.yul\":2802:2934   */\n    tag_386:\n        /* \"#utility.yul\":2869:2873   */\n      0x00\n        /* \"#utility.yul\":2892:2895   */\n      dup2\n        /* \"#utility.yul\":2884:2895   */\n      swap1\n      pop\n        /* \"#utility.yul\":2922:2926   */\n      0x20\n        /* \"#utility.yul\":2917:2920   */\n      dup3\n        /* \"#utility.yul\":2913:2927   */\n      add\n        /* \"#utility.yul\":2905:2927   */\n      swap1\n      pop\n        /* \"#utility.yul\":2802:2934   */\n      swap2\n      swap1\n      pop\n      jump\t// out\n        /* \"#utility.yul\":2940:3048   */\n    tag_387:\n        /* \"#utility.yul\":3017:3041   */\n      tag_508\n        /* \"#utility.yul\":3035:3040   */\n      dup2\n        /* \"#utility.yul\":3017:3041   */\n      tag_381\n      jump\t// in\n    tag_508:\n        /* \"#utility.yul\":3012:3015   */\n      dup3\n        /* \"#utility.yul\":3005:3042   */\n      mstore\n        /* \"#utility.yul\":2940:3048   */\n      pop\n      pop\n      jump\t// out\n        /* \"#utility.yul\":3054:3233   */\n    tag_388:\n        /* \"#utility.yul\":3123:3133   */\n      0x00\n        /* \"#utility.yul\":3144:3190   */\n      tag_510\n        /* \"#utility.yul\":3186:3189   */\n      dup4\n        /* \"#utility.yul\":3178:3184   */\n      dup4\n        /* \"#utility.yul\":3144:3190   */\n      tag_387\n      jump\t// in\n    tag_510:\n        /* \"#utility.yul\":3222:3226   */\n      0x20\n        /* \"#utility.yul\":3217:3220   */\n      dup4\n        /* \"#utility.yul\":3213:3227   */\n      add\n        /* \"#utility.yul\":3199:3227   */\n      swap1\n      pop\n        /* \"#utility.yul\":3054:3233   */\n      swap3\n      swap2\n      pop\n      pop\n      jump\t// out\n        /* \"#utility.yul\":3239:3352   */\n    tag_389:\n        /* \"#utility.yul\":3309:3313   */\n      0x00\n        /* \"#utility.yul\":3341:3345   */\n      0x20\n        /* \"#utility.yul\":3336:3339   */\n      dup3\n        /* \"#utility.yul\":3332:3346   */\n      add\n        /* \"#utility.yul\":3324:3346   */\n      swap1\n      pop\n        /* \"#utility.yul\":3239:3352   */\n      swap2\n      swap1\n      pop\n      jump\t// out\n        /* \"#utility.yul\":3388:4120   */\n    tag_390:\n        /* \"#utility.yul\":3507:3510   */\n      0x00\n        /* \"#utility.yul\":3536:3590   */\n      tag_513\n        /* \"#utility.yul\":3584:3589   */\n      dup3\n        /* \"#utility.yul\":3536:3590   */\n      tag_384\n      jump\t// in\n    tag_513:\n        /* \"#utility.yul\":3606:3692   */\n      tag_514\n        /* \"#utility.yul\":3685:3691   */\n      dup2\n        /* \"#utility.yul\":3680:3683   */\n      dup6\n        /* \"#utility.yul\":3606:3692   */\n      tag_385\n      jump\t// in\n    tag_514:\n        /* \"#utility.yul\":3599:3692   */\n      swap4\n      pop\n        /* \"#utility.yul\":3716:3772   */\n      tag_515\n        /* \"#utility.yul\":3766:3771   */\n      dup4\n        /* \"#utility.yul\":3716:3772   */\n      tag_386\n      jump\t// in\n    tag_515:\n        /* \"#utility.yul\":3795:3802   */\n      dup1\n        /* \"#utility.yul\":3826:3827   */\n      0x00\n        /* \"#utility.yul\":3811:4095   */\n    tag_516:\n        /* \"#utility.yul\":3836:3842   */\n      dup4\n        /* \"#utility.yul\":3833:3834   */\n      dup2\n        /* \"#utility.yul\":3830:3843   */\n      lt\n        /* \"#utility.yul\":3811:4095   */\n      iszero\n      tag_518\n      jumpi\n        /* \"#utility.yul\":3912:3918   */\n      dup2\n        /* \"#utility.yul\":3906:3919   */\n      mload\n        /* \"#utility.yul\":3939:4002   */\n      tag_519\n        /* \"#utility.yul\":3998:4001   */\n      dup9\n        /* \"#utility.yul\":3983:3996   */\n      dup3\n        /* \"#utility.yul\":3939:4002   */\n      tag_388\n      jump\t// in\n    tag_519:\n        /* \"#utility.yul\":3932:4002   */\n      swap8\n      pop\n        /* \"#utility.yul\":4025:4085   */\n      tag_520\n        /* \"#utility.yul\":4078:4084   */\n      dup4\n        /* \"#utility.yul\":4025:4085   */\n      tag_389\n      jump\t// in\n    tag_520:\n        /* \"#utility.yul\":4015:4085   */\n      swap3\n      pop\n        /* \"#utility.yul\":3871:4095   */\n      pop\n        /* \"#utility.yul\":3858:3859   */\n      0x01\n        /* \"#utility.yul\":3855:3856   */\n      dup2\n        /* \"#utility.yul\":3851:3860   */\n      add\n        /* \"#utility.yul\":3846:3860   */\n      swap1\n      pop\n        /* \"#utility.yul\":3811:4095   */\n      jump(tag_516)\n    tag_518:\n        /* \"#utility.yul\":3815:3829   */\n      pop\n        /* \"#utility.yul\":4111:4114   */\n      dup6\n        /* \"#utility.yul\":4104:4114   */\n      swap4\n      pop\n        /* \"#utility.yul\":3512:4120   */\n      pop\n      pop\n      pop\n        /* \"#utility.yul\":3388:4120   */\n      swap3\n      swap2\n      pop\n      pop\n      jump\t// out\n        /* \"#utility.yul\":4126:4499   */\n    tag_42:\n        /* \"#utility.yul\":4269:4273   */\n      0x00\n        /* \"#utility.yul\":4307:4309   */\n      0x20\n        /* \"#utility.yul\":4296:4305   */\n      dup3\n        /* \"#utility.yul\":4292:4310   */\n      add\n        /* \"#utility.yul\":4284:4310   */\n      swap1\n      pop\n        /* \"#utility.yul\":4356:4365   */\n      dup2\n        /* \"#utility.yul\":4350:4354   */\n      dup2\n        /* \"#utility.yul\":4346:4366   */\n      sub\n        /* \"#utility.yul\":4342:4343   */\n      0x00\n        /* \"#utility.yul\":4331:4340   */\n      dup4\n        /* \"#utility.yul\":4327:4344   */\n      add\n        /* \"#utility.yul\":4320:4367   */\n      mstore\n        /* \"#utility.yul\":4384:4492   */\n      tag_522\n        /* \"#utility.yul\":4487:4491   */\n      dup2\n        /* \"#utility.yul\":4478:4484   */\n      dup5\n        /* \"#utility.yul\":4384:4492   */\n      tag_390\n      jump\t// in\n    tag_522:\n        /* \"#utility.yul\":4376:4492   */\n      swap1\n      pop\n        /* \"#utility.yul\":4126:4499   */\n      swap3\n      swap2\n      pop\n      pop\n      jump\t// out\n        /* \"#utility.yul\":4505:4623   */\n    tag_391:\n        /* \"#utility.yul\":4592:4616   */\n      tag_524\n        /* \"#utility.yul\":4610:4615   */\n      dup2\n        /* \"#utility.yul\":4592:4616   */\n      tag_381\n      jump\t// in\n    tag_524:\n        /* \"#utility.yul\":4587:4590   */\n      dup3\n        /* \"#utility.yul\":4580:4617   */\n      mstore\n        /* \"#utility.yul\":4505:4623   */\n      pop\n      pop\n      jump\t// out\n        /* \"#utility.yul\":4629:4747   */\n    tag_392:\n        /* \"#utility.yul\":4716:4740   */\n      tag_526\n        /* \"#utility.yul\":4734:4739   */\n      dup2\n        /* \"#utility.yul\":4716:4740   */\n      tag_378\n      jump\t// in\n    tag_526:\n        /* \"#utility.yul\":4711:4714   */\n      dup3\n        /* \"#utility.yul\":4704:4741   */\n      mstore\n        /* \"#utility.yul\":4629:4747   */\n      pop\n      pop\n      jump\t// out\n        /* \"#utility.yul\":4753:4830   */\n    tag_393:\n        /* \"#utility.yul\":4790:4797   */\n      0x00\n        /* \"#utility.yul\":4819:4824   */\n      dup2\n        /* \"#utility.yul\":4808:4824   */\n      swap1\n      pop\n        /* \"#utility.yul\":4753:4830   */\n      swap2\n      swap1\n      pop\n      jump\t// out\n        /* \"#utility.yul\":4836:4954   */\n    tag_394:\n        /* \"#utility.yul\":4923:4947   */\n      tag_529\n        /* \"#utility.yul\":4941:4946   */\n      dup2\n        /* \"#utility.yul\":4923:4947   */\n      tag_393\n      jump\t// in\n    tag_529:\n        /* \"#utility.yul\":4918:4921   */\n      dup3\n        /* \"#utility.yul\":4911:4948   */\n      mstore\n        /* \"#utility.yul\":4836:4954   */\n      pop\n      pop\n      jump\t// out\n        /* \"#utility.yul\":4960:5140   */\n    tag_116:\n        /* \"#utility.yul\":5008:5085   */\n      0x4e487b7100000000000000000000000000000000000000000000000000000000\n        /* \"#utility.yul\":5005:5006   */\n      0x00\n        /* \"#utility.yul\":4998:5086   */\n      mstore\n        /* \"#utility.yul\":5105:5109   */\n      0x21\n        /* \"#utility.yul\":5102:5103   */\n      0x04\n        /* \"#utility.yul\":5095:5110   */\n      mstore\n        /* \"#utility.yul\":5129:5133   */\n      0x24\n        /* \"#utility.yul\":5126:5127   */\n      0x00\n        /* \"#utility.yul\":5119:5134   */\n      revert\n        /* \"#utility.yul\":5146:5265   */\n    tag_395:\n        /* \"#utility.yul\":5233:5234   */\n      0x04\n        /* \"#utility.yul\":5226:5231   */\n      dup2\n        /* \"#utility.yul\":5223:5235   */\n      lt\n        /* \"#utility.yul\":5213:5259   */\n      tag_532\n      jumpi\n        /* \"#utility.yul\":5239:5257   */\n      tag_533\n      tag_116\n      jump\t// in\n    tag_533:\n        /* \"#utility.yul\":5213:5259   */\n    tag_532:\n        /* \"#utility.yul\":5146:5265   */\n      pop\n      jump\t// out\n        /* \"#utility.yul\":5271:5410   */\n    tag_396:\n        /* \"#utility.yul\":5322:5329   */\n      0x00\n        /* \"#utility.yul\":5351:5356   */\n      dup2\n        /* \"#utility.yul\":5340:5356   */\n      swap1\n      pop\n        /* \"#utility.yul\":5357:5404   */\n      tag_535\n        /* \"#utility.yul\":5398:5403   */\n      dup3\n        /* \"#utility.yul\":5357:5404   */\n      tag_395\n      jump\t// in\n    tag_535:\n        /* \"#utility.yul\":5271:5410   */\n      swap2\n      swap1\n      pop\n      jump\t// out\n        /* \"#utility.yul\":5416:5555   */\n    tag_397:\n        /* \"#utility.yul\":5478:5487   */\n      0x00\n        /* \"#utility.yul\":5511:5549   */\n      tag_537\n        /* \"#utility.yul\":5543:5548   */\n      dup3\n        /* \"#utility.yul\":5511:5549   */\n      tag_396\n      jump\t// in\n    tag_537:\n        /* \"#utility.yul\":5498:5549   */\n      swap1\n      pop\n        /* \"#utility.yul\":5416:5555   */\n      swap2\n      swap1\n      pop\n      jump\t// out\n        /* \"#utility.yul\":5561:5716   */\n    tag_398:\n        /* \"#utility.yul\":5660:5709   */\n      tag_539\n        /* \"#utility.yul\":5703:5708   */\n      dup2\n        /* \"#utility.yul\":5660:5709   */\n      tag_397\n      jump\t// in\n    tag_539:\n        /* \"#utility.yul\":5655:5658   */\n      dup3\n        /* \"#utility.yul\":5648:5710   */\n      mstore\n        /* \"#utility.yul\":5561:5716   */\n      pop\n      pop\n      jump\t// out\n        /* \"#utility.yul\":5722:6299   */\n    tag_47:\n        /* \"#utility.yul\":5911:5915   */\n      0x00\n        /* \"#utility.yul\":5949:5952   */\n      0x80\n        /* \"#utility.yul\":5938:5947   */\n      dup3\n        /* \"#utility.yul\":5934:5953   */\n      add\n        /* \"#utility.yul\":5926:5953   */\n      swap1\n      pop\n        /* \"#utility.yul\":5963:6034   */\n      tag_541\n        /* \"#utility.yul\":6031:6032   */\n      0x00\n        /* \"#utility.yul\":6020:6029   */\n      dup4\n        /* \"#utility.yul\":6016:6033   */\n      add\n        /* \"#utility.yul\":6007:6013   */\n      dup8\n        /* \"#utility.yul\":5963:6034   */\n      tag_391\n      jump\t// in\n    tag_541:\n        /* \"#utility.yul\":6044:6116   */\n      tag_542\n        /* \"#utility.yul\":6112:6114   */\n      0x20\n        /* \"#utility.yul\":6101:6110   */\n      dup4\n        /* \"#utility.yul\":6097:6115   */\n      add\n        /* \"#utility.yul\":6088:6094   */\n      dup7\n        /* \"#utility.yul\":6044:6116   */\n      tag_392\n      jump\t// in\n    tag_542:\n        /* \"#utility.yul\":6126:6198   */\n      tag_543\n        /* \"#utility.yul\":6194:6196   */\n      0x40\n        /* \"#utility.yul\":6183:6192   */\n      dup4\n        /* \"#utility.yul\":6179:6197   */\n      add\n        /* \"#utility.yul\":6170:6176   */\n      dup6\n        /* \"#utility.yul\":6126:6198   */\n      tag_394\n      jump\t// in\n    tag_543:\n        /* \"#utility.yul\":6208:6292   */\n      tag_544\n        /* \"#utility.yul\":6288:6290   */\n      0x60\n        /* \"#utility.yul\":6277:6286   */\n      dup4\n        /* \"#utility.yul\":6273:6291   */\n      add\n        /* \"#utility.yul\":6264:6270   */\n      dup5\n        /* \"#utility.yul\":6208:6292   */\n      tag_398\n      jump\t// in\n    tag_544:\n        /* \"#utility.yul\":5722:6299   */\n      swap6\n      swap5\n      pop\n      pop\n      pop\n      pop\n      pop\n      jump\t// out\n        /* \"#utility.yul\":6305:6427   */\n    tag_399:\n        /* \"#utility.yul\":6378:6402   */\n      tag_546\n        /* \"#utility.yul\":6396:6401   */\n      dup2\n        /* \"#utility.yul\":6378:6402   */\n      tag_393\n      jump\t// in\n    tag_546:\n        /* \"#utility.yul\":6371:6376   */\n      dup2\n        /* \"#utility.yul\":6368:6403   */\n      eq\n        /* \"#utility.yul\":6358:6421   */\n      tag_547\n      jumpi\n        /* \"#utility.yul\":6417:6418   */\n      0x00\n        /* \"#utility.yul\":6414:6415   */\n      0x00\n        /* \"#utility.yul\":6407:6419   */\n      revert\n        /* \"#utility.yul\":6358:6421   */\n    tag_547:\n        /* \"#utility.yul\":6305:6427   */\n      pop\n      jump\t// out\n        /* \"#utility.yul\":6433:6572   */\n    tag_400:\n        /* \"#utility.yul\":6479:6484   */\n      0x00\n        /* \"#utility.yul\":6517:6523   */\n      dup2\n        /* \"#utility.yul\":6504:6524   */\n      calldataload\n        /* \"#utility.yul\":6495:6524   */\n      swap1\n      pop\n        /* \"#utility.yul\":6533:6566   */\n      tag_549\n        /* \"#utility.yul\":6560:6565   */\n      dup2\n        /* \"#utility.yul\":6533:6566   */\n      tag_399\n      jump\t// in\n    tag_549:\n        /* \"#utility.yul\":6433:6572   */\n      swap3\n      swap2\n      pop\n      pop\n      jump\t// out\n        /* \"#utility.yul\":6578:6907   */\n    tag_50:\n        /* \"#utility.yul\":6637:6643   */\n      0x00\n        /* \"#utility.yul\":6686:6688   */\n      0x20\n        /* \"#utility.yul\":6674:6683   */\n      dup3\n        /* \"#utility.yul\":6665:6672   */\n      dup5\n        /* \"#utility.yul\":6661:6684   */\n      sub\n        /* \"#utility.yul\":6657:6689   */\n      slt\n        /* \"#utility.yul\":6654:6773   */\n      iszero\n      tag_551\n      jumpi\n        /* \"#utility.yul\":6692:6771   */\n      tag_552\n      tag_375\n      jump\t// in\n    tag_552:\n        /* \"#utility.yul\":6654:6773   */\n    tag_551:\n        /* \"#utility.yul\":6812:6813   */\n      0x00\n        /* \"#utility.yul\":6837:6890   */\n      tag_553\n        /* \"#utility.yul\":6882:6889   */\n      dup5\n        /* \"#utility.yul\":6873:6879   */\n      dup3\n        /* \"#utility.yul\":6862:6871   */\n      dup6\n        /* \"#utility.yul\":6858:6880   */\n      add\n        /* \"#utility.yul\":6837:6890   */\n      tag_400\n      jump\t// in\n    tag_553:\n        /* \"#utility.yul\":6827:6890   */\n      swap2\n      pop\n        /* \"#utility.yul\":6783:6900   */\n      pop\n        /* \"#utility.yul\":6578:6907   */\n      swap3\n      swap2\n      pop\n      pop\n      jump\t// out\n        /* \"#utility.yul\":6913:7012   */\n    tag_401:\n        /* \"#utility.yul\":6965:6971   */\n      0x00\n        /* \"#utility.yul\":6999:7004   */\n      dup2\n        /* \"#utility.yul\":6993:7005   */\n      mload\n        /* \"#utility.yul\":6983:7005   */\n      swap1\n      pop\n        /* \"#utility.yul\":6913:7012   */\n      swap2\n      swap1\n      pop\n      jump\t// out\n        /* \"#utility.yul\":7018:7187   */\n    tag_402:\n        /* \"#utility.yul\":7102:7113   */\n      0x00\n        /* \"#utility.yul\":7136:7142   */\n      dup3\n        /* \"#utility.yul\":7131:7134   */\n      dup3\n        /* \"#utility.yul\":7124:7143   */\n      mstore\n        /* \"#utility.yul\":7176:7180   */\n      0x20\n        /* \"#utility.yul\":7171:7174   */\n      dup3\n        /* \"#utility.yul\":7167:7181   */\n      add\n        /* \"#utility.yul\":7152:7181   */\n      swap1\n      pop\n        /* \"#utility.yul\":7018:7187   */\n      swap3\n      swap2\n      pop\n      pop\n      jump\t// out\n        /* \"#utility.yul\":7193:7332   */\n    tag_403:\n        /* \"#utility.yul\":7282:7288   */\n      dup3\n        /* \"#utility.yul\":7277:7280   */\n      dup2\n        /* \"#utility.yul\":7272:7275   */\n      dup4\n        /* \"#utility.yul\":7266:7289   */\n      mcopy\n        /* \"#utility.yul\":7323:7324   */\n      0x00\n        /* \"#utility.yul\":7314:7320   */\n      dup4\n        /* \"#utility.yul\":7309:7312   */\n      dup4\n        /* \"#utility.yul\":7305:7321   */\n      add\n        /* \"#utility.yul\":7298:7325   */\n      mstore\n        /* \"#utility.yul\":7193:7332   */\n      pop\n      pop\n      pop\n      jump\t// out\n        /* \"#utility.yul\":7338:7440   */\n    tag_404:\n        /* \"#utility.yul\":7379:7385   */\n      0x00\n        /* \"#utility.yul\":7430:7432   */\n      0x1f\n        /* \"#utility.yul\":7426:7433   */\n      not\n        /* \"#utility.yul\":7421:7423   */\n      0x1f\n        /* \"#utility.yul\":7414:7419   */\n      dup4\n        /* \"#utility.yul\":7410:7424   */\n      add\n        /* \"#utility.yul\":7406:7434   */\n      and\n        /* \"#utility.yul\":7396:7434   */\n      swap1\n      pop\n        /* \"#utility.yul\":7338:7440   */\n      swap2\n      swap1\n      pop\n      jump\t// out\n        /* \"#utility.yul\":7446:7823   */\n    tag_405:\n        /* \"#utility.yul\":7534:7537   */\n      0x00\n        /* \"#utility.yul\":7562:7601   */\n      tag_559\n        /* \"#utility.yul\":7595:7600   */\n      dup3\n        /* \"#utility.yul\":7562:7601   */\n      tag_401\n      jump\t// in\n    tag_559:\n        /* \"#utility.yul\":7617:7688   */\n      tag_560\n        /* \"#utility.yul\":7681:7687   */\n      dup2\n        /* \"#utility.yul\":7676:7679   */\n      dup6\n        /* \"#utility.yul\":7617:7688   */\n      tag_402\n      jump\t// in\n    tag_560:\n        /* \"#utility.yul\":7610:7688   */\n      swap4\n      pop\n        /* \"#utility.yul\":7697:7762   */\n      tag_561\n        /* \"#utility.yul\":7755:7761   */\n      dup2\n        /* \"#utility.yul\":7750:7753   */\n      dup6\n        /* \"#utility.yul\":7743:7747   */\n      0x20\n        /* \"#utility.yul\":7736:7741   */\n      dup7\n        /* \"#utility.yul\":7732:7748   */\n      add\n        /* \"#utility.yul\":7697:7762   */\n      tag_403\n      jump\t// in\n    tag_561:\n        /* \"#utility.yul\":7787:7816   */\n      tag_562\n        /* \"#utility.yul\":7809:7815   */\n      dup2\n        /* \"#utility.yul\":7787:7816   */\n      tag_404\n      jump\t// in\n    tag_562:\n        /* \"#utility.yul\":7782:7785   */\n      dup5\n        /* \"#utility.yul\":7778:7817   */\n      add\n        /* \"#utility.yul\":7771:7817   */\n      swap2\n      pop\n        /* \"#utility.yul\":7538:7823   */\n      pop\n        /* \"#utility.yul\":7446:7823   */\n      swap3\n      swap2\n      pop\n      pop\n      jump\t// out\n        /* \"#utility.yul\":7829:8897   */\n    tag_56:\n        /* \"#utility.yul\":8130:8134   */\n      0x00\n        /* \"#utility.yul\":8168:8171   */\n      0xe0\n        /* \"#utility.yul\":8157:8166   */\n      dup3\n        /* \"#utility.yul\":8153:8172   */\n      add\n        /* \"#utility.yul\":8145:8172   */\n      swap1\n      pop\n        /* \"#utility.yul\":8182:8253   */\n      tag_564\n        /* \"#utility.yul\":8250:8251   */\n      0x00\n        /* \"#utility.yul\":8239:8248   */\n      dup4\n        /* \"#utility.yul\":8235:8252   */\n      add\n        /* \"#utility.yul\":8226:8232   */\n      dup11\n        /* \"#utility.yul\":8182:8253   */\n      tag_391\n      jump\t// in\n    tag_564:\n        /* \"#utility.yul\":8263:8335   */\n      tag_565\n        /* \"#utility.yul\":8331:8333   */\n      0x20\n        /* \"#utility.yul\":8320:8329   */\n      dup4\n        /* \"#utility.yul\":8316:8334   */\n      add\n        /* \"#utility.yul\":8307:8313   */\n      dup10\n        /* \"#utility.yul\":8263:8335   */\n      tag_392\n      jump\t// in\n    tag_565:\n        /* \"#utility.yul\":8382:8391   */\n      dup2\n        /* \"#utility.yul\":8376:8380   */\n      dup2\n        /* \"#utility.yul\":8372:8392   */\n      sub\n        /* \"#utility.yul\":8367:8369   */\n      0x40\n        /* \"#utility.yul\":8356:8365   */\n      dup4\n        /* \"#utility.yul\":8352:8370   */\n      add\n        /* \"#utility.yul\":8345:8393   */\n      mstore\n        /* \"#utility.yul\":8410:8488   */\n      tag_566\n        /* \"#utility.yul\":8483:8487   */\n      dup2\n        /* \"#utility.yul\":8474:8480   */\n      dup9\n        /* \"#utility.yul\":8410:8488   */\n      tag_405\n      jump\t// in\n    tag_566:\n        /* \"#utility.yul\":8402:8488   */\n      swap1\n      pop\n        /* \"#utility.yul\":8498:8570   */\n      tag_567\n        /* \"#utility.yul\":8566:8568   */\n      0x60\n        /* \"#utility.yul\":8555:8564   */\n      dup4\n        /* \"#utility.yul\":8551:8569   */\n      add\n        /* \"#utility.yul\":8542:8548   */\n      dup8\n        /* \"#utility.yul\":8498:8570   */\n      tag_391\n      jump\t// in\n    tag_567:\n        /* \"#utility.yul\":8618:8627   */\n      dup2\n        /* \"#utility.yul\":8612:8616   */\n      dup2\n        /* \"#utility.yul\":8608:8628   */\n      sub\n        /* \"#utility.yul\":8602:8605   */\n      0x80\n        /* \"#utility.yul\":8591:8600   */\n      dup4\n        /* \"#utility.yul\":8587:8606   */\n      add\n        /* \"#utility.yul\":8580:8629   */\n      mstore\n        /* \"#utility.yul\":8646:8724   */\n      tag_568\n        /* \"#utility.yul\":8719:8723   */\n      dup2\n        /* \"#utility.yul\":8710:8716   */\n      dup7\n        /* \"#utility.yul\":8646:8724   */\n      tag_405\n      jump\t// in\n    tag_568:\n        /* \"#utility.yul\":8638:8724   */\n      swap1\n      pop\n        /* \"#utility.yul\":8734:8807   */\n      tag_569\n        /* \"#utility.yul\":8802:8805   */\n      0xa0\n        /* \"#utility.yul\":8791:8800   */\n      dup4\n        /* \"#utility.yul\":8787:8806   */\n      add\n        /* \"#utility.yul\":8778:8784   */\n      dup6\n        /* \"#utility.yul\":8734:8807   */\n      tag_391\n      jump\t// in\n    tag_569:\n        /* \"#utility.yul\":8817:8890   */\n      tag_570\n        /* \"#utility.yul\":8885:8888   */\n      0xc0\n        /* \"#utility.yul\":8874:8883   */\n      dup4\n        /* \"#utility.yul\":8870:8889   */\n      add\n        /* \"#utility.yul\":8861:8867   */\n      dup5\n        /* \"#utility.yul\":8817:8890   */\n      tag_391\n      jump\t// in\n    tag_570:\n        /* \"#utility.yul\":7829:8897   */\n      swap9\n      swap8\n      pop\n      pop\n      pop\n      pop\n      pop\n      pop\n      pop\n      pop\n      jump\t// out\n        /* \"#utility.yul\":8903:9011   */\n    tag_406:\n        /* \"#utility.yul\":8980:9004   */\n      tag_572\n        /* \"#utility.yul\":8998:9003   */\n      dup2\n        /* \"#utility.yul\":8980:9004   */\n      tag_378\n      jump\t// in\n    tag_572:\n        /* \"#utility.yul\":8975:8978   */\n      dup3\n        /* \"#utility.yul\":8968:9005   */\n      mstore\n        /* \"#utility.yul\":8903:9011   */\n      pop\n      pop\n      jump\t// out\n        /* \"#utility.yul\":9017:9125   */\n    tag_407:\n        /* \"#utility.yul\":9094:9118   */\n      tag_574\n        /* \"#utility.yul\":9112:9117   */\n      dup2\n        /* \"#utility.yul\":9094:9118   */\n      tag_393\n      jump\t// in\n    tag_574:\n        /* \"#utility.yul\":9089:9092   */\n      dup3\n        /* \"#utility.yul\":9082:9119   */\n      mstore\n        /* \"#utility.yul\":9017:9125   */\n      pop\n      pop\n      jump\t// out\n        /* \"#utility.yul\":9131:9276   */\n    tag_408:\n        /* \"#utility.yul\":9220:9269   */\n      tag_576\n        /* \"#utility.yul\":9263:9268   */\n      dup2\n        /* \"#utility.yul\":9220:9269   */\n      tag_397\n      jump\t// in\n    tag_576:\n        /* \"#utility.yul\":9215:9218   */\n      dup3\n        /* \"#utility.yul\":9208:9270   */\n      mstore\n        /* \"#utility.yul\":9131:9276   */\n      pop\n      pop\n      jump\t// out\n        /* \"#utility.yul\":9354:10220   */\n    tag_409:\n        /* \"#utility.yul\":9493:9497   */\n      0x80\n        /* \"#utility.yul\":9488:9491   */\n      dup3\n        /* \"#utility.yul\":9484:9498   */\n      add\n        /* \"#utility.yul\":9578:9582   */\n      0x00\n        /* \"#utility.yul\":9571:9576   */\n      dup3\n        /* \"#utility.yul\":9567:9583   */\n      add\n        /* \"#utility.yul\":9561:9584   */\n      mload\n        /* \"#utility.yul\":9597:9660   */\n      tag_578\n        /* \"#utility.yul\":9654:9658   */\n      0x00\n        /* \"#utility.yul\":9649:9652   */\n      dup6\n        /* \"#utility.yul\":9645:9659   */\n      add\n        /* \"#utility.yul\":9631:9643   */\n      dup3\n        /* \"#utility.yul\":9597:9660   */\n      tag_387\n      jump\t// in\n    tag_578:\n        /* \"#utility.yul\":9508:9670   */\n      pop\n        /* \"#utility.yul\":9759:9763   */\n      0x20\n        /* \"#utility.yul\":9752:9757   */\n      dup3\n        /* \"#utility.yul\":9748:9764   */\n      add\n        /* \"#utility.yul\":9742:9765   */\n      mload\n        /* \"#utility.yul\":9778:9841   */\n      tag_579\n        /* \"#utility.yul\":9835:9839   */\n      0x20\n        /* \"#utility.yul\":9830:9833   */\n      dup6\n        /* \"#utility.yul\":9826:9840   */\n      add\n        /* \"#utility.yul\":9812:9824   */\n      dup3\n        /* \"#utility.yul\":9778:9841   */\n      tag_406\n      jump\t// in\n    tag_579:\n        /* \"#utility.yul\":9680:9851   */\n      pop\n        /* \"#utility.yul\":9933:9937   */\n      0x40\n        /* \"#utility.yul\":9926:9931   */\n      dup3\n        /* \"#utility.yul\":9922:9938   */\n      add\n        /* \"#utility.yul\":9916:9939   */\n      mload\n        /* \"#utility.yul\":9952:10015   */\n      tag_580\n        /* \"#utility.yul\":10009:10013   */\n      0x40\n        /* \"#utility.yul\":10004:10007   */\n      dup6\n        /* \"#utility.yul\":10000:10014   */\n      add\n        /* \"#utility.yul\":9986:9998   */\n      dup3\n        /* \"#utility.yul\":9952:10015   */\n      tag_407\n      jump\t// in\n    tag_580:\n        /* \"#utility.yul\":9861:10025   */\n      pop\n        /* \"#utility.yul\":10109:10113   */\n      0x60\n        /* \"#utility.yul\":10102:10107   */\n      dup3\n        /* \"#utility.yul\":10098:10114   */\n      add\n        /* \"#utility.yul\":10092:10115   */\n      mload\n        /* \"#utility.yul\":10128:10203   */\n      tag_581\n        /* \"#utility.yul\":10197:10201   */\n      0x60\n        /* \"#utility.yul\":10192:10195   */\n      dup6\n        /* \"#utility.yul\":10188:10202   */\n      add\n        /* \"#utility.yul\":10174:10186   */\n      dup3\n        /* \"#utility.yul\":10128:10203   */\n      tag_408\n      jump\t// in\n    tag_581:\n        /* \"#utility.yul\":10035:10213   */\n      pop\n        /* \"#utility.yul\":9462:10220   */\n      pop\n        /* \"#utility.yul\":9354:10220   */\n      pop\n      pop\n      jump\t// out\n        /* \"#utility.yul\":10226:10533   */\n    tag_65:\n        /* \"#utility.yul\":10361:10365   */\n      0x00\n        /* \"#utility.yul\":10399:10402   */\n      0x80\n        /* \"#utility.yul\":10388:10397   */\n      dup3\n        /* \"#utility.yul\":10384:10403   */\n      add\n        /* \"#utility.yul\":10376:10403   */\n      swap1\n      pop\n        /* \"#utility.yul\":10413:10526   */\n      tag_583\n        /* \"#utility.yul\":10523:10524   */\n      0x00\n        /* \"#utility.yul\":10512:10521   */\n      dup4\n        /* \"#utility.yul\":10508:10525   */\n      add\n        /* \"#utility.yul\":10499:10505   */\n      dup5\n        /* \"#utility.yul\":10413:10526   */\n      tag_409\n      jump\t// in\n    tag_583:\n        /* \"#utility.yul\":10226:10533   */\n      swap3\n      swap2\n      pop\n      pop\n      jump\t// out\n        /* \"#utility.yul\":10539:10761   */\n    tag_69:\n        /* \"#utility.yul\":10632:10636   */\n      0x00\n        /* \"#utility.yul\":10670:10672   */\n      0x20\n        /* \"#utility.yul\":10659:10668   */\n      dup3\n        /* \"#utility.yul\":10655:10673   */\n      add\n        /* \"#utility.yul\":10647:10673   */\n      swap1\n      pop\n        /* \"#utility.yul\":10683:10754   */\n      tag_585\n        /* \"#utility.yul\":10751:10752   */\n      0x00\n        /* \"#utility.yul\":10740:10749   */\n      dup4\n        /* \"#utility.yul\":10736:10753   */\n      add\n        /* \"#utility.yul\":10727:10733   */\n      dup5\n        /* \"#utility.yul\":10683:10754   */\n      tag_391\n      jump\t// in\n    tag_585:\n        /* \"#utility.yul\":10539:10761   */\n      swap3\n      swap2\n      pop\n      pop\n      jump\t// out\n        /* \"#utility.yul\":10767:10880   */\n    tag_410:\n        /* \"#utility.yul\":10854:10855   */\n      0x04\n        /* \"#utility.yul\":10847:10852   */\n      dup2\n        /* \"#utility.yul\":10844:10856   */\n      lt\n        /* \"#utility.yul\":10834:10874   */\n      tag_587\n      jumpi\n        /* \"#utility.yul\":10870:10871   */\n      0x00\n        /* \"#utility.yul\":10867:10868   */\n      0x00\n        /* \"#utility.yul\":10860:10872   */\n      revert\n        /* \"#utility.yul\":10834:10874   */\n    tag_587:\n        /* \"#utility.yul\":10767:10880   */\n      pop\n      jump\t// out\n        /* \"#utility.yul\":10886:11053   */\n    tag_411:\n        /* \"#utility.yul\":10946:10951   */\n      0x00\n        /* \"#utility.yul\":10984:10990   */\n      dup2\n        /* \"#utility.yul\":10971:10991   */\n      calldataload\n        /* \"#utility.yul\":10962:10991   */\n      swap1\n      pop\n        /* \"#utility.yul\":11000:11047   */\n      tag_589\n        /* \"#utility.yul\":11041:11046   */\n      dup2\n        /* \"#utility.yul\":11000:11047   */\n      tag_410\n      jump\t// in\n    tag_589:\n        /* \"#utility.yul\":10886:11053   */\n      swap3\n      swap2\n      pop\n      pop\n      jump\t// out\n        /* \"#utility.yul\":11059:11561   */\n    tag_72:\n        /* \"#utility.yul\":11141:11147   */\n      0x00\n        /* \"#utility.yul\":11149:11155   */\n      0x00\n        /* \"#utility.yul\":11198:11200   */\n      0x40\n        /* \"#utility.yul\":11186:11195   */\n      dup4\n        /* \"#utility.yul\":11177:11184   */\n      dup6\n        /* \"#utility.yul\":11173:11196   */\n      sub\n        /* \"#utility.yul\":11169:11201   */\n      slt\n        /* \"#utility.yul\":11166:11285   */\n      iszero\n      tag_591\n      jumpi\n        /* \"#utility.yul\":11204:11283   */\n      tag_592\n      tag_375\n      jump\t// in\n    tag_592:\n        /* \"#utility.yul\":11166:11285   */\n    tag_591:\n        /* \"#utility.yul\":11324:11325   */\n      0x00\n        /* \"#utility.yul\":11349:11402   */\n      tag_593\n        /* \"#utility.yul\":11394:11401   */\n      dup6\n        /* \"#utility.yul\":11385:11391   */\n      dup3\n        /* \"#utility.yul\":11374:11383   */\n      dup7\n        /* \"#utility.yul\":11370:11392   */\n      add\n        /* \"#utility.yul\":11349:11402   */\n      tag_380\n      jump\t// in\n    tag_593:\n        /* \"#utility.yul\":11339:11402   */\n      swap3\n      pop\n        /* \"#utility.yul\":11295:11412   */\n      pop\n        /* \"#utility.yul\":11451:11453   */\n      0x20\n        /* \"#utility.yul\":11477:11544   */\n      tag_594\n        /* \"#utility.yul\":11536:11543   */\n      dup6\n        /* \"#utility.yul\":11527:11533   */\n      dup3\n        /* \"#utility.yul\":11516:11525   */\n      dup7\n        /* \"#utility.yul\":11512:11534   */\n      add\n        /* \"#utility.yul\":11477:11544   */\n      tag_411\n      jump\t// in\n    tag_594:\n        /* \"#utility.yul\":11467:11544   */\n      swap2\n      pop\n        /* \"#utility.yul\":11422:11554   */\n      pop\n        /* \"#utility.yul\":11059:11561   */\n      swap3\n      pop\n      swap3\n      swap1\n      pop\n      jump\t// out\n        /* \"#utility.yul\":11567:11690   */\n    tag_412:\n        /* \"#utility.yul\":11658:11659   */\n      0x03\n        /* \"#utility.yul\":11651:11656   */\n      dup2\n        /* \"#utility.yul\":11648:11660   */\n      lt\n        /* \"#utility.yul\":11638:11684   */\n      tag_596\n      jumpi\n        /* \"#utility.yul\":11664:11682   */\n      tag_597\n      tag_116\n      jump\t// in\n    tag_597:\n        /* \"#utility.yul\":11638:11684   */\n    tag_596:\n        /* \"#utility.yul\":11567:11690   */\n      pop\n      jump\t// out\n        /* \"#utility.yul\":11696:11843   */\n    tag_413:\n        /* \"#utility.yul\":11751:11758   */\n      0x00\n        /* \"#utility.yul\":11780:11785   */\n      dup2\n        /* \"#utility.yul\":11769:11785   */\n      swap1\n      pop\n        /* \"#utility.yul\":11786:11837   */\n      tag_599\n        /* \"#utility.yul\":11831:11836   */\n      dup3\n        /* \"#utility.yul\":11786:11837   */\n      tag_412\n      jump\t// in\n    tag_599:\n        /* \"#utility.yul\":11696:11843   */\n      swap2\n      swap1\n      pop\n      jump\t// out\n        /* \"#utility.yul\":11849:11996   */\n    tag_414:\n        /* \"#utility.yul\":11915:11924   */\n      0x00\n        /* \"#utility.yul\":11948:11990   */\n      tag_601\n        /* \"#utility.yul\":11984:11989   */\n      dup3\n        /* \"#utility.yul\":11948:11990   */\n      tag_413\n      jump\t// in\n    tag_601:\n        /* \"#utility.yul\":11935:11990   */\n      swap1\n      pop\n        /* \"#utility.yul\":11849:11996   */\n      swap2\n      swap1\n      pop\n      jump\t// out\n        /* \"#utility.yul\":12002:12165   */\n    tag_415:\n        /* \"#utility.yul\":12105:12158   */\n      tag_603\n        /* \"#utility.yul\":12152:12157   */\n      dup2\n        /* \"#utility.yul\":12105:12158   */\n      tag_414\n      jump\t// in\n    tag_603:\n        /* \"#utility.yul\":12100:12103   */\n      dup3\n        /* \"#utility.yul\":12093:12159   */\n      mstore\n        /* \"#utility.yul\":12002:12165   */\n      pop\n      pop\n      jump\t// out\n        /* \"#utility.yul\":12171:13089   */\n    tag_78:\n        /* \"#utility.yul\":12448:12452   */\n      0x00\n        /* \"#utility.yul\":12486:12489   */\n      0xe0\n        /* \"#utility.yul\":12475:12484   */\n      dup3\n        /* \"#utility.yul\":12471:12490   */\n      add\n        /* \"#utility.yul\":12463:12490   */\n      swap1\n      pop\n        /* \"#utility.yul\":12500:12571   */\n      tag_605\n        /* \"#utility.yul\":12568:12569   */\n      0x00\n        /* \"#utility.yul\":12557:12566   */\n      dup4\n        /* \"#utility.yul\":12553:12570   */\n      add\n        /* \"#utility.yul\":12544:12550   */\n      dup11\n        /* \"#utility.yul\":12500:12571   */\n      tag_391\n      jump\t// in\n    tag_605:\n        /* \"#utility.yul\":12581:12653   */\n      tag_606\n        /* \"#utility.yul\":12649:12651   */\n      0x20\n        /* \"#utility.yul\":12638:12647   */\n      dup4\n        /* \"#utility.yul\":12634:12652   */\n      add\n        /* \"#utility.yul\":12625:12631   */\n      dup10\n        /* \"#utility.yul\":12581:12653   */\n      tag_392\n      jump\t// in\n    tag_606:\n        /* \"#utility.yul\":12663:12735   */\n      tag_607\n        /* \"#utility.yul\":12731:12733   */\n      0x40\n        /* \"#utility.yul\":12720:12729   */\n      dup4\n        /* \"#utility.yul\":12716:12734   */\n      add\n        /* \"#utility.yul\":12707:12713   */\n      dup9\n        /* \"#utility.yul\":12663:12735   */\n      tag_392\n      jump\t// in\n    tag_607:\n        /* \"#utility.yul\":12745:12817   */\n      tag_608\n        /* \"#utility.yul\":12813:12815   */\n      0x60\n        /* \"#utility.yul\":12802:12811   */\n      dup4\n        /* \"#utility.yul\":12798:12816   */\n      add\n        /* \"#utility.yul\":12789:12795   */\n      dup8\n        /* \"#utility.yul\":12745:12817   */\n      tag_391\n      jump\t// in\n    tag_608:\n        /* \"#utility.yul\":12827:12900   */\n      tag_609\n        /* \"#utility.yul\":12895:12898   */\n      0x80\n        /* \"#utility.yul\":12884:12893   */\n      dup4\n        /* \"#utility.yul\":12880:12899   */\n      add\n        /* \"#utility.yul\":12871:12877   */\n      dup7\n        /* \"#utility.yul\":12827:12900   */\n      tag_391\n      jump\t// in\n    tag_609:\n        /* \"#utility.yul\":12910:12983   */\n      tag_610\n        /* \"#utility.yul\":12978:12981   */\n      0xa0\n        /* \"#utility.yul\":12967:12976   */\n      dup4\n        /* \"#utility.yul\":12963:12982   */\n      add\n        /* \"#utility.yul\":12954:12960   */\n      dup6\n        /* \"#utility.yul\":12910:12983   */\n      tag_391\n      jump\t// in\n    tag_610:\n        /* \"#utility.yul\":12993:13082   */\n      tag_611\n        /* \"#utility.yul\":13077:13080   */\n      0xc0\n        /* \"#utility.yul\":13066:13075   */\n      dup4\n        /* \"#utility.yul\":13062:13081   */\n      add\n        /* \"#utility.yul\":13053:13059   */\n      dup5\n        /* \"#utility.yul\":12993:13082   */\n      tag_415\n      jump\t// in\n    tag_611:\n        /* \"#utility.yul\":12171:13089   */\n      swap9\n      swap8\n      pop\n      pop\n      pop\n      pop\n      pop\n      pop\n      pop\n      pop\n      jump\t// out\n        /* \"#utility.yul\":13095:13248   */\n    tag_416:\n        /* \"#utility.yul\":13188:13241   */\n      tag_613\n        /* \"#utility.yul\":13235:13240   */\n      dup2\n        /* \"#utility.yul\":13188:13241   */\n      tag_414\n      jump\t// in\n    tag_613:\n        /* \"#utility.yul\":13183:13186   */\n      dup3\n        /* \"#utility.yul\":13176:13242   */\n      mstore\n        /* \"#utility.yul\":13095:13248   */\n      pop\n      pop\n      jump\t// out\n        /* \"#utility.yul\":13334:14737   */\n    tag_417:\n        /* \"#utility.yul\":13481:13485   */\n      0xe0\n        /* \"#utility.yul\":13476:13479   */\n      dup3\n        /* \"#utility.yul\":13472:13486   */\n      add\n        /* \"#utility.yul\":13566:13570   */\n      0x00\n        /* \"#utility.yul\":13559:13564   */\n      dup3\n        /* \"#utility.yul\":13555:13571   */\n      add\n        /* \"#utility.yul\":13549:13572   */\n      mload\n        /* \"#utility.yul\":13585:13648   */\n      tag_615\n        /* \"#utility.yul\":13642:13646   */\n      0x00\n        /* \"#utility.yul\":13637:13640   */\n      dup6\n        /* \"#utility.yul\":13633:13647   */\n      add\n        /* \"#utility.yul\":13619:13631   */\n      dup3\n        /* \"#utility.yul\":13585:13648   */\n      tag_387\n      jump\t// in\n    tag_615:\n        /* \"#utility.yul\":13496:13658   */\n      pop\n        /* \"#utility.yul\":13740:13744   */\n      0x20\n        /* \"#utility.yul\":13733:13738   */\n      dup3\n        /* \"#utility.yul\":13729:13745   */\n      add\n        /* \"#utility.yul\":13723:13746   */\n      mload\n        /* \"#utility.yul\":13759:13822   */\n      tag_616\n        /* \"#utility.yul\":13816:13820   */\n      0x20\n        /* \"#utility.yul\":13811:13814   */\n      dup6\n        /* \"#utility.yul\":13807:13821   */\n      add\n        /* \"#utility.yul\":13793:13805   */\n      dup3\n        /* \"#utility.yul\":13759:13822   */\n      tag_406\n      jump\t// in\n    tag_616:\n        /* \"#utility.yul\":13668:13832   */\n      pop\n        /* \"#utility.yul\":13912:13916   */\n      0x40\n        /* \"#utility.yul\":13905:13910   */\n      dup3\n        /* \"#utility.yul\":13901:13917   */\n      add\n        /* \"#utility.yul\":13895:13918   */\n      mload\n        /* \"#utility.yul\":13931:13994   */\n      tag_617\n        /* \"#utility.yul\":13988:13992   */\n      0x40\n        /* \"#utility.yul\":13983:13986   */\n      dup6\n        /* \"#utility.yul\":13979:13993   */\n      add\n        /* \"#utility.yul\":13965:13977   */\n      dup3\n        /* \"#utility.yul\":13931:13994   */\n      tag_406\n      jump\t// in\n    tag_617:\n        /* \"#utility.yul\":13842:14004   */\n      pop\n        /* \"#utility.yul\":14089:14093   */\n      0x60\n        /* \"#utility.yul\":14082:14087   */\n      dup3\n        /* \"#utility.yul\":14078:14094   */\n      add\n        /* \"#utility.yul\":14072:14095   */\n      mload\n        /* \"#utility.yul\":14108:14171   */\n      tag_618\n        /* \"#utility.yul\":14165:14169   */\n      0x60\n        /* \"#utility.yul\":14160:14163   */\n      dup6\n        /* \"#utility.yul\":14156:14170   */\n      add\n        /* \"#utility.yul\":14142:14154   */\n      dup3\n        /* \"#utility.yul\":14108:14171   */\n      tag_387\n      jump\t// in\n    tag_618:\n        /* \"#utility.yul\":14014:14181   */\n      pop\n        /* \"#utility.yul\":14270:14274   */\n      0x80\n        /* \"#utility.yul\":14263:14268   */\n      dup3\n        /* \"#utility.yul\":14259:14275   */\n      add\n        /* \"#utility.yul\":14253:14276   */\n      mload\n        /* \"#utility.yul\":14289:14352   */\n      tag_619\n        /* \"#utility.yul\":14346:14350   */\n      0x80\n        /* \"#utility.yul\":14341:14344   */\n      dup6\n        /* \"#utility.yul\":14337:14351   */\n      add\n        /* \"#utility.yul\":14323:14335   */\n      dup3\n        /* \"#utility.yul\":14289:14352   */\n      tag_387\n      jump\t// in\n    tag_619:\n        /* \"#utility.yul\":14191:14362   */\n      pop\n        /* \"#utility.yul\":14446:14450   */\n      0xa0\n        /* \"#utility.yul\":14439:14444   */\n      dup3\n        /* \"#utility.yul\":14435:14451   */\n      add\n        /* \"#utility.yul\":14429:14452   */\n      mload\n        /* \"#utility.yul\":14465:14528   */\n      tag_620\n        /* \"#utility.yul\":14522:14526   */\n      0xa0\n        /* \"#utility.yul\":14517:14520   */\n      dup6\n        /* \"#utility.yul\":14513:14527   */\n      add\n        /* \"#utility.yul\":14499:14511   */\n      dup3\n        /* \"#utility.yul\":14465:14528   */\n      tag_387\n      jump\t// in\n    tag_620:\n        /* \"#utility.yul\":14372:14538   */\n      pop\n        /* \"#utility.yul\":14622:14626   */\n      0xc0\n        /* \"#utility.yul\":14615:14620   */\n      dup3\n        /* \"#utility.yul\":14611:14627   */\n      add\n        /* \"#utility.yul\":14605:14628   */\n      mload\n        /* \"#utility.yul\":14641:14720   */\n      tag_621\n        /* \"#utility.yul\":14714:14718   */\n      0xc0\n        /* \"#utility.yul\":14709:14712   */\n      dup6\n        /* \"#utility.yul\":14705:14719   */\n      add\n        /* \"#utility.yul\":14691:14703   */\n      dup3\n        /* \"#utility.yul\":14641:14720   */\n      tag_416\n      jump\t// in\n    tag_621:\n        /* \"#utility.yul\":14548:14730   */\n      pop\n        /* \"#utility.yul\":13450:14737   */\n      pop\n        /* \"#utility.yul\":13334:14737   */\n      pop\n      pop\n      jump\t// out\n        /* \"#utility.yul\":14743:15066   */\n    tag_93:\n        /* \"#utility.yul\":14886:14890   */\n      0x00\n        /* \"#utility.yul\":14924:14927   */\n      0xe0\n        /* \"#utility.yul\":14913:14922   */\n      dup3\n        /* \"#utility.yul\":14909:14928   */\n      add\n        /* \"#utility.yul\":14901:14928   */\n      swap1\n      pop\n        /* \"#utility.yul\":14938:15059   */\n      tag_623\n        /* \"#utility.yul\":15056:15057   */\n      0x00\n        /* \"#utility.yul\":15045:15054   */\n      dup4\n        /* \"#utility.yul\":15041:15058   */\n      add\n        /* \"#utility.yul\":15032:15038   */\n      dup5\n        /* \"#utility.yul\":14938:15059   */\n      tag_417\n      jump\t// in\n    tag_623:\n        /* \"#utility.yul\":14743:15066   */\n      swap3\n      swap2\n      pop\n      pop\n      jump\t// out\n        /* \"#utility.yul\":15072:15189   */\n    tag_418:\n        /* \"#utility.yul\":15181:15182   */\n      0x00\n        /* \"#utility.yul\":15178:15179   */\n      0x00\n        /* \"#utility.yul\":15171:15183   */\n      revert\n        /* \"#utility.yul\":15195:15312   */\n    tag_419:\n        /* \"#utility.yul\":15304:15305   */\n      0x00\n        /* \"#utility.yul\":15301:15302   */\n      0x00\n        /* \"#utility.yul\":15294:15306   */\n      revert\n        /* \"#utility.yul\":15318:15435   */\n    tag_420:\n        /* \"#utility.yul\":15427:15428   */\n      0x00\n        /* \"#utility.yul\":15424:15425   */\n      0x00\n        /* \"#utility.yul\":15417:15429   */\n      revert\n        /* \"#utility.yul\":15455:16008   */\n    tag_421:\n        /* \"#utility.yul\":15513:15521   */\n      0x00\n        /* \"#utility.yul\":15523:15529   */\n      0x00\n        /* \"#utility.yul\":15573:15576   */\n      dup4\n        /* \"#utility.yul\":15566:15570   */\n      0x1f\n        /* \"#utility.yul\":15558:15564   */\n      dup5\n        /* \"#utility.yul\":15554:15571   */\n      add\n        /* \"#utility.yul\":15550:15577   */\n      slt\n        /* \"#utility.yul\":15540:15662   */\n      tag_628\n      jumpi\n        /* \"#utility.yul\":15581:15660   */\n      tag_629\n      tag_418\n      jump\t// in\n    tag_629:\n        /* \"#utility.yul\":15540:15662   */\n    tag_628:\n        /* \"#utility.yul\":15694:15700   */\n      dup3\n        /* \"#utility.yul\":15681:15701   */\n      calldataload\n        /* \"#utility.yul\":15671:15701   */\n      swap1\n      pop\n        /* \"#utility.yul\":15724:15742   */\n      0xffffffffffffffff\n        /* \"#utility.yul\":15716:15722   */\n      dup2\n        /* \"#utility.yul\":15713:15743   */\n      gt\n        /* \"#utility.yul\":15710:15827   */\n      iszero\n      tag_630\n      jumpi\n        /* \"#utility.yul\":15746:15825   */\n      tag_631\n      tag_419\n      jump\t// in\n    tag_631:\n        /* \"#utility.yul\":15710:15827   */\n    tag_630:\n        /* \"#utility.yul\":15860:15864   */\n      0x20\n        /* \"#utility.yul\":15852:15858   */\n      dup4\n        /* \"#utility.yul\":15848:15865   */\n      add\n        /* \"#utility.yul\":15836:15865   */\n      swap2\n      pop\n        /* \"#utility.yul\":15914:15917   */\n      dup4\n        /* \"#utility.yul\":15906:15910   */\n      0x01\n        /* \"#utility.yul\":15898:15904   */\n      dup3\n        /* \"#utility.yul\":15894:15911   */\n      mul\n        /* \"#utility.yul\":15884:15892   */\n      dup4\n        /* \"#utility.yul\":15880:15912   */\n      add\n        /* \"#utility.yul\":15877:15918   */\n      gt\n        /* \"#utility.yul\":15874:16002   */\n      iszero\n      tag_632\n      jumpi\n        /* \"#utility.yul\":15921:16000   */\n      tag_633\n      tag_420\n      jump\t// in\n    tag_633:\n        /* \"#utility.yul\":15874:16002   */\n    tag_632:\n        /* \"#utility.yul\":15455:16008   */\n      swap3\n      pop\n      swap3\n      swap1\n      pop\n      jump\t// out\n        /* \"#utility.yul\":16014:17179   */\n    tag_96:\n        /* \"#utility.yul\":16124:16130   */\n      0x00\n        /* \"#utility.yul\":16132:16138   */\n      0x00\n        /* \"#utility.yul\":16140:16146   */\n      0x00\n        /* \"#utility.yul\":16148:16154   */\n      0x00\n        /* \"#utility.yul\":16156:16162   */\n      0x00\n        /* \"#utility.yul\":16164:16170   */\n      0x00\n        /* \"#utility.yul\":16213:16216   */\n      0x80\n        /* \"#utility.yul\":16201:16210   */\n      dup8\n        /* \"#utility.yul\":16192:16199   */\n      dup10\n        /* \"#utility.yul\":16188:16211   */\n      sub\n        /* \"#utility.yul\":16184:16217   */\n      slt\n        /* \"#utility.yul\":16181:16301   */\n      iszero\n      tag_635\n      jumpi\n        /* \"#utility.yul\":16220:16299   */\n      tag_636\n      tag_375\n      jump\t// in\n    tag_636:\n        /* \"#utility.yul\":16181:16301   */\n    tag_635:\n        /* \"#utility.yul\":16368:16369   */\n      0x00\n        /* \"#utility.yul\":16357:16366   */\n      dup8\n        /* \"#utility.yul\":16353:16370   */\n      add\n        /* \"#utility.yul\":16340:16371   */\n      calldataload\n        /* \"#utility.yul\":16398:16416   */\n      0xffffffffffffffff\n        /* \"#utility.yul\":16390:16396   */\n      dup2\n        /* \"#utility.yul\":16387:16417   */\n      gt\n        /* \"#utility.yul\":16384:16501   */\n      iszero\n      tag_637\n      jumpi\n        /* \"#utility.yul\":16420:16499   */\n      tag_638\n      tag_376\n      jump\t// in\n    tag_638:\n        /* \"#utility.yul\":16384:16501   */\n    tag_637:\n        /* \"#utility.yul\":16533:16598   */\n      tag_639\n        /* \"#utility.yul\":16590:16597   */\n      dup10\n        /* \"#utility.yul\":16581:16587   */\n      dup3\n        /* \"#utility.yul\":16570:16579   */\n      dup11\n        /* \"#utility.yul\":16566:16588   */\n      add\n        /* \"#utility.yul\":16533:16598   */\n      tag_421\n      jump\t// in\n    tag_639:\n        /* \"#utility.yul\":16515:16598   */\n      swap7\n      pop\n      swap7\n      pop\n        /* \"#utility.yul\":16311:16608   */\n      pop\n        /* \"#utility.yul\":16647:16649   */\n      0x20\n        /* \"#utility.yul\":16673:16726   */\n      tag_640\n        /* \"#utility.yul\":16718:16725   */\n      dup10\n        /* \"#utility.yul\":16709:16715   */\n      dup3\n        /* \"#utility.yul\":16698:16707   */\n      dup11\n        /* \"#utility.yul\":16694:16716   */\n      add\n        /* \"#utility.yul\":16673:16726   */\n      tag_383\n      jump\t// in\n    tag_640:\n        /* \"#utility.yul\":16663:16726   */\n      swap5\n      pop\n        /* \"#utility.yul\":16618:16736   */\n      pop\n        /* \"#utility.yul\":16803:16805   */\n      0x40\n        /* \"#utility.yul\":16792:16801   */\n      dup8\n        /* \"#utility.yul\":16788:16806   */\n      add\n        /* \"#utility.yul\":16775:16807   */\n      calldataload\n        /* \"#utility.yul\":16834:16852   */\n      0xffffffffffffffff\n        /* \"#utility.yul\":16826:16832   */\n      dup2\n        /* \"#utility.yul\":16823:16853   */\n      gt\n        /* \"#utility.yul\":16820:16937   */\n      iszero\n      tag_641\n      jumpi\n        /* \"#utility.yul\":16856:16935   */\n      tag_642\n      tag_376\n      jump\t// in\n    tag_642:\n        /* \"#utility.yul\":16820:16937   */\n    tag_641:\n        /* \"#utility.yul\":16969:17034   */\n      tag_643\n        /* \"#utility.yul\":17026:17033   */\n      dup10\n        /* \"#utility.yul\":17017:17023   */\n      dup3\n        /* \"#utility.yul\":17006:17015   */\n      dup11\n        /* \"#utility.yul\":17002:17024   */\n      add\n        /* \"#utility.yul\":16969:17034   */\n      tag_421\n      jump\t// in\n    tag_643:\n        /* \"#utility.yul\":16951:17034   */\n      swap4\n      pop\n      swap4\n      pop\n        /* \"#utility.yul\":16746:17044   */\n      pop\n        /* \"#utility.yul\":17083:17085   */\n      0x60\n        /* \"#utility.yul\":17109:17162   */\n      tag_644\n        /* \"#utility.yul\":17154:17161   */\n      dup10\n        /* \"#utility.yul\":17145:17151   */\n      dup3\n        /* \"#utility.yul\":17134:17143   */\n      dup11\n        /* \"#utility.yul\":17130:17152   */\n      add\n        /* \"#utility.yul\":17109:17162   */\n      tag_383\n      jump\t// in\n    tag_644:\n        /* \"#utility.yul\":17099:17162   */\n      swap2\n      pop\n        /* \"#utility.yul\":17054:17172   */\n      pop\n        /* \"#utility.yul\":16014:17179   */\n      swap3\n      swap6\n      pop\n      swap3\n      swap6\n      pop\n      swap3\n      swap6\n      jump\t// out\n        /* \"#utility.yul\":17185:18364   */\n    tag_102:\n        /* \"#utility.yul\":17514:17518   */\n      0x00\n        /* \"#utility.yul\":17552:17555   */\n      0x0100\n        /* \"#utility.yul\":17541:17550   */\n      dup3\n        /* \"#utility.yul\":17537:17556   */\n      add\n        /* \"#utility.yul\":17529:17556   */\n      swap1\n      pop\n        /* \"#utility.yul\":17566:17637   */\n      tag_646\n        /* \"#utility.yul\":17634:17635   */\n      0x00\n        /* \"#utility.yul\":17623:17632   */\n      dup4\n        /* \"#utility.yul\":17619:17636   */\n      add\n        /* \"#utility.yul\":17610:17616   */\n      dup12\n        /* \"#utility.yul\":17566:17637   */\n      tag_391\n      jump\t// in\n    tag_646:\n        /* \"#utility.yul\":17647:17719   */\n      tag_647\n        /* \"#utility.yul\":17715:17717   */\n      0x20\n        /* \"#utility.yul\":17704:17713   */\n      dup4\n        /* \"#utility.yul\":17700:17718   */\n      add\n        /* \"#utility.yul\":17691:17697   */\n      dup11\n        /* \"#utility.yul\":17647:17719   */\n      tag_392\n      jump\t// in\n    tag_647:\n        /* \"#utility.yul\":17766:17775   */\n      dup2\n        /* \"#utility.yul\":17760:17764   */\n      dup2\n        /* \"#utility.yul\":17756:17776   */\n      sub\n        /* \"#utility.yul\":17751:17753   */\n      0x40\n        /* \"#utility.yul\":17740:17749   */\n      dup4\n        /* \"#utility.yul\":17736:17754   */\n      add\n        /* \"#utility.yul\":17729:17777   */\n      mstore\n        /* \"#utility.yul\":17794:17872   */\n      tag_648\n        /* \"#utility.yul\":17867:17871   */\n      dup2\n        /* \"#utility.yul\":17858:17864   */\n      dup10\n        /* \"#utility.yul\":17794:17872   */\n      tag_405\n      jump\t// in\n    tag_648:\n        /* \"#utility.yul\":17786:17872   */\n      swap1\n      pop\n        /* \"#utility.yul\":17882:17954   */\n      tag_649\n        /* \"#utility.yul\":17950:17952   */\n      0x60\n        /* \"#utility.yul\":17939:17948   */\n      dup4\n        /* \"#utility.yul\":17935:17953   */\n      add\n        /* \"#utility.yul\":17926:17932   */\n      dup9\n        /* \"#utility.yul\":17882:17954   */\n      tag_391\n      jump\t// in\n    tag_649:\n        /* \"#utility.yul\":18002:18011   */\n      dup2\n        /* \"#utility.yul\":17996:18000   */\n      dup2\n        /* \"#utility.yul\":17992:18012   */\n      sub\n        /* \"#utility.yul\":17986:17989   */\n      0x80\n        /* \"#utility.yul\":17975:17984   */\n      dup4\n        /* \"#utility.yul\":17971:17990   */\n      add\n        /* \"#utility.yul\":17964:18013   */\n      mstore\n        /* \"#utility.yul\":18030:18108   */\n      tag_650\n        /* \"#utility.yul\":18103:18107   */\n      dup2\n        /* \"#utility.yul\":18094:18100   */\n      dup8\n        /* \"#utility.yul\":18030:18108   */\n      tag_405\n      jump\t// in\n    tag_650:\n        /* \"#utility.yul\":18022:18108   */\n      swap1\n      pop\n        /* \"#utility.yul\":18118:18191   */\n      tag_651\n        /* \"#utility.yul\":18186:18189   */\n      0xa0\n        /* \"#utility.yul\":18175:18184   */\n      dup4\n        /* \"#utility.yul\":18171:18190   */\n      add\n        /* \"#utility.yul\":18162:18168   */\n      dup7\n        /* \"#utility.yul\":18118:18191   */\n      tag_391\n      jump\t// in\n    tag_651:\n        /* \"#utility.yul\":18201:18274   */\n      tag_652\n        /* \"#utility.yul\":18269:18272   */\n      0xc0\n        /* \"#utility.yul\":18258:18267   */\n      dup4\n        /* \"#utility.yul\":18254:18273   */\n      add\n        /* \"#utility.yul\":18245:18251   */\n      dup6\n        /* \"#utility.yul\":18201:18274   */\n      tag_391\n      jump\t// in\n    tag_652:\n        /* \"#utility.yul\":18284:18357   */\n      tag_653\n        /* \"#utility.yul\":18352:18355   */\n      0xe0\n        /* \"#utility.yul\":18341:18350   */\n      dup4\n        /* \"#utility.yul\":18337:18356   */\n      add\n        /* \"#utility.yul\":18328:18334   */\n      dup5\n        /* \"#utility.yul\":18284:18357   */\n      tag_391\n      jump\t// in\n    tag_653:\n        /* \"#utility.yul\":17185:18364   */\n      swap10\n      swap9\n      pop\n      pop\n      pop\n      pop\n      pop\n      pop\n      pop\n      pop\n      pop\n      jump\t// out\n        /* \"#utility.yul\":18370:18844   */\n    tag_105:\n        /* \"#utility.yul\":18438:18444   */\n      0x00\n        /* \"#utility.yul\":18446:18452   */\n      0x00\n        /* \"#utility.yul\":18495:18497   */\n      0x40\n        /* \"#utility.yul\":18483:18492   */\n      dup4\n        /* \"#utility.yul\":18474:18481   */\n      dup6\n        /* \"#utility.yul\":18470:18493   */\n      sub\n        /* \"#utility.yul\":18466:18498   */\n      slt\n        /* \"#utility.yul\":18463:18582   */\n      iszero\n      tag_655\n      jumpi\n        /* \"#utility.yul\":18501:18580   */\n      tag_656\n      tag_375\n      jump\t// in\n    tag_656:\n        /* \"#utility.yul\":18463:18582   */\n    tag_655:\n        /* \"#utility.yul\":18621:18622   */\n      0x00\n        /* \"#utility.yul\":18646:18699   */\n      tag_657\n        /* \"#utility.yul\":18691:18698   */\n      dup6\n        /* \"#utility.yul\":18682:18688   */\n      dup3\n        /* \"#utility.yul\":18671:18680   */\n      dup7\n        /* \"#utility.yul\":18667:18689   */\n      add\n        /* \"#utility.yul\":18646:18699   */\n      tag_383\n      jump\t// in\n    tag_657:\n        /* \"#utility.yul\":18636:18699   */\n      swap3\n      pop\n        /* \"#utility.yul\":18592:18709   */\n      pop\n        /* \"#utility.yul\":18748:18750   */\n      0x20\n        /* \"#utility.yul\":18774:18827   */\n      tag_658\n        /* \"#utility.yul\":18819:18826   */\n      dup6\n        /* \"#utility.yul\":18810:18816   */\n      dup3\n        /* \"#utility.yul\":18799:18808   */\n      dup7\n        /* \"#utility.yul\":18795:18817   */\n      add\n        /* \"#utility.yul\":18774:18827   */\n      tag_380\n      jump\t// in\n    tag_658:\n        /* \"#utility.yul\":18764:18827   */\n      swap2\n      pop\n        /* \"#utility.yul\":18719:18837   */\n      pop\n        /* \"#utility.yul\":18370:18844   */\n      swap3\n      pop\n      swap3\n      swap1\n      pop\n      jump\t// out\n        /* \"#utility.yul\":18850:19072   */\n    tag_111:\n        /* \"#utility.yul\":18943:18947   */\n      0x00\n        /* \"#utility.yul\":18981:18983   */\n      0x20\n        /* \"#utility.yul\":18970:18979   */\n      dup3\n        /* \"#utility.yul\":18966:18984   */\n      add\n        /* \"#utility.yul\":18958:18984   */\n      swap1\n      pop\n        /* \"#utility.yul\":18994:19065   */\n      tag_660\n        /* \"#utility.yul\":19062:19063   */\n      0x00\n        /* \"#utility.yul\":19051:19060   */\n      dup4\n        /* \"#utility.yul\":19047:19064   */\n      add\n        /* \"#utility.yul\":19038:19044   */\n      dup5\n        /* \"#utility.yul\":18994:19065   */\n      tag_392\n      jump\t// in\n    tag_660:\n        /* \"#utility.yul\":18850:19072   */\n      swap3\n      swap2\n      pop\n      pop\n      jump\t// out\n        /* \"#utility.yul\":19078:19240   */\n    tag_422:\n        /* \"#utility.yul\":19218:19232   */\n      0x4e6f7420617070726f7665640000000000000000000000000000000000000000\n        /* \"#utility.yul\":19214:19215   */\n      0x00\n        /* \"#utility.yul\":19206:19212   */\n      dup3\n        /* \"#utility.yul\":19202:19216   */\n      add\n        /* \"#utility.yul\":19195:19233   */\n      mstore\n        /* \"#utility.yul\":19078:19240   */\n      pop\n      jump\t// out\n        /* \"#utility.yul\":19246:19612   */\n    tag_423:\n        /* \"#utility.yul\":19388:19391   */\n      0x00\n        /* \"#utility.yul\":19409:19476   */\n      tag_663\n        /* \"#utility.yul\":19473:19475   */\n      0x0c\n        /* \"#utility.yul\":19468:19471   */\n      dup4\n        /* \"#utility.yul\":19409:19476   */\n      tag_402\n      jump\t// in\n    tag_663:\n        /* \"#utility.yul\":19402:19476   */\n      swap2\n      pop\n        /* \"#utility.yul\":19485:19578   */\n      tag_664\n        /* \"#utility.yul\":19574:19577   */\n      dup3\n        /* \"#utility.yul\":19485:19578   */\n      tag_422\n      jump\t// in\n    tag_664:\n        /* \"#utility.yul\":19603:19605   */\n      0x20\n        /* \"#utility.yul\":19598:19601   */\n      dup3\n        /* \"#utility.yul\":19594:19606   */\n      add\n        /* \"#utility.yul\":19587:19606   */\n      swap1\n      pop\n        /* \"#utility.yul\":19246:19612   */\n      swap2\n      swap1\n      pop\n      jump\t// out\n        /* \"#utility.yul\":19618:20037   */\n    tag_121:\n        /* \"#utility.yul\":19784:19788   */\n      0x00\n        /* \"#utility.yul\":19822:19824   */\n      0x20\n        /* \"#utility.yul\":19811:19820   */\n      dup3\n        /* \"#utility.yul\":19807:19825   */\n      add\n        /* \"#utility.yul\":19799:19825   */\n      swap1\n      pop\n        /* \"#utility.yul\":19871:19880   */\n      dup2\n        /* \"#utility.yul\":19865:19869   */\n      dup2\n        /* \"#utility.yul\":19861:19881   */\n      sub\n        /* \"#utility.yul\":19857:19858   */\n      0x00\n        /* \"#utility.yul\":19846:19855   */\n      dup4\n        /* \"#utility.yul\":19842:19859   */\n      add\n        /* \"#utility.yul\":19835:19882   */\n      mstore\n        /* \"#utility.yul\":19899:20030   */\n      tag_666\n        /* \"#utility.yul\":20025:20029   */\n      dup2\n        /* \"#utility.yul\":19899:20030   */\n      tag_423\n      jump\t// in\n    tag_666:\n        /* \"#utility.yul\":19891:20030   */\n      swap1\n      pop\n        /* \"#utility.yul\":19618:20037   */\n      swap2\n      swap1\n      pop\n      jump\t// out\n        /* \"#utility.yul\":20043:20210   */\n    tag_424:\n        /* \"#utility.yul\":20183:20202   */\n      0x496e76616c696420726563697069656e74000000000000000000000000000000\n        /* \"#utility.yul\":20179:20180   */\n      0x00\n        /* \"#utility.yul\":20171:20177   */\n      dup3\n        /* \"#utility.yul\":20167:20181   */\n      add\n        /* \"#utility.yul\":20160:20203   */\n      mstore\n        /* \"#utility.yul\":20043:20210   */\n      pop\n      jump\t// out\n        /* \"#utility.yul\":20216:20582   */\n    tag_425:\n        /* \"#utility.yul\":20358:20361   */\n      0x00\n        /* \"#utility.yul\":20379:20446   */\n      tag_669\n        /* \"#utility.yul\":20443:20445   */\n      0x11\n        /* \"#utility.yul\":20438:20441   */\n      dup4\n        /* \"#utility.yul\":20379:20446   */\n      tag_402\n      jump\t// in\n    tag_669:\n        /* \"#utility.yul\":20372:20446   */\n      swap2\n      pop\n        /* \"#utility.yul\":20455:20548   */\n      tag_670\n        /* \"#utility.yul\":20544:20547   */\n      dup3\n        /* \"#utility.yul\":20455:20548   */\n      tag_424\n      jump\t// in\n    tag_670:\n        /* \"#utility.yul\":20573:20575   */\n      0x20\n        /* \"#utility.yul\":20568:20571   */\n      dup3\n        /* \"#utility.yul\":20564:20576   */\n      add\n        /* \"#utility.yul\":20557:20576   */\n      swap1\n      pop\n        /* \"#utility.yul\":20216:20582   */\n      swap2\n      swap1\n      pop\n      jump\t// out\n        /* \"#utility.yul\":20588:21007   */\n    tag_129:\n        /* \"#utility.yul\":20754:20758   */\n      0x00\n        /* \"#utility.yul\":20792:20794   */\n      0x20\n        /* \"#utility.yul\":20781:20790   */\n      dup3\n        /* \"#utility.yul\":20777:20795   */\n      add\n        /* \"#utility.yul\":20769:20795   */\n      swap1\n      pop\n        /* \"#utility.yul\":20841:20850   */\n      dup2\n        /* \"#utility.yul\":20835:20839   */\n      dup2\n        /* \"#utility.yul\":20831:20851   */\n      sub\n        /* \"#utility.yul\":20827:20828   */\n      0x00\n        /* \"#utility.yul\":20816:20825   */\n      dup4\n        /* \"#utility.yul\":20812:20829   */\n      add\n        /* \"#utility.yul\":20805:20852   */\n      mstore\n        /* \"#utility.yul\":20869:21000   */\n      tag_672\n        /* \"#utility.yul\":20995:20999   */\n      dup2\n        /* \"#utility.yul\":20869:21000   */\n      tag_425\n      jump\t// in\n    tag_672:\n        /* \"#utility.yul\":20861:21000   */\n      swap1\n      pop\n        /* \"#utility.yul\":20588:21007   */\n      swap2\n      swap1\n      pop\n      jump\t// out\n        /* \"#utility.yul\":21013:21181   */\n    tag_426:\n        /* \"#utility.yul\":21153:21173   */\n      0x416d6f756e74206d757374206265203e20300000000000000000000000000000\n        /* \"#utility.yul\":21149:21150   */\n      0x00\n        /* \"#utility.yul\":21141:21147   */\n      dup3\n        /* \"#utility.yul\":21137:21151   */\n      add\n        /* \"#utility.yul\":21130:21174   */\n      mstore\n        /* \"#utility.yul\":21013:21181   */\n      pop\n      jump\t// out\n        /* \"#utility.yul\":21187:21553   */\n    tag_427:\n        /* \"#utility.yul\":21329:21332   */\n      0x00\n        /* \"#utility.yul\":21350:21417   */\n      tag_675\n        /* \"#utility.yul\":21414:21416   */\n      0x12\n        /* \"#utility.yul\":21409:21412   */\n      dup4\n        /* \"#utility.yul\":21350:21417   */\n      tag_402\n      jump\t// in\n    tag_675:\n        /* \"#utility.yul\":21343:21417   */\n      swap2\n      pop\n        /* \"#utility.yul\":21426:21519   */\n      tag_676\n        /* \"#utility.yul\":21515:21518   */\n      dup3\n        /* \"#utility.yul\":21426:21519   */\n      tag_426\n      jump\t// in\n    tag_676:\n        /* \"#utility.yul\":21544:21546   */\n      0x20\n        /* \"#utility.yul\":21539:21542   */\n      dup3\n        /* \"#utility.yul\":21535:21547   */\n      add\n        /* \"#utility.yul\":21528:21547   */\n      swap1\n      pop\n        /* \"#utility.yul\":21187:21553   */\n      swap2\n      swap1\n      pop\n      jump\t// out\n        /* \"#utility.yul\":21559:21978   */\n    tag_132:\n        /* \"#utility.yul\":21725:21729   */\n      0x00\n        /* \"#utility.yul\":21763:21765   */\n      0x20\n        /* \"#utility.yul\":21752:21761   */\n      dup3\n        /* \"#utility.yul\":21748:21766   */\n      add\n        /* \"#utility.yul\":21740:21766   */\n      swap1\n      pop\n        /* \"#utility.yul\":21812:21821   */\n      dup2\n        /* \"#utility.yul\":21806:21810   */\n      dup2\n        /* \"#utility.yul\":21802:21822   */\n      sub\n        /* \"#utility.yul\":21798:21799   */\n      0x00\n        /* \"#utility.yul\":21787:21796   */\n      dup4\n        /* \"#utility.yul\":21783:21800   */\n      add\n        /* \"#utility.yul\":21776:21823   */\n      mstore\n        /* \"#utility.yul\":21840:21971   */\n      tag_678\n        /* \"#utility.yul\":21966:21970   */\n      dup2\n        /* \"#utility.yul\":21840:21971   */\n      tag_427\n      jump\t// in\n    tag_678:\n        /* \"#utility.yul\":21832:21971   */\n      swap1\n      pop\n        /* \"#utility.yul\":21559:21978   */\n      swap2\n      swap1\n      pop\n      jump\t// out\n        /* \"#utility.yul\":21984:22154   */\n    tag_428:\n        /* \"#utility.yul\":22124:22146   */\n      0x546f6b656e20646f6573206e6f74206578697374000000000000000000000000\n        /* \"#utility.yul\":22120:22121   */\n      0x00\n        /* \"#utility.yul\":22112:22118   */\n      dup3\n        /* \"#utility.yul\":22108:22122   */\n      add\n        /* \"#utility.yul\":22101:22147   */\n      mstore\n        /* \"#utility.yul\":21984:22154   */\n      pop\n      jump\t// out\n        /* \"#utility.yul\":22160:22526   */\n    tag_429:\n        /* \"#utility.yul\":22302:22305   */\n      0x00\n        /* \"#utility.yul\":22323:22390   */\n      tag_681\n        /* \"#utility.yul\":22387:22389   */\n      0x14\n        /* \"#utility.yul\":22382:22385   */\n      dup4\n        /* \"#utility.yul\":22323:22390   */\n      tag_402\n      jump\t// in\n    tag_681:\n        /* \"#utility.yul\":22316:22390   */\n      swap2\n      pop\n        /* \"#utility.yul\":22399:22492   */\n      tag_682\n        /* \"#utility.yul\":22488:22491   */\n      dup3\n        /* \"#utility.yul\":22399:22492   */\n      tag_428\n      jump\t// in\n    tag_682:\n        /* \"#utility.yul\":22517:22519   */\n      0x20\n        /* \"#utility.yul\":22512:22515   */\n      dup3\n        /* \"#utility.yul\":22508:22520   */\n      add\n        /* \"#utility.yul\":22501:22520   */\n      swap1\n      pop\n        /* \"#utility.yul\":22160:22526   */\n      swap2\n      swap1\n      pop\n      jump\t// out\n        /* \"#utility.yul\":22532:22951   */\n    tag_135:\n        /* \"#utility.yul\":22698:22702   */\n      0x00\n        /* \"#utility.yul\":22736:22738   */\n      0x20\n        /* \"#utility.yul\":22725:22734   */\n      dup3\n        /* \"#utility.yul\":22721:22739   */\n      add\n        /* \"#utility.yul\":22713:22739   */\n      swap1\n      pop\n        /* \"#utility.yul\":22785:22794   */\n      dup2\n        /* \"#utility.yul\":22779:22783   */\n      dup2\n        /* \"#utility.yul\":22775:22795   */\n      sub\n        /* \"#utility.yul\":22771:22772   */\n      0x00\n        /* \"#utility.yul\":22760:22769   */\n      dup4\n        /* \"#utility.yul\":22756:22773   */\n      add\n        /* \"#utility.yul\":22749:22796   */\n      mstore\n        /* \"#utility.yul\":22813:22944   */\n      tag_684\n        /* \"#utility.yul\":22939:22943   */\n      dup2\n        /* \"#utility.yul\":22813:22944   */\n      tag_429\n      jump\t// in\n    tag_684:\n        /* \"#utility.yul\":22805:22944   */\n      swap1\n      pop\n        /* \"#utility.yul\":22532:22951   */\n      swap2\n      swap1\n      pop\n      jump\t// out\n        /* \"#utility.yul\":22957:23131   */\n    tag_430:\n        /* \"#utility.yul\":23097:23123   */\n      0x526563697069656e74206e6f7420726567697374657265640000000000000000\n        /* \"#utility.yul\":23093:23094   */\n      0x00\n        /* \"#utility.yul\":23085:23091   */\n      dup3\n        /* \"#utility.yul\":23081:23095   */\n      add\n        /* \"#utility.yul\":23074:23124   */\n      mstore\n        /* \"#utility.yul\":22957:23131   */\n      pop\n      jump\t// out\n        /* \"#utility.yul\":23137:23503   */\n    tag_431:\n        /* \"#utility.yul\":23279:23282   */\n      0x00\n        /* \"#utility.yul\":23300:23367   */\n      tag_687\n        /* \"#utility.yul\":23364:23366   */\n      0x18\n        /* \"#utility.yul\":23359:23362   */\n      dup4\n        /* \"#utility.yul\":23300:23367   */\n      tag_402\n      jump\t// in\n    tag_687:\n        /* \"#utility.yul\":23293:23367   */\n      swap2\n      pop\n        /* \"#utility.yul\":23376:23469   */\n      tag_688\n        /* \"#utility.yul\":23465:23468   */\n      dup3\n        /* \"#utility.yul\":23376:23469   */\n      tag_430\n      jump\t// in\n    tag_688:\n        /* \"#utility.yul\":23494:23496   */\n      0x20\n        /* \"#utility.yul\":23489:23492   */\n      dup3\n        /* \"#utility.yul\":23485:23497   */\n      add\n        /* \"#utility.yul\":23478:23497   */\n      swap1\n      pop\n        /* \"#utility.yul\":23137:23503   */\n      swap2\n      swap1\n      pop\n      jump\t// out\n        /* \"#utility.yul\":23509:23928   */\n    tag_138:\n        /* \"#utility.yul\":23675:23679   */\n      0x00\n        /* \"#utility.yul\":23713:23715   */\n      0x20\n        /* \"#utility.yul\":23702:23711   */\n      dup3\n        /* \"#utility.yul\":23698:23716   */\n      add\n        /* \"#utility.yul\":23690:23716   */\n      swap1\n      pop\n        /* \"#utility.yul\":23762:23771   */\n      dup2\n        /* \"#utility.yul\":23756:23760   */\n      dup2\n        /* \"#utility.yul\":23752:23772   */\n      sub\n        /* \"#utility.yul\":23748:23749   */\n      0x00\n        /* \"#utility.yul\":23737:23746   */\n      dup4\n        /* \"#utility.yul\":23733:23750   */\n      add\n        /* \"#utility.yul\":23726:23773   */\n      mstore\n        /* \"#utility.yul\":23790:23921   */\n      tag_690\n        /* \"#utility.yul\":23916:23920   */\n      dup2\n        /* \"#utility.yul\":23790:23921   */\n      tag_431\n      jump\t// in\n    tag_690:\n        /* \"#utility.yul\":23782:23921   */\n      swap1\n      pop\n        /* \"#utility.yul\":23509:23928   */\n      swap2\n      swap1\n      pop\n      jump\t// out\n        /* \"#utility.yul\":23934:24108   */\n    tag_432:\n        /* \"#utility.yul\":24074:24100   */\n      0x436f6e73756d65722063616e6e6f74207472616e736665720000000000000000\n        /* \"#utility.yul\":24070:24071   */\n      0x00\n        /* \"#utility.yul\":24062:24068   */\n      dup3\n        /* \"#utility.yul\":24058:24072   */\n      add\n        /* \"#utility.yul\":24051:24101   */\n      mstore\n        /* \"#utility.yul\":23934:24108   */\n      pop\n      jump\t// out\n        /* \"#utility.yul\":24114:24480   */\n    tag_433:\n        /* \"#utility.yul\":24256:24259   */\n      0x00\n        /* \"#utility.yul\":24277:24344   */\n      tag_693\n        /* \"#utility.yul\":24341:24343   */\n      0x18\n        /* \"#utility.yul\":24336:24339   */\n      dup4\n        /* \"#utility.yul\":24277:24344   */\n      tag_402\n      jump\t// in\n    tag_693:\n        /* \"#utility.yul\":24270:24344   */\n      swap2\n      pop\n        /* \"#utility.yul\":24353:24446   */\n      tag_694\n        /* \"#utility.yul\":24442:24445   */\n      dup3\n        /* \"#utility.yul\":24353:24446   */\n      tag_432\n      jump\t// in\n    tag_694:\n        /* \"#utility.yul\":24471:24473   */\n      0x20\n        /* \"#utility.yul\":24466:24469   */\n      dup3\n        /* \"#utility.yul\":24462:24474   */\n      add\n        /* \"#utility.yul\":24455:24474   */\n      swap1\n      pop\n        /* \"#utility.yul\":24114:24480   */\n      swap2\n      swap1\n      pop\n      jump\t// out\n        /* \"#utility.yul\":24486:24905   */\n    tag_143:\n        /* \"#utility.yul\":24652:24656   */\n      0x00\n        /* \"#utility.yul\":24690:24692   */\n      0x20\n        /* \"#utility.yul\":24679:24688   */\n      dup3\n        /* \"#utility.yul\":24675:24693   */\n      add\n        /* \"#utility.yul\":24667:24693   */\n      swap1\n      pop\n        /* \"#utility.yul\":24739:24748   */\n      dup2\n        /* \"#utility.yul\":24733:24737   */\n      dup2\n        /* \"#utility.yul\":24729:24749   */\n      sub\n        /* \"#utility.yul\":24725:24726   */\n      0x00\n        /* \"#utility.yul\":24714:24723   */\n      dup4\n        /* \"#utility.yul\":24710:24727   */\n      add\n        /* \"#utility.yul\":24703:24750   */\n      mstore\n        /* \"#utility.yul\":24767:24898   */\n      tag_696\n        /* \"#utility.yul\":24893:24897   */\n      dup2\n        /* \"#utility.yul\":24767:24898   */\n      tag_433\n      jump\t// in\n    tag_696:\n        /* \"#utility.yul\":24759:24898   */\n      swap1\n      pop\n        /* \"#utility.yul\":24486:24905   */\n      swap2\n      swap1\n      pop\n      jump\t// out\n        /* \"#utility.yul\":24911:25084   */\n    tag_434:\n        /* \"#utility.yul\":25051:25076   */\n      0x496e76616c696420726f6c65207472616e736974696f6e000000000000000000\n        /* \"#utility.yul\":25047:25048   */\n      0x00\n        /* \"#utility.yul\":25039:25045   */\n      dup3\n        /* \"#utility.yul\":25035:25049   */\n      add\n        /* \"#utility.yul\":25028:25077   */\n      mstore\n        /* \"#utility.yul\":24911:25084   */\n      pop\n      jump\t// out\n        /* \"#utility.yul\":25090:25456   */\n    tag_435:\n        /* \"#utility.yul\":25232:25235   */\n      0x00\n        /* \"#utility.yul\":25253:25320   */\n      tag_699\n        /* \"#utility.yul\":25317:25319   */\n      0x17\n        /* \"#utility.yul\":25312:25315   */\n      dup4\n        /* \"#utility.yul\":25253:25320   */\n      tag_402\n      jump\t// in\n    tag_699:\n        /* \"#utility.yul\":25246:25320   */\n      swap2\n      pop\n        /* \"#utility.yul\":25329:25422   */\n      tag_700\n        /* \"#utility.yul\":25418:25421   */\n      dup3\n        /* \"#utility.yul\":25329:25422   */\n      tag_434\n      jump\t// in\n    tag_700:\n        /* \"#utility.yul\":25447:25449   */\n      0x20\n        /* \"#utility.yul\":25442:25445   */\n      dup3\n        /* \"#utility.yul\":25438:25450   */\n      add\n        /* \"#utility.yul\":25431:25450   */\n      swap1\n      pop\n        /* \"#utility.yul\":25090:25456   */\n      swap2\n      swap1\n      pop\n      jump\t// out\n        /* \"#utility.yul\":25462:25881   */\n    tag_148:\n        /* \"#utility.yul\":25628:25632   */\n      0x00\n        /* \"#utility.yul\":25666:25668   */\n      0x20\n        /* \"#utility.yul\":25655:25664   */\n      dup3\n        /* \"#utility.yul\":25651:25669   */\n      add\n        /* \"#utility.yul\":25643:25669   */\n      swap1\n      pop\n        /* \"#utility.yul\":25715:25724   */\n      dup2\n        /* \"#utility.yul\":25709:25713   */\n      dup2\n        /* \"#utility.yul\":25705:25725   */\n      sub\n        /* \"#utility.yul\":25701:25702   */\n      0x00\n        /* \"#utility.yul\":25690:25699   */\n      dup4\n        /* \"#utility.yul\":25686:25703   */\n      add\n        /* \"#utility.yul\":25679:25726   */\n      mstore\n        /* \"#utility.yul\":25743:25874   */\n      tag_702\n        /* \"#utility.yul\":25869:25873   */\n      dup2\n        /* \"#utility.yul\":25743:25874   */\n      tag_435\n      jump\t// in\n    tag_702:\n        /* \"#utility.yul\":25735:25874   */\n      swap1\n      pop\n        /* \"#utility.yul\":25462:25881   */\n      swap2\n      swap1\n      pop\n      jump\t// out\n        /* \"#utility.yul\":25887:26057   */\n    tag_436:\n        /* \"#utility.yul\":26027:26049   */\n      0x496e73756666696369656e742062616c616e6365000000000000000000000000\n        /* \"#utility.yul\":26023:26024   */\n      0x00\n        /* \"#utility.yul\":26015:26021   */\n      dup3\n        /* \"#utility.yul\":26011:26025   */\n      add\n        /* \"#utility.yul\":26004:26050   */\n      mstore\n        /* \"#utility.yul\":25887:26057   */\n      pop\n      jump\t// out\n        /* \"#utility.yul\":26063:26429   */\n    tag_437:\n        /* \"#utility.yul\":26205:26208   */\n      0x00\n        /* \"#utility.yul\":26226:26293   */\n      tag_705\n        /* \"#utility.yul\":26290:26292   */\n      0x14\n        /* \"#utility.yul\":26285:26288   */\n      dup4\n        /* \"#utility.yul\":26226:26293   */\n      tag_402\n      jump\t// in\n    tag_705:\n        /* \"#utility.yul\":26219:26293   */\n      swap2\n      pop\n        /* \"#utility.yul\":26302:26395   */\n      tag_706\n        /* \"#utility.yul\":26391:26394   */\n      dup3\n        /* \"#utility.yul\":26302:26395   */\n      tag_436\n      jump\t// in\n    tag_706:\n        /* \"#utility.yul\":26420:26422   */\n      0x20\n        /* \"#utility.yul\":26415:26418   */\n      dup3\n        /* \"#utility.yul\":26411:26423   */\n      add\n        /* \"#utility.yul\":26404:26423   */\n      swap1\n      pop\n        /* \"#utility.yul\":26063:26429   */\n      swap2\n      swap1\n      pop\n      jump\t// out\n        /* \"#utility.yul\":26435:26854   */\n    tag_151:\n        /* \"#utility.yul\":26601:26605   */\n      0x00\n        /* \"#utility.yul\":26639:26641   */\n      0x20\n        /* \"#utility.yul\":26628:26637   */\n      dup3\n        /* \"#utility.yul\":26624:26642   */\n      add\n        /* \"#utility.yul\":26616:26642   */\n      swap1\n      pop\n        /* \"#utility.yul\":26688:26697   */\n      dup2\n        /* \"#utility.yul\":26682:26686   */\n      dup2\n        /* \"#utility.yul\":26678:26698   */\n      sub\n        /* \"#utility.yul\":26674:26675   */\n      0x00\n        /* \"#utility.yul\":26663:26672   */\n      dup4\n        /* \"#utility.yul\":26659:26676   */\n      add\n        /* \"#utility.yul\":26652:26699   */\n      mstore\n        /* \"#utility.yul\":26716:26847   */\n      tag_708\n        /* \"#utility.yul\":26842:26846   */\n      dup2\n        /* \"#utility.yul\":26716:26847   */\n      tag_437\n      jump\t// in\n    tag_708:\n        /* \"#utility.yul\":26708:26847   */\n      swap1\n      pop\n        /* \"#utility.yul\":26435:26854   */\n      swap2\n      swap1\n      pop\n      jump\t// out\n        /* \"#utility.yul\":26860:27040   */\n    tag_438:\n        /* \"#utility.yul\":26908:26985   */\n      0x4e487b7100000000000000000000000000000000000000000000000000000000\n        /* \"#utility.yul\":26905:26906   */\n      0x00\n        /* \"#utility.yul\":26898:26986   */\n      mstore\n        /* \"#utility.yul\":27005:27009   */\n      0x11\n        /* \"#utility.yul\":27002:27003   */\n      0x04\n        /* \"#utility.yul\":26995:27010   */\n      mstore\n        /* \"#utility.yul\":27029:27033   */\n      0x24\n        /* \"#utility.yul\":27026:27027   */\n      0x00\n        /* \"#utility.yul\":27019:27034   */\n      revert\n        /* \"#utility.yul\":27046:27240   */\n    tag_153:\n        /* \"#utility.yul\":27086:27090   */\n      0x00\n        /* \"#utility.yul\":27106:27126   */\n      tag_711\n        /* \"#utility.yul\":27124:27125   */\n      dup3\n        /* \"#utility.yul\":27106:27126   */\n      tag_381\n      jump\t// in\n    tag_711:\n        /* \"#utility.yul\":27101:27126   */\n      swap2\n      pop\n        /* \"#utility.yul\":27140:27160   */\n      tag_712\n        /* \"#utility.yul\":27158:27159   */\n      dup4\n        /* \"#utility.yul\":27140:27160   */\n      tag_381\n      jump\t// in\n    tag_712:\n        /* \"#utility.yul\":27135:27160   */\n      swap3\n      pop\n        /* \"#utility.yul\":27184:27185   */\n      dup3\n        /* \"#utility.yul\":27181:27182   */\n      dup3\n        /* \"#utility.yul\":27177:27186   */\n      sub\n        /* \"#utility.yul\":27169:27186   */\n      swap1\n      pop\n        /* \"#utility.yul\":27208:27209   */\n      dup2\n        /* \"#utility.yul\":27202:27206   */\n      dup2\n        /* \"#utility.yul\":27199:27210   */\n      gt\n        /* \"#utility.yul\":27196:27233   */\n      iszero\n      tag_713\n      jumpi\n        /* \"#utility.yul\":27213:27231   */\n      tag_714\n      tag_438\n      jump\t// in\n    tag_714:\n        /* \"#utility.yul\":27196:27233   */\n    tag_713:\n        /* \"#utility.yul\":27046:27240   */\n      swap3\n      swap2\n      pop\n      pop\n      jump\t// out\n        /* \"#utility.yul\":27246:27437   */\n    tag_155:\n        /* \"#utility.yul\":27286:27289   */\n      0x00\n        /* \"#utility.yul\":27305:27325   */\n      tag_716\n        /* \"#utility.yul\":27323:27324   */\n      dup3\n        /* \"#utility.yul\":27305:27325   */\n      tag_381\n      jump\t// in\n    tag_716:\n        /* \"#utility.yul\":27300:27325   */\n      swap2\n      pop\n        /* \"#utility.yul\":27339:27359   */\n      tag_717\n        /* \"#utility.yul\":27357:27358   */\n      dup4\n        /* \"#utility.yul\":27339:27359   */\n      tag_381\n      jump\t// in\n    tag_717:\n        /* \"#utility.yul\":27334:27359   */\n      swap3\n      pop\n        /* \"#utility.yul\":27382:27383   */\n      dup3\n        /* \"#utility.yul\":27379:27380   */\n      dup3\n        /* \"#utility.yul\":27375:27384   */\n      add\n        /* \"#utility.yul\":27368:27384   */\n      swap1\n      pop\n        /* \"#utility.yul\":27403:27406   */\n      dup1\n        /* \"#utility.yul\":27400:27401   */\n      dup3\n        /* \"#utility.yul\":27397:27407   */\n      gt\n        /* \"#utility.yul\":27394:27430   */\n      iszero\n      tag_718\n      jumpi\n        /* \"#utility.yul\":27410:27428   */\n      tag_719\n      tag_438\n      jump\t// in\n    tag_719:\n        /* \"#utility.yul\":27394:27430   */\n    tag_718:\n        /* \"#utility.yul\":27246:27437   */\n      swap3\n      swap2\n      pop\n      pop\n      jump\t// out\n        /* \"#utility.yul\":27443:27676   */\n    tag_157:\n        /* \"#utility.yul\":27482:27485   */\n      0x00\n        /* \"#utility.yul\":27505:27529   */\n      tag_721\n        /* \"#utility.yul\":27523:27528   */\n      dup3\n        /* \"#utility.yul\":27505:27529   */\n      tag_381\n      jump\t// in\n    tag_721:\n        /* \"#utility.yul\":27496:27529   */\n      swap2\n      pop\n        /* \"#utility.yul\":27551:27617   */\n      0xffffffffffffffffffffffffffffffffffffffffffffffffffffffffffffffff\n        /* \"#utility.yul\":27544:27549   */\n      dup3\n        /* \"#utility.yul\":27541:27618   */\n      sub\n        /* \"#utility.yul\":27538:27641   */\n      tag_722\n      jumpi\n        /* \"#utility.yul\":27621:27639   */\n      tag_723\n      tag_438\n      jump\t// in\n    tag_723:\n        /* \"#utility.yul\":27538:27641   */\n    tag_722:\n        /* \"#utility.yul\":27668:27669   */\n      0x01\n        /* \"#utility.yul\":27661:27666   */\n      dup3\n        /* \"#utility.yul\":27657:27670   */\n      add\n        /* \"#utility.yul\":27650:27670   */\n      swap1\n      pop\n        /* \"#utility.yul\":27443:27676   */\n      swap2\n      swap1\n      pop\n      jump\t// out\n        /* \"#utility.yul\":27682:28014   */\n    tag_163:\n        /* \"#utility.yul\":27803:27807   */\n      0x00\n        /* \"#utility.yul\":27841:27843   */\n      0x40\n        /* \"#utility.yul\":27830:27839   */\n      dup3\n        /* \"#utility.yul\":27826:27844   */\n      add\n        /* \"#utility.yul\":27818:27844   */\n      swap1\n      pop\n        /* \"#utility.yul\":27854:27925   */\n      tag_725\n        /* \"#utility.yul\":27922:27923   */\n      0x00\n        /* \"#utility.yul\":27911:27920   */\n      dup4\n        /* \"#utility.yul\":27907:27924   */\n      add\n        /* \"#utility.yul\":27898:27904   */\n      dup6\n        /* \"#utility.yul\":27854:27925   */\n      tag_391\n      jump\t// in\n    tag_725:\n        /* \"#utility.yul\":27935:28007   */\n      tag_726\n        /* \"#utility.yul\":28003:28005   */\n      0x20\n        /* \"#utility.yul\":27992:28001   */\n      dup4\n        /* \"#utility.yul\":27988:28006   */\n      add\n        /* \"#utility.yul\":27979:27985   */\n      dup5\n        /* \"#utility.yul\":27935:28007   */\n      tag_391\n      jump\t// in\n    tag_726:\n        /* \"#utility.yul\":27682:28014   */\n      swap4\n      swap3\n      pop\n      pop\n      pop\n      jump\t// out\n        /* \"#utility.yul\":28020:28181   */\n    tag_439:\n        /* \"#utility.yul\":28160:28173   */\n      0x4e6f742070656e64696e67000000000000000000000000000000000000000000\n        /* \"#utility.yul\":28156:28157   */\n      0x00\n        /* \"#utility.yul\":28148:28154   */\n      dup3\n        /* \"#utility.yul\":28144:28158   */\n      add\n        /* \"#utility.yul\":28137:28174   */\n      mstore\n        /* \"#utility.yul\":28020:28181   */\n      pop\n      jump\t// out\n        /* \"#utility.yul\":28187:28553   */\n    tag_440:\n        /* \"#utility.yul\":28329:28332   */\n      0x00\n        /* \"#utility.yul\":28350:28417   */\n      tag_729\n        /* \"#utility.yul\":28414:28416   */\n      0x0b\n        /* \"#utility.yul\":28409:28412   */\n      dup4\n        /* \"#utility.yul\":28350:28417   */\n      tag_402\n      jump\t// in\n    tag_729:\n        /* \"#utility.yul\":28343:28417   */\n      swap2\n      pop\n        /* \"#utility.yul\":28426:28519   */\n      tag_730\n        /* \"#utility.yul\":28515:28518   */\n      dup3\n        /* \"#utility.yul\":28426:28519   */\n      tag_439\n      jump\t// in\n    tag_730:\n        /* \"#utility.yul\":28544:28546   */\n      0x20\n        /* \"#utility.yul\":28539:28542   */\n      dup3\n        /* \"#utility.yul\":28535:28547   */\n      add\n        /* \"#utility.yul\":28528:28547   */\n      swap1\n      pop\n        /* \"#utility.yul\":28187:28553   */\n      swap2\n      swap1\n      pop\n      jump\t// out\n        /* \"#utility.yul\":28559:28978   */\n    tag_175:\n        /* \"#utility.yul\":28725:28729   */\n      0x00\n        /* \"#utility.yul\":28763:28765   */\n      0x20\n        /* \"#utility.yul\":28752:28761   */\n      dup3\n        /* \"#utility.yul\":28748:28766   */\n      add\n        /* \"#utility.yul\":28740:28766   */\n      swap1\n      pop\n        /* \"#utility.yul\":28812:28821   */\n      dup2\n        /* \"#utility.yul\":28806:28810   */\n      dup2\n        /* \"#utility.yul\":28802:28822   */\n      sub\n        /* \"#utility.yul\":28798:28799   */\n      0x00\n        /* \"#utility.yul\":28787:28796   */\n      dup4\n        /* \"#utility.yul\":28783:28800   */\n      add\n        /* \"#utility.yul\":28776:28823   */\n      mstore\n        /* \"#utility.yul\":28840:28971   */\n      tag_732\n        /* \"#utility.yul\":28966:28970   */\n      dup2\n        /* \"#utility.yul\":28840:28971   */\n      tag_440\n      jump\t// in\n    tag_732:\n        /* \"#utility.yul\":28832:28971   */\n      swap1\n      pop\n        /* \"#utility.yul\":28559:28978   */\n      swap2\n      swap1\n      pop\n      jump\t// out\n        /* \"#utility.yul\":28984:29148   */\n    tag_441:\n        /* \"#utility.yul\":29124:29140   */\n      0x4e6f7420617574686f72697a6564000000000000000000000000000000000000\n        /* \"#utility.yul\":29120:29121   */\n      0x00\n        /* \"#utility.yul\":29112:29118   */\n      dup3\n        /* \"#utility.yul\":29108:29122   */\n      add\n        /* \"#utility.yul\":29101:29141   */\n      mstore\n        /* \"#utility.yul\":28984:29148   */\n      pop\n      jump\t// out\n        /* \"#utility.yul\":29154:29520   */\n    tag_442:\n        /* \"#utility.yul\":29296:29299   */\n      0x00\n        /* \"#utility.yul\":29317:29384   */\n      tag_735\n        /* \"#utility.yul\":29381:29383   */\n      0x0e\n        /* \"#utility.yul\":29376:29379   */\n      dup4\n        /* \"#utility.yul\":29317:29384   */\n      tag_402\n      jump\t// in\n    tag_735:\n        /* \"#utility.yul\":29310:29384   */\n      swap2\n      pop\n        /* \"#utility.yul\":29393:29486   */\n      tag_736\n        /* \"#utility.yul\":29482:29485   */\n      dup3\n        /* \"#utility.yul\":29393:29486   */\n      tag_441\n      jump\t// in\n    tag_736:\n        /* \"#utility.yul\":29511:29513   */\n      0x20\n        /* \"#utility.yul\":29506:29509   */\n      dup3\n        /* \"#utility.yul\":29502:29514   */\n      add\n        /* \"#utility.yul\":29495:29514   */\n      swap1\n      pop\n        /* \"#utility.yul\":29154:29520   */\n      swap2\n      swap1\n      pop\n      jump\t// out\n        /* \"#utility.yul\":29526:29945   */\n    tag_179:\n        /* \"#utility.yul\":29692:29696   */\n      0x00\n        /* \"#utility.yul\":29730:29732   */\n      0x20\n        /* \"#utility.yul\":29719:29728   */\n      dup3\n        /* \"#utility.yul\":29715:29733   */\n      add\n        /* \"#utility.yul\":29707:29733   */\n      swap1\n      pop\n        /* \"#utility.yul\":29779:29788   */\n      dup2\n        /* \"#utility.yul\":29773:29777   */\n      dup2\n        /* \"#utility.yul\":29769:29789   */\n      sub\n        /* \"#utility.yul\":29765:29766   */\n      0x00\n        /* \"#utility.yul\":29754:29763   */\n      dup4\n        /* \"#utility.yul\":29750:29767   */\n      add\n        /* \"#utility.yul\":29743:29790   */\n      mstore\n        /* \"#utility.yul\":29807:29938   */\n      tag_738\n        /* \"#utility.yul\":29933:29937   */\n      dup2\n        /* \"#utility.yul\":29807:29938   */\n      tag_442\n      jump\t// in\n    tag_738:\n        /* \"#utility.yul\":29799:29938   */\n      swap1\n      pop\n        /* \"#utility.yul\":29526:29945   */\n      swap2\n      swap1\n      pop\n      jump\t// out\n        /* \"#utility.yul\":29951:30114   */\n    tag_443:\n        /* \"#utility.yul\":30091:30106   */\n      0x4e6f7420726563697069656e7400000000000000000000000000000000000000\n        /* \"#utility.yul\":30087:30088   */\n      0x00\n        /* \"#utility.yul\":30079:30085   */\n      dup3\n        /* \"#utility.yul\":30075:30089   */\n      add\n        /* \"#utility.yul\":30068:30107   */\n      mstore\n        /* \"#utility.yul\":29951:30114   */\n      pop\n      jump\t// out\n        /* \"#utility.yul\":30120:30486   */\n    tag_444:\n        /* \"#utility.yul\":30262:30265   */\n      0x00\n        /* \"#utility.yul\":30283:30350   */\n      tag_741\n        /* \"#utility.yul\":30347:30349   */\n      0x0d\n        /* \"#utility.yul\":30342:30345   */\n      dup4\n        /* \"#utility.yul\":30283:30350   */\n      tag_402\n      jump\t// in\n    tag_741:\n        /* \"#utility.yul\":30276:30350   */\n      swap2\n      pop\n        /* \"#utility.yul\":30359:30452   */\n      tag_742\n        /* \"#utility.yul\":30448:30451   */\n      dup3\n        /* \"#utility.yul\":30359:30452   */\n      tag_443\n      jump\t// in\n    tag_742:\n        /* \"#utility.yul\":30477:30479   */\n      0x20\n        /* \"#utility.yul\":30472:30475   */\n      dup3\n        /* \"#utility.yul\":30468:30480   */\n      add\n        /* \"#utility.yul\":30461:30480   */\n      swap1\n      pop\n        /* \"#utility.yul\":30120:30486   */\n      swap2\n      swap1\n      pop\n      jump\t// out\n        /* \"#utility.yul\":30492:30911   */\n    tag_201:\n        /* \"#utility.yul\":30658:30662   */\n      0x00\n        /* \"#utility.yul\":30696:30698   */\n      0x20\n        /* \"#utility.yul\":30685:30694   */\n      dup3\n        /* \"#utility.yul\":30681:30699   */\n      add\n        /* \"#utility.yul\":30673:30699   */\n      swap1\n      pop\n        /* \"#utility.yul\":30745:30754   */\n      dup2\n        /* \"#utility.yul\":30739:30743   */\n      dup2\n        /* \"#utility.yul\":30735:30755   */\n      sub\n        /* \"#utility.yul\":30731:30732   */\n      0x00\n        /* \"#utility.yul\":30720:30729   */\n      dup4\n        /* \"#utility.yul\":30716:30733   */\n      add\n        /* \"#utility.yul\":30709:30756   */\n      mstore\n        /* \"#utility.yul\":30773:30904   */\n      tag_744\n        /* \"#utility.yul\":30899:30903   */\n      dup2\n        /* \"#utility.yul\":30773:30904   */\n      tag_444\n      jump\t// in\n    tag_744:\n        /* \"#utility.yul\":30765:30904   */\n      swap1\n      pop\n        /* \"#utility.yul\":30492:30911   */\n      swap2\n      swap1\n      pop\n      jump\t// out\n        /* \"#utility.yul\":30917:31097   */\n    tag_211:\n        /* \"#utility.yul\":30965:31042   */\n      0x4e487b7100000000000000000000000000000000000000000000000000000000\n        /* \"#utility.yul\":30962:30963   */\n      0x00\n        /* \"#utility.yul\":30955:31043   */\n      mstore\n        /* \"#utility.yul\":31062:31066   */\n      0x41\n        /* \"#utility.yul\":31059:31060   */\n      0x04\n        /* \"#utility.yul\":31052:31067   */\n      mstore\n        /* \"#utility.yul\":31086:31090   */\n      0x24\n        /* \"#utility.yul\":31083:31084   */\n      0x00\n        /* \"#utility.yul\":31076:31091   */\n      revert\n        /* \"#utility.yul\":31103:31283   */\n    tag_221:\n        /* \"#utility.yul\":31151:31228   */\n      0x4e487b7100000000000000000000000000000000000000000000000000000000\n        /* \"#utility.yul\":31148:31149   */\n      0x00\n        /* \"#utility.yul\":31141:31229   */\n      mstore\n        /* \"#utility.yul\":31248:31252   */\n      0x32\n        /* \"#utility.yul\":31245:31246   */\n      0x04\n        /* \"#utility.yul\":31238:31253   */\n      mstore\n        /* \"#utility.yul\":31272:31276   */\n      0x24\n        /* \"#utility.yul\":31269:31270   */\n      0x00\n        /* \"#utility.yul\":31262:31277   */\n      revert\n        /* \"#utility.yul\":31289:31451   */\n    tag_445:\n        /* \"#utility.yul\":31429:31443   */\n      0x496e76616c696420726f6c650000000000000000000000000000000000000000\n        /* \"#utility.yul\":31425:31426   */\n      0x00\n        /* \"#utility.yul\":31417:31423   */\n      dup3\n        /* \"#utility.yul\":31413:31427   */\n      add\n        /* \"#utility.yul\":31406:31444   */\n      mstore\n        /* \"#utility.yul\":31289:31451   */\n      pop\n      jump\t// out\n        /* \"#utility.yul\":31457:31823   */\n    tag_446:\n        /* \"#utility.yul\":31599:31602   */\n      0x00\n        /* \"#utility.yul\":31620:31687   */\n      tag_749\n        /* \"#utility.yul\":31684:31686   */\n      0x0c\n        /* \"#utility.yul\":31679:31682   */\n      dup4\n        /* \"#utility.yul\":31620:31687   */\n      tag_402\n      jump\t// in\n    tag_749:\n        /* \"#utility.yul\":31613:31687   */\n      swap2\n      pop\n        /* \"#utility.yul\":31696:31789   */\n      tag_750\n        /* \"#utility.yul\":31785:31788   */\n      dup3\n        /* \"#utility.yul\":31696:31789   */\n      tag_445\n      jump\t// in\n    tag_750:\n        /* \"#utility.yul\":31814:31816   */\n      0x20\n        /* \"#utility.yul\":31809:31812   */\n      dup3\n        /* \"#utility.yul\":31805:31817   */\n      add\n        /* \"#utility.yul\":31798:31817   */\n      swap1\n      pop\n        /* \"#utility.yul\":31457:31823   */\n      swap2\n      swap1\n      pop\n      jump\t// out\n        /* \"#utility.yul\":31829:32248   */\n    tag_235:\n        /* \"#utility.yul\":31995:31999   */\n      0x00\n        /* \"#utility.yul\":32033:32035   */\n      0x20\n        /* \"#utility.yul\":32022:32031   */\n      dup3\n        /* \"#utility.yul\":32018:32036   */\n      add\n        /* \"#utility.yul\":32010:32036   */\n      swap1\n      pop\n        /* \"#utility.yul\":32082:32091   */\n      dup2\n        /* \"#utility.yul\":32076:32080   */\n      dup2\n        /* \"#utility.yul\":32072:32092   */\n      sub\n        /* \"#utility.yul\":32068:32069   */\n      0x00\n        /* \"#utility.yul\":32057:32066   */\n      dup4\n        /* \"#utility.yul\":32053:32070   */\n      add\n        /* \"#utility.yul\":32046:32093   */\n      mstore\n        /* \"#utility.yul\":32110:32241   */\n      tag_752\n        /* \"#utility.yul\":32236:32240   */\n      dup2\n        /* \"#utility.yul\":32110:32241   */\n      tag_446\n      jump\t// in\n    tag_752:\n        /* \"#utility.yul\":32102:32241   */\n      swap1\n      pop\n        /* \"#utility.yul\":31829:32248   */\n      swap2\n      swap1\n      pop\n      jump\t// out\n        /* \"#utility.yul\":32254:32476   */\n    tag_246:\n        /* \"#utility.yul\":32347:32351   */\n      0x00\n        /* \"#utility.yul\":32385:32387   */\n      0x20\n        /* \"#utility.yul\":32374:32383   */\n      dup3\n        /* \"#utility.yul\":32370:32388   */\n      add\n        /* \"#utility.yul\":32362:32388   */\n      swap1\n      pop\n        /* \"#utility.yul\":32398:32469   */\n      tag_754\n        /* \"#utility.yul\":32466:32467   */\n      0x00\n        /* \"#utility.yul\":32455:32464   */\n      dup4\n        /* \"#utility.yul\":32451:32468   */\n      add\n        /* \"#utility.yul\":32442:32448   */\n      dup5\n        /* \"#utility.yul\":32398:32469   */\n      tag_394\n      jump\t// in\n    tag_754:\n        /* \"#utility.yul\":32254:32476   */\n      swap3\n      swap2\n      pop\n      pop\n      jump\t// out\n        /* \"#utility.yul\":32482:32728   */\n    tag_248:\n        /* \"#utility.yul\":32587:32591   */\n      0x00\n        /* \"#utility.yul\":32625:32627   */\n      0x20\n        /* \"#utility.yul\":32614:32623   */\n      dup3\n        /* \"#utility.yul\":32610:32628   */\n      add\n        /* \"#utility.yul\":32602:32628   */\n      swap1\n      pop\n        /* \"#utility.yul\":32638:32721   */\n      tag_756\n        /* \"#utility.yul\":32718:32719   */\n      0x00\n        /* \"#utility.yul\":32707:32716   */\n      dup4\n        /* \"#utility.yul\":32703:32720   */\n      add\n        /* \"#utility.yul\":32694:32700   */\n      dup5\n        /* \"#utility.yul\":32638:32721   */\n      tag_398\n      jump\t// in\n    tag_756:\n        /* \"#utility.yul\":32482:32728   */\n      swap3\n      swap2\n      pop\n      pop\n      jump\t// out\n        /* \"#utility.yul\":32734:32914   */\n    tag_447:\n        /* \"#utility.yul\":32782:32859   */\n      0x4e487b7100000000000000000000000000000000000000000000000000000000\n        /* \"#utility.yul\":32779:32780   */\n      0x00\n        /* \"#utility.yul\":32772:32860   */\n      mstore\n        /* \"#utility.yul\":32879:32883   */\n      0x22\n        /* \"#utility.yul\":32876:32877   */\n      0x04\n        /* \"#utility.yul\":32869:32884   */\n      mstore\n        /* \"#utility.yul\":32903:32907   */\n      0x24\n        /* \"#utility.yul\":32900:32901   */\n      0x00\n        /* \"#utility.yul\":32893:32908   */\n      revert\n        /* \"#utility.yul\":32920:33240   */\n    tag_250:\n        /* \"#utility.yul\":32964:32970   */\n      0x00\n        /* \"#utility.yul\":33001:33002   */\n      0x02\n        /* \"#utility.yul\":32995:32999   */\n      dup3\n        /* \"#utility.yul\":32991:33003   */\n      div\n        /* \"#utility.yul\":32981:33003   */\n      swap1\n      pop\n        /* \"#utility.yul\":33048:33049   */\n      0x01\n        /* \"#utility.yul\":33042:33046   */\n      dup3\n        /* \"#utility.yul\":33038:33050   */\n      and\n        /* \"#utility.yul\":33069:33087   */\n      dup1\n        /* \"#utility.yul\":33059:33140   */\n      tag_759\n      jumpi\n        /* \"#utility.yul\":33125:33129   */\n      0x7f\n        /* \"#utility.yul\":33117:33123   */\n      dup3\n        /* \"#utility.yul\":33113:33130   */\n      and\n        /* \"#utility.yul\":33103:33130   */\n      swap2\n      pop\n        /* \"#utility.yul\":33059:33140   */\n    tag_759:\n        /* \"#utility.yul\":33187:33189   */\n      0x20\n        /* \"#utility.yul\":33179:33185   */\n      dup3\n        /* \"#utility.yul\":33176:33190   */\n      lt\n        /* \"#utility.yul\":33156:33174   */\n      dup2\n        /* \"#utility.yul\":33153:33191   */\n      sub\n        /* \"#utility.yul\":33150:33234   */\n      tag_760\n      jumpi\n        /* \"#utility.yul\":33206:33224   */\n      tag_761\n      tag_447\n      jump\t// in\n    tag_761:\n        /* \"#utility.yul\":33150:33234   */\n    tag_760:\n        /* \"#utility.yul\":32971:33240   */\n      pop\n        /* \"#utility.yul\":32920:33240   */\n      swap2\n      swap1\n      pop\n      jump\t// out\n        /* \"#utility.yul\":33246:33405   */\n    tag_448:\n        /* \"#utility.yul\":33386:33397   */\n      0x4e6f742061646d696e0000000000000000000000000000000000000000000000\n        /* \"#utility.yul\":33382:33383   */\n      0x00\n        /* \"#utility.yul\":33374:33380   */\n      dup3\n        /* \"#utility.yul\":33370:33384   */\n      add\n        /* \"#utility.yul\":33363:33398   */\n      mstore\n        /* \"#utility.yul\":33246:33405   */\n      pop\n      jump\t// out\n        /* \"#utility.yul\":33411:33776   */\n    tag_449:\n        /* \"#utility.yul\":33553:33556   */\n      0x00\n        /* \"#utility.yul\":33574:33640   */\n      tag_764\n        /* \"#utility.yul\":33638:33639   */\n      0x09\n        /* \"#utility.yul\":33633:33636   */\n      dup4\n        /* \"#utility.yul\":33574:33640   */\n      tag_402\n      jump\t// in\n    tag_764:\n        /* \"#utility.yul\":33567:33640   */\n      swap2\n      pop\n        /* \"#utility.yul\":33649:33742   */\n      tag_765\n        /* \"#utility.yul\":33738:33741   */\n      dup3\n        /* \"#utility.yul\":33649:33742   */\n      tag_448\n      jump\t// in\n    tag_765:\n        /* \"#utility.yul\":33767:33769   */\n      0x20\n        /* \"#utility.yul\":33762:33765   */\n      dup3\n        /* \"#utility.yul\":33758:33770   */\n      add\n        /* \"#utility.yul\":33751:33770   */\n      swap1\n      pop\n        /* \"#utility.yul\":33411:33776   */\n      swap2\n      swap1\n      pop\n      jump\t// out\n        /* \"#utility.yul\":33782:34201   */\n    tag_297:\n        /* \"#utility.yul\":33948:33952   */\n      0x00\n        /* \"#utility.yul\":33986:33988   */\n      0x20\n        /* \"#utility.yul\":33975:33984   */\n      dup3\n        /* \"#utility.yul\":33971:33989   */\n      add\n        /* \"#utility.yul\":33963:33989   */\n      swap1\n      pop\n        /* \"#utility.yul\":34035:34044   */\n      dup2\n        /* \"#utility.yul\":34029:34033   */\n      dup2\n        /* \"#utility.yul\":34025:34045   */\n      sub\n        /* \"#utility.yul\":34021:34022   */\n      0x00\n        /* \"#utility.yul\":34010:34019   */\n      dup4\n        /* \"#utility.yul\":34006:34023   */\n      add\n        /* \"#utility.yul\":33999:34046   */\n      mstore\n        /* \"#utility.yul\":34063:34194   */\n      tag_767\n        /* \"#utility.yul\":34189:34193   */\n      dup2\n        /* \"#utility.yul\":34063:34194   */\n      tag_449\n      jump\t// in\n    tag_767:\n        /* \"#utility.yul\":34055:34194   */\n      swap1\n      pop\n        /* \"#utility.yul\":33782:34201   */\n      swap2\n      swap1\n      pop\n      jump\t// out\n        /* \"#utility.yul\":34207:34371   */\n    tag_450:\n        /* \"#utility.yul\":34347:34363   */\n      0x55736572206e6f7420666f756e64000000000000000000000000000000000000\n        /* \"#utility.yul\":34343:34344   */\n      0x00\n        /* \"#utility.yul\":34335:34341   */\n      dup3\n        /* \"#utility.yul\":34331:34345   */\n      add\n        /* \"#utility.yul\":34324:34364   */\n      mstore\n        /* \"#utility.yul\":34207:34371   */\n      pop\n      jump\t// out\n        /* \"#utility.yul\":34377:34743   */\n    tag_451:\n        /* \"#utility.yul\":34519:34522   */\n      0x00\n        /* \"#utility.yul\":34540:34607   */\n      tag_770\n        /* \"#utility.yul\":34604:34606   */\n      0x0e\n        /* \"#utility.yul\":34599:34602   */\n      dup4\n        /* \"#utility.yul\":34540:34607   */\n      tag_402\n      jump\t// in\n    tag_770:\n        /* \"#utility.yul\":34533:34607   */\n      swap2\n      pop\n        /* \"#utility.yul\":34616:34709   */\n      tag_771\n        /* \"#utility.yul\":34705:34708   */\n      dup3\n        /* \"#utility.yul\":34616:34709   */\n      tag_450\n      jump\t// in\n    tag_771:\n        /* \"#utility.yul\":34734:34736   */\n      0x20\n        /* \"#utility.yul\":34729:34732   */\n      dup3\n        /* \"#utility.yul\":34725:34737   */\n      add\n        /* \"#utility.yul\":34718:34737   */\n      swap1\n      pop\n        /* \"#utility.yul\":34377:34743   */\n      swap2\n      swap1\n      pop\n      jump\t// out\n        /* \"#utility.yul\":34749:35168   */\n    tag_301:\n        /* \"#utility.yul\":34915:34919   */\n      0x00\n        /* \"#utility.yul\":34953:34955   */\n      0x20\n        /* \"#utility.yul\":34942:34951   */\n      dup3\n        /* \"#utility.yul\":34938:34956   */\n      add\n        /* \"#utility.yul\":34930:34956   */\n      swap1\n      pop\n        /* \"#utility.yul\":35002:35011   */\n      dup2\n        /* \"#utility.yul\":34996:35000   */\n      dup2\n        /* \"#utility.yul\":34992:35012   */\n      sub\n        /* \"#utility.yul\":34988:34989   */\n      0x00\n        /* \"#utility.yul\":34977:34986   */\n      dup4\n        /* \"#utility.yul\":34973:34990   */\n      add\n        /* \"#utility.yul\":34966:35013   */\n      mstore\n        /* \"#utility.yul\":35030:35161   */\n      tag_773\n        /* \"#utility.yul\":35156:35160   */\n      dup2\n        /* \"#utility.yul\":35030:35161   */\n      tag_451\n      jump\t// in\n    tag_773:\n        /* \"#utility.yul\":35022:35161   */\n      swap1\n      pop\n        /* \"#utility.yul\":34749:35168   */\n      swap2\n      swap1\n      pop\n      jump\t// out\n        /* \"#utility.yul\":35174:35334   */\n    tag_452:\n        /* \"#utility.yul\":35314:35326   */\n      0x4e616d6520656d70747900000000000000000000000000000000000000000000\n        /* \"#utility.yul\":35310:35311   */\n      0x00\n        /* \"#utility.yul\":35302:35308   */\n      dup3\n        /* \"#utility.yul\":35298:35312   */\n      add\n        /* \"#utility.yul\":35291:35327   */\n      mstore\n        /* \"#utility.yul\":35174:35334   */\n      pop\n      jump\t// out\n        /* \"#utility.yul\":35340:35706   */\n    tag_453:\n        /* \"#utility.yul\":35482:35485   */\n      0x00\n        /* \"#utility.yul\":35503:35570   */\n      tag_776\n        /* \"#utility.yul\":35567:35569   */\n      0x0a\n        /* \"#utility.yul\":35562:35565   */\n      dup4\n        /* \"#utility.yul\":35503:35570   */\n      tag_402\n      jump\t// in\n    tag_776:\n        /* \"#utility.yul\":35496:35570   */\n      swap2\n      pop\n        /* \"#utility.yul\":35579:35672   */\n      tag_777\n        /* \"#utility.yul\":35668:35671   */\n      dup3\n        /* \"#utility.yul\":35579:35672   */\n      tag_452\n      jump\t// in\n    tag_777:\n        /* \"#utility.yul\":35697:35699   */\n      0x20\n        /* \"#utility.yul\":35692:35695   */\n      dup3\n        /* \"#utility.yul\":35688:35700   */\n      add\n        /* \"#utility.yul\":35681:35700   */\n      swap1\n      pop\n        /* \"#utility.yul\":35340:35706   */\n      swap2\n      swap1\n      pop\n      jump\t// out\n        /* \"#utility.yul\":35712:36131   */\n    tag_323:\n        /* \"#utility.yul\":35878:35882   */\n      0x00\n        /* \"#utility.yul\":35916:35918   */\n      0x20\n        /* \"#utility.yul\":35905:35914   */\n      dup3\n        /* \"#utility.yul\":35901:35919   */\n      add\n        /* \"#utility.yul\":35893:35919   */\n      swap1\n      pop\n        /* \"#utility.yul\":35965:35974   */\n      dup2\n        /* \"#utility.yul\":35959:35963   */\n      dup2\n        /* \"#utility.yul\":35955:35975   */\n      sub\n        /* \"#utility.yul\":35951:35952   */\n      0x00\n        /* \"#utility.yul\":35940:35949   */\n      dup4\n        /* \"#utility.yul\":35936:35953   */\n      add\n        /* \"#utility.yul\":35929:35976   */\n      mstore\n        /* \"#utility.yul\":35993:36124   */\n      tag_779\n        /* \"#utility.yul\":36119:36123   */\n      dup2\n        /* \"#utility.yul\":35993:36124   */\n      tag_453\n      jump\t// in\n    tag_779:\n        /* \"#utility.yul\":35985:36124   */\n      swap1\n      pop\n        /* \"#utility.yul\":35712:36131   */\n      swap2\n      swap1\n      pop\n      jump\t// out\n        /* \"#utility.yul\":36137:36234   */\n    tag_454:\n        /* \"#utility.yul\":36196:36202   */\n      0x00\n        /* \"#utility.yul\":36224:36227   */\n      dup3\n        /* \"#utility.yul\":36214:36227   */\n      swap1\n      pop\n        /* \"#utility.yul\":36137:36234   */\n      swap3\n      swap2\n      pop\n      pop\n      jump\t// out\n        /* \"#utility.yul\":36240:36381   */\n    tag_455:\n        /* \"#utility.yul\":36289:36293   */\n      0x00\n        /* \"#utility.yul\":36312:36315   */\n      dup2\n        /* \"#utility.yul\":36304:36315   */\n      swap1\n      pop\n        /* \"#utility.yul\":36335:36338   */\n      dup2\n        /* \"#utility.yul\":36332:36333   */\n      0x00\n        /* \"#utility.yul\":36325:36339   */\n      mstore\n        /* \"#utility.yul\":36369:36373   */\n      0x20\n        /* \"#utility.yul\":36366:36367   */\n      0x00\n        /* \"#utility.yul\":36356:36374   */\n      keccak256\n        /* \"#utility.yul\":36348:36374   */\n      swap1\n      pop\n        /* \"#utility.yul\":36240:36381   */\n      swap2\n      swap1\n      pop\n      jump\t// out\n        /* \"#utility.yul\":36387:36480   */\n    tag_456:\n        /* \"#utility.yul\":36424:36430   */\n      0x00\n        /* \"#utility.yul\":36471:36473   */\n      0x20\n        /* \"#utility.yul\":36466:36468   */\n      0x1f\n        /* \"#utility.yul\":36459:36464   */\n      dup4\n        /* \"#utility.yul\":36455:36469   */\n      add\n        /* \"#utility.yul\":36451:36474   */\n      div\n        /* \"#utility.yul\":36441:36474   */\n      swap1\n      pop\n        /* \"#utility.yul\":36387:36480   */\n      swap2\n      swap1\n      pop\n      jump\t// out\n        /* \"#utility.yul\":36486:36593   */\n    tag_457:\n        /* \"#utility.yul\":36530:36538   */\n      0x00\n        /* \"#utility.yul\":36580:36585   */\n      dup3\n        /* \"#utility.yul\":36574:36578   */\n      dup3\n        /* \"#utility.yul\":36570:36586   */\n      shl\n        /* \"#utility.yul\":36549:36586   */\n      swap1\n      pop\n        /* \"#utility.yul\":36486:36593   */\n      swap3\n      swap2\n      pop\n      pop\n      jump\t// out\n        /* \"#utility.yul\":36599:36992   */\n    tag_458:\n        /* \"#utility.yul\":36668:36674   */\n      0x00\n        /* \"#utility.yul\":36718:36719   */\n      0x08\n        /* \"#utility.yul\":36706:36716   */\n      dup4\n        /* \"#utility.yul\":36702:36720   */\n      mul\n        /* \"#utility.yul\":36741:36838   */\n      tag_785\n        /* \"#utility.yul\":36771:36837   */\n      0xffffffffffffffffffffffffffffffffffffffffffffffffffffffffffffffff\n        /* \"#utility.yul\":36760:36769   */\n      dup3\n        /* \"#utility.yul\":36741:36838   */\n      tag_457\n      jump\t// in\n    tag_785:\n        /* \"#utility.yul\":36859:36898   */\n      tag_786\n        /* \"#utility.yul\":36889:36897   */\n      dup7\n        /* \"#utility.yul\":36878:36887   */\n      dup4\n        /* \"#utility.yul\":36859:36898   */\n      tag_457\n      jump\t// in\n    tag_786:\n        /* \"#utility.yul\":36847:36898   */\n      swap6\n      pop\n        /* \"#utility.yul\":36931:36935   */\n      dup1\n        /* \"#utility.yul\":36927:36936   */\n      not\n        /* \"#utility.yul\":36920:36925   */\n      dup5\n        /* \"#utility.yul\":36916:36937   */\n      and\n        /* \"#utility.yul\":36907:36937   */\n      swap4\n      pop\n        /* \"#utility.yul\":36980:36984   */\n      dup1\n        /* \"#utility.yul\":36970:36978   */\n      dup7\n        /* \"#utility.yul\":36966:36985   */\n      and\n        /* \"#utility.yul\":36959:36964   */\n      dup5\n        /* \"#utility.yul\":36956:36986   */\n      or\n        /* \"#utility.yul\":36946:36986   */\n      swap3\n      pop\n        /* \"#utility.yul\":36675:36992   */\n      pop\n      pop\n        /* \"#utility.yul\":36599:36992   */\n      swap4\n      swap3\n      pop\n      pop\n      pop\n      jump\t// out\n        /* \"#utility.yul\":36998:37058   */\n    tag_459:\n        /* \"#utility.yul\":37026:37029   */\n      0x00\n        /* \"#utility.yul\":37047:37052   */\n      dup2\n        /* \"#utility.yul\":37040:37052   */\n      swap1\n      pop\n        /* \"#utility.yul\":36998:37058   */\n      swap2\n      swap1\n      pop\n      jump\t// out\n        /* \"#utility.yul\":37064:37206   */\n    tag_460:\n        /* \"#utility.yul\":37114:37123   */\n      0x00\n        /* \"#utility.yul\":37147:37200   */\n      tag_789\n        /* \"#utility.yul\":37165:37199   */\n      tag_790\n        /* \"#utility.yul\":37174:37198   */\n      tag_791\n        /* \"#utility.yul\":37192:37197   */\n      dup5\n        /* \"#utility.yul\":37174:37198   */\n      tag_381\n      jump\t// in\n    tag_791:\n        /* \"#utility.yul\":37165:37199   */\n      tag_459\n      jump\t// in\n    tag_790:\n        /* \"#utility.yul\":37147:37200   */\n      tag_381\n      jump\t// in\n    tag_789:\n        /* \"#utility.yul\":37134:37200   */\n      swap1\n      pop\n        /* \"#utility.yul\":37064:37206   */\n      swap2\n      swap1\n      pop\n      jump\t// out\n        /* \"#utility.yul\":37212:37287   */\n    tag_461:\n        /* \"#utility.yul\":37255:37258   */\n      0x00\n        /* \"#utility.yul\":37276:37281   */\n      dup2\n        /* \"#utility.yul\":37269:37281   */\n      swap1\n      pop\n        /* \"#utility.yul\":37212:37287   */\n      swap2\n      swap1\n      pop\n      jump\t// out\n        /* \"#utility.yul\":37293:37562   */\n    tag_462:\n        /* \"#utility.yul\":37403:37442   */\n      tag_794\n        /* \"#utility.yul\":37434:37441   */\n      dup4\n        /* \"#utility.yul\":37403:37442   */\n      tag_460\n      jump\t// in\n    tag_794:\n        /* \"#utility.yul\":37464:37555   */\n      tag_795\n        /* \"#utility.yul\":37513:37554   */\n      tag_796\n        /* \"#utility.yul\":37537:37553   */\n      dup3\n        /* \"#utility.yul\":37513:37554   */\n      tag_461\n      jump\t// in\n    tag_796:\n        /* \"#utility.yul\":37505:37511   */\n      dup5\n        /* \"#utility.yul\":37498:37502   */\n      dup5\n        /* \"#utility.yul\":37492:37503   */\n      sload\n        /* \"#utility.yul\":37464:37555   */\n      tag_458\n      jump\t// in\n    tag_795:\n        /* \"#utility.yul\":37458:37462   */\n      dup3\n        /* \"#utility.yul\":37451:37556   */\n      sstore\n        /* \"#utility.yul\":37369:37562   */\n      pop\n        /* \"#utility.yul\":37293:37562   */\n      pop\n      pop\n      pop\n      jump\t// out\n        /* \"#utility.yul\":37568:37641   */\n    tag_463:\n        /* \"#utility.yul\":37613:37616   */\n      0x00\n        /* \"#utility.yul\":37634:37635   */\n      0x00\n        /* \"#utility.yul\":37627:37635   */\n      swap1\n      pop\n        /* \"#utility.yul\":37568:37641   */\n      swap1\n      jump\t// out\n        /* \"#utility.yul\":37647:37836   */\n    tag_464:\n        /* \"#utility.yul\":37724:37756   */\n      tag_799\n      tag_463\n      jump\t// in\n    tag_799:\n        /* \"#utility.yul\":37765:37830   */\n      tag_800\n        /* \"#utility.yul\":37823:37829   */\n      dup2\n        /* \"#utility.yul\":37815:37821   */\n      dup5\n        /* \"#utility.yul\":37809:37813   */\n      dup5\n        /* \"#utility.yul\":37765:37830   */\n      tag_462\n      jump\t// in\n    tag_800:\n        /* \"#utility.yul\":37700:37836   */\n      pop\n        /* \"#utility.yul\":37647:37836   */\n      pop\n      pop\n      jump\t// out\n        /* \"#utility.yul\":37842:38028   */\n    tag_465:\n        /* \"#utility.yul\":37902:38022   */\n    tag_802:\n        /* \"#utility.yul\":37919:37922   */\n      dup2\n        /* \"#utility.yul\":37912:37917   */\n      dup2\n        /* \"#utility.yul\":37909:37923   */\n      lt\n        /* \"#utility.yul\":37902:38022   */\n      iszero\n      tag_804\n      jumpi\n        /* \"#utility.yul\":37973:38012   */\n      tag_805\n        /* \"#utility.yul\":38010:38011   */\n      0x00\n        /* \"#utility.yul\":38003:38008   */\n      dup3\n        /* \"#utility.yul\":37973:38012   */\n      tag_464\n      jump\t// in\n    tag_805:\n        /* \"#utility.yul\":37946:37947   */\n      0x01\n        /* \"#utility.yul\":37939:37944   */\n      dup2\n        /* \"#utility.yul\":37935:37948   */\n      add\n        /* \"#utility.yul\":37926:37948   */\n      swap1\n      pop\n        /* \"#utility.yul\":37902:38022   */\n      jump(tag_802)\n    tag_804:\n        /* \"#utility.yul\":37842:38028   */\n      pop\n      pop\n      jump\t// out\n        /* \"#utility.yul\":38034:38577   */\n    tag_466:\n        /* \"#utility.yul\":38135:38137   */\n      0x1f\n        /* \"#utility.yul\":38130:38133   */\n      dup3\n        /* \"#utility.yul\":38127:38138   */\n      gt\n        /* \"#utility.yul\":38124:38570   */\n      iszero\n      tag_807\n      jumpi\n        /* \"#utility.yul\":38169:38207   */\n      tag_808\n        /* \"#utility.yul\":38201:38206   */\n      dup2\n        /* \"#utility.yul\":38169:38207   */\n      tag_455\n      jump\t// in\n    tag_808:\n        /* \"#utility.yul\":38253:38282   */\n      tag_809\n        /* \"#utility.yul\":38271:38281   */\n      dup5\n        /* \"#utility.yul\":38253:38282   */\n      tag_456\n      jump\t// in\n    tag_809:\n        /* \"#utility.yul\":38243:38251   */\n      dup2\n        /* \"#utility.yul\":38239:38283   */\n      add\n        /* \"#utility.yul\":38436:38438   */\n      0x20\n        /* \"#utility.yul\":38424:38434   */\n      dup6\n        /* \"#utility.yul\":38421:38439   */\n      lt\n        /* \"#utility.yul\":38418:38467   */\n      iszero\n      tag_810\n      jumpi\n        /* \"#utility.yul\":38457:38465   */\n      dup2\n        /* \"#utility.yul\":38442:38465   */\n      swap1\n      pop\n        /* \"#utility.yul\":38418:38467   */\n    tag_810:\n        /* \"#utility.yul\":38480:38560   */\n      tag_811\n        /* \"#utility.yul\":38536:38558   */\n      tag_812\n        /* \"#utility.yul\":38554:38557   */\n      dup6\n        /* \"#utility.yul\":38536:38558   */\n      tag_456\n      jump\t// in\n    tag_812:\n        /* \"#utility.yul\":38526:38534   */\n      dup4\n        /* \"#utility.yul\":38522:38559   */\n      add\n        /* \"#utility.yul\":38509:38520   */\n      dup3\n        /* \"#utility.yul\":38480:38560   */\n      tag_465\n      jump\t// in\n    tag_811:\n        /* \"#utility.yul\":38139:38570   */\n      pop\n      pop\n        /* \"#utility.yul\":38124:38570   */\n    tag_807:\n        /* \"#utility.yul\":38034:38577   */\n      pop\n      pop\n      pop\n      jump\t// out\n        /* \"#utility.yul\":38583:38700   */\n    tag_467:\n        /* \"#utility.yul\":38637:38645   */\n      0x00\n        /* \"#utility.yul\":38687:38692   */\n      dup3\n        /* \"#utility.yul\":38681:38685   */\n      dup3\n        /* \"#utility.yul\":38677:38693   */\n      shr\n        /* \"#utility.yul\":38656:38693   */\n      swap1\n      pop\n        /* \"#utility.yul\":38583:38700   */\n      swap3\n      swap2\n      pop\n      pop\n      jump\t// out\n        /* \"#utility.yul\":38706:38875   */\n    tag_468:\n        /* \"#utility.yul\":38750:38756   */\n      0x00\n        /* \"#utility.yul\":38783:38834   */\n      tag_815\n        /* \"#utility.yul\":38831:38832   */\n      0x00\n        /* \"#utility.yul\":38827:38833   */\n      not\n        /* \"#utility.yul\":38819:38824   */\n      dup5\n        /* \"#utility.yul\":38816:38817   */\n      0x08\n        /* \"#utility.yul\":38812:38825   */\n      mul\n        /* \"#utility.yul\":38783:38834   */\n      tag_467\n      jump\t// in\n    tag_815:\n        /* \"#utility.yul\":38779:38835   */\n      not\n        /* \"#utility.yul\":38864:38868   */\n      dup1\n        /* \"#utility.yul\":38858:38862   */\n      dup4\n        /* \"#utility.yul\":38854:38869   */\n      and\n        /* \"#utility.yul\":38844:38869   */\n      swap2\n      pop\n        /* \"#utility.yul\":38757:38875   */\n      pop\n        /* \"#utility.yul\":38706:38875   */\n      swap3\n      swap2\n      pop\n      pop\n      jump\t// out\n        /* \"#utility.yul\":38880:39175   */\n    tag_469:\n        /* \"#utility.yul\":38956:38960   */\n      0x00\n        /* \"#utility.yul\":39102:39131   */\n      tag_817\n        /* \"#utility.yul\":39127:39130   */\n      dup4\n        /* \"#utility.yul\":39121:39125   */\n      dup4\n        /* \"#utility.yul\":39102:39131   */\n      tag_468\n      jump\t// in\n    tag_817:\n        /* \"#utility.yul\":39094:39131   */\n      swap2\n      pop\n        /* \"#utility.yul\":39164:39167   */\n      dup3\n        /* \"#utility.yul\":39161:39162   */\n      0x02\n        /* \"#utility.yul\":39157:39168   */\n      mul\n        /* \"#utility.yul\":39151:39155   */\n      dup3\n        /* \"#utility.yul\":39148:39169   */\n      or\n        /* \"#utility.yul\":39140:39169   */\n      swap1\n      pop\n        /* \"#utility.yul\":38880:39175   */\n      swap3\n      swap2\n      pop\n      pop\n      jump\t// out\n        /* \"#utility.yul\":39180:40583   */\n    tag_326:\n        /* \"#utility.yul\":39304:39348   */\n      tag_819\n        /* \"#utility.yul\":39344:39347   */\n      dup4\n        /* \"#utility.yul\":39339:39342   */\n      dup4\n        /* \"#utility.yul\":39304:39348   */\n      tag_454\n      jump\t// in\n    tag_819:\n        /* \"#utility.yul\":39413:39431   */\n      0xffffffffffffffff\n        /* \"#utility.yul\":39405:39411   */\n      dup2\n        /* \"#utility.yul\":39402:39432   */\n      gt\n        /* \"#utility.yul\":39399:39455   */\n      iszero\n      tag_820\n      jumpi\n        /* \"#utility.yul\":39435:39453   */\n      tag_821\n      tag_211\n      jump\t// in\n    tag_821:\n        /* \"#utility.yul\":39399:39455   */\n    tag_820:\n        /* \"#utility.yul\":39479:39517   */\n      tag_822\n        /* \"#utility.yul\":39511:39515   */\n      dup3\n        /* \"#utility.yul\":39505:39516   */\n      sload\n        /* \"#utility.yul\":39479:39517   */\n      tag_250\n      jump\t// in\n    tag_822:\n        /* \"#utility.yul\":39564:39631   */\n      tag_823\n        /* \"#utility.yul\":39624:39630   */\n      dup3\n        /* \"#utility.yul\":39616:39622   */\n      dup3\n        /* \"#utility.yul\":39610:39614   */\n      dup6\n        /* \"#utility.yul\":39564:39631   */\n      tag_466\n      jump\t// in\n    tag_823:\n        /* \"#utility.yul\":39658:39659   */\n      0x00\n        /* \"#utility.yul\":39687:39689   */\n      0x1f\n        /* \"#utility.yul\":39679:39685   */\n      dup4\n        /* \"#utility.yul\":39676:39690   */\n      gt\n        /* \"#utility.yul\":39704:39705   */\n      0x01\n        /* \"#utility.yul\":39699:40331   */\n      dup2\n      eq\n      tag_825\n      jumpi\n        /* \"#utility.yul\":40375:40376   */\n      0x00\n        /* \"#utility.yul\":40392:40398   */\n      dup5\n        /* \"#utility.yul\":40389:40473   */\n      iszero\n      tag_826\n      jumpi\n        /* \"#utility.yul\":40448:40457   */\n      dup3\n        /* \"#utility.yul\":40443:40446   */\n      dup8\n        /* \"#utility.yul\":40439:40458   */\n      add\n        /* \"#utility.yul\":40426:40459   */\n      calldataload\n        /* \"#utility.yul\":40417:40459   */\n      swap1\n      pop\n        /* \"#utility.yul\":40389:40473   */\n    tag_826:\n        /* \"#utility.yul\":40499:40566   */\n      tag_827\n        /* \"#utility.yul\":40559:40565   */\n      dup6\n        /* \"#utility.yul\":40552:40557   */\n      dup3\n        /* \"#utility.yul\":40499:40566   */\n      tag_469\n      jump\t// in\n    tag_827:\n        /* \"#utility.yul\":40493:40497   */\n      dup7\n        /* \"#utility.yul\":40486:40567   */\n      sstore\n        /* \"#utility.yul\":40348:40577   */\n      pop\n        /* \"#utility.yul\":39669:40577   */\n      jump(tag_824)\n        /* \"#utility.yul\":39699:40331   */\n    tag_825:\n        /* \"#utility.yul\":39751:39755   */\n      0x1f\n        /* \"#utility.yul\":39747:39756   */\n      not\n        /* \"#utility.yul\":39739:39745   */\n      dup5\n        /* \"#utility.yul\":39735:39757   */\n      and\n        /* \"#utility.yul\":39785:39822   */\n      tag_828\n        /* \"#utility.yul\":39817:39821   */\n      dup7\n        /* \"#utility.yul\":39785:39822   */\n      tag_455\n      jump\t// in\n    tag_828:\n        /* \"#utility.yul\":39844:39845   */\n      0x00\n        /* \"#utility.yul\":39858:40073   */\n    tag_829:\n        /* \"#utility.yul\":39872:39879   */\n      dup3\n        /* \"#utility.yul\":39869:39870   */\n      dup2\n        /* \"#utility.yul\":39866:39880   */\n      lt\n        /* \"#utility.yul\":39858:40073   */\n      iszero\n      tag_831\n      jumpi\n        /* \"#utility.yul\":39958:39967   */\n      dup5\n        /* \"#utility.yul\":39953:39956   */\n      dup10\n        /* \"#utility.yul\":39949:39968   */\n      add\n        /* \"#utility.yul\":39936:39969   */\n      calldataload\n        /* \"#utility.yul\":39928:39934   */\n      dup3\n        /* \"#utility.yul\":39921:39970   */\n      sstore\n        /* \"#utility.yul\":40009:40010   */\n      0x01\n        /* \"#utility.yul\":40001:40007   */\n      dup3\n        /* \"#utility.yul\":39997:40011   */\n      add\n        /* \"#utility.yul\":39987:40011   */\n      swap2\n      pop\n        /* \"#utility.yul\":40056:40058   */\n      0x20\n        /* \"#utility.yul\":40045:40054   */\n      dup6\n        /* \"#utility.yul\":40041:40059   */\n      add\n        /* \"#utility.yul\":40028:40059   */\n      swap5\n      pop\n        /* \"#utility.yul\":39895:39899   */\n      0x20\n        /* \"#utility.yul\":39892:39893   */\n      dup2\n        /* \"#utility.yul\":39888:39900   */\n      add\n        /* \"#utility.yul\":39883:39900   */\n      swap1\n      pop\n        /* \"#utility.yul\":39858:40073   */\n      jump(tag_829)\n    tag_831:\n        /* \"#utility.yul\":40101:40107   */\n      dup7\n        /* \"#utility.yul\":40092:40099   */\n      dup4\n        /* \"#utility.yul\":40089:40108   */\n      lt\n        /* \"#utility.yul\":40086:40272   */\n      iszero\n      tag_832\n      jumpi\n        /* \"#utility.yul\":40166:40175   */\n      dup5\n        /* \"#utility.yul\":40161:40164   */\n      dup10\n        /* \"#utility.yul\":40157:40176   */\n      add\n        /* \"#utility.yul\":40144:40177   */\n      calldataload\n        /* \"#utility.yul\":40209:40257   */\n      tag_833\n        /* \"#utility.yul\":40251:40255   */\n      0x1f\n        /* \"#utility.yul\":40243:40249   */\n      dup10\n        /* \"#utility.yul\":40239:40256   */\n      and\n        /* \"#utility.yul\":40228:40237   */\n      dup3\n        /* \"#utility.yul\":40209:40257   */\n      tag_468\n      jump\t// in\n    tag_833:\n        /* \"#utility.yul\":40201:40207   */\n      dup4\n        /* \"#utility.yul\":40194:40258   */\n      sstore\n        /* \"#utility.yul\":40109:40272   */\n      pop\n        /* \"#utility.yul\":40086:40272   */\n    tag_832:\n        /* \"#utility.yul\":40318:40319   */\n      0x01\n        /* \"#utility.yul\":40314:40315   */\n      0x02\n        /* \"#utility.yul\":40306:40312   */\n      dup9\n        /* \"#utility.yul\":40302:40316   */\n      mul\n        /* \"#utility.yul\":40298:40320   */\n      add\n        /* \"#utility.yul\":40292:40296   */\n      dup9\n        /* \"#utility.yul\":40285:40321   */\n      sstore\n        /* \"#utility.yul\":39706:40331   */\n      pop\n      pop\n      pop\n        /* \"#utility.yul\":39669:40577   */\n    tag_824:\n      pop\n        /* \"#utility.yul\":39279:40583   */\n      pop\n      pop\n      pop\n        /* \"#utility.yul\":39180:40583   */\n      pop\n      pop\n      pop\n      jump\t// out\n        /* \"#utility.yul\":40589:40737   */\n    tag_470:\n        /* \"#utility.yul\":40687:40693   */\n      dup3\n        /* \"#utility.yul\":40682:40685   */\n      dup2\n        /* \"#utility.yul\":40677:40680   */\n      dup4\n        /* \"#utility.yul\":40664:40694   */\n      calldatacopy\n        /* \"#utility.yul\":40728:40729   */\n      0x00\n        /* \"#utility.yul\":40719:40725   */\n      dup4\n        /* \"#utility.yul\":40714:40717   */\n      dup4\n        /* \"#utility.yul\":40710:40726   */\n      add\n        /* \"#utility.yul\":40703:40730   */\n      mstore\n        /* \"#utility.yul\":40589:40737   */\n      pop\n      pop\n      pop\n      jump\t// out\n        /* \"#utility.yul\":40767:41084   */\n    tag_471:\n        /* \"#utility.yul\":40865:40868   */\n      0x00\n        /* \"#utility.yul\":40886:40957   */\n      tag_836\n        /* \"#utility.yul\":40950:40956   */\n      dup4\n        /* \"#utility.yul\":40945:40948   */\n      dup6\n        /* \"#utility.yul\":40886:40957   */\n      tag_402\n      jump\t// in\n    tag_836:\n        /* \"#utility.yul\":40879:40957   */\n      swap4\n      pop\n        /* \"#utility.yul\":40967:41023   */\n      tag_837\n        /* \"#utility.yul\":41016:41022   */\n      dup4\n        /* \"#utility.yul\":41011:41014   */\n      dup6\n        /* \"#utility.yul\":41004:41009   */\n      dup5\n        /* \"#utility.yul\":40967:41023   */\n      tag_470\n      jump\t// in\n    tag_837:\n        /* \"#utility.yul\":41048:41077   */\n      tag_838\n        /* \"#utility.yul\":41070:41076   */\n      dup4\n        /* \"#utility.yul\":41048:41077   */\n      tag_404\n      jump\t// in\n    tag_838:\n        /* \"#utility.yul\":41043:41046   */\n      dup5\n        /* \"#utility.yul\":41039:41078   */\n      add\n        /* \"#utility.yul\":41032:41078   */\n      swap1\n      pop\n        /* \"#utility.yul\":40767:41084   */\n      swap4\n      swap3\n      pop\n      pop\n      pop\n      jump\t// out\n        /* \"#utility.yul\":41090:41533   */\n    tag_329:\n        /* \"#utility.yul\":41241:41245   */\n      0x00\n        /* \"#utility.yul\":41279:41281   */\n      0x40\n        /* \"#utility.yul\":41268:41277   */\n      dup3\n        /* \"#utility.yul\":41264:41282   */\n      add\n        /* \"#utility.yul\":41256:41282   */\n      swap1\n      pop\n        /* \"#utility.yul\":41328:41337   */\n      dup2\n        /* \"#utility.yul\":41322:41326   */\n      dup2\n        /* \"#utility.yul\":41318:41338   */\n      sub\n        /* \"#utility.yul\":41314:41315   */\n      0x00\n        /* \"#utility.yul\":41303:41312   */\n      dup4\n        /* \"#utility.yul\":41299:41316   */\n      add\n        /* \"#utility.yul\":41292:41339   */\n      mstore\n        /* \"#utility.yul\":41356:41444   */\n      tag_840\n        /* \"#utility.yul\":41439:41443   */\n      dup2\n        /* \"#utility.yul\":41430:41436   */\n      dup6\n        /* \"#utility.yul\":41422:41428   */\n      dup8\n        /* \"#utility.yul\":41356:41444   */\n      tag_471\n      jump\t// in\n    tag_840:\n        /* \"#utility.yul\":41348:41444   */\n      swap1\n      pop\n        /* \"#utility.yul\":41454:41526   */\n      tag_841\n        /* \"#utility.yul\":41522:41524   */\n      0x20\n        /* \"#utility.yul\":41511:41520   */\n      dup4\n        /* \"#utility.yul\":41507:41525   */\n      add\n        /* \"#utility.yul\":41498:41504   */\n      dup5\n        /* \"#utility.yul\":41454:41526   */\n      tag_391\n      jump\t// in\n    tag_841:\n        /* \"#utility.yul\":41090:41533   */\n      swap5\n      swap4\n      pop\n      pop\n      pop\n      pop\n      jump\t// out\n\n    auxdata: 0xa2646970667358221220df31921aa0d64b60cfbfd811e641663e601532e1ee9373dd133fc3c3c028654464736f6c634300081e0033\n}\n",
				"bytecode": {
					"linkReferences": {},
					"object": "60a060405260015f5560018055600160025534801561001c575f5ffd5b50600161003b61003061007a60201b60201c565b6100a360201b60201c565b5f01819055503373ffffffffffffffffffffffffffffffffffffffff1660808173ffffffffffffffffffffffffffffffffffffffff16815250506100ac565b5f7f9b779b17422d0df92223018b32b4d1fa46e071723d6817e2486d003becc55f005f1b905090565b5f819050919050565b608051613a0d6100d25f395f8181610c0301528181611b23015261237e0152613a0d5ff3fe608060405234801561000f575f5ffd5b506004361061012a575f3560e01c80638782dc00116100ab578063c16fe9071161006f578063c16fe90714610373578063d67b2d08146103a3578063e4b50cb8146103bf578063ef57e2d2146103f6578063f851a440146104265761012a565b80638782dc00146102b55780639377d711146102d1578063a1e6a25514610307578063b5ffbbcc14610325578063b85b381b146103555761012a565b806349217ca4116100f257806349217ca4146101e55780634f64b2be14610201578063519dc8d2146102375780636386c1c71461026757806375794a3c146102975761012a565b8063095bcdb61461012e57806312effc321461014a578063274fae7c14610166578063335d341014610182578063365b98b2146101b2575b5f5ffd5b610148600480360381019061014391906126ec565b610444565b005b610164600480360381019061015f919061273c565b610b17565b005b610180600480360381019061017b919061273c565b610d8a565b005b61019c60048036038101906101979190612767565b61110d565b6040516101a99190612849565b60405180910390f35b6101cc60048036038101906101c7919061273c565b611328565b6040516101dc9493929190612912565b60405180910390f35b6101ff60048036038101906101fa919061297f565b61137f565b005b61021b6004803603810190610216919061273c565b611643565b60405161022e9796959493929190612a1a565b60405180910390f35b610251600480360381019061024c9190612767565b6117ac565b60405161025e9190612849565b60405180910390f35b610281600480360381019061027c9190612767565b6119b6565b60405161028e9190612b15565b60405180910390f35b61029f611b1c565b6040516102ac9190612b2e565b60405180910390f35b6102cf60048036038101906102ca9190612b6a565b611b21565b005b6102eb60048036038101906102e6919061273c565b611cc0565b6040516102fe9796959493929190612bee565b60405180910390f35b61030f611d48565b60405161031c9190612b2e565b60405180910390f35b61033f600480360381019061033a9190612767565b611d4e565b60405161034c9190612b2e565b60405180910390f35b61035d611d63565b60405161036a9190612b2e565b60405180910390f35b61038d6004803603810190610388919061273c565b611d69565b60405161039a9190612cf6565b60405180910390f35b6103bd60048036038101906103b89190612d70565b611e9f565b005b6103d960048036038101906103d4919061273c565b612113565b6040516103ed989796959493929190612e13565b60405180910390f35b610410600480360381019061040b9190612e9d565b6122e0565b60405161041d9190612b2e565b60405180910390f35b61042e61237c565b60405161043b9190612edb565b60405180910390f35b5f60065f3373ffffffffffffffffffffffffffffffffffffffff1673ffffffffffffffffffffffffffffffffffffffff1681526020019081526020015f205490505f81141580156104d95750600160038111156104a4576104a361289f565b5b60055f8381526020019081526020015f206003015f9054906101000a900460ff1660038111156104d7576104d661289f565b5b145b610518576040517f08c379a000000000000000000000000000000000000000000000000000000000815260040161050f90612f3e565b60405180910390fd5b6105206123a0565b5f73ffffffffffffffffffffffffffffffffffffffff168473ffffffffffffffffffffffffffffffffffffffff161415801561058857503373ffffffffffffffffffffffffffffffffffffffff168473ffffffffffffffffffffffffffffffffffffffff1614155b6105c7576040517f08c379a00000000000000000000000000000000000000000000000000000000081526004016105be90612fa6565b60405180910390fd5b5f8211610609576040517f08c379a00000000000000000000000000000000000000000000000000000000081526004016106009061300e565b60405180910390fd5b5f54831061064c576040517f08c379a000000000000000000000000000000000000000000000000000000000815260040161064390613076565b60405180910390fd5b5f60065f3373ffffffffffffffffffffffffffffffffffffffff1673ffffffffffffffffffffffffffffffffffffffff1681526020019081526020015f205490505f60065f8773ffffffffffffffffffffffffffffffffffffffff1673ffffffffffffffffffffffffffffffffffffffff1681526020019081526020015f205490505f8103610710576040517f08c379a0000000000000000000000000000000000000000000000000000000008152600401610707906130de565b60405180910390fd5b61072d60055f8481526020019081526020015f20600201546123c2565b1561076d576040517f08c379a000000000000000000000000000000000000000000000000000000000815260040161076490613146565b60405180910390fd5b61079f60055f8481526020019081526020015f206002015460055f8481526020019081526020015f20600201546123ed565b6107de576040517f08c379a00000000000000000000000000000000000000000000000000000000081526004016107d5906131ae565b60405180910390fd5b5f60035f8781526020019081526020015f20905084816007015f3373ffffffffffffffffffffffffffffffffffffffff1673ffffffffffffffffffffffffffffffffffffffff1681526020019081526020015f20541015610874576040517f08c379a000000000000000000000000000000000000000000000000000000000815260040161086b90613216565b60405180910390fd5b84816007015f3373ffffffffffffffffffffffffffffffffffffffff1673ffffffffffffffffffffffffffffffffffffffff1681526020019081526020015f205f8282546108c29190613261565b9250508190555084816007015f8973ffffffffffffffffffffffffffffffffffffffff1673ffffffffffffffffffffffffffffffffffffffff1681526020019081526020015f205f8282546109179190613294565b925050819055505f60015f815480929190610931906132c7565b9190505590506040518060e001604052808281526020013373ffffffffffffffffffffffffffffffffffffffff1681526020018973ffffffffffffffffffffffffffffffffffffffff1681526020018881526020014281526020018781526020015f60028111156109a5576109a461289f565b5b81525060045f8381526020019081526020015f205f820151815f01556020820151816001015f6101000a81548173ffffffffffffffffffffffffffffffffffffffff021916908373ffffffffffffffffffffffffffffffffffffffff1602179055506040820151816002015f6101000a81548173ffffffffffffffffffffffffffffffffffffffff021916908373ffffffffffffffffffffffffffffffffffffffff160217905550606082015181600301556080820151816004015560a0820151816005015560c0820151816006015f6101000a81548160ff02191690836002811115610a9557610a9461289f565b5b02179055509050508773ffffffffffffffffffffffffffffffffffffffff163373ffffffffffffffffffffffffffffffffffffffff16827fc8262dc04f8f56abc884e1f58ca17a373610558a6cebc5e927b9e1c4668e5fdf8a8a604051610afd92919061330e565b60405180910390a450505050610b116124ee565b50505050565b610b1f6123a0565b5f60045f8381526020019081526020015f2090505f6002811115610b4657610b4561289f565b5b816006015f9054906101000a900460ff166002811115610b6957610b6861289f565b5b14610ba9576040517f08c379a0000000000000000000000000000000000000000000000000000000008152600401610ba09061337f565b60405180910390fd5b806002015f9054906101000a900473ffffffffffffffffffffffffffffffffffffffff1673ffffffffffffffffffffffffffffffffffffffff163373ffffffffffffffffffffffffffffffffffffffff161480610c5157507f000000000000000000000000000000000000000000000000000000000000000073ffffffffffffffffffffffffffffffffffffffff163373ffffffffffffffffffffffffffffffffffffffff16145b610c90576040517f08c379a0000000000000000000000000000000000000000000000000000000008152600401610c87906133e7565b60405180910390fd5b5f60035f836003015481526020019081526020015f2090508160050154816007015f846001015f9054906101000a900473ffffffffffffffffffffffffffffffffffffffff1673ffffffffffffffffffffffffffffffffffffffff1673ffffffffffffffffffffffffffffffffffffffff1681526020019081526020015f205f828254610d1d9190613294565b925050819055506002826006015f6101000a81548160ff02191690836002811115610d4b57610d4a61289f565b5b0217905550827f1f4f8a94e17d25044030f376d297769c8f9a1a2a0616e36b498a1e7370b5863f60405160405180910390a25050610d876124ee565b50565b5f60065f3373ffffffffffffffffffffffffffffffffffffffff1673ffffffffffffffffffffffffffffffffffffffff1681526020019081526020015f205490505f8114158015610e1f575060016003811115610dea57610de961289f565b5b60055f8381526020019081526020015f206003015f9054906101000a900460ff166003811115610e1d57610e1c61289f565b5b145b610e5e576040517f08c379a0000000000000000000000000000000000000000000000000000000008152600401610e5590612f3e565b60405180910390fd5b5f60045f8481526020019081526020015f2090505f6002811115610e8557610e8461289f565b5b816006015f9054906101000a900460ff166002811115610ea857610ea761289f565b5b14610ee8576040517f08c379a0000000000000000000000000000000000000000000000000000000008152600401610edf9061337f565b60405180910390fd5b806002015f9054906101000a900473ffffffffffffffffffffffffffffffffffffffff1673ffffffffffffffffffffffffffffffffffffffff163373ffffffffffffffffffffffffffffffffffffffff1614610f79576040517f08c379a0000000000000000000000000000000000000000000000000000000008152600401610f709061344f565b60405180910390fd5b5f60065f836002015f9054906101000a900473ffffffffffffffffffffffffffffffffffffffff1673ffffffffffffffffffffffffffffffffffffffff1673ffffffffffffffffffffffffffffffffffffffff1681526020019081526020015f2054905061106f60055f60065f866001015f9054906101000a900473ffffffffffffffffffffffffffffffffffffffff1673ffffffffffffffffffffffffffffffffffffffff1673ffffffffffffffffffffffffffffffffffffffff1681526020019081526020015f205481526020019081526020015f206002015460055f8481526020019081526020015f20600201546123ed565b6110ae576040517f08c379a00000000000000000000000000000000000000000000000000000000081526004016110a5906131ae565b60405180910390fd5b6001826006015f6101000a81548160ff021916908360028111156110d5576110d461289f565b5b0217905550837f91dd4234b45d77221e6eca52c141569a6d0f3b3ffe9b8a18fe8b9aafbc64b44b60405160405180910390a250505050565b60605f6001805461111e9190613261565b67ffffffffffffffff8111156111375761113661346d565b5b6040519080825280602002602001820160405280156111655781602001602082028036833780820191505090505b5090505f5f90505f600190505b60015481101561127b575f60045f8381526020019081526020015f2090508573ffffffffffffffffffffffffffffffffffffffff16816001015f9054906101000a900473ffffffffffffffffffffffffffffffffffffffff1673ffffffffffffffffffffffffffffffffffffffff16148061123b57508573ffffffffffffffffffffffffffffffffffffffff16816002015f9054906101000a900473ffffffffffffffffffffffffffffffffffffffff1673ffffffffffffffffffffffffffffffffffffffff16145b1561126d578184848061124d906132c7565b9550815181106112605761125f61349a565b5b6020026020010181815250505b508080600101915050611172565b505f8167ffffffffffffffff8111156112975761129661346d565b5b6040519080825280602002602001820160405280156112c55781602001602082028036833780820191505090505b5090505f5f90505b8281101561131c578381815181106112e8576112e761349a565b5b60200260200101518282815181106113035761130261349a565b5b60200260200101818152505080806001019150506112cd565b50809350505050919050565b6005602052805f5260405f205f91509050805f015490806001015f9054906101000a900473ffffffffffffffffffffffffffffffffffffffff1690806002015490806003015f9054906101000a900460ff16905084565b5f5f1b81036113c3576040517f08c379a00000000000000000000000000000000000000000000000000000000081526004016113ba90613511565b60405180910390fd5b5f60065f3373ffffffffffffffffffffffffffffffffffffffff1673ffffffffffffffffffffffffffffffffffffffff1681526020019081526020015f205490505f810361154e5760025f81548092919061141d906132c7565b91905055905060405180608001604052808281526020013373ffffffffffffffffffffffffffffffffffffffff1681526020018381526020015f60038111156114695761146861289f565b5b81525060055f8381526020019081526020015f205f820151815f01556020820151816001015f6101000a81548173ffffffffffffffffffffffffffffffffffffffff021916908373ffffffffffffffffffffffffffffffffffffffff160217905550604082015181600201556060820151816003015f6101000a81548160ff021916908360038111156114ff576114fe61289f565b5b02179055509050508060065f3373ffffffffffffffffffffffffffffffffffffffff1673ffffffffffffffffffffffffffffffffffffffff1681526020019081526020015f20819055506115a3565b8160055f8381526020019081526020015f20600201819055505f60055f8381526020019081526020015f206003015f6101000a81548160ff0219169083600381111561159d5761159c61289f565b5b02179055505b3373ffffffffffffffffffffffffffffffffffffffff167f6462c5e0af9bf3a12e42a57283f899627cb117e108991e3efda5d27188cc85c1836040516115e9919061352f565b60405180910390a23373ffffffffffffffffffffffffffffffffffffffff167fb3b609c7a5e504a312603e90d906d1667fd5caff0a840ad07bf5709a3ca1a0455f6040516116379190613548565b60405180910390a25050565b6003602052805f5260405f205f91509050805f015490806001015f9054906101000a900473ffffffffffffffffffffffffffffffffffffffff169080600201805461168d9061358e565b80601f01602080910402602001604051908101604052809291908181526020018280546116b99061358e565b80156117045780601f106116db57610100808354040283529160200191611704565b820191905f5260205f20905b8154815290600101906020018083116116e757829003601f168201915b50505050509080600301549080600401805461171f9061358e565b80601f016020809104026020016040519081016040528092919081815260200182805461174b9061358e565b80156117965780601f1061176d57610100808354040283529160200191611796565b820191905f5260205f20905b81548152906001019060200180831161177957829003601f168201915b5050505050908060050154908060060154905087565b60605f60015f546117bd9190613261565b67ffffffffffffffff8111156117d6576117d561346d565b5b6040519080825280602002602001820160405280156118045781602001602082028036833780820191505090505b5090505f5f90505f600190505b5f54811015611909575f60035f8381526020019081526020015f2090508573ffffffffffffffffffffffffffffffffffffffff16816001015f9054906101000a900473ffffffffffffffffffffffffffffffffffffffff1673ffffffffffffffffffffffffffffffffffffffff1614806118c957505f816007015f8873ffffffffffffffffffffffffffffffffffffffff1673ffffffffffffffffffffffffffffffffffffffff1681526020019081526020015f2054115b156118fb57818484806118db906132c7565b9550815181106118ee576118ed61349a565b5b6020026020010181815250505b508080600101915050611811565b505f8167ffffffffffffffff8111156119255761192461346d565b5b6040519080825280602002602001820160405280156119535781602001602082028036833780820191505090505b5090505f5f90505b828110156119aa578381815181106119765761197561349a565b5b60200260200101518282815181106119915761199061349a565b5b602002602001018181525050808060010191505061195b565b50809350505050919050565b6119be612597565b5f60065f8473ffffffffffffffffffffffffffffffffffffffff1673ffffffffffffffffffffffffffffffffffffffff1681526020019081526020015f205490505f8114611ac95760055f8281526020019081526020015f206040518060800160405290815f8201548152602001600182015f9054906101000a900473ffffffffffffffffffffffffffffffffffffffff1673ffffffffffffffffffffffffffffffffffffffff1673ffffffffffffffffffffffffffffffffffffffff16815260200160028201548152602001600382015f9054906101000a900460ff166003811115611aae57611aad61289f565b5b6003811115611ac057611abf61289f565b5b81525050611b14565b60405180608001604052805f81526020015f73ffffffffffffffffffffffffffffffffffffffff1681526020015f815260200160026003811115611b1057611b0f61289f565b5b8152505b915050919050565b5f5481565b7f000000000000000000000000000000000000000000000000000000000000000073ffffffffffffffffffffffffffffffffffffffff163373ffffffffffffffffffffffffffffffffffffffff1614611baf576040517f08c379a0000000000000000000000000000000000000000000000000000000008152600401611ba690613608565b60405180910390fd5b5f60065f8473ffffffffffffffffffffffffffffffffffffffff1673ffffffffffffffffffffffffffffffffffffffff1681526020019081526020015f205490505f8103611c32576040517f08c379a0000000000000000000000000000000000000000000000000000000008152600401611c2990613670565b60405180910390fd5b8160055f8381526020019081526020015f206003015f6101000a81548160ff02191690836003811115611c6857611c6761289f565b5b02179055508273ffffffffffffffffffffffffffffffffffffffff167fb3b609c7a5e504a312603e90d906d1667fd5caff0a840ad07bf5709a3ca1a04583604051611cb39190613548565b60405180910390a2505050565b6004602052805f5260405f205f91509050805f015490806001015f9054906101000a900473ffffffffffffffffffffffffffffffffffffffff1690806002015f9054906101000a900473ffffffffffffffffffffffffffffffffffffffff1690806003015490806004015490806005015490806006015f9054906101000a900460ff16905087565b60025481565b6006602052805f5260405f205f915090505481565b60015481565b611d716125e3565b60045f8381526020019081526020015f206040518060e00160405290815f8201548152602001600182015f9054906101000a900473ffffffffffffffffffffffffffffffffffffffff1673ffffffffffffffffffffffffffffffffffffffff1673ffffffffffffffffffffffffffffffffffffffff168152602001600282015f9054906101000a900473ffffffffffffffffffffffffffffffffffffffff1673ffffffffffffffffffffffffffffffffffffffff1673ffffffffffffffffffffffffffffffffffffffff168152602001600382015481526020016004820154815260200160058201548152602001600682015f9054906101000a900460ff166002811115611e8257611e8161289f565b5b6002811115611e9457611e9361289f565b5b815250509050919050565b5f60065f3373ffffffffffffffffffffffffffffffffffffffff1673ffffffffffffffffffffffffffffffffffffffff1681526020019081526020015f205490505f8114158015611f34575060016003811115611eff57611efe61289f565b5b60055f8381526020019081526020015f206003015f9054906101000a900460ff166003811115611f3257611f3161289f565b5b145b611f73576040517f08c379a0000000000000000000000000000000000000000000000000000000008152600401611f6a90612f3e565b60405180910390fd5b5f8787905011611fb8576040517f08c379a0000000000000000000000000000000000000000000000000000000008152600401611faf906136d8565b60405180910390fd5b5f5f5f815480929190611fca906132c7565b9190505590505f60035f8381526020019081526020015f20905081815f018190555033816001015f6101000a81548173ffffffffffffffffffffffffffffffffffffffff021916908373ffffffffffffffffffffffffffffffffffffffff16021790555088888260020191826120419291906138a0565b50868160030181905550858582600401918261205e9291906138a0565b5083816005018190555042816006018190555086816007015f3373ffffffffffffffffffffffffffffffffffffffff1673ffffffffffffffffffffffffffffffffffffffff1681526020019081526020015f20819055503373ffffffffffffffffffffffffffffffffffffffff16827f463ec2a62c46678a81e23cde640446ca4b512f102bb3309cf5a3e2a4ae8314648b8b8b604051612100939291906139a7565b60405180910390a3505050505050505050565b5f5f60605f60605f5f5f5f60035f8b81526020019081526020015f209050805f0154816001015f9054906101000a900473ffffffffffffffffffffffffffffffffffffffff168260020183600301548460040185600501548660060154876007015f3373ffffffffffffffffffffffffffffffffffffffff1673ffffffffffffffffffffffffffffffffffffffff1681526020019081526020015f20548580546121bc9061358e565b80601f01602080910402602001604051908101604052809291908181526020018280546121e89061358e565b80156122335780601f1061220a57610100808354040283529160200191612233565b820191905f5260205f20905b81548152906001019060200180831161221657829003601f168201915b505050505095508380546122469061358e565b80601f01602080910402602001604051908101604052809291908181526020018280546122729061358e565b80156122bd5780601f10612294576101008083540402835291602001916122bd565b820191905f5260205f20905b8154815290600101906020018083116122a057829003601f168201915b505050505093509850985098509850985098509850985050919395975091939597565b5f5f548310612324576040517f08c379a000000000000000000000000000000000000000000000000000000000815260040161231b90613076565b60405180910390fd5b60035f8481526020019081526020015f206007015f8373ffffffffffffffffffffffffffffffffffffffff1673ffffffffffffffffffffffffffffffffffffffff1681526020019081526020015f2054905092915050565b7f000000000000000000000000000000000000000000000000000000000000000081565b6123a8612508565b60026123ba6123b5612549565b612572565b5f0181905550565b5f7fc0878b4b16a78e8085cba0ca02fc0924f1492924058d153153a3f286e0fd70ff82149050919050565b5f7f95329f0f598032755f454b63034035528a2f09e00bb3dde055a4f8e3f7b116838314801561243c57507f992f90ffb92c5ad86f1df6829115f18aaea41d6094dadc8955c35086081a7bb982145b8061249157507f992f90ffb92c5ad86f1df6829115f18aaea41d6094dadc8955c35086081a7bb98314801561249057507f1534e98f9dd33e3681193a0541f0c2e3d732d183dcdc630aac2b943280af42a082145b5b806124e657507f1534e98f9dd33e3681193a0541f0c2e3d732d183dcdc630aac2b943280af42a0831480156124e557507fc0878b4b16a78e8085cba0ca02fc0924f1492924058d153153a3f286e0fd70ff82145b5b905092915050565b60016125006124fb612549565b612572565b5f0181905550565b61251061257b565b15612547576040517f3ee5aeb500000000000000000000000000000000000000000000000000000000815260040160405180910390fd5b565b5f7f9b779b17422d0df92223018b32b4d1fa46e071723d6817e2486d003becc55f005f1b905090565b5f819050919050565b5f600261258e612589612549565b612572565b5f015414905090565b60405180608001604052805f81526020015f73ffffffffffffffffffffffffffffffffffffffff1681526020015f81526020015f60038111156125dd576125dc61289f565b5b81525090565b6040518060e001604052805f81526020015f73ffffffffffffffffffffffffffffffffffffffff1681526020015f73ffffffffffffffffffffffffffffffffffffffff1681526020015f81526020015f81526020015f81526020015f60028111156126515761265061289f565b5b81525090565b5f5ffd5b5f5ffd5b5f73ffffffffffffffffffffffffffffffffffffffff82169050919050565b5f6126888261265f565b9050919050565b6126988161267e565b81146126a2575f5ffd5b50565b5f813590506126b38161268f565b92915050565b5f819050919050565b6126cb816126b9565b81146126d5575f5ffd5b50565b5f813590506126e6816126c2565b92915050565b5f5f5f6060848603121561270357612702612657565b5b5f612710868287016126a5565b9350506020612721868287016126d8565b9250506040612732868287016126d8565b9150509250925092565b5f6020828403121561275157612750612657565b5b5f61275e848285016126d8565b91505092915050565b5f6020828403121561277c5761277b612657565b5b5f612789848285016126a5565b91505092915050565b5f81519050919050565b5f82825260208201905092915050565b5f819050602082019050919050565b6127c4816126b9565b82525050565b5f6127d583836127bb565b60208301905092915050565b5f602082019050919050565b5f6127f782612792565b612801818561279c565b935061280c836127ac565b805f5b8381101561283c57815161282388826127ca565b975061282e836127e1565b92505060018101905061280f565b5085935050505092915050565b5f6020820190508181035f83015261286181846127ed565b905092915050565b612872816126b9565b82525050565b6128818161267e565b82525050565b5f819050919050565b61289981612887565b82525050565b7f4e487b71000000000000000000000000000000000000000000000000000000005f52602160045260245ffd5b600481106128dd576128dc61289f565b5b50565b5f8190506128ed826128cc565b919050565b5f6128fc826128e0565b9050919050565b61290c816128f2565b82525050565b5f6080820190506129255f830187612869565b6129326020830186612878565b61293f6040830185612890565b61294c6060830184612903565b95945050505050565b61295e81612887565b8114612968575f5ffd5b50565b5f8135905061297981612955565b92915050565b5f6020828403121561299457612993612657565b5b5f6129a18482850161296b565b91505092915050565b5f81519050919050565b5f82825260208201905092915050565b8281835e5f83830152505050565b5f601f19601f8301169050919050565b5f6129ec826129aa565b6129f681856129b4565b9350612a068185602086016129c4565b612a0f816129d2565b840191505092915050565b5f60e082019050612a2d5f83018a612869565b612a3a6020830189612878565b8181036040830152612a4c81886129e2565b9050612a5b6060830187612869565b8181036080830152612a6d81866129e2565b9050612a7c60a0830185612869565b612a8960c0830184612869565b98975050505050505050565b612a9e8161267e565b82525050565b612aad81612887565b82525050565b612abc816128f2565b82525050565b608082015f820151612ad65f8501826127bb565b506020820151612ae96020850182612a95565b506040820151612afc6040850182612aa4565b506060820151612b0f6060850182612ab3565b50505050565b5f608082019050612b285f830184612ac2565b92915050565b5f602082019050612b415f830184612869565b92915050565b60048110612b53575f5ffd5b50565b5f81359050612b6481612b47565b92915050565b5f5f60408385031215612b8057612b7f612657565b5b5f612b8d858286016126a5565b9250506020612b9e85828601612b56565b9150509250929050565b60038110612bb957612bb861289f565b5b50565b5f819050612bc982612ba8565b919050565b5f612bd882612bbc565b9050919050565b612be881612bce565b82525050565b5f60e082019050612c015f83018a612869565b612c0e6020830189612878565b612c1b6040830188612878565b612c286060830187612869565b612c356080830186612869565b612c4260a0830185612869565b612c4f60c0830184612bdf565b98975050505050505050565b612c6481612bce565b82525050565b60e082015f820151612c7e5f8501826127bb565b506020820151612c916020850182612a95565b506040820151612ca46040850182612a95565b506060820151612cb760608501826127bb565b506080820151612cca60808501826127bb565b5060a0820151612cdd60a08501826127bb565b5060c0820151612cf060c0850182612c5b565b50505050565b5f60e082019050612d095f830184612c6a565b92915050565b5f5ffd5b5f5ffd5b5f5ffd5b5f5f83601f840112612d3057612d2f612d0f565b5b8235905067ffffffffffffffff811115612d4d57612d4c612d13565b5b602083019150836001820283011115612d6957612d68612d17565b5b9250929050565b5f5f5f5f5f5f60808789031215612d8a57612d89612657565b5b5f87013567ffffffffffffffff811115612da757612da661265b565b5b612db389828a01612d1b565b96509650506020612dc689828a016126d8565b945050604087013567ffffffffffffffff811115612de757612de661265b565b5b612df389828a01612d1b565b93509350506060612e0689828a016126d8565b9150509295509295509295565b5f61010082019050612e275f83018b612869565b612e34602083018a612878565b8181036040830152612e4681896129e2565b9050612e556060830188612869565b8181036080830152612e6781876129e2565b9050612e7660a0830186612869565b612e8360c0830185612869565b612e9060e0830184612869565b9998505050505050505050565b5f5f60408385031215612eb357612eb2612657565b5b5f612ec0858286016126d8565b9250506020612ed1858286016126a5565b9150509250929050565b5f602082019050612eee5f830184612878565b92915050565b7f4e6f7420617070726f76656400000000000000000000000000000000000000005f82015250565b5f612f28600c836129b4565b9150612f3382612ef4565b602082019050919050565b5f6020820190508181035f830152612f5581612f1c565b9050919050565b7f496e76616c696420726563697069656e740000000000000000000000000000005f82015250565b5f612f906011836129b4565b9150612f9b82612f5c565b602082019050919050565b5f6020820190508181035f830152612fbd81612f84565b9050919050565b7f416d6f756e74206d757374206265203e203000000000000000000000000000005f82015250565b5f612ff86012836129b4565b915061300382612fc4565b602082019050919050565b5f6020820190508181035f83015261302581612fec565b9050919050565b7f546f6b656e20646f6573206e6f742065786973740000000000000000000000005f82015250565b5f6130606014836129b4565b915061306b8261302c565b602082019050919050565b5f6020820190508181035f83015261308d81613054565b9050919050565b7f526563697069656e74206e6f74207265676973746572656400000000000000005f82015250565b5f6130c86018836129b4565b91506130d382613094565b602082019050919050565b5f6020820190508181035f8301526130f5816130bc565b9050919050565b7f436f6e73756d65722063616e6e6f74207472616e7366657200000000000000005f82015250565b5f6131306018836129b4565b915061313b826130fc565b602082019050919050565b5f6020820190508181035f83015261315d81613124565b9050919050565b7f496e76616c696420726f6c65207472616e736974696f6e0000000000000000005f82015250565b5f6131986017836129b4565b91506131a382613164565b602082019050919050565b5f6020820190508181035f8301526131c58161318c565b9050919050565b7f496e73756666696369656e742062616c616e63650000000000000000000000005f82015250565b5f6132006014836129b4565b915061320b826131cc565b602082019050919050565b5f6020820190508181035f83015261322d816131f4565b9050919050565b7f4e487b71000000000000000000000000000000000000000000000000000000005f52601160045260245ffd5b5f61326b826126b9565b9150613276836126b9565b925082820390508181111561328e5761328d613234565b5b92915050565b5f61329e826126b9565b91506132a9836126b9565b92508282019050808211156132c1576132c0613234565b5b92915050565b5f6132d1826126b9565b91507fffffffffffffffffffffffffffffffffffffffffffffffffffffffffffffffff820361330357613302613234565b5b600182019050919050565b5f6040820190506133215f830185612869565b61332e6020830184612869565b9392505050565b7f4e6f742070656e64696e670000000000000000000000000000000000000000005f82015250565b5f613369600b836129b4565b915061337482613335565b602082019050919050565b5f6020820190508181035f8301526133968161335d565b9050919050565b7f4e6f7420617574686f72697a65640000000000000000000000000000000000005f82015250565b5f6133d1600e836129b4565b91506133dc8261339d565b602082019050919050565b5f6020820190508181035f8301526133fe816133c5565b9050919050565b7f4e6f7420726563697069656e74000000000000000000000000000000000000005f82015250565b5f613439600d836129b4565b915061344482613405565b602082019050919050565b5f6020820190508181035f8301526134668161342d565b9050919050565b7f4e487b71000000000000000000000000000000000000000000000000000000005f52604160045260245ffd5b7f4e487b71000000000000000000000000000000000000000000000000000000005f52603260045260245ffd5b7f496e76616c696420726f6c6500000000000000000000000000000000000000005f82015250565b5f6134fb600c836129b4565b9150613506826134c7565b602082019050919050565b5f6020820190508181035f830152613528816134ef565b9050919050565b5f6020820190506135425f830184612890565b92915050565b5f60208201905061355b5f830184612903565b92915050565b7f4e487b71000000000000000000000000000000000000000000000000000000005f52602260045260245ffd5b5f60028204905060018216806135a557607f821691505b6020821081036135b8576135b7613561565b5b50919050565b7f4e6f742061646d696e00000000000000000000000000000000000000000000005f82015250565b5f6135f26009836129b4565b91506135fd826135be565b602082019050919050565b5f6020820190508181035f83015261361f816135e6565b9050919050565b7f55736572206e6f7420666f756e640000000000000000000000000000000000005f82015250565b5f61365a600e836129b4565b915061366582613626565b602082019050919050565b5f6020820190508181035f8301526136878161364e565b9050919050565b7f4e616d6520656d707479000000000000000000000000000000000000000000005f82015250565b5f6136c2600a836129b4565b91506136cd8261368e565b602082019050919050565b5f6020820190508181035f8301526136ef816136b6565b9050919050565b5f82905092915050565b5f819050815f5260205f209050919050565b5f6020601f8301049050919050565b5f82821b905092915050565b5f6008830261375c7fffffffffffffffffffffffffffffffffffffffffffffffffffffffffffffffff82613721565b6137668683613721565b95508019841693508086168417925050509392505050565b5f819050919050565b5f6137a161379c613797846126b9565b61377e565b6126b9565b9050919050565b5f819050919050565b6137ba83613787565b6137ce6137c6826137a8565b84845461372d565b825550505050565b5f5f905090565b6137e56137d6565b6137f08184846137b1565b505050565b5b81811015613813576138085f826137dd565b6001810190506137f6565b5050565b601f8211156138585761382981613700565b61383284613712565b81016020851015613841578190505b61385561384d85613712565b8301826137f5565b50505b505050565b5f82821c905092915050565b5f6138785f198460080261385d565b1980831691505092915050565b5f6138908383613869565b9150826002028217905092915050565b6138aa83836136f6565b67ffffffffffffffff8111156138c3576138c261346d565b5b6138cd825461358e565b6138d8828285613817565b5f601f831160018114613905575f84156138f3578287013590505b6138fd8582613885565b865550613964565b601f19841661391386613700565b5f5b8281101561393a57848901358255600182019150602085019450602081019050613915565b868310156139575784890135613953601f891682613869565b8355505b6001600288020188555050505b50505050505050565b828183375f83830152505050565b5f61398683856129b4565b935061399383858461396d565b61399c836129d2565b840190509392505050565b5f6040820190508181035f8301526139c081858761397b565b90506139cf6020830184612869565b94935050505056fea2646970667358221220df31921aa0d64b60cfbfd811e641663e601532e1ee9373dd133fc3c3c028654464736f6c634300081e0033",
					"opcodes": "PUSH1 0xA0 PUSH1 0x40 MSTORE PUSH1 0x1 PUSH0 SSTORE PUSH1 0x1 DUP1 SSTORE PUSH1 0x1 PUSH1 0x2 SSTORE CALLVALUE DUP1 ISZERO PUSH2 0x1C JUMPI PUSH0 PUSH0 REVERT JUMPDEST POP PUSH1 0x1 PUSH2 0x3B PUSH2 0x30 PUSH2 0x7A PUSH1 0x20 SHL PUSH1 0x20 SHR JUMP JUMPDEST PUSH2 0xA3 PUSH1 0x20 SHL PUSH1 0x20 SHR JUMP JUMPDEST PUSH0 ADD DUP2 SWAP1 SSTORE POP CALLER PUSH20 0xFFFFFFFFFFFFFFFFFFFFFFFFFFFFFFFFFFFFFFFF AND PUSH1 0x80 DUP2 PUSH20 0xFFFFFFFFFFFFFFFFFFFFFFFFFFFFFFFFFFFFFFFF AND DUP2 MSTORE POP POP PUSH2 0xAC JUMP JUMPDEST PUSH0 PUSH32 0x9B779B17422D0DF92223018B32B4D1FA46E071723D6817E2486D003BECC55F00 PUSH0 SHL SWAP1 POP SWAP1 JUMP JUMPDEST PUSH0 DUP2 SWAP1 POP SWAP2 SWAP1 POP JUMP JUMPDEST PUSH1 0x80 MLOAD PUSH2 0x3A0D PUSH2 0xD2 PUSH0 CODECOPY PUSH0 DUP2 DUP2 PUSH2 0xC03 ADD MSTORE DUP2 DUP2 PUSH2 0x1B23 ADD MSTORE PUSH2 0x237E ADD MSTORE PUSH2 0x3A0D PUSH0 RETURN INVALID PUSH1 0x80 PUSH1 0x40 MSTORE CALLVALUE DUP1 ISZERO PUSH2 0xF JUMPI PUSH0 PUSH0 REVERT JUMPDEST POP PUSH1 0x4 CALLDATASIZE LT PUSH2 0x12A JUMPI PUSH0 CALLDATALOAD PUSH1 0xE0 SHR DUP1 PUSH4 0x8782DC00 GT PUSH2 0xAB JUMPI DUP1 PUSH4 0xC16FE907 GT PUSH2 0x6F JUMPI DUP1 PUSH4 0xC16FE907 EQ PUSH2 0x373 JUMPI DUP1 PUSH4 0xD67B2D08 EQ PUSH2 0x3A3 JUMPI DUP1 PUSH4 0xE4B50CB8 EQ PUSH2 0x3BF JUMPI DUP1 PUSH4 0xEF57E2D2 EQ PUSH2 0x3F6 JUMPI DUP1 PUSH4 0xF851A440 EQ PUSH2 0x426 JUMPI PUSH2 0x12A JUMP JUMPDEST DUP1 PUSH4 0x8782DC00 EQ PUSH2 0x2B5 JUMPI DUP1 PUSH4 0x9377D711 EQ PUSH2 0x2D1 JUMPI DUP1 PUSH4 0xA1E6A255 EQ PUSH2 0x307 JUMPI DUP1 PUSH4 0xB5FFBBCC EQ PUSH2 0x325 JUMPI DUP1 PUSH4 0xB85B381B EQ PUSH2 0x355 JUMPI PUSH2 0x12A JUMP JUMPDEST DUP1 PUSH4 0x49217CA4 GT PUSH2 0xF2 JUMPI DUP1 PUSH4 0x49217CA4 EQ PUSH2 0x1E5 JUMPI DUP1 PUSH4 0x4F64B2BE EQ PUSH2 0x201 JUMPI DUP1 PUSH4 0x519DC8D2 EQ PUSH2 0x237 JUMPI DUP1 PUSH4 0x6386C1C7 EQ PUSH2 0x267 JUMPI DUP1 PUSH4 0x75794A3C EQ PUSH2 0x297 JUMPI PUSH2 0x12A JUMP JUMPDEST DUP1 PUSH4 0x95BCDB6 EQ PUSH2 0x12E JUMPI DUP1 PUSH4 0x12EFFC32 EQ PUSH2 0x14A JUMPI DUP1 PUSH4 0x274FAE7C EQ PUSH2 0x166 JUMPI DUP1 PUSH4 0x335D3410 EQ PUSH2 0x182 JUMPI DUP1 PUSH4 0x365B98B2 EQ PUSH2 0x1B2 JUMPI JUMPDEST PUSH0 PUSH0 REVERT JUMPDEST PUSH2 0x148 PUSH1 0x4 DUP1 CALLDATASIZE SUB DUP2 ADD SWAP1 PUSH2 0x143 SWAP2 SWAP1 PUSH2 0x26EC JUMP JUMPDEST PUSH2 0x444 JUMP JUMPDEST STOP JUMPDEST PUSH2 0x164 PUSH1 0x4 DUP1 CALLDATASIZE SUB DUP2 ADD SWAP1 PUSH2 0x15F SWAP2 SWAP1 PUSH2 0x273C JUMP JUMPDEST PUSH2 0xB17 JUMP JUMPDEST STOP JUMPDEST PUSH2 0x180 PUSH1 0x4 DUP1 CALLDATASIZE SUB DUP2 ADD SWAP1 PUSH2 0x17B SWAP2 SWAP1 PUSH2 0x273C JUMP JUMPDEST PUSH2 0xD8A JUMP JUMPDEST STOP JUMPDEST PUSH2 0x19C PUSH1 0x4 DUP1 CALLDATASIZE SUB DUP2 ADD SWAP1 PUSH2 0x197 SWAP2 SWAP1 PUSH2 0x2767 JUMP JUMPDEST PUSH2 0x110D JUMP JUMPDEST PUSH1 0x40 MLOAD PUSH2 0x1A9 SWAP2 SWAP1 PUSH2 0x2849 JUMP JUMPDEST PUSH1 0x40 MLOAD DUP1 SWAP2 SUB SWAP1 RETURN JUMPDEST PUSH2 0x1CC PUSH1 0x4 DUP1 CALLDATASIZE SUB DUP2 ADD SWAP1 PUSH2 0x1C7 SWAP2 SWAP1 PUSH2 0x273C JUMP JUMPDEST PUSH2 0x1328 JUMP JUMPDEST PUSH1 0x40 MLOAD PUSH2 0x1DC SWAP5 SWAP4 SWAP3 SWAP2 SWAP1 PUSH2 0x2912 JUMP JUMPDEST PUSH1 0x40 MLOAD DUP1 SWAP2 SUB SWAP1 RETURN JUMPDEST PUSH2 0x1FF PUSH1 0x4 DUP1 CALLDATASIZE SUB DUP2 ADD SWAP1 PUSH2 0x1FA SWAP2 SWAP1 PUSH2 0x297F JUMP JUMPDEST PUSH2 0x137F JUMP JUMPDEST STOP JUMPDEST PUSH2 0x21B PUSH1 0x4 DUP1 CALLDATASIZE SUB DUP2 ADD SWAP1 PUSH2 0x216 SWAP2 SWAP1 PUSH2 0x273C JUMP JUMPDEST PUSH2 0x1643 JUMP JUMPDEST PUSH1 0x40 MLOAD PUSH2 0x22E SWAP8 SWAP7 SWAP6 SWAP5 SWAP4 SWAP3 SWAP2 SWAP1 PUSH2 0x2A1A JUMP JUMPDEST PUSH1 0x40 MLOAD DUP1 SWAP2 SUB SWAP1 RETURN JUMPDEST PUSH2 0x251 PUSH1 0x4 DUP1 CALLDATASIZE SUB DUP2 ADD SWAP1 PUSH2 0x24C SWAP2 SWAP1 PUSH2 0x2767 JUMP JUMPDEST PUSH2 0x17AC JUMP JUMPDEST PUSH1 0x40 MLOAD PUSH2 0x25E SWAP2 SWAP1 PUSH2 0x2849 JUMP JUMPDEST PUSH1 0x40 MLOAD DUP1 SWAP2 SUB SWAP1 RETURN JUMPDEST PUSH2 0x281 PUSH1 0x4 DUP1 CALLDATASIZE SUB DUP2 ADD SWAP1 PUSH2 0x27C SWAP2 SWAP1 PUSH2 0x2767 JUMP JUMPDEST PUSH2 0x19B6 JUMP JUMPDEST PUSH1 0x40 MLOAD PUSH2 0x28E SWAP2 SWAP1 PUSH2 0x2B15 JUMP JUMPDEST PUSH1 0x40 MLOAD DUP1 SWAP2 SUB SWAP1 RETURN JUMPDEST PUSH2 0x29F PUSH2 0x1B1C JUMP JUMPDEST PUSH1 0x40 MLOAD PUSH2 0x2AC SWAP2 SWAP1 PUSH2 0x2B2E JUMP JUMPDEST PUSH1 0x40 MLOAD DUP1 SWAP2 SUB SWAP1 RETURN JUMPDEST PUSH2 0x2CF PUSH1 0x4 DUP1 CALLDATASIZE SUB DUP2 ADD SWAP1 PUSH2 0x2CA SWAP2 SWAP1 PUSH2 0x2B6A JUMP JUMPDEST PUSH2 0x1B21 JUMP JUMPDEST STOP JUMPDEST PUSH2 0x2EB PUSH1 0x4 DUP1 CALLDATASIZE SUB DUP2 ADD SWAP1 PUSH2 0x2E6 SWAP2 SWAP1 PUSH2 0x273C JUMP JUMPDEST PUSH2 0x1CC0 JUMP JUMPDEST PUSH1 0x40 MLOAD PUSH2 0x2FE SWAP8 SWAP7 SWAP6 SWAP5 SWAP4 SWAP3 SWAP2 SWAP1 PUSH2 0x2BEE JUMP JUMPDEST PUSH1 0x40 MLOAD DUP1 SWAP2 SUB SWAP1 RETURN JUMPDEST PUSH2 0x30F PUSH2 0x1D48 JUMP JUMPDEST PUSH1 0x40 MLOAD PUSH2 0x31C SWAP2 SWAP1 PUSH2 0x2B2E JUMP JUMPDEST PUSH1 0x40 MLOAD DUP1 SWAP2 SUB SWAP1 RETURN JUMPDEST PUSH2 0x33F PUSH1 0x4 DUP1 CALLDATASIZE SUB DUP2 ADD SWAP1 PUSH2 0x33A SWAP2 SWAP1 PUSH2 0x2767 JUMP JUMPDEST PUSH2 0x1D4E JUMP JUMPDEST PUSH1 0x40 MLOAD PUSH2 0x34C SWAP2 SWAP1 PUSH2 0x2B2E JUMP JUMPDEST PUSH1 0x40 MLOAD DUP1 SWAP2 SUB SWAP1 RETURN JUMPDEST PUSH2 0x35D PUSH2 0x1D63 JUMP JUMPDEST PUSH1 0x40 MLOAD PUSH2 0x36A SWAP2 SWAP1 PUSH2 0x2B2E JUMP JUMPDEST PUSH1 0x40 MLOAD DUP1 SWAP2 SUB SWAP1 RETURN JUMPDEST PUSH2 0x38D PUSH1 0x4 DUP1 CALLDATASIZE SUB DUP2 ADD SWAP1 PUSH2 0x388 SWAP2 SWAP1 PUSH2 0x273C JUMP JUMPDEST PUSH2 0x1D69 JUMP JUMPDEST PUSH1 0x40 MLOAD PUSH2 0x39A SWAP2 SWAP1 PUSH2 0x2CF6 JUMP JUMPDEST PUSH1 0x40 MLOAD DUP1 SWAP2 SUB SWAP1 RETURN JUMPDEST PUSH2 0x3BD PUSH1 0x4 DUP1 CALLDATASIZE SUB DUP2 ADD SWAP1 PUSH2 0x3B8 SWAP2 SWAP1 PUSH2 0x2D70 JUMP JUMPDEST PUSH2 0x1E9F JUMP JUMPDEST STOP JUMPDEST PUSH2 0x3D9 PUSH1 0x4 DUP1 CALLDATASIZE SUB DUP2 ADD SWAP1 PUSH2 0x3D4 SWAP2 SWAP1 PUSH2 0x273C JUMP JUMPDEST PUSH2 0x2113 JUMP JUMPDEST PUSH1 0x40 MLOAD PUSH2 0x3ED SWAP9 SWAP8 SWAP7 SWAP6 SWAP5 SWAP4 SWAP3 SWAP2 SWAP1 PUSH2 0x2E13 JUMP JUMPDEST PUSH1 0x40 MLOAD DUP1 SWAP2 SUB SWAP1 RETURN JUMPDEST PUSH2 0x410 PUSH1 0x4 DUP1 CALLDATASIZE SUB DUP2 ADD SWAP1 PUSH2 0x40B SWAP2 SWAP1 PUSH2 0x2E9D JUMP JUMPDEST PUSH2 0x22E0 JUMP JUMPDEST PUSH1 0x40 MLOAD PUSH2 0x41D SWAP2 SWAP1 PUSH2 0x2B2E JUMP JUMPDEST PUSH1 0x40 MLOAD DUP1 SWAP2 SUB SWAP1 RETURN JUMPDEST PUSH2 0x42E PUSH2 0x237C JUMP JUMPDEST PUSH1 0x40 MLOAD PUSH2 0x43B SWAP2 SWAP1 PUSH2 0x2EDB JUMP JUMPDEST PUSH1 0x40 MLOAD DUP1 SWAP2 SUB SWAP1 RETURN JUMPDEST PUSH0 PUSH1 0x6 PUSH0 CALLER PUSH20 0xFFFFFFFFFFFFFFFFFFFFFFFFFFFFFFFFFFFFFFFF AND PUSH20 0xFFFFFFFFFFFFFFFFFFFFFFFFFFFFFFFFFFFFFFFF AND DUP2 MSTORE PUSH1 0x20 ADD SWAP1 DUP2 MSTORE PUSH1 0x20 ADD PUSH0 KECCAK256 SLOAD SWAP1 POP PUSH0 DUP2 EQ ISZERO DUP1 ISZERO PUSH2 0x4D9 JUMPI POP PUSH1 0x1 PUSH1 0x3 DUP2 GT ISZERO PUSH2 0x4A4 JUMPI PUSH2 0x4A3 PUSH2 0x289F JUMP JUMPDEST JUMPDEST PUSH1 0x5 PUSH0 DUP4 DUP2 MSTORE PUSH1 0x20 ADD SWAP1 DUP2 MSTORE PUSH1 0x20 ADD PUSH0 KECCAK256 PUSH1 0x3 ADD PUSH0 SWAP1 SLOAD SWAP1 PUSH2 0x100 EXP SWAP1 DIV PUSH1 0xFF AND PUSH1 0x3 DUP2 GT ISZERO PUSH2 0x4D7 JUMPI PUSH2 0x4D6 PUSH2 0x289F JUMP JUMPDEST JUMPDEST EQ JUMPDEST PUSH2 0x518 JUMPI PUSH1 0x40 MLOAD PUSH32 0x8C379A000000000000000000000000000000000000000000000000000000000 DUP2 MSTORE PUSH1 0x4 ADD PUSH2 0x50F SWAP1 PUSH2 0x2F3E JUMP JUMPDEST PUSH1 0x40 MLOAD DUP1 SWAP2 SUB SWAP1 REVERT JUMPDEST PUSH2 0x520 PUSH2 0x23A0 JUMP JUMPDEST PUSH0 PUSH20 0xFFFFFFFFFFFFFFFFFFFFFFFFFFFFFFFFFFFFFFFF AND DUP5 PUSH20 0xFFFFFFFFFFFFFFFFFFFFFFFFFFFFFFFFFFFFFFFF AND EQ ISZERO DUP1 ISZERO PUSH2 0x588 JUMPI POP CALLER PUSH20 0xFFFFFFFFFFFFFFFFFFFFFFFFFFFFFFFFFFFFFFFF AND DUP5 PUSH20 0xFFFFFFFFFFFFFFFFFFFFFFFFFFFFFFFFFFFFFFFF AND EQ ISZERO JUMPDEST PUSH2 0x5C7 JUMPI PUSH1 0x40 MLOAD PUSH32 0x8C379A000000000000000000000000000000000000000000000000000000000 DUP2 MSTORE PUSH1 0x4 ADD PUSH2 0x5BE SWAP1 PUSH2 0x2FA6 JUMP JUMPDEST PUSH1 0x40 MLOAD DUP1 SWAP2 SUB SWAP1 REVERT JUMPDEST PUSH0 DUP3 GT PUSH2 0x609 JUMPI PUSH1 0x40 MLOAD PUSH32 0x8C379A000000000000000000000000000000000000000000000000000000000 DUP2 MSTORE PUSH1 0x4 ADD PUSH2 0x600 SWAP1 PUSH2 0x300E JUMP JUMPDEST PUSH1 0x40 MLOAD DUP1 SWAP2 SUB SWAP1 REVERT JUMPDEST PUSH0 SLOAD DUP4 LT PUSH2 0x64C JUMPI PUSH1 0x40 MLOAD PUSH32 0x8C379A000000000000000000000000000000000000000000000000000000000 DUP2 MSTORE PUSH1 0x4 ADD PUSH2 0x643 SWAP1 PUSH2 0x3076 JUMP JUMPDEST PUSH1 0x40 MLOAD DUP1 SWAP2 SUB SWAP1 REVERT JUMPDEST PUSH0 PUSH1 0x6 PUSH0 CALLER PUSH20 0xFFFFFFFFFFFFFFFFFFFFFFFFFFFFFFFFFFFFFFFF AND PUSH20 0xFFFFFFFFFFFFFFFFFFFFFFFFFFFFFFFFFFFFFFFF AND DUP2 MSTORE PUSH1 0x20 ADD SWAP1 DUP2 MSTORE PUSH1 0x20 ADD PUSH0 KECCAK256 SLOAD SWAP1 POP PUSH0 PUSH1 0x6 PUSH0 DUP8 PUSH20 0xFFFFFFFFFFFFFFFFFFFFFFFFFFFFFFFFFFFFFFFF AND PUSH20 0xFFFFFFFFFFFFFFFFFFFFFFFFFFFFFFFFFFFFFFFF AND DUP2 MSTORE PUSH1 0x20 ADD SWAP1 DUP2 MSTORE PUSH1 0x20 ADD PUSH0 KECCAK256 SLOAD SWAP1 POP PUSH0 DUP2 SUB PUSH2 0x710 JUMPI PUSH1 0x40 MLOAD PUSH32 0x8C379A000000000000000000000000000000000000000000000000000000000 DUP2 MSTORE PUSH1 0x4 ADD PUSH2 0x707 SWAP1 PUSH2 0x30DE JUMP JUMPDEST PUSH1 0x40 MLOAD DUP1 SWAP2 SUB SWAP1 REVERT JUMPDEST PUSH2 0x72D PUSH1 0x5 PUSH0 DUP5 DUP2 MSTORE PUSH1 0x20 ADD SWAP1 DUP2 MSTORE PUSH1 0x20 ADD PUSH0 KECCAK256 PUSH1 0x2 ADD SLOAD PUSH2 0x23C2 JUMP JUMPDEST ISZERO PUSH2 0x76D JUMPI PUSH1 0x40 MLOAD PUSH32 0x8C379A000000000000000000000000000000000000000000000000000000000 DUP2 MSTORE PUSH1 0x4 ADD PUSH2 0x764 SWAP1 PUSH2 0x3146 JUMP JUMPDEST PUSH1 0x40 MLOAD DUP1 SWAP2 SUB SWAP1 REVERT JUMPDEST PUSH2 0x79F PUSH1 0x5 PUSH0 DUP5 DUP2 MSTORE PUSH1 0x20 ADD SWAP1 DUP2 MSTORE PUSH1 0x20 ADD PUSH0 KECCAK256 PUSH1 0x2 ADD SLOAD PUSH1 0x5 PUSH0 DUP5 DUP2 MSTORE PUSH1 0x20 ADD SWAP1 DUP2 MSTORE PUSH1 0x20 ADD PUSH0 KECCAK256 PUSH1 0x2 ADD SLOAD PUSH2 0x23ED JUMP JUMPDEST PUSH2 0x7DE JUMPI PUSH1 0x40 MLOAD PUSH32 0x8C379A000000000000000000000000000000000000000000000000000000000 DUP2 MSTORE PUSH1 0x4 ADD PUSH2 0x7D5 SWAP1 PUSH2 0x31AE JUMP JUMPDEST PUSH1 0x40 MLOAD DUP1 SWAP2 SUB SWAP1 REVERT JUMPDEST PUSH0 PUSH1 0x3 PUSH0 DUP8 DUP2 MSTORE PUSH1 0x20 ADD SWAP1 DUP2 MSTORE PUSH1 0x20 ADD PUSH0 KECCAK256 SWAP1 POP DUP5 DUP2 PUSH1 0x7 ADD PUSH0 CALLER PUSH20 0xFFFFFFFFFFFFFFFFFFFFFFFFFFFFFFFFFFFFFFFF AND PUSH20 0xFFFFFFFFFFFFFFFFFFFFFFFFFFFFFFFFFFFFFFFF AND DUP2 MSTORE PUSH1 0x20 ADD SWAP1 DUP2 MSTORE PUSH1 0x20 ADD PUSH0 KECCAK256 SLOAD LT ISZERO PUSH2 0x874 JUMPI PUSH1 0x40 MLOAD PUSH32 0x8C379A000000000000000000000000000000000000000000000000000000000 DUP2 MSTORE PUSH1 0x4 ADD PUSH2 0x86B SWAP1 PUSH2 0x3216 JUMP JUMPDEST PUSH1 0x40 MLOAD DUP1 SWAP2 SUB SWAP1 REVERT JUMPDEST DUP5 DUP2 PUSH1 0x7 ADD PUSH0 CALLER PUSH20 0xFFFFFFFFFFFFFFFFFFFFFFFFFFFFFFFFFFFFFFFF AND PUSH20 0xFFFFFFFFFFFFFFFFFFFFFFFFFFFFFFFFFFFFFFFF AND DUP2 MSTORE PUSH1 0x20 ADD SWAP1 DUP2 MSTORE PUSH1 0x20 ADD PUSH0 KECCAK256 PUSH0 DUP3 DUP3 SLOAD PUSH2 0x8C2 SWAP2 SWAP1 PUSH2 0x3261 JUMP JUMPDEST SWAP3 POP POP DUP2 SWAP1 SSTORE POP DUP5 DUP2 PUSH1 0x7 ADD PUSH0 DUP10 PUSH20 0xFFFFFFFFFFFFFFFFFFFFFFFFFFFFFFFFFFFFFFFF AND PUSH20 0xFFFFFFFFFFFFFFFFFFFFFFFFFFFFFFFFFFFFFFFF AND DUP2 MSTORE PUSH1 0x20 ADD SWAP1 DUP2 MSTORE PUSH1 0x20 ADD PUSH0 KECCAK256 PUSH0 DUP3 DUP3 SLOAD PUSH2 0x917 SWAP2 SWAP1 PUSH2 0x3294 JUMP JUMPDEST SWAP3 POP POP DUP2 SWAP1 SSTORE POP PUSH0 PUSH1 0x1 PUSH0 DUP2 SLOAD DUP1 SWAP3 SWAP2 SWAP1 PUSH2 0x931 SWAP1 PUSH2 0x32C7 JUMP JUMPDEST SWAP2 SWAP1 POP SSTORE SWAP1 POP PUSH1 0x40 MLOAD DUP1 PUSH1 0xE0 ADD PUSH1 0x40 MSTORE DUP1 DUP3 DUP2 MSTORE PUSH1 0x20 ADD CALLER PUSH20 0xFFFFFFFFFFFFFFFFFFFFFFFFFFFFFFFFFFFFFFFF AND DUP2 MSTORE PUSH1 0x20 ADD DUP10 PUSH20 0xFFFFFFFFFFFFFFFFFFFFFFFFFFFFFFFFFFFFFFFF AND DUP2 MSTORE PUSH1 0x20 ADD DUP9 DUP2 MSTORE PUSH1 0x20 ADD TIMESTAMP DUP2 MSTORE PUSH1 0x20 ADD DUP8 DUP2 MSTORE PUSH1 0x20 ADD PUSH0 PUSH1 0x2 DUP2 GT ISZERO PUSH2 0x9A5 JUMPI PUSH2 0x9A4 PUSH2 0x289F JUMP JUMPDEST JUMPDEST DUP2 MSTORE POP PUSH1 0x4 PUSH0 DUP4 DUP2 MSTORE PUSH1 0x20 ADD SWAP1 DUP2 MSTORE PUSH1 0x20 ADD PUSH0 KECCAK256 PUSH0 DUP3 ADD MLOAD DUP2 PUSH0 ADD SSTORE PUSH1 0x20 DUP3 ADD MLOAD DUP2 PUSH1 0x1 ADD PUSH0 PUSH2 0x100 EXP DUP2 SLOAD DUP2 PUSH20 0xFFFFFFFFFFFFFFFFFFFFFFFFFFFFFFFFFFFFFFFF MUL NOT AND SWAP1 DUP4 PUSH20 0xFFFFFFFFFFFFFFFFFFFFFFFFFFFFFFFFFFFFFFFF AND MUL OR SWAP1 SSTORE POP PUSH1 0x40 DUP3 ADD MLOAD DUP2 PUSH1 0x2 ADD PUSH0 PUSH2 0x100 EXP DUP2 SLOAD DUP2 PUSH20 0xFFFFFFFFFFFFFFFFFFFFFFFFFFFFFFFFFFFFFFFF MUL NOT AND SWAP1 DUP4 PUSH20 0xFFFFFFFFFFFFFFFFFFFFFFFFFFFFFFFFFFFFFFFF AND MUL OR SWAP1 SSTORE POP PUSH1 0x60 DUP3 ADD MLOAD DUP2 PUSH1 0x3 ADD SSTORE PUSH1 0x80 DUP3 ADD MLOAD DUP2 PUSH1 0x4 ADD SSTORE PUSH1 0xA0 DUP3 ADD MLOAD DUP2 PUSH1 0x5 ADD SSTORE PUSH1 0xC0 DUP3 ADD MLOAD DUP2 PUSH1 0x6 ADD PUSH0 PUSH2 0x100 EXP DUP2 SLOAD DUP2 PUSH1 0xFF MUL NOT AND SWAP1 DUP4 PUSH1 0x2 DUP2 GT ISZERO PUSH2 0xA95 JUMPI PUSH2 0xA94 PUSH2 0x289F JUMP JUMPDEST JUMPDEST MUL OR SWAP1 SSTORE POP SWAP1 POP POP DUP8 PUSH20 0xFFFFFFFFFFFFFFFFFFFFFFFFFFFFFFFFFFFFFFFF AND CALLER PUSH20 0xFFFFFFFFFFFFFFFFFFFFFFFFFFFFFFFFFFFFFFFF AND DUP3 PUSH32 0xC8262DC04F8F56ABC884E1F58CA17A373610558A6CEBC5E927B9E1C4668E5FDF DUP11 DUP11 PUSH1 0x40 MLOAD PUSH2 0xAFD SWAP3 SWAP2 SWAP1 PUSH2 0x330E JUMP JUMPDEST PUSH1 0x40 MLOAD DUP1 SWAP2 SUB SWAP1 LOG4 POP POP POP POP PUSH2 0xB11 PUSH2 0x24EE JUMP JUMPDEST POP POP POP POP JUMP JUMPDEST PUSH2 0xB1F PUSH2 0x23A0 JUMP JUMPDEST PUSH0 PUSH1 0x4 PUSH0 DUP4 DUP2 MSTORE PUSH1 0x20 ADD SWAP1 DUP2 MSTORE PUSH1 0x20 ADD PUSH0 KECCAK256 SWAP1 POP PUSH0 PUSH1 0x2 DUP2 GT ISZERO PUSH2 0xB46 JUMPI PUSH2 0xB45 PUSH2 0x289F JUMP JUMPDEST JUMPDEST DUP2 PUSH1 0x6 ADD PUSH0 SWAP1 SLOAD SWAP1 PUSH2 0x100 EXP SWAP1 DIV PUSH1 0xFF AND PUSH1 0x2 DUP2 GT ISZERO PUSH2 0xB69 JUMPI PUSH2 0xB68 PUSH2 0x289F JUMP JUMPDEST JUMPDEST EQ PUSH2 0xBA9 JUMPI PUSH1 0x40 MLOAD PUSH32 0x8C379A000000000000000000000000000000000000000000000000000000000 DUP2 MSTORE PUSH1 0x4 ADD PUSH2 0xBA0 SWAP1 PUSH2 0x337F JUMP JUMPDEST PUSH1 0x40 MLOAD DUP1 SWAP2 SUB SWAP1 REVERT JUMPDEST DUP1 PUSH1 0x2 ADD PUSH0 SWAP1 SLOAD SWAP1 PUSH2 0x100 EXP SWAP1 DIV PUSH20 0xFFFFFFFFFFFFFFFFFFFFFFFFFFFFFFFFFFFFFFFF AND PUSH20 0xFFFFFFFFFFFFFFFFFFFFFFFFFFFFFFFFFFFFFFFF AND CALLER PUSH20 0xFFFFFFFFFFFFFFFFFFFFFFFFFFFFFFFFFFFFFFFF AND EQ DUP1 PUSH2 0xC51 JUMPI POP PUSH32 0x0 PUSH20 0xFFFFFFFFFFFFFFFFFFFFFFFFFFFFFFFFFFFFFFFF AND CALLER PUSH20 0xFFFFFFFFFFFFFFFFFFFFFFFFFFFFFFFFFFFFFFFF AND EQ JUMPDEST PUSH2 0xC90 JUMPI PUSH1 0x40 MLOAD PUSH32 0x8C379A000000000000000000000000000000000000000000000000000000000 DUP2 MSTORE PUSH1 0x4 ADD PUSH2 0xC87 SWAP1 PUSH2 0x33E7 JUMP JUMPDEST PUSH1 0x40 MLOAD DUP1 SWAP2 SUB SWAP1 REVERT JUMPDEST PUSH0 PUSH1 0x3 PUSH0 DUP4 PUSH1 0x3 ADD SLOAD DUP2 MSTORE PUSH1 0x20 ADD SWAP1 DUP2 MSTORE PUSH1 0x20 ADD PUSH0 KECCAK256 SWAP1 POP DUP2 PUSH1 0x5 ADD SLOAD DUP2 PUSH1 0x7 ADD PUSH0 DUP5 PUSH1 0x1 ADD PUSH0 SWAP1 SLOAD SWAP1 PUSH2 0x100 EXP SWAP1 DIV PUSH20 0xFFFFFFFFFFFFFFFFFFFFFFFFFFFFFFFFFFFFFFFF AND PUSH20 0xFFFFFFFFFFFFFFFFFFFFFFFFFFFFFFFFFFFFFFFF AND PUSH20 0xFFFFFFFFFFFFFFFFFFFFFFFFFFFFFFFFFFFFFFFF AND DUP2 MSTORE PUSH1 0x20 ADD SWAP1 DUP2 MSTORE PUSH1 0x20 ADD PUSH0 KECCAK256 PUSH0 DUP3 DUP3 SLOAD PUSH2 0xD1D SWAP2 SWAP1 PUSH2 0x3294 JUMP JUMPDEST SWAP3 POP POP DUP2 SWAP1 SSTORE POP PUSH1 0x2 DUP3 PUSH1 0x6 ADD PUSH0 PUSH2 0x100 EXP DUP2 SLOAD DUP2 PUSH1 0xFF MUL NOT AND SWAP1 DUP4 PUSH1 0x2 DUP2 GT ISZERO PUSH2 0xD4B JUMPI PUSH2 0xD4A PUSH2 0x289F JUMP JUMPDEST JUMPDEST MUL OR SWAP1 SSTORE POP DUP3 PUSH32 0x1F4F8A94E17D25044030F376D297769C8F9A1A2A0616E36B498A1E7370B5863F PUSH1 0x40 MLOAD PUSH1 0x40 MLOAD DUP1 SWAP2 SUB SWAP1 LOG2 POP POP PUSH2 0xD87 PUSH2 0x24EE JUMP JUMPDEST POP JUMP JUMPDEST PUSH0 PUSH1 0x6 PUSH0 CALLER PUSH20 0xFFFFFFFFFFFFFFFFFFFFFFFFFFFFFFFFFFFFFFFF AND PUSH20 0xFFFFFFFFFFFFFFFFFFFFFFFFFFFFFFFFFFFFFFFF AND DUP2 MSTORE PUSH1 0x20 ADD SWAP1 DUP2 MSTORE PUSH1 0x20 ADD PUSH0 KECCAK256 SLOAD SWAP1 POP PUSH0 DUP2 EQ ISZERO DUP1 ISZERO PUSH2 0xE1F JUMPI POP PUSH1 0x1 PUSH1 0x3 DUP2 GT ISZERO PUSH2 0xDEA JUMPI PUSH2 0xDE9 PUSH2 0x289F JUMP JUMPDEST JUMPDEST PUSH1 0x5 PUSH0 DUP4 DUP2 MSTORE PUSH1 0x20 ADD SWAP1 DUP2 MSTORE PUSH1 0x20 ADD PUSH0 KECCAK256 PUSH1 0x3 ADD PUSH0 SWAP1 SLOAD SWAP1 PUSH2 0x100 EXP SWAP1 DIV PUSH1 0xFF AND PUSH1 0x3 DUP2 GT ISZERO PUSH2 0xE1D JUMPI PUSH2 0xE1C PUSH2 0x289F JUMP JUMPDEST JUMPDEST EQ JUMPDEST PUSH2 0xE5E JUMPI PUSH1 0x40 MLOAD PUSH32 0x8C379A000000000000000000000000000000000000000000000000000000000 DUP2 MSTORE PUSH1 0x4 ADD PUSH2 0xE55 SWAP1 PUSH2 0x2F3E JUMP JUMPDEST PUSH1 0x40 MLOAD DUP1 SWAP2 SUB SWAP1 REVERT JUMPDEST PUSH0 PUSH1 0x4 PUSH0 DUP5 DUP2 MSTORE PUSH1 0x20 ADD SWAP1 DUP2 MSTORE PUSH1 0x20 ADD PUSH0 KECCAK256 SWAP1 POP PUSH0 PUSH1 0x2 DUP2 GT ISZERO PUSH2 0xE85 JUMPI PUSH2 0xE84 PUSH2 0x289F JUMP JUMPDEST JUMPDEST DUP2 PUSH1 0x6 ADD PUSH0 SWAP1 SLOAD SWAP1 PUSH2 0x100 EXP SWAP1 DIV PUSH1 0xFF AND PUSH1 0x2 DUP2 GT ISZERO PUSH2 0xEA8 JUMPI PUSH2 0xEA7 PUSH2 0x289F JUMP JUMPDEST JUMPDEST EQ PUSH2 0xEE8 JUMPI PUSH1 0x40 MLOAD PUSH32 0x8C379A000000000000000000000000000000000000000000000000000000000 DUP2 MSTORE PUSH1 0x4 ADD PUSH2 0xEDF SWAP1 PUSH2 0x337F JUMP JUMPDEST PUSH1 0x40 MLOAD DUP1 SWAP2 SUB SWAP1 REVERT JUMPDEST DUP1 PUSH1 0x2 ADD PUSH0 SWAP1 SLOAD SWAP1 PUSH2 0x100 EXP SWAP1 DIV PUSH20 0xFFFFFFFFFFFFFFFFFFFFFFFFFFFFFFFFFFFFFFFF AND PUSH20 0xFFFFFFFFFFFFFFFFFFFFFFFFFFFFFFFFFFFFFFFF AND CALLER PUSH20 0xFFFFFFFFFFFFFFFFFFFFFFFFFFFFFFFFFFFFFFFF AND EQ PUSH2 0xF79 JUMPI PUSH1 0x40 MLOAD PUSH32 0x8C379A000000000000000000000000000000000000000000000000000000000 DUP2 MSTORE PUSH1 0x4 ADD PUSH2 0xF70 SWAP1 PUSH2 0x344F JUMP JUMPDEST PUSH1 0x40 MLOAD DUP1 SWAP2 SUB SWAP1 REVERT JUMPDEST PUSH0 PUSH1 0x6 PUSH0 DUP4 PUSH1 0x2 ADD PUSH0 SWAP1 SLOAD SWAP1 PUSH2 0x100 EXP SWAP1 DIV PUSH20 0xFFFFFFFFFFFFFFFFFFFFFFFFFFFFFFFFFFFFFFFF AND PUSH20 0xFFFFFFFFFFFFFFFFFFFFFFFFFFFFFFFFFFFFFFFF AND PUSH20 0xFFFFFFFFFFFFFFFFFFFFFFFFFFFFFFFFFFFFFFFF AND DUP2 MSTORE PUSH1 0x20 ADD SWAP1 DUP2 MSTORE PUSH1 0x20 ADD PUSH0 KECCAK256 SLOAD SWAP1 POP PUSH2 0x106F PUSH1 0x5 PUSH0 PUSH1 0x6 PUSH0 DUP7 PUSH1 0x1 ADD PUSH0 SWAP1 SLOAD SWAP1 PUSH2 0x100 EXP SWAP1 DIV PUSH20 0xFFFFFFFFFFFFFFFFFFFFFFFFFFFFFFFFFFFFFFFF AND PUSH20 0xFFFFFFFFFFFFFFFFFFFFFFFFFFFFFFFFFFFFFFFF AND PUSH20 0xFFFFFFFFFFFFFFFFFFFFFFFFFFFFFFFFFFFFFFFF AND DUP2 MSTORE PUSH1 0x20 ADD SWAP1 DUP2 MSTORE PUSH1 0x20 ADD PUSH0 KECCAK256 SLOAD DUP2 MSTORE PUSH1 0x20 ADD SWAP1 DUP2 MSTORE PUSH1 0x20 ADD PUSH0 KECCAK256 PUSH1 0x2 ADD SLOAD PUSH1 0x5 PUSH0 DUP5 DUP2 MSTORE PUSH1 0x20 ADD SWAP1 DUP2 MSTORE PUSH1 0x20 ADD PUSH0 KECCAK256 PUSH1 0x2 ADD SLOAD PUSH2 0x23ED JUMP JUMPDEST PUSH2 0x10AE JUMPI PUSH1 0x40 MLOAD PUSH32 0x8C379A000000000000000000000000000000000000000000000000000000000 DUP2 MSTORE PUSH1 0x4 ADD PUSH2 0x10A5 SWAP1 PUSH2 0x31AE JUMP JUMPDEST PUSH1 0x40 MLOAD DUP1 SWAP2 SUB SWAP1 REVERT JUMPDEST PUSH1 0x1 DUP3 PUSH1 0x6 ADD PUSH0 PUSH2 0x100 EXP DUP2 SLOAD DUP2 PUSH1 0xFF MUL NOT AND SWAP1 DUP4 PUSH1 0x2 DUP2 GT ISZERO PUSH2 0x10D5 JUMPI PUSH2 0x10D4 PUSH2 0x289F JUMP JUMPDEST JUMPDEST MUL OR SWAP1 SSTORE POP DUP4 PUSH32 0x91DD4234B45D77221E6ECA52C141569A6D0F3B3FFE9B8A18FE8B9AAFBC64B44B PUSH1 0x40 MLOAD PUSH1 0x40 MLOAD DUP1 SWAP2 SUB SWAP1 LOG2 POP POP POP POP JUMP JUMPDEST PUSH1 0x60 PUSH0 PUSH1 0x1 DUP1 SLOAD PUSH2 0x111E SWAP2 SWAP1 PUSH2 0x3261 JUMP JUMPDEST PUSH8 0xFFFFFFFFFFFFFFFF DUP2 GT ISZERO PUSH2 0x1137 JUMPI PUSH2 0x1136 PUSH2 0x346D JUMP JUMPDEST JUMPDEST PUSH1 0x40 MLOAD SWAP1 DUP1 DUP3 MSTORE DUP1 PUSH1 0x20 MUL PUSH1 0x20 ADD DUP3 ADD PUSH1 0x40 MSTORE DUP1 ISZERO PUSH2 0x1165 JUMPI DUP2 PUSH1 0x20 ADD PUSH1 0x20 DUP3 MUL DUP1 CALLDATASIZE DUP4 CALLDATACOPY DUP1 DUP3 ADD SWAP2 POP POP SWAP1 POP JUMPDEST POP SWAP1 POP PUSH0 PUSH0 SWAP1 POP PUSH0 PUSH1 0x1 SWAP1 POP JUMPDEST PUSH1 0x1 SLOAD DUP2 LT ISZERO PUSH2 0x127B JUMPI PUSH0 PUSH1 0x4 PUSH0 DUP4 DUP2 MSTORE PUSH1 0x20 ADD SWAP1 DUP2 MSTORE PUSH1 0x20 ADD PUSH0 KECCAK256 SWAP1 POP DUP6 PUSH20 0xFFFFFFFFFFFFFFFFFFFFFFFFFFFFFFFFFFFFFFFF AND DUP2 PUSH1 0x1 ADD PUSH0 SWAP1 SLOAD SWAP1 PUSH2 0x100 EXP SWAP1 DIV PUSH20 0xFFFFFFFFFFFFFFFFFFFFFFFFFFFFFFFFFFFFFFFF AND PUSH20 0xFFFFFFFFFFFFFFFFFFFFFFFFFFFFFFFFFFFFFFFF AND EQ DUP1 PUSH2 0x123B JUMPI POP DUP6 PUSH20 0xFFFFFFFFFFFFFFFFFFFFFFFFFFFFFFFFFFFFFFFF AND DUP2 PUSH1 0x2 ADD PUSH0 SWAP1 SLOAD SWAP1 PUSH2 0x100 EXP SWAP1 DIV PUSH20 0xFFFFFFFFFFFFFFFFFFFFFFFFFFFFFFFFFFFFFFFF AND PUSH20 0xFFFFFFFFFFFFFFFFFFFFFFFFFFFFFFFFFFFFFFFF AND EQ JUMPDEST ISZERO PUSH2 0x126D JUMPI DUP2 DUP5 DUP5 DUP1 PUSH2 0x124D SWAP1 PUSH2 0x32C7 JUMP JUMPDEST SWAP6 POP DUP2 MLOAD DUP2 LT PUSH2 0x1260 JUMPI PUSH2 0x125F PUSH2 0x349A JUMP JUMPDEST JUMPDEST PUSH1 0x20 MUL PUSH1 0x20 ADD ADD DUP2 DUP2 MSTORE POP POP JUMPDEST POP DUP1 DUP1 PUSH1 0x1 ADD SWAP2 POP POP PUSH2 0x1172 JUMP JUMPDEST POP PUSH0 DUP2 PUSH8 0xFFFFFFFFFFFFFFFF DUP2 GT ISZERO PUSH2 0x1297 JUMPI PUSH2 0x1296 PUSH2 0x346D JUMP JUMPDEST JUMPDEST PUSH1 0x40 MLOAD SWAP1 DUP1 DUP3 MSTORE DUP1 PUSH1 0x20 MUL PUSH1 0x20 ADD DUP3 ADD PUSH1 0x40 MSTORE DUP1 ISZERO PUSH2 0x12C5 JUMPI DUP2 PUSH1 0x20 ADD PUSH1 0x20 DUP3 MUL DUP1 CALLDATASIZE DUP4 CALLDATACOPY DUP1 DUP3 ADD SWAP2 POP POP SWAP1 POP JUMPDEST POP SWAP1 POP PUSH0 PUSH0 SWAP1 POP JUMPDEST DUP3 DUP2 LT ISZERO PUSH2 0x131C JUMPI DUP4 DUP2 DUP2 MLOAD DUP2 LT PUSH2 0x12E8 JUMPI PUSH2 0x12E7 PUSH2 0x349A JUMP JUMPDEST JUMPDEST PUSH1 0x20 MUL PUSH1 0x20 ADD ADD MLOAD DUP3 DUP3 DUP2 MLOAD DUP2 LT PUSH2 0x1303 JUMPI PUSH2 0x1302 PUSH2 0x349A JUMP JUMPDEST JUMPDEST PUSH1 0x20 MUL PUSH1 0x20 ADD ADD DUP2 DUP2 MSTORE POP POP DUP1 DUP1 PUSH1 0x1 ADD SWAP2 POP POP PUSH2 0x12CD JUMP JUMPDEST POP DUP1 SWAP4 POP POP POP POP SWAP2 SWAP1 POP JUMP JUMPDEST PUSH1 0x5 PUSH1 0x20 MSTORE DUP1 PUSH0 MSTORE PUSH1 0x40 PUSH0 KECCAK256 PUSH0 SWAP2 POP SWAP1 POP DUP1 PUSH0 ADD SLOAD SWAP1 DUP1 PUSH1 0x1 ADD PUSH0 SWAP1 SLOAD SWAP1 PUSH2 0x100 EXP SWAP1 DIV PUSH20 0xFFFFFFFFFFFFFFFFFFFFFFFFFFFFFFFFFFFFFFFF AND SWAP1 DUP1 PUSH1 0x2 ADD SLOAD SWAP1 DUP1 PUSH1 0x3 ADD PUSH0 SWAP1 SLOAD SWAP1 PUSH2 0x100 EXP SWAP1 DIV PUSH1 0xFF AND SWAP1 POP DUP5 JUMP JUMPDEST PUSH0 PUSH0 SHL DUP2 SUB PUSH2 0x13C3 JUMPI PUSH1 0x40 MLOAD PUSH32 0x8C379A000000000000000000000000000000000000000000000000000000000 DUP2 MSTORE PUSH1 0x4 ADD PUSH2 0x13BA SWAP1 PUSH2 0x3511 JUMP JUMPDEST PUSH1 0x40 MLOAD DUP1 SWAP2 SUB SWAP1 REVERT JUMPDEST PUSH0 PUSH1 0x6 PUSH0 CALLER PUSH20 0xFFFFFFFFFFFFFFFFFFFFFFFFFFFFFFFFFFFFFFFF AND PUSH20 0xFFFFFFFFFFFFFFFFFFFFFFFFFFFFFFFFFFFFFFFF AND DUP2 MSTORE PUSH1 0x20 ADD SWAP1 DUP2 MSTORE PUSH1 0x20 ADD PUSH0 KECCAK256 SLOAD SWAP1 POP PUSH0 DUP2 SUB PUSH2 0x154E JUMPI PUSH1 0x2 PUSH0 DUP2 SLOAD DUP1 SWAP3 SWAP2 SWAP1 PUSH2 0x141D SWAP1 PUSH2 0x32C7 JUMP JUMPDEST SWAP2 SWAP1 POP SSTORE SWAP1 POP PUSH1 0x40 MLOAD DUP1 PUSH1 0x80 ADD PUSH1 0x40 MSTORE DUP1 DUP3 DUP2 MSTORE PUSH1 0x20 ADD CALLER PUSH20 0xFFFFFFFFFFFFFFFFFFFFFFFFFFFFFFFFFFFFFFFF AND DUP2 MSTORE PUSH1 0x20 ADD DUP4 DUP2 MSTORE PUSH1 0x20 ADD PUSH0 PUSH1 0x3 DUP2 GT ISZERO PUSH2 0x1469 JUMPI PUSH2 0x1468 PUSH2 0x289F JUMP JUMPDEST JUMPDEST DUP2 MSTORE POP PUSH1 0x5 PUSH0 DUP4 DUP2 MSTORE PUSH1 0x20 ADD SWAP1 DUP2 MSTORE PUSH1 0x20 ADD PUSH0 KECCAK256 PUSH0 DUP3 ADD MLOAD DUP2 PUSH0 ADD SSTORE PUSH1 0x20 DUP3 ADD MLOAD DUP2 PUSH1 0x1 ADD PUSH0 PUSH2 0x100 EXP DUP2 SLOAD DUP2 PUSH20 0xFFFFFFFFFFFFFFFFFFFFFFFFFFFFFFFFFFFFFFFF MUL NOT AND SWAP1 DUP4 PUSH20 0xFFFFFFFFFFFFFFFFFFFFFFFFFFFFFFFFFFFFFFFF AND MUL OR SWAP1 SSTORE POP PUSH1 0x40 DUP3 ADD MLOAD DUP2 PUSH1 0x2 ADD SSTORE PUSH1 0x60 DUP3 ADD MLOAD DUP2 PUSH1 0x3 ADD PUSH0 PUSH2 0x100 EXP DUP2 SLOAD DUP2 PUSH1 0xFF MUL NOT AND SWAP1 DUP4 PUSH1 0x3 DUP2 GT ISZERO PUSH2 0x14FF JUMPI PUSH2 0x14FE PUSH2 0x289F JUMP JUMPDEST JUMPDEST MUL OR SWAP1 SSTORE POP SWAP1 POP POP DUP1 PUSH1 0x6 PUSH0 CALLER PUSH20 0xFFFFFFFFFFFFFFFFFFFFFFFFFFFFFFFFFFFFFFFF AND PUSH20 0xFFFFFFFFFFFFFFFFFFFFFFFFFFFFFFFFFFFFFFFF AND DUP2 MSTORE PUSH1 0x20 ADD SWAP1 DUP2 MSTORE PUSH1 0x20 ADD PUSH0 KECCAK256 DUP2 SWAP1 SSTORE POP PUSH2 0x15A3 JUMP JUMPDEST DUP2 PUSH1 0x5 PUSH0 DUP4 DUP2 MSTORE PUSH1 0x20 ADD SWAP1 DUP2 MSTORE PUSH1 0x20 ADD PUSH0 KECCAK256 PUSH1 0x2 ADD DUP2 SWAP1 SSTORE POP PUSH0 PUSH1 0x5 PUSH0 DUP4 DUP2 MSTORE PUSH1 0x20 ADD SWAP1 DUP2 MSTORE PUSH1 0x20 ADD PUSH0 KECCAK256 PUSH1 0x3 ADD PUSH0 PUSH2 0x100 EXP DUP2 SLOAD DUP2 PUSH1 0xFF MUL NOT AND SWAP1 DUP4 PUSH1 0x3 DUP2 GT ISZERO PUSH2 0x159D JUMPI PUSH2 0x159C PUSH2 0x289F JUMP JUMPDEST JUMPDEST MUL OR SWAP1 SSTORE POP JUMPDEST CALLER PUSH20 0xFFFFFFFFFFFFFFFFFFFFFFFFFFFFFFFFFFFFFFFF AND PUSH32 0x6462C5E0AF9BF3A12E42A57283F899627CB117E108991E3EFDA5D27188CC85C1 DUP4 PUSH1 0x40 MLOAD PUSH2 0x15E9 SWAP2 SWAP1 PUSH2 0x352F JUMP JUMPDEST PUSH1 0x40 MLOAD DUP1 SWAP2 SUB SWAP1 LOG2 CALLER PUSH20 0xFFFFFFFFFFFFFFFFFFFFFFFFFFFFFFFFFFFFFFFF AND PUSH32 0xB3B609C7A5E504A312603E90D906D1667FD5CAFF0A840AD07BF5709A3CA1A045 PUSH0 PUSH1 0x40 MLOAD PUSH2 0x1637 SWAP2 SWAP1 PUSH2 0x3548 JUMP JUMPDEST PUSH1 0x40 MLOAD DUP1 SWAP2 SUB SWAP1 LOG2 POP POP JUMP JUMPDEST PUSH1 0x3 PUSH1 0x20 MSTORE DUP1 PUSH0 MSTORE PUSH1 0x40 PUSH0 KECCAK256 PUSH0 SWAP2 POP SWAP1 POP DUP1 PUSH0 ADD SLOAD SWAP1 DUP1 PUSH1 0x1 ADD PUSH0 SWAP1 SLOAD SWAP1 PUSH2 0x100 EXP SWAP1 DIV PUSH20 0xFFFFFFFFFFFFFFFFFFFFFFFFFFFFFFFFFFFFFFFF AND SWAP1 DUP1 PUSH1 0x2 ADD DUP1 SLOAD PUSH2 0x168D SWAP1 PUSH2 0x358E JUMP JUMPDEST DUP1 PUSH1 0x1F ADD PUSH1 0x20 DUP1 SWAP2 DIV MUL PUSH1 0x20 ADD PUSH1 0x40 MLOAD SWAP1 DUP2 ADD PUSH1 0x40 MSTORE DUP1 SWAP3 SWAP2 SWAP1 DUP2 DUP2 MSTORE PUSH1 0x20 ADD DUP3 DUP1 SLOAD PUSH2 0x16B9 SWAP1 PUSH2 0x358E JUMP JUMPDEST DUP1 ISZERO PUSH2 0x1704 JUMPI DUP1 PUSH1 0x1F LT PUSH2 0x16DB JUMPI PUSH2 0x100 DUP1 DUP4 SLOAD DIV MUL DUP4 MSTORE SWAP2 PUSH1 0x20 ADD SWAP2 PUSH2 0x1704 JUMP JUMPDEST DUP3 ADD SWAP2 SWAP1 PUSH0 MSTORE PUSH1 0x20 PUSH0 KECCAK256 SWAP1 JUMPDEST DUP2 SLOAD DUP2 MSTORE SWAP1 PUSH1 0x1 ADD SWAP1 PUSH1 0x20 ADD DUP1 DUP4 GT PUSH2 0x16E7 JUMPI DUP3 SWAP1 SUB PUSH1 0x1F AND DUP3 ADD SWAP2 JUMPDEST POP POP POP POP POP SWAP1 DUP1 PUSH1 0x3 ADD SLOAD SWAP1 DUP1 PUSH1 0x4 ADD DUP1 SLOAD PUSH2 0x171F SWAP1 PUSH2 0x358E JUMP JUMPDEST DUP1 PUSH1 0x1F ADD PUSH1 0x20 DUP1 SWAP2 DIV MUL PUSH1 0x20 ADD PUSH1 0x40 MLOAD SWAP1 DUP2 ADD PUSH1 0x40 MSTORE DUP1 SWAP3 SWAP2 SWAP1 DUP2 DUP2 MSTORE PUSH1 0x20 ADD DUP3 DUP1 SLOAD PUSH2 0x174B SWAP1 PUSH2 0x358E JUMP JUMPDEST DUP1 ISZERO PUSH2 0x1796 JUMPI DUP1 PUSH1 0x1F LT PUSH2 0x176D JUMPI PUSH2 0x100 DUP1 DUP4 SLOAD DIV MUL DUP4 MSTORE SWAP2 PUSH1 0x20 ADD SWAP2 PUSH2 0x1796 JUMP JUMPDEST DUP3 ADD SWAP2 SWAP1 PUSH0 MSTORE PUSH1 0x20 PUSH0 KECCAK256 SWAP1 JUMPDEST DUP2 SLOAD DUP2 MSTORE SWAP1 PUSH1 0x1 ADD SWAP1 PUSH1 0x20 ADD DUP1 DUP4 GT PUSH2 0x1779 JUMPI DUP3 SWAP1 SUB PUSH1 0x1F AND DUP3 ADD SWAP2 JUMPDEST POP POP POP POP POP SWAP1 DUP1 PUSH1 0x5 ADD SLOAD SWAP1 DUP1 PUSH1 0x6 ADD SLOAD SWAP1 POP DUP8 JUMP JUMPDEST PUSH1 0x60 PUSH0 PUSH1 0x1 PUSH0 SLOAD PUSH2 0x17BD SWAP2 SWAP1 PUSH2 0x3261 JUMP JUMPDEST PUSH8 0xFFFFFFFFFFFFFFFF DUP2 GT ISZERO PUSH2 0x17D6 JUMPI PUSH2 0x17D5 PUSH2 0x346D JUMP JUMPDEST JUMPDEST PUSH1 0x40 MLOAD SWAP1 DUP1 DUP3 MSTORE DUP1 PUSH1 0x20 MUL PUSH1 0x20 ADD DUP3 ADD PUSH1 0x40 MSTORE DUP1 ISZERO PUSH2 0x1804 JUMPI DUP2 PUSH1 0x20 ADD PUSH1 0x20 DUP3 MUL DUP1 CALLDATASIZE DUP4 CALLDATACOPY DUP1 DUP3 ADD SWAP2 POP POP SWAP1 POP JUMPDEST POP SWAP1 POP PUSH0 PUSH0 SWAP1 POP PUSH0 PUSH1 0x1 SWAP1 POP JUMPDEST PUSH0 SLOAD DUP2 LT ISZERO PUSH2 0x1909 JUMPI PUSH0 PUSH1 0x3 PUSH0 DUP4 DUP2 MSTORE PUSH1 0x20 ADD SWAP1 DUP2 MSTORE PUSH1 0x20 ADD PUSH0 KECCAK256 SWAP1 POP DUP6 PUSH20 0xFFFFFFFFFFFFFFFFFFFFFFFFFFFFFFFFFFFFFFFF AND DUP2 PUSH1 0x1 ADD PUSH0 SWAP1 SLOAD SWAP1 PUSH2 0x100 EXP SWAP1 DIV PUSH20 0xFFFFFFFFFFFFFFFFFFFFFFFFFFFFFFFFFFFFFFFF AND PUSH20 0xFFFFFFFFFFFFFFFFFFFFFFFFFFFFFFFFFFFFFFFF AND EQ DUP1 PUSH2 0x18C9 JUMPI POP PUSH0 DUP2 PUSH1 0x7 ADD PUSH0 DUP9 PUSH20 0xFFFFFFFFFFFFFFFFFFFFFFFFFFFFFFFFFFFFFFFF AND PUSH20 0xFFFFFFFFFFFFFFFFFFFFFFFFFFFFFFFFFFFFFFFF AND DUP2 MSTORE PUSH1 0x20 ADD SWAP1 DUP2 MSTORE PUSH1 0x20 ADD PUSH0 KECCAK256 SLOAD GT JUMPDEST ISZERO PUSH2 0x18FB JUMPI DUP2 DUP5 DUP5 DUP1 PUSH2 0x18DB SWAP1 PUSH2 0x32C7 JUMP JUMPDEST SWAP6 POP DUP2 MLOAD DUP2 LT PUSH2 0x18EE JUMPI PUSH2 0x18ED PUSH2 0x349A JUMP JUMPDEST JUMPDEST PUSH1 0x20 MUL PUSH1 0x20 ADD ADD DUP2 DUP2 MSTORE POP POP JUMPDEST POP DUP1 DUP1 PUSH1 0x1 ADD SWAP2 POP POP PUSH2 0x1811 JUMP JUMPDEST POP PUSH0 DUP2 PUSH8 0xFFFFFFFFFFFFFFFF DUP2 GT ISZERO PUSH2 0x1925 JUMPI PUSH2 0x1924 PUSH2 0x346D JUMP JUMPDEST JUMPDEST PUSH1 0x40 MLOAD SWAP1 DUP1 DUP3 MSTORE DUP1 PUSH1 0x20 MUL PUSH1 0x20 ADD DUP3 ADD PUSH1 0x40 MSTORE DUP1 ISZERO PUSH2 0x1953 JUMPI DUP2 PUSH1 0x20 ADD PUSH1 0x20 DUP3 MUL DUP1 CALLDATASIZE DUP4 CALLDATACOPY DUP1 DUP3 ADD SWAP2 POP POP SWAP1 POP JUMPDEST POP SWAP1 POP PUSH0 PUSH0 SWAP1 POP JUMPDEST DUP3 DUP2 LT ISZERO PUSH2 0x19AA JUMPI DUP4 DUP2 DUP2 MLOAD DUP2 LT PUSH2 0x1976 JUMPI PUSH2 0x1975 PUSH2 0x349A JUMP JUMPDEST JUMPDEST PUSH1 0x20 MUL PUSH1 0x20 ADD ADD MLOAD DUP3 DUP3 DUP2 MLOAD DUP2 LT PUSH2 0x1991 JUMPI PUSH2 0x1990 PUSH2 0x349A JUMP JUMPDEST JUMPDEST PUSH1 0x20 MUL PUSH1 0x20 ADD ADD DUP2 DUP2 MSTORE POP POP DUP1 DUP1 PUSH1 0x1 ADD SWAP2 POP POP PUSH2 0x195B JUMP JUMPDEST POP DUP1 SWAP4 POP POP POP POP SWAP2 SWAP1 POP JUMP JUMPDEST PUSH2 0x19BE PUSH2 0x2597 JUMP JUMPDEST PUSH0 PUSH1 0x6 PUSH0 DUP5 PUSH20 0xFFFFFFFFFFFFFFFFFFFFFFFFFFFFFFFFFFFFFFFF AND PUSH20 0xFFFFFFFFFFFFFFFFFFFFFFFFFFFFFFFFFFFFFFFF AND DUP2 MSTORE PUSH1 0x20 ADD SWAP1 DUP2 MSTORE PUSH1 0x20 ADD PUSH0 KECCAK256 SLOAD SWAP1 POP PUSH0 DUP2 EQ PUSH2 0x1AC9 JUMPI PUSH1 0x5 PUSH0 DUP3 DUP2 MSTORE PUSH1 0x20 ADD SWAP1 DUP2 MSTORE PUSH1 0x20 ADD PUSH0 KECCAK256 PUSH1 0x40 MLOAD DUP1 PUSH1 0x80 ADD PUSH1 0x40 MSTORE SWAP1 DUP2 PUSH0 DUP3 ADD SLOAD DUP2 MSTORE PUSH1 0x20 ADD PUSH1 0x1 DUP3 ADD PUSH0 SWAP1 SLOAD SWAP1 PUSH2 0x100 EXP SWAP1 DIV PUSH20 0xFFFFFFFFFFFFFFFFFFFFFFFFFFFFFFFFFFFFFFFF AND PUSH20 0xFFFFFFFFFFFFFFFFFFFFFFFFFFFFFFFFFFFFFFFF AND PUSH20 0xFFFFFFFFFFFFFFFFFFFFFFFFFFFFFFFFFFFFFFFF AND DUP2 MSTORE PUSH1 0x20 ADD PUSH1 0x2 DUP3 ADD SLOAD DUP2 MSTORE PUSH1 0x20 ADD PUSH1 0x3 DUP3 ADD PUSH0 SWAP1 SLOAD SWAP1 PUSH2 0x100 EXP SWAP1 DIV PUSH1 0xFF AND PUSH1 0x3 DUP2 GT ISZERO PUSH2 0x1AAE JUMPI PUSH2 0x1AAD PUSH2 0x289F JUMP JUMPDEST JUMPDEST PUSH1 0x3 DUP2 GT ISZERO PUSH2 0x1AC0 JUMPI PUSH2 0x1ABF PUSH2 0x289F JUMP JUMPDEST JUMPDEST DUP2 MSTORE POP POP PUSH2 0x1B14 JUMP JUMPDEST PUSH1 0x40 MLOAD DUP1 PUSH1 0x80 ADD PUSH1 0x40 MSTORE DUP1 PUSH0 DUP2 MSTORE PUSH1 0x20 ADD PUSH0 PUSH20 0xFFFFFFFFFFFFFFFFFFFFFFFFFFFFFFFFFFFFFFFF AND DUP2 MSTORE PUSH1 0x20 ADD PUSH0 DUP2 MSTORE PUSH1 0x20 ADD PUSH1 0x2 PUSH1 0x3 DUP2 GT ISZERO PUSH2 0x1B10 JUMPI PUSH2 0x1B0F PUSH2 0x289F JUMP JUMPDEST JUMPDEST DUP2 MSTORE POP JUMPDEST SWAP2 POP POP SWAP2 SWAP1 POP JUMP JUMPDEST PUSH0 SLOAD DUP2 JUMP JUMPDEST PUSH32 0x0 PUSH20 0xFFFFFFFFFFFFFFFFFFFFFFFFFFFFFFFFFFFFFFFF AND CALLER PUSH20 0xFFFFFFFFFFFFFFFFFFFFFFFFFFFFFFFFFFFFFFFF AND EQ PUSH2 0x1BAF JUMPI PUSH1 0x40 MLOAD PUSH32 0x8C379A000000000000000000000000000000000000000000000000000000000 DUP2 MSTORE PUSH1 0x4 ADD PUSH2 0x1BA6 SWAP1 PUSH2 0x3608 JUMP JUMPDEST PUSH1 0x40 MLOAD DUP1 SWAP2 SUB SWAP1 REVERT JUMPDEST PUSH0 PUSH1 0x6 PUSH0 DUP5 PUSH20 0xFFFFFFFFFFFFFFFFFFFFFFFFFFFFFFFFFFFFFFFF AND PUSH20 0xFFFFFFFFFFFFFFFFFFFFFFFFFFFFFFFFFFFFFFFF AND DUP2 MSTORE PUSH1 0x20 ADD SWAP1 DUP2 MSTORE PUSH1 0x20 ADD PUSH0 KECCAK256 SLOAD SWAP1 POP PUSH0 DUP2 SUB PUSH2 0x1C32 JUMPI PUSH1 0x40 MLOAD PUSH32 0x8C379A000000000000000000000000000000000000000000000000000000000 DUP2 MSTORE PUSH1 0x4 ADD PUSH2 0x1C29 SWAP1 PUSH2 0x3670 JUMP JUMPDEST PUSH1 0x40 MLOAD DUP1 SWAP2 SUB SWAP1 REVERT JUMPDEST DUP2 PUSH1 0x5 PUSH0 DUP4 DUP2 MSTORE PUSH1 0x20 ADD SWAP1 DUP2 MSTORE PUSH1 0x20 ADD PUSH0 KECCAK256 PUSH1 0x3 ADD PUSH0 PUSH2 0x100 EXP DUP2 SLOAD DUP2 PUSH1 0xFF MUL NOT AND SWAP1 DUP4 PUSH1 0x3 DUP2 GT ISZERO PUSH2 0x1C68 JUMPI PUSH2 0x1C67 PUSH2 0x289F JUMP JUMPDEST JUMPDEST MUL OR SWAP1 SSTORE POP DUP3 PUSH20 0xFFFFFFFFFFFFFFFFFFFFFFFFFFFFFFFFFFFFFFFF AND PUSH32 0xB3B609C7A5E504A312603E90D906D1667FD5CAFF0A840AD07BF5709A3CA1A045 DUP4 PUSH1 0x40 MLOAD PUSH2 0x1CB3 SWAP2 SWAP1 PUSH2 0x3548 JUMP JUMPDEST PUSH1 0x40 MLOAD DUP1 SWAP2 SUB SWAP1 LOG2 POP POP POP JUMP JUMPDEST PUSH1 0x4 PUSH1 0x20 MSTORE DUP1 PUSH0 MSTORE PUSH1 0x40 PUSH0 KECCAK256 PUSH0 SWAP2 POP SWAP1 POP DUP1 PUSH0 ADD SLOAD SWAP1 DUP1 PUSH1 0x1 ADD PUSH0 SWAP1 SLOAD SWAP1 PUSH2 0x100 EXP SWAP1 DIV PUSH20 0xFFFFFFFFFFFFFFFFFFFFFFFFFFFFFFFFFFFFFFFF AND SWAP1 DUP1 PUSH1 0x2 ADD PUSH0 SWAP1 SLOAD SWAP1 PUSH2 0x100 EXP SWAP1 DIV PUSH20 0xFFFFFFFFFFFFFFFFFFFFFFFFFFFFFFFFFFFFFFFF AND SWAP1 DUP1 PUSH1 0x3 ADD SLOAD SWAP1 DUP1 PUSH1 0x4 ADD SLOAD SWAP1 DUP1 PUSH1 0x5 ADD SLOAD SWAP1 DUP1 PUSH1 0x6 ADD PUSH0 SWAP1 SLOAD SWAP1 PUSH2 0x100 EXP SWAP1 DIV PUSH1 0xFF AND SWAP1 POP DUP8 JUMP JUMPDEST PUSH1 0x2 SLOAD DUP2 JUMP JUMPDEST PUSH1 0x6 PUSH1 0x20 MSTORE DUP1 PUSH0 MSTORE PUSH1 0x40 PUSH0 KECCAK256 PUSH0 SWAP2 POP SWAP1 POP SLOAD DUP2 JUMP JUMPDEST PUSH1 0x1 SLOAD DUP2 JUMP JUMPDEST PUSH2 0x1D71 PUSH2 0x25E3 JUMP JUMPDEST PUSH1 0x4 PUSH0 DUP4 DUP2 MSTORE PUSH1 0x20 ADD SWAP1 DUP2 MSTORE PUSH1 0x20 ADD PUSH0 KECCAK256 PUSH1 0x40 MLOAD DUP1 PUSH1 0xE0 ADD PUSH1 0x40 MSTORE SWAP1 DUP2 PUSH0 DUP3 ADD SLOAD DUP2 MSTORE PUSH1 0x20 ADD PUSH1 0x1 DUP3 ADD PUSH0 SWAP1 SLOAD SWAP1 PUSH2 0x100 EXP SWAP1 DIV PUSH20 0xFFFFFFFFFFFFFFFFFFFFFFFFFFFFFFFFFFFFFFFF AND PUSH20 0xFFFFFFFFFFFFFFFFFFFFFFFFFFFFFFFFFFFFFFFF AND PUSH20 0xFFFFFFFFFFFFFFFFFFFFFFFFFFFFFFFFFFFFFFFF AND DUP2 MSTORE PUSH1 0x20 ADD PUSH1 0x2 DUP3 ADD PUSH0 SWAP1 SLOAD SWAP1 PUSH2 0x100 EXP SWAP1 DIV PUSH20 0xFFFFFFFFFFFFFFFFFFFFFFFFFFFFFFFFFFFFFFFF AND PUSH20 0xFFFFFFFFFFFFFFFFFFFFFFFFFFFFFFFFFFFFFFFF AND PUSH20 0xFFFFFFFFFFFFFFFFFFFFFFFFFFFFFFFFFFFFFFFF AND DUP2 MSTORE PUSH1 0x20 ADD PUSH1 0x3 DUP3 ADD SLOAD DUP2 MSTORE PUSH1 0x20 ADD PUSH1 0x4 DUP3 ADD SLOAD DUP2 MSTORE PUSH1 0x20 ADD PUSH1 0x5 DUP3 ADD SLOAD DUP2 MSTORE PUSH1 0x20 ADD PUSH1 0x6 DUP3 ADD PUSH0 SWAP1 SLOAD SWAP1 PUSH2 0x100 EXP SWAP1 DIV PUSH1 0xFF AND PUSH1 0x2 DUP2 GT ISZERO PUSH2 0x1E82 JUMPI PUSH2 0x1E81 PUSH2 0x289F JUMP JUMPDEST JUMPDEST PUSH1 0x2 DUP2 GT ISZERO PUSH2 0x1E94 JUMPI PUSH2 0x1E93 PUSH2 0x289F JUMP JUMPDEST JUMPDEST DUP2 MSTORE POP POP SWAP1 POP SWAP2 SWAP1 POP JUMP JUMPDEST PUSH0 PUSH1 0x6 PUSH0 CALLER PUSH20 0xFFFFFFFFFFFFFFFFFFFFFFFFFFFFFFFFFFFFFFFF AND PUSH20 0xFFFFFFFFFFFFFFFFFFFFFFFFFFFFFFFFFFFFFFFF AND DUP2 MSTORE PUSH1 0x20 ADD SWAP1 DUP2 MSTORE PUSH1 0x20 ADD PUSH0 KECCAK256 SLOAD SWAP1 POP PUSH0 DUP2 EQ ISZERO DUP1 ISZERO PUSH2 0x1F34 JUMPI POP PUSH1 0x1 PUSH1 0x3 DUP2 GT ISZERO PUSH2 0x1EFF JUMPI PUSH2 0x1EFE PUSH2 0x289F JUMP JUMPDEST JUMPDEST PUSH1 0x5 PUSH0 DUP4 DUP2 MSTORE PUSH1 0x20 ADD SWAP1 DUP2 MSTORE PUSH1 0x20 ADD PUSH0 KECCAK256 PUSH1 0x3 ADD PUSH0 SWAP1 SLOAD SWAP1 PUSH2 0x100 EXP SWAP1 DIV PUSH1 0xFF AND PUSH1 0x3 DUP2 GT ISZERO PUSH2 0x1F32 JUMPI PUSH2 0x1F31 PUSH2 0x289F JUMP JUMPDEST JUMPDEST EQ JUMPDEST PUSH2 0x1F73 JUMPI PUSH1 0x40 MLOAD PUSH32 0x8C379A000000000000000000000000000000000000000000000000000000000 DUP2 MSTORE PUSH1 0x4 ADD PUSH2 0x1F6A SWAP1 PUSH2 0x2F3E JUMP JUMPDEST PUSH1 0x40 MLOAD DUP1 SWAP2 SUB SWAP1 REVERT JUMPDEST PUSH0 DUP8 DUP8 SWAP1 POP GT PUSH2 0x1FB8 JUMPI PUSH1 0x40 MLOAD PUSH32 0x8C379A000000000000000000000000000000000000000000000000000000000 DUP2 MSTORE PUSH1 0x4 ADD PUSH2 0x1FAF SWAP1 PUSH2 0x36D8 JUMP JUMPDEST PUSH1 0x40 MLOAD DUP1 SWAP2 SUB SWAP1 REVERT JUMPDEST PUSH0 PUSH0 PUSH0 DUP2 SLOAD DUP1 SWAP3 SWAP2 SWAP1 PUSH2 0x1FCA SWAP1 PUSH2 0x32C7 JUMP JUMPDEST SWAP2 SWAP1 POP SSTORE SWAP1 POP PUSH0 PUSH1 0x3 PUSH0 DUP4 DUP2 MSTORE PUSH1 0x20 ADD SWAP1 DUP2 MSTORE PUSH1 0x20 ADD PUSH0 KECCAK256 SWAP1 POP DUP2 DUP2 PUSH0 ADD DUP2 SWAP1 SSTORE POP CALLER DUP2 PUSH1 0x1 ADD PUSH0 PUSH2 0x100 EXP DUP2 SLOAD DUP2 PUSH20 0xFFFFFFFFFFFFFFFFFFFFFFFFFFFFFFFFFFFFFFFF MUL NOT AND SWAP1 DUP4 PUSH20 0xFFFFFFFFFFFFFFFFFFFFFFFFFFFFFFFFFFFFFFFF AND MUL OR SWAP1 SSTORE POP DUP9 DUP9 DUP3 PUSH1 0x2 ADD SWAP2 DUP3 PUSH2 0x2041 SWAP3 SWAP2 SWAP1 PUSH2 0x38A0 JUMP JUMPDEST POP DUP7 DUP2 PUSH1 0x3 ADD DUP2 SWAP1 SSTORE POP DUP6 DUP6 DUP3 PUSH1 0x4 ADD SWAP2 DUP3 PUSH2 0x205E SWAP3 SWAP2 SWAP1 PUSH2 0x38A0 JUMP JUMPDEST POP DUP4 DUP2 PUSH1 0x5 ADD DUP2 SWAP1 SSTORE POP TIMESTAMP DUP2 PUSH1 0x6 ADD DUP2 SWAP1 SSTORE POP DUP7 DUP2 PUSH1 0x7 ADD PUSH0 CALLER PUSH20 0xFFFFFFFFFFFFFFFFFFFFFFFFFFFFFFFFFFFFFFFF AND PUSH20 0xFFFFFFFFFFFFFFFFFFFFFFFFFFFFFFFFFFFFFFFF AND DUP2 MSTORE PUSH1 0x20 ADD SWAP1 DUP2 MSTORE PUSH1 0x20 ADD PUSH0 KECCAK256 DUP2 SWAP1 SSTORE POP CALLER PUSH20 0xFFFFFFFFFFFFFFFFFFFFFFFFFFFFFFFFFFFFFFFF AND DUP3 PUSH32 0x463EC2A62C46678A81E23CDE640446CA4B512F102BB3309CF5A3E2A4AE831464 DUP12 DUP12 DUP12 PUSH1 0x40 MLOAD PUSH2 0x2100 SWAP4 SWAP3 SWAP2 SWAP1 PUSH2 0x39A7 JUMP JUMPDEST PUSH1 0x40 MLOAD DUP1 SWAP2 SUB SWAP1 LOG3 POP POP POP POP POP POP POP POP POP JUMP JUMPDEST PUSH0 PUSH0 PUSH1 0x60 PUSH0 PUSH1 0x60 PUSH0 PUSH0 PUSH0 PUSH0 PUSH1 0x3 PUSH0 DUP12 DUP2 MSTORE PUSH1 0x20 ADD SWAP1 DUP2 MSTORE PUSH1 0x20 ADD PUSH0 KECCAK256 SWAP1 POP DUP1 PUSH0 ADD SLOAD DUP2 PUSH1 0x1 ADD PUSH0 SWAP1 SLOAD SWAP1 PUSH2 0x100 EXP SWAP1 DIV PUSH20 0xFFFFFFFFFFFFFFFFFFFFFFFFFFFFFFFFFFFFFFFF AND DUP3 PUSH1 0x2 ADD DUP4 PUSH1 0x3 ADD SLOAD DUP5 PUSH1 0x4 ADD DUP6 PUSH1 0x5 ADD SLOAD DUP7 PUSH1 0x6 ADD SLOAD DUP8 PUSH1 0x7 ADD PUSH0 CALLER PUSH20 0xFFFFFFFFFFFFFFFFFFFFFFFFFFFFFFFFFFFFFFFF AND PUSH20 0xFFFFFFFFFFFFFFFFFFFFFFFFFFFFFFFFFFFFFFFF AND DUP2 MSTORE PUSH1 0x20 ADD SWAP1 DUP2 MSTORE PUSH1 0x20 ADD PUSH0 KECCAK256 SLOAD DUP6 DUP1 SLOAD PUSH2 0x21BC SWAP1 PUSH2 0x358E JUMP JUMPDEST DUP1 PUSH1 0x1F ADD PUSH1 0x20 DUP1 SWAP2 DIV MUL PUSH1 0x20 ADD PUSH1 0x40 MLOAD SWAP1 DUP2 ADD PUSH1 0x40 MSTORE DUP1 SWAP3 SWAP2 SWAP1 DUP2 DUP2 MSTORE PUSH1 0x20 ADD DUP3 DUP1 SLOAD PUSH2 0x21E8 SWAP1 PUSH2 0x358E JUMP JUMPDEST DUP1 ISZERO PUSH2 0x2233 JUMPI DUP1 PUSH1 0x1F LT PUSH2 0x220A JUMPI PUSH2 0x100 DUP1 DUP4 SLOAD DIV MUL DUP4 MSTORE SWAP2 PUSH1 0x20 ADD SWAP2 PUSH2 0x2233 JUMP JUMPDEST DUP3 ADD SWAP2 SWAP1 PUSH0 MSTORE PUSH1 0x20 PUSH0 KECCAK256 SWAP1 JUMPDEST DUP2 SLOAD DUP2 MSTORE SWAP1 PUSH1 0x1 ADD SWAP1 PUSH1 0x20 ADD DUP1 DUP4 GT PUSH2 0x2216 JUMPI DUP3 SWAP1 SUB PUSH1 0x1F AND DUP3 ADD SWAP2 JUMPDEST POP POP POP POP POP SWAP6 POP DUP4 DUP1 SLOAD PUSH2 0x2246 SWAP1 PUSH2 0x358E JUMP JUMPDEST DUP1 PUSH1 0x1F ADD PUSH1 0x20 DUP1 SWAP2 DIV MUL PUSH1 0x20 ADD PUSH1 0x40 MLOAD SWAP1 DUP2 ADD PUSH1 0x40 MSTORE DUP1 SWAP3 SWAP2 SWAP1 DUP2 DUP2 MSTORE PUSH1 0x20 ADD DUP3 DUP1 SLOAD PUSH2 0x2272 SWAP1 PUSH2 0x358E JUMP JUMPDEST DUP1 ISZERO PUSH2 0x22BD JUMPI DUP1 PUSH1 0x1F LT PUSH2 0x2294 JUMPI PUSH2 0x100 DUP1 DUP4 SLOAD DIV MUL DUP4 MSTORE SWAP2 PUSH1 0x20 ADD SWAP2 PUSH2 0x22BD JUMP JUMPDEST DUP3 ADD SWAP2 SWAP1 PUSH0 MSTORE PUSH1 0x20 PUSH0 KECCAK256 SWAP1 JUMPDEST DUP2 SLOAD DUP2 MSTORE SWAP1 PUSH1 0x1 ADD SWAP1 PUSH1 0x20 ADD DUP1 DUP4 GT PUSH2 0x22A0 JUMPI DUP3 SWAP1 SUB PUSH1 0x1F AND DUP3 ADD SWAP2 JUMPDEST POP POP POP POP POP SWAP4 POP SWAP9 POP SWAP9 POP SWAP9 POP SWAP9 POP SWAP9 POP SWAP9 POP SWAP9 POP SWAP9 POP POP SWAP2 SWAP4 SWAP6 SWAP8 POP SWAP2 SWAP4 SWAP6 SWAP8 JUMP JUMPDEST PUSH0 PUSH0 SLOAD DUP4 LT PUSH2 0x2324 JUMPI PUSH1 0x40 MLOAD PUSH32 0x8C379A000000000000000000000000000000000000000000000000000000000 DUP2 MSTORE PUSH1 0x4 ADD PUSH2 0x231B SWAP1 PUSH2 0x3076 JUMP JUMPDEST PUSH1 0x40 MLOAD DUP1 SWAP2 SUB SWAP1 REVERT JUMPDEST PUSH1 0x3 PUSH0 DUP5 DUP2 MSTORE PUSH1 0x20 ADD SWAP1 DUP2 MSTORE PUSH1 0x20 ADD PUSH0 KECCAK256 PUSH1 0x7 ADD PUSH0 DUP4 PUSH20 0xFFFFFFFFFFFFFFFFFFFFFFFFFFFFFFFFFFFFFFFF AND PUSH20 0xFFFFFFFFFFFFFFFFFFFFFFFFFFFFFFFFFFFFFFFF AND DUP2 MSTORE PUSH1 0x20 ADD SWAP1 DUP2 MSTORE PUSH1 0x20 ADD PUSH0 KECCAK256 SLOAD SWAP1 POP SWAP3 SWAP2 POP POP JUMP JUMPDEST PUSH32 0x0 DUP2 JUMP JUMPDEST PUSH2 0x23A8 PUSH2 0x2508 JUMP JUMPDEST PUSH1 0x2 PUSH2 0x23BA PUSH2 0x23B5 PUSH2 0x2549 JUMP JUMPDEST PUSH2 0x2572 JUMP JUMPDEST PUSH0 ADD DUP2 SWAP1 SSTORE POP JUMP JUMPDEST PUSH0 PUSH32 0xC0878B4B16A78E8085CBA0CA02FC0924F1492924058D153153A3F286E0FD70FF DUP3 EQ SWAP1 POP SWAP2 SWAP1 POP JUMP JUMPDEST PUSH0 PUSH32 0x95329F0F598032755F454B63034035528A2F09E00BB3DDE055A4F8E3F7B11683 DUP4 EQ DUP1 ISZERO PUSH2 0x243C JUMPI POP PUSH32 0x992F90FFB92C5AD86F1DF6829115F18AAEA41D6094DADC8955C35086081A7BB9 DUP3 EQ JUMPDEST DUP1 PUSH2 0x2491 JUMPI POP PUSH32 0x992F90FFB92C5AD86F1DF6829115F18AAEA41D6094DADC8955C35086081A7BB9 DUP4 EQ DUP1 ISZERO PUSH2 0x2490 JUMPI POP PUSH32 0x1534E98F9DD33E3681193A0541F0C2E3D732D183DCDC630AAC2B943280AF42A0 DUP3 EQ JUMPDEST JUMPDEST DUP1 PUSH2 0x24E6 JUMPI POP PUSH32 0x1534E98F9DD33E3681193A0541F0C2E3D732D183DCDC630AAC2B943280AF42A0 DUP4 EQ DUP1 ISZERO PUSH2 0x24E5 JUMPI POP PUSH32 0xC0878B4B16A78E8085CBA0CA02FC0924F1492924058D153153A3F286E0FD70FF DUP3 EQ JUMPDEST JUMPDEST SWAP1 POP SWAP3 SWAP2 POP POP JUMP JUMPDEST PUSH1 0x1 PUSH2 0x2500 PUSH2 0x24FB PUSH2 0x2549 JUMP JUMPDEST PUSH2 0x2572 JUMP JUMPDEST PUSH0 ADD DUP2 SWAP1 SSTORE POP JUMP JUMPDEST PUSH2 0x2510 PUSH2 0x257B JUMP JUMPDEST ISZERO PUSH2 0x2547 JUMPI PUSH1 0x40 MLOAD PUSH32 0x3EE5AEB500000000000000000000000000000000000000000000000000000000 DUP2 MSTORE PUSH1 0x4 ADD PUSH1 0x40 MLOAD DUP1 SWAP2 SUB SWAP1 REVERT JUMPDEST JUMP JUMPDEST PUSH0 PUSH32 0x9B779B17422D0DF92223018B32B4D1FA46E071723D6817E2486D003BECC55F00 PUSH0 SHL SWAP1 POP SWAP1 JUMP JUMPDEST PUSH0 DUP2 SWAP1 POP SWAP2 SWAP1 POP JUMP JUMPDEST PUSH0 PUSH1 0x2 PUSH2 0x258E PUSH2 0x2589 PUSH2 0x2549 JUMP JUMPDEST PUSH2 0x2572 JUMP JUMPDEST PUSH0 ADD SLOAD EQ SWAP1 POP SWAP1 JUMP JUMPDEST PUSH1 0x40 MLOAD DUP1 PUSH1 0x80 ADD PUSH1 0x40 MSTORE DUP1 PUSH0 DUP2 MSTORE PUSH1 0x20 ADD PUSH0 PUSH20 0xFFFFFFFFFFFFFFFFFFFFFFFFFFFFFFFFFFFFFFFF AND DUP2 MSTORE PUSH1 0x20 ADD PUSH0 DUP2 MSTORE PUSH1 0x20 ADD PUSH0 PUSH1 0x3 DUP2 GT ISZERO PUSH2 0x25DD JUMPI PUSH2 0x25DC PUSH2 0x289F JUMP JUMPDEST JUMPDEST DUP2 MSTORE POP SWAP1 JUMP JUMPDEST PUSH1 0x40 MLOAD DUP1 PUSH1 0xE0 ADD PUSH1 0x40 MSTORE DUP1 PUSH0 DUP2 MSTORE PUSH1 0x20 ADD PUSH0 PUSH20 0xFFFFFFFFFFFFFFFFFFFFFFFFFFFFFFFFFFFFFFFF AND DUP2 MSTORE PUSH1 0x20 ADD PUSH0 PUSH20 0xFFFFFFFFFFFFFFFFFFFFFFFFFFFFFFFFFFFFFFFF AND DUP2 MSTORE PUSH1 0x20 ADD PUSH0 DUP2 MSTORE PUSH1 0x20 ADD PUSH0 DUP2 MSTORE PUSH1 0x20 ADD PUSH0 DUP2 MSTORE PUSH1 0x20 ADD PUSH0 PUSH1 0x2 DUP2 GT ISZERO PUSH2 0x2651 JUMPI PUSH2 0x2650 PUSH2 0x289F JUMP JUMPDEST JUMPDEST DUP2 MSTORE POP SWAP1 JUMP JUMPDEST PUSH0 PUSH0 REVERT JUMPDEST PUSH0 PUSH0 REVERT JUMPDEST PUSH0 PUSH20 0xFFFFFFFFFFFFFFFFFFFFFFFFFFFFFFFFFFFFFFFF DUP3 AND SWAP1 POP SWAP2 SWAP1 POP JUMP JUMPDEST PUSH0 PUSH2 0x2688 DUP3 PUSH2 0x265F JUMP JUMPDEST SWAP1 POP SWAP2 SWAP1 POP JUMP JUMPDEST PUSH2 0x2698 DUP2 PUSH2 0x267E JUMP JUMPDEST DUP2 EQ PUSH2 0x26A2 JUMPI PUSH0 PUSH0 REVERT JUMPDEST POP JUMP JUMPDEST PUSH0 DUP2 CALLDATALOAD SWAP1 POP PUSH2 0x26B3 DUP2 PUSH2 0x268F JUMP JUMPDEST SWAP3 SWAP2 POP POP JUMP JUMPDEST PUSH0 DUP2 SWAP1 POP SWAP2 SWAP1 POP JUMP JUMPDEST PUSH2 0x26CB DUP2 PUSH2 0x26B9 JUMP JUMPDEST DUP2 EQ PUSH2 0x26D5 JUMPI PUSH0 PUSH0 REVERT JUMPDEST POP JUMP JUMPDEST PUSH0 DUP2 CALLDATALOAD SWAP1 POP PUSH2 0x26E6 DUP2 PUSH2 0x26C2 JUMP JUMPDEST SWAP3 SWAP2 POP POP JUMP JUMPDEST PUSH0 PUSH0 PUSH0 PUSH1 0x60 DUP5 DUP7 SUB SLT ISZERO PUSH2 0x2703 JUMPI PUSH2 0x2702 PUSH2 0x2657 JUMP JUMPDEST JUMPDEST PUSH0 PUSH2 0x2710 DUP7 DUP3 DUP8 ADD PUSH2 0x26A5 JUMP JUMPDEST SWAP4 POP POP PUSH1 0x20 PUSH2 0x2721 DUP7 DUP3 DUP8 ADD PUSH2 0x26D8 JUMP JUMPDEST SWAP3 POP POP PUSH1 0x40 PUSH2 0x2732 DUP7 DUP3 DUP8 ADD PUSH2 0x26D8 JUMP JUMPDEST SWAP2 POP POP SWAP3 POP SWAP3 POP SWAP3 JUMP JUMPDEST PUSH0 PUSH1 0x20 DUP3 DUP5 SUB SLT ISZERO PUSH2 0x2751 JUMPI PUSH2 0x2750 PUSH2 0x2657 JUMP JUMPDEST JUMPDEST PUSH0 PUSH2 0x275E DUP5 DUP3 DUP6 ADD PUSH2 0x26D8 JUMP JUMPDEST SWAP2 POP POP SWAP3 SWAP2 POP POP JUMP JUMPDEST PUSH0 PUSH1 0x20 DUP3 DUP5 SUB SLT ISZERO PUSH2 0x277C JUMPI PUSH2 0x277B PUSH2 0x2657 JUMP JUMPDEST JUMPDEST PUSH0 PUSH2 0x2789 DUP5 DUP3 DUP6 ADD PUSH2 0x26A5 JUMP JUMPDEST SWAP2 POP POP SWAP3 SWAP2 POP POP JUMP JUMPDEST PUSH0 DUP2 MLOAD SWAP1 POP SWAP2 SWAP1 POP JUMP JUMPDEST PUSH0 DUP3 DUP3 MSTORE PUSH1 0x20 DUP3 ADD SWAP1 POP SWAP3 SWAP2 POP POP JUMP JUMPDEST PUSH0 DUP2 SWAP1 POP PUSH1 0x20 DUP3 ADD SWAP1 POP SWAP2 SWAP1 POP JUMP JUMPDEST PUSH2 0x27C4 DUP2 PUSH2 0x26B9 JUMP JUMPDEST DUP3 MSTORE POP POP JUMP JUMPDEST PUSH0 PUSH2 0x27D5 DUP4 DUP4 PUSH2 0x27BB JUMP JUMPDEST PUSH1 0x20 DUP4 ADD SWAP1 POP SWAP3 SWAP2 POP POP JUMP JUMPDEST PUSH0 PUSH1 0x20 DUP3 ADD SWAP1 POP SWAP2 SWAP1 POP JUMP JUMPDEST PUSH0 PUSH2 0x27F7 DUP3 PUSH2 0x2792 JUMP JUMPDEST PUSH2 0x2801 DUP2 DUP6 PUSH2 0x279C JUMP JUMPDEST SWAP4 POP PUSH2 0x280C DUP4 PUSH2 0x27AC JUMP JUMPDEST DUP1 PUSH0 JUMPDEST DUP4 DUP2 LT ISZERO PUSH2 0x283C JUMPI DUP2 MLOAD PUSH2 0x2823 DUP9 DUP3 PUSH2 0x27CA JUMP JUMPDEST SWAP8 POP PUSH2 0x282E DUP4 PUSH2 0x27E1 JUMP JUMPDEST SWAP3 POP POP PUSH1 0x1 DUP2 ADD SWAP1 POP PUSH2 0x280F JUMP JUMPDEST POP DUP6 SWAP4 POP POP POP POP SWAP3 SWAP2 POP POP JUMP JUMPDEST PUSH0 PUSH1 0x20 DUP3 ADD SWAP1 POP DUP2 DUP2 SUB PUSH0 DUP4 ADD MSTORE PUSH2 0x2861 DUP2 DUP5 PUSH2 0x27ED JUMP JUMPDEST SWAP1 POP SWAP3 SWAP2 POP POP JUMP JUMPDEST PUSH2 0x2872 DUP2 PUSH2 0x26B9 JUMP JUMPDEST DUP3 MSTORE POP POP JUMP JUMPDEST PUSH2 0x2881 DUP2 PUSH2 0x267E JUMP JUMPDEST DUP3 MSTORE POP POP JUMP JUMPDEST PUSH0 DUP2 SWAP1 POP SWAP2 SWAP1 POP JUMP JUMPDEST PUSH2 0x2899 DUP2 PUSH2 0x2887 JUMP JUMPDEST DUP3 MSTORE POP POP JUMP JUMPDEST PUSH32 0x4E487B7100000000000000000000000000000000000000000000000000000000 PUSH0 MSTORE PUSH1 0x21 PUSH1 0x4 MSTORE PUSH1 0x24 PUSH0 REVERT JUMPDEST PUSH1 0x4 DUP2 LT PUSH2 0x28DD JUMPI PUSH2 0x28DC PUSH2 0x289F JUMP JUMPDEST JUMPDEST POP JUMP JUMPDEST PUSH0 DUP2 SWAP1 POP PUSH2 0x28ED DUP3 PUSH2 0x28CC JUMP JUMPDEST SWAP2 SWAP1 POP JUMP JUMPDEST PUSH0 PUSH2 0x28FC DUP3 PUSH2 0x28E0 JUMP JUMPDEST SWAP1 POP SWAP2 SWAP1 POP JUMP JUMPDEST PUSH2 0x290C DUP2 PUSH2 0x28F2 JUMP JUMPDEST DUP3 MSTORE POP POP JUMP JUMPDEST PUSH0 PUSH1 0x80 DUP3 ADD SWAP1 POP PUSH2 0x2925 PUSH0 DUP4 ADD DUP8 PUSH2 0x2869 JUMP JUMPDEST PUSH2 0x2932 PUSH1 0x20 DUP4 ADD DUP7 PUSH2 0x2878 JUMP JUMPDEST PUSH2 0x293F PUSH1 0x40 DUP4 ADD DUP6 PUSH2 0x2890 JUMP JUMPDEST PUSH2 0x294C PUSH1 0x60 DUP4 ADD DUP5 PUSH2 0x2903 JUMP JUMPDEST SWAP6 SWAP5 POP POP POP POP POP JUMP JUMPDEST PUSH2 0x295E DUP2 PUSH2 0x2887 JUMP JUMPDEST DUP2 EQ PUSH2 0x2968 JUMPI PUSH0 PUSH0 REVERT JUMPDEST POP JUMP JUMPDEST PUSH0 DUP2 CALLDATALOAD SWAP1 POP PUSH2 0x2979 DUP2 PUSH2 0x2955 JUMP JUMPDEST SWAP3 SWAP2 POP POP JUMP JUMPDEST PUSH0 PUSH1 0x20 DUP3 DUP5 SUB SLT ISZERO PUSH2 0x2994 JUMPI PUSH2 0x2993 PUSH2 0x2657 JUMP JUMPDEST JUMPDEST PUSH0 PUSH2 0x29A1 DUP5 DUP3 DUP6 ADD PUSH2 0x296B JUMP JUMPDEST SWAP2 POP POP SWAP3 SWAP2 POP POP JUMP JUMPDEST PUSH0 DUP2 MLOAD SWAP1 POP SWAP2 SWAP1 POP JUMP JUMPDEST PUSH0 DUP3 DUP3 MSTORE PUSH1 0x20 DUP3 ADD SWAP1 POP SWAP3 SWAP2 POP POP JUMP JUMPDEST DUP3 DUP2 DUP4 MCOPY PUSH0 DUP4 DUP4 ADD MSTORE POP POP POP JUMP JUMPDEST PUSH0 PUSH1 0x1F NOT PUSH1 0x1F DUP4 ADD AND SWAP1 POP SWAP2 SWAP1 POP JUMP JUMPDEST PUSH0 PUSH2 0x29EC DUP3 PUSH2 0x29AA JUMP JUMPDEST PUSH2 0x29F6 DUP2 DUP6 PUSH2 0x29B4 JUMP JUMPDEST SWAP4 POP PUSH2 0x2A06 DUP2 DUP6 PUSH1 0x20 DUP7 ADD PUSH2 0x29C4 JUMP JUMPDEST PUSH2 0x2A0F DUP2 PUSH2 0x29D2 JUMP JUMPDEST DUP5 ADD SWAP2 POP POP SWAP3 SWAP2 POP POP JUMP JUMPDEST PUSH0 PUSH1 0xE0 DUP3 ADD SWAP1 POP PUSH2 0x2A2D PUSH0 DUP4 ADD DUP11 PUSH2 0x2869 JUMP JUMPDEST PUSH2 0x2A3A PUSH1 0x20 DUP4 ADD DUP10 PUSH2 0x2878 JUMP JUMPDEST DUP2 DUP2 SUB PUSH1 0x40 DUP4 ADD MSTORE PUSH2 0x2A4C DUP2 DUP9 PUSH2 0x29E2 JUMP JUMPDEST SWAP1 POP PUSH2 0x2A5B PUSH1 0x60 DUP4 ADD DUP8 PUSH2 0x2869 JUMP JUMPDEST DUP2 DUP2 SUB PUSH1 0x80 DUP4 ADD MSTORE PUSH2 0x2A6D DUP2 DUP7 PUSH2 0x29E2 JUMP JUMPDEST SWAP1 POP PUSH2 0x2A7C PUSH1 0xA0 DUP4 ADD DUP6 PUSH2 0x2869 JUMP JUMPDEST PUSH2 0x2A89 PUSH1 0xC0 DUP4 ADD DUP5 PUSH2 0x2869 JUMP JUMPDEST SWAP9 SWAP8 POP POP POP POP POP POP POP POP JUMP JUMPDEST PUSH2 0x2A9E DUP2 PUSH2 0x267E JUMP JUMPDEST DUP3 MSTORE POP POP JUMP JUMPDEST PUSH2 0x2AAD DUP2 PUSH2 0x2887 JUMP JUMPDEST DUP3 MSTORE POP POP JUMP JUMPDEST PUSH2 0x2ABC DUP2 PUSH2 0x28F2 JUMP JUMPDEST DUP3 MSTORE POP POP JUMP JUMPDEST PUSH1 0x80 DUP3 ADD PUSH0 DUP3 ADD MLOAD PUSH2 0x2AD6 PUSH0 DUP6 ADD DUP3 PUSH2 0x27BB JUMP JUMPDEST POP PUSH1 0x20 DUP3 ADD MLOAD PUSH2 0x2AE9 PUSH1 0x20 DUP6 ADD DUP3 PUSH2 0x2A95 JUMP JUMPDEST POP PUSH1 0x40 DUP3 ADD MLOAD PUSH2 0x2AFC PUSH1 0x40 DUP6 ADD DUP3 PUSH2 0x2AA4 JUMP JUMPDEST POP PUSH1 0x60 DUP3 ADD MLOAD PUSH2 0x2B0F PUSH1 0x60 DUP6 ADD DUP3 PUSH2 0x2AB3 JUMP JUMPDEST POP POP POP POP JUMP JUMPDEST PUSH0 PUSH1 0x80 DUP3 ADD SWAP1 POP PUSH2 0x2B28 PUSH0 DUP4 ADD DUP5 PUSH2 0x2AC2 JUMP JUMPDEST SWAP3 SWAP2 POP POP JUMP JUMPDEST PUSH0 PUSH1 0x20 DUP3 ADD SWAP1 POP PUSH2 0x2B41 PUSH0 DUP4 ADD DUP5 PUSH2 0x2869 JUMP JUMPDEST SWAP3 SWAP2 POP POP JUMP JUMPDEST PUSH1 0x4 DUP2 LT PUSH2 0x2B53 JUMPI PUSH0 PUSH0 REVERT JUMPDEST POP JUMP JUMPDEST PUSH0 DUP2 CALLDATALOAD SWAP1 POP PUSH2 0x2B64 DUP2 PUSH2 0x2B47 JUMP JUMPDEST SWAP3 SWAP2 POP POP JUMP JUMPDEST PUSH0 PUSH0 PUSH1 0x40 DUP4 DUP6 SUB SLT ISZERO PUSH2 0x2B80 JUMPI PUSH2 0x2B7F PUSH2 0x2657 JUMP JUMPDEST JUMPDEST PUSH0 PUSH2 0x2B8D DUP6 DUP3 DUP7 ADD PUSH2 0x26A5 JUMP JUMPDEST SWAP3 POP POP PUSH1 0x20 PUSH2 0x2B9E DUP6 DUP3 DUP7 ADD PUSH2 0x2B56 JUMP JUMPDEST SWAP2 POP POP SWAP3 POP SWAP3 SWAP1 POP JUMP JUMPDEST PUSH1 0x3 DUP2 LT PUSH2 0x2BB9 JUMPI PUSH2 0x2BB8 PUSH2 0x289F JUMP JUMPDEST JUMPDEST POP JUMP JUMPDEST PUSH0 DUP2 SWAP1 POP PUSH2 0x2BC9 DUP3 PUSH2 0x2BA8 JUMP JUMPDEST SWAP2 SWAP1 POP JUMP JUMPDEST PUSH0 PUSH2 0x2BD8 DUP3 PUSH2 0x2BBC JUMP JUMPDEST SWAP1 POP SWAP2 SWAP1 POP JUMP JUMPDEST PUSH2 0x2BE8 DUP2 PUSH2 0x2BCE JUMP JUMPDEST DUP3 MSTORE POP POP JUMP JUMPDEST PUSH0 PUSH1 0xE0 DUP3 ADD SWAP1 POP PUSH2 0x2C01 PUSH0 DUP4 ADD DUP11 PUSH2 0x2869 JUMP JUMPDEST PUSH2 0x2C0E PUSH1 0x20 DUP4 ADD DUP10 PUSH2 0x2878 JUMP JUMPDEST PUSH2 0x2C1B PUSH1 0x40 DUP4 ADD DUP9 PUSH2 0x2878 JUMP JUMPDEST PUSH2 0x2C28 PUSH1 0x60 DUP4 ADD DUP8 PUSH2 0x2869 JUMP JUMPDEST PUSH2 0x2C35 PUSH1 0x80 DUP4 ADD DUP7 PUSH2 0x2869 JUMP JUMPDEST PUSH2 0x2C42 PUSH1 0xA0 DUP4 ADD DUP6 PUSH2 0x2869 JUMP JUMPDEST PUSH2 0x2C4F PUSH1 0xC0 DUP4 ADD DUP5 PUSH2 0x2BDF JUMP JUMPDEST SWAP9 SWAP8 POP POP POP POP POP POP POP POP JUMP JUMPDEST PUSH2 0x2C64 DUP2 PUSH2 0x2BCE JUMP JUMPDEST DUP3 MSTORE POP POP JUMP JUMPDEST PUSH1 0xE0 DUP3 ADD PUSH0 DUP3 ADD MLOAD PUSH2 0x2C7E PUSH0 DUP6 ADD DUP3 PUSH2 0x27BB JUMP JUMPDEST POP PUSH1 0x20 DUP3 ADD MLOAD PUSH2 0x2C91 PUSH1 0x20 DUP6 ADD DUP3 PUSH2 0x2A95 JUMP JUMPDEST POP PUSH1 0x40 DUP3 ADD MLOAD PUSH2 0x2CA4 PUSH1 0x40 DUP6 ADD DUP3 PUSH2 0x2A95 JUMP JUMPDEST POP PUSH1 0x60 DUP3 ADD MLOAD PUSH2 0x2CB7 PUSH1 0x60 DUP6 ADD DUP3 PUSH2 0x27BB JUMP JUMPDEST POP PUSH1 0x80 DUP3 ADD MLOAD PUSH2 0x2CCA PUSH1 0x80 DUP6 ADD DUP3 PUSH2 0x27BB JUMP JUMPDEST POP PUSH1 0xA0 DUP3 ADD MLOAD PUSH2 0x2CDD PUSH1 0xA0 DUP6 ADD DUP3 PUSH2 0x27BB JUMP JUMPDEST POP PUSH1 0xC0 DUP3 ADD MLOAD PUSH2 0x2CF0 PUSH1 0xC0 DUP6 ADD DUP3 PUSH2 0x2C5B JUMP JUMPDEST POP POP POP POP JUMP JUMPDEST PUSH0 PUSH1 0xE0 DUP3 ADD SWAP1 POP PUSH2 0x2D09 PUSH0 DUP4 ADD DUP5 PUSH2 0x2C6A JUMP JUMPDEST SWAP3 SWAP2 POP POP JUMP JUMPDEST PUSH0 PUSH0 REVERT JUMPDEST PUSH0 PUSH0 REVERT JUMPDEST PUSH0 PUSH0 REVERT JUMPDEST PUSH0 PUSH0 DUP4 PUSH1 0x1F DUP5 ADD SLT PUSH2 0x2D30 JUMPI PUSH2 0x2D2F PUSH2 0x2D0F JUMP JUMPDEST JUMPDEST DUP3 CALLDATALOAD SWAP1 POP PUSH8 0xFFFFFFFFFFFFFFFF DUP2 GT ISZERO PUSH2 0x2D4D JUMPI PUSH2 0x2D4C PUSH2 0x2D13 JUMP JUMPDEST JUMPDEST PUSH1 0x20 DUP4 ADD SWAP2 POP DUP4 PUSH1 0x1 DUP3 MUL DUP4 ADD GT ISZERO PUSH2 0x2D69 JUMPI PUSH2 0x2D68 PUSH2 0x2D17 JUMP JUMPDEST JUMPDEST SWAP3 POP SWAP3 SWAP1 POP JUMP JUMPDEST PUSH0 PUSH0 PUSH0 PUSH0 PUSH0 PUSH0 PUSH1 0x80 DUP8 DUP10 SUB SLT ISZERO PUSH2 0x2D8A JUMPI PUSH2 0x2D89 PUSH2 0x2657 JUMP JUMPDEST JUMPDEST PUSH0 DUP8 ADD CALLDATALOAD PUSH8 0xFFFFFFFFFFFFFFFF DUP2 GT ISZERO PUSH2 0x2DA7 JUMPI PUSH2 0x2DA6 PUSH2 0x265B JUMP JUMPDEST JUMPDEST PUSH2 0x2DB3 DUP10 DUP3 DUP11 ADD PUSH2 0x2D1B JUMP JUMPDEST SWAP7 POP SWAP7 POP POP PUSH1 0x20 PUSH2 0x2DC6 DUP10 DUP3 DUP11 ADD PUSH2 0x26D8 JUMP JUMPDEST SWAP5 POP POP PUSH1 0x40 DUP8 ADD CALLDATALOAD PUSH8 0xFFFFFFFFFFFFFFFF DUP2 GT ISZERO PUSH2 0x2DE7 JUMPI PUSH2 0x2DE6 PUSH2 0x265B JUMP JUMPDEST JUMPDEST PUSH2 0x2DF3 DUP10 DUP3 DUP11 ADD PUSH2 0x2D1B JUMP JUMPDEST SWAP4 POP SWAP4 POP POP PUSH1 0x60 PUSH2 0x2E06 DUP10 DUP3 DUP11 ADD PUSH2 0x26D8 JUMP JUMPDEST SWAP2 POP POP SWAP3 SWAP6 POP SWAP3 SWAP6 POP SWAP3 SWAP6 JUMP JUMPDEST PUSH0 PUSH2 0x100 DUP3 ADD SWAP1 POP PUSH2 0x2E27 PUSH0 DUP4 ADD DUP12 PUSH2 0x2869 JUMP JUMPDEST PUSH2 0x2E34 PUSH1 0x20 DUP4 ADD DUP11 PUSH2 0x2878 JUMP JUMPDEST DUP2 DUP2 SUB PUSH1 0x40 DUP4 ADD MSTORE PUSH2 0x2E46 DUP2 DUP10 PUSH2 0x29E2 JUMP JUMPDEST SWAP1 POP PUSH2 0x2E55 PUSH1 0x60 DUP4 ADD DUP9 PUSH2 0x2869 JUMP JUMPDEST DUP2 DUP2 SUB PUSH1 0x80 DUP4 ADD MSTORE PUSH2 0x2E67 DUP2 DUP8 PUSH2 0x29E2 JUMP JUMPDEST SWAP1 POP PUSH2 0x2E76 PUSH1 0xA0 DUP4 ADD DUP7 PUSH2 0x2869 JUMP JUMPDEST PUSH2 0x2E83 PUSH1 0xC0 DUP4 ADD DUP6 PUSH2 0x2869 JUMP JUMPDEST PUSH2 0x2E90 PUSH1 0xE0 DUP4 ADD DUP5 PUSH2 0x2869 JUMP JUMPDEST SWAP10 SWAP9 POP POP POP POP POP POP POP POP POP JUMP JUMPDEST PUSH0 PUSH0 PUSH1 0x40 DUP4 DUP6 SUB SLT ISZERO PUSH2 0x2EB3 JUMPI PUSH2 0x2EB2 PUSH2 0x2657 JUMP JUMPDEST JUMPDEST PUSH0 PUSH2 0x2EC0 DUP6 DUP3 DUP7 ADD PUSH2 0x26D8 JUMP JUMPDEST SWAP3 POP POP PUSH1 0x20 PUSH2 0x2ED1 DUP6 DUP3 DUP7 ADD PUSH2 0x26A5 JUMP JUMPDEST SWAP2 POP POP SWAP3 POP SWAP3 SWAP1 POP JUMP JUMPDEST PUSH0 PUSH1 0x20 DUP3 ADD SWAP1 POP PUSH2 0x2EEE PUSH0 DUP4 ADD DUP5 PUSH2 0x2878 JUMP JUMPDEST SWAP3 SWAP2 POP POP JUMP JUMPDEST PUSH32 0x4E6F7420617070726F7665640000000000000000000000000000000000000000 PUSH0 DUP3 ADD MSTORE POP JUMP JUMPDEST PUSH0 PUSH2 0x2F28 PUSH1 0xC DUP4 PUSH2 0x29B4 JUMP JUMPDEST SWAP2 POP PUSH2 0x2F33 DUP3 PUSH2 0x2EF4 JUMP JUMPDEST PUSH1 0x20 DUP3 ADD SWAP1 POP SWAP2 SWAP1 POP JUMP JUMPDEST PUSH0 PUSH1 0x20 DUP3 ADD SWAP1 POP DUP2 DUP2 SUB PUSH0 DUP4 ADD MSTORE PUSH2 0x2F55 DUP2 PUSH2 0x2F1C JUMP JUMPDEST SWAP1 POP SWAP2 SWAP1 POP JUMP JUMPDEST PUSH32 0x496E76616C696420726563697069656E74000000000000000000000000000000 PUSH0 DUP3 ADD MSTORE POP JUMP JUMPDEST PUSH0 PUSH2 0x2F90 PUSH1 0x11 DUP4 PUSH2 0x29B4 JUMP JUMPDEST SWAP2 POP PUSH2 0x2F9B DUP3 PUSH2 0x2F5C JUMP JUMPDEST PUSH1 0x20 DUP3 ADD SWAP1 POP SWAP2 SWAP1 POP JUMP JUMPDEST PUSH0 PUSH1 0x20 DUP3 ADD SWAP1 POP DUP2 DUP2 SUB PUSH0 DUP4 ADD MSTORE PUSH2 0x2FBD DUP2 PUSH2 0x2F84 JUMP JUMPDEST SWAP1 POP SWAP2 SWAP1 POP JUMP JUMPDEST PUSH32 0x416D6F756E74206D757374206265203E20300000000000000000000000000000 PUSH0 DUP3 ADD MSTORE POP JUMP JUMPDEST PUSH0 PUSH2 0x2FF8 PUSH1 0x12 DUP4 PUSH2 0x29B4 JUMP JUMPDEST SWAP2 POP PUSH2 0x3003 DUP3 PUSH2 0x2FC4 JUMP JUMPDEST PUSH1 0x20 DUP3 ADD SWAP1 POP SWAP2 SWAP1 POP JUMP JUMPDEST PUSH0 PUSH1 0x20 DUP3 ADD SWAP1 POP DUP2 DUP2 SUB PUSH0 DUP4 ADD MSTORE PUSH2 0x3025 DUP2 PUSH2 0x2FEC JUMP JUMPDEST SWAP1 POP SWAP2 SWAP1 POP JUMP JUMPDEST PUSH32 0x546F6B656E20646F6573206E6F74206578697374000000000000000000000000 PUSH0 DUP3 ADD MSTORE POP JUMP JUMPDEST PUSH0 PUSH2 0x3060 PUSH1 0x14 DUP4 PUSH2 0x29B4 JUMP JUMPDEST SWAP2 POP PUSH2 0x306B DUP3 PUSH2 0x302C JUMP JUMPDEST PUSH1 0x20 DUP3 ADD SWAP1 POP SWAP2 SWAP1 POP JUMP JUMPDEST PUSH0 PUSH1 0x20 DUP3 ADD SWAP1 POP DUP2 DUP2 SUB PUSH0 DUP4 ADD MSTORE PUSH2 0x308D DUP2 PUSH2 0x3054 JUMP JUMPDEST SWAP1 POP SWAP2 SWAP1 POP JUMP JUMPDEST PUSH32 0x526563697069656E74206E6F7420726567697374657265640000000000000000 PUSH0 DUP3 ADD MSTORE POP JUMP JUMPDEST PUSH0 PUSH2 0x30C8 PUSH1 0x18 DUP4 PUSH2 0x29B4 JUMP JUMPDEST SWAP2 POP PUSH2 0x30D3 DUP3 PUSH2 0x3094 JUMP JUMPDEST PUSH1 0x20 DUP3 ADD SWAP1 POP SWAP2 SWAP1 POP JUMP JUMPDEST PUSH0 PUSH1 0x20 DUP3 ADD SWAP1 POP DUP2 DUP2 SUB PUSH0 DUP4 ADD MSTORE PUSH2 0x30F5 DUP2 PUSH2 0x30BC JUMP JUMPDEST SWAP1 POP SWAP2 SWAP1 POP JUMP JUMPDEST PUSH32 0x436F6E73756D65722063616E6E6F74207472616E736665720000000000000000 PUSH0 DUP3 ADD MSTORE POP JUMP JUMPDEST PUSH0 PUSH2 0x3130 PUSH1 0x18 DUP4 PUSH2 0x29B4 JUMP JUMPDEST SWAP2 POP PUSH2 0x313B DUP3 PUSH2 0x30FC JUMP JUMPDEST PUSH1 0x20 DUP3 ADD SWAP1 POP SWAP2 SWAP1 POP JUMP JUMPDEST PUSH0 PUSH1 0x20 DUP3 ADD SWAP1 POP DUP2 DUP2 SUB PUSH0 DUP4 ADD MSTORE PUSH2 0x315D DUP2 PUSH2 0x3124 JUMP JUMPDEST SWAP1 POP SWAP2 SWAP1 POP JUMP JUMPDEST PUSH32 0x496E76616C696420726F6C65207472616E736974696F6E000000000000000000 PUSH0 DUP3 ADD MSTORE POP JUMP JUMPDEST PUSH0 PUSH2 0x3198 PUSH1 0x17 DUP4 PUSH2 0x29B4 JUMP JUMPDEST SWAP2 POP PUSH2 0x31A3 DUP3 PUSH2 0x3164 JUMP JUMPDEST PUSH1 0x20 DUP3 ADD SWAP1 POP SWAP2 SWAP1 POP JUMP JUMPDEST PUSH0 PUSH1 0x20 DUP3 ADD SWAP1 POP DUP2 DUP2 SUB PUSH0 DUP4 ADD MSTORE PUSH2 0x31C5 DUP2 PUSH2 0x318C JUMP JUMPDEST SWAP1 POP SWAP2 SWAP1 POP JUMP JUMPDEST PUSH32 0x496E73756666696369656E742062616C616E6365000000000000000000000000 PUSH0 DUP3 ADD MSTORE POP JUMP JUMPDEST PUSH0 PUSH2 0x3200 PUSH1 0x14 DUP4 PUSH2 0x29B4 JUMP JUMPDEST SWAP2 POP PUSH2 0x320B DUP3 PUSH2 0x31CC JUMP JUMPDEST PUSH1 0x20 DUP3 ADD SWAP1 POP SWAP2 SWAP1 POP JUMP JUMPDEST PUSH0 PUSH1 0x20 DUP3 ADD SWAP1 POP DUP2 DUP2 SUB PUSH0 DUP4 ADD MSTORE PUSH2 0x322D DUP2 PUSH2 0x31F4 JUMP JUMPDEST SWAP1 POP SWAP2 SWAP1 POP JUMP JUMPDEST PUSH32 0x4E487B7100000000000000000000000000000000000000000000000000000000 PUSH0 MSTORE PUSH1 0x11 PUSH1 0x4 MSTORE PUSH1 0x24 PUSH0 REVERT JUMPDEST PUSH0 PUSH2 0x326B DUP3 PUSH2 0x26B9 JUMP JUMPDEST SWAP2 POP PUSH2 0x3276 DUP4 PUSH2 0x26B9 JUMP JUMPDEST SWAP3 POP DUP3 DUP3 SUB SWAP1 POP DUP2 DUP2 GT ISZERO PUSH2 0x328E JUMPI PUSH2 0x328D PUSH2 0x3234 JUMP JUMPDEST JUMPDEST SWAP3 SWAP2 POP POP JUMP JUMPDEST PUSH0 PUSH2 0x329E DUP3 PUSH2 0x26B9 JUMP JUMPDEST SWAP2 POP PUSH2 0x32A9 DUP4 PUSH2 0x26B9 JUMP JUMPDEST SWAP3 POP DUP3 DUP3 ADD SWAP1 POP DUP1 DUP3 GT ISZERO PUSH2 0x32C1 JUMPI PUSH2 0x32C0 PUSH2 0x3234 JUMP JUMPDEST JUMPDEST SWAP3 SWAP2 POP POP JUMP JUMPDEST PUSH0 PUSH2 0x32D1 DUP3 PUSH2 0x26B9 JUMP JUMPDEST SWAP2 POP PUSH32 0xFFFFFFFFFFFFFFFFFFFFFFFFFFFFFFFFFFFFFFFFFFFFFFFFFFFFFFFFFFFFFFFF DUP3 SUB PUSH2 0x3303 JUMPI PUSH2 0x3302 PUSH2 0x3234 JUMP JUMPDEST JUMPDEST PUSH1 0x1 DUP3 ADD SWAP1 POP SWAP2 SWAP1 POP JUMP JUMPDEST PUSH0 PUSH1 0x40 DUP3 ADD SWAP1 POP PUSH2 0x3321 PUSH0 DUP4 ADD DUP6 PUSH2 0x2869 JUMP JUMPDEST PUSH2 0x332E PUSH1 0x20 DUP4 ADD DUP5 PUSH2 0x2869 JUMP JUMPDEST SWAP4 SWAP3 POP POP POP JUMP JUMPDEST PUSH32 0x4E6F742070656E64696E67000000000000000000000000000000000000000000 PUSH0 DUP3 ADD MSTORE POP JUMP JUMPDEST PUSH0 PUSH2 0x3369 PUSH1 0xB DUP4 PUSH2 0x29B4 JUMP JUMPDEST SWAP2 POP PUSH2 0x3374 DUP3 PUSH2 0x3335 JUMP JUMPDEST PUSH1 0x20 DUP3 ADD SWAP1 POP SWAP2 SWAP1 POP JUMP JUMPDEST PUSH0 PUSH1 0x20 DUP3 ADD SWAP1 POP DUP2 DUP2 SUB PUSH0 DUP4 ADD MSTORE PUSH2 0x3396 DUP2 PUSH2 0x335D JUMP JUMPDEST SWAP1 POP SWAP2 SWAP1 POP JUMP JUMPDEST PUSH32 0x4E6F7420617574686F72697A6564000000000000000000000000000000000000 PUSH0 DUP3 ADD MSTORE POP JUMP JUMPDEST PUSH0 PUSH2 0x33D1 PUSH1 0xE DUP4 PUSH2 0x29B4 JUMP JUMPDEST SWAP2 POP PUSH2 0x33DC DUP3 PUSH2 0x339D JUMP JUMPDEST PUSH1 0x20 DUP3 ADD SWAP1 POP SWAP2 SWAP1 POP JUMP JUMPDEST PUSH0 PUSH1 0x20 DUP3 ADD SWAP1 POP DUP2 DUP2 SUB PUSH0 DUP4 ADD MSTORE PUSH2 0x33FE DUP2 PUSH2 0x33C5 JUMP JUMPDEST SWAP1 POP SWAP2 SWAP1 POP JUMP JUMPDEST PUSH32 0x4E6F7420726563697069656E7400000000000000000000000000000000000000 PUSH0 DUP3 ADD MSTORE POP JUMP JUMPDEST PUSH0 PUSH2 0x3439 PUSH1 0xD DUP4 PUSH2 0x29B4 JUMP JUMPDEST SWAP2 POP PUSH2 0x3444 DUP3 PUSH2 0x3405 JUMP JUMPDEST PUSH1 0x20 DUP3 ADD SWAP1 POP SWAP2 SWAP1 POP JUMP JUMPDEST PUSH0 PUSH1 0x20 DUP3 ADD SWAP1 POP DUP2 DUP2 SUB PUSH0 DUP4 ADD MSTORE PUSH2 0x3466 DUP2 PUSH2 0x342D JUMP JUMPDEST SWAP1 POP SWAP2 SWAP1 POP JUMP JUMPDEST PUSH32 0x4E487B7100000000000000000000000000000000000000000000000000000000 PUSH0 MSTORE PUSH1 0x41 PUSH1 0x4 MSTORE PUSH1 0x24 PUSH0 REVERT JUMPDEST PUSH32 0x4E487B7100000000000000000000000000000000000000000000000000000000 PUSH0 MSTORE PUSH1 0x32 PUSH1 0x4 MSTORE PUSH1 0x24 PUSH0 REVERT JUMPDEST PUSH32 0x496E76616C696420726F6C650000000000000000000000000000000000000000 PUSH0 DUP3 ADD MSTORE POP JUMP JUMPDEST PUSH0 PUSH2 0x34FB PUSH1 0xC DUP4 PUSH2 0x29B4 JUMP JUMPDEST SWAP2 POP PUSH2 0x3506 DUP3 PUSH2 0x34C7 JUMP JUMPDEST PUSH1 0x20 DUP3 ADD SWAP1 POP SWAP2 SWAP1 POP JUMP JUMPDEST PUSH0 PUSH1 0x20 DUP3 ADD SWAP1 POP DUP2 DUP2 SUB PUSH0 DUP4 ADD MSTORE PUSH2 0x3528 DUP2 PUSH2 0x34EF JUMP JUMPDEST SWAP1 POP SWAP2 SWAP1 POP JUMP JUMPDEST PUSH0 PUSH1 0x20 DUP3 ADD SWAP1 POP PUSH2 0x3542 PUSH0 DUP4 ADD DUP5 PUSH2 0x2890 JUMP JUMPDEST SWAP3 SWAP2 POP POP JUMP JUMPDEST PUSH0 PUSH1 0x20 DUP3 ADD SWAP1 POP PUSH2 0x355B PUSH0 DUP4 ADD DUP5 PUSH2 0x2903 JUMP JUMPDEST SWAP3 SWAP2 POP POP JUMP JUMPDEST PUSH32 0x4E487B7100000000000000000000000000000000000000000000000000000000 PUSH0 MSTORE PUSH1 0x22 PUSH1 0x4 MSTORE PUSH1 0x24 PUSH0 REVERT JUMPDEST PUSH0 PUSH1 0x2 DUP3 DIV SWAP1 POP PUSH1 0x1 DUP3 AND DUP1 PUSH2 0x35A5 JUMPI PUSH1 0x7F DUP3 AND SWAP2 POP JUMPDEST PUSH1 0x20 DUP3 LT DUP2 SUB PUSH2 0x35B8 JUMPI PUSH2 0x35B7 PUSH2 0x3561 JUMP JUMPDEST JUMPDEST POP SWAP2 SWAP1 POP JUMP JUMPDEST PUSH32 0x4E6F742061646D696E0000000000000000000000000000000000000000000000 PUSH0 DUP3 ADD MSTORE POP JUMP JUMPDEST PUSH0 PUSH2 0x35F2 PUSH1 0x9 DUP4 PUSH2 0x29B4 JUMP JUMPDEST SWAP2 POP PUSH2 0x35FD DUP3 PUSH2 0x35BE JUMP JUMPDEST PUSH1 0x20 DUP3 ADD SWAP1 POP SWAP2 SWAP1 POP JUMP JUMPDEST PUSH0 PUSH1 0x20 DUP3 ADD SWAP1 POP DUP2 DUP2 SUB PUSH0 DUP4 ADD MSTORE PUSH2 0x361F DUP2 PUSH2 0x35E6 JUMP JUMPDEST SWAP1 POP SWAP2 SWAP1 POP JUMP JUMPDEST PUSH32 0x55736572206E6F7420666F756E64000000000000000000000000000000000000 PUSH0 DUP3 ADD MSTORE POP JUMP JUMPDEST PUSH0 PUSH2 0x365A PUSH1 0xE DUP4 PUSH2 0x29B4 JUMP JUMPDEST SWAP2 POP PUSH2 0x3665 DUP3 PUSH2 0x3626 JUMP JUMPDEST PUSH1 0x20 DUP3 ADD SWAP1 POP SWAP2 SWAP1 POP JUMP JUMPDEST PUSH0 PUSH1 0x20 DUP3 ADD SWAP1 POP DUP2 DUP2 SUB PUSH0 DUP4 ADD MSTORE PUSH2 0x3687 DUP2 PUSH2 0x364E JUMP JUMPDEST SWAP1 POP SWAP2 SWAP1 POP JUMP JUMPDEST PUSH32 0x4E616D6520656D70747900000000000000000000000000000000000000000000 PUSH0 DUP3 ADD MSTORE POP JUMP JUMPDEST PUSH0 PUSH2 0x36C2 PUSH1 0xA DUP4 PUSH2 0x29B4 JUMP JUMPDEST SWAP2 POP PUSH2 0x36CD DUP3 PUSH2 0x368E JUMP JUMPDEST PUSH1 0x20 DUP3 ADD SWAP1 POP SWAP2 SWAP1 POP JUMP JUMPDEST PUSH0 PUSH1 0x20 DUP3 ADD SWAP1 POP DUP2 DUP2 SUB PUSH0 DUP4 ADD MSTORE PUSH2 0x36EF DUP2 PUSH2 0x36B6 JUMP JUMPDEST SWAP1 POP SWAP2 SWAP1 POP JUMP JUMPDEST PUSH0 DUP3 SWAP1 POP SWAP3 SWAP2 POP POP JUMP JUMPDEST PUSH0 DUP2 SWAP1 POP DUP2 PUSH0 MSTORE PUSH1 0x20 PUSH0 KECCAK256 SWAP1 POP SWAP2 SWAP1 POP JUMP JUMPDEST PUSH0 PUSH1 0x20 PUSH1 0x1F DUP4 ADD DIV SWAP1 POP SWAP2 SWAP1 POP JUMP JUMPDEST PUSH0 DUP3 DUP3 SHL SWAP1 POP SWAP3 SWAP2 POP POP JUMP JUMPDEST PUSH0 PUSH1 0x8 DUP4 MUL PUSH2 0x375C PUSH32 0xFFFFFFFFFFFFFFFFFFFFFFFFFFFFFFFFFFFFFFFFFFFFFFFFFFFFFFFFFFFFFFFF DUP3 PUSH2 0x3721 JUMP JUMPDEST PUSH2 0x3766 DUP7 DUP4 PUSH2 0x3721 JUMP JUMPDEST SWAP6 POP DUP1 NOT DUP5 AND SWAP4 POP DUP1 DUP7 AND DUP5 OR SWAP3 POP POP POP SWAP4 SWAP3 POP POP POP JUMP JUMPDEST PUSH0 DUP2 SWAP1 POP SWAP2 SWAP1 POP JUMP JUMPDEST PUSH0 PUSH2 0x37A1 PUSH2 0x379C PUSH2 0x3797 DUP5 PUSH2 0x26B9 JUMP JUMPDEST PUSH2 0x377E JUMP JUMPDEST PUSH2 0x26B9 JUMP JUMPDEST SWAP1 POP SWAP2 SWAP1 POP JUMP JUMPDEST PUSH0 DUP2 SWAP1 POP SWAP2 SWAP1 POP JUMP JUMPDEST PUSH2 0x37BA DUP4 PUSH2 0x3787 JUMP JUMPDEST PUSH2 0x37CE PUSH2 0x37C6 DUP3 PUSH2 0x37A8 JUMP JUMPDEST DUP5 DUP5 SLOAD PUSH2 0x372D JUMP JUMPDEST DUP3 SSTORE POP POP POP POP JUMP JUMPDEST PUSH0 PUSH0 SWAP1 POP SWAP1 JUMP JUMPDEST PUSH2 0x37E5 PUSH2 0x37D6 JUMP JUMPDEST PUSH2 0x37F0 DUP2 DUP5 DUP5 PUSH2 0x37B1 JUMP JUMPDEST POP POP POP JUMP JUMPDEST JUMPDEST DUP2 DUP2 LT ISZERO PUSH2 0x3813 JUMPI PUSH2 0x3808 PUSH0 DUP3 PUSH2 0x37DD JUMP JUMPDEST PUSH1 0x1 DUP2 ADD SWAP1 POP PUSH2 0x37F6 JUMP JUMPDEST POP POP JUMP JUMPDEST PUSH1 0x1F DUP3 GT ISZERO PUSH2 0x3858 JUMPI PUSH2 0x3829 DUP2 PUSH2 0x3700 JUMP JUMPDEST PUSH2 0x3832 DUP5 PUSH2 0x3712 JUMP JUMPDEST DUP2 ADD PUSH1 0x20 DUP6 LT ISZERO PUSH2 0x3841 JUMPI DUP2 SWAP1 POP JUMPDEST PUSH2 0x3855 PUSH2 0x384D DUP6 PUSH2 0x3712 JUMP JUMPDEST DUP4 ADD DUP3 PUSH2 0x37F5 JUMP JUMPDEST POP POP JUMPDEST POP POP POP JUMP JUMPDEST PUSH0 DUP3 DUP3 SHR SWAP1 POP SWAP3 SWAP2 POP POP JUMP JUMPDEST PUSH0 PUSH2 0x3878 PUSH0 NOT DUP5 PUSH1 0x8 MUL PUSH2 0x385D JUMP JUMPDEST NOT DUP1 DUP4 AND SWAP2 POP POP SWAP3 SWAP2 POP POP JUMP JUMPDEST PUSH0 PUSH2 0x3890 DUP4 DUP4 PUSH2 0x3869 JUMP JUMPDEST SWAP2 POP DUP3 PUSH1 0x2 MUL DUP3 OR SWAP1 POP SWAP3 SWAP2 POP POP JUMP JUMPDEST PUSH2 0x38AA DUP4 DUP4 PUSH2 0x36F6 JUMP JUMPDEST PUSH8 0xFFFFFFFFFFFFFFFF DUP2 GT ISZERO PUSH2 0x38C3 JUMPI PUSH2 0x38C2 PUSH2 0x346D JUMP JUMPDEST JUMPDEST PUSH2 0x38CD DUP3 SLOAD PUSH2 0x358E JUMP JUMPDEST PUSH2 0x38D8 DUP3 DUP3 DUP6 PUSH2 0x3817 JUMP JUMPDEST PUSH0 PUSH1 0x1F DUP4 GT PUSH1 0x1 DUP2 EQ PUSH2 0x3905 JUMPI PUSH0 DUP5 ISZERO PUSH2 0x38F3 JUMPI DUP3 DUP8 ADD CALLDATALOAD SWAP1 POP JUMPDEST PUSH2 0x38FD DUP6 DUP3 PUSH2 0x3885 JUMP JUMPDEST DUP7 SSTORE POP PUSH2 0x3964 JUMP JUMPDEST PUSH1 0x1F NOT DUP5 AND PUSH2 0x3913 DUP7 PUSH2 0x3700 JUMP JUMPDEST PUSH0 JUMPDEST DUP3 DUP2 LT ISZERO PUSH2 0x393A JUMPI DUP5 DUP10 ADD CALLDATALOAD DUP3 SSTORE PUSH1 0x1 DUP3 ADD SWAP2 POP PUSH1 0x20 DUP6 ADD SWAP5 POP PUSH1 0x20 DUP2 ADD SWAP1 POP PUSH2 0x3915 JUMP JUMPDEST DUP7 DUP4 LT ISZERO PUSH2 0x3957 JUMPI DUP5 DUP10 ADD CALLDATALOAD PUSH2 0x3953 PUSH1 0x1F DUP10 AND DUP3 PUSH2 0x3869 JUMP JUMPDEST DUP4 SSTORE POP JUMPDEST PUSH1 0x1 PUSH1 0x2 DUP9 MUL ADD DUP9 SSTORE POP POP POP JUMPDEST POP POP POP POP POP POP POP JUMP JUMPDEST DUP3 DUP2 DUP4 CALLDATACOPY PUSH0 DUP4 DUP4 ADD MSTORE POP POP POP JUMP JUMPDEST PUSH0 PUSH2 0x3986 DUP4 DUP6 PUSH2 0x29B4 JUMP JUMPDEST SWAP4 POP PUSH2 0x3993 DUP4 DUP6 DUP5 PUSH2 0x396D JUMP JUMPDEST PUSH2 0x399C DUP4 PUSH2 0x29D2 JUMP JUMPDEST DUP5 ADD SWAP1 POP SWAP4 SWAP3 POP POP POP JUMP JUMPDEST PUSH0 PUSH1 0x40 DUP3 ADD SWAP1 POP DUP2 DUP2 SUB PUSH0 DUP4 ADD MSTORE PUSH2 0x39C0 DUP2 DUP6 DUP8 PUSH2 0x397B JUMP JUMPDEST SWAP1 POP PUSH2 0x39CF PUSH1 0x20 DUP4 ADD DUP5 PUSH2 0x2869 JUMP JUMPDEST SWAP5 SWAP4 POP POP POP POP JUMP INVALID LOG2 PUSH5 0x6970667358 0x22 SLT KECCAK256 0xDF BALANCE SWAP3 BYTE LOG0 0xD6 0x4B PUSH1 0xCF 0xBF 0xD8 GT DUPN 0x41 PUSH7 0x3E601532E1EE93 PUSH20 0xDD133FC3C3C028654464736F6C634300081E0033 "
				},
				"gasEstimates": {
					"creation": {
						"codeDepositCost": "2972200",
						"executionCost": "infinite",
						"totalCost": "infinite"
					},
					"external": {
						"acceptTransfer(uint256)": "48171",
						"addressToUserId(address)": "2891",
						"admin()": "infinite",
						"changeStatusUser(address,uint8)": "infinite",
						"createToken(string,uint256,string,uint256)": "infinite",
						"getToken(uint256)": "infinite",
						"getTokenBalance(uint256,address)": "infinite",
						"getTransfer(uint256)": "infinite",
						"getUserInfo(address)": "infinite",
						"getUserTokens(address)": "infinite",
						"getUserTransfers(address)": "infinite",
						"nextTokenId()": "2535",
						"nextTransferId()": "2536",
						"nextUserId()": "2492",
						"rejectTransfer(uint256)": "infinite",
						"requestUserRole(bytes32)": "infinite",
						"tokens(uint256)": "infinite",
						"transfer(address,uint256,uint256)": "infinite",
						"transfers(uint256)": "infinite",
						"users(uint256)": "infinite"
					},
					"internal": {
						"_isConsumer(bytes32)": "33",
						"_isNextRole(bytes32,bytes32)": "184"
					}
				},
				"methodIdentifiers": {
					"acceptTransfer(uint256)": "274fae7c",
					"addressToUserId(address)": "b5ffbbcc",
					"admin()": "f851a440",
					"changeStatusUser(address,uint8)": "8782dc00",
					"createToken(string,uint256,string,uint256)": "d67b2d08",
					"getToken(uint256)": "e4b50cb8",
					"getTokenBalance(uint256,address)": "ef57e2d2",
					"getTransfer(uint256)": "c16fe907",
					"getUserInfo(address)": "6386c1c7",
					"getUserTokens(address)": "519dc8d2",
					"getUserTransfers(address)": "335d3410",
					"nextTokenId()": "75794a3c",
					"nextTransferId()": "b85b381b",
					"nextUserId()": "a1e6a255",
					"rejectTransfer(uint256)": "12effc32",
					"requestUserRole(bytes32)": "49217ca4",
					"tokens(uint256)": "4f64b2be",
					"transfer(address,uint256,uint256)": "095bcdb6",
					"transfers(uint256)": "9377d711",
					"users(uint256)": "365b98b2"
				}
			},
			"storageLayout": {
				"storage": [
					{
						"astId": 320,
						"contract": "src/SupplyChainTracker.sol:SupplyChainTracker",
						"label": "nextTokenId",
						"offset": 0,
						"slot": "0",
						"type": "t_uint256"
					},
					{
						"astId": 323,
						"contract": "src/SupplyChainTracker.sol:SupplyChainTracker",
						"label": "nextTransferId",
						"offset": 0,
						"slot": "1",
						"type": "t_uint256"
					},
					{
						"astId": 326,
						"contract": "src/SupplyChainTracker.sol:SupplyChainTracker",
						"label": "nextUserId",
						"offset": 0,
						"slot": "2",
						"type": "t_uint256"
					},
					{
						"astId": 331,
						"contract": "src/SupplyChainTracker.sol:SupplyChainTracker",
						"label": "tokens",
						"offset": 0,
						"slot": "3",
						"type": "t_mapping(t_uint256,t_struct(Token)289_storage)"
					},
					{
						"astId": 336,
						"contract": "src/SupplyChainTracker.sol:SupplyChainTracker",
						"label": "transfers",
						"offset": 0,
						"slot": "4",
						"type": "t_mapping(t_uint256,t_struct(Transfer)305_storage)"
					},
					{
						"astId": 341,
						"contract": "src/SupplyChainTracker.sol:SupplyChainTracker",
						"label": "users",
						"offset": 0,
						"slot": "5",
						"type": "t_mapping(t_uint256,t_struct(User)315_storage)"
					},
					{
						"astId": 345,
						"contract": "src/SupplyChainTracker.sol:SupplyChainTracker",
						"label": "addressToUserId",
						"offset": 0,
						"slot": "6",
						"type": "t_mapping(t_address,t_uint256)"
					}
				],
				"types": {
					"t_address": {
						"encoding": "inplace",
						"label": "address",
						"numberOfBytes": "20"
					},
					"t_bytes32": {
						"encoding": "inplace",
						"label": "bytes32",
						"numberOfBytes": "32"
					},
					"t_enum(TransferStatus)270": {
						"encoding": "inplace",
						"label": "enum SupplyChainTracker.TransferStatus",
						"numberOfBytes": "1"
					},
					"t_enum(UserStatus)266": {
						"encoding": "inplace",
						"label": "enum SupplyChainTracker.UserStatus",
						"numberOfBytes": "1"
					},
					"t_mapping(t_address,t_uint256)": {
						"encoding": "mapping",
						"key": "t_address",
						"label": "mapping(address => uint256)",
						"numberOfBytes": "32",
						"value": "t_uint256"
					},
					"t_mapping(t_uint256,t_struct(Token)289_storage)": {
						"encoding": "mapping",
						"key": "t_uint256",
						"label": "mapping(uint256 => struct SupplyChainTracker.Token)",
						"numberOfBytes": "32",
						"value": "t_struct(Token)289_storage"
					},
					"t_mapping(t_uint256,t_struct(Transfer)305_storage)": {
						"encoding": "mapping",
						"key": "t_uint256",
						"label": "mapping(uint256 => struct SupplyChainTracker.Transfer)",
						"numberOfBytes": "32",
						"value": "t_struct(Transfer)305_storage"
					},
					"t_mapping(t_uint256,t_struct(User)315_storage)": {
						"encoding": "mapping",
						"key": "t_uint256",
						"label": "mapping(uint256 => struct SupplyChainTracker.User)",
						"numberOfBytes": "32",
						"value": "t_struct(User)315_storage"
					},
					"t_string_storage": {
						"encoding": "bytes",
						"label": "string",
						"numberOfBytes": "32"
					},
					"t_struct(Token)289_storage": {
						"encoding": "inplace",
						"label": "struct SupplyChainTracker.Token",
						"members": [
							{
								"astId": 272,
								"contract": "src/SupplyChainTracker.sol:SupplyChainTracker",
								"label": "id",
								"offset": 0,
								"slot": "0",
								"type": "t_uint256"
							},
							{
								"astId": 274,
								"contract": "src/SupplyChainTracker.sol:SupplyChainTracker",
								"label": "creator",
								"offset": 0,
								"slot": "1",
								"type": "t_address"
							},
							{
								"astId": 276,
								"contract": "src/SupplyChainTracker.sol:SupplyChainTracker",
								"label": "name",
								"offset": 0,
								"slot": "2",
								"type": "t_string_storage"
							},
							{
								"astId": 278,
								"contract": "src/SupplyChainTracker.sol:SupplyChainTracker",
								"label": "totalSupply",
								"offset": 0,
								"slot": "3",
								"type": "t_uint256"
							},
							{
								"astId": 280,
								"contract": "src/SupplyChainTracker.sol:SupplyChainTracker",
								"label": "features",
								"offset": 0,
								"slot": "4",
								"type": "t_string_storage"
							},
							{
								"astId": 282,
								"contract": "src/SupplyChainTracker.sol:SupplyChainTracker",
								"label": "parentId",
								"offset": 0,
								"slot": "5",
								"type": "t_uint256"
							},
							{
								"astId": 284,
								"contract": "src/SupplyChainTracker.sol:SupplyChainTracker",
								"label": "dateCreated",
								"offset": 0,
								"slot": "6",
								"type": "t_uint256"
							},
							{
								"astId": 288,
								"contract": "src/SupplyChainTracker.sol:SupplyChainTracker",
								"label": "balance",
								"offset": 0,
								"slot": "7",
								"type": "t_mapping(t_address,t_uint256)"
							}
						],
						"numberOfBytes": "256"
					},
					"t_struct(Transfer)305_storage": {
						"encoding": "inplace",
						"label": "struct SupplyChainTracker.Transfer",
						"members": [
							{
								"astId": 291,
								"contract": "src/SupplyChainTracker.sol:SupplyChainTracker",
								"label": "id",
								"offset": 0,
								"slot": "0",
								"type": "t_uint256"
							},
							{
								"astId": 293,
								"contract": "src/SupplyChainTracker.sol:SupplyChainTracker",
								"label": "from",
								"offset": 0,
								"slot": "1",
								"type": "t_address"
							},
							{
								"astId": 295,
								"contract": "src/SupplyChainTracker.sol:SupplyChainTracker",
								"label": "to",
								"offset": 0,
								"slot": "2",
								"type": "t_address"
							},
							{
								"astId": 297,
								"contract": "src/SupplyChainTracker.sol:SupplyChainTracker",
								"label": "tokenId",
								"offset": 0,
								"slot": "3",
								"type": "t_uint256"
							},
							{
								"astId": 299,
								"contract": "src/SupplyChainTracker.sol:SupplyChainTracker",
								"label": "dateCreated",
								"offset": 0,
								"slot": "4",
								"type": "t_uint256"
							},
							{
								"astId": 301,
								"contract": "src/SupplyChainTracker.sol:SupplyChainTracker",
								"label": "amount",
								"offset": 0,
								"slot": "5",
								"type": "t_uint256"
							},
							{
								"astId": 304,
								"contract": "src/SupplyChainTracker.sol:SupplyChainTracker",
								"label": "status",
								"offset": 0,
								"slot": "6",
								"type": "t_enum(TransferStatus)270"
							}
						],
						"numberOfBytes": "224"
					},
					"t_struct(User)315_storage": {
						"encoding": "inplace",
						"label": "struct SupplyChainTracker.User",
						"members": [
							{
								"astId": 307,
								"contract": "src/SupplyChainTracker.sol:SupplyChainTracker",
								"label": "id",
								"offset": 0,
								"slot": "0",
								"type": "t_uint256"
							},
							{
								"astId": 309,
								"contract": "src/SupplyChainTracker.sol:SupplyChainTracker",
								"label": "userAddress",
								"offset": 0,
								"slot": "1",
								"type": "t_address"
							},
							{
								"astId": 311,
								"contract": "src/SupplyChainTracker.sol:SupplyChainTracker",
								"label": "role",
								"offset": 0,
								"slot": "2",
								"type": "t_bytes32"
							},
							{
								"astId": 314,
								"contract": "src/SupplyChainTracker.sol:SupplyChainTracker",
								"label": "status",
								"offset": 0,
								"slot": "3",
								"type": "t_enum(UserStatus)266"
							}
						],
						"numberOfBytes": "128"
					},
					"t_uint256": {
						"encoding": "inplace",
						"label": "uint256",
						"numberOfBytes": "32"
					}
				}
			},
			"userdoc": {
				"kind": "user",
				"methods": {},
				"version": 1
			}
		}
	}
}