{
	"src/SupplyChain.sol": {
		"SupplyChainTracker": {
			"abi": [
				{
					"inputs": [],
					"stateMutability": "nonpayable",
					"type": "constructor"
				},
				{
					"inputs": [],
					"name": "ReentrancyGuardReentrantCall",
					"type": "error"
				},
				{
					"anonymous": false,
					"inputs": [
						{
							"indexed": true,
							"internalType": "uint256",
							"name": "tokenId",
							"type": "uint256"
						},
						{
							"indexed": true,
							"internalType": "address",
							"name": "creator",
							"type": "address"
						},
						{
							"indexed": false,
							"internalType": "string",
							"name": "name",
							"type": "string"
						},
						{
							"indexed": false,
							"internalType": "uint256",
							"name": "totalSupply",
							"type": "uint256"
						}
					],
					"name": "TokenCreated",
					"type": "event"
				},
				{
					"anonymous": false,
					"inputs": [
						{
							"indexed": true,
							"internalType": "uint256",
							"name": "transferId",
							"type": "uint256"
						}
					],
					"name": "TransferAccepted",
					"type": "event"
				},
				{
					"anonymous": false,
					"inputs": [
						{
							"indexed": true,
							"internalType": "uint256",
							"name": "transferId",
							"type": "uint256"
						}
					],
					"name": "TransferRejected",
					"type": "event"
				},
				{
					"anonymous": false,
					"inputs": [
						{
							"indexed": true,
							"internalType": "uint256",
							"name": "transferId",
							"type": "uint256"
						},
						{
							"indexed": true,
							"internalType": "address",
							"name": "from",
							"type": "address"
						},
						{
							"indexed": true,
							"internalType": "address",
							"name": "to",
							"type": "address"
						},
						{
							"indexed": false,
							"internalType": "uint256",
							"name": "tokenId",
							"type": "uint256"
						},
						{
							"indexed": false,
							"internalType": "uint256",
							"name": "amount",
							"type": "uint256"
						}
					],
					"name": "TransferRequested",
					"type": "event"
				},
				{
					"anonymous": false,
					"inputs": [
						{
							"indexed": true,
							"internalType": "address",
							"name": "user",
							"type": "address"
						},
						{
							"indexed": false,
							"internalType": "bytes32",
							"name": "role",
							"type": "bytes32"
						}
					],
					"name": "UserRoleRequested",
					"type": "event"
				},
				{
					"anonymous": false,
					"inputs": [
						{
							"indexed": true,
							"internalType": "address",
							"name": "user",
							"type": "address"
						},
						{
							"indexed": false,
							"internalType": "enum SupplyChainTracker.UserStatus",
							"name": "status",
							"type": "uint8"
						}
					],
					"name": "UserStatusChanged",
					"type": "event"
				},
				{
					"inputs": [
						{
							"internalType": "uint256",
							"name": "transferId",
							"type": "uint256"
						}
					],
					"name": "acceptTransfer",
					"outputs": [],
					"stateMutability": "nonpayable",
					"type": "function"
				},
				{
					"inputs": [
						{
							"internalType": "address",
							"name": "",
							"type": "address"
						}
					],
					"name": "addressToUserId",
					"outputs": [
						{
							"internalType": "uint256",
							"name": "",
							"type": "uint256"
						}
					],
					"stateMutability": "view",
					"type": "function"
				},
				{
					"inputs": [],
					"name": "admin",
					"outputs": [
						{
							"internalType": "address",
							"name": "",
							"type": "address"
						}
					],
					"stateMutability": "view",
					"type": "function"
				},
				{
					"inputs": [
						{
							"internalType": "address",
							"name": "userAddress",
							"type": "address"
						},
						{
							"internalType": "enum SupplyChainTracker.UserStatus",
							"name": "newStatus",
							"type": "uint8"
						}
					],
					"name": "changeStatusUser",
					"outputs": [],
					"stateMutability": "nonpayable",
					"type": "function"
				},
				{
					"inputs": [
						{
							"internalType": "string",
							"name": "name",
							"type": "string"
						},
						{
							"internalType": "uint256",
							"name": "totalSupply",
							"type": "uint256"
						},
						{
							"internalType": "string",
							"name": "features",
							"type": "string"
						},
						{
							"internalType": "uint256",
							"name": "parentId",
							"type": "uint256"
						}
					],
					"name": "createToken",
					"outputs": [],
					"stateMutability": "nonpayable",
					"type": "function"
				},
				{
					"inputs": [
						{
							"internalType": "uint256",
							"name": "tokenId",
							"type": "uint256"
						}
					],
					"name": "getToken",
					"outputs": [
						{
							"internalType": "uint256",
							"name": "id",
							"type": "uint256"
						},
						{
							"internalType": "address",
							"name": "creator",
							"type": "address"
						},
						{
							"internalType": "string",
							"name": "name",
							"type": "string"
						},
						{
							"internalType": "uint256",
							"name": "totalSupply",
							"type": "uint256"
						},
						{
							"internalType": "uint256",
							"name": "parentId",
							"type": "uint256"
						},
						{
							"internalType": "uint256",
							"name": "dateCreated",
							"type": "uint256"
						},
						{
							"internalType": "uint256",
							"name": "balance",
							"type": "uint256"
						}
					],
					"stateMutability": "view",
					"type": "function"
				},
				{
					"inputs": [
						{
							"internalType": "uint256",
							"name": "tokenId",
							"type": "uint256"
						},
						{
							"internalType": "address",
							"name": "user",
							"type": "address"
						}
					],
					"name": "getTokenBalance",
					"outputs": [
						{
							"internalType": "uint256",
							"name": "",
							"type": "uint256"
						}
					],
					"stateMutability": "view",
					"type": "function"
				},
				{
					"inputs": [
						{
							"internalType": "address",
							"name": "userAddress",
							"type": "address"
						}
					],
					"name": "getUserInfo",
					"outputs": [
						{
							"components": [
								{
									"internalType": "uint256",
									"name": "id",
									"type": "uint256"
								},
								{
									"internalType": "address",
									"name": "userAddress",
									"type": "address"
								},
								{
									"internalType": "bytes32",
									"name": "role",
									"type": "bytes32"
								},
								{
									"internalType": "enum SupplyChainTracker.UserStatus",
									"name": "status",
									"type": "uint8"
								}
							],
							"internalType": "struct SupplyChainTracker.User",
							"name": "",
							"type": "tuple"
						}
					],
					"stateMutability": "view",
					"type": "function"
				},
				{
					"inputs": [
						{
							"internalType": "address",
							"name": "user",
							"type": "address"
						}
					],
					"name": "getUserTokens",
					"outputs": [
						{
							"internalType": "uint256[]",
							"name": "",
							"type": "uint256[]"
						}
					],
					"stateMutability": "view",
					"type": "function"
				},
				{
					"inputs": [
						{
							"internalType": "address",
							"name": "user",
							"type": "address"
						}
					],
					"name": "getUserTransfers",
					"outputs": [
						{
							"internalType": "uint256[]",
							"name": "",
							"type": "uint256[]"
						}
					],
					"stateMutability": "view",
					"type": "function"
				},
				{
					"inputs": [],
					"name": "nextTokenId",
					"outputs": [
						{
							"internalType": "uint256",
							"name": "",
							"type": "uint256"
						}
					],
					"stateMutability": "view",
					"type": "function"
				},
				{
					"inputs": [],
					"name": "nextTransferId",
					"outputs": [
						{
							"internalType": "uint256",
							"name": "",
							"type": "uint256"
						}
					],
					"stateMutability": "view",
					"type": "function"
				},
				{
					"inputs": [],
					"name": "nextUserId",
					"outputs": [
						{
							"internalType": "uint256",
							"name": "",
							"type": "uint256"
						}
					],
					"stateMutability": "view",
					"type": "function"
				},
				{
					"inputs": [
						{
							"internalType": "uint256",
							"name": "transferId",
							"type": "uint256"
						}
					],
					"name": "rejectTransfer",
					"outputs": [],
					"stateMutability": "nonpayable",
					"type": "function"
				},
				{
					"inputs": [
						{
							"internalType": "bytes32",
							"name": "role",
							"type": "bytes32"
						}
					],
					"name": "requestUserRole",
					"outputs": [],
					"stateMutability": "nonpayable",
					"type": "function"
				},
				{
					"inputs": [
						{
							"internalType": "uint256",
							"name": "",
							"type": "uint256"
						}
					],
					"name": "tokens",
					"outputs": [
						{
							"internalType": "uint256",
							"name": "id",
							"type": "uint256"
						},
						{
							"internalType": "address",
							"name": "creator",
							"type": "address"
						},
						{
							"internalType": "string",
							"name": "name",
							"type": "string"
						},
						{
							"internalType": "uint256",
							"name": "totalSupply",
							"type": "uint256"
						},
						{
							"internalType": "string",
							"name": "features",
							"type": "string"
						},
						{
							"internalType": "uint256",
							"name": "parentId",
							"type": "uint256"
						},
						{
							"internalType": "uint256",
							"name": "dateCreated",
							"type": "uint256"
						}
					],
					"stateMutability": "view",
					"type": "function"
				},
				{
					"inputs": [
						{
							"internalType": "address",
							"name": "to",
							"type": "address"
						},
						{
							"internalType": "uint256",
							"name": "tokenId",
							"type": "uint256"
						},
						{
							"internalType": "uint256",
							"name": "amount",
							"type": "uint256"
						}
					],
					"name": "transfer",
					"outputs": [],
					"stateMutability": "nonpayable",
					"type": "function"
				},
				{
					"inputs": [
						{
							"internalType": "uint256",
							"name": "",
							"type": "uint256"
						}
					],
					"name": "transfers",
					"outputs": [
						{
							"internalType": "uint256",
							"name": "id",
							"type": "uint256"
						},
						{
							"internalType": "address",
							"name": "from",
							"type": "address"
						},
						{
							"internalType": "address",
							"name": "to",
							"type": "address"
						},
						{
							"internalType": "uint256",
							"name": "tokenId",
							"type": "uint256"
						},
						{
							"internalType": "uint256",
							"name": "dateCreated",
							"type": "uint256"
						},
						{
							"internalType": "uint256",
							"name": "amount",
							"type": "uint256"
						},
						{
							"internalType": "enum SupplyChainTracker.TransferStatus",
							"name": "status",
							"type": "uint8"
						}
					],
					"stateMutability": "view",
					"type": "function"
				},
				{
					"inputs": [
						{
							"internalType": "uint256",
							"name": "",
							"type": "uint256"
						}
					],
					"name": "users",
					"outputs": [
						{
							"internalType": "uint256",
							"name": "id",
							"type": "uint256"
						},
						{
							"internalType": "address",
							"name": "userAddress",
							"type": "address"
						},
						{
							"internalType": "bytes32",
							"name": "role",
							"type": "bytes32"
						},
						{
							"internalType": "enum SupplyChainTracker.UserStatus",
							"name": "status",
							"type": "uint8"
						}
					],
					"stateMutability": "view",
					"type": "function"
				}
			],
			"devdoc": {
				"errors": {
					"ReentrancyGuardReentrantCall()": [
						{
							"details": "Unauthorized reentrant call."
						}
					]
				},
				"kind": "dev",
				"methods": {},
				"version": 1
			},
			"evm": {
				"assembly": "    /* \"src/SupplyChain.sol\":356:9328  contract SupplyChainTracker is ReentrancyGuard {... */\n  mstore(0x40, 0xa0)\n    /* \"src/SupplyChain.sol\":1513:1514  1 */\n  0x01\n    /* \"src/SupplyChain.sol\":1484:1514  uint256 public nextTokenId = 1 */\n  0x00\n  sstore\n    /* \"src/SupplyChain.sol\":1552:1553  1 */\n  0x01\n    /* \"src/SupplyChain.sol\":1520:1553  uint256 public nextTransferId = 1 */\n  dup1\n  sstore\n    /* \"src/SupplyChain.sol\":1587:1588  1 */\n  0x01\n    /* \"src/SupplyChain.sol\":1559:1588  uint256 public nextUserId = 1 */\n  0x02\n  sstore\n    /* \"src/SupplyChain.sol\":2621:2670  constructor() {... */\n  callvalue\n  dup1\n  iszero\n  tag_1\n  jumpi\n  revert(0x00, 0x00)\ntag_1:\n  pop\n    /* \"@openzeppelin/contracts/utils/ReentrancyGuard.sol\":2365:2366  1 */\n  0x01\n    /* \"@openzeppelin/contracts/utils/ReentrancyGuard.sol\":2539:2585  _reentrancyGuardStorageSlot().getUint256Slot() */\n  tag_5\n    /* \"@openzeppelin/contracts/utils/ReentrancyGuard.sol\":2539:2568  _reentrancyGuardStorageSlot() */\n  tag_6\n    /* \"@openzeppelin/contracts/utils/ReentrancyGuard.sol\":2539:2566  _reentrancyGuardStorageSlot */\n  shl(0x20, tag_7)\n    /* \"@openzeppelin/contracts/utils/ReentrancyGuard.sol\":2539:2568  _reentrancyGuardStorageSlot() */\n  0x20\n  shr\n  jump\t// in\ntag_6:\n    /* \"@openzeppelin/contracts/utils/ReentrancyGuard.sol\":2539:2583  _reentrancyGuardStorageSlot().getUint256Slot */\n  shl(0x20, tag_8)\n    /* \"@openzeppelin/contracts/utils/ReentrancyGuard.sol\":2539:2585  _reentrancyGuardStorageSlot().getUint256Slot() */\n  0x20\n  shr\n  jump\t// in\ntag_5:\n    /* \"@openzeppelin/contracts/utils/ReentrancyGuard.sol\":2539:2591  _reentrancyGuardStorageSlot().getUint256Slot().value */\n  0x00\n  add\n    /* \"@openzeppelin/contracts/utils/ReentrancyGuard.sol\":2539:2605  _reentrancyGuardStorageSlot().getUint256Slot().value = NOT_ENTERED */\n  dup2\n  swap1\n  sstore\n  pop\n    /* \"src/SupplyChain.sol\":2653:2663  msg.sender */\n  caller\n    /* \"src/SupplyChain.sol\":2645:2663  admin = msg.sender */\n  0xffffffffffffffffffffffffffffffffffffffff\n  and\n  0x80\n  dup2\n  0xffffffffffffffffffffffffffffffffffffffff\n  and\n  dup2\n  mstore\n  pop\n  pop\n    /* \"src/SupplyChain.sol\":356:9328  contract SupplyChainTracker is ReentrancyGuard {... */\n  jump(tag_10)\n    /* \"@openzeppelin/contracts/utils/ReentrancyGuard.sol\":4636:4763  function _reentrancyGuardStorageSlot() internal pure virtual returns (bytes32) {... */\ntag_7:\n    /* \"@openzeppelin/contracts/utils/ReentrancyGuard.sol\":4706:4713  bytes32 */\n  0x00\n    /* \"@openzeppelin/contracts/utils/ReentrancyGuard.sol\":1505:1571  0x9b779b17422d0df92223018b32b4d1fa46e071723d6817e2486d003becc55f00 */\n  0x9b779b17422d0df92223018b32b4d1fa46e071723d6817e2486d003becc55f00\n    /* \"@openzeppelin/contracts/utils/ReentrancyGuard.sol\":4732:4756  REENTRANCY_GUARD_STORAGE */\n  0x00\n  shl\n    /* \"@openzeppelin/contracts/utils/ReentrancyGuard.sol\":4725:4756  return REENTRANCY_GUARD_STORAGE */\n  swap1\n  pop\n    /* \"@openzeppelin/contracts/utils/ReentrancyGuard.sol\":4636:4763  function _reentrancyGuardStorageSlot() internal pure virtual returns (bytes32) {... */\n  swap1\n  jump\t// out\n    /* \"@openzeppelin/contracts/utils/StorageSlot.sol\":2679:2842  function getUint256Slot(bytes32 slot) internal pure returns (Uint256Slot storage r) {... */\ntag_8:\n    /* \"@openzeppelin/contracts/utils/StorageSlot.sol\":2740:2761  Uint256Slot storage r */\n  0x00\n    /* \"@openzeppelin/contracts/utils/StorageSlot.sol\":2822:2826  slot */\n  dup2\n    /* \"@openzeppelin/contracts/utils/StorageSlot.sol\":2812:2826  r.slot := slot */\n  swap1\n  pop\n    /* \"@openzeppelin/contracts/utils/StorageSlot.sol\":2679:2842  function getUint256Slot(bytes32 slot) internal pure returns (Uint256Slot storage r) {... */\n  swap2\n  swap1\n  pop\n  jump\t// out\n    /* \"src/SupplyChain.sol\":356:9328  contract SupplyChainTracker is ReentrancyGuard {... */\ntag_10:\n  mload(0x80)\n  codecopy(0x00, dataOffset(sub_0), dataSize(sub_0))\n  0x00\n  assignImmutable(\"0x7aec2e6420b6fcb778a66c2b9d8fa18a316e494bda11ec5e5a11deee861d114c\")\n  return(0x00, dataSize(sub_0))\nstop\n\nsub_0: assembly {\n        /* \"src/SupplyChain.sol\":356:9328  contract SupplyChainTracker is ReentrancyGuard {... */\n      mstore(0x40, 0x80)\n      callvalue\n      dup1\n      iszero\n      tag_1\n      jumpi\n      revert(0x00, 0x00)\n    tag_1:\n      pop\n      jumpi(tag_2, lt(calldatasize, 0x04))\n      shr(0xe0, calldataload(0x00))\n      dup1\n      0x75794a3c\n      gt\n      tag_22\n      jumpi\n      dup1\n      0xb85b381b\n      gt\n      tag_23\n      jumpi\n      dup1\n      0xb85b381b\n      eq\n      tag_17\n      jumpi\n      dup1\n      0xd67b2d08\n      eq\n      tag_18\n      jumpi\n      dup1\n      0xe4b50cb8\n      eq\n      tag_19\n      jumpi\n      dup1\n      0xef57e2d2\n      eq\n      tag_20\n      jumpi\n      dup1\n      0xf851a440\n      eq\n      tag_21\n      jumpi\n      jump(tag_2)\n    tag_23:\n      dup1\n      0x75794a3c\n      eq\n      tag_12\n      jumpi\n      dup1\n      0x8782dc00\n      eq\n      tag_13\n      jumpi\n      dup1\n      0x9377d711\n      eq\n      tag_14\n      jumpi\n      dup1\n      0xa1e6a255\n      eq\n      tag_15\n      jumpi\n      dup1\n      0xb5ffbbcc\n      eq\n      tag_16\n      jumpi\n      jump(tag_2)\n    tag_22:\n      dup1\n      0x365b98b2\n      gt\n      tag_24\n      jumpi\n      dup1\n      0x365b98b2\n      eq\n      tag_7\n      jumpi\n      dup1\n      0x49217ca4\n      eq\n      tag_8\n      jumpi\n      dup1\n      0x4f64b2be\n      eq\n      tag_9\n      jumpi\n      dup1\n      0x519dc8d2\n      eq\n      tag_10\n      jumpi\n      dup1\n      0x6386c1c7\n      eq\n      tag_11\n      jumpi\n      jump(tag_2)\n    tag_24:\n      dup1\n      0x095bcdb6\n      eq\n      tag_3\n      jumpi\n      dup1\n      0x12effc32\n      eq\n      tag_4\n      jumpi\n      dup1\n      0x274fae7c\n      eq\n      tag_5\n      jumpi\n      dup1\n      0x335d3410\n      eq\n      tag_6\n      jumpi\n    tag_2:\n      revert(0x00, 0x00)\n        /* \"src/SupplyChain.sol\":5431:6672  function transfer(address to, uint256 tokenId, uint256 amount) public onlyApprovedUser nonReentrant {... */\n    tag_3:\n      tag_25\n      0x04\n      dup1\n      calldatasize\n      sub\n      dup2\n      add\n      swap1\n      tag_26\n      swap2\n      swap1\n      tag_27\n      jump\t// in\n    tag_26:\n      tag_28\n      jump\t// in\n    tag_25:\n      stop\n        /* \"src/SupplyChain.sol\":7186:7638  function rejectTransfer(uint256 transferId) public nonReentrant {... */\n    tag_4:\n      tag_29\n      0x04\n      dup1\n      calldatasize\n      sub\n      dup2\n      add\n      swap1\n      tag_30\n      swap2\n      swap1\n      tag_31\n      jump\t// in\n    tag_30:\n      tag_32\n      jump\t// in\n    tag_29:\n      stop\n        /* \"src/SupplyChain.sol\":6678:7180  function acceptTransfer(uint256 transferId) public onlyApprovedUser {... */\n    tag_5:\n      tag_33\n      0x04\n      dup1\n      calldatasize\n      sub\n      dup2\n      add\n      swap1\n      tag_34\n      swap2\n      swap1\n      tag_31\n      jump\t// in\n    tag_34:\n      tag_35\n      jump\t// in\n    tag_33:\n      stop\n        /* \"src/SupplyChain.sol\":8767:9326  function getUserTransfers(address user) public view returns (uint256[] memory) {... */\n    tag_6:\n      tag_36\n      0x04\n      dup1\n      calldatasize\n      sub\n      dup2\n      add\n      swap1\n      tag_37\n      swap2\n      swap1\n      tag_38\n      jump\t// in\n    tag_37:\n      tag_39\n      jump\t// in\n    tag_36:\n      mload(0x40)\n      tag_40\n      swap2\n      swap1\n      tag_41\n      jump\t// in\n    tag_40:\n      mload(0x40)\n      dup1\n      swap2\n      sub\n      swap1\n      return\n        /* \"src/SupplyChain.sol\":1691:1728  mapping(uint256 => User) public users */\n    tag_7:\n      tag_42\n      0x04\n      dup1\n      calldatasize\n      sub\n      dup2\n      add\n      swap1\n      tag_43\n      swap2\n      swap1\n      tag_31\n      jump\t// in\n    tag_43:\n      tag_44\n      jump\t// in\n    tag_42:\n      mload(0x40)\n      tag_45\n      swap5\n      swap4\n      swap3\n      swap2\n      swap1\n      tag_46\n      jump\t// in\n    tag_45:\n      mload(0x40)\n      dup1\n      swap2\n      sub\n      swap1\n      return\n        /* \"src/SupplyChain.sol\":2707:3396  function requestUserRole(bytes32 role) public {... */\n    tag_8:\n      tag_47\n      0x04\n      dup1\n      calldatasize\n      sub\n      dup2\n      add\n      swap1\n      tag_48\n      swap2\n      swap1\n      tag_49\n      jump\t// in\n    tag_48:\n      tag_50\n      jump\t// in\n    tag_47:\n      stop\n        /* \"src/SupplyChain.sol\":1595:1634  mapping(uint256 => Token) public tokens */\n    tag_9:\n      tag_51\n      0x04\n      dup1\n      calldatasize\n      sub\n      dup2\n      add\n      swap1\n      tag_52\n      swap2\n      swap1\n      tag_31\n      jump\t// in\n    tag_52:\n      tag_53\n      jump\t// in\n    tag_51:\n      mload(0x40)\n      tag_54\n      swap8\n      swap7\n      swap6\n      swap5\n      swap4\n      swap3\n      swap2\n      swap1\n      tag_55\n      jump\t// in\n    tag_54:\n      mload(0x40)\n      dup1\n      swap2\n      sub\n      swap1\n      return\n        /* \"src/SupplyChain.sol\":8144:8761  function getUserTokens(address user) public view returns (uint256[] memory) {... */\n    tag_10:\n      tag_56\n      0x04\n      dup1\n      calldatasize\n      sub\n      dup2\n      add\n      swap1\n      tag_57\n      swap2\n      swap1\n      tag_38\n      jump\t// in\n    tag_57:\n      tag_58\n      jump\t// in\n    tag_56:\n      mload(0x40)\n      tag_59\n      swap2\n      swap1\n      tag_41\n      jump\t// in\n    tag_59:\n      mload(0x40)\n      dup1\n      swap2\n      sub\n      swap1\n      return\n        /* \"src/SupplyChain.sol\":3702:3931  function getUserInfo(address userAddress) public view returns (User memory) {... */\n    tag_11:\n      tag_60\n      0x04\n      dup1\n      calldatasize\n      sub\n      dup2\n      add\n      swap1\n      tag_61\n      swap2\n      swap1\n      tag_38\n      jump\t// in\n    tag_61:\n      tag_62\n      jump\t// in\n    tag_60:\n      mload(0x40)\n      tag_63\n      swap2\n      swap1\n      tag_64\n      jump\t// in\n    tag_63:\n      mload(0x40)\n      dup1\n      swap2\n      sub\n      swap1\n      return\n        /* \"src/SupplyChain.sol\":1484:1514  uint256 public nextTokenId = 1 */\n    tag_12:\n      tag_65\n      tag_66\n      jump\t// in\n    tag_65:\n      mload(0x40)\n      tag_67\n      swap2\n      swap1\n      tag_68\n      jump\t// in\n    tag_67:\n      mload(0x40)\n      dup1\n      swap2\n      sub\n      swap1\n      return\n        /* \"src/SupplyChain.sol\":3402:3696  function changeStatusUser(address userAddress, UserStatus newStatus) public onlyAdmin {... */\n    tag_13:\n      tag_69\n      0x04\n      dup1\n      calldatasize\n      sub\n      dup2\n      add\n      swap1\n      tag_70\n      swap2\n      swap1\n      tag_71\n      jump\t// in\n    tag_70:\n      tag_72\n      jump\t// in\n    tag_69:\n      stop\n        /* \"src/SupplyChain.sol\":1640:1685  mapping(uint256 => Transfer) public transfers */\n    tag_14:\n      tag_73\n      0x04\n      dup1\n      calldatasize\n      sub\n      dup2\n      add\n      swap1\n      tag_74\n      swap2\n      swap1\n      tag_31\n      jump\t// in\n    tag_74:\n      tag_75\n      jump\t// in\n    tag_73:\n      mload(0x40)\n      tag_76\n      swap8\n      swap7\n      swap6\n      swap5\n      swap4\n      swap3\n      swap2\n      swap1\n      tag_77\n      jump\t// in\n    tag_76:\n      mload(0x40)\n      dup1\n      swap2\n      sub\n      swap1\n      return\n        /* \"src/SupplyChain.sol\":1559:1588  uint256 public nextUserId = 1 */\n    tag_15:\n      tag_78\n      tag_79\n      jump\t// in\n    tag_78:\n      mload(0x40)\n      tag_80\n      swap2\n      swap1\n      tag_68\n      jump\t// in\n    tag_80:\n      mload(0x40)\n      dup1\n      swap2\n      sub\n      swap1\n      return\n        /* \"src/SupplyChain.sol\":1734:1784  mapping(address => uint256) public addressToUserId */\n    tag_16:\n      tag_81\n      0x04\n      dup1\n      calldatasize\n      sub\n      dup2\n      add\n      swap1\n      tag_82\n      swap2\n      swap1\n      tag_38\n      jump\t// in\n    tag_82:\n      tag_83\n      jump\t// in\n    tag_81:\n      mload(0x40)\n      tag_84\n      swap2\n      swap1\n      tag_68\n      jump\t// in\n    tag_84:\n      mload(0x40)\n      dup1\n      swap2\n      sub\n      swap1\n      return\n        /* \"src/SupplyChain.sol\":1520:1553  uint256 public nextTransferId = 1 */\n    tag_17:\n      tag_85\n      tag_86\n      jump\t// in\n    tag_85:\n      mload(0x40)\n      tag_87\n      swap2\n      swap1\n      tag_68\n      jump\t// in\n    tag_87:\n      mload(0x40)\n      dup1\n      swap2\n      sub\n      swap1\n      return\n        /* \"src/SupplyChain.sol\":3969:4648  function createToken(... */\n    tag_18:\n      tag_88\n      0x04\n      dup1\n      calldatasize\n      sub\n      dup2\n      add\n      swap1\n      tag_89\n      swap2\n      swap1\n      tag_90\n      jump\t// in\n    tag_89:\n      tag_91\n      jump\t// in\n    tag_88:\n      stop\n        /* \"src/SupplyChain.sol\":4654:5181  function getToken(uint256 tokenId) public view returns (... */\n    tag_19:\n      tag_92\n      0x04\n      dup1\n      calldatasize\n      sub\n      dup2\n      add\n      swap1\n      tag_93\n      swap2\n      swap1\n      tag_31\n      jump\t// in\n    tag_93:\n      tag_94\n      jump\t// in\n    tag_92:\n      mload(0x40)\n      tag_95\n      swap8\n      swap7\n      swap6\n      swap5\n      swap4\n      swap3\n      swap2\n      swap1\n      tag_96\n      jump\t// in\n    tag_95:\n      mload(0x40)\n      dup1\n      swap2\n      sub\n      swap1\n      return\n        /* \"src/SupplyChain.sol\":5187:5390  function getTokenBalance(uint256 tokenId, address user) public view returns (uint256) {... */\n    tag_20:\n      tag_97\n      0x04\n      dup1\n      calldatasize\n      sub\n      dup2\n      add\n      swap1\n      tag_98\n      swap2\n      swap1\n      tag_99\n      jump\t// in\n    tag_98:\n      tag_100\n      jump\t// in\n    tag_97:\n      mload(0x40)\n      tag_101\n      swap2\n      swap1\n      tag_68\n      jump\t// in\n    tag_101:\n      mload(0x40)\n      dup1\n      swap2\n      sub\n      swap1\n      return\n        /* \"src/SupplyChain.sol\":1448:1478  address public immutable admin */\n    tag_21:\n      tag_102\n      tag_103\n      jump\t// in\n    tag_102:\n      mload(0x40)\n      tag_104\n      swap2\n      swap1\n      tag_105\n      jump\t// in\n    tag_104:\n      mload(0x40)\n      dup1\n      swap2\n      sub\n      swap1\n      return\n        /* \"src/SupplyChain.sol\":5431:6672  function transfer(address to, uint256 tokenId, uint256 amount) public onlyApprovedUser nonReentrant {... */\n    tag_28:\n        /* \"src/SupplyChain.sol\":2460:2474  uint256 userId */\n      0x00\n        /* \"src/SupplyChain.sol\":2477:2492  addressToUserId */\n      0x06\n        /* \"src/SupplyChain.sol\":2477:2504  addressToUserId[msg.sender] */\n      0x00\n        /* \"src/SupplyChain.sol\":2493:2503  msg.sender */\n      caller\n        /* \"src/SupplyChain.sol\":2477:2504  addressToUserId[msg.sender] */\n      0xffffffffffffffffffffffffffffffffffffffff\n      and\n      0xffffffffffffffffffffffffffffffffffffffff\n      and\n      dup2\n      mstore\n      0x20\n      add\n      swap1\n      dup2\n      mstore\n      0x20\n      add\n      0x00\n      keccak256\n      sload\n        /* \"src/SupplyChain.sol\":2460:2504  uint256 userId = addressToUserId[msg.sender] */\n      swap1\n      pop\n        /* \"src/SupplyChain.sol\":2532:2533  0 */\n      0x00\n        /* \"src/SupplyChain.sol\":2522:2528  userId */\n      dup2\n        /* \"src/SupplyChain.sol\":2522:2533  userId != 0 */\n      eq\n      iszero\n        /* \"src/SupplyChain.sol\":2522:2580  userId != 0 && users[userId].status == UserStatus.Approved */\n      dup1\n      iszero\n      tag_107\n      jumpi\n      pop\n        /* \"src/SupplyChain.sol\":2561:2580  UserStatus.Approved */\n      0x01\n        /* \"src/SupplyChain.sol\":2537:2580  users[userId].status == UserStatus.Approved */\n      0x03\n      dup2\n      gt\n      iszero\n      tag_108\n      jumpi\n      tag_109\n      tag_110\n      jump\t// in\n    tag_109:\n    tag_108:\n        /* \"src/SupplyChain.sol\":2537:2542  users */\n      0x05\n        /* \"src/SupplyChain.sol\":2537:2550  users[userId] */\n      0x00\n        /* \"src/SupplyChain.sol\":2543:2549  userId */\n      dup4\n        /* \"src/SupplyChain.sol\":2537:2550  users[userId] */\n      dup2\n      mstore\n      0x20\n      add\n      swap1\n      dup2\n      mstore\n      0x20\n      add\n      0x00\n      keccak256\n        /* \"src/SupplyChain.sol\":2537:2557  users[userId].status */\n      0x03\n      add\n      0x00\n      swap1\n      sload\n      swap1\n      0x0100\n      exp\n      swap1\n      div\n      0xff\n      and\n        /* \"src/SupplyChain.sol\":2537:2580  users[userId].status == UserStatus.Approved */\n      0x03\n      dup2\n      gt\n      iszero\n      tag_111\n      jumpi\n      tag_112\n      tag_110\n      jump\t// in\n    tag_112:\n    tag_111:\n      eq\n        /* \"src/SupplyChain.sol\":2522:2580  userId != 0 && users[userId].status == UserStatus.Approved */\n    tag_107:\n        /* \"src/SupplyChain.sol\":2514:2597  require(userId != 0 && users[userId].status == UserStatus.Approved, \"Not approved\") */\n      tag_113\n      jumpi\n      mload(0x40)\n      0x08c379a000000000000000000000000000000000000000000000000000000000\n      dup2\n      mstore\n      0x04\n      add\n      tag_114\n      swap1\n      tag_115\n      jump\t// in\n    tag_114:\n      mload(0x40)\n      dup1\n      swap2\n      sub\n      swap1\n      revert\n    tag_113:\n        /* \"@openzeppelin/contracts/utils/ReentrancyGuard.sol\":3023:3044  _nonReentrantBefore() */\n      tag_117\n        /* \"@openzeppelin/contracts/utils/ReentrancyGuard.sol\":3023:3042  _nonReentrantBefore */\n      tag_118\n        /* \"@openzeppelin/contracts/utils/ReentrancyGuard.sol\":3023:3044  _nonReentrantBefore() */\n      jump\t// in\n    tag_117:\n        /* \"src/SupplyChain.sol\":5563:5564  0 */\n      0x00\n        /* \"src/SupplyChain.sol\":5549:5565  to != address(0) */\n      0xffffffffffffffffffffffffffffffffffffffff\n      and\n        /* \"src/SupplyChain.sol\":5549:5551  to */\n      dup5\n        /* \"src/SupplyChain.sol\":5549:5565  to != address(0) */\n      0xffffffffffffffffffffffffffffffffffffffff\n      and\n      eq\n      iszero\n        /* \"src/SupplyChain.sol\":5549:5585  to != address(0) && to != msg.sender */\n      dup1\n      iszero\n      tag_120\n      jumpi\n      pop\n        /* \"src/SupplyChain.sol\":5575:5585  msg.sender */\n      caller\n        /* \"src/SupplyChain.sol\":5569:5585  to != msg.sender */\n      0xffffffffffffffffffffffffffffffffffffffff\n      and\n        /* \"src/SupplyChain.sol\":5569:5571  to */\n      dup5\n        /* \"src/SupplyChain.sol\":5569:5585  to != msg.sender */\n      0xffffffffffffffffffffffffffffffffffffffff\n      and\n      eq\n      iszero\n        /* \"src/SupplyChain.sol\":5549:5585  to != address(0) && to != msg.sender */\n    tag_120:\n        /* \"src/SupplyChain.sol\":5541:5607  require(to != address(0) && to != msg.sender, \"Invalid recipient\") */\n      tag_121\n      jumpi\n      mload(0x40)\n      0x08c379a000000000000000000000000000000000000000000000000000000000\n      dup2\n      mstore\n      0x04\n      add\n      tag_122\n      swap1\n      tag_123\n      jump\t// in\n    tag_122:\n      mload(0x40)\n      dup1\n      swap2\n      sub\n      swap1\n      revert\n    tag_121:\n        /* \"src/SupplyChain.sol\":5634:5635  0 */\n      0x00\n        /* \"src/SupplyChain.sol\":5625:5631  amount */\n      dup3\n        /* \"src/SupplyChain.sol\":5625:5635  amount > 0 */\n      gt\n        /* \"src/SupplyChain.sol\":5617:5658  require(amount > 0, \"Amount must be > 0\") */\n      tag_124\n      jumpi\n      mload(0x40)\n      0x08c379a000000000000000000000000000000000000000000000000000000000\n      dup2\n      mstore\n      0x04\n      add\n      tag_125\n      swap1\n      tag_126\n      jump\t// in\n    tag_125:\n      mload(0x40)\n      dup1\n      swap2\n      sub\n      swap1\n      revert\n    tag_124:\n        /* \"src/SupplyChain.sol\":5686:5697  nextTokenId */\n      sload(0x00)\n        /* \"src/SupplyChain.sol\":5676:5683  tokenId */\n      dup4\n        /* \"src/SupplyChain.sol\":5676:5697  tokenId < nextTokenId */\n      lt\n        /* \"src/SupplyChain.sol\":5668:5722  require(tokenId < nextTokenId, \"Token does not exist\") */\n      tag_127\n      jumpi\n      mload(0x40)\n      0x08c379a000000000000000000000000000000000000000000000000000000000\n      dup2\n      mstore\n      0x04\n      add\n      tag_128\n      swap1\n      tag_129\n      jump\t// in\n    tag_128:\n      mload(0x40)\n      dup1\n      swap2\n      sub\n      swap1\n      revert\n    tag_127:\n        /* \"src/SupplyChain.sol\":5733:5747  uint256 userId */\n      0x00\n        /* \"src/SupplyChain.sol\":5750:5765  addressToUserId */\n      0x06\n        /* \"src/SupplyChain.sol\":5750:5777  addressToUserId[msg.sender] */\n      0x00\n        /* \"src/SupplyChain.sol\":5766:5776  msg.sender */\n      caller\n        /* \"src/SupplyChain.sol\":5750:5777  addressToUserId[msg.sender] */\n      0xffffffffffffffffffffffffffffffffffffffff\n      and\n      0xffffffffffffffffffffffffffffffffffffffff\n      and\n      dup2\n      mstore\n      0x20\n      add\n      swap1\n      dup2\n      mstore\n      0x20\n      add\n      0x00\n      keccak256\n      sload\n        /* \"src/SupplyChain.sol\":5733:5777  uint256 userId = addressToUserId[msg.sender] */\n      swap1\n      pop\n        /* \"src/SupplyChain.sol\":5787:5799  uint256 toId */\n      0x00\n        /* \"src/SupplyChain.sol\":5802:5817  addressToUserId */\n      0x06\n        /* \"src/SupplyChain.sol\":5802:5821  addressToUserId[to] */\n      0x00\n        /* \"src/SupplyChain.sol\":5818:5820  to */\n      dup8\n        /* \"src/SupplyChain.sol\":5802:5821  addressToUserId[to] */\n      0xffffffffffffffffffffffffffffffffffffffff\n      and\n      0xffffffffffffffffffffffffffffffffffffffff\n      and\n      dup2\n      mstore\n      0x20\n      add\n      swap1\n      dup2\n      mstore\n      0x20\n      add\n      0x00\n      keccak256\n      sload\n        /* \"src/SupplyChain.sol\":5787:5821  uint256 toId = addressToUserId[to] */\n      swap1\n      pop\n        /* \"src/SupplyChain.sol\":5847:5848  0 */\n      0x00\n        /* \"src/SupplyChain.sol\":5839:5843  toId */\n      dup2\n        /* \"src/SupplyChain.sol\":5839:5848  toId != 0 */\n      sub\n        /* \"src/SupplyChain.sol\":5831:5877  require(toId != 0, \"Recipient not registered\") */\n      tag_130\n      jumpi\n      mload(0x40)\n      0x08c379a000000000000000000000000000000000000000000000000000000000\n      dup2\n      mstore\n      0x04\n      add\n      tag_131\n      swap1\n      tag_132\n      jump\t// in\n    tag_131:\n      mload(0x40)\n      dup1\n      swap2\n      sub\n      swap1\n      revert\n    tag_130:\n        /* \"src/SupplyChain.sol\":5896:5927  _isConsumer(users[userId].role) */\n      tag_133\n        /* \"src/SupplyChain.sol\":5908:5913  users */\n      0x05\n        /* \"src/SupplyChain.sol\":5908:5921  users[userId] */\n      0x00\n        /* \"src/SupplyChain.sol\":5914:5920  userId */\n      dup5\n        /* \"src/SupplyChain.sol\":5908:5921  users[userId] */\n      dup2\n      mstore\n      0x20\n      add\n      swap1\n      dup2\n      mstore\n      0x20\n      add\n      0x00\n      keccak256\n        /* \"src/SupplyChain.sol\":5908:5926  users[userId].role */\n      0x02\n      add\n      sload\n        /* \"src/SupplyChain.sol\":5896:5907  _isConsumer */\n      tag_134\n        /* \"src/SupplyChain.sol\":5896:5927  _isConsumer(users[userId].role) */\n      jump\t// in\n    tag_133:\n        /* \"src/SupplyChain.sol\":5895:5927  !_isConsumer(users[userId].role) */\n      iszero\n        /* \"src/SupplyChain.sol\":5887:5956  require(!_isConsumer(users[userId].role), \"Consumer cannot transfer\") */\n      tag_135\n      jumpi\n      mload(0x40)\n      0x08c379a000000000000000000000000000000000000000000000000000000000\n      dup2\n      mstore\n      0x04\n      add\n      tag_136\n      swap1\n      tag_137\n      jump\t// in\n    tag_136:\n      mload(0x40)\n      dup1\n      swap2\n      sub\n      swap1\n      revert\n    tag_135:\n        /* \"src/SupplyChain.sol\":5974:6023  _isNextRole(users[userId].role, users[toId].role) */\n      tag_138\n        /* \"src/SupplyChain.sol\":5986:5991  users */\n      0x05\n        /* \"src/SupplyChain.sol\":5986:5999  users[userId] */\n      0x00\n        /* \"src/SupplyChain.sol\":5992:5998  userId */\n      dup5\n        /* \"src/SupplyChain.sol\":5986:5999  users[userId] */\n      dup2\n      mstore\n      0x20\n      add\n      swap1\n      dup2\n      mstore\n      0x20\n      add\n      0x00\n      keccak256\n        /* \"src/SupplyChain.sol\":5986:6004  users[userId].role */\n      0x02\n      add\n      sload\n        /* \"src/SupplyChain.sol\":6006:6011  users */\n      0x05\n        /* \"src/SupplyChain.sol\":6006:6017  users[toId] */\n      0x00\n        /* \"src/SupplyChain.sol\":6012:6016  toId */\n      dup5\n        /* \"src/SupplyChain.sol\":6006:6017  users[toId] */\n      dup2\n      mstore\n      0x20\n      add\n      swap1\n      dup2\n      mstore\n      0x20\n      add\n      0x00\n      keccak256\n        /* \"src/SupplyChain.sol\":6006:6022  users[toId].role */\n      0x02\n      add\n      sload\n        /* \"src/SupplyChain.sol\":5974:5985  _isNextRole */\n      tag_139\n        /* \"src/SupplyChain.sol\":5974:6023  _isNextRole(users[userId].role, users[toId].role) */\n      jump\t// in\n    tag_138:\n        /* \"src/SupplyChain.sol\":5966:6051  require(_isNextRole(users[userId].role, users[toId].role), \"Invalid role transition\") */\n      tag_140\n      jumpi\n      mload(0x40)\n      0x08c379a000000000000000000000000000000000000000000000000000000000\n      dup2\n      mstore\n      0x04\n      add\n      tag_141\n      swap1\n      tag_142\n      jump\t// in\n    tag_141:\n      mload(0x40)\n      dup1\n      swap2\n      sub\n      swap1\n      revert\n    tag_140:\n        /* \"src/SupplyChain.sol\":6062:6079  Token storage tkn */\n      0x00\n        /* \"src/SupplyChain.sol\":6082:6088  tokens */\n      0x03\n        /* \"src/SupplyChain.sol\":6082:6097  tokens[tokenId] */\n      0x00\n        /* \"src/SupplyChain.sol\":6089:6096  tokenId */\n      dup8\n        /* \"src/SupplyChain.sol\":6082:6097  tokens[tokenId] */\n      dup2\n      mstore\n      0x20\n      add\n      swap1\n      dup2\n      mstore\n      0x20\n      add\n      0x00\n      keccak256\n        /* \"src/SupplyChain.sol\":6062:6097  Token storage tkn = tokens[tokenId] */\n      swap1\n      pop\n        /* \"src/SupplyChain.sol\":6142:6148  amount */\n      dup5\n        /* \"src/SupplyChain.sol\":6115:6118  tkn */\n      dup2\n        /* \"src/SupplyChain.sol\":6115:6126  tkn.balance */\n      0x07\n      add\n        /* \"src/SupplyChain.sol\":6115:6138  tkn.balance[msg.sender] */\n      0x00\n        /* \"src/SupplyChain.sol\":6127:6137  msg.sender */\n      caller\n        /* \"src/SupplyChain.sol\":6115:6138  tkn.balance[msg.sender] */\n      0xffffffffffffffffffffffffffffffffffffffff\n      and\n      0xffffffffffffffffffffffffffffffffffffffff\n      and\n      dup2\n      mstore\n      0x20\n      add\n      swap1\n      dup2\n      mstore\n      0x20\n      add\n      0x00\n      keccak256\n      sload\n        /* \"src/SupplyChain.sol\":6115:6148  tkn.balance[msg.sender] >= amount */\n      lt\n      iszero\n        /* \"src/SupplyChain.sol\":6107:6173  require(tkn.balance[msg.sender] >= amount, \"Insufficient balance\") */\n      tag_143\n      jumpi\n      mload(0x40)\n      0x08c379a000000000000000000000000000000000000000000000000000000000\n      dup2\n      mstore\n      0x04\n      add\n      tag_144\n      swap1\n      tag_145\n      jump\t// in\n    tag_144:\n      mload(0x40)\n      dup1\n      swap2\n      sub\n      swap1\n      revert\n    tag_143:\n        /* \"src/SupplyChain.sol\":6211:6217  amount */\n      dup5\n        /* \"src/SupplyChain.sol\":6184:6187  tkn */\n      dup2\n        /* \"src/SupplyChain.sol\":6184:6195  tkn.balance */\n      0x07\n      add\n        /* \"src/SupplyChain.sol\":6184:6207  tkn.balance[msg.sender] */\n      0x00\n        /* \"src/SupplyChain.sol\":6196:6206  msg.sender */\n      caller\n        /* \"src/SupplyChain.sol\":6184:6207  tkn.balance[msg.sender] */\n      0xffffffffffffffffffffffffffffffffffffffff\n      and\n      0xffffffffffffffffffffffffffffffffffffffff\n      and\n      dup2\n      mstore\n      0x20\n      add\n      swap1\n      dup2\n      mstore\n      0x20\n      add\n      0x00\n      keccak256\n      0x00\n        /* \"src/SupplyChain.sol\":6184:6217  tkn.balance[msg.sender] -= amount */\n      dup3\n      dup3\n      sload\n      tag_146\n      swap2\n      swap1\n      tag_147\n      jump\t// in\n    tag_146:\n      swap3\n      pop\n      pop\n      dup2\n      swap1\n      sstore\n      pop\n        /* \"src/SupplyChain.sol\":6246:6252  amount */\n      dup5\n        /* \"src/SupplyChain.sol\":6227:6230  tkn */\n      dup2\n        /* \"src/SupplyChain.sol\":6227:6238  tkn.balance */\n      0x07\n      add\n        /* \"src/SupplyChain.sol\":6227:6242  tkn.balance[to] */\n      0x00\n        /* \"src/SupplyChain.sol\":6239:6241  to */\n      dup10\n        /* \"src/SupplyChain.sol\":6227:6242  tkn.balance[to] */\n      0xffffffffffffffffffffffffffffffffffffffff\n      and\n      0xffffffffffffffffffffffffffffffffffffffff\n      and\n      dup2\n      mstore\n      0x20\n      add\n      swap1\n      dup2\n      mstore\n      0x20\n      add\n      0x00\n      keccak256\n      0x00\n        /* \"src/SupplyChain.sol\":6227:6252  tkn.balance[to] += amount */\n      dup3\n      dup3\n      sload\n      tag_148\n      swap2\n      swap1\n      tag_149\n      jump\t// in\n    tag_148:\n      swap3\n      pop\n      pop\n      dup2\n      swap1\n      sstore\n      pop\n        /* \"src/SupplyChain.sol\":6263:6284  uint256 newTransferId */\n      0x00\n        /* \"src/SupplyChain.sol\":6287:6301  nextTransferId */\n      0x01\n      0x00\n        /* \"src/SupplyChain.sol\":6287:6303  nextTransferId++ */\n      dup2\n      sload\n      dup1\n      swap3\n      swap2\n      swap1\n      tag_150\n      swap1\n      tag_151\n      jump\t// in\n    tag_150:\n      swap2\n      swap1\n      pop\n      sstore\n        /* \"src/SupplyChain.sol\":6263:6303  uint256 newTransferId = nextTransferId++ */\n      swap1\n      pop\n        /* \"src/SupplyChain.sol\":6340:6585  Transfer({... */\n      mload(0x40)\n      dup1\n      0xe0\n      add\n      0x40\n      mstore\n      dup1\n        /* \"src/SupplyChain.sol\":6367:6380  newTransferId */\n      dup3\n        /* \"src/SupplyChain.sol\":6340:6585  Transfer({... */\n      dup2\n      mstore\n      0x20\n      add\n        /* \"src/SupplyChain.sol\":6400:6410  msg.sender */\n      caller\n        /* \"src/SupplyChain.sol\":6340:6585  Transfer({... */\n      0xffffffffffffffffffffffffffffffffffffffff\n      and\n      dup2\n      mstore\n      0x20\n      add\n        /* \"src/SupplyChain.sol\":6428:6430  to */\n      dup10\n        /* \"src/SupplyChain.sol\":6340:6585  Transfer({... */\n      0xffffffffffffffffffffffffffffffffffffffff\n      and\n      dup2\n      mstore\n      0x20\n      add\n        /* \"src/SupplyChain.sol\":6453:6460  tokenId */\n      dup9\n        /* \"src/SupplyChain.sol\":6340:6585  Transfer({... */\n      dup2\n      mstore\n      0x20\n      add\n        /* \"src/SupplyChain.sol\":6487:6502  block.timestamp */\n      timestamp\n        /* \"src/SupplyChain.sol\":6340:6585  Transfer({... */\n      dup2\n      mstore\n      0x20\n      add\n        /* \"src/SupplyChain.sol\":6524:6530  amount */\n      dup8\n        /* \"src/SupplyChain.sol\":6340:6585  Transfer({... */\n      dup2\n      mstore\n      0x20\n      add\n        /* \"src/SupplyChain.sol\":6552:6574  TransferStatus.Pending */\n      0x00\n        /* \"src/SupplyChain.sol\":6340:6585  Transfer({... */\n      0x02\n      dup2\n      gt\n      iszero\n      tag_152\n      jumpi\n      tag_153\n      tag_110\n      jump\t// in\n    tag_153:\n    tag_152:\n      dup2\n      mstore\n      pop\n        /* \"src/SupplyChain.sol\":6313:6322  transfers */\n      0x04\n        /* \"src/SupplyChain.sol\":6313:6337  transfers[newTransferId] */\n      0x00\n        /* \"src/SupplyChain.sol\":6323:6336  newTransferId */\n      dup4\n        /* \"src/SupplyChain.sol\":6313:6337  transfers[newTransferId] */\n      dup2\n      mstore\n      0x20\n      add\n      swap1\n      dup2\n      mstore\n      0x20\n      add\n      0x00\n      keccak256\n        /* \"src/SupplyChain.sol\":6313:6585  transfers[newTransferId] = Transfer({... */\n      0x00\n      dup3\n      add\n      mload\n      dup2\n      0x00\n      add\n      sstore\n      0x20\n      dup3\n      add\n      mload\n      dup2\n      0x01\n      add\n      exp(0x0100, 0x00)\n      dup2\n      sload\n      dup2\n      0xffffffffffffffffffffffffffffffffffffffff\n      mul\n      not\n      and\n      swap1\n      dup4\n      0xffffffffffffffffffffffffffffffffffffffff\n      and\n      mul\n      or\n      swap1\n      sstore\n      pop\n      0x40\n      dup3\n      add\n      mload\n      dup2\n      0x02\n      add\n      exp(0x0100, 0x00)\n      dup2\n      sload\n      dup2\n      0xffffffffffffffffffffffffffffffffffffffff\n      mul\n      not\n      and\n      swap1\n      dup4\n      0xffffffffffffffffffffffffffffffffffffffff\n      and\n      mul\n      or\n      swap1\n      sstore\n      pop\n      0x60\n      dup3\n      add\n      mload\n      dup2\n      0x03\n      add\n      sstore\n      0x80\n      dup3\n      add\n      mload\n      dup2\n      0x04\n      add\n      sstore\n      0xa0\n      dup3\n      add\n      mload\n      dup2\n      0x05\n      add\n      sstore\n      0xc0\n      dup3\n      add\n      mload\n      dup2\n      0x06\n      add\n      exp(0x0100, 0x00)\n      dup2\n      sload\n      dup2\n      0xff\n      mul\n      not\n      and\n      swap1\n      dup4\n      0x02\n      dup2\n      gt\n      iszero\n      tag_154\n      jumpi\n      tag_155\n      tag_110\n      jump\t// in\n    tag_155:\n    tag_154:\n      mul\n      or\n      swap1\n      sstore\n      pop\n      swap1\n      pop\n      pop\n        /* \"src/SupplyChain.sol\":6645:6647  to */\n      dup8\n        /* \"src/SupplyChain.sol\":6600:6665  TransferRequested(newTransferId, msg.sender, to, tokenId, amount) */\n      0xffffffffffffffffffffffffffffffffffffffff\n      and\n        /* \"src/SupplyChain.sol\":6633:6643  msg.sender */\n      caller\n        /* \"src/SupplyChain.sol\":6600:6665  TransferRequested(newTransferId, msg.sender, to, tokenId, amount) */\n      0xffffffffffffffffffffffffffffffffffffffff\n      and\n        /* \"src/SupplyChain.sol\":6618:6631  newTransferId */\n      dup3\n        /* \"src/SupplyChain.sol\":6600:6665  TransferRequested(newTransferId, msg.sender, to, tokenId, amount) */\n      0xc8262dc04f8f56abc884e1f58ca17a373610558a6cebc5e927b9e1c4668e5fdf\n        /* \"src/SupplyChain.sol\":6649:6656  tokenId */\n      dup11\n        /* \"src/SupplyChain.sol\":6658:6664  amount */\n      dup11\n        /* \"src/SupplyChain.sol\":6600:6665  TransferRequested(newTransferId, msg.sender, to, tokenId, amount) */\n      mload(0x40)\n      tag_156\n      swap3\n      swap2\n      swap1\n      tag_157\n      jump\t// in\n    tag_156:\n      mload(0x40)\n      dup1\n      swap2\n      sub\n      swap1\n      log4\n        /* \"src/SupplyChain.sol\":5531:6672  {... */\n      pop\n      pop\n      pop\n      pop\n        /* \"@openzeppelin/contracts/utils/ReentrancyGuard.sol\":3065:3085  _nonReentrantAfter() */\n      tag_158\n        /* \"@openzeppelin/contracts/utils/ReentrancyGuard.sol\":3065:3083  _nonReentrantAfter */\n      tag_159\n        /* \"@openzeppelin/contracts/utils/ReentrancyGuard.sol\":3065:3085  _nonReentrantAfter() */\n      jump\t// in\n    tag_158:\n        /* \"src/SupplyChain.sol\":2450:2615  {... */\n      pop\n        /* \"src/SupplyChain.sol\":5431:6672  function transfer(address to, uint256 tokenId, uint256 amount) public onlyApprovedUser nonReentrant {... */\n      pop\n      pop\n      pop\n      jump\t// out\n        /* \"src/SupplyChain.sol\":7186:7638  function rejectTransfer(uint256 transferId) public nonReentrant {... */\n    tag_32:\n        /* \"@openzeppelin/contracts/utils/ReentrancyGuard.sol\":3023:3044  _nonReentrantBefore() */\n      tag_161\n        /* \"@openzeppelin/contracts/utils/ReentrancyGuard.sol\":3023:3042  _nonReentrantBefore */\n      tag_118\n        /* \"@openzeppelin/contracts/utils/ReentrancyGuard.sol\":3023:3044  _nonReentrantBefore() */\n      jump\t// in\n    tag_161:\n        /* \"src/SupplyChain.sol\":7260:7279  Transfer storage tr */\n      0x00\n        /* \"src/SupplyChain.sol\":7282:7291  transfers */\n      0x04\n        /* \"src/SupplyChain.sol\":7282:7303  transfers[transferId] */\n      0x00\n        /* \"src/SupplyChain.sol\":7292:7302  transferId */\n      dup4\n        /* \"src/SupplyChain.sol\":7282:7303  transfers[transferId] */\n      dup2\n      mstore\n      0x20\n      add\n      swap1\n      dup2\n      mstore\n      0x20\n      add\n      0x00\n      keccak256\n        /* \"src/SupplyChain.sol\":7260:7303  Transfer storage tr = transfers[transferId] */\n      swap1\n      pop\n        /* \"src/SupplyChain.sol\":7334:7356  TransferStatus.Pending */\n      0x00\n        /* \"src/SupplyChain.sol\":7321:7356  tr.status == TransferStatus.Pending */\n      0x02\n      dup2\n      gt\n      iszero\n      tag_163\n      jumpi\n      tag_164\n      tag_110\n      jump\t// in\n    tag_164:\n    tag_163:\n        /* \"src/SupplyChain.sol\":7321:7323  tr */\n      dup2\n        /* \"src/SupplyChain.sol\":7321:7330  tr.status */\n      0x06\n      add\n      0x00\n      swap1\n      sload\n      swap1\n      0x0100\n      exp\n      swap1\n      div\n      0xff\n      and\n        /* \"src/SupplyChain.sol\":7321:7356  tr.status == TransferStatus.Pending */\n      0x02\n      dup2\n      gt\n      iszero\n      tag_165\n      jumpi\n      tag_166\n      tag_110\n      jump\t// in\n    tag_166:\n    tag_165:\n      eq\n        /* \"src/SupplyChain.sol\":7313:7372  require(tr.status == TransferStatus.Pending, \"Not pending\") */\n      tag_167\n      jumpi\n      mload(0x40)\n      0x08c379a000000000000000000000000000000000000000000000000000000000\n      dup2\n      mstore\n      0x04\n      add\n      tag_168\n      swap1\n      tag_169\n      jump\t// in\n    tag_168:\n      mload(0x40)\n      dup1\n      swap2\n      sub\n      swap1\n      revert\n    tag_167:\n        /* \"src/SupplyChain.sol\":7404:7406  tr */\n      dup1\n        /* \"src/SupplyChain.sol\":7404:7409  tr.to */\n      0x02\n      add\n      0x00\n      swap1\n      sload\n      swap1\n      0x0100\n      exp\n      swap1\n      div\n      0xffffffffffffffffffffffffffffffffffffffff\n      and\n        /* \"src/SupplyChain.sol\":7390:7409  msg.sender == tr.to */\n      0xffffffffffffffffffffffffffffffffffffffff\n      and\n        /* \"src/SupplyChain.sol\":7390:7400  msg.sender */\n      caller\n        /* \"src/SupplyChain.sol\":7390:7409  msg.sender == tr.to */\n      0xffffffffffffffffffffffffffffffffffffffff\n      and\n      eq\n        /* \"src/SupplyChain.sol\":7390:7432  msg.sender == tr.to || msg.sender == admin */\n      dup1\n      tag_170\n      jumpi\n      pop\n        /* \"src/SupplyChain.sol\":7427:7432  admin */\n      immutable(\"0x7aec2e6420b6fcb778a66c2b9d8fa18a316e494bda11ec5e5a11deee861d114c\")\n        /* \"src/SupplyChain.sol\":7413:7432  msg.sender == admin */\n      0xffffffffffffffffffffffffffffffffffffffff\n      and\n        /* \"src/SupplyChain.sol\":7413:7423  msg.sender */\n      caller\n        /* \"src/SupplyChain.sol\":7413:7432  msg.sender == admin */\n      0xffffffffffffffffffffffffffffffffffffffff\n      and\n      eq\n        /* \"src/SupplyChain.sol\":7390:7432  msg.sender == tr.to || msg.sender == admin */\n    tag_170:\n        /* \"src/SupplyChain.sol\":7382:7451  require(msg.sender == tr.to || msg.sender == admin, \"Not authorized\") */\n      tag_171\n      jumpi\n      mload(0x40)\n      0x08c379a000000000000000000000000000000000000000000000000000000000\n      dup2\n      mstore\n      0x04\n      add\n      tag_172\n      swap1\n      tag_173\n      jump\t// in\n    tag_172:\n      mload(0x40)\n      dup1\n      swap2\n      sub\n      swap1\n      revert\n    tag_171:\n        /* \"src/SupplyChain.sol\":7462:7479  Token storage tkn */\n      0x00\n        /* \"src/SupplyChain.sol\":7482:7488  tokens */\n      0x03\n        /* \"src/SupplyChain.sol\":7482:7500  tokens[tr.tokenId] */\n      0x00\n        /* \"src/SupplyChain.sol\":7489:7491  tr */\n      dup4\n        /* \"src/SupplyChain.sol\":7489:7499  tr.tokenId */\n      0x03\n      add\n      sload\n        /* \"src/SupplyChain.sol\":7482:7500  tokens[tr.tokenId] */\n      dup2\n      mstore\n      0x20\n      add\n      swap1\n      dup2\n      mstore\n      0x20\n      add\n      0x00\n      keccak256\n        /* \"src/SupplyChain.sol\":7462:7500  Token storage tkn = tokens[tr.tokenId] */\n      swap1\n      pop\n        /* \"src/SupplyChain.sol\":7534:7536  tr */\n      dup2\n        /* \"src/SupplyChain.sol\":7534:7543  tr.amount */\n      0x05\n      add\n      sload\n        /* \"src/SupplyChain.sol\":7510:7513  tkn */\n      dup2\n        /* \"src/SupplyChain.sol\":7510:7521  tkn.balance */\n      0x07\n      add\n        /* \"src/SupplyChain.sol\":7510:7530  tkn.balance[tr.from] */\n      0x00\n        /* \"src/SupplyChain.sol\":7522:7524  tr */\n      dup5\n        /* \"src/SupplyChain.sol\":7522:7529  tr.from */\n      0x01\n      add\n      0x00\n      swap1\n      sload\n      swap1\n      0x0100\n      exp\n      swap1\n      div\n      0xffffffffffffffffffffffffffffffffffffffff\n      and\n        /* \"src/SupplyChain.sol\":7510:7530  tkn.balance[tr.from] */\n      0xffffffffffffffffffffffffffffffffffffffff\n      and\n      0xffffffffffffffffffffffffffffffffffffffff\n      and\n      dup2\n      mstore\n      0x20\n      add\n      swap1\n      dup2\n      mstore\n      0x20\n      add\n      0x00\n      keccak256\n      0x00\n        /* \"src/SupplyChain.sol\":7510:7543  tkn.balance[tr.from] += tr.amount */\n      dup3\n      dup3\n      sload\n      tag_174\n      swap2\n      swap1\n      tag_149\n      jump\t// in\n    tag_174:\n      swap3\n      pop\n      pop\n      dup2\n      swap1\n      sstore\n      pop\n        /* \"src/SupplyChain.sol\":7565:7588  TransferStatus.Rejected */\n      0x02\n        /* \"src/SupplyChain.sol\":7553:7555  tr */\n      dup3\n        /* \"src/SupplyChain.sol\":7553:7562  tr.status */\n      0x06\n      add\n      0x00\n        /* \"src/SupplyChain.sol\":7553:7588  tr.status = TransferStatus.Rejected */\n      0x0100\n      exp\n      dup2\n      sload\n      dup2\n      0xff\n      mul\n      not\n      and\n      swap1\n      dup4\n      0x02\n      dup2\n      gt\n      iszero\n      tag_175\n      jumpi\n      tag_176\n      tag_110\n      jump\t// in\n    tag_176:\n    tag_175:\n      mul\n      or\n      swap1\n      sstore\n      pop\n        /* \"src/SupplyChain.sol\":7620:7630  transferId */\n      dup3\n        /* \"src/SupplyChain.sol\":7603:7631  TransferRejected(transferId) */\n      0x1f4f8a94e17d25044030f376d297769c8f9a1a2a0616e36b498a1e7370b5863f\n      mload(0x40)\n      mload(0x40)\n      dup1\n      swap2\n      sub\n      swap1\n      log2\n        /* \"src/SupplyChain.sol\":7250:7638  {... */\n      pop\n      pop\n        /* \"@openzeppelin/contracts/utils/ReentrancyGuard.sol\":3065:3085  _nonReentrantAfter() */\n      tag_177\n        /* \"@openzeppelin/contracts/utils/ReentrancyGuard.sol\":3065:3083  _nonReentrantAfter */\n      tag_159\n        /* \"@openzeppelin/contracts/utils/ReentrancyGuard.sol\":3065:3085  _nonReentrantAfter() */\n      jump\t// in\n    tag_177:\n        /* \"src/SupplyChain.sol\":7186:7638  function rejectTransfer(uint256 transferId) public nonReentrant {... */\n      pop\n      jump\t// out\n        /* \"src/SupplyChain.sol\":6678:7180  function acceptTransfer(uint256 transferId) public onlyApprovedUser {... */\n    tag_35:\n        /* \"src/SupplyChain.sol\":2460:2474  uint256 userId */\n      0x00\n        /* \"src/SupplyChain.sol\":2477:2492  addressToUserId */\n      0x06\n        /* \"src/SupplyChain.sol\":2477:2504  addressToUserId[msg.sender] */\n      0x00\n        /* \"src/SupplyChain.sol\":2493:2503  msg.sender */\n      caller\n        /* \"src/SupplyChain.sol\":2477:2504  addressToUserId[msg.sender] */\n      0xffffffffffffffffffffffffffffffffffffffff\n      and\n      0xffffffffffffffffffffffffffffffffffffffff\n      and\n      dup2\n      mstore\n      0x20\n      add\n      swap1\n      dup2\n      mstore\n      0x20\n      add\n      0x00\n      keccak256\n      sload\n        /* \"src/SupplyChain.sol\":2460:2504  uint256 userId = addressToUserId[msg.sender] */\n      swap1\n      pop\n        /* \"src/SupplyChain.sol\":2532:2533  0 */\n      0x00\n        /* \"src/SupplyChain.sol\":2522:2528  userId */\n      dup2\n        /* \"src/SupplyChain.sol\":2522:2533  userId != 0 */\n      eq\n      iszero\n        /* \"src/SupplyChain.sol\":2522:2580  userId != 0 && users[userId].status == UserStatus.Approved */\n      dup1\n      iszero\n      tag_179\n      jumpi\n      pop\n        /* \"src/SupplyChain.sol\":2561:2580  UserStatus.Approved */\n      0x01\n        /* \"src/SupplyChain.sol\":2537:2580  users[userId].status == UserStatus.Approved */\n      0x03\n      dup2\n      gt\n      iszero\n      tag_180\n      jumpi\n      tag_181\n      tag_110\n      jump\t// in\n    tag_181:\n    tag_180:\n        /* \"src/SupplyChain.sol\":2537:2542  users */\n      0x05\n        /* \"src/SupplyChain.sol\":2537:2550  users[userId] */\n      0x00\n        /* \"src/SupplyChain.sol\":2543:2549  userId */\n      dup4\n        /* \"src/SupplyChain.sol\":2537:2550  users[userId] */\n      dup2\n      mstore\n      0x20\n      add\n      swap1\n      dup2\n      mstore\n      0x20\n      add\n      0x00\n      keccak256\n        /* \"src/SupplyChain.sol\":2537:2557  users[userId].status */\n      0x03\n      add\n      0x00\n      swap1\n      sload\n      swap1\n      0x0100\n      exp\n      swap1\n      div\n      0xff\n      and\n        /* \"src/SupplyChain.sol\":2537:2580  users[userId].status == UserStatus.Approved */\n      0x03\n      dup2\n      gt\n      iszero\n      tag_182\n      jumpi\n      tag_183\n      tag_110\n      jump\t// in\n    tag_183:\n    tag_182:\n      eq\n        /* \"src/SupplyChain.sol\":2522:2580  userId != 0 && users[userId].status == UserStatus.Approved */\n    tag_179:\n        /* \"src/SupplyChain.sol\":2514:2597  require(userId != 0 && users[userId].status == UserStatus.Approved, \"Not approved\") */\n      tag_184\n      jumpi\n      mload(0x40)\n      0x08c379a000000000000000000000000000000000000000000000000000000000\n      dup2\n      mstore\n      0x04\n      add\n      tag_185\n      swap1\n      tag_115\n      jump\t// in\n    tag_185:\n      mload(0x40)\n      dup1\n      swap2\n      sub\n      swap1\n      revert\n    tag_184:\n        /* \"src/SupplyChain.sol\":6756:6775  Transfer storage tr */\n      0x00\n        /* \"src/SupplyChain.sol\":6778:6787  transfers */\n      0x04\n        /* \"src/SupplyChain.sol\":6778:6799  transfers[transferId] */\n      0x00\n        /* \"src/SupplyChain.sol\":6788:6798  transferId */\n      dup5\n        /* \"src/SupplyChain.sol\":6778:6799  transfers[transferId] */\n      dup2\n      mstore\n      0x20\n      add\n      swap1\n      dup2\n      mstore\n      0x20\n      add\n      0x00\n      keccak256\n        /* \"src/SupplyChain.sol\":6756:6799  Transfer storage tr = transfers[transferId] */\n      swap1\n      pop\n        /* \"src/SupplyChain.sol\":6830:6852  TransferStatus.Pending */\n      0x00\n        /* \"src/SupplyChain.sol\":6817:6852  tr.status == TransferStatus.Pending */\n      0x02\n      dup2\n      gt\n      iszero\n      tag_187\n      jumpi\n      tag_188\n      tag_110\n      jump\t// in\n    tag_188:\n    tag_187:\n        /* \"src/SupplyChain.sol\":6817:6819  tr */\n      dup2\n        /* \"src/SupplyChain.sol\":6817:6826  tr.status */\n      0x06\n      add\n      0x00\n      swap1\n      sload\n      swap1\n      0x0100\n      exp\n      swap1\n      div\n      0xff\n      and\n        /* \"src/SupplyChain.sol\":6817:6852  tr.status == TransferStatus.Pending */\n      0x02\n      dup2\n      gt\n      iszero\n      tag_189\n      jumpi\n      tag_190\n      tag_110\n      jump\t// in\n    tag_190:\n    tag_189:\n      eq\n        /* \"src/SupplyChain.sol\":6809:6868  require(tr.status == TransferStatus.Pending, \"Not pending\") */\n      tag_191\n      jumpi\n      mload(0x40)\n      0x08c379a000000000000000000000000000000000000000000000000000000000\n      dup2\n      mstore\n      0x04\n      add\n      tag_192\n      swap1\n      tag_169\n      jump\t// in\n    tag_192:\n      mload(0x40)\n      dup1\n      swap2\n      sub\n      swap1\n      revert\n    tag_191:\n        /* \"src/SupplyChain.sol\":6900:6902  tr */\n      dup1\n        /* \"src/SupplyChain.sol\":6900:6905  tr.to */\n      0x02\n      add\n      0x00\n      swap1\n      sload\n      swap1\n      0x0100\n      exp\n      swap1\n      div\n      0xffffffffffffffffffffffffffffffffffffffff\n      and\n        /* \"src/SupplyChain.sol\":6886:6905  msg.sender == tr.to */\n      0xffffffffffffffffffffffffffffffffffffffff\n      and\n        /* \"src/SupplyChain.sol\":6886:6896  msg.sender */\n      caller\n        /* \"src/SupplyChain.sol\":6886:6905  msg.sender == tr.to */\n      0xffffffffffffffffffffffffffffffffffffffff\n      and\n      eq\n        /* \"src/SupplyChain.sol\":6878:6923  require(msg.sender == tr.to, \"Not recipient\") */\n      tag_193\n      jumpi\n      mload(0x40)\n      0x08c379a000000000000000000000000000000000000000000000000000000000\n      dup2\n      mstore\n      0x04\n      add\n      tag_194\n      swap1\n      tag_195\n      jump\t// in\n    tag_194:\n      mload(0x40)\n      dup1\n      swap2\n      sub\n      swap1\n      revert\n    tag_193:\n        /* \"src/SupplyChain.sol\":6934:6946  uint256 toId */\n      0x00\n        /* \"src/SupplyChain.sol\":6949:6964  addressToUserId */\n      0x06\n        /* \"src/SupplyChain.sol\":6949:6971  addressToUserId[tr.to] */\n      0x00\n        /* \"src/SupplyChain.sol\":6965:6967  tr */\n      dup4\n        /* \"src/SupplyChain.sol\":6965:6970  tr.to */\n      0x02\n      add\n      0x00\n      swap1\n      sload\n      swap1\n      0x0100\n      exp\n      swap1\n      div\n      0xffffffffffffffffffffffffffffffffffffffff\n      and\n        /* \"src/SupplyChain.sol\":6949:6971  addressToUserId[tr.to] */\n      0xffffffffffffffffffffffffffffffffffffffff\n      and\n      0xffffffffffffffffffffffffffffffffffffffff\n      and\n      dup2\n      mstore\n      0x20\n      add\n      swap1\n      dup2\n      mstore\n      0x20\n      add\n      0x00\n      keccak256\n      sload\n        /* \"src/SupplyChain.sol\":6934:6971  uint256 toId = addressToUserId[tr.to] */\n      swap1\n      pop\n        /* \"src/SupplyChain.sol\":6989:7056  _isNextRole(users[addressToUserId[tr.from]].role, users[toId].role) */\n      tag_196\n        /* \"src/SupplyChain.sol\":7001:7006  users */\n      0x05\n        /* \"src/SupplyChain.sol\":7001:7032  users[addressToUserId[tr.from]] */\n      0x00\n        /* \"src/SupplyChain.sol\":7007:7022  addressToUserId */\n      0x06\n        /* \"src/SupplyChain.sol\":7007:7031  addressToUserId[tr.from] */\n      0x00\n        /* \"src/SupplyChain.sol\":7023:7025  tr */\n      dup7\n        /* \"src/SupplyChain.sol\":7023:7030  tr.from */\n      0x01\n      add\n      0x00\n      swap1\n      sload\n      swap1\n      0x0100\n      exp\n      swap1\n      div\n      0xffffffffffffffffffffffffffffffffffffffff\n      and\n        /* \"src/SupplyChain.sol\":7007:7031  addressToUserId[tr.from] */\n      0xffffffffffffffffffffffffffffffffffffffff\n      and\n      0xffffffffffffffffffffffffffffffffffffffff\n      and\n      dup2\n      mstore\n      0x20\n      add\n      swap1\n      dup2\n      mstore\n      0x20\n      add\n      0x00\n      keccak256\n      sload\n        /* \"src/SupplyChain.sol\":7001:7032  users[addressToUserId[tr.from]] */\n      dup2\n      mstore\n      0x20\n      add\n      swap1\n      dup2\n      mstore\n      0x20\n      add\n      0x00\n      keccak256\n        /* \"src/SupplyChain.sol\":7001:7037  users[addressToUserId[tr.from]].role */\n      0x02\n      add\n      sload\n        /* \"src/SupplyChain.sol\":7039:7044  users */\n      0x05\n        /* \"src/SupplyChain.sol\":7039:7050  users[toId] */\n      0x00\n        /* \"src/SupplyChain.sol\":7045:7049  toId */\n      dup5\n        /* \"src/SupplyChain.sol\":7039:7050  users[toId] */\n      dup2\n      mstore\n      0x20\n      add\n      swap1\n      dup2\n      mstore\n      0x20\n      add\n      0x00\n      keccak256\n        /* \"src/SupplyChain.sol\":7039:7055  users[toId].role */\n      0x02\n      add\n      sload\n        /* \"src/SupplyChain.sol\":6989:7000  _isNextRole */\n      tag_139\n        /* \"src/SupplyChain.sol\":6989:7056  _isNextRole(users[addressToUserId[tr.from]].role, users[toId].role) */\n      jump\t// in\n    tag_196:\n        /* \"src/SupplyChain.sol\":6981:7084  require(_isNextRole(users[addressToUserId[tr.from]].role, users[toId].role), \"Invalid role transition\") */\n      tag_197\n      jumpi\n      mload(0x40)\n      0x08c379a000000000000000000000000000000000000000000000000000000000\n      dup2\n      mstore\n      0x04\n      add\n      tag_198\n      swap1\n      tag_142\n      jump\t// in\n    tag_198:\n      mload(0x40)\n      dup1\n      swap2\n      sub\n      swap1\n      revert\n    tag_197:\n        /* \"src/SupplyChain.sol\":7107:7130  TransferStatus.Accepted */\n      0x01\n        /* \"src/SupplyChain.sol\":7095:7097  tr */\n      dup3\n        /* \"src/SupplyChain.sol\":7095:7104  tr.status */\n      0x06\n      add\n      0x00\n        /* \"src/SupplyChain.sol\":7095:7130  tr.status = TransferStatus.Accepted */\n      0x0100\n      exp\n      dup2\n      sload\n      dup2\n      0xff\n      mul\n      not\n      and\n      swap1\n      dup4\n      0x02\n      dup2\n      gt\n      iszero\n      tag_199\n      jumpi\n      tag_200\n      tag_110\n      jump\t// in\n    tag_200:\n    tag_199:\n      mul\n      or\n      swap1\n      sstore\n      pop\n        /* \"src/SupplyChain.sol\":7162:7172  transferId */\n      dup4\n        /* \"src/SupplyChain.sol\":7145:7173  TransferAccepted(transferId) */\n      0x91dd4234b45d77221e6eca52c141569a6d0f3b3ffe9b8a18fe8b9aafbc64b44b\n      mload(0x40)\n      mload(0x40)\n      dup1\n      swap2\n      sub\n      swap1\n      log2\n        /* \"src/SupplyChain.sol\":6746:7180  {... */\n      pop\n      pop\n        /* \"src/SupplyChain.sol\":2450:2615  {... */\n      pop\n        /* \"src/SupplyChain.sol\":6678:7180  function acceptTransfer(uint256 transferId) public onlyApprovedUser {... */\n      pop\n      jump\t// out\n        /* \"src/SupplyChain.sol\":8767:9326  function getUserTransfers(address user) public view returns (uint256[] memory) {... */\n    tag_39:\n        /* \"src/SupplyChain.sol\":8828:8844  uint256[] memory */\n      0x60\n        /* \"src/SupplyChain.sol\":8856:8876  uint256[] memory ids */\n      0x00\n        /* \"src/SupplyChain.sol\":8910:8911  1 */\n      0x01\n        /* \"src/SupplyChain.sol\":8893:8907  nextTransferId */\n      dup1\n      sload\n        /* \"src/SupplyChain.sol\":8893:8911  nextTransferId - 1 */\n      tag_202\n      swap2\n      swap1\n      tag_147\n      jump\t// in\n    tag_202:\n        /* \"src/SupplyChain.sol\":8879:8912  new uint256[](nextTransferId - 1) */\n      0xffffffffffffffff\n      dup2\n      gt\n      iszero\n      tag_203\n      jumpi\n      tag_204\n      tag_205\n      jump\t// in\n    tag_204:\n    tag_203:\n      mload(0x40)\n      swap1\n      dup1\n      dup3\n      mstore\n      dup1\n      0x20\n      mul\n      0x20\n      add\n      dup3\n      add\n      0x40\n      mstore\n      dup1\n      iszero\n      tag_206\n      jumpi\n      dup2\n      0x20\n      add\n      0x20\n      dup3\n      mul\n      dup1\n      calldatasize\n      dup4\n      calldatacopy\n      dup1\n      dup3\n      add\n      swap2\n      pop\n      pop\n      swap1\n      pop\n    tag_206:\n      pop\n        /* \"src/SupplyChain.sol\":8856:8912  uint256[] memory ids = new uint256[](nextTransferId - 1) */\n      swap1\n      pop\n        /* \"src/SupplyChain.sol\":8922:8935  uint256 count */\n      0x00\n        /* \"src/SupplyChain.sol\":8938:8939  0 */\n      0x00\n        /* \"src/SupplyChain.sol\":8922:8939  uint256 count = 0 */\n      swap1\n      pop\n        /* \"src/SupplyChain.sol\":8954:8963  uint256 i */\n      0x00\n        /* \"src/SupplyChain.sol\":8966:8967  1 */\n      0x01\n        /* \"src/SupplyChain.sol\":8954:8967  uint256 i = 1 */\n      swap1\n      pop\n        /* \"src/SupplyChain.sol\":8949:9153  for (uint256 i = 1; i < nextTransferId; i++) {... */\n    tag_207:\n        /* \"src/SupplyChain.sol\":8973:8987  nextTransferId */\n      sload(0x01)\n        /* \"src/SupplyChain.sol\":8969:8970  i */\n      dup2\n        /* \"src/SupplyChain.sol\":8969:8987  i < nextTransferId */\n      lt\n        /* \"src/SupplyChain.sol\":8949:9153  for (uint256 i = 1; i < nextTransferId; i++) {... */\n      iszero\n      tag_208\n      jumpi\n        /* \"src/SupplyChain.sol\":9008:9027  Transfer storage tr */\n      0x00\n        /* \"src/SupplyChain.sol\":9030:9039  transfers */\n      0x04\n        /* \"src/SupplyChain.sol\":9030:9042  transfers[i] */\n      0x00\n        /* \"src/SupplyChain.sol\":9040:9041  i */\n      dup4\n        /* \"src/SupplyChain.sol\":9030:9042  transfers[i] */\n      dup2\n      mstore\n      0x20\n      add\n      swap1\n      dup2\n      mstore\n      0x20\n      add\n      0x00\n      keccak256\n        /* \"src/SupplyChain.sol\":9008:9042  Transfer storage tr = transfers[i] */\n      swap1\n      pop\n        /* \"src/SupplyChain.sol\":9071:9075  user */\n      dup6\n        /* \"src/SupplyChain.sol\":9060:9075  tr.from == user */\n      0xffffffffffffffffffffffffffffffffffffffff\n      and\n        /* \"src/SupplyChain.sol\":9060:9062  tr */\n      dup2\n        /* \"src/SupplyChain.sol\":9060:9067  tr.from */\n      0x01\n      add\n      0x00\n      swap1\n      sload\n      swap1\n      0x0100\n      exp\n      swap1\n      div\n      0xffffffffffffffffffffffffffffffffffffffff\n      and\n        /* \"src/SupplyChain.sol\":9060:9075  tr.from == user */\n      0xffffffffffffffffffffffffffffffffffffffff\n      and\n      eq\n        /* \"src/SupplyChain.sol\":9060:9092  tr.from == user || tr.to == user */\n      dup1\n      tag_210\n      jumpi\n      pop\n        /* \"src/SupplyChain.sol\":9088:9092  user */\n      dup6\n        /* \"src/SupplyChain.sol\":9079:9092  tr.to == user */\n      0xffffffffffffffffffffffffffffffffffffffff\n      and\n        /* \"src/SupplyChain.sol\":9079:9081  tr */\n      dup2\n        /* \"src/SupplyChain.sol\":9079:9084  tr.to */\n      0x02\n      add\n      0x00\n      swap1\n      sload\n      swap1\n      0x0100\n      exp\n      swap1\n      div\n      0xffffffffffffffffffffffffffffffffffffffff\n      and\n        /* \"src/SupplyChain.sol\":9079:9092  tr.to == user */\n      0xffffffffffffffffffffffffffffffffffffffff\n      and\n      eq\n        /* \"src/SupplyChain.sol\":9060:9092  tr.from == user || tr.to == user */\n    tag_210:\n        /* \"src/SupplyChain.sol\":9056:9143  if (tr.from == user || tr.to == user) {... */\n      iszero\n      tag_211\n      jumpi\n        /* \"src/SupplyChain.sol\":9127:9128  i */\n      dup2\n        /* \"src/SupplyChain.sol\":9112:9115  ids */\n      dup5\n        /* \"src/SupplyChain.sol\":9116:9123  count++ */\n      dup5\n      dup1\n      tag_212\n      swap1\n      tag_151\n      jump\t// in\n    tag_212:\n      swap6\n      pop\n        /* \"src/SupplyChain.sol\":9112:9124  ids[count++] */\n      dup2\n      mload\n      dup2\n      lt\n      tag_213\n      jumpi\n      tag_214\n      tag_215\n      jump\t// in\n    tag_214:\n    tag_213:\n      0x20\n      mul\n      0x20\n      add\n      add\n        /* \"src/SupplyChain.sol\":9112:9128  ids[count++] = i */\n      dup2\n      dup2\n      mstore\n      pop\n      pop\n        /* \"src/SupplyChain.sol\":9056:9143  if (tr.from == user || tr.to == user) {... */\n    tag_211:\n        /* \"src/SupplyChain.sol\":8994:9153  {... */\n      pop\n        /* \"src/SupplyChain.sol\":8989:8992  i++ */\n      dup1\n      dup1\n      0x01\n      add\n      swap2\n      pop\n      pop\n        /* \"src/SupplyChain.sol\":8949:9153  for (uint256 i = 1; i < nextTransferId; i++) {... */\n      jump(tag_207)\n    tag_208:\n      pop\n        /* \"src/SupplyChain.sol\":9162:9185  uint256[] memory result */\n      0x00\n        /* \"src/SupplyChain.sol\":9202:9207  count */\n      dup2\n        /* \"src/SupplyChain.sol\":9188:9208  new uint256[](count) */\n      0xffffffffffffffff\n      dup2\n      gt\n      iszero\n      tag_216\n      jumpi\n      tag_217\n      tag_205\n      jump\t// in\n    tag_217:\n    tag_216:\n      mload(0x40)\n      swap1\n      dup1\n      dup3\n      mstore\n      dup1\n      0x20\n      mul\n      0x20\n      add\n      dup3\n      add\n      0x40\n      mstore\n      dup1\n      iszero\n      tag_218\n      jumpi\n      dup2\n      0x20\n      add\n      0x20\n      dup3\n      mul\n      dup1\n      calldatasize\n      dup4\n      calldatacopy\n      dup1\n      dup3\n      add\n      swap2\n      pop\n      pop\n      swap1\n      pop\n    tag_218:\n      pop\n        /* \"src/SupplyChain.sol\":9162:9208  uint256[] memory result = new uint256[](count) */\n      swap1\n      pop\n        /* \"src/SupplyChain.sol\":9223:9232  uint256 i */\n      0x00\n        /* \"src/SupplyChain.sol\":9235:9236  0 */\n      0x00\n        /* \"src/SupplyChain.sol\":9223:9236  uint256 i = 0 */\n      swap1\n      pop\n        /* \"src/SupplyChain.sol\":9218:9297  for (uint256 i = 0; i < count; i++) {... */\n    tag_219:\n        /* \"src/SupplyChain.sol\":9242:9247  count */\n      dup3\n        /* \"src/SupplyChain.sol\":9238:9239  i */\n      dup2\n        /* \"src/SupplyChain.sol\":9238:9247  i < count */\n      lt\n        /* \"src/SupplyChain.sol\":9218:9297  for (uint256 i = 0; i < count; i++) {... */\n      iszero\n      tag_220\n      jumpi\n        /* \"src/SupplyChain.sol\":9280:9283  ids */\n      dup4\n        /* \"src/SupplyChain.sol\":9284:9285  i */\n      dup2\n        /* \"src/SupplyChain.sol\":9280:9286  ids[i] */\n      dup2\n      mload\n      dup2\n      lt\n      tag_222\n      jumpi\n      tag_223\n      tag_215\n      jump\t// in\n    tag_223:\n    tag_222:\n      0x20\n      mul\n      0x20\n      add\n      add\n      mload\n        /* \"src/SupplyChain.sol\":9268:9274  result */\n      dup3\n        /* \"src/SupplyChain.sol\":9275:9276  i */\n      dup3\n        /* \"src/SupplyChain.sol\":9268:9277  result[i] */\n      dup2\n      mload\n      dup2\n      lt\n      tag_224\n      jumpi\n      tag_225\n      tag_215\n      jump\t// in\n    tag_225:\n    tag_224:\n      0x20\n      mul\n      0x20\n      add\n      add\n        /* \"src/SupplyChain.sol\":9268:9286  result[i] = ids[i] */\n      dup2\n      dup2\n      mstore\n      pop\n      pop\n        /* \"src/SupplyChain.sol\":9249:9252  i++ */\n      dup1\n      dup1\n      0x01\n      add\n      swap2\n      pop\n      pop\n        /* \"src/SupplyChain.sol\":9218:9297  for (uint256 i = 0; i < count; i++) {... */\n      jump(tag_219)\n    tag_220:\n      pop\n        /* \"src/SupplyChain.sol\":9313:9319  result */\n      dup1\n        /* \"src/SupplyChain.sol\":9306:9319  return result */\n      swap4\n      pop\n      pop\n      pop\n      pop\n        /* \"src/SupplyChain.sol\":8767:9326  function getUserTransfers(address user) public view returns (uint256[] memory) {... */\n      swap2\n      swap1\n      pop\n      jump\t// out\n        /* \"src/SupplyChain.sol\":1691:1728  mapping(uint256 => User) public users */\n    tag_44:\n      mstore(0x20, 0x05)\n      dup1\n      0x00\n      mstore\n      keccak256(0x00, 0x40)\n      0x00\n      swap2\n      pop\n      swap1\n      pop\n      dup1\n      0x00\n      add\n      sload\n      swap1\n      dup1\n      0x01\n      add\n      0x00\n      swap1\n      sload\n      swap1\n      0x0100\n      exp\n      swap1\n      div\n      0xffffffffffffffffffffffffffffffffffffffff\n      and\n      swap1\n      dup1\n      0x02\n      add\n      sload\n      swap1\n      dup1\n      0x03\n      add\n      0x00\n      swap1\n      sload\n      swap1\n      0x0100\n      exp\n      swap1\n      div\n      0xff\n      and\n      swap1\n      pop\n      dup5\n      jump\t// out\n        /* \"src/SupplyChain.sol\":2707:3396  function requestUserRole(bytes32 role) public {... */\n    tag_50:\n        /* \"src/SupplyChain.sol\":2779:2780  0 */\n      0x00\n        /* \"src/SupplyChain.sol\":2771:2780  role != 0 */\n      0x00\n      shl\n        /* \"src/SupplyChain.sol\":2771:2775  role */\n      dup2\n        /* \"src/SupplyChain.sol\":2771:2780  role != 0 */\n      sub\n        /* \"src/SupplyChain.sol\":2763:2797  require(role != 0, \"Invalid role\") */\n      tag_227\n      jumpi\n      mload(0x40)\n      0x08c379a000000000000000000000000000000000000000000000000000000000\n      dup2\n      mstore\n      0x04\n      add\n      tag_228\n      swap1\n      tag_229\n      jump\t// in\n    tag_228:\n      mload(0x40)\n      dup1\n      swap2\n      sub\n      swap1\n      revert\n    tag_227:\n        /* \"src/SupplyChain.sol\":2807:2821  uint256 userId */\n      0x00\n        /* \"src/SupplyChain.sol\":2824:2839  addressToUserId */\n      0x06\n        /* \"src/SupplyChain.sol\":2824:2851  addressToUserId[msg.sender] */\n      0x00\n        /* \"src/SupplyChain.sol\":2840:2850  msg.sender */\n      caller\n        /* \"src/SupplyChain.sol\":2824:2851  addressToUserId[msg.sender] */\n      0xffffffffffffffffffffffffffffffffffffffff\n      and\n      0xffffffffffffffffffffffffffffffffffffffff\n      and\n      dup2\n      mstore\n      0x20\n      add\n      swap1\n      dup2\n      mstore\n      0x20\n      add\n      0x00\n      keccak256\n      sload\n        /* \"src/SupplyChain.sol\":2807:2851  uint256 userId = addressToUserId[msg.sender] */\n      swap1\n      pop\n        /* \"src/SupplyChain.sol\":2875:2876  0 */\n      0x00\n        /* \"src/SupplyChain.sol\":2865:2871  userId */\n      dup2\n        /* \"src/SupplyChain.sol\":2865:2876  userId == 0 */\n      sub\n        /* \"src/SupplyChain.sol\":2861:3276  if (userId == 0) {... */\n      tag_230\n      jumpi\n        /* \"src/SupplyChain.sol\":2901:2911  nextUserId */\n      0x02\n      0x00\n        /* \"src/SupplyChain.sol\":2901:2913  nextUserId++ */\n      dup2\n      sload\n      dup1\n      swap3\n      swap2\n      swap1\n      tag_231\n      swap1\n      tag_151\n      jump\t// in\n    tag_231:\n      swap2\n      swap1\n      pop\n      sstore\n        /* \"src/SupplyChain.sol\":2892:2913  userId = nextUserId++ */\n      swap1\n      pop\n        /* \"src/SupplyChain.sol\":2943:3104  User({... */\n      mload(0x40)\n      dup1\n      0x80\n      add\n      0x40\n      mstore\n      dup1\n        /* \"src/SupplyChain.sol\":2970:2976  userId */\n      dup3\n        /* \"src/SupplyChain.sol\":2943:3104  User({... */\n      dup2\n      mstore\n      0x20\n      add\n        /* \"src/SupplyChain.sol\":3007:3017  msg.sender */\n      caller\n        /* \"src/SupplyChain.sol\":2943:3104  User({... */\n      0xffffffffffffffffffffffffffffffffffffffff\n      and\n      dup2\n      mstore\n      0x20\n      add\n        /* \"src/SupplyChain.sol\":3041:3045  role */\n      dup4\n        /* \"src/SupplyChain.sol\":2943:3104  User({... */\n      dup2\n      mstore\n      0x20\n      add\n        /* \"src/SupplyChain.sol\":3071:3089  UserStatus.Pending */\n      0x00\n        /* \"src/SupplyChain.sol\":2943:3104  User({... */\n      0x03\n      dup2\n      gt\n      iszero\n      tag_232\n      jumpi\n      tag_233\n      tag_110\n      jump\t// in\n    tag_233:\n    tag_232:\n      dup2\n      mstore\n      pop\n        /* \"src/SupplyChain.sol\":2927:2932  users */\n      0x05\n        /* \"src/SupplyChain.sol\":2927:2940  users[userId] */\n      0x00\n        /* \"src/SupplyChain.sol\":2933:2939  userId */\n      dup4\n        /* \"src/SupplyChain.sol\":2927:2940  users[userId] */\n      dup2\n      mstore\n      0x20\n      add\n      swap1\n      dup2\n      mstore\n      0x20\n      add\n      0x00\n      keccak256\n        /* \"src/SupplyChain.sol\":2927:3104  users[userId] = User({... */\n      0x00\n      dup3\n      add\n      mload\n      dup2\n      0x00\n      add\n      sstore\n      0x20\n      dup3\n      add\n      mload\n      dup2\n      0x01\n      add\n      exp(0x0100, 0x00)\n      dup2\n      sload\n      dup2\n      0xffffffffffffffffffffffffffffffffffffffff\n      mul\n      not\n      and\n      swap1\n      dup4\n      0xffffffffffffffffffffffffffffffffffffffff\n      and\n      mul\n      or\n      swap1\n      sstore\n      pop\n      0x40\n      dup3\n      add\n      mload\n      dup2\n      0x02\n      add\n      sstore\n      0x60\n      dup3\n      add\n      mload\n      dup2\n      0x03\n      add\n      exp(0x0100, 0x00)\n      dup2\n      sload\n      dup2\n      0xff\n      mul\n      not\n      and\n      swap1\n      dup4\n      0x03\n      dup2\n      gt\n      iszero\n      tag_234\n      jumpi\n      tag_235\n      tag_110\n      jump\t// in\n    tag_235:\n    tag_234:\n      mul\n      or\n      swap1\n      sstore\n      pop\n      swap1\n      pop\n      pop\n        /* \"src/SupplyChain.sol\":3148:3154  userId */\n      dup1\n        /* \"src/SupplyChain.sol\":3118:3133  addressToUserId */\n      0x06\n        /* \"src/SupplyChain.sol\":3118:3145  addressToUserId[msg.sender] */\n      0x00\n        /* \"src/SupplyChain.sol\":3134:3144  msg.sender */\n      caller\n        /* \"src/SupplyChain.sol\":3118:3145  addressToUserId[msg.sender] */\n      0xffffffffffffffffffffffffffffffffffffffff\n      and\n      0xffffffffffffffffffffffffffffffffffffffff\n      and\n      dup2\n      mstore\n      0x20\n      add\n      swap1\n      dup2\n      mstore\n      0x20\n      add\n      0x00\n      keccak256\n        /* \"src/SupplyChain.sol\":3118:3154  addressToUserId[msg.sender] = userId */\n      dup2\n      swap1\n      sstore\n      pop\n        /* \"src/SupplyChain.sol\":2861:3276  if (userId == 0) {... */\n      jump(tag_236)\n    tag_230:\n        /* \"src/SupplyChain.sol\":3206:3210  role */\n      dup2\n        /* \"src/SupplyChain.sol\":3185:3190  users */\n      0x05\n        /* \"src/SupplyChain.sol\":3185:3198  users[userId] */\n      0x00\n        /* \"src/SupplyChain.sol\":3191:3197  userId */\n      dup4\n        /* \"src/SupplyChain.sol\":3185:3198  users[userId] */\n      dup2\n      mstore\n      0x20\n      add\n      swap1\n      dup2\n      mstore\n      0x20\n      add\n      0x00\n      keccak256\n        /* \"src/SupplyChain.sol\":3185:3203  users[userId].role */\n      0x02\n      add\n        /* \"src/SupplyChain.sol\":3185:3210  users[userId].role = role */\n      dup2\n      swap1\n      sstore\n      pop\n        /* \"src/SupplyChain.sol\":3247:3265  UserStatus.Pending */\n      0x00\n        /* \"src/SupplyChain.sol\":3224:3229  users */\n      0x05\n        /* \"src/SupplyChain.sol\":3224:3237  users[userId] */\n      0x00\n        /* \"src/SupplyChain.sol\":3230:3236  userId */\n      dup4\n        /* \"src/SupplyChain.sol\":3224:3237  users[userId] */\n      dup2\n      mstore\n      0x20\n      add\n      swap1\n      dup2\n      mstore\n      0x20\n      add\n      0x00\n      keccak256\n        /* \"src/SupplyChain.sol\":3224:3244  users[userId].status */\n      0x03\n      add\n      0x00\n        /* \"src/SupplyChain.sol\":3224:3265  users[userId].status = UserStatus.Pending */\n      0x0100\n      exp\n      dup2\n      sload\n      dup2\n      0xff\n      mul\n      not\n      and\n      swap1\n      dup4\n      0x03\n      dup2\n      gt\n      iszero\n      tag_237\n      jumpi\n      tag_238\n      tag_110\n      jump\t// in\n    tag_238:\n    tag_237:\n      mul\n      or\n      swap1\n      sstore\n      pop\n        /* \"src/SupplyChain.sol\":2861:3276  if (userId == 0) {... */\n    tag_236:\n        /* \"src/SupplyChain.sol\":3308:3318  msg.sender */\n      caller\n        /* \"src/SupplyChain.sol\":3290:3325  UserRoleRequested(msg.sender, role) */\n      0xffffffffffffffffffffffffffffffffffffffff\n      and\n      0x6462c5e0af9bf3a12e42a57283f899627cb117e108991e3efda5d27188cc85c1\n        /* \"src/SupplyChain.sol\":3320:3324  role */\n      dup4\n        /* \"src/SupplyChain.sol\":3290:3325  UserRoleRequested(msg.sender, role) */\n      mload(0x40)\n      tag_239\n      swap2\n      swap1\n      tag_240\n      jump\t// in\n    tag_239:\n      mload(0x40)\n      dup1\n      swap2\n      sub\n      swap1\n      log2\n        /* \"src/SupplyChain.sol\":3358:3368  msg.sender */\n      caller\n        /* \"src/SupplyChain.sol\":3340:3389  UserStatusChanged(msg.sender, UserStatus.Pending) */\n      0xffffffffffffffffffffffffffffffffffffffff\n      and\n      0xb3b609c7a5e504a312603e90d906d1667fd5caff0a840ad07bf5709a3ca1a045\n        /* \"src/SupplyChain.sol\":3370:3388  UserStatus.Pending */\n      0x00\n        /* \"src/SupplyChain.sol\":3340:3389  UserStatusChanged(msg.sender, UserStatus.Pending) */\n      mload(0x40)\n      tag_241\n      swap2\n      swap1\n      tag_242\n      jump\t// in\n    tag_241:\n      mload(0x40)\n      dup1\n      swap2\n      sub\n      swap1\n      log2\n        /* \"src/SupplyChain.sol\":2753:3396  {... */\n      pop\n        /* \"src/SupplyChain.sol\":2707:3396  function requestUserRole(bytes32 role) public {... */\n      pop\n      jump\t// out\n        /* \"src/SupplyChain.sol\":1595:1634  mapping(uint256 => Token) public tokens */\n    tag_53:\n      mstore(0x20, 0x03)\n      dup1\n      0x00\n      mstore\n      keccak256(0x00, 0x40)\n      0x00\n      swap2\n      pop\n      swap1\n      pop\n      dup1\n      0x00\n      add\n      sload\n      swap1\n      dup1\n      0x01\n      add\n      0x00\n      swap1\n      sload\n      swap1\n      0x0100\n      exp\n      swap1\n      div\n      0xffffffffffffffffffffffffffffffffffffffff\n      and\n      swap1\n      dup1\n      0x02\n      add\n      dup1\n      sload\n      tag_243\n      swap1\n      tag_244\n      jump\t// in\n    tag_243:\n      dup1\n      0x1f\n      add\n      0x20\n      dup1\n      swap2\n      div\n      mul\n      0x20\n      add\n      mload(0x40)\n      swap1\n      dup2\n      add\n      0x40\n      mstore\n      dup1\n      swap3\n      swap2\n      swap1\n      dup2\n      dup2\n      mstore\n      0x20\n      add\n      dup3\n      dup1\n      sload\n      tag_245\n      swap1\n      tag_244\n      jump\t// in\n    tag_245:\n      dup1\n      iszero\n      tag_246\n      jumpi\n      dup1\n      0x1f\n      lt\n      tag_247\n      jumpi\n      0x0100\n      dup1\n      dup4\n      sload\n      div\n      mul\n      dup4\n      mstore\n      swap2\n      0x20\n      add\n      swap2\n      jump(tag_246)\n    tag_247:\n      dup3\n      add\n      swap2\n      swap1\n      0x00\n      mstore\n      keccak256(0x00, 0x20)\n      swap1\n    tag_248:\n      dup2\n      sload\n      dup2\n      mstore\n      swap1\n      0x01\n      add\n      swap1\n      0x20\n      add\n      dup1\n      dup4\n      gt\n      tag_248\n      jumpi\n      dup3\n      swap1\n      sub\n      0x1f\n      and\n      dup3\n      add\n      swap2\n    tag_246:\n      pop\n      pop\n      pop\n      pop\n      pop\n      swap1\n      dup1\n      0x03\n      add\n      sload\n      swap1\n      dup1\n      0x04\n      add\n      dup1\n      sload\n      tag_249\n      swap1\n      tag_244\n      jump\t// in\n    tag_249:\n      dup1\n      0x1f\n      add\n      0x20\n      dup1\n      swap2\n      div\n      mul\n      0x20\n      add\n      mload(0x40)\n      swap1\n      dup2\n      add\n      0x40\n      mstore\n      dup1\n      swap3\n      swap2\n      swap1\n      dup2\n      dup2\n      mstore\n      0x20\n      add\n      dup3\n      dup1\n      sload\n      tag_250\n      swap1\n      tag_244\n      jump\t// in\n    tag_250:\n      dup1\n      iszero\n      tag_251\n      jumpi\n      dup1\n      0x1f\n      lt\n      tag_252\n      jumpi\n      0x0100\n      dup1\n      dup4\n      sload\n      div\n      mul\n      dup4\n      mstore\n      swap2\n      0x20\n      add\n      swap2\n      jump(tag_251)\n    tag_252:\n      dup3\n      add\n      swap2\n      swap1\n      0x00\n      mstore\n      keccak256(0x00, 0x20)\n      swap1\n    tag_253:\n      dup2\n      sload\n      dup2\n      mstore\n      swap1\n      0x01\n      add\n      swap1\n      0x20\n      add\n      dup1\n      dup4\n      gt\n      tag_253\n      jumpi\n      dup3\n      swap1\n      sub\n      0x1f\n      and\n      dup3\n      add\n      swap2\n    tag_251:\n      pop\n      pop\n      pop\n      pop\n      pop\n      swap1\n      dup1\n      0x05\n      add\n      sload\n      swap1\n      dup1\n      0x06\n      add\n      sload\n      swap1\n      pop\n      dup8\n      jump\t// out\n        /* \"src/SupplyChain.sol\":8144:8761  function getUserTokens(address user) public view returns (uint256[] memory) {... */\n    tag_58:\n        /* \"src/SupplyChain.sol\":8202:8218  uint256[] memory */\n      0x60\n        /* \"src/SupplyChain.sol\":8230:8250  uint256[] memory ids */\n      0x00\n        /* \"src/SupplyChain.sol\":8281:8282  1 */\n      0x01\n        /* \"src/SupplyChain.sol\":8267:8278  nextTokenId */\n      sload(0x00)\n        /* \"src/SupplyChain.sol\":8267:8282  nextTokenId - 1 */\n      tag_255\n      swap2\n      swap1\n      tag_147\n      jump\t// in\n    tag_255:\n        /* \"src/SupplyChain.sol\":8253:8283  new uint256[](nextTokenId - 1) */\n      0xffffffffffffffff\n      dup2\n      gt\n      iszero\n      tag_256\n      jumpi\n      tag_257\n      tag_205\n      jump\t// in\n    tag_257:\n    tag_256:\n      mload(0x40)\n      swap1\n      dup1\n      dup3\n      mstore\n      dup1\n      0x20\n      mul\n      0x20\n      add\n      dup3\n      add\n      0x40\n      mstore\n      dup1\n      iszero\n      tag_258\n      jumpi\n      dup2\n      0x20\n      add\n      0x20\n      dup3\n      mul\n      dup1\n      calldatasize\n      dup4\n      calldatacopy\n      dup1\n      dup3\n      add\n      swap2\n      pop\n      pop\n      swap1\n      pop\n    tag_258:\n      pop\n        /* \"src/SupplyChain.sol\":8230:8283  uint256[] memory ids = new uint256[](nextTokenId - 1) */\n      swap1\n      pop\n        /* \"src/SupplyChain.sol\":8293:8306  uint256 count */\n      0x00\n        /* \"src/SupplyChain.sol\":8309:8310  0 */\n      0x00\n        /* \"src/SupplyChain.sol\":8293:8310  uint256 count = 0 */\n      swap1\n      pop\n        /* \"src/SupplyChain.sol\":8325:8334  uint256 i */\n      0x00\n        /* \"src/SupplyChain.sol\":8337:8338  1 */\n      0x01\n        /* \"src/SupplyChain.sol\":8325:8338  uint256 i = 1 */\n      swap1\n      pop\n        /* \"src/SupplyChain.sol\":8320:8522  for (uint256 i = 1; i < nextTokenId; i++) {... */\n    tag_259:\n        /* \"src/SupplyChain.sol\":8344:8355  nextTokenId */\n      sload(0x00)\n        /* \"src/SupplyChain.sol\":8340:8341  i */\n      dup2\n        /* \"src/SupplyChain.sol\":8340:8355  i < nextTokenId */\n      lt\n        /* \"src/SupplyChain.sol\":8320:8522  for (uint256 i = 1; i < nextTokenId; i++) {... */\n      iszero\n      tag_260\n      jumpi\n        /* \"src/SupplyChain.sol\":8376:8391  Token storage t */\n      0x00\n        /* \"src/SupplyChain.sol\":8394:8400  tokens */\n      0x03\n        /* \"src/SupplyChain.sol\":8394:8403  tokens[i] */\n      0x00\n        /* \"src/SupplyChain.sol\":8401:8402  i */\n      dup4\n        /* \"src/SupplyChain.sol\":8394:8403  tokens[i] */\n      dup2\n      mstore\n      0x20\n      add\n      swap1\n      dup2\n      mstore\n      0x20\n      add\n      0x00\n      keccak256\n        /* \"src/SupplyChain.sol\":8376:8403  Token storage t = tokens[i] */\n      swap1\n      pop\n        /* \"src/SupplyChain.sol\":8434:8438  user */\n      dup6\n        /* \"src/SupplyChain.sol\":8421:8438  t.creator == user */\n      0xffffffffffffffffffffffffffffffffffffffff\n      and\n        /* \"src/SupplyChain.sol\":8421:8422  t */\n      dup2\n        /* \"src/SupplyChain.sol\":8421:8430  t.creator */\n      0x01\n      add\n      0x00\n      swap1\n      sload\n      swap1\n      0x0100\n      exp\n      swap1\n      div\n      0xffffffffffffffffffffffffffffffffffffffff\n      and\n        /* \"src/SupplyChain.sol\":8421:8438  t.creator == user */\n      0xffffffffffffffffffffffffffffffffffffffff\n      and\n      eq\n        /* \"src/SupplyChain.sol\":8421:8461  t.creator == user || t.balance[user] > 0 */\n      dup1\n      tag_262\n      jumpi\n      pop\n        /* \"src/SupplyChain.sol\":8460:8461  0 */\n      0x00\n        /* \"src/SupplyChain.sol\":8442:8443  t */\n      dup2\n        /* \"src/SupplyChain.sol\":8442:8451  t.balance */\n      0x07\n      add\n        /* \"src/SupplyChain.sol\":8442:8457  t.balance[user] */\n      0x00\n        /* \"src/SupplyChain.sol\":8452:8456  user */\n      dup9\n        /* \"src/SupplyChain.sol\":8442:8457  t.balance[user] */\n      0xffffffffffffffffffffffffffffffffffffffff\n      and\n      0xffffffffffffffffffffffffffffffffffffffff\n      and\n      dup2\n      mstore\n      0x20\n      add\n      swap1\n      dup2\n      mstore\n      0x20\n      add\n      0x00\n      keccak256\n      sload\n        /* \"src/SupplyChain.sol\":8442:8461  t.balance[user] > 0 */\n      gt\n        /* \"src/SupplyChain.sol\":8421:8461  t.creator == user || t.balance[user] > 0 */\n    tag_262:\n        /* \"src/SupplyChain.sol\":8417:8512  if (t.creator == user || t.balance[user] > 0) {... */\n      iszero\n      tag_263\n      jumpi\n        /* \"src/SupplyChain.sol\":8496:8497  i */\n      dup2\n        /* \"src/SupplyChain.sol\":8481:8484  ids */\n      dup5\n        /* \"src/SupplyChain.sol\":8485:8492  count++ */\n      dup5\n      dup1\n      tag_264\n      swap1\n      tag_151\n      jump\t// in\n    tag_264:\n      swap6\n      pop\n        /* \"src/SupplyChain.sol\":8481:8493  ids[count++] */\n      dup2\n      mload\n      dup2\n      lt\n      tag_265\n      jumpi\n      tag_266\n      tag_215\n      jump\t// in\n    tag_266:\n    tag_265:\n      0x20\n      mul\n      0x20\n      add\n      add\n        /* \"src/SupplyChain.sol\":8481:8497  ids[count++] = i */\n      dup2\n      dup2\n      mstore\n      pop\n      pop\n        /* \"src/SupplyChain.sol\":8417:8512  if (t.creator == user || t.balance[user] > 0) {... */\n    tag_263:\n        /* \"src/SupplyChain.sol\":8362:8522  {... */\n      pop\n        /* \"src/SupplyChain.sol\":8357:8360  i++ */\n      dup1\n      dup1\n      0x01\n      add\n      swap2\n      pop\n      pop\n        /* \"src/SupplyChain.sol\":8320:8522  for (uint256 i = 1; i < nextTokenId; i++) {... */\n      jump(tag_259)\n    tag_260:\n      pop\n        /* \"src/SupplyChain.sol\":8597:8620  uint256[] memory result */\n      0x00\n        /* \"src/SupplyChain.sol\":8637:8642  count */\n      dup2\n        /* \"src/SupplyChain.sol\":8623:8643  new uint256[](count) */\n      0xffffffffffffffff\n      dup2\n      gt\n      iszero\n      tag_267\n      jumpi\n      tag_268\n      tag_205\n      jump\t// in\n    tag_268:\n    tag_267:\n      mload(0x40)\n      swap1\n      dup1\n      dup3\n      mstore\n      dup1\n      0x20\n      mul\n      0x20\n      add\n      dup3\n      add\n      0x40\n      mstore\n      dup1\n      iszero\n      tag_269\n      jumpi\n      dup2\n      0x20\n      add\n      0x20\n      dup3\n      mul\n      dup1\n      calldatasize\n      dup4\n      calldatacopy\n      dup1\n      dup3\n      add\n      swap2\n      pop\n      pop\n      swap1\n      pop\n    tag_269:\n      pop\n        /* \"src/SupplyChain.sol\":8597:8643  uint256[] memory result = new uint256[](count) */\n      swap1\n      pop\n        /* \"src/SupplyChain.sol\":8658:8667  uint256 i */\n      0x00\n        /* \"src/SupplyChain.sol\":8670:8671  0 */\n      0x00\n        /* \"src/SupplyChain.sol\":8658:8671  uint256 i = 0 */\n      swap1\n      pop\n        /* \"src/SupplyChain.sol\":8653:8732  for (uint256 i = 0; i < count; i++) {... */\n    tag_270:\n        /* \"src/SupplyChain.sol\":8677:8682  count */\n      dup3\n        /* \"src/SupplyChain.sol\":8673:8674  i */\n      dup2\n        /* \"src/SupplyChain.sol\":8673:8682  i < count */\n      lt\n        /* \"src/SupplyChain.sol\":8653:8732  for (uint256 i = 0; i < count; i++) {... */\n      iszero\n      tag_271\n      jumpi\n        /* \"src/SupplyChain.sol\":8715:8718  ids */\n      dup4\n        /* \"src/SupplyChain.sol\":8719:8720  i */\n      dup2\n        /* \"src/SupplyChain.sol\":8715:8721  ids[i] */\n      dup2\n      mload\n      dup2\n      lt\n      tag_273\n      jumpi\n      tag_274\n      tag_215\n      jump\t// in\n    tag_274:\n    tag_273:\n      0x20\n      mul\n      0x20\n      add\n      add\n      mload\n        /* \"src/SupplyChain.sol\":8703:8709  result */\n      dup3\n        /* \"src/SupplyChain.sol\":8710:8711  i */\n      dup3\n        /* \"src/SupplyChain.sol\":8703:8712  result[i] */\n      dup2\n      mload\n      dup2\n      lt\n      tag_275\n      jumpi\n      tag_276\n      tag_215\n      jump\t// in\n    tag_276:\n    tag_275:\n      0x20\n      mul\n      0x20\n      add\n      add\n        /* \"src/SupplyChain.sol\":8703:8721  result[i] = ids[i] */\n      dup2\n      dup2\n      mstore\n      pop\n      pop\n        /* \"src/SupplyChain.sol\":8684:8687  i++ */\n      dup1\n      dup1\n      0x01\n      add\n      swap2\n      pop\n      pop\n        /* \"src/SupplyChain.sol\":8653:8732  for (uint256 i = 0; i < count; i++) {... */\n      jump(tag_270)\n    tag_271:\n      pop\n        /* \"src/SupplyChain.sol\":8748:8754  result */\n      dup1\n        /* \"src/SupplyChain.sol\":8741:8754  return result */\n      swap4\n      pop\n      pop\n      pop\n      pop\n        /* \"src/SupplyChain.sol\":8144:8761  function getUserTokens(address user) public view returns (uint256[] memory) {... */\n      swap2\n      swap1\n      pop\n      jump\t// out\n        /* \"src/SupplyChain.sol\":3702:3931  function getUserInfo(address userAddress) public view returns (User memory) {... */\n    tag_62:\n        /* \"src/SupplyChain.sol\":3765:3776  User memory */\n      tag_277\n      tag_278\n      jump\t// in\n    tag_277:\n        /* \"src/SupplyChain.sol\":3788:3802  uint256 userId */\n      0x00\n        /* \"src/SupplyChain.sol\":3805:3820  addressToUserId */\n      0x06\n        /* \"src/SupplyChain.sol\":3805:3833  addressToUserId[userAddress] */\n      0x00\n        /* \"src/SupplyChain.sol\":3821:3832  userAddress */\n      dup5\n        /* \"src/SupplyChain.sol\":3805:3833  addressToUserId[userAddress] */\n      0xffffffffffffffffffffffffffffffffffffffff\n      and\n      0xffffffffffffffffffffffffffffffffffffffff\n      and\n      dup2\n      mstore\n      0x20\n      add\n      swap1\n      dup2\n      mstore\n      0x20\n      add\n      0x00\n      keccak256\n      sload\n        /* \"src/SupplyChain.sol\":3788:3833  uint256 userId = addressToUserId[userAddress] */\n      swap1\n      pop\n        /* \"src/SupplyChain.sol\":3860:3861  0 */\n      0x00\n        /* \"src/SupplyChain.sol\":3850:3856  userId */\n      dup2\n        /* \"src/SupplyChain.sol\":3850:3861  userId == 0 */\n      eq\n        /* \"src/SupplyChain.sol\":3850:3924  userId == 0 ? User(0, address(0), \"\", UserStatus.Rejected) : users[userId] */\n      tag_280\n      jumpi\n        /* \"src/SupplyChain.sol\":3911:3916  users */\n      0x05\n        /* \"src/SupplyChain.sol\":3911:3924  users[userId] */\n      0x00\n        /* \"src/SupplyChain.sol\":3917:3923  userId */\n      dup3\n        /* \"src/SupplyChain.sol\":3911:3924  users[userId] */\n      dup2\n      mstore\n      0x20\n      add\n      swap1\n      dup2\n      mstore\n      0x20\n      add\n      0x00\n      keccak256\n        /* \"src/SupplyChain.sol\":3850:3924  userId == 0 ? User(0, address(0), \"\", UserStatus.Rejected) : users[userId] */\n      mload(0x40)\n      dup1\n      0x80\n      add\n      0x40\n      mstore\n      swap1\n      dup2\n      0x00\n      dup3\n      add\n      sload\n      dup2\n      mstore\n      0x20\n      add\n      0x01\n      dup3\n      add\n      0x00\n      swap1\n      sload\n      swap1\n      0x0100\n      exp\n      swap1\n      div\n      0xffffffffffffffffffffffffffffffffffffffff\n      and\n      0xffffffffffffffffffffffffffffffffffffffff\n      and\n      0xffffffffffffffffffffffffffffffffffffffff\n      and\n      dup2\n      mstore\n      0x20\n      add\n      0x02\n      dup3\n      add\n      sload\n      dup2\n      mstore\n      0x20\n      add\n      0x03\n      dup3\n      add\n      0x00\n      swap1\n      sload\n      swap1\n      0x0100\n      exp\n      swap1\n      div\n      0xff\n      and\n      0x03\n      dup2\n      gt\n      iszero\n      tag_281\n      jumpi\n      tag_282\n      tag_110\n      jump\t// in\n    tag_282:\n    tag_281:\n      0x03\n      dup2\n      gt\n      iszero\n      tag_283\n      jumpi\n      tag_284\n      tag_110\n      jump\t// in\n    tag_284:\n    tag_283:\n      dup2\n      mstore\n      pop\n      pop\n      jump(tag_285)\n    tag_280:\n        /* \"src/SupplyChain.sol\":3864:3908  User(0, address(0), \"\", UserStatus.Rejected) */\n      mload(0x40)\n      dup1\n      0x80\n      add\n      0x40\n      mstore\n      dup1\n        /* \"src/SupplyChain.sol\":3869:3870  0 */\n      0x00\n        /* \"src/SupplyChain.sol\":3864:3908  User(0, address(0), \"\", UserStatus.Rejected) */\n      dup2\n      mstore\n      0x20\n      add\n        /* \"src/SupplyChain.sol\":3880:3881  0 */\n      0x00\n        /* \"src/SupplyChain.sol\":3864:3908  User(0, address(0), \"\", UserStatus.Rejected) */\n      0xffffffffffffffffffffffffffffffffffffffff\n      and\n      dup2\n      mstore\n      0x20\n      add\n      0x00\n      dup2\n      mstore\n      0x20\n      add\n        /* \"src/SupplyChain.sol\":3888:3907  UserStatus.Rejected */\n      0x02\n        /* \"src/SupplyChain.sol\":3864:3908  User(0, address(0), \"\", UserStatus.Rejected) */\n      0x03\n      dup2\n      gt\n      iszero\n      tag_286\n      jumpi\n      tag_287\n      tag_110\n      jump\t// in\n    tag_287:\n    tag_286:\n      dup2\n      mstore\n      pop\n        /* \"src/SupplyChain.sol\":3850:3924  userId == 0 ? User(0, address(0), \"\", UserStatus.Rejected) : users[userId] */\n    tag_285:\n        /* \"src/SupplyChain.sol\":3843:3924  return userId == 0 ? User(0, address(0), \"\", UserStatus.Rejected) : users[userId] */\n      swap2\n      pop\n      pop\n        /* \"src/SupplyChain.sol\":3702:3931  function getUserInfo(address userAddress) public view returns (User memory) {... */\n      swap2\n      swap1\n      pop\n      jump\t// out\n        /* \"src/SupplyChain.sol\":1484:1514  uint256 public nextTokenId = 1 */\n    tag_66:\n      sload(0x00)\n      dup2\n      jump\t// out\n        /* \"src/SupplyChain.sol\":3402:3696  function changeStatusUser(address userAddress, UserStatus newStatus) public onlyAdmin {... */\n    tag_72:\n        /* \"src/SupplyChain.sol\":2379:2384  admin */\n      immutable(\"0x7aec2e6420b6fcb778a66c2b9d8fa18a316e494bda11ec5e5a11deee861d114c\")\n        /* \"src/SupplyChain.sol\":2365:2384  msg.sender == admin */\n      0xffffffffffffffffffffffffffffffffffffffff\n      and\n        /* \"src/SupplyChain.sol\":2365:2375  msg.sender */\n      caller\n        /* \"src/SupplyChain.sol\":2365:2384  msg.sender == admin */\n      0xffffffffffffffffffffffffffffffffffffffff\n      and\n      eq\n        /* \"src/SupplyChain.sol\":2357:2398  require(msg.sender == admin, \"Not admin\") */\n      tag_289\n      jumpi\n      mload(0x40)\n      0x08c379a000000000000000000000000000000000000000000000000000000000\n      dup2\n      mstore\n      0x04\n      add\n      tag_290\n      swap1\n      tag_291\n      jump\t// in\n    tag_290:\n      mload(0x40)\n      dup1\n      swap2\n      sub\n      swap1\n      revert\n    tag_289:\n        /* \"src/SupplyChain.sol\":3498:3512  uint256 userId */\n      0x00\n        /* \"src/SupplyChain.sol\":3515:3530  addressToUserId */\n      0x06\n        /* \"src/SupplyChain.sol\":3515:3543  addressToUserId[userAddress] */\n      0x00\n        /* \"src/SupplyChain.sol\":3531:3542  userAddress */\n      dup5\n        /* \"src/SupplyChain.sol\":3515:3543  addressToUserId[userAddress] */\n      0xffffffffffffffffffffffffffffffffffffffff\n      and\n      0xffffffffffffffffffffffffffffffffffffffff\n      and\n      dup2\n      mstore\n      0x20\n      add\n      swap1\n      dup2\n      mstore\n      0x20\n      add\n      0x00\n      keccak256\n      sload\n        /* \"src/SupplyChain.sol\":3498:3543  uint256 userId = addressToUserId[userAddress] */\n      swap1\n      pop\n        /* \"src/SupplyChain.sol\":3571:3572  0 */\n      0x00\n        /* \"src/SupplyChain.sol\":3561:3567  userId */\n      dup2\n        /* \"src/SupplyChain.sol\":3561:3572  userId != 0 */\n      sub\n        /* \"src/SupplyChain.sol\":3553:3591  require(userId != 0, \"User not found\") */\n      tag_293\n      jumpi\n      mload(0x40)\n      0x08c379a000000000000000000000000000000000000000000000000000000000\n      dup2\n      mstore\n      0x04\n      add\n      tag_294\n      swap1\n      tag_295\n      jump\t// in\n    tag_294:\n      mload(0x40)\n      dup1\n      swap2\n      sub\n      swap1\n      revert\n    tag_293:\n        /* \"src/SupplyChain.sol\":3624:3633  newStatus */\n      dup2\n        /* \"src/SupplyChain.sol\":3601:3606  users */\n      0x05\n        /* \"src/SupplyChain.sol\":3601:3614  users[userId] */\n      0x00\n        /* \"src/SupplyChain.sol\":3607:3613  userId */\n      dup4\n        /* \"src/SupplyChain.sol\":3601:3614  users[userId] */\n      dup2\n      mstore\n      0x20\n      add\n      swap1\n      dup2\n      mstore\n      0x20\n      add\n      0x00\n      keccak256\n        /* \"src/SupplyChain.sol\":3601:3621  users[userId].status */\n      0x03\n      add\n      0x00\n        /* \"src/SupplyChain.sol\":3601:3633  users[userId].status = newStatus */\n      0x0100\n      exp\n      dup2\n      sload\n      dup2\n      0xff\n      mul\n      not\n      and\n      swap1\n      dup4\n      0x03\n      dup2\n      gt\n      iszero\n      tag_296\n      jumpi\n      tag_297\n      tag_110\n      jump\t// in\n    tag_297:\n    tag_296:\n      mul\n      or\n      swap1\n      sstore\n      pop\n        /* \"src/SupplyChain.sol\":3666:3677  userAddress */\n      dup3\n        /* \"src/SupplyChain.sol\":3648:3689  UserStatusChanged(userAddress, newStatus) */\n      0xffffffffffffffffffffffffffffffffffffffff\n      and\n      0xb3b609c7a5e504a312603e90d906d1667fd5caff0a840ad07bf5709a3ca1a045\n        /* \"src/SupplyChain.sol\":3679:3688  newStatus */\n      dup4\n        /* \"src/SupplyChain.sol\":3648:3689  UserStatusChanged(userAddress, newStatus) */\n      mload(0x40)\n      tag_298\n      swap2\n      swap1\n      tag_242\n      jump\t// in\n    tag_298:\n      mload(0x40)\n      dup1\n      swap2\n      sub\n      swap1\n      log2\n        /* \"src/SupplyChain.sol\":3488:3696  {... */\n      pop\n        /* \"src/SupplyChain.sol\":3402:3696  function changeStatusUser(address userAddress, UserStatus newStatus) public onlyAdmin {... */\n      pop\n      pop\n      jump\t// out\n        /* \"src/SupplyChain.sol\":1640:1685  mapping(uint256 => Transfer) public transfers */\n    tag_75:\n      mstore(0x20, 0x04)\n      dup1\n      0x00\n      mstore\n      keccak256(0x00, 0x40)\n      0x00\n      swap2\n      pop\n      swap1\n      pop\n      dup1\n      0x00\n      add\n      sload\n      swap1\n      dup1\n      0x01\n      add\n      0x00\n      swap1\n      sload\n      swap1\n      0x0100\n      exp\n      swap1\n      div\n      0xffffffffffffffffffffffffffffffffffffffff\n      and\n      swap1\n      dup1\n      0x02\n      add\n      0x00\n      swap1\n      sload\n      swap1\n      0x0100\n      exp\n      swap1\n      div\n      0xffffffffffffffffffffffffffffffffffffffff\n      and\n      swap1\n      dup1\n      0x03\n      add\n      sload\n      swap1\n      dup1\n      0x04\n      add\n      sload\n      swap1\n      dup1\n      0x05\n      add\n      sload\n      swap1\n      dup1\n      0x06\n      add\n      0x00\n      swap1\n      sload\n      swap1\n      0x0100\n      exp\n      swap1\n      div\n      0xff\n      and\n      swap1\n      pop\n      dup8\n      jump\t// out\n        /* \"src/SupplyChain.sol\":1559:1588  uint256 public nextUserId = 1 */\n    tag_79:\n      sload(0x02)\n      dup2\n      jump\t// out\n        /* \"src/SupplyChain.sol\":1734:1784  mapping(address => uint256) public addressToUserId */\n    tag_83:\n      mstore(0x20, 0x06)\n      dup1\n      0x00\n      mstore\n      keccak256(0x00, 0x40)\n      0x00\n      swap2\n      pop\n      swap1\n      pop\n      sload\n      dup2\n      jump\t// out\n        /* \"src/SupplyChain.sol\":1520:1553  uint256 public nextTransferId = 1 */\n    tag_86:\n      sload(0x01)\n      dup2\n      jump\t// out\n        /* \"src/SupplyChain.sol\":3969:4648  function createToken(... */\n    tag_91:\n        /* \"src/SupplyChain.sol\":2460:2474  uint256 userId */\n      0x00\n        /* \"src/SupplyChain.sol\":2477:2492  addressToUserId */\n      0x06\n        /* \"src/SupplyChain.sol\":2477:2504  addressToUserId[msg.sender] */\n      0x00\n        /* \"src/SupplyChain.sol\":2493:2503  msg.sender */\n      caller\n        /* \"src/SupplyChain.sol\":2477:2504  addressToUserId[msg.sender] */\n      0xffffffffffffffffffffffffffffffffffffffff\n      and\n      0xffffffffffffffffffffffffffffffffffffffff\n      and\n      dup2\n      mstore\n      0x20\n      add\n      swap1\n      dup2\n      mstore\n      0x20\n      add\n      0x00\n      keccak256\n      sload\n        /* \"src/SupplyChain.sol\":2460:2504  uint256 userId = addressToUserId[msg.sender] */\n      swap1\n      pop\n        /* \"src/SupplyChain.sol\":2532:2533  0 */\n      0x00\n        /* \"src/SupplyChain.sol\":2522:2528  userId */\n      dup2\n        /* \"src/SupplyChain.sol\":2522:2533  userId != 0 */\n      eq\n      iszero\n        /* \"src/SupplyChain.sol\":2522:2580  userId != 0 && users[userId].status == UserStatus.Approved */\n      dup1\n      iszero\n      tag_300\n      jumpi\n      pop\n        /* \"src/SupplyChain.sol\":2561:2580  UserStatus.Approved */\n      0x01\n        /* \"src/SupplyChain.sol\":2537:2580  users[userId].status == UserStatus.Approved */\n      0x03\n      dup2\n      gt\n      iszero\n      tag_301\n      jumpi\n      tag_302\n      tag_110\n      jump\t// in\n    tag_302:\n    tag_301:\n        /* \"src/SupplyChain.sol\":2537:2542  users */\n      0x05\n        /* \"src/SupplyChain.sol\":2537:2550  users[userId] */\n      0x00\n        /* \"src/SupplyChain.sol\":2543:2549  userId */\n      dup4\n        /* \"src/SupplyChain.sol\":2537:2550  users[userId] */\n      dup2\n      mstore\n      0x20\n      add\n      swap1\n      dup2\n      mstore\n      0x20\n      add\n      0x00\n      keccak256\n        /* \"src/SupplyChain.sol\":2537:2557  users[userId].status */\n      0x03\n      add\n      0x00\n      swap1\n      sload\n      swap1\n      0x0100\n      exp\n      swap1\n      div\n      0xff\n      and\n        /* \"src/SupplyChain.sol\":2537:2580  users[userId].status == UserStatus.Approved */\n      0x03\n      dup2\n      gt\n      iszero\n      tag_303\n      jumpi\n      tag_304\n      tag_110\n      jump\t// in\n    tag_304:\n    tag_303:\n      eq\n        /* \"src/SupplyChain.sol\":2522:2580  userId != 0 && users[userId].status == UserStatus.Approved */\n    tag_300:\n        /* \"src/SupplyChain.sol\":2514:2597  require(userId != 0 && users[userId].status == UserStatus.Approved, \"Not approved\") */\n      tag_305\n      jumpi\n      mload(0x40)\n      0x08c379a000000000000000000000000000000000000000000000000000000000\n      dup2\n      mstore\n      0x04\n      add\n      tag_306\n      swap1\n      tag_115\n      jump\t// in\n    tag_306:\n      mload(0x40)\n      dup1\n      swap2\n      sub\n      swap1\n      revert\n    tag_305:\n        /* \"src/SupplyChain.sol\":4178:4179  0 */\n      0x00\n        /* \"src/SupplyChain.sol\":4163:4167  name */\n      dup8\n      dup8\n        /* \"src/SupplyChain.sol\":4157:4175  bytes(name).length */\n      swap1\n      pop\n        /* \"src/SupplyChain.sol\":4157:4179  bytes(name).length > 0 */\n      gt\n        /* \"src/SupplyChain.sol\":4149:4194  require(bytes(name).length > 0, \"Name empty\") */\n      tag_308\n      jumpi\n      mload(0x40)\n      0x08c379a000000000000000000000000000000000000000000000000000000000\n      dup2\n      mstore\n      0x04\n      add\n      tag_309\n      swap1\n      tag_310\n      jump\t// in\n    tag_309:\n      mload(0x40)\n      dup1\n      swap2\n      sub\n      swap1\n      revert\n    tag_308:\n        /* \"src/SupplyChain.sol\":4204:4217  uint256 newId */\n      0x00\n        /* \"src/SupplyChain.sol\":4220:4231  nextTokenId */\n      0x00\n      0x00\n        /* \"src/SupplyChain.sol\":4220:4233  nextTokenId++ */\n      dup2\n      sload\n      dup1\n      swap3\n      swap2\n      swap1\n      tag_311\n      swap1\n      tag_151\n      jump\t// in\n    tag_311:\n      swap2\n      swap1\n      pop\n      sstore\n        /* \"src/SupplyChain.sol\":4204:4233  uint256 newId = nextTokenId++ */\n      swap1\n      pop\n        /* \"src/SupplyChain.sol\":4243:4260  Token storage tkn */\n      0x00\n        /* \"src/SupplyChain.sol\":4263:4269  tokens */\n      0x03\n        /* \"src/SupplyChain.sol\":4263:4276  tokens[newId] */\n      0x00\n        /* \"src/SupplyChain.sol\":4270:4275  newId */\n      dup4\n        /* \"src/SupplyChain.sol\":4263:4276  tokens[newId] */\n      dup2\n      mstore\n      0x20\n      add\n      swap1\n      dup2\n      mstore\n      0x20\n      add\n      0x00\n      keccak256\n        /* \"src/SupplyChain.sol\":4243:4276  Token storage tkn = tokens[newId] */\n      swap1\n      pop\n        /* \"src/SupplyChain.sol\":4295:4300  newId */\n      dup2\n        /* \"src/SupplyChain.sol\":4286:4289  tkn */\n      dup2\n        /* \"src/SupplyChain.sol\":4286:4292  tkn.id */\n      0x00\n      add\n        /* \"src/SupplyChain.sol\":4286:4300  tkn.id = newId */\n      dup2\n      swap1\n      sstore\n      pop\n        /* \"src/SupplyChain.sol\":4324:4334  msg.sender */\n      caller\n        /* \"src/SupplyChain.sol\":4310:4313  tkn */\n      dup2\n        /* \"src/SupplyChain.sol\":4310:4321  tkn.creator */\n      0x01\n      add\n      0x00\n        /* \"src/SupplyChain.sol\":4310:4334  tkn.creator = msg.sender */\n      0x0100\n      exp\n      dup2\n      sload\n      dup2\n      0xffffffffffffffffffffffffffffffffffffffff\n      mul\n      not\n      and\n      swap1\n      dup4\n      0xffffffffffffffffffffffffffffffffffffffff\n      and\n      mul\n      or\n      swap1\n      sstore\n      pop\n        /* \"src/SupplyChain.sol\":4355:4359  name */\n      dup9\n      dup9\n        /* \"src/SupplyChain.sol\":4344:4347  tkn */\n      dup3\n        /* \"src/SupplyChain.sol\":4344:4352  tkn.name */\n      0x02\n      add\n        /* \"src/SupplyChain.sol\":4344:4359  tkn.name = name */\n      swap2\n      dup3\n      tag_312\n      swap3\n      swap2\n      swap1\n      tag_313\n      jump\t// in\n    tag_312:\n      pop\n        /* \"src/SupplyChain.sol\":4387:4398  totalSupply */\n      dup7\n        /* \"src/SupplyChain.sol\":4369:4372  tkn */\n      dup2\n        /* \"src/SupplyChain.sol\":4369:4384  tkn.totalSupply */\n      0x03\n      add\n        /* \"src/SupplyChain.sol\":4369:4398  tkn.totalSupply = totalSupply */\n      dup2\n      swap1\n      sstore\n      pop\n        /* \"src/SupplyChain.sol\":4423:4431  features */\n      dup6\n      dup6\n        /* \"src/SupplyChain.sol\":4408:4411  tkn */\n      dup3\n        /* \"src/SupplyChain.sol\":4408:4420  tkn.features */\n      0x04\n      add\n        /* \"src/SupplyChain.sol\":4408:4431  tkn.features = features */\n      swap2\n      dup3\n      tag_314\n      swap3\n      swap2\n      swap1\n      tag_313\n      jump\t// in\n    tag_314:\n      pop\n        /* \"src/SupplyChain.sol\":4456:4464  parentId */\n      dup4\n        /* \"src/SupplyChain.sol\":4441:4444  tkn */\n      dup2\n        /* \"src/SupplyChain.sol\":4441:4453  tkn.parentId */\n      0x05\n      add\n        /* \"src/SupplyChain.sol\":4441:4464  tkn.parentId = parentId */\n      dup2\n      swap1\n      sstore\n      pop\n        /* \"src/SupplyChain.sol\":4492:4507  block.timestamp */\n      timestamp\n        /* \"src/SupplyChain.sol\":4474:4477  tkn */\n      dup2\n        /* \"src/SupplyChain.sol\":4474:4489  tkn.dateCreated */\n      0x06\n      add\n        /* \"src/SupplyChain.sol\":4474:4507  tkn.dateCreated = block.timestamp */\n      dup2\n      swap1\n      sstore\n      pop\n        /* \"src/SupplyChain.sol\":4543:4554  totalSupply */\n      dup7\n        /* \"src/SupplyChain.sol\":4517:4520  tkn */\n      dup2\n        /* \"src/SupplyChain.sol\":4517:4528  tkn.balance */\n      0x07\n      add\n        /* \"src/SupplyChain.sol\":4517:4540  tkn.balance[msg.sender] */\n      0x00\n        /* \"src/SupplyChain.sol\":4529:4539  msg.sender */\n      caller\n        /* \"src/SupplyChain.sol\":4517:4540  tkn.balance[msg.sender] */\n      0xffffffffffffffffffffffffffffffffffffffff\n      and\n      0xffffffffffffffffffffffffffffffffffffffff\n      and\n      dup2\n      mstore\n      0x20\n      add\n      swap1\n      dup2\n      mstore\n      0x20\n      add\n      0x00\n      keccak256\n        /* \"src/SupplyChain.sol\":4517:4554  tkn.balance[msg.sender] = totalSupply */\n      dup2\n      swap1\n      sstore\n      pop\n        /* \"src/SupplyChain.sol\":4611:4621  msg.sender */\n      caller\n        /* \"src/SupplyChain.sol\":4591:4641  TokenCreated(newId, msg.sender, name, totalSupply) */\n      0xffffffffffffffffffffffffffffffffffffffff\n      and\n        /* \"src/SupplyChain.sol\":4604:4609  newId */\n      dup3\n        /* \"src/SupplyChain.sol\":4591:4641  TokenCreated(newId, msg.sender, name, totalSupply) */\n      0x463ec2a62c46678a81e23cde640446ca4b512f102bb3309cf5a3e2a4ae831464\n        /* \"src/SupplyChain.sol\":4623:4627  name */\n      dup12\n      dup12\n        /* \"src/SupplyChain.sol\":4629:4640  totalSupply */\n      dup12\n        /* \"src/SupplyChain.sol\":4591:4641  TokenCreated(newId, msg.sender, name, totalSupply) */\n      mload(0x40)\n      tag_315\n      swap4\n      swap3\n      swap2\n      swap1\n      tag_316\n      jump\t// in\n    tag_315:\n      mload(0x40)\n      dup1\n      swap2\n      sub\n      swap1\n      log3\n        /* \"src/SupplyChain.sol\":4139:4648  {... */\n      pop\n      pop\n        /* \"src/SupplyChain.sol\":2450:2615  {... */\n      pop\n        /* \"src/SupplyChain.sol\":3969:4648  function createToken(... */\n      pop\n      pop\n      pop\n      pop\n      pop\n      pop\n      jump\t// out\n        /* \"src/SupplyChain.sol\":4654:5181  function getToken(uint256 tokenId) public view returns (... */\n    tag_94:\n        /* \"src/SupplyChain.sol\":4719:4729  uint256 id */\n      0x00\n        /* \"src/SupplyChain.sol\":4739:4754  address creator */\n      0x00\n        /* \"src/SupplyChain.sol\":4764:4782  string memory name */\n      0x60\n        /* \"src/SupplyChain.sol\":4792:4811  uint256 totalSupply */\n      0x00\n        /* \"src/SupplyChain.sol\":4821:4837  uint256 parentId */\n      0x00\n        /* \"src/SupplyChain.sol\":4847:4866  uint256 dateCreated */\n      0x00\n        /* \"src/SupplyChain.sol\":4876:4891  uint256 balance */\n      0x00\n        /* \"src/SupplyChain.sol\":4908:4927  Token storage token */\n      0x00\n        /* \"src/SupplyChain.sol\":4930:4936  tokens */\n      0x03\n        /* \"src/SupplyChain.sol\":4930:4945  tokens[tokenId] */\n      0x00\n        /* \"src/SupplyChain.sol\":4937:4944  tokenId */\n      dup11\n        /* \"src/SupplyChain.sol\":4930:4945  tokens[tokenId] */\n      dup2\n      mstore\n      0x20\n      add\n      swap1\n      dup2\n      mstore\n      0x20\n      add\n      0x00\n      keccak256\n        /* \"src/SupplyChain.sol\":4908:4945  Token storage token = tokens[tokenId] */\n      swap1\n      pop\n        /* \"src/SupplyChain.sol\":4976:4981  token */\n      dup1\n        /* \"src/SupplyChain.sol\":4976:4984  token.id */\n      0x00\n      add\n      sload\n        /* \"src/SupplyChain.sol\":4998:5003  token */\n      dup2\n        /* \"src/SupplyChain.sol\":4998:5011  token.creator */\n      0x01\n      add\n      0x00\n      swap1\n      sload\n      swap1\n      0x0100\n      exp\n      swap1\n      div\n      0xffffffffffffffffffffffffffffffffffffffff\n      and\n        /* \"src/SupplyChain.sol\":5025:5030  token */\n      dup3\n        /* \"src/SupplyChain.sol\":5025:5035  token.name */\n      0x02\n      add\n        /* \"src/SupplyChain.sol\":5049:5054  token */\n      dup4\n        /* \"src/SupplyChain.sol\":5049:5066  token.totalSupply */\n      0x03\n      add\n      sload\n        /* \"src/SupplyChain.sol\":5080:5085  token */\n      dup5\n        /* \"src/SupplyChain.sol\":5080:5094  token.parentId */\n      0x05\n      add\n      sload\n        /* \"src/SupplyChain.sol\":5108:5113  token */\n      dup6\n        /* \"src/SupplyChain.sol\":5108:5125  token.dateCreated */\n      0x06\n      add\n      sload\n        /* \"src/SupplyChain.sol\":5139:5144  token */\n      dup7\n        /* \"src/SupplyChain.sol\":5139:5152  token.balance */\n      0x07\n      add\n        /* \"src/SupplyChain.sol\":5139:5164  token.balance[msg.sender] */\n      0x00\n        /* \"src/SupplyChain.sol\":5153:5163  msg.sender */\n      caller\n        /* \"src/SupplyChain.sol\":5139:5164  token.balance[msg.sender] */\n      0xffffffffffffffffffffffffffffffffffffffff\n      and\n      0xffffffffffffffffffffffffffffffffffffffff\n      and\n      dup2\n      mstore\n      0x20\n      add\n      swap1\n      dup2\n      mstore\n      0x20\n      add\n      0x00\n      keccak256\n      sload\n        /* \"src/SupplyChain.sol\":4955:5174  return (... */\n      dup5\n      dup1\n      sload\n      tag_318\n      swap1\n      tag_244\n      jump\t// in\n    tag_318:\n      dup1\n      0x1f\n      add\n      0x20\n      dup1\n      swap2\n      div\n      mul\n      0x20\n      add\n      mload(0x40)\n      swap1\n      dup2\n      add\n      0x40\n      mstore\n      dup1\n      swap3\n      swap2\n      swap1\n      dup2\n      dup2\n      mstore\n      0x20\n      add\n      dup3\n      dup1\n      sload\n      tag_319\n      swap1\n      tag_244\n      jump\t// in\n    tag_319:\n      dup1\n      iszero\n      tag_320\n      jumpi\n      dup1\n      0x1f\n      lt\n      tag_321\n      jumpi\n      0x0100\n      dup1\n      dup4\n      sload\n      div\n      mul\n      dup4\n      mstore\n      swap2\n      0x20\n      add\n      swap2\n      jump(tag_320)\n    tag_321:\n      dup3\n      add\n      swap2\n      swap1\n      0x00\n      mstore\n      keccak256(0x00, 0x20)\n      swap1\n    tag_322:\n      dup2\n      sload\n      dup2\n      mstore\n      swap1\n      0x01\n      add\n      swap1\n      0x20\n      add\n      dup1\n      dup4\n      gt\n      tag_322\n      jumpi\n      dup3\n      swap1\n      sub\n      0x1f\n      and\n      dup3\n      add\n      swap2\n    tag_320:\n      pop\n      pop\n      pop\n      pop\n      pop\n      swap5\n      pop\n      swap8\n      pop\n      swap8\n      pop\n      swap8\n      pop\n      swap8\n      pop\n      swap8\n      pop\n      swap8\n      pop\n      swap8\n      pop\n      pop\n        /* \"src/SupplyChain.sol\":4654:5181  function getToken(uint256 tokenId) public view returns (... */\n      swap2\n      swap4\n      swap6\n      swap8\n      swap1\n      swap3\n      swap5\n      swap7\n      pop\n      jump\t// out\n        /* \"src/SupplyChain.sol\":5187:5390  function getTokenBalance(uint256 tokenId, address user) public view returns (uint256) {... */\n    tag_100:\n        /* \"src/SupplyChain.sol\":5264:5271  uint256 */\n      0x00\n        /* \"src/SupplyChain.sol\":5301:5312  nextTokenId */\n      sload(0x00)\n        /* \"src/SupplyChain.sol\":5291:5298  tokenId */\n      dup4\n        /* \"src/SupplyChain.sol\":5291:5312  tokenId < nextTokenId */\n      lt\n        /* \"src/SupplyChain.sol\":5283:5337  require(tokenId < nextTokenId, \"Token does not exist\") */\n      tag_324\n      jumpi\n      mload(0x40)\n      0x08c379a000000000000000000000000000000000000000000000000000000000\n      dup2\n      mstore\n      0x04\n      add\n      tag_325\n      swap1\n      tag_129\n      jump\t// in\n    tag_325:\n      mload(0x40)\n      dup1\n      swap2\n      sub\n      swap1\n      revert\n    tag_324:\n        /* \"src/SupplyChain.sol\":5354:5360  tokens */\n      0x03\n        /* \"src/SupplyChain.sol\":5354:5369  tokens[tokenId] */\n      0x00\n        /* \"src/SupplyChain.sol\":5361:5368  tokenId */\n      dup5\n        /* \"src/SupplyChain.sol\":5354:5369  tokens[tokenId] */\n      dup2\n      mstore\n      0x20\n      add\n      swap1\n      dup2\n      mstore\n      0x20\n      add\n      0x00\n      keccak256\n        /* \"src/SupplyChain.sol\":5354:5377  tokens[tokenId].balance */\n      0x07\n      add\n        /* \"src/SupplyChain.sol\":5354:5383  tokens[tokenId].balance[user] */\n      0x00\n        /* \"src/SupplyChain.sol\":5378:5382  user */\n      dup4\n        /* \"src/SupplyChain.sol\":5354:5383  tokens[tokenId].balance[user] */\n      0xffffffffffffffffffffffffffffffffffffffff\n      and\n      0xffffffffffffffffffffffffffffffffffffffff\n      and\n      dup2\n      mstore\n      0x20\n      add\n      swap1\n      dup2\n      mstore\n      0x20\n      add\n      0x00\n      keccak256\n      sload\n        /* \"src/SupplyChain.sol\":5347:5383  return tokens[tokenId].balance[user] */\n      swap1\n      pop\n        /* \"src/SupplyChain.sol\":5187:5390  function getTokenBalance(uint256 tokenId, address user) public view returns (uint256) {... */\n      swap3\n      swap2\n      pop\n      pop\n      jump\t// out\n        /* \"src/SupplyChain.sol\":1448:1478  address public immutable admin */\n    tag_103:\n      immutable(\"0x7aec2e6420b6fcb778a66c2b9d8fa18a316e494bda11ec5e5a11deee861d114c\")\n      dup2\n      jump\t// out\n        /* \"@openzeppelin/contracts/utils/ReentrancyGuard.sol\":3749:4041  function _nonReentrantBefore() private {... */\n    tag_118:\n        /* \"@openzeppelin/contracts/utils/ReentrancyGuard.sol\":3872:3897  _nonReentrantBeforeView() */\n      tag_327\n        /* \"@openzeppelin/contracts/utils/ReentrancyGuard.sol\":3872:3895  _nonReentrantBeforeView */\n      tag_328\n        /* \"@openzeppelin/contracts/utils/ReentrancyGuard.sol\":3872:3897  _nonReentrantBeforeView() */\n      jump\t// in\n    tag_327:\n        /* \"@openzeppelin/contracts/utils/ReentrancyGuard.sol\":2407:2408  2 */\n      0x02\n        /* \"@openzeppelin/contracts/utils/ReentrancyGuard.sol\":3972:4018  _reentrancyGuardStorageSlot().getUint256Slot() */\n      tag_329\n        /* \"@openzeppelin/contracts/utils/ReentrancyGuard.sol\":3972:4001  _reentrancyGuardStorageSlot() */\n      tag_330\n        /* \"@openzeppelin/contracts/utils/ReentrancyGuard.sol\":3972:3999  _reentrancyGuardStorageSlot */\n      tag_331\n        /* \"@openzeppelin/contracts/utils/ReentrancyGuard.sol\":3972:4001  _reentrancyGuardStorageSlot() */\n      jump\t// in\n    tag_330:\n        /* \"@openzeppelin/contracts/utils/ReentrancyGuard.sol\":3972:4016  _reentrancyGuardStorageSlot().getUint256Slot */\n      tag_332\n        /* \"@openzeppelin/contracts/utils/ReentrancyGuard.sol\":3972:4018  _reentrancyGuardStorageSlot().getUint256Slot() */\n      jump\t// in\n    tag_329:\n        /* \"@openzeppelin/contracts/utils/ReentrancyGuard.sol\":3972:4024  _reentrancyGuardStorageSlot().getUint256Slot().value */\n      0x00\n      add\n        /* \"@openzeppelin/contracts/utils/ReentrancyGuard.sol\":3972:4034  _reentrancyGuardStorageSlot().getUint256Slot().value = ENTERED */\n      dup2\n      swap1\n      sstore\n      pop\n        /* \"@openzeppelin/contracts/utils/ReentrancyGuard.sol\":3749:4041  function _nonReentrantBefore() private {... */\n      jump\t// out\n        /* \"src/SupplyChain.sol\":7976:8080  function _isConsumer(bytes32 role) internal pure returns (bool) {... */\n    tag_134:\n        /* \"src/SupplyChain.sol\":8034:8038  bool */\n      0x00\n        /* \"src/SupplyChain.sol\":657:678  keccak256(\"Consumer\") */\n      0xc0878b4b16a78e8085cba0ca02fc0924f1492924058d153153a3f286e0fd70ff\n        /* \"src/SupplyChain.sol\":8057:8061  role */\n      dup3\n        /* \"src/SupplyChain.sol\":8057:8073  role == CONSUMER */\n      eq\n        /* \"src/SupplyChain.sol\":8050:8073  return role == CONSUMER */\n      swap1\n      pop\n        /* \"src/SupplyChain.sol\":7976:8080  function _isConsumer(bytes32 role) internal pure returns (bool) {... */\n      swap2\n      swap1\n      pop\n      jump\t// out\n        /* \"src/SupplyChain.sol\":7676:7970  function _isNextRole(bytes32 fromRole, bytes32 toRole) internal pure returns (bool) {... */\n    tag_139:\n        /* \"src/SupplyChain.sol\":7754:7758  bool */\n      0x00\n        /* \"src/SupplyChain.sol\":470:491  keccak256(\"Producer\") */\n      0x95329f0f598032755f454b63034035528a2f09e00bb3dde055a4f8e3f7b11683\n        /* \"src/SupplyChain.sol\":7792:7800  fromRole */\n      dup4\n        /* \"src/SupplyChain.sol\":7792:7812  fromRole == PRODUCER */\n      eq\n        /* \"src/SupplyChain.sol\":7792:7833  fromRole == PRODUCER && toRole == FACTORY */\n      dup1\n      iszero\n      tag_335\n      jumpi\n      pop\n        /* \"src/SupplyChain.sol\":532:552  keccak256(\"Factory\") */\n      0x992f90ffb92c5ad86f1df6829115f18aaea41d6094dadc8955c35086081a7bb9\n        /* \"src/SupplyChain.sol\":7816:7822  toRole */\n      dup3\n        /* \"src/SupplyChain.sol\":7816:7833  toRole == FACTORY */\n      eq\n        /* \"src/SupplyChain.sol\":7792:7833  fromRole == PRODUCER && toRole == FACTORY */\n    tag_335:\n        /* \"src/SupplyChain.sol\":7791:7893  (fromRole == PRODUCER && toRole == FACTORY) ||... */\n      dup1\n      tag_336\n      jumpi\n      pop\n        /* \"src/SupplyChain.sol\":532:552  keccak256(\"Factory\") */\n      0x992f90ffb92c5ad86f1df6829115f18aaea41d6094dadc8955c35086081a7bb9\n        /* \"src/SupplyChain.sol\":7851:7859  fromRole */\n      dup4\n        /* \"src/SupplyChain.sol\":7851:7870  fromRole == FACTORY */\n      eq\n        /* \"src/SupplyChain.sol\":7851:7892  fromRole == FACTORY && toRole == RETAILER */\n      dup1\n      iszero\n      tag_337\n      jumpi\n      pop\n        /* \"src/SupplyChain.sol\":594:615  keccak256(\"Retailer\") */\n      0x1534e98f9dd33e3681193a0541f0c2e3d732d183dcdc630aac2b943280af42a0\n        /* \"src/SupplyChain.sol\":7874:7880  toRole */\n      dup3\n        /* \"src/SupplyChain.sol\":7874:7892  toRole == RETAILER */\n      eq\n        /* \"src/SupplyChain.sol\":7851:7892  fromRole == FACTORY && toRole == RETAILER */\n    tag_337:\n        /* \"src/SupplyChain.sol\":7791:7893  (fromRole == PRODUCER && toRole == FACTORY) ||... */\n    tag_336:\n        /* \"src/SupplyChain.sol\":7791:7953  (fromRole == PRODUCER && toRole == FACTORY) ||... */\n      dup1\n      tag_338\n      jumpi\n      pop\n        /* \"src/SupplyChain.sol\":594:615  keccak256(\"Retailer\") */\n      0x1534e98f9dd33e3681193a0541f0c2e3d732d183dcdc630aac2b943280af42a0\n        /* \"src/SupplyChain.sol\":7910:7918  fromRole */\n      dup4\n        /* \"src/SupplyChain.sol\":7910:7930  fromRole == RETAILER */\n      eq\n        /* \"src/SupplyChain.sol\":7910:7952  fromRole == RETAILER && toRole == CONSUMER */\n      dup1\n      iszero\n      tag_339\n      jumpi\n      pop\n        /* \"src/SupplyChain.sol\":657:678  keccak256(\"Consumer\") */\n      0xc0878b4b16a78e8085cba0ca02fc0924f1492924058d153153a3f286e0fd70ff\n        /* \"src/SupplyChain.sol\":7934:7940  toRole */\n      dup3\n        /* \"src/SupplyChain.sol\":7934:7952  toRole == CONSUMER */\n      eq\n        /* \"src/SupplyChain.sol\":7910:7952  fromRole == RETAILER && toRole == CONSUMER */\n    tag_339:\n        /* \"src/SupplyChain.sol\":7791:7953  (fromRole == PRODUCER && toRole == FACTORY) ||... */\n    tag_338:\n        /* \"src/SupplyChain.sol\":7770:7963  return (... */\n      swap1\n      pop\n        /* \"src/SupplyChain.sol\":7676:7970  function _isNextRole(bytes32 fromRole, bytes32 toRole) internal pure returns (bool) {... */\n      swap3\n      swap2\n      pop\n      pop\n      jump\t// out\n        /* \"@openzeppelin/contracts/utils/ReentrancyGuard.sol\":4047:4300  function _nonReentrantAfter() private {... */\n    tag_159:\n        /* \"@openzeppelin/contracts/utils/ReentrancyGuard.sol\":2365:2366  1 */\n      0x01\n        /* \"@openzeppelin/contracts/utils/ReentrancyGuard.sol\":4227:4273  _reentrancyGuardStorageSlot().getUint256Slot() */\n      tag_341\n        /* \"@openzeppelin/contracts/utils/ReentrancyGuard.sol\":4227:4256  _reentrancyGuardStorageSlot() */\n      tag_342\n        /* \"@openzeppelin/contracts/utils/ReentrancyGuard.sol\":4227:4254  _reentrancyGuardStorageSlot */\n      tag_331\n        /* \"@openzeppelin/contracts/utils/ReentrancyGuard.sol\":4227:4256  _reentrancyGuardStorageSlot() */\n      jump\t// in\n    tag_342:\n        /* \"@openzeppelin/contracts/utils/ReentrancyGuard.sol\":4227:4271  _reentrancyGuardStorageSlot().getUint256Slot */\n      tag_332\n        /* \"@openzeppelin/contracts/utils/ReentrancyGuard.sol\":4227:4273  _reentrancyGuardStorageSlot().getUint256Slot() */\n      jump\t// in\n    tag_341:\n        /* \"@openzeppelin/contracts/utils/ReentrancyGuard.sol\":4227:4279  _reentrancyGuardStorageSlot().getUint256Slot().value */\n      0x00\n      add\n        /* \"@openzeppelin/contracts/utils/ReentrancyGuard.sol\":4227:4293  _reentrancyGuardStorageSlot().getUint256Slot().value = NOT_ENTERED */\n      dup2\n      swap1\n      sstore\n      pop\n        /* \"@openzeppelin/contracts/utils/ReentrancyGuard.sol\":4047:4300  function _nonReentrantAfter() private {... */\n      jump\t// out\n        /* \"@openzeppelin/contracts/utils/ReentrancyGuard.sol\":3586:3743  function _nonReentrantBeforeView() private view {... */\n    tag_328:\n        /* \"@openzeppelin/contracts/utils/ReentrancyGuard.sol\":3648:3673  _reentrancyGuardEntered() */\n      tag_344\n        /* \"@openzeppelin/contracts/utils/ReentrancyGuard.sol\":3648:3671  _reentrancyGuardEntered */\n      tag_345\n        /* \"@openzeppelin/contracts/utils/ReentrancyGuard.sol\":3648:3673  _reentrancyGuardEntered() */\n      jump\t// in\n    tag_344:\n        /* \"@openzeppelin/contracts/utils/ReentrancyGuard.sol\":3644:3737  if (_reentrancyGuardEntered()) {... */\n      iszero\n      tag_346\n      jumpi\n        /* \"@openzeppelin/contracts/utils/ReentrancyGuard.sol\":3696:3726  ReentrancyGuardReentrantCall() */\n      mload(0x40)\n      0x3ee5aeb500000000000000000000000000000000000000000000000000000000\n      dup2\n      mstore\n      0x04\n      add\n      mload(0x40)\n      dup1\n      swap2\n      sub\n      swap1\n      revert\n        /* \"@openzeppelin/contracts/utils/ReentrancyGuard.sol\":3644:3737  if (_reentrancyGuardEntered()) {... */\n    tag_346:\n        /* \"@openzeppelin/contracts/utils/ReentrancyGuard.sol\":3586:3743  function _nonReentrantBeforeView() private view {... */\n      jump\t// out\n        /* \"@openzeppelin/contracts/utils/ReentrancyGuard.sol\":4636:4763  function _reentrancyGuardStorageSlot() internal pure virtual returns (bytes32) {... */\n    tag_331:\n        /* \"@openzeppelin/contracts/utils/ReentrancyGuard.sol\":4706:4713  bytes32 */\n      0x00\n        /* \"@openzeppelin/contracts/utils/ReentrancyGuard.sol\":1505:1571  0x9b779b17422d0df92223018b32b4d1fa46e071723d6817e2486d003becc55f00 */\n      0x9b779b17422d0df92223018b32b4d1fa46e071723d6817e2486d003becc55f00\n        /* \"@openzeppelin/contracts/utils/ReentrancyGuard.sol\":4732:4756  REENTRANCY_GUARD_STORAGE */\n      0x00\n      shl\n        /* \"@openzeppelin/contracts/utils/ReentrancyGuard.sol\":4725:4756  return REENTRANCY_GUARD_STORAGE */\n      swap1\n      pop\n        /* \"@openzeppelin/contracts/utils/ReentrancyGuard.sol\":4636:4763  function _reentrancyGuardStorageSlot() internal pure virtual returns (bytes32) {... */\n      swap1\n      jump\t// out\n        /* \"@openzeppelin/contracts/utils/StorageSlot.sol\":2679:2842  function getUint256Slot(bytes32 slot) internal pure returns (Uint256Slot storage r) {... */\n    tag_332:\n        /* \"@openzeppelin/contracts/utils/StorageSlot.sol\":2740:2761  Uint256Slot storage r */\n      0x00\n        /* \"@openzeppelin/contracts/utils/StorageSlot.sol\":2822:2826  slot */\n      dup2\n        /* \"@openzeppelin/contracts/utils/StorageSlot.sol\":2812:2826  r.slot := slot */\n      swap1\n      pop\n        /* \"@openzeppelin/contracts/utils/StorageSlot.sol\":2679:2842  function getUint256Slot(bytes32 slot) internal pure returns (Uint256Slot storage r) {... */\n      swap2\n      swap1\n      pop\n      jump\t// out\n        /* \"@openzeppelin/contracts/utils/ReentrancyGuard.sol\":4479:4630  function _reentrancyGuardEntered() internal view returns (bool) {... */\n    tag_345:\n        /* \"@openzeppelin/contracts/utils/ReentrancyGuard.sol\":4537:4541  bool */\n      0x00\n        /* \"@openzeppelin/contracts/utils/ReentrancyGuard.sol\":2407:2408  2 */\n      0x02\n        /* \"@openzeppelin/contracts/utils/ReentrancyGuard.sol\":4560:4606  _reentrancyGuardStorageSlot().getUint256Slot() */\n      tag_350\n        /* \"@openzeppelin/contracts/utils/ReentrancyGuard.sol\":4560:4589  _reentrancyGuardStorageSlot() */\n      tag_351\n        /* \"@openzeppelin/contracts/utils/ReentrancyGuard.sol\":4560:4587  _reentrancyGuardStorageSlot */\n      tag_331\n        /* \"@openzeppelin/contracts/utils/ReentrancyGuard.sol\":4560:4589  _reentrancyGuardStorageSlot() */\n      jump\t// in\n    tag_351:\n        /* \"@openzeppelin/contracts/utils/ReentrancyGuard.sol\":4560:4604  _reentrancyGuardStorageSlot().getUint256Slot */\n      tag_332\n        /* \"@openzeppelin/contracts/utils/ReentrancyGuard.sol\":4560:4606  _reentrancyGuardStorageSlot().getUint256Slot() */\n      jump\t// in\n    tag_350:\n        /* \"@openzeppelin/contracts/utils/ReentrancyGuard.sol\":4560:4612  _reentrancyGuardStorageSlot().getUint256Slot().value */\n      0x00\n      add\n      sload\n        /* \"@openzeppelin/contracts/utils/ReentrancyGuard.sol\":4560:4623  _reentrancyGuardStorageSlot().getUint256Slot().value == ENTERED */\n      eq\n        /* \"@openzeppelin/contracts/utils/ReentrancyGuard.sol\":4553:4623  return _reentrancyGuardStorageSlot().getUint256Slot().value == ENTERED */\n      swap1\n      pop\n        /* \"@openzeppelin/contracts/utils/ReentrancyGuard.sol\":4479:4630  function _reentrancyGuardEntered() internal view returns (bool) {... */\n      swap1\n      jump\t// out\n    tag_278:\n      mload(0x40)\n      dup1\n      0x80\n      add\n      0x40\n      mstore\n      dup1\n      0x00\n      dup2\n      mstore\n      0x20\n      add\n      and(0xffffffffffffffffffffffffffffffffffffffff, 0x00)\n      dup2\n      mstore\n      0x20\n      add\n      0x00\n      dup2\n      mstore\n      0x20\n      add\n      0x00\n      0x03\n      dup2\n      gt\n      iszero\n      tag_352\n      jumpi\n      tag_353\n      tag_110\n      jump\t// in\n    tag_353:\n    tag_352:\n      dup2\n      mstore\n      pop\n      swap1\n      jump\t// out\n        /* \"#utility.yul\":88:205   */\n    tag_355:\n        /* \"#utility.yul\":197:198   */\n      0x00\n        /* \"#utility.yul\":194:195   */\n      0x00\n        /* \"#utility.yul\":187:199   */\n      revert\n        /* \"#utility.yul\":211:328   */\n    tag_356:\n        /* \"#utility.yul\":320:321   */\n      0x00\n        /* \"#utility.yul\":317:318   */\n      0x00\n        /* \"#utility.yul\":310:322   */\n      revert\n        /* \"#utility.yul\":334:460   */\n    tag_357:\n        /* \"#utility.yul\":371:378   */\n      0x00\n        /* \"#utility.yul\":411:453   */\n      0xffffffffffffffffffffffffffffffffffffffff\n        /* \"#utility.yul\":404:409   */\n      dup3\n        /* \"#utility.yul\":400:454   */\n      and\n        /* \"#utility.yul\":389:454   */\n      swap1\n      pop\n        /* \"#utility.yul\":334:460   */\n      swap2\n      swap1\n      pop\n      jump\t// out\n        /* \"#utility.yul\":466:562   */\n    tag_358:\n        /* \"#utility.yul\":503:510   */\n      0x00\n        /* \"#utility.yul\":532:556   */\n      tag_456\n        /* \"#utility.yul\":550:555   */\n      dup3\n        /* \"#utility.yul\":532:556   */\n      tag_357\n      jump\t// in\n    tag_456:\n        /* \"#utility.yul\":521:556   */\n      swap1\n      pop\n        /* \"#utility.yul\":466:562   */\n      swap2\n      swap1\n      pop\n      jump\t// out\n        /* \"#utility.yul\":568:690   */\n    tag_359:\n        /* \"#utility.yul\":641:665   */\n      tag_458\n        /* \"#utility.yul\":659:664   */\n      dup2\n        /* \"#utility.yul\":641:665   */\n      tag_358\n      jump\t// in\n    tag_458:\n        /* \"#utility.yul\":634:639   */\n      dup2\n        /* \"#utility.yul\":631:666   */\n      eq\n        /* \"#utility.yul\":621:684   */\n      tag_459\n      jumpi\n        /* \"#utility.yul\":680:681   */\n      0x00\n        /* \"#utility.yul\":677:678   */\n      0x00\n        /* \"#utility.yul\":670:682   */\n      revert\n        /* \"#utility.yul\":621:684   */\n    tag_459:\n        /* \"#utility.yul\":568:690   */\n      pop\n      jump\t// out\n        /* \"#utility.yul\":696:835   */\n    tag_360:\n        /* \"#utility.yul\":742:747   */\n      0x00\n        /* \"#utility.yul\":780:786   */\n      dup2\n        /* \"#utility.yul\":767:787   */\n      calldataload\n        /* \"#utility.yul\":758:787   */\n      swap1\n      pop\n        /* \"#utility.yul\":796:829   */\n      tag_461\n        /* \"#utility.yul\":823:828   */\n      dup2\n        /* \"#utility.yul\":796:829   */\n      tag_359\n      jump\t// in\n    tag_461:\n        /* \"#utility.yul\":696:835   */\n      swap3\n      swap2\n      pop\n      pop\n      jump\t// out\n        /* \"#utility.yul\":841:918   */\n    tag_361:\n        /* \"#utility.yul\":878:885   */\n      0x00\n        /* \"#utility.yul\":907:912   */\n      dup2\n        /* \"#utility.yul\":896:912   */\n      swap1\n      pop\n        /* \"#utility.yul\":841:918   */\n      swap2\n      swap1\n      pop\n      jump\t// out\n        /* \"#utility.yul\":924:1046   */\n    tag_362:\n        /* \"#utility.yul\":997:1021   */\n      tag_464\n        /* \"#utility.yul\":1015:1020   */\n      dup2\n        /* \"#utility.yul\":997:1021   */\n      tag_361\n      jump\t// in\n    tag_464:\n        /* \"#utility.yul\":990:995   */\n      dup2\n        /* \"#utility.yul\":987:1022   */\n      eq\n        /* \"#utility.yul\":977:1040   */\n      tag_465\n      jumpi\n        /* \"#utility.yul\":1036:1037   */\n      0x00\n        /* \"#utility.yul\":1033:1034   */\n      0x00\n        /* \"#utility.yul\":1026:1038   */\n      revert\n        /* \"#utility.yul\":977:1040   */\n    tag_465:\n        /* \"#utility.yul\":924:1046   */\n      pop\n      jump\t// out\n        /* \"#utility.yul\":1052:1191   */\n    tag_363:\n        /* \"#utility.yul\":1098:1103   */\n      0x00\n        /* \"#utility.yul\":1136:1142   */\n      dup2\n        /* \"#utility.yul\":1123:1143   */\n      calldataload\n        /* \"#utility.yul\":1114:1143   */\n      swap1\n      pop\n        /* \"#utility.yul\":1152:1185   */\n      tag_467\n        /* \"#utility.yul\":1179:1184   */\n      dup2\n        /* \"#utility.yul\":1152:1185   */\n      tag_362\n      jump\t// in\n    tag_467:\n        /* \"#utility.yul\":1052:1191   */\n      swap3\n      swap2\n      pop\n      pop\n      jump\t// out\n        /* \"#utility.yul\":1197:1816   */\n    tag_27:\n        /* \"#utility.yul\":1274:1280   */\n      0x00\n        /* \"#utility.yul\":1282:1288   */\n      0x00\n        /* \"#utility.yul\":1290:1296   */\n      0x00\n        /* \"#utility.yul\":1339:1341   */\n      0x60\n        /* \"#utility.yul\":1327:1336   */\n      dup5\n        /* \"#utility.yul\":1318:1325   */\n      dup7\n        /* \"#utility.yul\":1314:1337   */\n      sub\n        /* \"#utility.yul\":1310:1342   */\n      slt\n        /* \"#utility.yul\":1307:1426   */\n      iszero\n      tag_469\n      jumpi\n        /* \"#utility.yul\":1345:1424   */\n      tag_470\n      tag_355\n      jump\t// in\n    tag_470:\n        /* \"#utility.yul\":1307:1426   */\n    tag_469:\n        /* \"#utility.yul\":1465:1466   */\n      0x00\n        /* \"#utility.yul\":1490:1543   */\n      tag_471\n        /* \"#utility.yul\":1535:1542   */\n      dup7\n        /* \"#utility.yul\":1526:1532   */\n      dup3\n        /* \"#utility.yul\":1515:1524   */\n      dup8\n        /* \"#utility.yul\":1511:1533   */\n      add\n        /* \"#utility.yul\":1490:1543   */\n      tag_360\n      jump\t// in\n    tag_471:\n        /* \"#utility.yul\":1480:1543   */\n      swap4\n      pop\n        /* \"#utility.yul\":1436:1553   */\n      pop\n        /* \"#utility.yul\":1592:1594   */\n      0x20\n        /* \"#utility.yul\":1618:1671   */\n      tag_472\n        /* \"#utility.yul\":1663:1670   */\n      dup7\n        /* \"#utility.yul\":1654:1660   */\n      dup3\n        /* \"#utility.yul\":1643:1652   */\n      dup8\n        /* \"#utility.yul\":1639:1661   */\n      add\n        /* \"#utility.yul\":1618:1671   */\n      tag_363\n      jump\t// in\n    tag_472:\n        /* \"#utility.yul\":1608:1671   */\n      swap3\n      pop\n        /* \"#utility.yul\":1563:1681   */\n      pop\n        /* \"#utility.yul\":1720:1722   */\n      0x40\n        /* \"#utility.yul\":1746:1799   */\n      tag_473\n        /* \"#utility.yul\":1791:1798   */\n      dup7\n        /* \"#utility.yul\":1782:1788   */\n      dup3\n        /* \"#utility.yul\":1771:1780   */\n      dup8\n        /* \"#utility.yul\":1767:1789   */\n      add\n        /* \"#utility.yul\":1746:1799   */\n      tag_363\n      jump\t// in\n    tag_473:\n        /* \"#utility.yul\":1736:1799   */\n      swap2\n      pop\n        /* \"#utility.yul\":1691:1809   */\n      pop\n        /* \"#utility.yul\":1197:1816   */\n      swap3\n      pop\n      swap3\n      pop\n      swap3\n      jump\t// out\n        /* \"#utility.yul\":1822:2151   */\n    tag_31:\n        /* \"#utility.yul\":1881:1887   */\n      0x00\n        /* \"#utility.yul\":1930:1932   */\n      0x20\n        /* \"#utility.yul\":1918:1927   */\n      dup3\n        /* \"#utility.yul\":1909:1916   */\n      dup5\n        /* \"#utility.yul\":1905:1928   */\n      sub\n        /* \"#utility.yul\":1901:1933   */\n      slt\n        /* \"#utility.yul\":1898:2017   */\n      iszero\n      tag_475\n      jumpi\n        /* \"#utility.yul\":1936:2015   */\n      tag_476\n      tag_355\n      jump\t// in\n    tag_476:\n        /* \"#utility.yul\":1898:2017   */\n    tag_475:\n        /* \"#utility.yul\":2056:2057   */\n      0x00\n        /* \"#utility.yul\":2081:2134   */\n      tag_477\n        /* \"#utility.yul\":2126:2133   */\n      dup5\n        /* \"#utility.yul\":2117:2123   */\n      dup3\n        /* \"#utility.yul\":2106:2115   */\n      dup6\n        /* \"#utility.yul\":2102:2124   */\n      add\n        /* \"#utility.yul\":2081:2134   */\n      tag_363\n      jump\t// in\n    tag_477:\n        /* \"#utility.yul\":2071:2134   */\n      swap2\n      pop\n        /* \"#utility.yul\":2027:2144   */\n      pop\n        /* \"#utility.yul\":1822:2151   */\n      swap3\n      swap2\n      pop\n      pop\n      jump\t// out\n        /* \"#utility.yul\":2157:2486   */\n    tag_38:\n        /* \"#utility.yul\":2216:2222   */\n      0x00\n        /* \"#utility.yul\":2265:2267   */\n      0x20\n        /* \"#utility.yul\":2253:2262   */\n      dup3\n        /* \"#utility.yul\":2244:2251   */\n      dup5\n        /* \"#utility.yul\":2240:2263   */\n      sub\n        /* \"#utility.yul\":2236:2268   */\n      slt\n        /* \"#utility.yul\":2233:2352   */\n      iszero\n      tag_479\n      jumpi\n        /* \"#utility.yul\":2271:2350   */\n      tag_480\n      tag_355\n      jump\t// in\n    tag_480:\n        /* \"#utility.yul\":2233:2352   */\n    tag_479:\n        /* \"#utility.yul\":2391:2392   */\n      0x00\n        /* \"#utility.yul\":2416:2469   */\n      tag_481\n        /* \"#utility.yul\":2461:2468   */\n      dup5\n        /* \"#utility.yul\":2452:2458   */\n      dup3\n        /* \"#utility.yul\":2441:2450   */\n      dup6\n        /* \"#utility.yul\":2437:2459   */\n      add\n        /* \"#utility.yul\":2416:2469   */\n      tag_360\n      jump\t// in\n    tag_481:\n        /* \"#utility.yul\":2406:2469   */\n      swap2\n      pop\n        /* \"#utility.yul\":2362:2479   */\n      pop\n        /* \"#utility.yul\":2157:2486   */\n      swap3\n      swap2\n      pop\n      pop\n      jump\t// out\n        /* \"#utility.yul\":2492:2606   */\n    tag_364:\n        /* \"#utility.yul\":2559:2565   */\n      0x00\n        /* \"#utility.yul\":2593:2598   */\n      dup2\n        /* \"#utility.yul\":2587:2599   */\n      mload\n        /* \"#utility.yul\":2577:2599   */\n      swap1\n      pop\n        /* \"#utility.yul\":2492:2606   */\n      swap2\n      swap1\n      pop\n      jump\t// out\n        /* \"#utility.yul\":2612:2796   */\n    tag_365:\n        /* \"#utility.yul\":2711:2722   */\n      0x00\n        /* \"#utility.yul\":2745:2751   */\n      dup3\n        /* \"#utility.yul\":2740:2743   */\n      dup3\n        /* \"#utility.yul\":2733:2752   */\n      mstore\n        /* \"#utility.yul\":2785:2789   */\n      0x20\n        /* \"#utility.yul\":2780:2783   */\n      dup3\n        /* \"#utility.yul\":2776:2790   */\n      add\n        /* \"#utility.yul\":2761:2790   */\n      swap1\n      pop\n        /* \"#utility.yul\":2612:2796   */\n      swap3\n      swap2\n      pop\n      pop\n      jump\t// out\n        /* \"#utility.yul\":2802:2934   */\n    tag_366:\n        /* \"#utility.yul\":2869:2873   */\n      0x00\n        /* \"#utility.yul\":2892:2895   */\n      dup2\n        /* \"#utility.yul\":2884:2895   */\n      swap1\n      pop\n        /* \"#utility.yul\":2922:2926   */\n      0x20\n        /* \"#utility.yul\":2917:2920   */\n      dup3\n        /* \"#utility.yul\":2913:2927   */\n      add\n        /* \"#utility.yul\":2905:2927   */\n      swap1\n      pop\n        /* \"#utility.yul\":2802:2934   */\n      swap2\n      swap1\n      pop\n      jump\t// out\n        /* \"#utility.yul\":2940:3048   */\n    tag_367:\n        /* \"#utility.yul\":3017:3041   */\n      tag_486\n        /* \"#utility.yul\":3035:3040   */\n      dup2\n        /* \"#utility.yul\":3017:3041   */\n      tag_361\n      jump\t// in\n    tag_486:\n        /* \"#utility.yul\":3012:3015   */\n      dup3\n        /* \"#utility.yul\":3005:3042   */\n      mstore\n        /* \"#utility.yul\":2940:3048   */\n      pop\n      pop\n      jump\t// out\n        /* \"#utility.yul\":3054:3233   */\n    tag_368:\n        /* \"#utility.yul\":3123:3133   */\n      0x00\n        /* \"#utility.yul\":3144:3190   */\n      tag_488\n        /* \"#utility.yul\":3186:3189   */\n      dup4\n        /* \"#utility.yul\":3178:3184   */\n      dup4\n        /* \"#utility.yul\":3144:3190   */\n      tag_367\n      jump\t// in\n    tag_488:\n        /* \"#utility.yul\":3222:3226   */\n      0x20\n        /* \"#utility.yul\":3217:3220   */\n      dup4\n        /* \"#utility.yul\":3213:3227   */\n      add\n        /* \"#utility.yul\":3199:3227   */\n      swap1\n      pop\n        /* \"#utility.yul\":3054:3233   */\n      swap3\n      swap2\n      pop\n      pop\n      jump\t// out\n        /* \"#utility.yul\":3239:3352   */\n    tag_369:\n        /* \"#utility.yul\":3309:3313   */\n      0x00\n        /* \"#utility.yul\":3341:3345   */\n      0x20\n        /* \"#utility.yul\":3336:3339   */\n      dup3\n        /* \"#utility.yul\":3332:3346   */\n      add\n        /* \"#utility.yul\":3324:3346   */\n      swap1\n      pop\n        /* \"#utility.yul\":3239:3352   */\n      swap2\n      swap1\n      pop\n      jump\t// out\n        /* \"#utility.yul\":3388:4120   */\n    tag_370:\n        /* \"#utility.yul\":3507:3510   */\n      0x00\n        /* \"#utility.yul\":3536:3590   */\n      tag_491\n        /* \"#utility.yul\":3584:3589   */\n      dup3\n        /* \"#utility.yul\":3536:3590   */\n      tag_364\n      jump\t// in\n    tag_491:\n        /* \"#utility.yul\":3606:3692   */\n      tag_492\n        /* \"#utility.yul\":3685:3691   */\n      dup2\n        /* \"#utility.yul\":3680:3683   */\n      dup6\n        /* \"#utility.yul\":3606:3692   */\n      tag_365\n      jump\t// in\n    tag_492:\n        /* \"#utility.yul\":3599:3692   */\n      swap4\n      pop\n        /* \"#utility.yul\":3716:3772   */\n      tag_493\n        /* \"#utility.yul\":3766:3771   */\n      dup4\n        /* \"#utility.yul\":3716:3772   */\n      tag_366\n      jump\t// in\n    tag_493:\n        /* \"#utility.yul\":3795:3802   */\n      dup1\n        /* \"#utility.yul\":3826:3827   */\n      0x00\n        /* \"#utility.yul\":3811:4095   */\n    tag_494:\n        /* \"#utility.yul\":3836:3842   */\n      dup4\n        /* \"#utility.yul\":3833:3834   */\n      dup2\n        /* \"#utility.yul\":3830:3843   */\n      lt\n        /* \"#utility.yul\":3811:4095   */\n      iszero\n      tag_496\n      jumpi\n        /* \"#utility.yul\":3912:3918   */\n      dup2\n        /* \"#utility.yul\":3906:3919   */\n      mload\n        /* \"#utility.yul\":3939:4002   */\n      tag_497\n        /* \"#utility.yul\":3998:4001   */\n      dup9\n        /* \"#utility.yul\":3983:3996   */\n      dup3\n        /* \"#utility.yul\":3939:4002   */\n      tag_368\n      jump\t// in\n    tag_497:\n        /* \"#utility.yul\":3932:4002   */\n      swap8\n      pop\n        /* \"#utility.yul\":4025:4085   */\n      tag_498\n        /* \"#utility.yul\":4078:4084   */\n      dup4\n        /* \"#utility.yul\":4025:4085   */\n      tag_369\n      jump\t// in\n    tag_498:\n        /* \"#utility.yul\":4015:4085   */\n      swap3\n      pop\n        /* \"#utility.yul\":3871:4095   */\n      pop\n        /* \"#utility.yul\":3858:3859   */\n      0x01\n        /* \"#utility.yul\":3855:3856   */\n      dup2\n        /* \"#utility.yul\":3851:3860   */\n      add\n        /* \"#utility.yul\":3846:3860   */\n      swap1\n      pop\n        /* \"#utility.yul\":3811:4095   */\n      jump(tag_494)\n    tag_496:\n        /* \"#utility.yul\":3815:3829   */\n      pop\n        /* \"#utility.yul\":4111:4114   */\n      dup6\n        /* \"#utility.yul\":4104:4114   */\n      swap4\n      pop\n        /* \"#utility.yul\":3512:4120   */\n      pop\n      pop\n      pop\n        /* \"#utility.yul\":3388:4120   */\n      swap3\n      swap2\n      pop\n      pop\n      jump\t// out\n        /* \"#utility.yul\":4126:4499   */\n    tag_41:\n        /* \"#utility.yul\":4269:4273   */\n      0x00\n        /* \"#utility.yul\":4307:4309   */\n      0x20\n        /* \"#utility.yul\":4296:4305   */\n      dup3\n        /* \"#utility.yul\":4292:4310   */\n      add\n        /* \"#utility.yul\":4284:4310   */\n      swap1\n      pop\n        /* \"#utility.yul\":4356:4365   */\n      dup2\n        /* \"#utility.yul\":4350:4354   */\n      dup2\n        /* \"#utility.yul\":4346:4366   */\n      sub\n        /* \"#utility.yul\":4342:4343   */\n      0x00\n        /* \"#utility.yul\":4331:4340   */\n      dup4\n        /* \"#utility.yul\":4327:4344   */\n      add\n        /* \"#utility.yul\":4320:4367   */\n      mstore\n        /* \"#utility.yul\":4384:4492   */\n      tag_500\n        /* \"#utility.yul\":4487:4491   */\n      dup2\n        /* \"#utility.yul\":4478:4484   */\n      dup5\n        /* \"#utility.yul\":4384:4492   */\n      tag_370\n      jump\t// in\n    tag_500:\n        /* \"#utility.yul\":4376:4492   */\n      swap1\n      pop\n        /* \"#utility.yul\":4126:4499   */\n      swap3\n      swap2\n      pop\n      pop\n      jump\t// out\n        /* \"#utility.yul\":4505:4623   */\n    tag_371:\n        /* \"#utility.yul\":4592:4616   */\n      tag_502\n        /* \"#utility.yul\":4610:4615   */\n      dup2\n        /* \"#utility.yul\":4592:4616   */\n      tag_361\n      jump\t// in\n    tag_502:\n        /* \"#utility.yul\":4587:4590   */\n      dup3\n        /* \"#utility.yul\":4580:4617   */\n      mstore\n        /* \"#utility.yul\":4505:4623   */\n      pop\n      pop\n      jump\t// out\n        /* \"#utility.yul\":4629:4747   */\n    tag_372:\n        /* \"#utility.yul\":4716:4740   */\n      tag_504\n        /* \"#utility.yul\":4734:4739   */\n      dup2\n        /* \"#utility.yul\":4716:4740   */\n      tag_358\n      jump\t// in\n    tag_504:\n        /* \"#utility.yul\":4711:4714   */\n      dup3\n        /* \"#utility.yul\":4704:4741   */\n      mstore\n        /* \"#utility.yul\":4629:4747   */\n      pop\n      pop\n      jump\t// out\n        /* \"#utility.yul\":4753:4830   */\n    tag_373:\n        /* \"#utility.yul\":4790:4797   */\n      0x00\n        /* \"#utility.yul\":4819:4824   */\n      dup2\n        /* \"#utility.yul\":4808:4824   */\n      swap1\n      pop\n        /* \"#utility.yul\":4753:4830   */\n      swap2\n      swap1\n      pop\n      jump\t// out\n        /* \"#utility.yul\":4836:4954   */\n    tag_374:\n        /* \"#utility.yul\":4923:4947   */\n      tag_507\n        /* \"#utility.yul\":4941:4946   */\n      dup2\n        /* \"#utility.yul\":4923:4947   */\n      tag_373\n      jump\t// in\n    tag_507:\n        /* \"#utility.yul\":4918:4921   */\n      dup3\n        /* \"#utility.yul\":4911:4948   */\n      mstore\n        /* \"#utility.yul\":4836:4954   */\n      pop\n      pop\n      jump\t// out\n        /* \"#utility.yul\":4960:5140   */\n    tag_110:\n        /* \"#utility.yul\":5008:5085   */\n      0x4e487b7100000000000000000000000000000000000000000000000000000000\n        /* \"#utility.yul\":5005:5006   */\n      0x00\n        /* \"#utility.yul\":4998:5086   */\n      mstore\n        /* \"#utility.yul\":5105:5109   */\n      0x21\n        /* \"#utility.yul\":5102:5103   */\n      0x04\n        /* \"#utility.yul\":5095:5110   */\n      mstore\n        /* \"#utility.yul\":5129:5133   */\n      0x24\n        /* \"#utility.yul\":5126:5127   */\n      0x00\n        /* \"#utility.yul\":5119:5134   */\n      revert\n        /* \"#utility.yul\":5146:5265   */\n    tag_375:\n        /* \"#utility.yul\":5233:5234   */\n      0x04\n        /* \"#utility.yul\":5226:5231   */\n      dup2\n        /* \"#utility.yul\":5223:5235   */\n      lt\n        /* \"#utility.yul\":5213:5259   */\n      tag_510\n      jumpi\n        /* \"#utility.yul\":5239:5257   */\n      tag_511\n      tag_110\n      jump\t// in\n    tag_511:\n        /* \"#utility.yul\":5213:5259   */\n    tag_510:\n        /* \"#utility.yul\":5146:5265   */\n      pop\n      jump\t// out\n        /* \"#utility.yul\":5271:5410   */\n    tag_376:\n        /* \"#utility.yul\":5322:5329   */\n      0x00\n        /* \"#utility.yul\":5351:5356   */\n      dup2\n        /* \"#utility.yul\":5340:5356   */\n      swap1\n      pop\n        /* \"#utility.yul\":5357:5404   */\n      tag_513\n        /* \"#utility.yul\":5398:5403   */\n      dup3\n        /* \"#utility.yul\":5357:5404   */\n      tag_375\n      jump\t// in\n    tag_513:\n        /* \"#utility.yul\":5271:5410   */\n      swap2\n      swap1\n      pop\n      jump\t// out\n        /* \"#utility.yul\":5416:5555   */\n    tag_377:\n        /* \"#utility.yul\":5478:5487   */\n      0x00\n        /* \"#utility.yul\":5511:5549   */\n      tag_515\n        /* \"#utility.yul\":5543:5548   */\n      dup3\n        /* \"#utility.yul\":5511:5549   */\n      tag_376\n      jump\t// in\n    tag_515:\n        /* \"#utility.yul\":5498:5549   */\n      swap1\n      pop\n        /* \"#utility.yul\":5416:5555   */\n      swap2\n      swap1\n      pop\n      jump\t// out\n        /* \"#utility.yul\":5561:5716   */\n    tag_378:\n        /* \"#utility.yul\":5660:5709   */\n      tag_517\n        /* \"#utility.yul\":5703:5708   */\n      dup2\n        /* \"#utility.yul\":5660:5709   */\n      tag_377\n      jump\t// in\n    tag_517:\n        /* \"#utility.yul\":5655:5658   */\n      dup3\n        /* \"#utility.yul\":5648:5710   */\n      mstore\n        /* \"#utility.yul\":5561:5716   */\n      pop\n      pop\n      jump\t// out\n        /* \"#utility.yul\":5722:6299   */\n    tag_46:\n        /* \"#utility.yul\":5911:5915   */\n      0x00\n        /* \"#utility.yul\":5949:5952   */\n      0x80\n        /* \"#utility.yul\":5938:5947   */\n      dup3\n        /* \"#utility.yul\":5934:5953   */\n      add\n        /* \"#utility.yul\":5926:5953   */\n      swap1\n      pop\n        /* \"#utility.yul\":5963:6034   */\n      tag_519\n        /* \"#utility.yul\":6031:6032   */\n      0x00\n        /* \"#utility.yul\":6020:6029   */\n      dup4\n        /* \"#utility.yul\":6016:6033   */\n      add\n        /* \"#utility.yul\":6007:6013   */\n      dup8\n        /* \"#utility.yul\":5963:6034   */\n      tag_371\n      jump\t// in\n    tag_519:\n        /* \"#utility.yul\":6044:6116   */\n      tag_520\n        /* \"#utility.yul\":6112:6114   */\n      0x20\n        /* \"#utility.yul\":6101:6110   */\n      dup4\n        /* \"#utility.yul\":6097:6115   */\n      add\n        /* \"#utility.yul\":6088:6094   */\n      dup7\n        /* \"#utility.yul\":6044:6116   */\n      tag_372\n      jump\t// in\n    tag_520:\n        /* \"#utility.yul\":6126:6198   */\n      tag_521\n        /* \"#utility.yul\":6194:6196   */\n      0x40\n        /* \"#utility.yul\":6183:6192   */\n      dup4\n        /* \"#utility.yul\":6179:6197   */\n      add\n        /* \"#utility.yul\":6170:6176   */\n      dup6\n        /* \"#utility.yul\":6126:6198   */\n      tag_374\n      jump\t// in\n    tag_521:\n        /* \"#utility.yul\":6208:6292   */\n      tag_522\n        /* \"#utility.yul\":6288:6290   */\n      0x60\n        /* \"#utility.yul\":6277:6286   */\n      dup4\n        /* \"#utility.yul\":6273:6291   */\n      add\n        /* \"#utility.yul\":6264:6270   */\n      dup5\n        /* \"#utility.yul\":6208:6292   */\n      tag_378\n      jump\t// in\n    tag_522:\n        /* \"#utility.yul\":5722:6299   */\n      swap6\n      swap5\n      pop\n      pop\n      pop\n      pop\n      pop\n      jump\t// out\n        /* \"#utility.yul\":6305:6427   */\n    tag_379:\n        /* \"#utility.yul\":6378:6402   */\n      tag_524\n        /* \"#utility.yul\":6396:6401   */\n      dup2\n        /* \"#utility.yul\":6378:6402   */\n      tag_373\n      jump\t// in\n    tag_524:\n        /* \"#utility.yul\":6371:6376   */\n      dup2\n        /* \"#utility.yul\":6368:6403   */\n      eq\n        /* \"#utility.yul\":6358:6421   */\n      tag_525\n      jumpi\n        /* \"#utility.yul\":6417:6418   */\n      0x00\n        /* \"#utility.yul\":6414:6415   */\n      0x00\n        /* \"#utility.yul\":6407:6419   */\n      revert\n        /* \"#utility.yul\":6358:6421   */\n    tag_525:\n        /* \"#utility.yul\":6305:6427   */\n      pop\n      jump\t// out\n        /* \"#utility.yul\":6433:6572   */\n    tag_380:\n        /* \"#utility.yul\":6479:6484   */\n      0x00\n        /* \"#utility.yul\":6517:6523   */\n      dup2\n        /* \"#utility.yul\":6504:6524   */\n      calldataload\n        /* \"#utility.yul\":6495:6524   */\n      swap1\n      pop\n        /* \"#utility.yul\":6533:6566   */\n      tag_527\n        /* \"#utility.yul\":6560:6565   */\n      dup2\n        /* \"#utility.yul\":6533:6566   */\n      tag_379\n      jump\t// in\n    tag_527:\n        /* \"#utility.yul\":6433:6572   */\n      swap3\n      swap2\n      pop\n      pop\n      jump\t// out\n        /* \"#utility.yul\":6578:6907   */\n    tag_49:\n        /* \"#utility.yul\":6637:6643   */\n      0x00\n        /* \"#utility.yul\":6686:6688   */\n      0x20\n        /* \"#utility.yul\":6674:6683   */\n      dup3\n        /* \"#utility.yul\":6665:6672   */\n      dup5\n        /* \"#utility.yul\":6661:6684   */\n      sub\n        /* \"#utility.yul\":6657:6689   */\n      slt\n        /* \"#utility.yul\":6654:6773   */\n      iszero\n      tag_529\n      jumpi\n        /* \"#utility.yul\":6692:6771   */\n      tag_530\n      tag_355\n      jump\t// in\n    tag_530:\n        /* \"#utility.yul\":6654:6773   */\n    tag_529:\n        /* \"#utility.yul\":6812:6813   */\n      0x00\n        /* \"#utility.yul\":6837:6890   */\n      tag_531\n        /* \"#utility.yul\":6882:6889   */\n      dup5\n        /* \"#utility.yul\":6873:6879   */\n      dup3\n        /* \"#utility.yul\":6862:6871   */\n      dup6\n        /* \"#utility.yul\":6858:6880   */\n      add\n        /* \"#utility.yul\":6837:6890   */\n      tag_380\n      jump\t// in\n    tag_531:\n        /* \"#utility.yul\":6827:6890   */\n      swap2\n      pop\n        /* \"#utility.yul\":6783:6900   */\n      pop\n        /* \"#utility.yul\":6578:6907   */\n      swap3\n      swap2\n      pop\n      pop\n      jump\t// out\n        /* \"#utility.yul\":6913:7012   */\n    tag_381:\n        /* \"#utility.yul\":6965:6971   */\n      0x00\n        /* \"#utility.yul\":6999:7004   */\n      dup2\n        /* \"#utility.yul\":6993:7005   */\n      mload\n        /* \"#utility.yul\":6983:7005   */\n      swap1\n      pop\n        /* \"#utility.yul\":6913:7012   */\n      swap2\n      swap1\n      pop\n      jump\t// out\n        /* \"#utility.yul\":7018:7187   */\n    tag_382:\n        /* \"#utility.yul\":7102:7113   */\n      0x00\n        /* \"#utility.yul\":7136:7142   */\n      dup3\n        /* \"#utility.yul\":7131:7134   */\n      dup3\n        /* \"#utility.yul\":7124:7143   */\n      mstore\n        /* \"#utility.yul\":7176:7180   */\n      0x20\n        /* \"#utility.yul\":7171:7174   */\n      dup3\n        /* \"#utility.yul\":7167:7181   */\n      add\n        /* \"#utility.yul\":7152:7181   */\n      swap1\n      pop\n        /* \"#utility.yul\":7018:7187   */\n      swap3\n      swap2\n      pop\n      pop\n      jump\t// out\n        /* \"#utility.yul\":7193:7332   */\n    tag_383:\n        /* \"#utility.yul\":7282:7288   */\n      dup3\n        /* \"#utility.yul\":7277:7280   */\n      dup2\n        /* \"#utility.yul\":7272:7275   */\n      dup4\n        /* \"#utility.yul\":7266:7289   */\n      mcopy\n        /* \"#utility.yul\":7323:7324   */\n      0x00\n        /* \"#utility.yul\":7314:7320   */\n      dup4\n        /* \"#utility.yul\":7309:7312   */\n      dup4\n        /* \"#utility.yul\":7305:7321   */\n      add\n        /* \"#utility.yul\":7298:7325   */\n      mstore\n        /* \"#utility.yul\":7193:7332   */\n      pop\n      pop\n      pop\n      jump\t// out\n        /* \"#utility.yul\":7338:7440   */\n    tag_384:\n        /* \"#utility.yul\":7379:7385   */\n      0x00\n        /* \"#utility.yul\":7430:7432   */\n      0x1f\n        /* \"#utility.yul\":7426:7433   */\n      not\n        /* \"#utility.yul\":7421:7423   */\n      0x1f\n        /* \"#utility.yul\":7414:7419   */\n      dup4\n        /* \"#utility.yul\":7410:7424   */\n      add\n        /* \"#utility.yul\":7406:7434   */\n      and\n        /* \"#utility.yul\":7396:7434   */\n      swap1\n      pop\n        /* \"#utility.yul\":7338:7440   */\n      swap2\n      swap1\n      pop\n      jump\t// out\n        /* \"#utility.yul\":7446:7823   */\n    tag_385:\n        /* \"#utility.yul\":7534:7537   */\n      0x00\n        /* \"#utility.yul\":7562:7601   */\n      tag_537\n        /* \"#utility.yul\":7595:7600   */\n      dup3\n        /* \"#utility.yul\":7562:7601   */\n      tag_381\n      jump\t// in\n    tag_537:\n        /* \"#utility.yul\":7617:7688   */\n      tag_538\n        /* \"#utility.yul\":7681:7687   */\n      dup2\n        /* \"#utility.yul\":7676:7679   */\n      dup6\n        /* \"#utility.yul\":7617:7688   */\n      tag_382\n      jump\t// in\n    tag_538:\n        /* \"#utility.yul\":7610:7688   */\n      swap4\n      pop\n        /* \"#utility.yul\":7697:7762   */\n      tag_539\n        /* \"#utility.yul\":7755:7761   */\n      dup2\n        /* \"#utility.yul\":7750:7753   */\n      dup6\n        /* \"#utility.yul\":7743:7747   */\n      0x20\n        /* \"#utility.yul\":7736:7741   */\n      dup7\n        /* \"#utility.yul\":7732:7748   */\n      add\n        /* \"#utility.yul\":7697:7762   */\n      tag_383\n      jump\t// in\n    tag_539:\n        /* \"#utility.yul\":7787:7816   */\n      tag_540\n        /* \"#utility.yul\":7809:7815   */\n      dup2\n        /* \"#utility.yul\":7787:7816   */\n      tag_384\n      jump\t// in\n    tag_540:\n        /* \"#utility.yul\":7782:7785   */\n      dup5\n        /* \"#utility.yul\":7778:7817   */\n      add\n        /* \"#utility.yul\":7771:7817   */\n      swap2\n      pop\n        /* \"#utility.yul\":7538:7823   */\n      pop\n        /* \"#utility.yul\":7446:7823   */\n      swap3\n      swap2\n      pop\n      pop\n      jump\t// out\n        /* \"#utility.yul\":7829:8897   */\n    tag_55:\n        /* \"#utility.yul\":8130:8134   */\n      0x00\n        /* \"#utility.yul\":8168:8171   */\n      0xe0\n        /* \"#utility.yul\":8157:8166   */\n      dup3\n        /* \"#utility.yul\":8153:8172   */\n      add\n        /* \"#utility.yul\":8145:8172   */\n      swap1\n      pop\n        /* \"#utility.yul\":8182:8253   */\n      tag_542\n        /* \"#utility.yul\":8250:8251   */\n      0x00\n        /* \"#utility.yul\":8239:8248   */\n      dup4\n        /* \"#utility.yul\":8235:8252   */\n      add\n        /* \"#utility.yul\":8226:8232   */\n      dup11\n        /* \"#utility.yul\":8182:8253   */\n      tag_371\n      jump\t// in\n    tag_542:\n        /* \"#utility.yul\":8263:8335   */\n      tag_543\n        /* \"#utility.yul\":8331:8333   */\n      0x20\n        /* \"#utility.yul\":8320:8329   */\n      dup4\n        /* \"#utility.yul\":8316:8334   */\n      add\n        /* \"#utility.yul\":8307:8313   */\n      dup10\n        /* \"#utility.yul\":8263:8335   */\n      tag_372\n      jump\t// in\n    tag_543:\n        /* \"#utility.yul\":8382:8391   */\n      dup2\n        /* \"#utility.yul\":8376:8380   */\n      dup2\n        /* \"#utility.yul\":8372:8392   */\n      sub\n        /* \"#utility.yul\":8367:8369   */\n      0x40\n        /* \"#utility.yul\":8356:8365   */\n      dup4\n        /* \"#utility.yul\":8352:8370   */\n      add\n        /* \"#utility.yul\":8345:8393   */\n      mstore\n        /* \"#utility.yul\":8410:8488   */\n      tag_544\n        /* \"#utility.yul\":8483:8487   */\n      dup2\n        /* \"#utility.yul\":8474:8480   */\n      dup9\n        /* \"#utility.yul\":8410:8488   */\n      tag_385\n      jump\t// in\n    tag_544:\n        /* \"#utility.yul\":8402:8488   */\n      swap1\n      pop\n        /* \"#utility.yul\":8498:8570   */\n      tag_545\n        /* \"#utility.yul\":8566:8568   */\n      0x60\n        /* \"#utility.yul\":8555:8564   */\n      dup4\n        /* \"#utility.yul\":8551:8569   */\n      add\n        /* \"#utility.yul\":8542:8548   */\n      dup8\n        /* \"#utility.yul\":8498:8570   */\n      tag_371\n      jump\t// in\n    tag_545:\n        /* \"#utility.yul\":8618:8627   */\n      dup2\n        /* \"#utility.yul\":8612:8616   */\n      dup2\n        /* \"#utility.yul\":8608:8628   */\n      sub\n        /* \"#utility.yul\":8602:8605   */\n      0x80\n        /* \"#utility.yul\":8591:8600   */\n      dup4\n        /* \"#utility.yul\":8587:8606   */\n      add\n        /* \"#utility.yul\":8580:8629   */\n      mstore\n        /* \"#utility.yul\":8646:8724   */\n      tag_546\n        /* \"#utility.yul\":8719:8723   */\n      dup2\n        /* \"#utility.yul\":8710:8716   */\n      dup7\n        /* \"#utility.yul\":8646:8724   */\n      tag_385\n      jump\t// in\n    tag_546:\n        /* \"#utility.yul\":8638:8724   */\n      swap1\n      pop\n        /* \"#utility.yul\":8734:8807   */\n      tag_547\n        /* \"#utility.yul\":8802:8805   */\n      0xa0\n        /* \"#utility.yul\":8791:8800   */\n      dup4\n        /* \"#utility.yul\":8787:8806   */\n      add\n        /* \"#utility.yul\":8778:8784   */\n      dup6\n        /* \"#utility.yul\":8734:8807   */\n      tag_371\n      jump\t// in\n    tag_547:\n        /* \"#utility.yul\":8817:8890   */\n      tag_548\n        /* \"#utility.yul\":8885:8888   */\n      0xc0\n        /* \"#utility.yul\":8874:8883   */\n      dup4\n        /* \"#utility.yul\":8870:8889   */\n      add\n        /* \"#utility.yul\":8861:8867   */\n      dup5\n        /* \"#utility.yul\":8817:8890   */\n      tag_371\n      jump\t// in\n    tag_548:\n        /* \"#utility.yul\":7829:8897   */\n      swap9\n      swap8\n      pop\n      pop\n      pop\n      pop\n      pop\n      pop\n      pop\n      pop\n      jump\t// out\n        /* \"#utility.yul\":8903:9011   */\n    tag_386:\n        /* \"#utility.yul\":8980:9004   */\n      tag_550\n        /* \"#utility.yul\":8998:9003   */\n      dup2\n        /* \"#utility.yul\":8980:9004   */\n      tag_358\n      jump\t// in\n    tag_550:\n        /* \"#utility.yul\":8975:8978   */\n      dup3\n        /* \"#utility.yul\":8968:9005   */\n      mstore\n        /* \"#utility.yul\":8903:9011   */\n      pop\n      pop\n      jump\t// out\n        /* \"#utility.yul\":9017:9125   */\n    tag_387:\n        /* \"#utility.yul\":9094:9118   */\n      tag_552\n        /* \"#utility.yul\":9112:9117   */\n      dup2\n        /* \"#utility.yul\":9094:9118   */\n      tag_373\n      jump\t// in\n    tag_552:\n        /* \"#utility.yul\":9089:9092   */\n      dup3\n        /* \"#utility.yul\":9082:9119   */\n      mstore\n        /* \"#utility.yul\":9017:9125   */\n      pop\n      pop\n      jump\t// out\n        /* \"#utility.yul\":9131:9276   */\n    tag_388:\n        /* \"#utility.yul\":9220:9269   */\n      tag_554\n        /* \"#utility.yul\":9263:9268   */\n      dup2\n        /* \"#utility.yul\":9220:9269   */\n      tag_377\n      jump\t// in\n    tag_554:\n        /* \"#utility.yul\":9215:9218   */\n      dup3\n        /* \"#utility.yul\":9208:9270   */\n      mstore\n        /* \"#utility.yul\":9131:9276   */\n      pop\n      pop\n      jump\t// out\n        /* \"#utility.yul\":9354:10220   */\n    tag_389:\n        /* \"#utility.yul\":9493:9497   */\n      0x80\n        /* \"#utility.yul\":9488:9491   */\n      dup3\n        /* \"#utility.yul\":9484:9498   */\n      add\n        /* \"#utility.yul\":9578:9582   */\n      0x00\n        /* \"#utility.yul\":9571:9576   */\n      dup3\n        /* \"#utility.yul\":9567:9583   */\n      add\n        /* \"#utility.yul\":9561:9584   */\n      mload\n        /* \"#utility.yul\":9597:9660   */\n      tag_556\n        /* \"#utility.yul\":9654:9658   */\n      0x00\n        /* \"#utility.yul\":9649:9652   */\n      dup6\n        /* \"#utility.yul\":9645:9659   */\n      add\n        /* \"#utility.yul\":9631:9643   */\n      dup3\n        /* \"#utility.yul\":9597:9660   */\n      tag_367\n      jump\t// in\n    tag_556:\n        /* \"#utility.yul\":9508:9670   */\n      pop\n        /* \"#utility.yul\":9759:9763   */\n      0x20\n        /* \"#utility.yul\":9752:9757   */\n      dup3\n        /* \"#utility.yul\":9748:9764   */\n      add\n        /* \"#utility.yul\":9742:9765   */\n      mload\n        /* \"#utility.yul\":9778:9841   */\n      tag_557\n        /* \"#utility.yul\":9835:9839   */\n      0x20\n        /* \"#utility.yul\":9830:9833   */\n      dup6\n        /* \"#utility.yul\":9826:9840   */\n      add\n        /* \"#utility.yul\":9812:9824   */\n      dup3\n        /* \"#utility.yul\":9778:9841   */\n      tag_386\n      jump\t// in\n    tag_557:\n        /* \"#utility.yul\":9680:9851   */\n      pop\n        /* \"#utility.yul\":9933:9937   */\n      0x40\n        /* \"#utility.yul\":9926:9931   */\n      dup3\n        /* \"#utility.yul\":9922:9938   */\n      add\n        /* \"#utility.yul\":9916:9939   */\n      mload\n        /* \"#utility.yul\":9952:10015   */\n      tag_558\n        /* \"#utility.yul\":10009:10013   */\n      0x40\n        /* \"#utility.yul\":10004:10007   */\n      dup6\n        /* \"#utility.yul\":10000:10014   */\n      add\n        /* \"#utility.yul\":9986:9998   */\n      dup3\n        /* \"#utility.yul\":9952:10015   */\n      tag_387\n      jump\t// in\n    tag_558:\n        /* \"#utility.yul\":9861:10025   */\n      pop\n        /* \"#utility.yul\":10109:10113   */\n      0x60\n        /* \"#utility.yul\":10102:10107   */\n      dup3\n        /* \"#utility.yul\":10098:10114   */\n      add\n        /* \"#utility.yul\":10092:10115   */\n      mload\n        /* \"#utility.yul\":10128:10203   */\n      tag_559\n        /* \"#utility.yul\":10197:10201   */\n      0x60\n        /* \"#utility.yul\":10192:10195   */\n      dup6\n        /* \"#utility.yul\":10188:10202   */\n      add\n        /* \"#utility.yul\":10174:10186   */\n      dup3\n        /* \"#utility.yul\":10128:10203   */\n      tag_388\n      jump\t// in\n    tag_559:\n        /* \"#utility.yul\":10035:10213   */\n      pop\n        /* \"#utility.yul\":9462:10220   */\n      pop\n        /* \"#utility.yul\":9354:10220   */\n      pop\n      pop\n      jump\t// out\n        /* \"#utility.yul\":10226:10533   */\n    tag_64:\n        /* \"#utility.yul\":10361:10365   */\n      0x00\n        /* \"#utility.yul\":10399:10402   */\n      0x80\n        /* \"#utility.yul\":10388:10397   */\n      dup3\n        /* \"#utility.yul\":10384:10403   */\n      add\n        /* \"#utility.yul\":10376:10403   */\n      swap1\n      pop\n        /* \"#utility.yul\":10413:10526   */\n      tag_561\n        /* \"#utility.yul\":10523:10524   */\n      0x00\n        /* \"#utility.yul\":10512:10521   */\n      dup4\n        /* \"#utility.yul\":10508:10525   */\n      add\n        /* \"#utility.yul\":10499:10505   */\n      dup5\n        /* \"#utility.yul\":10413:10526   */\n      tag_389\n      jump\t// in\n    tag_561:\n        /* \"#utility.yul\":10226:10533   */\n      swap3\n      swap2\n      pop\n      pop\n      jump\t// out\n        /* \"#utility.yul\":10539:10761   */\n    tag_68:\n        /* \"#utility.yul\":10632:10636   */\n      0x00\n        /* \"#utility.yul\":10670:10672   */\n      0x20\n        /* \"#utility.yul\":10659:10668   */\n      dup3\n        /* \"#utility.yul\":10655:10673   */\n      add\n        /* \"#utility.yul\":10647:10673   */\n      swap1\n      pop\n        /* \"#utility.yul\":10683:10754   */\n      tag_563\n        /* \"#utility.yul\":10751:10752   */\n      0x00\n        /* \"#utility.yul\":10740:10749   */\n      dup4\n        /* \"#utility.yul\":10736:10753   */\n      add\n        /* \"#utility.yul\":10727:10733   */\n      dup5\n        /* \"#utility.yul\":10683:10754   */\n      tag_371\n      jump\t// in\n    tag_563:\n        /* \"#utility.yul\":10539:10761   */\n      swap3\n      swap2\n      pop\n      pop\n      jump\t// out\n        /* \"#utility.yul\":10767:10880   */\n    tag_390:\n        /* \"#utility.yul\":10854:10855   */\n      0x04\n        /* \"#utility.yul\":10847:10852   */\n      dup2\n        /* \"#utility.yul\":10844:10856   */\n      lt\n        /* \"#utility.yul\":10834:10874   */\n      tag_565\n      jumpi\n        /* \"#utility.yul\":10870:10871   */\n      0x00\n        /* \"#utility.yul\":10867:10868   */\n      0x00\n        /* \"#utility.yul\":10860:10872   */\n      revert\n        /* \"#utility.yul\":10834:10874   */\n    tag_565:\n        /* \"#utility.yul\":10767:10880   */\n      pop\n      jump\t// out\n        /* \"#utility.yul\":10886:11053   */\n    tag_391:\n        /* \"#utility.yul\":10946:10951   */\n      0x00\n        /* \"#utility.yul\":10984:10990   */\n      dup2\n        /* \"#utility.yul\":10971:10991   */\n      calldataload\n        /* \"#utility.yul\":10962:10991   */\n      swap1\n      pop\n        /* \"#utility.yul\":11000:11047   */\n      tag_567\n        /* \"#utility.yul\":11041:11046   */\n      dup2\n        /* \"#utility.yul\":11000:11047   */\n      tag_390\n      jump\t// in\n    tag_567:\n        /* \"#utility.yul\":10886:11053   */\n      swap3\n      swap2\n      pop\n      pop\n      jump\t// out\n        /* \"#utility.yul\":11059:11561   */\n    tag_71:\n        /* \"#utility.yul\":11141:11147   */\n      0x00\n        /* \"#utility.yul\":11149:11155   */\n      0x00\n        /* \"#utility.yul\":11198:11200   */\n      0x40\n        /* \"#utility.yul\":11186:11195   */\n      dup4\n        /* \"#utility.yul\":11177:11184   */\n      dup6\n        /* \"#utility.yul\":11173:11196   */\n      sub\n        /* \"#utility.yul\":11169:11201   */\n      slt\n        /* \"#utility.yul\":11166:11285   */\n      iszero\n      tag_569\n      jumpi\n        /* \"#utility.yul\":11204:11283   */\n      tag_570\n      tag_355\n      jump\t// in\n    tag_570:\n        /* \"#utility.yul\":11166:11285   */\n    tag_569:\n        /* \"#utility.yul\":11324:11325   */\n      0x00\n        /* \"#utility.yul\":11349:11402   */\n      tag_571\n        /* \"#utility.yul\":11394:11401   */\n      dup6\n        /* \"#utility.yul\":11385:11391   */\n      dup3\n        /* \"#utility.yul\":11374:11383   */\n      dup7\n        /* \"#utility.yul\":11370:11392   */\n      add\n        /* \"#utility.yul\":11349:11402   */\n      tag_360\n      jump\t// in\n    tag_571:\n        /* \"#utility.yul\":11339:11402   */\n      swap3\n      pop\n        /* \"#utility.yul\":11295:11412   */\n      pop\n        /* \"#utility.yul\":11451:11453   */\n      0x20\n        /* \"#utility.yul\":11477:11544   */\n      tag_572\n        /* \"#utility.yul\":11536:11543   */\n      dup6\n        /* \"#utility.yul\":11527:11533   */\n      dup3\n        /* \"#utility.yul\":11516:11525   */\n      dup7\n        /* \"#utility.yul\":11512:11534   */\n      add\n        /* \"#utility.yul\":11477:11544   */\n      tag_391\n      jump\t// in\n    tag_572:\n        /* \"#utility.yul\":11467:11544   */\n      swap2\n      pop\n        /* \"#utility.yul\":11422:11554   */\n      pop\n        /* \"#utility.yul\":11059:11561   */\n      swap3\n      pop\n      swap3\n      swap1\n      pop\n      jump\t// out\n        /* \"#utility.yul\":11567:11690   */\n    tag_392:\n        /* \"#utility.yul\":11658:11659   */\n      0x03\n        /* \"#utility.yul\":11651:11656   */\n      dup2\n        /* \"#utility.yul\":11648:11660   */\n      lt\n        /* \"#utility.yul\":11638:11684   */\n      tag_574\n      jumpi\n        /* \"#utility.yul\":11664:11682   */\n      tag_575\n      tag_110\n      jump\t// in\n    tag_575:\n        /* \"#utility.yul\":11638:11684   */\n    tag_574:\n        /* \"#utility.yul\":11567:11690   */\n      pop\n      jump\t// out\n        /* \"#utility.yul\":11696:11843   */\n    tag_393:\n        /* \"#utility.yul\":11751:11758   */\n      0x00\n        /* \"#utility.yul\":11780:11785   */\n      dup2\n        /* \"#utility.yul\":11769:11785   */\n      swap1\n      pop\n        /* \"#utility.yul\":11786:11837   */\n      tag_577\n        /* \"#utility.yul\":11831:11836   */\n      dup3\n        /* \"#utility.yul\":11786:11837   */\n      tag_392\n      jump\t// in\n    tag_577:\n        /* \"#utility.yul\":11696:11843   */\n      swap2\n      swap1\n      pop\n      jump\t// out\n        /* \"#utility.yul\":11849:11996   */\n    tag_394:\n        /* \"#utility.yul\":11915:11924   */\n      0x00\n        /* \"#utility.yul\":11948:11990   */\n      tag_579\n        /* \"#utility.yul\":11984:11989   */\n      dup3\n        /* \"#utility.yul\":11948:11990   */\n      tag_393\n      jump\t// in\n    tag_579:\n        /* \"#utility.yul\":11935:11990   */\n      swap1\n      pop\n        /* \"#utility.yul\":11849:11996   */\n      swap2\n      swap1\n      pop\n      jump\t// out\n        /* \"#utility.yul\":12002:12165   */\n    tag_395:\n        /* \"#utility.yul\":12105:12158   */\n      tag_581\n        /* \"#utility.yul\":12152:12157   */\n      dup2\n        /* \"#utility.yul\":12105:12158   */\n      tag_394\n      jump\t// in\n    tag_581:\n        /* \"#utility.yul\":12100:12103   */\n      dup3\n        /* \"#utility.yul\":12093:12159   */\n      mstore\n        /* \"#utility.yul\":12002:12165   */\n      pop\n      pop\n      jump\t// out\n        /* \"#utility.yul\":12171:13089   */\n    tag_77:\n        /* \"#utility.yul\":12448:12452   */\n      0x00\n        /* \"#utility.yul\":12486:12489   */\n      0xe0\n        /* \"#utility.yul\":12475:12484   */\n      dup3\n        /* \"#utility.yul\":12471:12490   */\n      add\n        /* \"#utility.yul\":12463:12490   */\n      swap1\n      pop\n        /* \"#utility.yul\":12500:12571   */\n      tag_583\n        /* \"#utility.yul\":12568:12569   */\n      0x00\n        /* \"#utility.yul\":12557:12566   */\n      dup4\n        /* \"#utility.yul\":12553:12570   */\n      add\n        /* \"#utility.yul\":12544:12550   */\n      dup11\n        /* \"#utility.yul\":12500:12571   */\n      tag_371\n      jump\t// in\n    tag_583:\n        /* \"#utility.yul\":12581:12653   */\n      tag_584\n        /* \"#utility.yul\":12649:12651   */\n      0x20\n        /* \"#utility.yul\":12638:12647   */\n      dup4\n        /* \"#utility.yul\":12634:12652   */\n      add\n        /* \"#utility.yul\":12625:12631   */\n      dup10\n        /* \"#utility.yul\":12581:12653   */\n      tag_372\n      jump\t// in\n    tag_584:\n        /* \"#utility.yul\":12663:12735   */\n      tag_585\n        /* \"#utility.yul\":12731:12733   */\n      0x40\n        /* \"#utility.yul\":12720:12729   */\n      dup4\n        /* \"#utility.yul\":12716:12734   */\n      add\n        /* \"#utility.yul\":12707:12713   */\n      dup9\n        /* \"#utility.yul\":12663:12735   */\n      tag_372\n      jump\t// in\n    tag_585:\n        /* \"#utility.yul\":12745:12817   */\n      tag_586\n        /* \"#utility.yul\":12813:12815   */\n      0x60\n        /* \"#utility.yul\":12802:12811   */\n      dup4\n        /* \"#utility.yul\":12798:12816   */\n      add\n        /* \"#utility.yul\":12789:12795   */\n      dup8\n        /* \"#utility.yul\":12745:12817   */\n      tag_371\n      jump\t// in\n    tag_586:\n        /* \"#utility.yul\":12827:12900   */\n      tag_587\n        /* \"#utility.yul\":12895:12898   */\n      0x80\n        /* \"#utility.yul\":12884:12893   */\n      dup4\n        /* \"#utility.yul\":12880:12899   */\n      add\n        /* \"#utility.yul\":12871:12877   */\n      dup7\n        /* \"#utility.yul\":12827:12900   */\n      tag_371\n      jump\t// in\n    tag_587:\n        /* \"#utility.yul\":12910:12983   */\n      tag_588\n        /* \"#utility.yul\":12978:12981   */\n      0xa0\n        /* \"#utility.yul\":12967:12976   */\n      dup4\n        /* \"#utility.yul\":12963:12982   */\n      add\n        /* \"#utility.yul\":12954:12960   */\n      dup6\n        /* \"#utility.yul\":12910:12983   */\n      tag_371\n      jump\t// in\n    tag_588:\n        /* \"#utility.yul\":12993:13082   */\n      tag_589\n        /* \"#utility.yul\":13077:13080   */\n      0xc0\n        /* \"#utility.yul\":13066:13075   */\n      dup4\n        /* \"#utility.yul\":13062:13081   */\n      add\n        /* \"#utility.yul\":13053:13059   */\n      dup5\n        /* \"#utility.yul\":12993:13082   */\n      tag_395\n      jump\t// in\n    tag_589:\n        /* \"#utility.yul\":12171:13089   */\n      swap9\n      swap8\n      pop\n      pop\n      pop\n      pop\n      pop\n      pop\n      pop\n      pop\n      jump\t// out\n        /* \"#utility.yul\":13095:13212   */\n    tag_396:\n        /* \"#utility.yul\":13204:13205   */\n      0x00\n        /* \"#utility.yul\":13201:13202   */\n      0x00\n        /* \"#utility.yul\":13194:13206   */\n      revert\n        /* \"#utility.yul\":13218:13335   */\n    tag_397:\n        /* \"#utility.yul\":13327:13328   */\n      0x00\n        /* \"#utility.yul\":13324:13325   */\n      0x00\n        /* \"#utility.yul\":13317:13329   */\n      revert\n        /* \"#utility.yul\":13341:13458   */\n    tag_398:\n        /* \"#utility.yul\":13450:13451   */\n      0x00\n        /* \"#utility.yul\":13447:13448   */\n      0x00\n        /* \"#utility.yul\":13440:13452   */\n      revert\n        /* \"#utility.yul\":13478:14031   */\n    tag_399:\n        /* \"#utility.yul\":13536:13544   */\n      0x00\n        /* \"#utility.yul\":13546:13552   */\n      0x00\n        /* \"#utility.yul\":13596:13599   */\n      dup4\n        /* \"#utility.yul\":13589:13593   */\n      0x1f\n        /* \"#utility.yul\":13581:13587   */\n      dup5\n        /* \"#utility.yul\":13577:13594   */\n      add\n        /* \"#utility.yul\":13573:13600   */\n      slt\n        /* \"#utility.yul\":13563:13685   */\n      tag_594\n      jumpi\n        /* \"#utility.yul\":13604:13683   */\n      tag_595\n      tag_396\n      jump\t// in\n    tag_595:\n        /* \"#utility.yul\":13563:13685   */\n    tag_594:\n        /* \"#utility.yul\":13717:13723   */\n      dup3\n        /* \"#utility.yul\":13704:13724   */\n      calldataload\n        /* \"#utility.yul\":13694:13724   */\n      swap1\n      pop\n        /* \"#utility.yul\":13747:13765   */\n      0xffffffffffffffff\n        /* \"#utility.yul\":13739:13745   */\n      dup2\n        /* \"#utility.yul\":13736:13766   */\n      gt\n        /* \"#utility.yul\":13733:13850   */\n      iszero\n      tag_596\n      jumpi\n        /* \"#utility.yul\":13769:13848   */\n      tag_597\n      tag_397\n      jump\t// in\n    tag_597:\n        /* \"#utility.yul\":13733:13850   */\n    tag_596:\n        /* \"#utility.yul\":13883:13887   */\n      0x20\n        /* \"#utility.yul\":13875:13881   */\n      dup4\n        /* \"#utility.yul\":13871:13888   */\n      add\n        /* \"#utility.yul\":13859:13888   */\n      swap2\n      pop\n        /* \"#utility.yul\":13937:13940   */\n      dup4\n        /* \"#utility.yul\":13929:13933   */\n      0x01\n        /* \"#utility.yul\":13921:13927   */\n      dup3\n        /* \"#utility.yul\":13917:13934   */\n      mul\n        /* \"#utility.yul\":13907:13915   */\n      dup4\n        /* \"#utility.yul\":13903:13935   */\n      add\n        /* \"#utility.yul\":13900:13941   */\n      gt\n        /* \"#utility.yul\":13897:14025   */\n      iszero\n      tag_598\n      jumpi\n        /* \"#utility.yul\":13944:14023   */\n      tag_599\n      tag_398\n      jump\t// in\n    tag_599:\n        /* \"#utility.yul\":13897:14025   */\n    tag_598:\n        /* \"#utility.yul\":13478:14031   */\n      swap3\n      pop\n      swap3\n      swap1\n      pop\n      jump\t// out\n        /* \"#utility.yul\":14037:15202   */\n    tag_90:\n        /* \"#utility.yul\":14147:14153   */\n      0x00\n        /* \"#utility.yul\":14155:14161   */\n      0x00\n        /* \"#utility.yul\":14163:14169   */\n      0x00\n        /* \"#utility.yul\":14171:14177   */\n      0x00\n        /* \"#utility.yul\":14179:14185   */\n      0x00\n        /* \"#utility.yul\":14187:14193   */\n      0x00\n        /* \"#utility.yul\":14236:14239   */\n      0x80\n        /* \"#utility.yul\":14224:14233   */\n      dup8\n        /* \"#utility.yul\":14215:14222   */\n      dup10\n        /* \"#utility.yul\":14211:14234   */\n      sub\n        /* \"#utility.yul\":14207:14240   */\n      slt\n        /* \"#utility.yul\":14204:14324   */\n      iszero\n      tag_601\n      jumpi\n        /* \"#utility.yul\":14243:14322   */\n      tag_602\n      tag_355\n      jump\t// in\n    tag_602:\n        /* \"#utility.yul\":14204:14324   */\n    tag_601:\n        /* \"#utility.yul\":14391:14392   */\n      0x00\n        /* \"#utility.yul\":14380:14389   */\n      dup8\n        /* \"#utility.yul\":14376:14393   */\n      add\n        /* \"#utility.yul\":14363:14394   */\n      calldataload\n        /* \"#utility.yul\":14421:14439   */\n      0xffffffffffffffff\n        /* \"#utility.yul\":14413:14419   */\n      dup2\n        /* \"#utility.yul\":14410:14440   */\n      gt\n        /* \"#utility.yul\":14407:14524   */\n      iszero\n      tag_603\n      jumpi\n        /* \"#utility.yul\":14443:14522   */\n      tag_604\n      tag_356\n      jump\t// in\n    tag_604:\n        /* \"#utility.yul\":14407:14524   */\n    tag_603:\n        /* \"#utility.yul\":14556:14621   */\n      tag_605\n        /* \"#utility.yul\":14613:14620   */\n      dup10\n        /* \"#utility.yul\":14604:14610   */\n      dup3\n        /* \"#utility.yul\":14593:14602   */\n      dup11\n        /* \"#utility.yul\":14589:14611   */\n      add\n        /* \"#utility.yul\":14556:14621   */\n      tag_399\n      jump\t// in\n    tag_605:\n        /* \"#utility.yul\":14538:14621   */\n      swap7\n      pop\n      swap7\n      pop\n        /* \"#utility.yul\":14334:14631   */\n      pop\n        /* \"#utility.yul\":14670:14672   */\n      0x20\n        /* \"#utility.yul\":14696:14749   */\n      tag_606\n        /* \"#utility.yul\":14741:14748   */\n      dup10\n        /* \"#utility.yul\":14732:14738   */\n      dup3\n        /* \"#utility.yul\":14721:14730   */\n      dup11\n        /* \"#utility.yul\":14717:14739   */\n      add\n        /* \"#utility.yul\":14696:14749   */\n      tag_363\n      jump\t// in\n    tag_606:\n        /* \"#utility.yul\":14686:14749   */\n      swap5\n      pop\n        /* \"#utility.yul\":14641:14759   */\n      pop\n        /* \"#utility.yul\":14826:14828   */\n      0x40\n        /* \"#utility.yul\":14815:14824   */\n      dup8\n        /* \"#utility.yul\":14811:14829   */\n      add\n        /* \"#utility.yul\":14798:14830   */\n      calldataload\n        /* \"#utility.yul\":14857:14875   */\n      0xffffffffffffffff\n        /* \"#utility.yul\":14849:14855   */\n      dup2\n        /* \"#utility.yul\":14846:14876   */\n      gt\n        /* \"#utility.yul\":14843:14960   */\n      iszero\n      tag_607\n      jumpi\n        /* \"#utility.yul\":14879:14958   */\n      tag_608\n      tag_356\n      jump\t// in\n    tag_608:\n        /* \"#utility.yul\":14843:14960   */\n    tag_607:\n        /* \"#utility.yul\":14992:15057   */\n      tag_609\n        /* \"#utility.yul\":15049:15056   */\n      dup10\n        /* \"#utility.yul\":15040:15046   */\n      dup3\n        /* \"#utility.yul\":15029:15038   */\n      dup11\n        /* \"#utility.yul\":15025:15047   */\n      add\n        /* \"#utility.yul\":14992:15057   */\n      tag_399\n      jump\t// in\n    tag_609:\n        /* \"#utility.yul\":14974:15057   */\n      swap4\n      pop\n      swap4\n      pop\n        /* \"#utility.yul\":14769:15067   */\n      pop\n        /* \"#utility.yul\":15106:15108   */\n      0x60\n        /* \"#utility.yul\":15132:15185   */\n      tag_610\n        /* \"#utility.yul\":15177:15184   */\n      dup10\n        /* \"#utility.yul\":15168:15174   */\n      dup3\n        /* \"#utility.yul\":15157:15166   */\n      dup11\n        /* \"#utility.yul\":15153:15175   */\n      add\n        /* \"#utility.yul\":15132:15185   */\n      tag_363\n      jump\t// in\n    tag_610:\n        /* \"#utility.yul\":15122:15185   */\n      swap2\n      pop\n        /* \"#utility.yul\":15077:15195   */\n      pop\n        /* \"#utility.yul\":14037:15202   */\n      swap3\n      swap6\n      pop\n      swap3\n      swap6\n      pop\n      swap3\n      swap6\n      jump\t// out\n        /* \"#utility.yul\":15208:16185   */\n    tag_96:\n        /* \"#utility.yul\":15489:15493   */\n      0x00\n        /* \"#utility.yul\":15527:15530   */\n      0xe0\n        /* \"#utility.yul\":15516:15525   */\n      dup3\n        /* \"#utility.yul\":15512:15531   */\n      add\n        /* \"#utility.yul\":15504:15531   */\n      swap1\n      pop\n        /* \"#utility.yul\":15541:15612   */\n      tag_612\n        /* \"#utility.yul\":15609:15610   */\n      0x00\n        /* \"#utility.yul\":15598:15607   */\n      dup4\n        /* \"#utility.yul\":15594:15611   */\n      add\n        /* \"#utility.yul\":15585:15591   */\n      dup11\n        /* \"#utility.yul\":15541:15612   */\n      tag_371\n      jump\t// in\n    tag_612:\n        /* \"#utility.yul\":15622:15694   */\n      tag_613\n        /* \"#utility.yul\":15690:15692   */\n      0x20\n        /* \"#utility.yul\":15679:15688   */\n      dup4\n        /* \"#utility.yul\":15675:15693   */\n      add\n        /* \"#utility.yul\":15666:15672   */\n      dup10\n        /* \"#utility.yul\":15622:15694   */\n      tag_372\n      jump\t// in\n    tag_613:\n        /* \"#utility.yul\":15741:15750   */\n      dup2\n        /* \"#utility.yul\":15735:15739   */\n      dup2\n        /* \"#utility.yul\":15731:15751   */\n      sub\n        /* \"#utility.yul\":15726:15728   */\n      0x40\n        /* \"#utility.yul\":15715:15724   */\n      dup4\n        /* \"#utility.yul\":15711:15729   */\n      add\n        /* \"#utility.yul\":15704:15752   */\n      mstore\n        /* \"#utility.yul\":15769:15847   */\n      tag_614\n        /* \"#utility.yul\":15842:15846   */\n      dup2\n        /* \"#utility.yul\":15833:15839   */\n      dup9\n        /* \"#utility.yul\":15769:15847   */\n      tag_385\n      jump\t// in\n    tag_614:\n        /* \"#utility.yul\":15761:15847   */\n      swap1\n      pop\n        /* \"#utility.yul\":15857:15929   */\n      tag_615\n        /* \"#utility.yul\":15925:15927   */\n      0x60\n        /* \"#utility.yul\":15914:15923   */\n      dup4\n        /* \"#utility.yul\":15910:15928   */\n      add\n        /* \"#utility.yul\":15901:15907   */\n      dup8\n        /* \"#utility.yul\":15857:15929   */\n      tag_371\n      jump\t// in\n    tag_615:\n        /* \"#utility.yul\":15939:16012   */\n      tag_616\n        /* \"#utility.yul\":16007:16010   */\n      0x80\n        /* \"#utility.yul\":15996:16005   */\n      dup4\n        /* \"#utility.yul\":15992:16011   */\n      add\n        /* \"#utility.yul\":15983:15989   */\n      dup7\n        /* \"#utility.yul\":15939:16012   */\n      tag_371\n      jump\t// in\n    tag_616:\n        /* \"#utility.yul\":16022:16095   */\n      tag_617\n        /* \"#utility.yul\":16090:16093   */\n      0xa0\n        /* \"#utility.yul\":16079:16088   */\n      dup4\n        /* \"#utility.yul\":16075:16094   */\n      add\n        /* \"#utility.yul\":16066:16072   */\n      dup6\n        /* \"#utility.yul\":16022:16095   */\n      tag_371\n      jump\t// in\n    tag_617:\n        /* \"#utility.yul\":16105:16178   */\n      tag_618\n        /* \"#utility.yul\":16173:16176   */\n      0xc0\n        /* \"#utility.yul\":16162:16171   */\n      dup4\n        /* \"#utility.yul\":16158:16177   */\n      add\n        /* \"#utility.yul\":16149:16155   */\n      dup5\n        /* \"#utility.yul\":16105:16178   */\n      tag_371\n      jump\t// in\n    tag_618:\n        /* \"#utility.yul\":15208:16185   */\n      swap9\n      swap8\n      pop\n      pop\n      pop\n      pop\n      pop\n      pop\n      pop\n      pop\n      jump\t// out\n        /* \"#utility.yul\":16191:16665   */\n    tag_99:\n        /* \"#utility.yul\":16259:16265   */\n      0x00\n        /* \"#utility.yul\":16267:16273   */\n      0x00\n        /* \"#utility.yul\":16316:16318   */\n      0x40\n        /* \"#utility.yul\":16304:16313   */\n      dup4\n        /* \"#utility.yul\":16295:16302   */\n      dup6\n        /* \"#utility.yul\":16291:16314   */\n      sub\n        /* \"#utility.yul\":16287:16319   */\n      slt\n        /* \"#utility.yul\":16284:16403   */\n      iszero\n      tag_620\n      jumpi\n        /* \"#utility.yul\":16322:16401   */\n      tag_621\n      tag_355\n      jump\t// in\n    tag_621:\n        /* \"#utility.yul\":16284:16403   */\n    tag_620:\n        /* \"#utility.yul\":16442:16443   */\n      0x00\n        /* \"#utility.yul\":16467:16520   */\n      tag_622\n        /* \"#utility.yul\":16512:16519   */\n      dup6\n        /* \"#utility.yul\":16503:16509   */\n      dup3\n        /* \"#utility.yul\":16492:16501   */\n      dup7\n        /* \"#utility.yul\":16488:16510   */\n      add\n        /* \"#utility.yul\":16467:16520   */\n      tag_363\n      jump\t// in\n    tag_622:\n        /* \"#utility.yul\":16457:16520   */\n      swap3\n      pop\n        /* \"#utility.yul\":16413:16530   */\n      pop\n        /* \"#utility.yul\":16569:16571   */\n      0x20\n        /* \"#utility.yul\":16595:16648   */\n      tag_623\n        /* \"#utility.yul\":16640:16647   */\n      dup6\n        /* \"#utility.yul\":16631:16637   */\n      dup3\n        /* \"#utility.yul\":16620:16629   */\n      dup7\n        /* \"#utility.yul\":16616:16638   */\n      add\n        /* \"#utility.yul\":16595:16648   */\n      tag_360\n      jump\t// in\n    tag_623:\n        /* \"#utility.yul\":16585:16648   */\n      swap2\n      pop\n        /* \"#utility.yul\":16540:16658   */\n      pop\n        /* \"#utility.yul\":16191:16665   */\n      swap3\n      pop\n      swap3\n      swap1\n      pop\n      jump\t// out\n        /* \"#utility.yul\":16671:16893   */\n    tag_105:\n        /* \"#utility.yul\":16764:16768   */\n      0x00\n        /* \"#utility.yul\":16802:16804   */\n      0x20\n        /* \"#utility.yul\":16791:16800   */\n      dup3\n        /* \"#utility.yul\":16787:16805   */\n      add\n        /* \"#utility.yul\":16779:16805   */\n      swap1\n      pop\n        /* \"#utility.yul\":16815:16886   */\n      tag_625\n        /* \"#utility.yul\":16883:16884   */\n      0x00\n        /* \"#utility.yul\":16872:16881   */\n      dup4\n        /* \"#utility.yul\":16868:16885   */\n      add\n        /* \"#utility.yul\":16859:16865   */\n      dup5\n        /* \"#utility.yul\":16815:16886   */\n      tag_372\n      jump\t// in\n    tag_625:\n        /* \"#utility.yul\":16671:16893   */\n      swap3\n      swap2\n      pop\n      pop\n      jump\t// out\n        /* \"#utility.yul\":16899:17061   */\n    tag_400:\n        /* \"#utility.yul\":17039:17053   */\n      0x4e6f7420617070726f7665640000000000000000000000000000000000000000\n        /* \"#utility.yul\":17035:17036   */\n      0x00\n        /* \"#utility.yul\":17027:17033   */\n      dup3\n        /* \"#utility.yul\":17023:17037   */\n      add\n        /* \"#utility.yul\":17016:17054   */\n      mstore\n        /* \"#utility.yul\":16899:17061   */\n      pop\n      jump\t// out\n        /* \"#utility.yul\":17067:17433   */\n    tag_401:\n        /* \"#utility.yul\":17209:17212   */\n      0x00\n        /* \"#utility.yul\":17230:17297   */\n      tag_628\n        /* \"#utility.yul\":17294:17296   */\n      0x0c\n        /* \"#utility.yul\":17289:17292   */\n      dup4\n        /* \"#utility.yul\":17230:17297   */\n      tag_382\n      jump\t// in\n    tag_628:\n        /* \"#utility.yul\":17223:17297   */\n      swap2\n      pop\n        /* \"#utility.yul\":17306:17399   */\n      tag_629\n        /* \"#utility.yul\":17395:17398   */\n      dup3\n        /* \"#utility.yul\":17306:17399   */\n      tag_400\n      jump\t// in\n    tag_629:\n        /* \"#utility.yul\":17424:17426   */\n      0x20\n        /* \"#utility.yul\":17419:17422   */\n      dup3\n        /* \"#utility.yul\":17415:17427   */\n      add\n        /* \"#utility.yul\":17408:17427   */\n      swap1\n      pop\n        /* \"#utility.yul\":17067:17433   */\n      swap2\n      swap1\n      pop\n      jump\t// out\n        /* \"#utility.yul\":17439:17858   */\n    tag_115:\n        /* \"#utility.yul\":17605:17609   */\n      0x00\n        /* \"#utility.yul\":17643:17645   */\n      0x20\n        /* \"#utility.yul\":17632:17641   */\n      dup3\n        /* \"#utility.yul\":17628:17646   */\n      add\n        /* \"#utility.yul\":17620:17646   */\n      swap1\n      pop\n        /* \"#utility.yul\":17692:17701   */\n      dup2\n        /* \"#utility.yul\":17686:17690   */\n      dup2\n        /* \"#utility.yul\":17682:17702   */\n      sub\n        /* \"#utility.yul\":17678:17679   */\n      0x00\n        /* \"#utility.yul\":17667:17676   */\n      dup4\n        /* \"#utility.yul\":17663:17680   */\n      add\n        /* \"#utility.yul\":17656:17703   */\n      mstore\n        /* \"#utility.yul\":17720:17851   */\n      tag_631\n        /* \"#utility.yul\":17846:17850   */\n      dup2\n        /* \"#utility.yul\":17720:17851   */\n      tag_401\n      jump\t// in\n    tag_631:\n        /* \"#utility.yul\":17712:17851   */\n      swap1\n      pop\n        /* \"#utility.yul\":17439:17858   */\n      swap2\n      swap1\n      pop\n      jump\t// out\n        /* \"#utility.yul\":17864:18031   */\n    tag_402:\n        /* \"#utility.yul\":18004:18023   */\n      0x496e76616c696420726563697069656e74000000000000000000000000000000\n        /* \"#utility.yul\":18000:18001   */\n      0x00\n        /* \"#utility.yul\":17992:17998   */\n      dup3\n        /* \"#utility.yul\":17988:18002   */\n      add\n        /* \"#utility.yul\":17981:18024   */\n      mstore\n        /* \"#utility.yul\":17864:18031   */\n      pop\n      jump\t// out\n        /* \"#utility.yul\":18037:18403   */\n    tag_403:\n        /* \"#utility.yul\":18179:18182   */\n      0x00\n        /* \"#utility.yul\":18200:18267   */\n      tag_634\n        /* \"#utility.yul\":18264:18266   */\n      0x11\n        /* \"#utility.yul\":18259:18262   */\n      dup4\n        /* \"#utility.yul\":18200:18267   */\n      tag_382\n      jump\t// in\n    tag_634:\n        /* \"#utility.yul\":18193:18267   */\n      swap2\n      pop\n        /* \"#utility.yul\":18276:18369   */\n      tag_635\n        /* \"#utility.yul\":18365:18368   */\n      dup3\n        /* \"#utility.yul\":18276:18369   */\n      tag_402\n      jump\t// in\n    tag_635:\n        /* \"#utility.yul\":18394:18396   */\n      0x20\n        /* \"#utility.yul\":18389:18392   */\n      dup3\n        /* \"#utility.yul\":18385:18397   */\n      add\n        /* \"#utility.yul\":18378:18397   */\n      swap1\n      pop\n        /* \"#utility.yul\":18037:18403   */\n      swap2\n      swap1\n      pop\n      jump\t// out\n        /* \"#utility.yul\":18409:18828   */\n    tag_123:\n        /* \"#utility.yul\":18575:18579   */\n      0x00\n        /* \"#utility.yul\":18613:18615   */\n      0x20\n        /* \"#utility.yul\":18602:18611   */\n      dup3\n        /* \"#utility.yul\":18598:18616   */\n      add\n        /* \"#utility.yul\":18590:18616   */\n      swap1\n      pop\n        /* \"#utility.yul\":18662:18671   */\n      dup2\n        /* \"#utility.yul\":18656:18660   */\n      dup2\n        /* \"#utility.yul\":18652:18672   */\n      sub\n        /* \"#utility.yul\":18648:18649   */\n      0x00\n        /* \"#utility.yul\":18637:18646   */\n      dup4\n        /* \"#utility.yul\":18633:18650   */\n      add\n        /* \"#utility.yul\":18626:18673   */\n      mstore\n        /* \"#utility.yul\":18690:18821   */\n      tag_637\n        /* \"#utility.yul\":18816:18820   */\n      dup2\n        /* \"#utility.yul\":18690:18821   */\n      tag_403\n      jump\t// in\n    tag_637:\n        /* \"#utility.yul\":18682:18821   */\n      swap1\n      pop\n        /* \"#utility.yul\":18409:18828   */\n      swap2\n      swap1\n      pop\n      jump\t// out\n        /* \"#utility.yul\":18834:19002   */\n    tag_404:\n        /* \"#utility.yul\":18974:18994   */\n      0x416d6f756e74206d757374206265203e20300000000000000000000000000000\n        /* \"#utility.yul\":18970:18971   */\n      0x00\n        /* \"#utility.yul\":18962:18968   */\n      dup3\n        /* \"#utility.yul\":18958:18972   */\n      add\n        /* \"#utility.yul\":18951:18995   */\n      mstore\n        /* \"#utility.yul\":18834:19002   */\n      pop\n      jump\t// out\n        /* \"#utility.yul\":19008:19374   */\n    tag_405:\n        /* \"#utility.yul\":19150:19153   */\n      0x00\n        /* \"#utility.yul\":19171:19238   */\n      tag_640\n        /* \"#utility.yul\":19235:19237   */\n      0x12\n        /* \"#utility.yul\":19230:19233   */\n      dup4\n        /* \"#utility.yul\":19171:19238   */\n      tag_382\n      jump\t// in\n    tag_640:\n        /* \"#utility.yul\":19164:19238   */\n      swap2\n      pop\n        /* \"#utility.yul\":19247:19340   */\n      tag_641\n        /* \"#utility.yul\":19336:19339   */\n      dup3\n        /* \"#utility.yul\":19247:19340   */\n      tag_404\n      jump\t// in\n    tag_641:\n        /* \"#utility.yul\":19365:19367   */\n      0x20\n        /* \"#utility.yul\":19360:19363   */\n      dup3\n        /* \"#utility.yul\":19356:19368   */\n      add\n        /* \"#utility.yul\":19349:19368   */\n      swap1\n      pop\n        /* \"#utility.yul\":19008:19374   */\n      swap2\n      swap1\n      pop\n      jump\t// out\n        /* \"#utility.yul\":19380:19799   */\n    tag_126:\n        /* \"#utility.yul\":19546:19550   */\n      0x00\n        /* \"#utility.yul\":19584:19586   */\n      0x20\n        /* \"#utility.yul\":19573:19582   */\n      dup3\n        /* \"#utility.yul\":19569:19587   */\n      add\n        /* \"#utility.yul\":19561:19587   */\n      swap1\n      pop\n        /* \"#utility.yul\":19633:19642   */\n      dup2\n        /* \"#utility.yul\":19627:19631   */\n      dup2\n        /* \"#utility.yul\":19623:19643   */\n      sub\n        /* \"#utility.yul\":19619:19620   */\n      0x00\n        /* \"#utility.yul\":19608:19617   */\n      dup4\n        /* \"#utility.yul\":19604:19621   */\n      add\n        /* \"#utility.yul\":19597:19644   */\n      mstore\n        /* \"#utility.yul\":19661:19792   */\n      tag_643\n        /* \"#utility.yul\":19787:19791   */\n      dup2\n        /* \"#utility.yul\":19661:19792   */\n      tag_405\n      jump\t// in\n    tag_643:\n        /* \"#utility.yul\":19653:19792   */\n      swap1\n      pop\n        /* \"#utility.yul\":19380:19799   */\n      swap2\n      swap1\n      pop\n      jump\t// out\n        /* \"#utility.yul\":19805:19975   */\n    tag_406:\n        /* \"#utility.yul\":19945:19967   */\n      0x546f6b656e20646f6573206e6f74206578697374000000000000000000000000\n        /* \"#utility.yul\":19941:19942   */\n      0x00\n        /* \"#utility.yul\":19933:19939   */\n      dup3\n        /* \"#utility.yul\":19929:19943   */\n      add\n        /* \"#utility.yul\":19922:19968   */\n      mstore\n        /* \"#utility.yul\":19805:19975   */\n      pop\n      jump\t// out\n        /* \"#utility.yul\":19981:20347   */\n    tag_407:\n        /* \"#utility.yul\":20123:20126   */\n      0x00\n        /* \"#utility.yul\":20144:20211   */\n      tag_646\n        /* \"#utility.yul\":20208:20210   */\n      0x14\n        /* \"#utility.yul\":20203:20206   */\n      dup4\n        /* \"#utility.yul\":20144:20211   */\n      tag_382\n      jump\t// in\n    tag_646:\n        /* \"#utility.yul\":20137:20211   */\n      swap2\n      pop\n        /* \"#utility.yul\":20220:20313   */\n      tag_647\n        /* \"#utility.yul\":20309:20312   */\n      dup3\n        /* \"#utility.yul\":20220:20313   */\n      tag_406\n      jump\t// in\n    tag_647:\n        /* \"#utility.yul\":20338:20340   */\n      0x20\n        /* \"#utility.yul\":20333:20336   */\n      dup3\n        /* \"#utility.yul\":20329:20341   */\n      add\n        /* \"#utility.yul\":20322:20341   */\n      swap1\n      pop\n        /* \"#utility.yul\":19981:20347   */\n      swap2\n      swap1\n      pop\n      jump\t// out\n        /* \"#utility.yul\":20353:20772   */\n    tag_129:\n        /* \"#utility.yul\":20519:20523   */\n      0x00\n        /* \"#utility.yul\":20557:20559   */\n      0x20\n        /* \"#utility.yul\":20546:20555   */\n      dup3\n        /* \"#utility.yul\":20542:20560   */\n      add\n        /* \"#utility.yul\":20534:20560   */\n      swap1\n      pop\n        /* \"#utility.yul\":20606:20615   */\n      dup2\n        /* \"#utility.yul\":20600:20604   */\n      dup2\n        /* \"#utility.yul\":20596:20616   */\n      sub\n        /* \"#utility.yul\":20592:20593   */\n      0x00\n        /* \"#utility.yul\":20581:20590   */\n      dup4\n        /* \"#utility.yul\":20577:20594   */\n      add\n        /* \"#utility.yul\":20570:20617   */\n      mstore\n        /* \"#utility.yul\":20634:20765   */\n      tag_649\n        /* \"#utility.yul\":20760:20764   */\n      dup2\n        /* \"#utility.yul\":20634:20765   */\n      tag_407\n      jump\t// in\n    tag_649:\n        /* \"#utility.yul\":20626:20765   */\n      swap1\n      pop\n        /* \"#utility.yul\":20353:20772   */\n      swap2\n      swap1\n      pop\n      jump\t// out\n        /* \"#utility.yul\":20778:20952   */\n    tag_408:\n        /* \"#utility.yul\":20918:20944   */\n      0x526563697069656e74206e6f7420726567697374657265640000000000000000\n        /* \"#utility.yul\":20914:20915   */\n      0x00\n        /* \"#utility.yul\":20906:20912   */\n      dup3\n        /* \"#utility.yul\":20902:20916   */\n      add\n        /* \"#utility.yul\":20895:20945   */\n      mstore\n        /* \"#utility.yul\":20778:20952   */\n      pop\n      jump\t// out\n        /* \"#utility.yul\":20958:21324   */\n    tag_409:\n        /* \"#utility.yul\":21100:21103   */\n      0x00\n        /* \"#utility.yul\":21121:21188   */\n      tag_652\n        /* \"#utility.yul\":21185:21187   */\n      0x18\n        /* \"#utility.yul\":21180:21183   */\n      dup4\n        /* \"#utility.yul\":21121:21188   */\n      tag_382\n      jump\t// in\n    tag_652:\n        /* \"#utility.yul\":21114:21188   */\n      swap2\n      pop\n        /* \"#utility.yul\":21197:21290   */\n      tag_653\n        /* \"#utility.yul\":21286:21289   */\n      dup3\n        /* \"#utility.yul\":21197:21290   */\n      tag_408\n      jump\t// in\n    tag_653:\n        /* \"#utility.yul\":21315:21317   */\n      0x20\n        /* \"#utility.yul\":21310:21313   */\n      dup3\n        /* \"#utility.yul\":21306:21318   */\n      add\n        /* \"#utility.yul\":21299:21318   */\n      swap1\n      pop\n        /* \"#utility.yul\":20958:21324   */\n      swap2\n      swap1\n      pop\n      jump\t// out\n        /* \"#utility.yul\":21330:21749   */\n    tag_132:\n        /* \"#utility.yul\":21496:21500   */\n      0x00\n        /* \"#utility.yul\":21534:21536   */\n      0x20\n        /* \"#utility.yul\":21523:21532   */\n      dup3\n        /* \"#utility.yul\":21519:21537   */\n      add\n        /* \"#utility.yul\":21511:21537   */\n      swap1\n      pop\n        /* \"#utility.yul\":21583:21592   */\n      dup2\n        /* \"#utility.yul\":21577:21581   */\n      dup2\n        /* \"#utility.yul\":21573:21593   */\n      sub\n        /* \"#utility.yul\":21569:21570   */\n      0x00\n        /* \"#utility.yul\":21558:21567   */\n      dup4\n        /* \"#utility.yul\":21554:21571   */\n      add\n        /* \"#utility.yul\":21547:21594   */\n      mstore\n        /* \"#utility.yul\":21611:21742   */\n      tag_655\n        /* \"#utility.yul\":21737:21741   */\n      dup2\n        /* \"#utility.yul\":21611:21742   */\n      tag_409\n      jump\t// in\n    tag_655:\n        /* \"#utility.yul\":21603:21742   */\n      swap1\n      pop\n        /* \"#utility.yul\":21330:21749   */\n      swap2\n      swap1\n      pop\n      jump\t// out\n        /* \"#utility.yul\":21755:21929   */\n    tag_410:\n        /* \"#utility.yul\":21895:21921   */\n      0x436f6e73756d65722063616e6e6f74207472616e736665720000000000000000\n        /* \"#utility.yul\":21891:21892   */\n      0x00\n        /* \"#utility.yul\":21883:21889   */\n      dup3\n        /* \"#utility.yul\":21879:21893   */\n      add\n        /* \"#utility.yul\":21872:21922   */\n      mstore\n        /* \"#utility.yul\":21755:21929   */\n      pop\n      jump\t// out\n        /* \"#utility.yul\":21935:22301   */\n    tag_411:\n        /* \"#utility.yul\":22077:22080   */\n      0x00\n        /* \"#utility.yul\":22098:22165   */\n      tag_658\n        /* \"#utility.yul\":22162:22164   */\n      0x18\n        /* \"#utility.yul\":22157:22160   */\n      dup4\n        /* \"#utility.yul\":22098:22165   */\n      tag_382\n      jump\t// in\n    tag_658:\n        /* \"#utility.yul\":22091:22165   */\n      swap2\n      pop\n        /* \"#utility.yul\":22174:22267   */\n      tag_659\n        /* \"#utility.yul\":22263:22266   */\n      dup3\n        /* \"#utility.yul\":22174:22267   */\n      tag_410\n      jump\t// in\n    tag_659:\n        /* \"#utility.yul\":22292:22294   */\n      0x20\n        /* \"#utility.yul\":22287:22290   */\n      dup3\n        /* \"#utility.yul\":22283:22295   */\n      add\n        /* \"#utility.yul\":22276:22295   */\n      swap1\n      pop\n        /* \"#utility.yul\":21935:22301   */\n      swap2\n      swap1\n      pop\n      jump\t// out\n        /* \"#utility.yul\":22307:22726   */\n    tag_137:\n        /* \"#utility.yul\":22473:22477   */\n      0x00\n        /* \"#utility.yul\":22511:22513   */\n      0x20\n        /* \"#utility.yul\":22500:22509   */\n      dup3\n        /* \"#utility.yul\":22496:22514   */\n      add\n        /* \"#utility.yul\":22488:22514   */\n      swap1\n      pop\n        /* \"#utility.yul\":22560:22569   */\n      dup2\n        /* \"#utility.yul\":22554:22558   */\n      dup2\n        /* \"#utility.yul\":22550:22570   */\n      sub\n        /* \"#utility.yul\":22546:22547   */\n      0x00\n        /* \"#utility.yul\":22535:22544   */\n      dup4\n        /* \"#utility.yul\":22531:22548   */\n      add\n        /* \"#utility.yul\":22524:22571   */\n      mstore\n        /* \"#utility.yul\":22588:22719   */\n      tag_661\n        /* \"#utility.yul\":22714:22718   */\n      dup2\n        /* \"#utility.yul\":22588:22719   */\n      tag_411\n      jump\t// in\n    tag_661:\n        /* \"#utility.yul\":22580:22719   */\n      swap1\n      pop\n        /* \"#utility.yul\":22307:22726   */\n      swap2\n      swap1\n      pop\n      jump\t// out\n        /* \"#utility.yul\":22732:22905   */\n    tag_412:\n        /* \"#utility.yul\":22872:22897   */\n      0x496e76616c696420726f6c65207472616e736974696f6e000000000000000000\n        /* \"#utility.yul\":22868:22869   */\n      0x00\n        /* \"#utility.yul\":22860:22866   */\n      dup3\n        /* \"#utility.yul\":22856:22870   */\n      add\n        /* \"#utility.yul\":22849:22898   */\n      mstore\n        /* \"#utility.yul\":22732:22905   */\n      pop\n      jump\t// out\n        /* \"#utility.yul\":22911:23277   */\n    tag_413:\n        /* \"#utility.yul\":23053:23056   */\n      0x00\n        /* \"#utility.yul\":23074:23141   */\n      tag_664\n        /* \"#utility.yul\":23138:23140   */\n      0x17\n        /* \"#utility.yul\":23133:23136   */\n      dup4\n        /* \"#utility.yul\":23074:23141   */\n      tag_382\n      jump\t// in\n    tag_664:\n        /* \"#utility.yul\":23067:23141   */\n      swap2\n      pop\n        /* \"#utility.yul\":23150:23243   */\n      tag_665\n        /* \"#utility.yul\":23239:23242   */\n      dup3\n        /* \"#utility.yul\":23150:23243   */\n      tag_412\n      jump\t// in\n    tag_665:\n        /* \"#utility.yul\":23268:23270   */\n      0x20\n        /* \"#utility.yul\":23263:23266   */\n      dup3\n        /* \"#utility.yul\":23259:23271   */\n      add\n        /* \"#utility.yul\":23252:23271   */\n      swap1\n      pop\n        /* \"#utility.yul\":22911:23277   */\n      swap2\n      swap1\n      pop\n      jump\t// out\n        /* \"#utility.yul\":23283:23702   */\n    tag_142:\n        /* \"#utility.yul\":23449:23453   */\n      0x00\n        /* \"#utility.yul\":23487:23489   */\n      0x20\n        /* \"#utility.yul\":23476:23485   */\n      dup3\n        /* \"#utility.yul\":23472:23490   */\n      add\n        /* \"#utility.yul\":23464:23490   */\n      swap1\n      pop\n        /* \"#utility.yul\":23536:23545   */\n      dup2\n        /* \"#utility.yul\":23530:23534   */\n      dup2\n        /* \"#utility.yul\":23526:23546   */\n      sub\n        /* \"#utility.yul\":23522:23523   */\n      0x00\n        /* \"#utility.yul\":23511:23520   */\n      dup4\n        /* \"#utility.yul\":23507:23524   */\n      add\n        /* \"#utility.yul\":23500:23547   */\n      mstore\n        /* \"#utility.yul\":23564:23695   */\n      tag_667\n        /* \"#utility.yul\":23690:23694   */\n      dup2\n        /* \"#utility.yul\":23564:23695   */\n      tag_413\n      jump\t// in\n    tag_667:\n        /* \"#utility.yul\":23556:23695   */\n      swap1\n      pop\n        /* \"#utility.yul\":23283:23702   */\n      swap2\n      swap1\n      pop\n      jump\t// out\n        /* \"#utility.yul\":23708:23878   */\n    tag_414:\n        /* \"#utility.yul\":23848:23870   */\n      0x496e73756666696369656e742062616c616e6365000000000000000000000000\n        /* \"#utility.yul\":23844:23845   */\n      0x00\n        /* \"#utility.yul\":23836:23842   */\n      dup3\n        /* \"#utility.yul\":23832:23846   */\n      add\n        /* \"#utility.yul\":23825:23871   */\n      mstore\n        /* \"#utility.yul\":23708:23878   */\n      pop\n      jump\t// out\n        /* \"#utility.yul\":23884:24250   */\n    tag_415:\n        /* \"#utility.yul\":24026:24029   */\n      0x00\n        /* \"#utility.yul\":24047:24114   */\n      tag_670\n        /* \"#utility.yul\":24111:24113   */\n      0x14\n        /* \"#utility.yul\":24106:24109   */\n      dup4\n        /* \"#utility.yul\":24047:24114   */\n      tag_382\n      jump\t// in\n    tag_670:\n        /* \"#utility.yul\":24040:24114   */\n      swap2\n      pop\n        /* \"#utility.yul\":24123:24216   */\n      tag_671\n        /* \"#utility.yul\":24212:24215   */\n      dup3\n        /* \"#utility.yul\":24123:24216   */\n      tag_414\n      jump\t// in\n    tag_671:\n        /* \"#utility.yul\":24241:24243   */\n      0x20\n        /* \"#utility.yul\":24236:24239   */\n      dup3\n        /* \"#utility.yul\":24232:24244   */\n      add\n        /* \"#utility.yul\":24225:24244   */\n      swap1\n      pop\n        /* \"#utility.yul\":23884:24250   */\n      swap2\n      swap1\n      pop\n      jump\t// out\n        /* \"#utility.yul\":24256:24675   */\n    tag_145:\n        /* \"#utility.yul\":24422:24426   */\n      0x00\n        /* \"#utility.yul\":24460:24462   */\n      0x20\n        /* \"#utility.yul\":24449:24458   */\n      dup3\n        /* \"#utility.yul\":24445:24463   */\n      add\n        /* \"#utility.yul\":24437:24463   */\n      swap1\n      pop\n        /* \"#utility.yul\":24509:24518   */\n      dup2\n        /* \"#utility.yul\":24503:24507   */\n      dup2\n        /* \"#utility.yul\":24499:24519   */\n      sub\n        /* \"#utility.yul\":24495:24496   */\n      0x00\n        /* \"#utility.yul\":24484:24493   */\n      dup4\n        /* \"#utility.yul\":24480:24497   */\n      add\n        /* \"#utility.yul\":24473:24520   */\n      mstore\n        /* \"#utility.yul\":24537:24668   */\n      tag_673\n        /* \"#utility.yul\":24663:24667   */\n      dup2\n        /* \"#utility.yul\":24537:24668   */\n      tag_415\n      jump\t// in\n    tag_673:\n        /* \"#utility.yul\":24529:24668   */\n      swap1\n      pop\n        /* \"#utility.yul\":24256:24675   */\n      swap2\n      swap1\n      pop\n      jump\t// out\n        /* \"#utility.yul\":24681:24861   */\n    tag_416:\n        /* \"#utility.yul\":24729:24806   */\n      0x4e487b7100000000000000000000000000000000000000000000000000000000\n        /* \"#utility.yul\":24726:24727   */\n      0x00\n        /* \"#utility.yul\":24719:24807   */\n      mstore\n        /* \"#utility.yul\":24826:24830   */\n      0x11\n        /* \"#utility.yul\":24823:24824   */\n      0x04\n        /* \"#utility.yul\":24816:24831   */\n      mstore\n        /* \"#utility.yul\":24850:24854   */\n      0x24\n        /* \"#utility.yul\":24847:24848   */\n      0x00\n        /* \"#utility.yul\":24840:24855   */\n      revert\n        /* \"#utility.yul\":24867:25061   */\n    tag_147:\n        /* \"#utility.yul\":24907:24911   */\n      0x00\n        /* \"#utility.yul\":24927:24947   */\n      tag_676\n        /* \"#utility.yul\":24945:24946   */\n      dup3\n        /* \"#utility.yul\":24927:24947   */\n      tag_361\n      jump\t// in\n    tag_676:\n        /* \"#utility.yul\":24922:24947   */\n      swap2\n      pop\n        /* \"#utility.yul\":24961:24981   */\n      tag_677\n        /* \"#utility.yul\":24979:24980   */\n      dup4\n        /* \"#utility.yul\":24961:24981   */\n      tag_361\n      jump\t// in\n    tag_677:\n        /* \"#utility.yul\":24956:24981   */\n      swap3\n      pop\n        /* \"#utility.yul\":25005:25006   */\n      dup3\n        /* \"#utility.yul\":25002:25003   */\n      dup3\n        /* \"#utility.yul\":24998:25007   */\n      sub\n        /* \"#utility.yul\":24990:25007   */\n      swap1\n      pop\n        /* \"#utility.yul\":25029:25030   */\n      dup2\n        /* \"#utility.yul\":25023:25027   */\n      dup2\n        /* \"#utility.yul\":25020:25031   */\n      gt\n        /* \"#utility.yul\":25017:25054   */\n      iszero\n      tag_678\n      jumpi\n        /* \"#utility.yul\":25034:25052   */\n      tag_679\n      tag_416\n      jump\t// in\n    tag_679:\n        /* \"#utility.yul\":25017:25054   */\n    tag_678:\n        /* \"#utility.yul\":24867:25061   */\n      swap3\n      swap2\n      pop\n      pop\n      jump\t// out\n        /* \"#utility.yul\":25067:25258   */\n    tag_149:\n        /* \"#utility.yul\":25107:25110   */\n      0x00\n        /* \"#utility.yul\":25126:25146   */\n      tag_681\n        /* \"#utility.yul\":25144:25145   */\n      dup3\n        /* \"#utility.yul\":25126:25146   */\n      tag_361\n      jump\t// in\n    tag_681:\n        /* \"#utility.yul\":25121:25146   */\n      swap2\n      pop\n        /* \"#utility.yul\":25160:25180   */\n      tag_682\n        /* \"#utility.yul\":25178:25179   */\n      dup4\n        /* \"#utility.yul\":25160:25180   */\n      tag_361\n      jump\t// in\n    tag_682:\n        /* \"#utility.yul\":25155:25180   */\n      swap3\n      pop\n        /* \"#utility.yul\":25203:25204   */\n      dup3\n        /* \"#utility.yul\":25200:25201   */\n      dup3\n        /* \"#utility.yul\":25196:25205   */\n      add\n        /* \"#utility.yul\":25189:25205   */\n      swap1\n      pop\n        /* \"#utility.yul\":25224:25227   */\n      dup1\n        /* \"#utility.yul\":25221:25222   */\n      dup3\n        /* \"#utility.yul\":25218:25228   */\n      gt\n        /* \"#utility.yul\":25215:25251   */\n      iszero\n      tag_683\n      jumpi\n        /* \"#utility.yul\":25231:25249   */\n      tag_684\n      tag_416\n      jump\t// in\n    tag_684:\n        /* \"#utility.yul\":25215:25251   */\n    tag_683:\n        /* \"#utility.yul\":25067:25258   */\n      swap3\n      swap2\n      pop\n      pop\n      jump\t// out\n        /* \"#utility.yul\":25264:25497   */\n    tag_151:\n        /* \"#utility.yul\":25303:25306   */\n      0x00\n        /* \"#utility.yul\":25326:25350   */\n      tag_686\n        /* \"#utility.yul\":25344:25349   */\n      dup3\n        /* \"#utility.yul\":25326:25350   */\n      tag_361\n      jump\t// in\n    tag_686:\n        /* \"#utility.yul\":25317:25350   */\n      swap2\n      pop\n        /* \"#utility.yul\":25372:25438   */\n      0xffffffffffffffffffffffffffffffffffffffffffffffffffffffffffffffff\n        /* \"#utility.yul\":25365:25370   */\n      dup3\n        /* \"#utility.yul\":25362:25439   */\n      sub\n        /* \"#utility.yul\":25359:25462   */\n      tag_687\n      jumpi\n        /* \"#utility.yul\":25442:25460   */\n      tag_688\n      tag_416\n      jump\t// in\n    tag_688:\n        /* \"#utility.yul\":25359:25462   */\n    tag_687:\n        /* \"#utility.yul\":25489:25490   */\n      0x01\n        /* \"#utility.yul\":25482:25487   */\n      dup3\n        /* \"#utility.yul\":25478:25491   */\n      add\n        /* \"#utility.yul\":25471:25491   */\n      swap1\n      pop\n        /* \"#utility.yul\":25264:25497   */\n      swap2\n      swap1\n      pop\n      jump\t// out\n        /* \"#utility.yul\":25503:25835   */\n    tag_157:\n        /* \"#utility.yul\":25624:25628   */\n      0x00\n        /* \"#utility.yul\":25662:25664   */\n      0x40\n        /* \"#utility.yul\":25651:25660   */\n      dup3\n        /* \"#utility.yul\":25647:25665   */\n      add\n        /* \"#utility.yul\":25639:25665   */\n      swap1\n      pop\n        /* \"#utility.yul\":25675:25746   */\n      tag_690\n        /* \"#utility.yul\":25743:25744   */\n      0x00\n        /* \"#utility.yul\":25732:25741   */\n      dup4\n        /* \"#utility.yul\":25728:25745   */\n      add\n        /* \"#utility.yul\":25719:25725   */\n      dup6\n        /* \"#utility.yul\":25675:25746   */\n      tag_371\n      jump\t// in\n    tag_690:\n        /* \"#utility.yul\":25756:25828   */\n      tag_691\n        /* \"#utility.yul\":25824:25826   */\n      0x20\n        /* \"#utility.yul\":25813:25822   */\n      dup4\n        /* \"#utility.yul\":25809:25827   */\n      add\n        /* \"#utility.yul\":25800:25806   */\n      dup5\n        /* \"#utility.yul\":25756:25828   */\n      tag_371\n      jump\t// in\n    tag_691:\n        /* \"#utility.yul\":25503:25835   */\n      swap4\n      swap3\n      pop\n      pop\n      pop\n      jump\t// out\n        /* \"#utility.yul\":25841:26002   */\n    tag_417:\n        /* \"#utility.yul\":25981:25994   */\n      0x4e6f742070656e64696e67000000000000000000000000000000000000000000\n        /* \"#utility.yul\":25977:25978   */\n      0x00\n        /* \"#utility.yul\":25969:25975   */\n      dup3\n        /* \"#utility.yul\":25965:25979   */\n      add\n        /* \"#utility.yul\":25958:25995   */\n      mstore\n        /* \"#utility.yul\":25841:26002   */\n      pop\n      jump\t// out\n        /* \"#utility.yul\":26008:26374   */\n    tag_418:\n        /* \"#utility.yul\":26150:26153   */\n      0x00\n        /* \"#utility.yul\":26171:26238   */\n      tag_694\n        /* \"#utility.yul\":26235:26237   */\n      0x0b\n        /* \"#utility.yul\":26230:26233   */\n      dup4\n        /* \"#utility.yul\":26171:26238   */\n      tag_382\n      jump\t// in\n    tag_694:\n        /* \"#utility.yul\":26164:26238   */\n      swap2\n      pop\n        /* \"#utility.yul\":26247:26340   */\n      tag_695\n        /* \"#utility.yul\":26336:26339   */\n      dup3\n        /* \"#utility.yul\":26247:26340   */\n      tag_417\n      jump\t// in\n    tag_695:\n        /* \"#utility.yul\":26365:26367   */\n      0x20\n        /* \"#utility.yul\":26360:26363   */\n      dup3\n        /* \"#utility.yul\":26356:26368   */\n      add\n        /* \"#utility.yul\":26349:26368   */\n      swap1\n      pop\n        /* \"#utility.yul\":26008:26374   */\n      swap2\n      swap1\n      pop\n      jump\t// out\n        /* \"#utility.yul\":26380:26799   */\n    tag_169:\n        /* \"#utility.yul\":26546:26550   */\n      0x00\n        /* \"#utility.yul\":26584:26586   */\n      0x20\n        /* \"#utility.yul\":26573:26582   */\n      dup3\n        /* \"#utility.yul\":26569:26587   */\n      add\n        /* \"#utility.yul\":26561:26587   */\n      swap1\n      pop\n        /* \"#utility.yul\":26633:26642   */\n      dup2\n        /* \"#utility.yul\":26627:26631   */\n      dup2\n        /* \"#utility.yul\":26623:26643   */\n      sub\n        /* \"#utility.yul\":26619:26620   */\n      0x00\n        /* \"#utility.yul\":26608:26617   */\n      dup4\n        /* \"#utility.yul\":26604:26621   */\n      add\n        /* \"#utility.yul\":26597:26644   */\n      mstore\n        /* \"#utility.yul\":26661:26792   */\n      tag_697\n        /* \"#utility.yul\":26787:26791   */\n      dup2\n        /* \"#utility.yul\":26661:26792   */\n      tag_418\n      jump\t// in\n    tag_697:\n        /* \"#utility.yul\":26653:26792   */\n      swap1\n      pop\n        /* \"#utility.yul\":26380:26799   */\n      swap2\n      swap1\n      pop\n      jump\t// out\n        /* \"#utility.yul\":26805:26969   */\n    tag_419:\n        /* \"#utility.yul\":26945:26961   */\n      0x4e6f7420617574686f72697a6564000000000000000000000000000000000000\n        /* \"#utility.yul\":26941:26942   */\n      0x00\n        /* \"#utility.yul\":26933:26939   */\n      dup3\n        /* \"#utility.yul\":26929:26943   */\n      add\n        /* \"#utility.yul\":26922:26962   */\n      mstore\n        /* \"#utility.yul\":26805:26969   */\n      pop\n      jump\t// out\n        /* \"#utility.yul\":26975:27341   */\n    tag_420:\n        /* \"#utility.yul\":27117:27120   */\n      0x00\n        /* \"#utility.yul\":27138:27205   */\n      tag_700\n        /* \"#utility.yul\":27202:27204   */\n      0x0e\n        /* \"#utility.yul\":27197:27200   */\n      dup4\n        /* \"#utility.yul\":27138:27205   */\n      tag_382\n      jump\t// in\n    tag_700:\n        /* \"#utility.yul\":27131:27205   */\n      swap2\n      pop\n        /* \"#utility.yul\":27214:27307   */\n      tag_701\n        /* \"#utility.yul\":27303:27306   */\n      dup3\n        /* \"#utility.yul\":27214:27307   */\n      tag_419\n      jump\t// in\n    tag_701:\n        /* \"#utility.yul\":27332:27334   */\n      0x20\n        /* \"#utility.yul\":27327:27330   */\n      dup3\n        /* \"#utility.yul\":27323:27335   */\n      add\n        /* \"#utility.yul\":27316:27335   */\n      swap1\n      pop\n        /* \"#utility.yul\":26975:27341   */\n      swap2\n      swap1\n      pop\n      jump\t// out\n        /* \"#utility.yul\":27347:27766   */\n    tag_173:\n        /* \"#utility.yul\":27513:27517   */\n      0x00\n        /* \"#utility.yul\":27551:27553   */\n      0x20\n        /* \"#utility.yul\":27540:27549   */\n      dup3\n        /* \"#utility.yul\":27536:27554   */\n      add\n        /* \"#utility.yul\":27528:27554   */\n      swap1\n      pop\n        /* \"#utility.yul\":27600:27609   */\n      dup2\n        /* \"#utility.yul\":27594:27598   */\n      dup2\n        /* \"#utility.yul\":27590:27610   */\n      sub\n        /* \"#utility.yul\":27586:27587   */\n      0x00\n        /* \"#utility.yul\":27575:27584   */\n      dup4\n        /* \"#utility.yul\":27571:27588   */\n      add\n        /* \"#utility.yul\":27564:27611   */\n      mstore\n        /* \"#utility.yul\":27628:27759   */\n      tag_703\n        /* \"#utility.yul\":27754:27758   */\n      dup2\n        /* \"#utility.yul\":27628:27759   */\n      tag_420\n      jump\t// in\n    tag_703:\n        /* \"#utility.yul\":27620:27759   */\n      swap1\n      pop\n        /* \"#utility.yul\":27347:27766   */\n      swap2\n      swap1\n      pop\n      jump\t// out\n        /* \"#utility.yul\":27772:27935   */\n    tag_421:\n        /* \"#utility.yul\":27912:27927   */\n      0x4e6f7420726563697069656e7400000000000000000000000000000000000000\n        /* \"#utility.yul\":27908:27909   */\n      0x00\n        /* \"#utility.yul\":27900:27906   */\n      dup3\n        /* \"#utility.yul\":27896:27910   */\n      add\n        /* \"#utility.yul\":27889:27928   */\n      mstore\n        /* \"#utility.yul\":27772:27935   */\n      pop\n      jump\t// out\n        /* \"#utility.yul\":27941:28307   */\n    tag_422:\n        /* \"#utility.yul\":28083:28086   */\n      0x00\n        /* \"#utility.yul\":28104:28171   */\n      tag_706\n        /* \"#utility.yul\":28168:28170   */\n      0x0d\n        /* \"#utility.yul\":28163:28166   */\n      dup4\n        /* \"#utility.yul\":28104:28171   */\n      tag_382\n      jump\t// in\n    tag_706:\n        /* \"#utility.yul\":28097:28171   */\n      swap2\n      pop\n        /* \"#utility.yul\":28180:28273   */\n      tag_707\n        /* \"#utility.yul\":28269:28272   */\n      dup3\n        /* \"#utility.yul\":28180:28273   */\n      tag_421\n      jump\t// in\n    tag_707:\n        /* \"#utility.yul\":28298:28300   */\n      0x20\n        /* \"#utility.yul\":28293:28296   */\n      dup3\n        /* \"#utility.yul\":28289:28301   */\n      add\n        /* \"#utility.yul\":28282:28301   */\n      swap1\n      pop\n        /* \"#utility.yul\":27941:28307   */\n      swap2\n      swap1\n      pop\n      jump\t// out\n        /* \"#utility.yul\":28313:28732   */\n    tag_195:\n        /* \"#utility.yul\":28479:28483   */\n      0x00\n        /* \"#utility.yul\":28517:28519   */\n      0x20\n        /* \"#utility.yul\":28506:28515   */\n      dup3\n        /* \"#utility.yul\":28502:28520   */\n      add\n        /* \"#utility.yul\":28494:28520   */\n      swap1\n      pop\n        /* \"#utility.yul\":28566:28575   */\n      dup2\n        /* \"#utility.yul\":28560:28564   */\n      dup2\n        /* \"#utility.yul\":28556:28576   */\n      sub\n        /* \"#utility.yul\":28552:28553   */\n      0x00\n        /* \"#utility.yul\":28541:28550   */\n      dup4\n        /* \"#utility.yul\":28537:28554   */\n      add\n        /* \"#utility.yul\":28530:28577   */\n      mstore\n        /* \"#utility.yul\":28594:28725   */\n      tag_709\n        /* \"#utility.yul\":28720:28724   */\n      dup2\n        /* \"#utility.yul\":28594:28725   */\n      tag_422\n      jump\t// in\n    tag_709:\n        /* \"#utility.yul\":28586:28725   */\n      swap1\n      pop\n        /* \"#utility.yul\":28313:28732   */\n      swap2\n      swap1\n      pop\n      jump\t// out\n        /* \"#utility.yul\":28738:28918   */\n    tag_205:\n        /* \"#utility.yul\":28786:28863   */\n      0x4e487b7100000000000000000000000000000000000000000000000000000000\n        /* \"#utility.yul\":28783:28784   */\n      0x00\n        /* \"#utility.yul\":28776:28864   */\n      mstore\n        /* \"#utility.yul\":28883:28887   */\n      0x41\n        /* \"#utility.yul\":28880:28881   */\n      0x04\n        /* \"#utility.yul\":28873:28888   */\n      mstore\n        /* \"#utility.yul\":28907:28911   */\n      0x24\n        /* \"#utility.yul\":28904:28905   */\n      0x00\n        /* \"#utility.yul\":28897:28912   */\n      revert\n        /* \"#utility.yul\":28924:29104   */\n    tag_215:\n        /* \"#utility.yul\":28972:29049   */\n      0x4e487b7100000000000000000000000000000000000000000000000000000000\n        /* \"#utility.yul\":28969:28970   */\n      0x00\n        /* \"#utility.yul\":28962:29050   */\n      mstore\n        /* \"#utility.yul\":29069:29073   */\n      0x32\n        /* \"#utility.yul\":29066:29067   */\n      0x04\n        /* \"#utility.yul\":29059:29074   */\n      mstore\n        /* \"#utility.yul\":29093:29097   */\n      0x24\n        /* \"#utility.yul\":29090:29091   */\n      0x00\n        /* \"#utility.yul\":29083:29098   */\n      revert\n        /* \"#utility.yul\":29110:29272   */\n    tag_423:\n        /* \"#utility.yul\":29250:29264   */\n      0x496e76616c696420726f6c650000000000000000000000000000000000000000\n        /* \"#utility.yul\":29246:29247   */\n      0x00\n        /* \"#utility.yul\":29238:29244   */\n      dup3\n        /* \"#utility.yul\":29234:29248   */\n      add\n        /* \"#utility.yul\":29227:29265   */\n      mstore\n        /* \"#utility.yul\":29110:29272   */\n      pop\n      jump\t// out\n        /* \"#utility.yul\":29278:29644   */\n    tag_424:\n        /* \"#utility.yul\":29420:29423   */\n      0x00\n        /* \"#utility.yul\":29441:29508   */\n      tag_714\n        /* \"#utility.yul\":29505:29507   */\n      0x0c\n        /* \"#utility.yul\":29500:29503   */\n      dup4\n        /* \"#utility.yul\":29441:29508   */\n      tag_382\n      jump\t// in\n    tag_714:\n        /* \"#utility.yul\":29434:29508   */\n      swap2\n      pop\n        /* \"#utility.yul\":29517:29610   */\n      tag_715\n        /* \"#utility.yul\":29606:29609   */\n      dup3\n        /* \"#utility.yul\":29517:29610   */\n      tag_423\n      jump\t// in\n    tag_715:\n        /* \"#utility.yul\":29635:29637   */\n      0x20\n        /* \"#utility.yul\":29630:29633   */\n      dup3\n        /* \"#utility.yul\":29626:29638   */\n      add\n        /* \"#utility.yul\":29619:29638   */\n      swap1\n      pop\n        /* \"#utility.yul\":29278:29644   */\n      swap2\n      swap1\n      pop\n      jump\t// out\n        /* \"#utility.yul\":29650:30069   */\n    tag_229:\n        /* \"#utility.yul\":29816:29820   */\n      0x00\n        /* \"#utility.yul\":29854:29856   */\n      0x20\n        /* \"#utility.yul\":29843:29852   */\n      dup3\n        /* \"#utility.yul\":29839:29857   */\n      add\n        /* \"#utility.yul\":29831:29857   */\n      swap1\n      pop\n        /* \"#utility.yul\":29903:29912   */\n      dup2\n        /* \"#utility.yul\":29897:29901   */\n      dup2\n        /* \"#utility.yul\":29893:29913   */\n      sub\n        /* \"#utility.yul\":29889:29890   */\n      0x00\n        /* \"#utility.yul\":29878:29887   */\n      dup4\n        /* \"#utility.yul\":29874:29891   */\n      add\n        /* \"#utility.yul\":29867:29914   */\n      mstore\n        /* \"#utility.yul\":29931:30062   */\n      tag_717\n        /* \"#utility.yul\":30057:30061   */\n      dup2\n        /* \"#utility.yul\":29931:30062   */\n      tag_424\n      jump\t// in\n    tag_717:\n        /* \"#utility.yul\":29923:30062   */\n      swap1\n      pop\n        /* \"#utility.yul\":29650:30069   */\n      swap2\n      swap1\n      pop\n      jump\t// out\n        /* \"#utility.yul\":30075:30297   */\n    tag_240:\n        /* \"#utility.yul\":30168:30172   */\n      0x00\n        /* \"#utility.yul\":30206:30208   */\n      0x20\n        /* \"#utility.yul\":30195:30204   */\n      dup3\n        /* \"#utility.yul\":30191:30209   */\n      add\n        /* \"#utility.yul\":30183:30209   */\n      swap1\n      pop\n        /* \"#utility.yul\":30219:30290   */\n      tag_719\n        /* \"#utility.yul\":30287:30288   */\n      0x00\n        /* \"#utility.yul\":30276:30285   */\n      dup4\n        /* \"#utility.yul\":30272:30289   */\n      add\n        /* \"#utility.yul\":30263:30269   */\n      dup5\n        /* \"#utility.yul\":30219:30290   */\n      tag_374\n      jump\t// in\n    tag_719:\n        /* \"#utility.yul\":30075:30297   */\n      swap3\n      swap2\n      pop\n      pop\n      jump\t// out\n        /* \"#utility.yul\":30303:30549   */\n    tag_242:\n        /* \"#utility.yul\":30408:30412   */\n      0x00\n        /* \"#utility.yul\":30446:30448   */\n      0x20\n        /* \"#utility.yul\":30435:30444   */\n      dup3\n        /* \"#utility.yul\":30431:30449   */\n      add\n        /* \"#utility.yul\":30423:30449   */\n      swap1\n      pop\n        /* \"#utility.yul\":30459:30542   */\n      tag_721\n        /* \"#utility.yul\":30539:30540   */\n      0x00\n        /* \"#utility.yul\":30528:30537   */\n      dup4\n        /* \"#utility.yul\":30524:30541   */\n      add\n        /* \"#utility.yul\":30515:30521   */\n      dup5\n        /* \"#utility.yul\":30459:30542   */\n      tag_378\n      jump\t// in\n    tag_721:\n        /* \"#utility.yul\":30303:30549   */\n      swap3\n      swap2\n      pop\n      pop\n      jump\t// out\n        /* \"#utility.yul\":30555:30735   */\n    tag_425:\n        /* \"#utility.yul\":30603:30680   */\n      0x4e487b7100000000000000000000000000000000000000000000000000000000\n        /* \"#utility.yul\":30600:30601   */\n      0x00\n        /* \"#utility.yul\":30593:30681   */\n      mstore\n        /* \"#utility.yul\":30700:30704   */\n      0x22\n        /* \"#utility.yul\":30697:30698   */\n      0x04\n        /* \"#utility.yul\":30690:30705   */\n      mstore\n        /* \"#utility.yul\":30724:30728   */\n      0x24\n        /* \"#utility.yul\":30721:30722   */\n      0x00\n        /* \"#utility.yul\":30714:30729   */\n      revert\n        /* \"#utility.yul\":30741:31061   */\n    tag_244:\n        /* \"#utility.yul\":30785:30791   */\n      0x00\n        /* \"#utility.yul\":30822:30823   */\n      0x02\n        /* \"#utility.yul\":30816:30820   */\n      dup3\n        /* \"#utility.yul\":30812:30824   */\n      div\n        /* \"#utility.yul\":30802:30824   */\n      swap1\n      pop\n        /* \"#utility.yul\":30869:30870   */\n      0x01\n        /* \"#utility.yul\":30863:30867   */\n      dup3\n        /* \"#utility.yul\":30859:30871   */\n      and\n        /* \"#utility.yul\":30890:30908   */\n      dup1\n        /* \"#utility.yul\":30880:30961   */\n      tag_724\n      jumpi\n        /* \"#utility.yul\":30946:30950   */\n      0x7f\n        /* \"#utility.yul\":30938:30944   */\n      dup3\n        /* \"#utility.yul\":30934:30951   */\n      and\n        /* \"#utility.yul\":30924:30951   */\n      swap2\n      pop\n        /* \"#utility.yul\":30880:30961   */\n    tag_724:\n        /* \"#utility.yul\":31008:31010   */\n      0x20\n        /* \"#utility.yul\":31000:31006   */\n      dup3\n        /* \"#utility.yul\":30997:31011   */\n      lt\n        /* \"#utility.yul\":30977:30995   */\n      dup2\n        /* \"#utility.yul\":30974:31012   */\n      sub\n        /* \"#utility.yul\":30971:31055   */\n      tag_725\n      jumpi\n        /* \"#utility.yul\":31027:31045   */\n      tag_726\n      tag_425\n      jump\t// in\n    tag_726:\n        /* \"#utility.yul\":30971:31055   */\n    tag_725:\n        /* \"#utility.yul\":30792:31061   */\n      pop\n        /* \"#utility.yul\":30741:31061   */\n      swap2\n      swap1\n      pop\n      jump\t// out\n        /* \"#utility.yul\":31067:31226   */\n    tag_426:\n        /* \"#utility.yul\":31207:31218   */\n      0x4e6f742061646d696e0000000000000000000000000000000000000000000000\n        /* \"#utility.yul\":31203:31204   */\n      0x00\n        /* \"#utility.yul\":31195:31201   */\n      dup3\n        /* \"#utility.yul\":31191:31205   */\n      add\n        /* \"#utility.yul\":31184:31219   */\n      mstore\n        /* \"#utility.yul\":31067:31226   */\n      pop\n      jump\t// out\n        /* \"#utility.yul\":31232:31597   */\n    tag_427:\n        /* \"#utility.yul\":31374:31377   */\n      0x00\n        /* \"#utility.yul\":31395:31461   */\n      tag_729\n        /* \"#utility.yul\":31459:31460   */\n      0x09\n        /* \"#utility.yul\":31454:31457   */\n      dup4\n        /* \"#utility.yul\":31395:31461   */\n      tag_382\n      jump\t// in\n    tag_729:\n        /* \"#utility.yul\":31388:31461   */\n      swap2\n      pop\n        /* \"#utility.yul\":31470:31563   */\n      tag_730\n        /* \"#utility.yul\":31559:31562   */\n      dup3\n        /* \"#utility.yul\":31470:31563   */\n      tag_426\n      jump\t// in\n    tag_730:\n        /* \"#utility.yul\":31588:31590   */\n      0x20\n        /* \"#utility.yul\":31583:31586   */\n      dup3\n        /* \"#utility.yul\":31579:31591   */\n      add\n        /* \"#utility.yul\":31572:31591   */\n      swap1\n      pop\n        /* \"#utility.yul\":31232:31597   */\n      swap2\n      swap1\n      pop\n      jump\t// out\n        /* \"#utility.yul\":31603:32022   */\n    tag_291:\n        /* \"#utility.yul\":31769:31773   */\n      0x00\n        /* \"#utility.yul\":31807:31809   */\n      0x20\n        /* \"#utility.yul\":31796:31805   */\n      dup3\n        /* \"#utility.yul\":31792:31810   */\n      add\n        /* \"#utility.yul\":31784:31810   */\n      swap1\n      pop\n        /* \"#utility.yul\":31856:31865   */\n      dup2\n        /* \"#utility.yul\":31850:31854   */\n      dup2\n        /* \"#utility.yul\":31846:31866   */\n      sub\n        /* \"#utility.yul\":31842:31843   */\n      0x00\n        /* \"#utility.yul\":31831:31840   */\n      dup4\n        /* \"#utility.yul\":31827:31844   */\n      add\n        /* \"#utility.yul\":31820:31867   */\n      mstore\n        /* \"#utility.yul\":31884:32015   */\n      tag_732\n        /* \"#utility.yul\":32010:32014   */\n      dup2\n        /* \"#utility.yul\":31884:32015   */\n      tag_427\n      jump\t// in\n    tag_732:\n        /* \"#utility.yul\":31876:32015   */\n      swap1\n      pop\n        /* \"#utility.yul\":31603:32022   */\n      swap2\n      swap1\n      pop\n      jump\t// out\n        /* \"#utility.yul\":32028:32192   */\n    tag_428:\n        /* \"#utility.yul\":32168:32184   */\n      0x55736572206e6f7420666f756e64000000000000000000000000000000000000\n        /* \"#utility.yul\":32164:32165   */\n      0x00\n        /* \"#utility.yul\":32156:32162   */\n      dup3\n        /* \"#utility.yul\":32152:32166   */\n      add\n        /* \"#utility.yul\":32145:32185   */\n      mstore\n        /* \"#utility.yul\":32028:32192   */\n      pop\n      jump\t// out\n        /* \"#utility.yul\":32198:32564   */\n    tag_429:\n        /* \"#utility.yul\":32340:32343   */\n      0x00\n        /* \"#utility.yul\":32361:32428   */\n      tag_735\n        /* \"#utility.yul\":32425:32427   */\n      0x0e\n        /* \"#utility.yul\":32420:32423   */\n      dup4\n        /* \"#utility.yul\":32361:32428   */\n      tag_382\n      jump\t// in\n    tag_735:\n        /* \"#utility.yul\":32354:32428   */\n      swap2\n      pop\n        /* \"#utility.yul\":32437:32530   */\n      tag_736\n        /* \"#utility.yul\":32526:32529   */\n      dup3\n        /* \"#utility.yul\":32437:32530   */\n      tag_428\n      jump\t// in\n    tag_736:\n        /* \"#utility.yul\":32555:32557   */\n      0x20\n        /* \"#utility.yul\":32550:32553   */\n      dup3\n        /* \"#utility.yul\":32546:32558   */\n      add\n        /* \"#utility.yul\":32539:32558   */\n      swap1\n      pop\n        /* \"#utility.yul\":32198:32564   */\n      swap2\n      swap1\n      pop\n      jump\t// out\n        /* \"#utility.yul\":32570:32989   */\n    tag_295:\n        /* \"#utility.yul\":32736:32740   */\n      0x00\n        /* \"#utility.yul\":32774:32776   */\n      0x20\n        /* \"#utility.yul\":32763:32772   */\n      dup3\n        /* \"#utility.yul\":32759:32777   */\n      add\n        /* \"#utility.yul\":32751:32777   */\n      swap1\n      pop\n        /* \"#utility.yul\":32823:32832   */\n      dup2\n        /* \"#utility.yul\":32817:32821   */\n      dup2\n        /* \"#utility.yul\":32813:32833   */\n      sub\n        /* \"#utility.yul\":32809:32810   */\n      0x00\n        /* \"#utility.yul\":32798:32807   */\n      dup4\n        /* \"#utility.yul\":32794:32811   */\n      add\n        /* \"#utility.yul\":32787:32834   */\n      mstore\n        /* \"#utility.yul\":32851:32982   */\n      tag_738\n        /* \"#utility.yul\":32977:32981   */\n      dup2\n        /* \"#utility.yul\":32851:32982   */\n      tag_429\n      jump\t// in\n    tag_738:\n        /* \"#utility.yul\":32843:32982   */\n      swap1\n      pop\n        /* \"#utility.yul\":32570:32989   */\n      swap2\n      swap1\n      pop\n      jump\t// out\n        /* \"#utility.yul\":32995:33155   */\n    tag_430:\n        /* \"#utility.yul\":33135:33147   */\n      0x4e616d6520656d70747900000000000000000000000000000000000000000000\n        /* \"#utility.yul\":33131:33132   */\n      0x00\n        /* \"#utility.yul\":33123:33129   */\n      dup3\n        /* \"#utility.yul\":33119:33133   */\n      add\n        /* \"#utility.yul\":33112:33148   */\n      mstore\n        /* \"#utility.yul\":32995:33155   */\n      pop\n      jump\t// out\n        /* \"#utility.yul\":33161:33527   */\n    tag_431:\n        /* \"#utility.yul\":33303:33306   */\n      0x00\n        /* \"#utility.yul\":33324:33391   */\n      tag_741\n        /* \"#utility.yul\":33388:33390   */\n      0x0a\n        /* \"#utility.yul\":33383:33386   */\n      dup4\n        /* \"#utility.yul\":33324:33391   */\n      tag_382\n      jump\t// in\n    tag_741:\n        /* \"#utility.yul\":33317:33391   */\n      swap2\n      pop\n        /* \"#utility.yul\":33400:33493   */\n      tag_742\n        /* \"#utility.yul\":33489:33492   */\n      dup3\n        /* \"#utility.yul\":33400:33493   */\n      tag_430\n      jump\t// in\n    tag_742:\n        /* \"#utility.yul\":33518:33520   */\n      0x20\n        /* \"#utility.yul\":33513:33516   */\n      dup3\n        /* \"#utility.yul\":33509:33521   */\n      add\n        /* \"#utility.yul\":33502:33521   */\n      swap1\n      pop\n        /* \"#utility.yul\":33161:33527   */\n      swap2\n      swap1\n      pop\n      jump\t// out\n        /* \"#utility.yul\":33533:33952   */\n    tag_310:\n        /* \"#utility.yul\":33699:33703   */\n      0x00\n        /* \"#utility.yul\":33737:33739   */\n      0x20\n        /* \"#utility.yul\":33726:33735   */\n      dup3\n        /* \"#utility.yul\":33722:33740   */\n      add\n        /* \"#utility.yul\":33714:33740   */\n      swap1\n      pop\n        /* \"#utility.yul\":33786:33795   */\n      dup2\n        /* \"#utility.yul\":33780:33784   */\n      dup2\n        /* \"#utility.yul\":33776:33796   */\n      sub\n        /* \"#utility.yul\":33772:33773   */\n      0x00\n        /* \"#utility.yul\":33761:33770   */\n      dup4\n        /* \"#utility.yul\":33757:33774   */\n      add\n        /* \"#utility.yul\":33750:33797   */\n      mstore\n        /* \"#utility.yul\":33814:33945   */\n      tag_744\n        /* \"#utility.yul\":33940:33944   */\n      dup2\n        /* \"#utility.yul\":33814:33945   */\n      tag_431\n      jump\t// in\n    tag_744:\n        /* \"#utility.yul\":33806:33945   */\n      swap1\n      pop\n        /* \"#utility.yul\":33533:33952   */\n      swap2\n      swap1\n      pop\n      jump\t// out\n        /* \"#utility.yul\":33958:34055   */\n    tag_432:\n        /* \"#utility.yul\":34017:34023   */\n      0x00\n        /* \"#utility.yul\":34045:34048   */\n      dup3\n        /* \"#utility.yul\":34035:34048   */\n      swap1\n      pop\n        /* \"#utility.yul\":33958:34055   */\n      swap3\n      swap2\n      pop\n      pop\n      jump\t// out\n        /* \"#utility.yul\":34061:34202   */\n    tag_433:\n        /* \"#utility.yul\":34110:34114   */\n      0x00\n        /* \"#utility.yul\":34133:34136   */\n      dup2\n        /* \"#utility.yul\":34125:34136   */\n      swap1\n      pop\n        /* \"#utility.yul\":34156:34159   */\n      dup2\n        /* \"#utility.yul\":34153:34154   */\n      0x00\n        /* \"#utility.yul\":34146:34160   */\n      mstore\n        /* \"#utility.yul\":34190:34194   */\n      0x20\n        /* \"#utility.yul\":34187:34188   */\n      0x00\n        /* \"#utility.yul\":34177:34195   */\n      keccak256\n        /* \"#utility.yul\":34169:34195   */\n      swap1\n      pop\n        /* \"#utility.yul\":34061:34202   */\n      swap2\n      swap1\n      pop\n      jump\t// out\n        /* \"#utility.yul\":34208:34301   */\n    tag_434:\n        /* \"#utility.yul\":34245:34251   */\n      0x00\n        /* \"#utility.yul\":34292:34294   */\n      0x20\n        /* \"#utility.yul\":34287:34289   */\n      0x1f\n        /* \"#utility.yul\":34280:34285   */\n      dup4\n        /* \"#utility.yul\":34276:34290   */\n      add\n        /* \"#utility.yul\":34272:34295   */\n      div\n        /* \"#utility.yul\":34262:34295   */\n      swap1\n      pop\n        /* \"#utility.yul\":34208:34301   */\n      swap2\n      swap1\n      pop\n      jump\t// out\n        /* \"#utility.yul\":34307:34414   */\n    tag_435:\n        /* \"#utility.yul\":34351:34359   */\n      0x00\n        /* \"#utility.yul\":34401:34406   */\n      dup3\n        /* \"#utility.yul\":34395:34399   */\n      dup3\n        /* \"#utility.yul\":34391:34407   */\n      shl\n        /* \"#utility.yul\":34370:34407   */\n      swap1\n      pop\n        /* \"#utility.yul\":34307:34414   */\n      swap3\n      swap2\n      pop\n      pop\n      jump\t// out\n        /* \"#utility.yul\":34420:34813   */\n    tag_436:\n        /* \"#utility.yul\":34489:34495   */\n      0x00\n        /* \"#utility.yul\":34539:34540   */\n      0x08\n        /* \"#utility.yul\":34527:34537   */\n      dup4\n        /* \"#utility.yul\":34523:34541   */\n      mul\n        /* \"#utility.yul\":34562:34659   */\n      tag_750\n        /* \"#utility.yul\":34592:34658   */\n      0xffffffffffffffffffffffffffffffffffffffffffffffffffffffffffffffff\n        /* \"#utility.yul\":34581:34590   */\n      dup3\n        /* \"#utility.yul\":34562:34659   */\n      tag_435\n      jump\t// in\n    tag_750:\n        /* \"#utility.yul\":34680:34719   */\n      tag_751\n        /* \"#utility.yul\":34710:34718   */\n      dup7\n        /* \"#utility.yul\":34699:34708   */\n      dup4\n        /* \"#utility.yul\":34680:34719   */\n      tag_435\n      jump\t// in\n    tag_751:\n        /* \"#utility.yul\":34668:34719   */\n      swap6\n      pop\n        /* \"#utility.yul\":34752:34756   */\n      dup1\n        /* \"#utility.yul\":34748:34757   */\n      not\n        /* \"#utility.yul\":34741:34746   */\n      dup5\n        /* \"#utility.yul\":34737:34758   */\n      and\n        /* \"#utility.yul\":34728:34758   */\n      swap4\n      pop\n        /* \"#utility.yul\":34801:34805   */\n      dup1\n        /* \"#utility.yul\":34791:34799   */\n      dup7\n        /* \"#utility.yul\":34787:34806   */\n      and\n        /* \"#utility.yul\":34780:34785   */\n      dup5\n        /* \"#utility.yul\":34777:34807   */\n      or\n        /* \"#utility.yul\":34767:34807   */\n      swap3\n      pop\n        /* \"#utility.yul\":34496:34813   */\n      pop\n      pop\n        /* \"#utility.yul\":34420:34813   */\n      swap4\n      swap3\n      pop\n      pop\n      pop\n      jump\t// out\n        /* \"#utility.yul\":34819:34879   */\n    tag_437:\n        /* \"#utility.yul\":34847:34850   */\n      0x00\n        /* \"#utility.yul\":34868:34873   */\n      dup2\n        /* \"#utility.yul\":34861:34873   */\n      swap1\n      pop\n        /* \"#utility.yul\":34819:34879   */\n      swap2\n      swap1\n      pop\n      jump\t// out\n        /* \"#utility.yul\":34885:35027   */\n    tag_438:\n        /* \"#utility.yul\":34935:34944   */\n      0x00\n        /* \"#utility.yul\":34968:35021   */\n      tag_754\n        /* \"#utility.yul\":34986:35020   */\n      tag_755\n        /* \"#utility.yul\":34995:35019   */\n      tag_756\n        /* \"#utility.yul\":35013:35018   */\n      dup5\n        /* \"#utility.yul\":34995:35019   */\n      tag_361\n      jump\t// in\n    tag_756:\n        /* \"#utility.yul\":34986:35020   */\n      tag_437\n      jump\t// in\n    tag_755:\n        /* \"#utility.yul\":34968:35021   */\n      tag_361\n      jump\t// in\n    tag_754:\n        /* \"#utility.yul\":34955:35021   */\n      swap1\n      pop\n        /* \"#utility.yul\":34885:35027   */\n      swap2\n      swap1\n      pop\n      jump\t// out\n        /* \"#utility.yul\":35033:35108   */\n    tag_439:\n        /* \"#utility.yul\":35076:35079   */\n      0x00\n        /* \"#utility.yul\":35097:35102   */\n      dup2\n        /* \"#utility.yul\":35090:35102   */\n      swap1\n      pop\n        /* \"#utility.yul\":35033:35108   */\n      swap2\n      swap1\n      pop\n      jump\t// out\n        /* \"#utility.yul\":35114:35383   */\n    tag_440:\n        /* \"#utility.yul\":35224:35263   */\n      tag_759\n        /* \"#utility.yul\":35255:35262   */\n      dup4\n        /* \"#utility.yul\":35224:35263   */\n      tag_438\n      jump\t// in\n    tag_759:\n        /* \"#utility.yul\":35285:35376   */\n      tag_760\n        /* \"#utility.yul\":35334:35375   */\n      tag_761\n        /* \"#utility.yul\":35358:35374   */\n      dup3\n        /* \"#utility.yul\":35334:35375   */\n      tag_439\n      jump\t// in\n    tag_761:\n        /* \"#utility.yul\":35326:35332   */\n      dup5\n        /* \"#utility.yul\":35319:35323   */\n      dup5\n        /* \"#utility.yul\":35313:35324   */\n      sload\n        /* \"#utility.yul\":35285:35376   */\n      tag_436\n      jump\t// in\n    tag_760:\n        /* \"#utility.yul\":35279:35283   */\n      dup3\n        /* \"#utility.yul\":35272:35377   */\n      sstore\n        /* \"#utility.yul\":35190:35383   */\n      pop\n        /* \"#utility.yul\":35114:35383   */\n      pop\n      pop\n      pop\n      jump\t// out\n        /* \"#utility.yul\":35389:35462   */\n    tag_441:\n        /* \"#utility.yul\":35434:35437   */\n      0x00\n        /* \"#utility.yul\":35455:35456   */\n      0x00\n        /* \"#utility.yul\":35448:35456   */\n      swap1\n      pop\n        /* \"#utility.yul\":35389:35462   */\n      swap1\n      jump\t// out\n        /* \"#utility.yul\":35468:35657   */\n    tag_442:\n        /* \"#utility.yul\":35545:35577   */\n      tag_764\n      tag_441\n      jump\t// in\n    tag_764:\n        /* \"#utility.yul\":35586:35651   */\n      tag_765\n        /* \"#utility.yul\":35644:35650   */\n      dup2\n        /* \"#utility.yul\":35636:35642   */\n      dup5\n        /* \"#utility.yul\":35630:35634   */\n      dup5\n        /* \"#utility.yul\":35586:35651   */\n      tag_440\n      jump\t// in\n    tag_765:\n        /* \"#utility.yul\":35521:35657   */\n      pop\n        /* \"#utility.yul\":35468:35657   */\n      pop\n      pop\n      jump\t// out\n        /* \"#utility.yul\":35663:35849   */\n    tag_443:\n        /* \"#utility.yul\":35723:35843   */\n    tag_767:\n        /* \"#utility.yul\":35740:35743   */\n      dup2\n        /* \"#utility.yul\":35733:35738   */\n      dup2\n        /* \"#utility.yul\":35730:35744   */\n      lt\n        /* \"#utility.yul\":35723:35843   */\n      iszero\n      tag_769\n      jumpi\n        /* \"#utility.yul\":35794:35833   */\n      tag_770\n        /* \"#utility.yul\":35831:35832   */\n      0x00\n        /* \"#utility.yul\":35824:35829   */\n      dup3\n        /* \"#utility.yul\":35794:35833   */\n      tag_442\n      jump\t// in\n    tag_770:\n        /* \"#utility.yul\":35767:35768   */\n      0x01\n        /* \"#utility.yul\":35760:35765   */\n      dup2\n        /* \"#utility.yul\":35756:35769   */\n      add\n        /* \"#utility.yul\":35747:35769   */\n      swap1\n      pop\n        /* \"#utility.yul\":35723:35843   */\n      jump(tag_767)\n    tag_769:\n        /* \"#utility.yul\":35663:35849   */\n      pop\n      pop\n      jump\t// out\n        /* \"#utility.yul\":35855:36398   */\n    tag_444:\n        /* \"#utility.yul\":35956:35958   */\n      0x1f\n        /* \"#utility.yul\":35951:35954   */\n      dup3\n        /* \"#utility.yul\":35948:35959   */\n      gt\n        /* \"#utility.yul\":35945:36391   */\n      iszero\n      tag_772\n      jumpi\n        /* \"#utility.yul\":35990:36028   */\n      tag_773\n        /* \"#utility.yul\":36022:36027   */\n      dup2\n        /* \"#utility.yul\":35990:36028   */\n      tag_433\n      jump\t// in\n    tag_773:\n        /* \"#utility.yul\":36074:36103   */\n      tag_774\n        /* \"#utility.yul\":36092:36102   */\n      dup5\n        /* \"#utility.yul\":36074:36103   */\n      tag_434\n      jump\t// in\n    tag_774:\n        /* \"#utility.yul\":36064:36072   */\n      dup2\n        /* \"#utility.yul\":36060:36104   */\n      add\n        /* \"#utility.yul\":36257:36259   */\n      0x20\n        /* \"#utility.yul\":36245:36255   */\n      dup6\n        /* \"#utility.yul\":36242:36260   */\n      lt\n        /* \"#utility.yul\":36239:36288   */\n      iszero\n      tag_775\n      jumpi\n        /* \"#utility.yul\":36278:36286   */\n      dup2\n        /* \"#utility.yul\":36263:36286   */\n      swap1\n      pop\n        /* \"#utility.yul\":36239:36288   */\n    tag_775:\n        /* \"#utility.yul\":36301:36381   */\n      tag_776\n        /* \"#utility.yul\":36357:36379   */\n      tag_777\n        /* \"#utility.yul\":36375:36378   */\n      dup6\n        /* \"#utility.yul\":36357:36379   */\n      tag_434\n      jump\t// in\n    tag_777:\n        /* \"#utility.yul\":36347:36355   */\n      dup4\n        /* \"#utility.yul\":36343:36380   */\n      add\n        /* \"#utility.yul\":36330:36341   */\n      dup3\n        /* \"#utility.yul\":36301:36381   */\n      tag_443\n      jump\t// in\n    tag_776:\n        /* \"#utility.yul\":35960:36391   */\n      pop\n      pop\n        /* \"#utility.yul\":35945:36391   */\n    tag_772:\n        /* \"#utility.yul\":35855:36398   */\n      pop\n      pop\n      pop\n      jump\t// out\n        /* \"#utility.yul\":36404:36521   */\n    tag_445:\n        /* \"#utility.yul\":36458:36466   */\n      0x00\n        /* \"#utility.yul\":36508:36513   */\n      dup3\n        /* \"#utility.yul\":36502:36506   */\n      dup3\n        /* \"#utility.yul\":36498:36514   */\n      shr\n        /* \"#utility.yul\":36477:36514   */\n      swap1\n      pop\n        /* \"#utility.yul\":36404:36521   */\n      swap3\n      swap2\n      pop\n      pop\n      jump\t// out\n        /* \"#utility.yul\":36527:36696   */\n    tag_446:\n        /* \"#utility.yul\":36571:36577   */\n      0x00\n        /* \"#utility.yul\":36604:36655   */\n      tag_780\n        /* \"#utility.yul\":36652:36653   */\n      0x00\n        /* \"#utility.yul\":36648:36654   */\n      not\n        /* \"#utility.yul\":36640:36645   */\n      dup5\n        /* \"#utility.yul\":36637:36638   */\n      0x08\n        /* \"#utility.yul\":36633:36646   */\n      mul\n        /* \"#utility.yul\":36604:36655   */\n      tag_445\n      jump\t// in\n    tag_780:\n        /* \"#utility.yul\":36600:36656   */\n      not\n        /* \"#utility.yul\":36685:36689   */\n      dup1\n        /* \"#utility.yul\":36679:36683   */\n      dup4\n        /* \"#utility.yul\":36675:36690   */\n      and\n        /* \"#utility.yul\":36665:36690   */\n      swap2\n      pop\n        /* \"#utility.yul\":36578:36696   */\n      pop\n        /* \"#utility.yul\":36527:36696   */\n      swap3\n      swap2\n      pop\n      pop\n      jump\t// out\n        /* \"#utility.yul\":36701:36996   */\n    tag_447:\n        /* \"#utility.yul\":36777:36781   */\n      0x00\n        /* \"#utility.yul\":36923:36952   */\n      tag_782\n        /* \"#utility.yul\":36948:36951   */\n      dup4\n        /* \"#utility.yul\":36942:36946   */\n      dup4\n        /* \"#utility.yul\":36923:36952   */\n      tag_446\n      jump\t// in\n    tag_782:\n        /* \"#utility.yul\":36915:36952   */\n      swap2\n      pop\n        /* \"#utility.yul\":36985:36988   */\n      dup3\n        /* \"#utility.yul\":36982:36983   */\n      0x02\n        /* \"#utility.yul\":36978:36989   */\n      mul\n        /* \"#utility.yul\":36972:36976   */\n      dup3\n        /* \"#utility.yul\":36969:36990   */\n      or\n        /* \"#utility.yul\":36961:36990   */\n      swap1\n      pop\n        /* \"#utility.yul\":36701:36996   */\n      swap3\n      swap2\n      pop\n      pop\n      jump\t// out\n        /* \"#utility.yul\":37001:38404   */\n    tag_313:\n        /* \"#utility.yul\":37125:37169   */\n      tag_784\n        /* \"#utility.yul\":37165:37168   */\n      dup4\n        /* \"#utility.yul\":37160:37163   */\n      dup4\n        /* \"#utility.yul\":37125:37169   */\n      tag_432\n      jump\t// in\n    tag_784:\n        /* \"#utility.yul\":37234:37252   */\n      0xffffffffffffffff\n        /* \"#utility.yul\":37226:37232   */\n      dup2\n        /* \"#utility.yul\":37223:37253   */\n      gt\n        /* \"#utility.yul\":37220:37276   */\n      iszero\n      tag_785\n      jumpi\n        /* \"#utility.yul\":37256:37274   */\n      tag_786\n      tag_205\n      jump\t// in\n    tag_786:\n        /* \"#utility.yul\":37220:37276   */\n    tag_785:\n        /* \"#utility.yul\":37300:37338   */\n      tag_787\n        /* \"#utility.yul\":37332:37336   */\n      dup3\n        /* \"#utility.yul\":37326:37337   */\n      sload\n        /* \"#utility.yul\":37300:37338   */\n      tag_244\n      jump\t// in\n    tag_787:\n        /* \"#utility.yul\":37385:37452   */\n      tag_788\n        /* \"#utility.yul\":37445:37451   */\n      dup3\n        /* \"#utility.yul\":37437:37443   */\n      dup3\n        /* \"#utility.yul\":37431:37435   */\n      dup6\n        /* \"#utility.yul\":37385:37452   */\n      tag_444\n      jump\t// in\n    tag_788:\n        /* \"#utility.yul\":37479:37480   */\n      0x00\n        /* \"#utility.yul\":37508:37510   */\n      0x1f\n        /* \"#utility.yul\":37500:37506   */\n      dup4\n        /* \"#utility.yul\":37497:37511   */\n      gt\n        /* \"#utility.yul\":37525:37526   */\n      0x01\n        /* \"#utility.yul\":37520:38152   */\n      dup2\n      eq\n      tag_790\n      jumpi\n        /* \"#utility.yul\":38196:38197   */\n      0x00\n        /* \"#utility.yul\":38213:38219   */\n      dup5\n        /* \"#utility.yul\":38210:38294   */\n      iszero\n      tag_791\n      jumpi\n        /* \"#utility.yul\":38269:38278   */\n      dup3\n        /* \"#utility.yul\":38264:38267   */\n      dup8\n        /* \"#utility.yul\":38260:38279   */\n      add\n        /* \"#utility.yul\":38247:38280   */\n      calldataload\n        /* \"#utility.yul\":38238:38280   */\n      swap1\n      pop\n        /* \"#utility.yul\":38210:38294   */\n    tag_791:\n        /* \"#utility.yul\":38320:38387   */\n      tag_792\n        /* \"#utility.yul\":38380:38386   */\n      dup6\n        /* \"#utility.yul\":38373:38378   */\n      dup3\n        /* \"#utility.yul\":38320:38387   */\n      tag_447\n      jump\t// in\n    tag_792:\n        /* \"#utility.yul\":38314:38318   */\n      dup7\n        /* \"#utility.yul\":38307:38388   */\n      sstore\n        /* \"#utility.yul\":38169:38398   */\n      pop\n        /* \"#utility.yul\":37490:38398   */\n      jump(tag_789)\n        /* \"#utility.yul\":37520:38152   */\n    tag_790:\n        /* \"#utility.yul\":37572:37576   */\n      0x1f\n        /* \"#utility.yul\":37568:37577   */\n      not\n        /* \"#utility.yul\":37560:37566   */\n      dup5\n        /* \"#utility.yul\":37556:37578   */\n      and\n        /* \"#utility.yul\":37606:37643   */\n      tag_793\n        /* \"#utility.yul\":37638:37642   */\n      dup7\n        /* \"#utility.yul\":37606:37643   */\n      tag_433\n      jump\t// in\n    tag_793:\n        /* \"#utility.yul\":37665:37666   */\n      0x00\n        /* \"#utility.yul\":37679:37894   */\n    tag_794:\n        /* \"#utility.yul\":37693:37700   */\n      dup3\n        /* \"#utility.yul\":37690:37691   */\n      dup2\n        /* \"#utility.yul\":37687:37701   */\n      lt\n        /* \"#utility.yul\":37679:37894   */\n      iszero\n      tag_796\n      jumpi\n        /* \"#utility.yul\":37779:37788   */\n      dup5\n        /* \"#utility.yul\":37774:37777   */\n      dup10\n        /* \"#utility.yul\":37770:37789   */\n      add\n        /* \"#utility.yul\":37757:37790   */\n      calldataload\n        /* \"#utility.yul\":37749:37755   */\n      dup3\n        /* \"#utility.yul\":37742:37791   */\n      sstore\n        /* \"#utility.yul\":37830:37831   */\n      0x01\n        /* \"#utility.yul\":37822:37828   */\n      dup3\n        /* \"#utility.yul\":37818:37832   */\n      add\n        /* \"#utility.yul\":37808:37832   */\n      swap2\n      pop\n        /* \"#utility.yul\":37877:37879   */\n      0x20\n        /* \"#utility.yul\":37866:37875   */\n      dup6\n        /* \"#utility.yul\":37862:37880   */\n      add\n        /* \"#utility.yul\":37849:37880   */\n      swap5\n      pop\n        /* \"#utility.yul\":37716:37720   */\n      0x20\n        /* \"#utility.yul\":37713:37714   */\n      dup2\n        /* \"#utility.yul\":37709:37721   */\n      add\n        /* \"#utility.yul\":37704:37721   */\n      swap1\n      pop\n        /* \"#utility.yul\":37679:37894   */\n      jump(tag_794)\n    tag_796:\n        /* \"#utility.yul\":37922:37928   */\n      dup7\n        /* \"#utility.yul\":37913:37920   */\n      dup4\n        /* \"#utility.yul\":37910:37929   */\n      lt\n        /* \"#utility.yul\":37907:38093   */\n      iszero\n      tag_797\n      jumpi\n        /* \"#utility.yul\":37987:37996   */\n      dup5\n        /* \"#utility.yul\":37982:37985   */\n      dup10\n        /* \"#utility.yul\":37978:37997   */\n      add\n        /* \"#utility.yul\":37965:37998   */\n      calldataload\n        /* \"#utility.yul\":38030:38078   */\n      tag_798\n        /* \"#utility.yul\":38072:38076   */\n      0x1f\n        /* \"#utility.yul\":38064:38070   */\n      dup10\n        /* \"#utility.yul\":38060:38077   */\n      and\n        /* \"#utility.yul\":38049:38058   */\n      dup3\n        /* \"#utility.yul\":38030:38078   */\n      tag_446\n      jump\t// in\n    tag_798:\n        /* \"#utility.yul\":38022:38028   */\n      dup4\n        /* \"#utility.yul\":38015:38079   */\n      sstore\n        /* \"#utility.yul\":37930:38093   */\n      pop\n        /* \"#utility.yul\":37907:38093   */\n    tag_797:\n        /* \"#utility.yul\":38139:38140   */\n      0x01\n        /* \"#utility.yul\":38135:38136   */\n      0x02\n        /* \"#utility.yul\":38127:38133   */\n      dup9\n        /* \"#utility.yul\":38123:38137   */\n      mul\n        /* \"#utility.yul\":38119:38141   */\n      add\n        /* \"#utility.yul\":38113:38117   */\n      dup9\n        /* \"#utility.yul\":38106:38142   */\n      sstore\n        /* \"#utility.yul\":37527:38152   */\n      pop\n      pop\n      pop\n        /* \"#utility.yul\":37490:38398   */\n    tag_789:\n      pop\n        /* \"#utility.yul\":37100:38404   */\n      pop\n      pop\n      pop\n        /* \"#utility.yul\":37001:38404   */\n      pop\n      pop\n      pop\n      jump\t// out\n        /* \"#utility.yul\":38410:38558   */\n    tag_448:\n        /* \"#utility.yul\":38508:38514   */\n      dup3\n        /* \"#utility.yul\":38503:38506   */\n      dup2\n        /* \"#utility.yul\":38498:38501   */\n      dup4\n        /* \"#utility.yul\":38485:38515   */\n      calldatacopy\n        /* \"#utility.yul\":38549:38550   */\n      0x00\n        /* \"#utility.yul\":38540:38546   */\n      dup4\n        /* \"#utility.yul\":38535:38538   */\n      dup4\n        /* \"#utility.yul\":38531:38547   */\n      add\n        /* \"#utility.yul\":38524:38551   */\n      mstore\n        /* \"#utility.yul\":38410:38558   */\n      pop\n      pop\n      pop\n      jump\t// out\n        /* \"#utility.yul\":38588:38905   */\n    tag_449:\n        /* \"#utility.yul\":38686:38689   */\n      0x00\n        /* \"#utility.yul\":38707:38778   */\n      tag_801\n        /* \"#utility.yul\":38771:38777   */\n      dup4\n        /* \"#utility.yul\":38766:38769   */\n      dup6\n        /* \"#utility.yul\":38707:38778   */\n      tag_382\n      jump\t// in\n    tag_801:\n        /* \"#utility.yul\":38700:38778   */\n      swap4\n      pop\n        /* \"#utility.yul\":38788:38844   */\n      tag_802\n        /* \"#utility.yul\":38837:38843   */\n      dup4\n        /* \"#utility.yul\":38832:38835   */\n      dup6\n        /* \"#utility.yul\":38825:38830   */\n      dup5\n        /* \"#utility.yul\":38788:38844   */\n      tag_448\n      jump\t// in\n    tag_802:\n        /* \"#utility.yul\":38869:38898   */\n      tag_803\n        /* \"#utility.yul\":38891:38897   */\n      dup4\n        /* \"#utility.yul\":38869:38898   */\n      tag_384\n      jump\t// in\n    tag_803:\n        /* \"#utility.yul\":38864:38867   */\n      dup5\n        /* \"#utility.yul\":38860:38899   */\n      add\n        /* \"#utility.yul\":38853:38899   */\n      swap1\n      pop\n        /* \"#utility.yul\":38588:38905   */\n      swap4\n      swap3\n      pop\n      pop\n      pop\n      jump\t// out\n        /* \"#utility.yul\":38911:39354   */\n    tag_316:\n        /* \"#utility.yul\":39062:39066   */\n      0x00\n        /* \"#utility.yul\":39100:39102   */\n      0x40\n        /* \"#utility.yul\":39089:39098   */\n      dup3\n        /* \"#utility.yul\":39085:39103   */\n      add\n        /* \"#utility.yul\":39077:39103   */\n      swap1\n      pop\n        /* \"#utility.yul\":39149:39158   */\n      dup2\n        /* \"#utility.yul\":39143:39147   */\n      dup2\n        /* \"#utility.yul\":39139:39159   */\n      sub\n        /* \"#utility.yul\":39135:39136   */\n      0x00\n        /* \"#utility.yul\":39124:39133   */\n      dup4\n        /* \"#utility.yul\":39120:39137   */\n      add\n        /* \"#utility.yul\":39113:39160   */\n      mstore\n        /* \"#utility.yul\":39177:39265   */\n      tag_805\n        /* \"#utility.yul\":39260:39264   */\n      dup2\n        /* \"#utility.yul\":39251:39257   */\n      dup6\n        /* \"#utility.yul\":39243:39249   */\n      dup8\n        /* \"#utility.yul\":39177:39265   */\n      tag_449\n      jump\t// in\n    tag_805:\n        /* \"#utility.yul\":39169:39265   */\n      swap1\n      pop\n        /* \"#utility.yul\":39275:39347   */\n      tag_806\n        /* \"#utility.yul\":39343:39345   */\n      0x20\n        /* \"#utility.yul\":39332:39341   */\n      dup4\n        /* \"#utility.yul\":39328:39346   */\n      add\n        /* \"#utility.yul\":39319:39325   */\n      dup5\n        /* \"#utility.yul\":39275:39347   */\n      tag_371\n      jump\t// in\n    tag_806:\n        /* \"#utility.yul\":38911:39354   */\n      swap5\n      swap4\n      pop\n      pop\n      pop\n      pop\n      jump\t// out\n\n    auxdata: 0xa26469706673582212205f8038d4ea67e2cbe474effa4fd76bdea7a3752005175aa460608de142f0564464736f6c634300081e0033\n}\n",
				"bytecode": {
					"linkReferences": {},
					"object": "60a060405260015f5560018055600160025534801561001c575f5ffd5b50600161003b61003061007a60201b60201c565b6100a360201b60201c565b5f01819055503373ffffffffffffffffffffffffffffffffffffffff1660808173ffffffffffffffffffffffffffffffffffffffff16815250506100ac565b5f7f9b779b17422d0df92223018b32b4d1fa46e071723d6817e2486d003becc55f005f1b905090565b5f819050919050565b6080516136cb6100d25f395f8181610bc701528181611ae7015261217a01526136cb5ff3fe608060405234801561000f575f5ffd5b506004361061011f575f3560e01c806375794a3c116100ab578063b85b381b1161006f578063b85b381b1461034a578063d67b2d0814610368578063e4b50cb814610384578063ef57e2d2146103ba578063f851a440146103ea5761011f565b806375794a3c1461028c5780638782dc00146102aa5780639377d711146102c6578063a1e6a255146102fc578063b5ffbbcc1461031a5761011f565b8063365b98b2116100f2578063365b98b2146101a757806349217ca4146101da5780634f64b2be146101f6578063519dc8d21461022c5780636386c1c71461025c5761011f565b8063095bcdb61461012357806312effc321461013f578063274fae7c1461015b578063335d341014610177575b5f5ffd5b61013d60048036038101906101389190612474565b610408565b005b610159600480360381019061015491906124c4565b610adb565b005b610175600480360381019061017091906124c4565b610d4e565b005b610191600480360381019061018c91906124ef565b6110d1565b60405161019e91906125d1565b60405180910390f35b6101c160048036038101906101bc91906124c4565b6112ec565b6040516101d1949392919061269a565b60405180910390f35b6101f460048036038101906101ef9190612707565b611343565b005b610210600480360381019061020b91906124c4565b611607565b60405161022397969594939291906127a2565b60405180910390f35b610246600480360381019061024191906124ef565b611770565b60405161025391906125d1565b60405180910390f35b610276600480360381019061027191906124ef565b61197a565b604051610283919061289d565b60405180910390f35b610294611ae0565b6040516102a191906128b6565b60405180910390f35b6102c460048036038101906102bf91906128f2565b611ae5565b005b6102e060048036038101906102db91906124c4565b611c84565b6040516102f39796959493929190612976565b60405180910390f35b610304611d0c565b60405161031191906128b6565b60405180910390f35b610334600480360381019061032f91906124ef565b611d12565b60405161034191906128b6565b60405180910390f35b610352611d27565b60405161035f91906128b6565b60405180910390f35b610382600480360381019061037d9190612a44565b611d2d565b005b61039e600480360381019061039991906124c4565b611fa1565b6040516103b19796959493929190612ae7565b60405180910390f35b6103d460048036038101906103cf9190612b5b565b6120dc565b6040516103e191906128b6565b60405180910390f35b6103f2612178565b6040516103ff9190612b99565b60405180910390f35b5f60065f3373ffffffffffffffffffffffffffffffffffffffff1673ffffffffffffffffffffffffffffffffffffffff1681526020019081526020015f205490505f811415801561049d57506001600381111561046857610467612627565b5b60055f8381526020019081526020015f206003015f9054906101000a900460ff16600381111561049b5761049a612627565b5b145b6104dc576040517f08c379a00000000000000000000000000000000000000000000000000000000081526004016104d390612bfc565b60405180910390fd5b6104e461219c565b5f73ffffffffffffffffffffffffffffffffffffffff168473ffffffffffffffffffffffffffffffffffffffff161415801561054c57503373ffffffffffffffffffffffffffffffffffffffff168473ffffffffffffffffffffffffffffffffffffffff1614155b61058b576040517f08c379a000000000000000000000000000000000000000000000000000000000815260040161058290612c64565b60405180910390fd5b5f82116105cd576040517f08c379a00000000000000000000000000000000000000000000000000000000081526004016105c490612ccc565b60405180910390fd5b5f548310610610576040517f08c379a000000000000000000000000000000000000000000000000000000000815260040161060790612d34565b60405180910390fd5b5f60065f3373ffffffffffffffffffffffffffffffffffffffff1673ffffffffffffffffffffffffffffffffffffffff1681526020019081526020015f205490505f60065f8773ffffffffffffffffffffffffffffffffffffffff1673ffffffffffffffffffffffffffffffffffffffff1681526020019081526020015f205490505f81036106d4576040517f08c379a00000000000000000000000000000000000000000000000000000000081526004016106cb90612d9c565b60405180910390fd5b6106f160055f8481526020019081526020015f20600201546121be565b15610731576040517f08c379a000000000000000000000000000000000000000000000000000000000815260040161072890612e04565b60405180910390fd5b61076360055f8481526020019081526020015f206002015460055f8481526020019081526020015f20600201546121e9565b6107a2576040517f08c379a000000000000000000000000000000000000000000000000000000000815260040161079990612e6c565b60405180910390fd5b5f60035f8781526020019081526020015f20905084816007015f3373ffffffffffffffffffffffffffffffffffffffff1673ffffffffffffffffffffffffffffffffffffffff1681526020019081526020015f20541015610838576040517f08c379a000000000000000000000000000000000000000000000000000000000815260040161082f90612ed4565b60405180910390fd5b84816007015f3373ffffffffffffffffffffffffffffffffffffffff1673ffffffffffffffffffffffffffffffffffffffff1681526020019081526020015f205f8282546108869190612f1f565b9250508190555084816007015f8973ffffffffffffffffffffffffffffffffffffffff1673ffffffffffffffffffffffffffffffffffffffff1681526020019081526020015f205f8282546108db9190612f52565b925050819055505f60015f8154809291906108f590612f85565b9190505590506040518060e001604052808281526020013373ffffffffffffffffffffffffffffffffffffffff1681526020018973ffffffffffffffffffffffffffffffffffffffff1681526020018881526020014281526020018781526020015f600281111561096957610968612627565b5b81525060045f8381526020019081526020015f205f820151815f01556020820151816001015f6101000a81548173ffffffffffffffffffffffffffffffffffffffff021916908373ffffffffffffffffffffffffffffffffffffffff1602179055506040820151816002015f6101000a81548173ffffffffffffffffffffffffffffffffffffffff021916908373ffffffffffffffffffffffffffffffffffffffff160217905550606082015181600301556080820151816004015560a0820151816005015560c0820151816006015f6101000a81548160ff02191690836002811115610a5957610a58612627565b5b02179055509050508773ffffffffffffffffffffffffffffffffffffffff163373ffffffffffffffffffffffffffffffffffffffff16827fc8262dc04f8f56abc884e1f58ca17a373610558a6cebc5e927b9e1c4668e5fdf8a8a604051610ac1929190612fcc565b60405180910390a450505050610ad56122ea565b50505050565b610ae361219c565b5f60045f8381526020019081526020015f2090505f6002811115610b0a57610b09612627565b5b816006015f9054906101000a900460ff166002811115610b2d57610b2c612627565b5b14610b6d576040517f08c379a0000000000000000000000000000000000000000000000000000000008152600401610b649061303d565b60405180910390fd5b806002015f9054906101000a900473ffffffffffffffffffffffffffffffffffffffff1673ffffffffffffffffffffffffffffffffffffffff163373ffffffffffffffffffffffffffffffffffffffff161480610c1557507f000000000000000000000000000000000000000000000000000000000000000073ffffffffffffffffffffffffffffffffffffffff163373ffffffffffffffffffffffffffffffffffffffff16145b610c54576040517f08c379a0000000000000000000000000000000000000000000000000000000008152600401610c4b906130a5565b60405180910390fd5b5f60035f836003015481526020019081526020015f2090508160050154816007015f846001015f9054906101000a900473ffffffffffffffffffffffffffffffffffffffff1673ffffffffffffffffffffffffffffffffffffffff1673ffffffffffffffffffffffffffffffffffffffff1681526020019081526020015f205f828254610ce19190612f52565b925050819055506002826006015f6101000a81548160ff02191690836002811115610d0f57610d0e612627565b5b0217905550827f1f4f8a94e17d25044030f376d297769c8f9a1a2a0616e36b498a1e7370b5863f60405160405180910390a25050610d4b6122ea565b50565b5f60065f3373ffffffffffffffffffffffffffffffffffffffff1673ffffffffffffffffffffffffffffffffffffffff1681526020019081526020015f205490505f8114158015610de3575060016003811115610dae57610dad612627565b5b60055f8381526020019081526020015f206003015f9054906101000a900460ff166003811115610de157610de0612627565b5b145b610e22576040517f08c379a0000000000000000000000000000000000000000000000000000000008152600401610e1990612bfc565b60405180910390fd5b5f60045f8481526020019081526020015f2090505f6002811115610e4957610e48612627565b5b816006015f9054906101000a900460ff166002811115610e6c57610e6b612627565b5b14610eac576040517f08c379a0000000000000000000000000000000000000000000000000000000008152600401610ea39061303d565b60405180910390fd5b806002015f9054906101000a900473ffffffffffffffffffffffffffffffffffffffff1673ffffffffffffffffffffffffffffffffffffffff163373ffffffffffffffffffffffffffffffffffffffff1614610f3d576040517f08c379a0000000000000000000000000000000000000000000000000000000008152600401610f349061310d565b60405180910390fd5b5f60065f836002015f9054906101000a900473ffffffffffffffffffffffffffffffffffffffff1673ffffffffffffffffffffffffffffffffffffffff1673ffffffffffffffffffffffffffffffffffffffff1681526020019081526020015f2054905061103360055f60065f866001015f9054906101000a900473ffffffffffffffffffffffffffffffffffffffff1673ffffffffffffffffffffffffffffffffffffffff1673ffffffffffffffffffffffffffffffffffffffff1681526020019081526020015f205481526020019081526020015f206002015460055f8481526020019081526020015f20600201546121e9565b611072576040517f08c379a000000000000000000000000000000000000000000000000000000000815260040161106990612e6c565b60405180910390fd5b6001826006015f6101000a81548160ff0219169083600281111561109957611098612627565b5b0217905550837f91dd4234b45d77221e6eca52c141569a6d0f3b3ffe9b8a18fe8b9aafbc64b44b60405160405180910390a250505050565b60605f600180546110e29190612f1f565b67ffffffffffffffff8111156110fb576110fa61312b565b5b6040519080825280602002602001820160405280156111295781602001602082028036833780820191505090505b5090505f5f90505f600190505b60015481101561123f575f60045f8381526020019081526020015f2090508573ffffffffffffffffffffffffffffffffffffffff16816001015f9054906101000a900473ffffffffffffffffffffffffffffffffffffffff1673ffffffffffffffffffffffffffffffffffffffff1614806111ff57508573ffffffffffffffffffffffffffffffffffffffff16816002015f9054906101000a900473ffffffffffffffffffffffffffffffffffffffff1673ffffffffffffffffffffffffffffffffffffffff16145b15611231578184848061121190612f85565b95508151811061122457611223613158565b5b6020026020010181815250505b508080600101915050611136565b505f8167ffffffffffffffff81111561125b5761125a61312b565b5b6040519080825280602002602001820160405280156112895781602001602082028036833780820191505090505b5090505f5f90505b828110156112e0578381815181106112ac576112ab613158565b5b60200260200101518282815181106112c7576112c6613158565b5b6020026020010181815250508080600101915050611291565b50809350505050919050565b6005602052805f5260405f205f91509050805f015490806001015f9054906101000a900473ffffffffffffffffffffffffffffffffffffffff1690806002015490806003015f9054906101000a900460ff16905084565b5f5f1b8103611387576040517f08c379a000000000000000000000000000000000000000000000000000000000815260040161137e906131cf565b60405180910390fd5b5f60065f3373ffffffffffffffffffffffffffffffffffffffff1673ffffffffffffffffffffffffffffffffffffffff1681526020019081526020015f205490505f81036115125760025f8154809291906113e190612f85565b91905055905060405180608001604052808281526020013373ffffffffffffffffffffffffffffffffffffffff1681526020018381526020015f600381111561142d5761142c612627565b5b81525060055f8381526020019081526020015f205f820151815f01556020820151816001015f6101000a81548173ffffffffffffffffffffffffffffffffffffffff021916908373ffffffffffffffffffffffffffffffffffffffff160217905550604082015181600201556060820151816003015f6101000a81548160ff021916908360038111156114c3576114c2612627565b5b02179055509050508060065f3373ffffffffffffffffffffffffffffffffffffffff1673ffffffffffffffffffffffffffffffffffffffff1681526020019081526020015f2081905550611567565b8160055f8381526020019081526020015f20600201819055505f60055f8381526020019081526020015f206003015f6101000a81548160ff0219169083600381111561156157611560612627565b5b02179055505b3373ffffffffffffffffffffffffffffffffffffffff167f6462c5e0af9bf3a12e42a57283f899627cb117e108991e3efda5d27188cc85c1836040516115ad91906131ed565b60405180910390a23373ffffffffffffffffffffffffffffffffffffffff167fb3b609c7a5e504a312603e90d906d1667fd5caff0a840ad07bf5709a3ca1a0455f6040516115fb9190613206565b60405180910390a25050565b6003602052805f5260405f205f91509050805f015490806001015f9054906101000a900473ffffffffffffffffffffffffffffffffffffffff16908060020180546116519061324c565b80601f016020809104026020016040519081016040528092919081815260200182805461167d9061324c565b80156116c85780601f1061169f576101008083540402835291602001916116c8565b820191905f5260205f20905b8154815290600101906020018083116116ab57829003601f168201915b5050505050908060030154908060040180546116e39061324c565b80601f016020809104026020016040519081016040528092919081815260200182805461170f9061324c565b801561175a5780601f106117315761010080835404028352916020019161175a565b820191905f5260205f20905b81548152906001019060200180831161173d57829003601f168201915b5050505050908060050154908060060154905087565b60605f60015f546117819190612f1f565b67ffffffffffffffff81111561179a5761179961312b565b5b6040519080825280602002602001820160405280156117c85781602001602082028036833780820191505090505b5090505f5f90505f600190505b5f548110156118cd575f60035f8381526020019081526020015f2090508573ffffffffffffffffffffffffffffffffffffffff16816001015f9054906101000a900473ffffffffffffffffffffffffffffffffffffffff1673ffffffffffffffffffffffffffffffffffffffff16148061188d57505f816007015f8873ffffffffffffffffffffffffffffffffffffffff1673ffffffffffffffffffffffffffffffffffffffff1681526020019081526020015f2054115b156118bf578184848061189f90612f85565b9550815181106118b2576118b1613158565b5b6020026020010181815250505b5080806001019150506117d5565b505f8167ffffffffffffffff8111156118e9576118e861312b565b5b6040519080825280602002602001820160405280156119175781602001602082028036833780820191505090505b5090505f5f90505b8281101561196e5783818151811061193a57611939613158565b5b602002602001015182828151811061195557611954613158565b5b602002602001018181525050808060010191505061191f565b50809350505050919050565b611982612393565b5f60065f8473ffffffffffffffffffffffffffffffffffffffff1673ffffffffffffffffffffffffffffffffffffffff1681526020019081526020015f205490505f8114611a8d5760055f8281526020019081526020015f206040518060800160405290815f8201548152602001600182015f9054906101000a900473ffffffffffffffffffffffffffffffffffffffff1673ffffffffffffffffffffffffffffffffffffffff1673ffffffffffffffffffffffffffffffffffffffff16815260200160028201548152602001600382015f9054906101000a900460ff166003811115611a7257611a71612627565b5b6003811115611a8457611a83612627565b5b81525050611ad8565b60405180608001604052805f81526020015f73ffffffffffffffffffffffffffffffffffffffff1681526020015f815260200160026003811115611ad457611ad3612627565b5b8152505b915050919050565b5f5481565b7f000000000000000000000000000000000000000000000000000000000000000073ffffffffffffffffffffffffffffffffffffffff163373ffffffffffffffffffffffffffffffffffffffff1614611b73576040517f08c379a0000000000000000000000000000000000000000000000000000000008152600401611b6a906132c6565b60405180910390fd5b5f60065f8473ffffffffffffffffffffffffffffffffffffffff1673ffffffffffffffffffffffffffffffffffffffff1681526020019081526020015f205490505f8103611bf6576040517f08c379a0000000000000000000000000000000000000000000000000000000008152600401611bed9061332e565b60405180910390fd5b8160055f8381526020019081526020015f206003015f6101000a81548160ff02191690836003811115611c2c57611c2b612627565b5b02179055508273ffffffffffffffffffffffffffffffffffffffff167fb3b609c7a5e504a312603e90d906d1667fd5caff0a840ad07bf5709a3ca1a04583604051611c779190613206565b60405180910390a2505050565b6004602052805f5260405f205f91509050805f015490806001015f9054906101000a900473ffffffffffffffffffffffffffffffffffffffff1690806002015f9054906101000a900473ffffffffffffffffffffffffffffffffffffffff1690806003015490806004015490806005015490806006015f9054906101000a900460ff16905087565b60025481565b6006602052805f5260405f205f915090505481565b60015481565b5f60065f3373ffffffffffffffffffffffffffffffffffffffff1673ffffffffffffffffffffffffffffffffffffffff1681526020019081526020015f205490505f8114158015611dc2575060016003811115611d8d57611d8c612627565b5b60055f8381526020019081526020015f206003015f9054906101000a900460ff166003811115611dc057611dbf612627565b5b145b611e01576040517f08c379a0000000000000000000000000000000000000000000000000000000008152600401611df890612bfc565b60405180910390fd5b5f8787905011611e46576040517f08c379a0000000000000000000000000000000000000000000000000000000008152600401611e3d90613396565b60405180910390fd5b5f5f5f815480929190611e5890612f85565b9190505590505f60035f8381526020019081526020015f20905081815f018190555033816001015f6101000a81548173ffffffffffffffffffffffffffffffffffffffff021916908373ffffffffffffffffffffffffffffffffffffffff1602179055508888826002019182611ecf92919061355e565b508681600301819055508585826004019182611eec92919061355e565b5083816005018190555042816006018190555086816007015f3373ffffffffffffffffffffffffffffffffffffffff1673ffffffffffffffffffffffffffffffffffffffff1681526020019081526020015f20819055503373ffffffffffffffffffffffffffffffffffffffff16827f463ec2a62c46678a81e23cde640446ca4b512f102bb3309cf5a3e2a4ae8314648b8b8b604051611f8e93929190613665565b60405180910390a3505050505050505050565b5f5f60605f5f5f5f5f60035f8a81526020019081526020015f209050805f0154816001015f9054906101000a900473ffffffffffffffffffffffffffffffffffffffff1682600201836003015484600501548560060154866007015f3373ffffffffffffffffffffffffffffffffffffffff1673ffffffffffffffffffffffffffffffffffffffff1681526020019081526020015f20548480546120449061324c565b80601f01602080910402602001604051908101604052809291908181526020018280546120709061324c565b80156120bb5780601f10612092576101008083540402835291602001916120bb565b820191905f5260205f20905b81548152906001019060200180831161209e57829003601f168201915b50505050509450975097509750975097509750975050919395979092949650565b5f5f548310612120576040517f08c379a000000000000000000000000000000000000000000000000000000000815260040161211790612d34565b60405180910390fd5b60035f8481526020019081526020015f206007015f8373ffffffffffffffffffffffffffffffffffffffff1673ffffffffffffffffffffffffffffffffffffffff1681526020019081526020015f2054905092915050565b7f000000000000000000000000000000000000000000000000000000000000000081565b6121a4612304565b60026121b66121b1612345565b61236e565b5f0181905550565b5f7fc0878b4b16a78e8085cba0ca02fc0924f1492924058d153153a3f286e0fd70ff82149050919050565b5f7f95329f0f598032755f454b63034035528a2f09e00bb3dde055a4f8e3f7b116838314801561223857507f992f90ffb92c5ad86f1df6829115f18aaea41d6094dadc8955c35086081a7bb982145b8061228d57507f992f90ffb92c5ad86f1df6829115f18aaea41d6094dadc8955c35086081a7bb98314801561228c57507f1534e98f9dd33e3681193a0541f0c2e3d732d183dcdc630aac2b943280af42a082145b5b806122e257507f1534e98f9dd33e3681193a0541f0c2e3d732d183dcdc630aac2b943280af42a0831480156122e157507fc0878b4b16a78e8085cba0ca02fc0924f1492924058d153153a3f286e0fd70ff82145b5b905092915050565b60016122fc6122f7612345565b61236e565b5f0181905550565b61230c612377565b15612343576040517f3ee5aeb500000000000000000000000000000000000000000000000000000000815260040160405180910390fd5b565b5f7f9b779b17422d0df92223018b32b4d1fa46e071723d6817e2486d003becc55f005f1b905090565b5f819050919050565b5f600261238a612385612345565b61236e565b5f015414905090565b60405180608001604052805f81526020015f73ffffffffffffffffffffffffffffffffffffffff1681526020015f81526020015f60038111156123d9576123d8612627565b5b81525090565b5f5ffd5b5f5ffd5b5f73ffffffffffffffffffffffffffffffffffffffff82169050919050565b5f612410826123e7565b9050919050565b61242081612406565b811461242a575f5ffd5b50565b5f8135905061243b81612417565b92915050565b5f819050919050565b61245381612441565b811461245d575f5ffd5b50565b5f8135905061246e8161244a565b92915050565b5f5f5f6060848603121561248b5761248a6123df565b5b5f6124988682870161242d565b93505060206124a986828701612460565b92505060406124ba86828701612460565b9150509250925092565b5f602082840312156124d9576124d86123df565b5b5f6124e684828501612460565b91505092915050565b5f60208284031215612504576125036123df565b5b5f6125118482850161242d565b91505092915050565b5f81519050919050565b5f82825260208201905092915050565b5f819050602082019050919050565b61254c81612441565b82525050565b5f61255d8383612543565b60208301905092915050565b5f602082019050919050565b5f61257f8261251a565b6125898185612524565b935061259483612534565b805f5b838110156125c45781516125ab8882612552565b97506125b683612569565b925050600181019050612597565b5085935050505092915050565b5f6020820190508181035f8301526125e98184612575565b905092915050565b6125fa81612441565b82525050565b61260981612406565b82525050565b5f819050919050565b6126218161260f565b82525050565b7f4e487b71000000000000000000000000000000000000000000000000000000005f52602160045260245ffd5b6004811061266557612664612627565b5b50565b5f81905061267582612654565b919050565b5f61268482612668565b9050919050565b6126948161267a565b82525050565b5f6080820190506126ad5f8301876125f1565b6126ba6020830186612600565b6126c76040830185612618565b6126d4606083018461268b565b95945050505050565b6126e68161260f565b81146126f0575f5ffd5b50565b5f81359050612701816126dd565b92915050565b5f6020828403121561271c5761271b6123df565b5b5f612729848285016126f3565b91505092915050565b5f81519050919050565b5f82825260208201905092915050565b8281835e5f83830152505050565b5f601f19601f8301169050919050565b5f61277482612732565b61277e818561273c565b935061278e81856020860161274c565b6127978161275a565b840191505092915050565b5f60e0820190506127b55f83018a6125f1565b6127c26020830189612600565b81810360408301526127d4818861276a565b90506127e360608301876125f1565b81810360808301526127f5818661276a565b905061280460a08301856125f1565b61281160c08301846125f1565b98975050505050505050565b61282681612406565b82525050565b6128358161260f565b82525050565b6128448161267a565b82525050565b608082015f82015161285e5f850182612543565b506020820151612871602085018261281d565b506040820151612884604085018261282c565b506060820151612897606085018261283b565b50505050565b5f6080820190506128b05f83018461284a565b92915050565b5f6020820190506128c95f8301846125f1565b92915050565b600481106128db575f5ffd5b50565b5f813590506128ec816128cf565b92915050565b5f5f60408385031215612908576129076123df565b5b5f6129158582860161242d565b9250506020612926858286016128de565b9150509250929050565b6003811061294157612940612627565b5b50565b5f81905061295182612930565b919050565b5f61296082612944565b9050919050565b61297081612956565b82525050565b5f60e0820190506129895f83018a6125f1565b6129966020830189612600565b6129a36040830188612600565b6129b060608301876125f1565b6129bd60808301866125f1565b6129ca60a08301856125f1565b6129d760c0830184612967565b98975050505050505050565b5f5ffd5b5f5ffd5b5f5ffd5b5f5f83601f840112612a0457612a036129e3565b5b8235905067ffffffffffffffff811115612a2157612a206129e7565b5b602083019150836001820283011115612a3d57612a3c6129eb565b5b9250929050565b5f5f5f5f5f5f60808789031215612a5e57612a5d6123df565b5b5f87013567ffffffffffffffff811115612a7b57612a7a6123e3565b5b612a8789828a016129ef565b96509650506020612a9a89828a01612460565b945050604087013567ffffffffffffffff811115612abb57612aba6123e3565b5b612ac789828a016129ef565b93509350506060612ada89828a01612460565b9150509295509295509295565b5f60e082019050612afa5f83018a6125f1565b612b076020830189612600565b8181036040830152612b19818861276a565b9050612b2860608301876125f1565b612b3560808301866125f1565b612b4260a08301856125f1565b612b4f60c08301846125f1565b98975050505050505050565b5f5f60408385031215612b7157612b706123df565b5b5f612b7e85828601612460565b9250506020612b8f8582860161242d565b9150509250929050565b5f602082019050612bac5f830184612600565b92915050565b7f4e6f7420617070726f76656400000000000000000000000000000000000000005f82015250565b5f612be6600c8361273c565b9150612bf182612bb2565b602082019050919050565b5f6020820190508181035f830152612c1381612bda565b9050919050565b7f496e76616c696420726563697069656e740000000000000000000000000000005f82015250565b5f612c4e60118361273c565b9150612c5982612c1a565b602082019050919050565b5f6020820190508181035f830152612c7b81612c42565b9050919050565b7f416d6f756e74206d757374206265203e203000000000000000000000000000005f82015250565b5f612cb660128361273c565b9150612cc182612c82565b602082019050919050565b5f6020820190508181035f830152612ce381612caa565b9050919050565b7f546f6b656e20646f6573206e6f742065786973740000000000000000000000005f82015250565b5f612d1e60148361273c565b9150612d2982612cea565b602082019050919050565b5f6020820190508181035f830152612d4b81612d12565b9050919050565b7f526563697069656e74206e6f74207265676973746572656400000000000000005f82015250565b5f612d8660188361273c565b9150612d9182612d52565b602082019050919050565b5f6020820190508181035f830152612db381612d7a565b9050919050565b7f436f6e73756d65722063616e6e6f74207472616e7366657200000000000000005f82015250565b5f612dee60188361273c565b9150612df982612dba565b602082019050919050565b5f6020820190508181035f830152612e1b81612de2565b9050919050565b7f496e76616c696420726f6c65207472616e736974696f6e0000000000000000005f82015250565b5f612e5660178361273c565b9150612e6182612e22565b602082019050919050565b5f6020820190508181035f830152612e8381612e4a565b9050919050565b7f496e73756666696369656e742062616c616e63650000000000000000000000005f82015250565b5f612ebe60148361273c565b9150612ec982612e8a565b602082019050919050565b5f6020820190508181035f830152612eeb81612eb2565b9050919050565b7f4e487b71000000000000000000000000000000000000000000000000000000005f52601160045260245ffd5b5f612f2982612441565b9150612f3483612441565b9250828203905081811115612f4c57612f4b612ef2565b5b92915050565b5f612f5c82612441565b9150612f6783612441565b9250828201905080821115612f7f57612f7e612ef2565b5b92915050565b5f612f8f82612441565b91507fffffffffffffffffffffffffffffffffffffffffffffffffffffffffffffffff8203612fc157612fc0612ef2565b5b600182019050919050565b5f604082019050612fdf5f8301856125f1565b612fec60208301846125f1565b9392505050565b7f4e6f742070656e64696e670000000000000000000000000000000000000000005f82015250565b5f613027600b8361273c565b915061303282612ff3565b602082019050919050565b5f6020820190508181035f8301526130548161301b565b9050919050565b7f4e6f7420617574686f72697a65640000000000000000000000000000000000005f82015250565b5f61308f600e8361273c565b915061309a8261305b565b602082019050919050565b5f6020820190508181035f8301526130bc81613083565b9050919050565b7f4e6f7420726563697069656e74000000000000000000000000000000000000005f82015250565b5f6130f7600d8361273c565b9150613102826130c3565b602082019050919050565b5f6020820190508181035f830152613124816130eb565b9050919050565b7f4e487b71000000000000000000000000000000000000000000000000000000005f52604160045260245ffd5b7f4e487b71000000000000000000000000000000000000000000000000000000005f52603260045260245ffd5b7f496e76616c696420726f6c6500000000000000000000000000000000000000005f82015250565b5f6131b9600c8361273c565b91506131c482613185565b602082019050919050565b5f6020820190508181035f8301526131e6816131ad565b9050919050565b5f6020820190506132005f830184612618565b92915050565b5f6020820190506132195f83018461268b565b92915050565b7f4e487b71000000000000000000000000000000000000000000000000000000005f52602260045260245ffd5b5f600282049050600182168061326357607f821691505b6020821081036132765761327561321f565b5b50919050565b7f4e6f742061646d696e00000000000000000000000000000000000000000000005f82015250565b5f6132b060098361273c565b91506132bb8261327c565b602082019050919050565b5f6020820190508181035f8301526132dd816132a4565b9050919050565b7f55736572206e6f7420666f756e640000000000000000000000000000000000005f82015250565b5f613318600e8361273c565b9150613323826132e4565b602082019050919050565b5f6020820190508181035f8301526133458161330c565b9050919050565b7f4e616d6520656d707479000000000000000000000000000000000000000000005f82015250565b5f613380600a8361273c565b915061338b8261334c565b602082019050919050565b5f6020820190508181035f8301526133ad81613374565b9050919050565b5f82905092915050565b5f819050815f5260205f209050919050565b5f6020601f8301049050919050565b5f82821b905092915050565b5f6008830261341a7fffffffffffffffffffffffffffffffffffffffffffffffffffffffffffffffff826133df565b61342486836133df565b95508019841693508086168417925050509392505050565b5f819050919050565b5f61345f61345a61345584612441565b61343c565b612441565b9050919050565b5f819050919050565b61347883613445565b61348c61348482613466565b8484546133eb565b825550505050565b5f5f905090565b6134a3613494565b6134ae81848461346f565b505050565b5b818110156134d1576134c65f8261349b565b6001810190506134b4565b5050565b601f821115613516576134e7816133be565b6134f0846133d0565b810160208510156134ff578190505b61351361350b856133d0565b8301826134b3565b50505b505050565b5f82821c905092915050565b5f6135365f198460080261351b565b1980831691505092915050565b5f61354e8383613527565b9150826002028217905092915050565b61356883836133b4565b67ffffffffffffffff8111156135815761358061312b565b5b61358b825461324c565b6135968282856134d5565b5f601f8311600181146135c3575f84156135b1578287013590505b6135bb8582613543565b865550613622565b601f1984166135d1866133be565b5f5b828110156135f8578489013582556001820191506020850194506020810190506135d3565b868310156136155784890135613611601f891682613527565b8355505b6001600288020188555050505b50505050505050565b828183375f83830152505050565b5f613644838561273c565b935061365183858461362b565b61365a8361275a565b840190509392505050565b5f6040820190508181035f83015261367e818587613639565b905061368d60208301846125f1565b94935050505056fea26469706673582212205f8038d4ea67e2cbe474effa4fd76bdea7a3752005175aa460608de142f0564464736f6c634300081e0033",
					"opcodes": "PUSH1 0xA0 PUSH1 0x40 MSTORE PUSH1 0x1 PUSH0 SSTORE PUSH1 0x1 DUP1 SSTORE PUSH1 0x1 PUSH1 0x2 SSTORE CALLVALUE DUP1 ISZERO PUSH2 0x1C JUMPI PUSH0 PUSH0 REVERT JUMPDEST POP PUSH1 0x1 PUSH2 0x3B PUSH2 0x30 PUSH2 0x7A PUSH1 0x20 SHL PUSH1 0x20 SHR JUMP JUMPDEST PUSH2 0xA3 PUSH1 0x20 SHL PUSH1 0x20 SHR JUMP JUMPDEST PUSH0 ADD DUP2 SWAP1 SSTORE POP CALLER PUSH20 0xFFFFFFFFFFFFFFFFFFFFFFFFFFFFFFFFFFFFFFFF AND PUSH1 0x80 DUP2 PUSH20 0xFFFFFFFFFFFFFFFFFFFFFFFFFFFFFFFFFFFFFFFF AND DUP2 MSTORE POP POP PUSH2 0xAC JUMP JUMPDEST PUSH0 PUSH32 0x9B779B17422D0DF92223018B32B4D1FA46E071723D6817E2486D003BECC55F00 PUSH0 SHL SWAP1 POP SWAP1 JUMP JUMPDEST PUSH0 DUP2 SWAP1 POP SWAP2 SWAP1 POP JUMP JUMPDEST PUSH1 0x80 MLOAD PUSH2 0x36CB PUSH2 0xD2 PUSH0 CODECOPY PUSH0 DUP2 DUP2 PUSH2 0xBC7 ADD MSTORE DUP2 DUP2 PUSH2 0x1AE7 ADD MSTORE PUSH2 0x217A ADD MSTORE PUSH2 0x36CB PUSH0 RETURN INVALID PUSH1 0x80 PUSH1 0x40 MSTORE CALLVALUE DUP1 ISZERO PUSH2 0xF JUMPI PUSH0 PUSH0 REVERT JUMPDEST POP PUSH1 0x4 CALLDATASIZE LT PUSH2 0x11F JUMPI PUSH0 CALLDATALOAD PUSH1 0xE0 SHR DUP1 PUSH4 0x75794A3C GT PUSH2 0xAB JUMPI DUP1 PUSH4 0xB85B381B GT PUSH2 0x6F JUMPI DUP1 PUSH4 0xB85B381B EQ PUSH2 0x34A JUMPI DUP1 PUSH4 0xD67B2D08 EQ PUSH2 0x368 JUMPI DUP1 PUSH4 0xE4B50CB8 EQ PUSH2 0x384 JUMPI DUP1 PUSH4 0xEF57E2D2 EQ PUSH2 0x3BA JUMPI DUP1 PUSH4 0xF851A440 EQ PUSH2 0x3EA JUMPI PUSH2 0x11F JUMP JUMPDEST DUP1 PUSH4 0x75794A3C EQ PUSH2 0x28C JUMPI DUP1 PUSH4 0x8782DC00 EQ PUSH2 0x2AA JUMPI DUP1 PUSH4 0x9377D711 EQ PUSH2 0x2C6 JUMPI DUP1 PUSH4 0xA1E6A255 EQ PUSH2 0x2FC JUMPI DUP1 PUSH4 0xB5FFBBCC EQ PUSH2 0x31A JUMPI PUSH2 0x11F JUMP JUMPDEST DUP1 PUSH4 0x365B98B2 GT PUSH2 0xF2 JUMPI DUP1 PUSH4 0x365B98B2 EQ PUSH2 0x1A7 JUMPI DUP1 PUSH4 0x49217CA4 EQ PUSH2 0x1DA JUMPI DUP1 PUSH4 0x4F64B2BE EQ PUSH2 0x1F6 JUMPI DUP1 PUSH4 0x519DC8D2 EQ PUSH2 0x22C JUMPI DUP1 PUSH4 0x6386C1C7 EQ PUSH2 0x25C JUMPI PUSH2 0x11F JUMP JUMPDEST DUP1 PUSH4 0x95BCDB6 EQ PUSH2 0x123 JUMPI DUP1 PUSH4 0x12EFFC32 EQ PUSH2 0x13F JUMPI DUP1 PUSH4 0x274FAE7C EQ PUSH2 0x15B JUMPI DUP1 PUSH4 0x335D3410 EQ PUSH2 0x177 JUMPI JUMPDEST PUSH0 PUSH0 REVERT JUMPDEST PUSH2 0x13D PUSH1 0x4 DUP1 CALLDATASIZE SUB DUP2 ADD SWAP1 PUSH2 0x138 SWAP2 SWAP1 PUSH2 0x2474 JUMP JUMPDEST PUSH2 0x408 JUMP JUMPDEST STOP JUMPDEST PUSH2 0x159 PUSH1 0x4 DUP1 CALLDATASIZE SUB DUP2 ADD SWAP1 PUSH2 0x154 SWAP2 SWAP1 PUSH2 0x24C4 JUMP JUMPDEST PUSH2 0xADB JUMP JUMPDEST STOP JUMPDEST PUSH2 0x175 PUSH1 0x4 DUP1 CALLDATASIZE SUB DUP2 ADD SWAP1 PUSH2 0x170 SWAP2 SWAP1 PUSH2 0x24C4 JUMP JUMPDEST PUSH2 0xD4E JUMP JUMPDEST STOP JUMPDEST PUSH2 0x191 PUSH1 0x4 DUP1 CALLDATASIZE SUB DUP2 ADD SWAP1 PUSH2 0x18C SWAP2 SWAP1 PUSH2 0x24EF JUMP JUMPDEST PUSH2 0x10D1 JUMP JUMPDEST PUSH1 0x40 MLOAD PUSH2 0x19E SWAP2 SWAP1 PUSH2 0x25D1 JUMP JUMPDEST PUSH1 0x40 MLOAD DUP1 SWAP2 SUB SWAP1 RETURN JUMPDEST PUSH2 0x1C1 PUSH1 0x4 DUP1 CALLDATASIZE SUB DUP2 ADD SWAP1 PUSH2 0x1BC SWAP2 SWAP1 PUSH2 0x24C4 JUMP JUMPDEST PUSH2 0x12EC JUMP JUMPDEST PUSH1 0x40 MLOAD PUSH2 0x1D1 SWAP5 SWAP4 SWAP3 SWAP2 SWAP1 PUSH2 0x269A JUMP JUMPDEST PUSH1 0x40 MLOAD DUP1 SWAP2 SUB SWAP1 RETURN JUMPDEST PUSH2 0x1F4 PUSH1 0x4 DUP1 CALLDATASIZE SUB DUP2 ADD SWAP1 PUSH2 0x1EF SWAP2 SWAP1 PUSH2 0x2707 JUMP JUMPDEST PUSH2 0x1343 JUMP JUMPDEST STOP JUMPDEST PUSH2 0x210 PUSH1 0x4 DUP1 CALLDATASIZE SUB DUP2 ADD SWAP1 PUSH2 0x20B SWAP2 SWAP1 PUSH2 0x24C4 JUMP JUMPDEST PUSH2 0x1607 JUMP JUMPDEST PUSH1 0x40 MLOAD PUSH2 0x223 SWAP8 SWAP7 SWAP6 SWAP5 SWAP4 SWAP3 SWAP2 SWAP1 PUSH2 0x27A2 JUMP JUMPDEST PUSH1 0x40 MLOAD DUP1 SWAP2 SUB SWAP1 RETURN JUMPDEST PUSH2 0x246 PUSH1 0x4 DUP1 CALLDATASIZE SUB DUP2 ADD SWAP1 PUSH2 0x241 SWAP2 SWAP1 PUSH2 0x24EF JUMP JUMPDEST PUSH2 0x1770 JUMP JUMPDEST PUSH1 0x40 MLOAD PUSH2 0x253 SWAP2 SWAP1 PUSH2 0x25D1 JUMP JUMPDEST PUSH1 0x40 MLOAD DUP1 SWAP2 SUB SWAP1 RETURN JUMPDEST PUSH2 0x276 PUSH1 0x4 DUP1 CALLDATASIZE SUB DUP2 ADD SWAP1 PUSH2 0x271 SWAP2 SWAP1 PUSH2 0x24EF JUMP JUMPDEST PUSH2 0x197A JUMP JUMPDEST PUSH1 0x40 MLOAD PUSH2 0x283 SWAP2 SWAP1 PUSH2 0x289D JUMP JUMPDEST PUSH1 0x40 MLOAD DUP1 SWAP2 SUB SWAP1 RETURN JUMPDEST PUSH2 0x294 PUSH2 0x1AE0 JUMP JUMPDEST PUSH1 0x40 MLOAD PUSH2 0x2A1 SWAP2 SWAP1 PUSH2 0x28B6 JUMP JUMPDEST PUSH1 0x40 MLOAD DUP1 SWAP2 SUB SWAP1 RETURN JUMPDEST PUSH2 0x2C4 PUSH1 0x4 DUP1 CALLDATASIZE SUB DUP2 ADD SWAP1 PUSH2 0x2BF SWAP2 SWAP1 PUSH2 0x28F2 JUMP JUMPDEST PUSH2 0x1AE5 JUMP JUMPDEST STOP JUMPDEST PUSH2 0x2E0 PUSH1 0x4 DUP1 CALLDATASIZE SUB DUP2 ADD SWAP1 PUSH2 0x2DB SWAP2 SWAP1 PUSH2 0x24C4 JUMP JUMPDEST PUSH2 0x1C84 JUMP JUMPDEST PUSH1 0x40 MLOAD PUSH2 0x2F3 SWAP8 SWAP7 SWAP6 SWAP5 SWAP4 SWAP3 SWAP2 SWAP1 PUSH2 0x2976 JUMP JUMPDEST PUSH1 0x40 MLOAD DUP1 SWAP2 SUB SWAP1 RETURN JUMPDEST PUSH2 0x304 PUSH2 0x1D0C JUMP JUMPDEST PUSH1 0x40 MLOAD PUSH2 0x311 SWAP2 SWAP1 PUSH2 0x28B6 JUMP JUMPDEST PUSH1 0x40 MLOAD DUP1 SWAP2 SUB SWAP1 RETURN JUMPDEST PUSH2 0x334 PUSH1 0x4 DUP1 CALLDATASIZE SUB DUP2 ADD SWAP1 PUSH2 0x32F SWAP2 SWAP1 PUSH2 0x24EF JUMP JUMPDEST PUSH2 0x1D12 JUMP JUMPDEST PUSH1 0x40 MLOAD PUSH2 0x341 SWAP2 SWAP1 PUSH2 0x28B6 JUMP JUMPDEST PUSH1 0x40 MLOAD DUP1 SWAP2 SUB SWAP1 RETURN JUMPDEST PUSH2 0x352 PUSH2 0x1D27 JUMP JUMPDEST PUSH1 0x40 MLOAD PUSH2 0x35F SWAP2 SWAP1 PUSH2 0x28B6 JUMP JUMPDEST PUSH1 0x40 MLOAD DUP1 SWAP2 SUB SWAP1 RETURN JUMPDEST PUSH2 0x382 PUSH1 0x4 DUP1 CALLDATASIZE SUB DUP2 ADD SWAP1 PUSH2 0x37D SWAP2 SWAP1 PUSH2 0x2A44 JUMP JUMPDEST PUSH2 0x1D2D JUMP JUMPDEST STOP JUMPDEST PUSH2 0x39E PUSH1 0x4 DUP1 CALLDATASIZE SUB DUP2 ADD SWAP1 PUSH2 0x399 SWAP2 SWAP1 PUSH2 0x24C4 JUMP JUMPDEST PUSH2 0x1FA1 JUMP JUMPDEST PUSH1 0x40 MLOAD PUSH2 0x3B1 SWAP8 SWAP7 SWAP6 SWAP5 SWAP4 SWAP3 SWAP2 SWAP1 PUSH2 0x2AE7 JUMP JUMPDEST PUSH1 0x40 MLOAD DUP1 SWAP2 SUB SWAP1 RETURN JUMPDEST PUSH2 0x3D4 PUSH1 0x4 DUP1 CALLDATASIZE SUB DUP2 ADD SWAP1 PUSH2 0x3CF SWAP2 SWAP1 PUSH2 0x2B5B JUMP JUMPDEST PUSH2 0x20DC JUMP JUMPDEST PUSH1 0x40 MLOAD PUSH2 0x3E1 SWAP2 SWAP1 PUSH2 0x28B6 JUMP JUMPDEST PUSH1 0x40 MLOAD DUP1 SWAP2 SUB SWAP1 RETURN JUMPDEST PUSH2 0x3F2 PUSH2 0x2178 JUMP JUMPDEST PUSH1 0x40 MLOAD PUSH2 0x3FF SWAP2 SWAP1 PUSH2 0x2B99 JUMP JUMPDEST PUSH1 0x40 MLOAD DUP1 SWAP2 SUB SWAP1 RETURN JUMPDEST PUSH0 PUSH1 0x6 PUSH0 CALLER PUSH20 0xFFFFFFFFFFFFFFFFFFFFFFFFFFFFFFFFFFFFFFFF AND PUSH20 0xFFFFFFFFFFFFFFFFFFFFFFFFFFFFFFFFFFFFFFFF AND DUP2 MSTORE PUSH1 0x20 ADD SWAP1 DUP2 MSTORE PUSH1 0x20 ADD PUSH0 KECCAK256 SLOAD SWAP1 POP PUSH0 DUP2 EQ ISZERO DUP1 ISZERO PUSH2 0x49D JUMPI POP PUSH1 0x1 PUSH1 0x3 DUP2 GT ISZERO PUSH2 0x468 JUMPI PUSH2 0x467 PUSH2 0x2627 JUMP JUMPDEST JUMPDEST PUSH1 0x5 PUSH0 DUP4 DUP2 MSTORE PUSH1 0x20 ADD SWAP1 DUP2 MSTORE PUSH1 0x20 ADD PUSH0 KECCAK256 PUSH1 0x3 ADD PUSH0 SWAP1 SLOAD SWAP1 PUSH2 0x100 EXP SWAP1 DIV PUSH1 0xFF AND PUSH1 0x3 DUP2 GT ISZERO PUSH2 0x49B JUMPI PUSH2 0x49A PUSH2 0x2627 JUMP JUMPDEST JUMPDEST EQ JUMPDEST PUSH2 0x4DC JUMPI PUSH1 0x40 MLOAD PUSH32 0x8C379A000000000000000000000000000000000000000000000000000000000 DUP2 MSTORE PUSH1 0x4 ADD PUSH2 0x4D3 SWAP1 PUSH2 0x2BFC JUMP JUMPDEST PUSH1 0x40 MLOAD DUP1 SWAP2 SUB SWAP1 REVERT JUMPDEST PUSH2 0x4E4 PUSH2 0x219C JUMP JUMPDEST PUSH0 PUSH20 0xFFFFFFFFFFFFFFFFFFFFFFFFFFFFFFFFFFFFFFFF AND DUP5 PUSH20 0xFFFFFFFFFFFFFFFFFFFFFFFFFFFFFFFFFFFFFFFF AND EQ ISZERO DUP1 ISZERO PUSH2 0x54C JUMPI POP CALLER PUSH20 0xFFFFFFFFFFFFFFFFFFFFFFFFFFFFFFFFFFFFFFFF AND DUP5 PUSH20 0xFFFFFFFFFFFFFFFFFFFFFFFFFFFFFFFFFFFFFFFF AND EQ ISZERO JUMPDEST PUSH2 0x58B JUMPI PUSH1 0x40 MLOAD PUSH32 0x8C379A000000000000000000000000000000000000000000000000000000000 DUP2 MSTORE PUSH1 0x4 ADD PUSH2 0x582 SWAP1 PUSH2 0x2C64 JUMP JUMPDEST PUSH1 0x40 MLOAD DUP1 SWAP2 SUB SWAP1 REVERT JUMPDEST PUSH0 DUP3 GT PUSH2 0x5CD JUMPI PUSH1 0x40 MLOAD PUSH32 0x8C379A000000000000000000000000000000000000000000000000000000000 DUP2 MSTORE PUSH1 0x4 ADD PUSH2 0x5C4 SWAP1 PUSH2 0x2CCC JUMP JUMPDEST PUSH1 0x40 MLOAD DUP1 SWAP2 SUB SWAP1 REVERT JUMPDEST PUSH0 SLOAD DUP4 LT PUSH2 0x610 JUMPI PUSH1 0x40 MLOAD PUSH32 0x8C379A000000000000000000000000000000000000000000000000000000000 DUP2 MSTORE PUSH1 0x4 ADD PUSH2 0x607 SWAP1 PUSH2 0x2D34 JUMP JUMPDEST PUSH1 0x40 MLOAD DUP1 SWAP2 SUB SWAP1 REVERT JUMPDEST PUSH0 PUSH1 0x6 PUSH0 CALLER PUSH20 0xFFFFFFFFFFFFFFFFFFFFFFFFFFFFFFFFFFFFFFFF AND PUSH20 0xFFFFFFFFFFFFFFFFFFFFFFFFFFFFFFFFFFFFFFFF AND DUP2 MSTORE PUSH1 0x20 ADD SWAP1 DUP2 MSTORE PUSH1 0x20 ADD PUSH0 KECCAK256 SLOAD SWAP1 POP PUSH0 PUSH1 0x6 PUSH0 DUP8 PUSH20 0xFFFFFFFFFFFFFFFFFFFFFFFFFFFFFFFFFFFFFFFF AND PUSH20 0xFFFFFFFFFFFFFFFFFFFFFFFFFFFFFFFFFFFFFFFF AND DUP2 MSTORE PUSH1 0x20 ADD SWAP1 DUP2 MSTORE PUSH1 0x20 ADD PUSH0 KECCAK256 SLOAD SWAP1 POP PUSH0 DUP2 SUB PUSH2 0x6D4 JUMPI PUSH1 0x40 MLOAD PUSH32 0x8C379A000000000000000000000000000000000000000000000000000000000 DUP2 MSTORE PUSH1 0x4 ADD PUSH2 0x6CB SWAP1 PUSH2 0x2D9C JUMP JUMPDEST PUSH1 0x40 MLOAD DUP1 SWAP2 SUB SWAP1 REVERT JUMPDEST PUSH2 0x6F1 PUSH1 0x5 PUSH0 DUP5 DUP2 MSTORE PUSH1 0x20 ADD SWAP1 DUP2 MSTORE PUSH1 0x20 ADD PUSH0 KECCAK256 PUSH1 0x2 ADD SLOAD PUSH2 0x21BE JUMP JUMPDEST ISZERO PUSH2 0x731 JUMPI PUSH1 0x40 MLOAD PUSH32 0x8C379A000000000000000000000000000000000000000000000000000000000 DUP2 MSTORE PUSH1 0x4 ADD PUSH2 0x728 SWAP1 PUSH2 0x2E04 JUMP JUMPDEST PUSH1 0x40 MLOAD DUP1 SWAP2 SUB SWAP1 REVERT JUMPDEST PUSH2 0x763 PUSH1 0x5 PUSH0 DUP5 DUP2 MSTORE PUSH1 0x20 ADD SWAP1 DUP2 MSTORE PUSH1 0x20 ADD PUSH0 KECCAK256 PUSH1 0x2 ADD SLOAD PUSH1 0x5 PUSH0 DUP5 DUP2 MSTORE PUSH1 0x20 ADD SWAP1 DUP2 MSTORE PUSH1 0x20 ADD PUSH0 KECCAK256 PUSH1 0x2 ADD SLOAD PUSH2 0x21E9 JUMP JUMPDEST PUSH2 0x7A2 JUMPI PUSH1 0x40 MLOAD PUSH32 0x8C379A000000000000000000000000000000000000000000000000000000000 DUP2 MSTORE PUSH1 0x4 ADD PUSH2 0x799 SWAP1 PUSH2 0x2E6C JUMP JUMPDEST PUSH1 0x40 MLOAD DUP1 SWAP2 SUB SWAP1 REVERT JUMPDEST PUSH0 PUSH1 0x3 PUSH0 DUP8 DUP2 MSTORE PUSH1 0x20 ADD SWAP1 DUP2 MSTORE PUSH1 0x20 ADD PUSH0 KECCAK256 SWAP1 POP DUP5 DUP2 PUSH1 0x7 ADD PUSH0 CALLER PUSH20 0xFFFFFFFFFFFFFFFFFFFFFFFFFFFFFFFFFFFFFFFF AND PUSH20 0xFFFFFFFFFFFFFFFFFFFFFFFFFFFFFFFFFFFFFFFF AND DUP2 MSTORE PUSH1 0x20 ADD SWAP1 DUP2 MSTORE PUSH1 0x20 ADD PUSH0 KECCAK256 SLOAD LT ISZERO PUSH2 0x838 JUMPI PUSH1 0x40 MLOAD PUSH32 0x8C379A000000000000000000000000000000000000000000000000000000000 DUP2 MSTORE PUSH1 0x4 ADD PUSH2 0x82F SWAP1 PUSH2 0x2ED4 JUMP JUMPDEST PUSH1 0x40 MLOAD DUP1 SWAP2 SUB SWAP1 REVERT JUMPDEST DUP5 DUP2 PUSH1 0x7 ADD PUSH0 CALLER PUSH20 0xFFFFFFFFFFFFFFFFFFFFFFFFFFFFFFFFFFFFFFFF AND PUSH20 0xFFFFFFFFFFFFFFFFFFFFFFFFFFFFFFFFFFFFFFFF AND DUP2 MSTORE PUSH1 0x20 ADD SWAP1 DUP2 MSTORE PUSH1 0x20 ADD PUSH0 KECCAK256 PUSH0 DUP3 DUP3 SLOAD PUSH2 0x886 SWAP2 SWAP1 PUSH2 0x2F1F JUMP JUMPDEST SWAP3 POP POP DUP2 SWAP1 SSTORE POP DUP5 DUP2 PUSH1 0x7 ADD PUSH0 DUP10 PUSH20 0xFFFFFFFFFFFFFFFFFFFFFFFFFFFFFFFFFFFFFFFF AND PUSH20 0xFFFFFFFFFFFFFFFFFFFFFFFFFFFFFFFFFFFFFFFF AND DUP2 MSTORE PUSH1 0x20 ADD SWAP1 DUP2 MSTORE PUSH1 0x20 ADD PUSH0 KECCAK256 PUSH0 DUP3 DUP3 SLOAD PUSH2 0x8DB SWAP2 SWAP1 PUSH2 0x2F52 JUMP JUMPDEST SWAP3 POP POP DUP2 SWAP1 SSTORE POP PUSH0 PUSH1 0x1 PUSH0 DUP2 SLOAD DUP1 SWAP3 SWAP2 SWAP1 PUSH2 0x8F5 SWAP1 PUSH2 0x2F85 JUMP JUMPDEST SWAP2 SWAP1 POP SSTORE SWAP1 POP PUSH1 0x40 MLOAD DUP1 PUSH1 0xE0 ADD PUSH1 0x40 MSTORE DUP1 DUP3 DUP2 MSTORE PUSH1 0x20 ADD CALLER PUSH20 0xFFFFFFFFFFFFFFFFFFFFFFFFFFFFFFFFFFFFFFFF AND DUP2 MSTORE PUSH1 0x20 ADD DUP10 PUSH20 0xFFFFFFFFFFFFFFFFFFFFFFFFFFFFFFFFFFFFFFFF AND DUP2 MSTORE PUSH1 0x20 ADD DUP9 DUP2 MSTORE PUSH1 0x20 ADD TIMESTAMP DUP2 MSTORE PUSH1 0x20 ADD DUP8 DUP2 MSTORE PUSH1 0x20 ADD PUSH0 PUSH1 0x2 DUP2 GT ISZERO PUSH2 0x969 JUMPI PUSH2 0x968 PUSH2 0x2627 JUMP JUMPDEST JUMPDEST DUP2 MSTORE POP PUSH1 0x4 PUSH0 DUP4 DUP2 MSTORE PUSH1 0x20 ADD SWAP1 DUP2 MSTORE PUSH1 0x20 ADD PUSH0 KECCAK256 PUSH0 DUP3 ADD MLOAD DUP2 PUSH0 ADD SSTORE PUSH1 0x20 DUP3 ADD MLOAD DUP2 PUSH1 0x1 ADD PUSH0 PUSH2 0x100 EXP DUP2 SLOAD DUP2 PUSH20 0xFFFFFFFFFFFFFFFFFFFFFFFFFFFFFFFFFFFFFFFF MUL NOT AND SWAP1 DUP4 PUSH20 0xFFFFFFFFFFFFFFFFFFFFFFFFFFFFFFFFFFFFFFFF AND MUL OR SWAP1 SSTORE POP PUSH1 0x40 DUP3 ADD MLOAD DUP2 PUSH1 0x2 ADD PUSH0 PUSH2 0x100 EXP DUP2 SLOAD DUP2 PUSH20 0xFFFFFFFFFFFFFFFFFFFFFFFFFFFFFFFFFFFFFFFF MUL NOT AND SWAP1 DUP4 PUSH20 0xFFFFFFFFFFFFFFFFFFFFFFFFFFFFFFFFFFFFFFFF AND MUL OR SWAP1 SSTORE POP PUSH1 0x60 DUP3 ADD MLOAD DUP2 PUSH1 0x3 ADD SSTORE PUSH1 0x80 DUP3 ADD MLOAD DUP2 PUSH1 0x4 ADD SSTORE PUSH1 0xA0 DUP3 ADD MLOAD DUP2 PUSH1 0x5 ADD SSTORE PUSH1 0xC0 DUP3 ADD MLOAD DUP2 PUSH1 0x6 ADD PUSH0 PUSH2 0x100 EXP DUP2 SLOAD DUP2 PUSH1 0xFF MUL NOT AND SWAP1 DUP4 PUSH1 0x2 DUP2 GT ISZERO PUSH2 0xA59 JUMPI PUSH2 0xA58 PUSH2 0x2627 JUMP JUMPDEST JUMPDEST MUL OR SWAP1 SSTORE POP SWAP1 POP POP DUP8 PUSH20 0xFFFFFFFFFFFFFFFFFFFFFFFFFFFFFFFFFFFFFFFF AND CALLER PUSH20 0xFFFFFFFFFFFFFFFFFFFFFFFFFFFFFFFFFFFFFFFF AND DUP3 PUSH32 0xC8262DC04F8F56ABC884E1F58CA17A373610558A6CEBC5E927B9E1C4668E5FDF DUP11 DUP11 PUSH1 0x40 MLOAD PUSH2 0xAC1 SWAP3 SWAP2 SWAP1 PUSH2 0x2FCC JUMP JUMPDEST PUSH1 0x40 MLOAD DUP1 SWAP2 SUB SWAP1 LOG4 POP POP POP POP PUSH2 0xAD5 PUSH2 0x22EA JUMP JUMPDEST POP POP POP POP JUMP JUMPDEST PUSH2 0xAE3 PUSH2 0x219C JUMP JUMPDEST PUSH0 PUSH1 0x4 PUSH0 DUP4 DUP2 MSTORE PUSH1 0x20 ADD SWAP1 DUP2 MSTORE PUSH1 0x20 ADD PUSH0 KECCAK256 SWAP1 POP PUSH0 PUSH1 0x2 DUP2 GT ISZERO PUSH2 0xB0A JUMPI PUSH2 0xB09 PUSH2 0x2627 JUMP JUMPDEST JUMPDEST DUP2 PUSH1 0x6 ADD PUSH0 SWAP1 SLOAD SWAP1 PUSH2 0x100 EXP SWAP1 DIV PUSH1 0xFF AND PUSH1 0x2 DUP2 GT ISZERO PUSH2 0xB2D JUMPI PUSH2 0xB2C PUSH2 0x2627 JUMP JUMPDEST JUMPDEST EQ PUSH2 0xB6D JUMPI PUSH1 0x40 MLOAD PUSH32 0x8C379A000000000000000000000000000000000000000000000000000000000 DUP2 MSTORE PUSH1 0x4 ADD PUSH2 0xB64 SWAP1 PUSH2 0x303D JUMP JUMPDEST PUSH1 0x40 MLOAD DUP1 SWAP2 SUB SWAP1 REVERT JUMPDEST DUP1 PUSH1 0x2 ADD PUSH0 SWAP1 SLOAD SWAP1 PUSH2 0x100 EXP SWAP1 DIV PUSH20 0xFFFFFFFFFFFFFFFFFFFFFFFFFFFFFFFFFFFFFFFF AND PUSH20 0xFFFFFFFFFFFFFFFFFFFFFFFFFFFFFFFFFFFFFFFF AND CALLER PUSH20 0xFFFFFFFFFFFFFFFFFFFFFFFFFFFFFFFFFFFFFFFF AND EQ DUP1 PUSH2 0xC15 JUMPI POP PUSH32 0x0 PUSH20 0xFFFFFFFFFFFFFFFFFFFFFFFFFFFFFFFFFFFFFFFF AND CALLER PUSH20 0xFFFFFFFFFFFFFFFFFFFFFFFFFFFFFFFFFFFFFFFF AND EQ JUMPDEST PUSH2 0xC54 JUMPI PUSH1 0x40 MLOAD PUSH32 0x8C379A000000000000000000000000000000000000000000000000000000000 DUP2 MSTORE PUSH1 0x4 ADD PUSH2 0xC4B SWAP1 PUSH2 0x30A5 JUMP JUMPDEST PUSH1 0x40 MLOAD DUP1 SWAP2 SUB SWAP1 REVERT JUMPDEST PUSH0 PUSH1 0x3 PUSH0 DUP4 PUSH1 0x3 ADD SLOAD DUP2 MSTORE PUSH1 0x20 ADD SWAP1 DUP2 MSTORE PUSH1 0x20 ADD PUSH0 KECCAK256 SWAP1 POP DUP2 PUSH1 0x5 ADD SLOAD DUP2 PUSH1 0x7 ADD PUSH0 DUP5 PUSH1 0x1 ADD PUSH0 SWAP1 SLOAD SWAP1 PUSH2 0x100 EXP SWAP1 DIV PUSH20 0xFFFFFFFFFFFFFFFFFFFFFFFFFFFFFFFFFFFFFFFF AND PUSH20 0xFFFFFFFFFFFFFFFFFFFFFFFFFFFFFFFFFFFFFFFF AND PUSH20 0xFFFFFFFFFFFFFFFFFFFFFFFFFFFFFFFFFFFFFFFF AND DUP2 MSTORE PUSH1 0x20 ADD SWAP1 DUP2 MSTORE PUSH1 0x20 ADD PUSH0 KECCAK256 PUSH0 DUP3 DUP3 SLOAD PUSH2 0xCE1 SWAP2 SWAP1 PUSH2 0x2F52 JUMP JUMPDEST SWAP3 POP POP DUP2 SWAP1 SSTORE POP PUSH1 0x2 DUP3 PUSH1 0x6 ADD PUSH0 PUSH2 0x100 EXP DUP2 SLOAD DUP2 PUSH1 0xFF MUL NOT AND SWAP1 DUP4 PUSH1 0x2 DUP2 GT ISZERO PUSH2 0xD0F JUMPI PUSH2 0xD0E PUSH2 0x2627 JUMP JUMPDEST JUMPDEST MUL OR SWAP1 SSTORE POP DUP3 PUSH32 0x1F4F8A94E17D25044030F376D297769C8F9A1A2A0616E36B498A1E7370B5863F PUSH1 0x40 MLOAD PUSH1 0x40 MLOAD DUP1 SWAP2 SUB SWAP1 LOG2 POP POP PUSH2 0xD4B PUSH2 0x22EA JUMP JUMPDEST POP JUMP JUMPDEST PUSH0 PUSH1 0x6 PUSH0 CALLER PUSH20 0xFFFFFFFFFFFFFFFFFFFFFFFFFFFFFFFFFFFFFFFF AND PUSH20 0xFFFFFFFFFFFFFFFFFFFFFFFFFFFFFFFFFFFFFFFF AND DUP2 MSTORE PUSH1 0x20 ADD SWAP1 DUP2 MSTORE PUSH1 0x20 ADD PUSH0 KECCAK256 SLOAD SWAP1 POP PUSH0 DUP2 EQ ISZERO DUP1 ISZERO PUSH2 0xDE3 JUMPI POP PUSH1 0x1 PUSH1 0x3 DUP2 GT ISZERO PUSH2 0xDAE JUMPI PUSH2 0xDAD PUSH2 0x2627 JUMP JUMPDEST JUMPDEST PUSH1 0x5 PUSH0 DUP4 DUP2 MSTORE PUSH1 0x20 ADD SWAP1 DUP2 MSTORE PUSH1 0x20 ADD PUSH0 KECCAK256 PUSH1 0x3 ADD PUSH0 SWAP1 SLOAD SWAP1 PUSH2 0x100 EXP SWAP1 DIV PUSH1 0xFF AND PUSH1 0x3 DUP2 GT ISZERO PUSH2 0xDE1 JUMPI PUSH2 0xDE0 PUSH2 0x2627 JUMP JUMPDEST JUMPDEST EQ JUMPDEST PUSH2 0xE22 JUMPI PUSH1 0x40 MLOAD PUSH32 0x8C379A000000000000000000000000000000000000000000000000000000000 DUP2 MSTORE PUSH1 0x4 ADD PUSH2 0xE19 SWAP1 PUSH2 0x2BFC JUMP JUMPDEST PUSH1 0x40 MLOAD DUP1 SWAP2 SUB SWAP1 REVERT JUMPDEST PUSH0 PUSH1 0x4 PUSH0 DUP5 DUP2 MSTORE PUSH1 0x20 ADD SWAP1 DUP2 MSTORE PUSH1 0x20 ADD PUSH0 KECCAK256 SWAP1 POP PUSH0 PUSH1 0x2 DUP2 GT ISZERO PUSH2 0xE49 JUMPI PUSH2 0xE48 PUSH2 0x2627 JUMP JUMPDEST JUMPDEST DUP2 PUSH1 0x6 ADD PUSH0 SWAP1 SLOAD SWAP1 PUSH2 0x100 EXP SWAP1 DIV PUSH1 0xFF AND PUSH1 0x2 DUP2 GT ISZERO PUSH2 0xE6C JUMPI PUSH2 0xE6B PUSH2 0x2627 JUMP JUMPDEST JUMPDEST EQ PUSH2 0xEAC JUMPI PUSH1 0x40 MLOAD PUSH32 0x8C379A000000000000000000000000000000000000000000000000000000000 DUP2 MSTORE PUSH1 0x4 ADD PUSH2 0xEA3 SWAP1 PUSH2 0x303D JUMP JUMPDEST PUSH1 0x40 MLOAD DUP1 SWAP2 SUB SWAP1 REVERT JUMPDEST DUP1 PUSH1 0x2 ADD PUSH0 SWAP1 SLOAD SWAP1 PUSH2 0x100 EXP SWAP1 DIV PUSH20 0xFFFFFFFFFFFFFFFFFFFFFFFFFFFFFFFFFFFFFFFF AND PUSH20 0xFFFFFFFFFFFFFFFFFFFFFFFFFFFFFFFFFFFFFFFF AND CALLER PUSH20 0xFFFFFFFFFFFFFFFFFFFFFFFFFFFFFFFFFFFFFFFF AND EQ PUSH2 0xF3D JUMPI PUSH1 0x40 MLOAD PUSH32 0x8C379A000000000000000000000000000000000000000000000000000000000 DUP2 MSTORE PUSH1 0x4 ADD PUSH2 0xF34 SWAP1 PUSH2 0x310D JUMP JUMPDEST PUSH1 0x40 MLOAD DUP1 SWAP2 SUB SWAP1 REVERT JUMPDEST PUSH0 PUSH1 0x6 PUSH0 DUP4 PUSH1 0x2 ADD PUSH0 SWAP1 SLOAD SWAP1 PUSH2 0x100 EXP SWAP1 DIV PUSH20 0xFFFFFFFFFFFFFFFFFFFFFFFFFFFFFFFFFFFFFFFF AND PUSH20 0xFFFFFFFFFFFFFFFFFFFFFFFFFFFFFFFFFFFFFFFF AND PUSH20 0xFFFFFFFFFFFFFFFFFFFFFFFFFFFFFFFFFFFFFFFF AND DUP2 MSTORE PUSH1 0x20 ADD SWAP1 DUP2 MSTORE PUSH1 0x20 ADD PUSH0 KECCAK256 SLOAD SWAP1 POP PUSH2 0x1033 PUSH1 0x5 PUSH0 PUSH1 0x6 PUSH0 DUP7 PUSH1 0x1 ADD PUSH0 SWAP1 SLOAD SWAP1 PUSH2 0x100 EXP SWAP1 DIV PUSH20 0xFFFFFFFFFFFFFFFFFFFFFFFFFFFFFFFFFFFFFFFF AND PUSH20 0xFFFFFFFFFFFFFFFFFFFFFFFFFFFFFFFFFFFFFFFF AND PUSH20 0xFFFFFFFFFFFFFFFFFFFFFFFFFFFFFFFFFFFFFFFF AND DUP2 MSTORE PUSH1 0x20 ADD SWAP1 DUP2 MSTORE PUSH1 0x20 ADD PUSH0 KECCAK256 SLOAD DUP2 MSTORE PUSH1 0x20 ADD SWAP1 DUP2 MSTORE PUSH1 0x20 ADD PUSH0 KECCAK256 PUSH1 0x2 ADD SLOAD PUSH1 0x5 PUSH0 DUP5 DUP2 MSTORE PUSH1 0x20 ADD SWAP1 DUP2 MSTORE PUSH1 0x20 ADD PUSH0 KECCAK256 PUSH1 0x2 ADD SLOAD PUSH2 0x21E9 JUMP JUMPDEST PUSH2 0x1072 JUMPI PUSH1 0x40 MLOAD PUSH32 0x8C379A000000000000000000000000000000000000000000000000000000000 DUP2 MSTORE PUSH1 0x4 ADD PUSH2 0x1069 SWAP1 PUSH2 0x2E6C JUMP JUMPDEST PUSH1 0x40 MLOAD DUP1 SWAP2 SUB SWAP1 REVERT JUMPDEST PUSH1 0x1 DUP3 PUSH1 0x6 ADD PUSH0 PUSH2 0x100 EXP DUP2 SLOAD DUP2 PUSH1 0xFF MUL NOT AND SWAP1 DUP4 PUSH1 0x2 DUP2 GT ISZERO PUSH2 0x1099 JUMPI PUSH2 0x1098 PUSH2 0x2627 JUMP JUMPDEST JUMPDEST MUL OR SWAP1 SSTORE POP DUP4 PUSH32 0x91DD4234B45D77221E6ECA52C141569A6D0F3B3FFE9B8A18FE8B9AAFBC64B44B PUSH1 0x40 MLOAD PUSH1 0x40 MLOAD DUP1 SWAP2 SUB SWAP1 LOG2 POP POP POP POP JUMP JUMPDEST PUSH1 0x60 PUSH0 PUSH1 0x1 DUP1 SLOAD PUSH2 0x10E2 SWAP2 SWAP1 PUSH2 0x2F1F JUMP JUMPDEST PUSH8 0xFFFFFFFFFFFFFFFF DUP2 GT ISZERO PUSH2 0x10FB JUMPI PUSH2 0x10FA PUSH2 0x312B JUMP JUMPDEST JUMPDEST PUSH1 0x40 MLOAD SWAP1 DUP1 DUP3 MSTORE DUP1 PUSH1 0x20 MUL PUSH1 0x20 ADD DUP3 ADD PUSH1 0x40 MSTORE DUP1 ISZERO PUSH2 0x1129 JUMPI DUP2 PUSH1 0x20 ADD PUSH1 0x20 DUP3 MUL DUP1 CALLDATASIZE DUP4 CALLDATACOPY DUP1 DUP3 ADD SWAP2 POP POP SWAP1 POP JUMPDEST POP SWAP1 POP PUSH0 PUSH0 SWAP1 POP PUSH0 PUSH1 0x1 SWAP1 POP JUMPDEST PUSH1 0x1 SLOAD DUP2 LT ISZERO PUSH2 0x123F JUMPI PUSH0 PUSH1 0x4 PUSH0 DUP4 DUP2 MSTORE PUSH1 0x20 ADD SWAP1 DUP2 MSTORE PUSH1 0x20 ADD PUSH0 KECCAK256 SWAP1 POP DUP6 PUSH20 0xFFFFFFFFFFFFFFFFFFFFFFFFFFFFFFFFFFFFFFFF AND DUP2 PUSH1 0x1 ADD PUSH0 SWAP1 SLOAD SWAP1 PUSH2 0x100 EXP SWAP1 DIV PUSH20 0xFFFFFFFFFFFFFFFFFFFFFFFFFFFFFFFFFFFFFFFF AND PUSH20 0xFFFFFFFFFFFFFFFFFFFFFFFFFFFFFFFFFFFFFFFF AND EQ DUP1 PUSH2 0x11FF JUMPI POP DUP6 PUSH20 0xFFFFFFFFFFFFFFFFFFFFFFFFFFFFFFFFFFFFFFFF AND DUP2 PUSH1 0x2 ADD PUSH0 SWAP1 SLOAD SWAP1 PUSH2 0x100 EXP SWAP1 DIV PUSH20 0xFFFFFFFFFFFFFFFFFFFFFFFFFFFFFFFFFFFFFFFF AND PUSH20 0xFFFFFFFFFFFFFFFFFFFFFFFFFFFFFFFFFFFFFFFF AND EQ JUMPDEST ISZERO PUSH2 0x1231 JUMPI DUP2 DUP5 DUP5 DUP1 PUSH2 0x1211 SWAP1 PUSH2 0x2F85 JUMP JUMPDEST SWAP6 POP DUP2 MLOAD DUP2 LT PUSH2 0x1224 JUMPI PUSH2 0x1223 PUSH2 0x3158 JUMP JUMPDEST JUMPDEST PUSH1 0x20 MUL PUSH1 0x20 ADD ADD DUP2 DUP2 MSTORE POP POP JUMPDEST POP DUP1 DUP1 PUSH1 0x1 ADD SWAP2 POP POP PUSH2 0x1136 JUMP JUMPDEST POP PUSH0 DUP2 PUSH8 0xFFFFFFFFFFFFFFFF DUP2 GT ISZERO PUSH2 0x125B JUMPI PUSH2 0x125A PUSH2 0x312B JUMP JUMPDEST JUMPDEST PUSH1 0x40 MLOAD SWAP1 DUP1 DUP3 MSTORE DUP1 PUSH1 0x20 MUL PUSH1 0x20 ADD DUP3 ADD PUSH1 0x40 MSTORE DUP1 ISZERO PUSH2 0x1289 JUMPI DUP2 PUSH1 0x20 ADD PUSH1 0x20 DUP3 MUL DUP1 CALLDATASIZE DUP4 CALLDATACOPY DUP1 DUP3 ADD SWAP2 POP POP SWAP1 POP JUMPDEST POP SWAP1 POP PUSH0 PUSH0 SWAP1 POP JUMPDEST DUP3 DUP2 LT ISZERO PUSH2 0x12E0 JUMPI DUP4 DUP2 DUP2 MLOAD DUP2 LT PUSH2 0x12AC JUMPI PUSH2 0x12AB PUSH2 0x3158 JUMP JUMPDEST JUMPDEST PUSH1 0x20 MUL PUSH1 0x20 ADD ADD MLOAD DUP3 DUP3 DUP2 MLOAD DUP2 LT PUSH2 0x12C7 JUMPI PUSH2 0x12C6 PUSH2 0x3158 JUMP JUMPDEST JUMPDEST PUSH1 0x20 MUL PUSH1 0x20 ADD ADD DUP2 DUP2 MSTORE POP POP DUP1 DUP1 PUSH1 0x1 ADD SWAP2 POP POP PUSH2 0x1291 JUMP JUMPDEST POP DUP1 SWAP4 POP POP POP POP SWAP2 SWAP1 POP JUMP JUMPDEST PUSH1 0x5 PUSH1 0x20 MSTORE DUP1 PUSH0 MSTORE PUSH1 0x40 PUSH0 KECCAK256 PUSH0 SWAP2 POP SWAP1 POP DUP1 PUSH0 ADD SLOAD SWAP1 DUP1 PUSH1 0x1 ADD PUSH0 SWAP1 SLOAD SWAP1 PUSH2 0x100 EXP SWAP1 DIV PUSH20 0xFFFFFFFFFFFFFFFFFFFFFFFFFFFFFFFFFFFFFFFF AND SWAP1 DUP1 PUSH1 0x2 ADD SLOAD SWAP1 DUP1 PUSH1 0x3 ADD PUSH0 SWAP1 SLOAD SWAP1 PUSH2 0x100 EXP SWAP1 DIV PUSH1 0xFF AND SWAP1 POP DUP5 JUMP JUMPDEST PUSH0 PUSH0 SHL DUP2 SUB PUSH2 0x1387 JUMPI PUSH1 0x40 MLOAD PUSH32 0x8C379A000000000000000000000000000000000000000000000000000000000 DUP2 MSTORE PUSH1 0x4 ADD PUSH2 0x137E SWAP1 PUSH2 0x31CF JUMP JUMPDEST PUSH1 0x40 MLOAD DUP1 SWAP2 SUB SWAP1 REVERT JUMPDEST PUSH0 PUSH1 0x6 PUSH0 CALLER PUSH20 0xFFFFFFFFFFFFFFFFFFFFFFFFFFFFFFFFFFFFFFFF AND PUSH20 0xFFFFFFFFFFFFFFFFFFFFFFFFFFFFFFFFFFFFFFFF AND DUP2 MSTORE PUSH1 0x20 ADD SWAP1 DUP2 MSTORE PUSH1 0x20 ADD PUSH0 KECCAK256 SLOAD SWAP1 POP PUSH0 DUP2 SUB PUSH2 0x1512 JUMPI PUSH1 0x2 PUSH0 DUP2 SLOAD DUP1 SWAP3 SWAP2 SWAP1 PUSH2 0x13E1 SWAP1 PUSH2 0x2F85 JUMP JUMPDEST SWAP2 SWAP1 POP SSTORE SWAP1 POP PUSH1 0x40 MLOAD DUP1 PUSH1 0x80 ADD PUSH1 0x40 MSTORE DUP1 DUP3 DUP2 MSTORE PUSH1 0x20 ADD CALLER PUSH20 0xFFFFFFFFFFFFFFFFFFFFFFFFFFFFFFFFFFFFFFFF AND DUP2 MSTORE PUSH1 0x20 ADD DUP4 DUP2 MSTORE PUSH1 0x20 ADD PUSH0 PUSH1 0x3 DUP2 GT ISZERO PUSH2 0x142D JUMPI PUSH2 0x142C PUSH2 0x2627 JUMP JUMPDEST JUMPDEST DUP2 MSTORE POP PUSH1 0x5 PUSH0 DUP4 DUP2 MSTORE PUSH1 0x20 ADD SWAP1 DUP2 MSTORE PUSH1 0x20 ADD PUSH0 KECCAK256 PUSH0 DUP3 ADD MLOAD DUP2 PUSH0 ADD SSTORE PUSH1 0x20 DUP3 ADD MLOAD DUP2 PUSH1 0x1 ADD PUSH0 PUSH2 0x100 EXP DUP2 SLOAD DUP2 PUSH20 0xFFFFFFFFFFFFFFFFFFFFFFFFFFFFFFFFFFFFFFFF MUL NOT AND SWAP1 DUP4 PUSH20 0xFFFFFFFFFFFFFFFFFFFFFFFFFFFFFFFFFFFFFFFF AND MUL OR SWAP1 SSTORE POP PUSH1 0x40 DUP3 ADD MLOAD DUP2 PUSH1 0x2 ADD SSTORE PUSH1 0x60 DUP3 ADD MLOAD DUP2 PUSH1 0x3 ADD PUSH0 PUSH2 0x100 EXP DUP2 SLOAD DUP2 PUSH1 0xFF MUL NOT AND SWAP1 DUP4 PUSH1 0x3 DUP2 GT ISZERO PUSH2 0x14C3 JUMPI PUSH2 0x14C2 PUSH2 0x2627 JUMP JUMPDEST JUMPDEST MUL OR SWAP1 SSTORE POP SWAP1 POP POP DUP1 PUSH1 0x6 PUSH0 CALLER PUSH20 0xFFFFFFFFFFFFFFFFFFFFFFFFFFFFFFFFFFFFFFFF AND PUSH20 0xFFFFFFFFFFFFFFFFFFFFFFFFFFFFFFFFFFFFFFFF AND DUP2 MSTORE PUSH1 0x20 ADD SWAP1 DUP2 MSTORE PUSH1 0x20 ADD PUSH0 KECCAK256 DUP2 SWAP1 SSTORE POP PUSH2 0x1567 JUMP JUMPDEST DUP2 PUSH1 0x5 PUSH0 DUP4 DUP2 MSTORE PUSH1 0x20 ADD SWAP1 DUP2 MSTORE PUSH1 0x20 ADD PUSH0 KECCAK256 PUSH1 0x2 ADD DUP2 SWAP1 SSTORE POP PUSH0 PUSH1 0x5 PUSH0 DUP4 DUP2 MSTORE PUSH1 0x20 ADD SWAP1 DUP2 MSTORE PUSH1 0x20 ADD PUSH0 KECCAK256 PUSH1 0x3 ADD PUSH0 PUSH2 0x100 EXP DUP2 SLOAD DUP2 PUSH1 0xFF MUL NOT AND SWAP1 DUP4 PUSH1 0x3 DUP2 GT ISZERO PUSH2 0x1561 JUMPI PUSH2 0x1560 PUSH2 0x2627 JUMP JUMPDEST JUMPDEST MUL OR SWAP1 SSTORE POP JUMPDEST CALLER PUSH20 0xFFFFFFFFFFFFFFFFFFFFFFFFFFFFFFFFFFFFFFFF AND PUSH32 0x6462C5E0AF9BF3A12E42A57283F899627CB117E108991E3EFDA5D27188CC85C1 DUP4 PUSH1 0x40 MLOAD PUSH2 0x15AD SWAP2 SWAP1 PUSH2 0x31ED JUMP JUMPDEST PUSH1 0x40 MLOAD DUP1 SWAP2 SUB SWAP1 LOG2 CALLER PUSH20 0xFFFFFFFFFFFFFFFFFFFFFFFFFFFFFFFFFFFFFFFF AND PUSH32 0xB3B609C7A5E504A312603E90D906D1667FD5CAFF0A840AD07BF5709A3CA1A045 PUSH0 PUSH1 0x40 MLOAD PUSH2 0x15FB SWAP2 SWAP1 PUSH2 0x3206 JUMP JUMPDEST PUSH1 0x40 MLOAD DUP1 SWAP2 SUB SWAP1 LOG2 POP POP JUMP JUMPDEST PUSH1 0x3 PUSH1 0x20 MSTORE DUP1 PUSH0 MSTORE PUSH1 0x40 PUSH0 KECCAK256 PUSH0 SWAP2 POP SWAP1 POP DUP1 PUSH0 ADD SLOAD SWAP1 DUP1 PUSH1 0x1 ADD PUSH0 SWAP1 SLOAD SWAP1 PUSH2 0x100 EXP SWAP1 DIV PUSH20 0xFFFFFFFFFFFFFFFFFFFFFFFFFFFFFFFFFFFFFFFF AND SWAP1 DUP1 PUSH1 0x2 ADD DUP1 SLOAD PUSH2 0x1651 SWAP1 PUSH2 0x324C JUMP JUMPDEST DUP1 PUSH1 0x1F ADD PUSH1 0x20 DUP1 SWAP2 DIV MUL PUSH1 0x20 ADD PUSH1 0x40 MLOAD SWAP1 DUP2 ADD PUSH1 0x40 MSTORE DUP1 SWAP3 SWAP2 SWAP1 DUP2 DUP2 MSTORE PUSH1 0x20 ADD DUP3 DUP1 SLOAD PUSH2 0x167D SWAP1 PUSH2 0x324C JUMP JUMPDEST DUP1 ISZERO PUSH2 0x16C8 JUMPI DUP1 PUSH1 0x1F LT PUSH2 0x169F JUMPI PUSH2 0x100 DUP1 DUP4 SLOAD DIV MUL DUP4 MSTORE SWAP2 PUSH1 0x20 ADD SWAP2 PUSH2 0x16C8 JUMP JUMPDEST DUP3 ADD SWAP2 SWAP1 PUSH0 MSTORE PUSH1 0x20 PUSH0 KECCAK256 SWAP1 JUMPDEST DUP2 SLOAD DUP2 MSTORE SWAP1 PUSH1 0x1 ADD SWAP1 PUSH1 0x20 ADD DUP1 DUP4 GT PUSH2 0x16AB JUMPI DUP3 SWAP1 SUB PUSH1 0x1F AND DUP3 ADD SWAP2 JUMPDEST POP POP POP POP POP SWAP1 DUP1 PUSH1 0x3 ADD SLOAD SWAP1 DUP1 PUSH1 0x4 ADD DUP1 SLOAD PUSH2 0x16E3 SWAP1 PUSH2 0x324C JUMP JUMPDEST DUP1 PUSH1 0x1F ADD PUSH1 0x20 DUP1 SWAP2 DIV MUL PUSH1 0x20 ADD PUSH1 0x40 MLOAD SWAP1 DUP2 ADD PUSH1 0x40 MSTORE DUP1 SWAP3 SWAP2 SWAP1 DUP2 DUP2 MSTORE PUSH1 0x20 ADD DUP3 DUP1 SLOAD PUSH2 0x170F SWAP1 PUSH2 0x324C JUMP JUMPDEST DUP1 ISZERO PUSH2 0x175A JUMPI DUP1 PUSH1 0x1F LT PUSH2 0x1731 JUMPI PUSH2 0x100 DUP1 DUP4 SLOAD DIV MUL DUP4 MSTORE SWAP2 PUSH1 0x20 ADD SWAP2 PUSH2 0x175A JUMP JUMPDEST DUP3 ADD SWAP2 SWAP1 PUSH0 MSTORE PUSH1 0x20 PUSH0 KECCAK256 SWAP1 JUMPDEST DUP2 SLOAD DUP2 MSTORE SWAP1 PUSH1 0x1 ADD SWAP1 PUSH1 0x20 ADD DUP1 DUP4 GT PUSH2 0x173D JUMPI DUP3 SWAP1 SUB PUSH1 0x1F AND DUP3 ADD SWAP2 JUMPDEST POP POP POP POP POP SWAP1 DUP1 PUSH1 0x5 ADD SLOAD SWAP1 DUP1 PUSH1 0x6 ADD SLOAD SWAP1 POP DUP8 JUMP JUMPDEST PUSH1 0x60 PUSH0 PUSH1 0x1 PUSH0 SLOAD PUSH2 0x1781 SWAP2 SWAP1 PUSH2 0x2F1F JUMP JUMPDEST PUSH8 0xFFFFFFFFFFFFFFFF DUP2 GT ISZERO PUSH2 0x179A JUMPI PUSH2 0x1799 PUSH2 0x312B JUMP JUMPDEST JUMPDEST PUSH1 0x40 MLOAD SWAP1 DUP1 DUP3 MSTORE DUP1 PUSH1 0x20 MUL PUSH1 0x20 ADD DUP3 ADD PUSH1 0x40 MSTORE DUP1 ISZERO PUSH2 0x17C8 JUMPI DUP2 PUSH1 0x20 ADD PUSH1 0x20 DUP3 MUL DUP1 CALLDATASIZE DUP4 CALLDATACOPY DUP1 DUP3 ADD SWAP2 POP POP SWAP1 POP JUMPDEST POP SWAP1 POP PUSH0 PUSH0 SWAP1 POP PUSH0 PUSH1 0x1 SWAP1 POP JUMPDEST PUSH0 SLOAD DUP2 LT ISZERO PUSH2 0x18CD JUMPI PUSH0 PUSH1 0x3 PUSH0 DUP4 DUP2 MSTORE PUSH1 0x20 ADD SWAP1 DUP2 MSTORE PUSH1 0x20 ADD PUSH0 KECCAK256 SWAP1 POP DUP6 PUSH20 0xFFFFFFFFFFFFFFFFFFFFFFFFFFFFFFFFFFFFFFFF AND DUP2 PUSH1 0x1 ADD PUSH0 SWAP1 SLOAD SWAP1 PUSH2 0x100 EXP SWAP1 DIV PUSH20 0xFFFFFFFFFFFFFFFFFFFFFFFFFFFFFFFFFFFFFFFF AND PUSH20 0xFFFFFFFFFFFFFFFFFFFFFFFFFFFFFFFFFFFFFFFF AND EQ DUP1 PUSH2 0x188D JUMPI POP PUSH0 DUP2 PUSH1 0x7 ADD PUSH0 DUP9 PUSH20 0xFFFFFFFFFFFFFFFFFFFFFFFFFFFFFFFFFFFFFFFF AND PUSH20 0xFFFFFFFFFFFFFFFFFFFFFFFFFFFFFFFFFFFFFFFF AND DUP2 MSTORE PUSH1 0x20 ADD SWAP1 DUP2 MSTORE PUSH1 0x20 ADD PUSH0 KECCAK256 SLOAD GT JUMPDEST ISZERO PUSH2 0x18BF JUMPI DUP2 DUP5 DUP5 DUP1 PUSH2 0x189F SWAP1 PUSH2 0x2F85 JUMP JUMPDEST SWAP6 POP DUP2 MLOAD DUP2 LT PUSH2 0x18B2 JUMPI PUSH2 0x18B1 PUSH2 0x3158 JUMP JUMPDEST JUMPDEST PUSH1 0x20 MUL PUSH1 0x20 ADD ADD DUP2 DUP2 MSTORE POP POP JUMPDEST POP DUP1 DUP1 PUSH1 0x1 ADD SWAP2 POP POP PUSH2 0x17D5 JUMP JUMPDEST POP PUSH0 DUP2 PUSH8 0xFFFFFFFFFFFFFFFF DUP2 GT ISZERO PUSH2 0x18E9 JUMPI PUSH2 0x18E8 PUSH2 0x312B JUMP JUMPDEST JUMPDEST PUSH1 0x40 MLOAD SWAP1 DUP1 DUP3 MSTORE DUP1 PUSH1 0x20 MUL PUSH1 0x20 ADD DUP3 ADD PUSH1 0x40 MSTORE DUP1 ISZERO PUSH2 0x1917 JUMPI DUP2 PUSH1 0x20 ADD PUSH1 0x20 DUP3 MUL DUP1 CALLDATASIZE DUP4 CALLDATACOPY DUP1 DUP3 ADD SWAP2 POP POP SWAP1 POP JUMPDEST POP SWAP1 POP PUSH0 PUSH0 SWAP1 POP JUMPDEST DUP3 DUP2 LT ISZERO PUSH2 0x196E JUMPI DUP4 DUP2 DUP2 MLOAD DUP2 LT PUSH2 0x193A JUMPI PUSH2 0x1939 PUSH2 0x3158 JUMP JUMPDEST JUMPDEST PUSH1 0x20 MUL PUSH1 0x20 ADD ADD MLOAD DUP3 DUP3 DUP2 MLOAD DUP2 LT PUSH2 0x1955 JUMPI PUSH2 0x1954 PUSH2 0x3158 JUMP JUMPDEST JUMPDEST PUSH1 0x20 MUL PUSH1 0x20 ADD ADD DUP2 DUP2 MSTORE POP POP DUP1 DUP1 PUSH1 0x1 ADD SWAP2 POP POP PUSH2 0x191F JUMP JUMPDEST POP DUP1 SWAP4 POP POP POP POP SWAP2 SWAP1 POP JUMP JUMPDEST PUSH2 0x1982 PUSH2 0x2393 JUMP JUMPDEST PUSH0 PUSH1 0x6 PUSH0 DUP5 PUSH20 0xFFFFFFFFFFFFFFFFFFFFFFFFFFFFFFFFFFFFFFFF AND PUSH20 0xFFFFFFFFFFFFFFFFFFFFFFFFFFFFFFFFFFFFFFFF AND DUP2 MSTORE PUSH1 0x20 ADD SWAP1 DUP2 MSTORE PUSH1 0x20 ADD PUSH0 KECCAK256 SLOAD SWAP1 POP PUSH0 DUP2 EQ PUSH2 0x1A8D JUMPI PUSH1 0x5 PUSH0 DUP3 DUP2 MSTORE PUSH1 0x20 ADD SWAP1 DUP2 MSTORE PUSH1 0x20 ADD PUSH0 KECCAK256 PUSH1 0x40 MLOAD DUP1 PUSH1 0x80 ADD PUSH1 0x40 MSTORE SWAP1 DUP2 PUSH0 DUP3 ADD SLOAD DUP2 MSTORE PUSH1 0x20 ADD PUSH1 0x1 DUP3 ADD PUSH0 SWAP1 SLOAD SWAP1 PUSH2 0x100 EXP SWAP1 DIV PUSH20 0xFFFFFFFFFFFFFFFFFFFFFFFFFFFFFFFFFFFFFFFF AND PUSH20 0xFFFFFFFFFFFFFFFFFFFFFFFFFFFFFFFFFFFFFFFF AND PUSH20 0xFFFFFFFFFFFFFFFFFFFFFFFFFFFFFFFFFFFFFFFF AND DUP2 MSTORE PUSH1 0x20 ADD PUSH1 0x2 DUP3 ADD SLOAD DUP2 MSTORE PUSH1 0x20 ADD PUSH1 0x3 DUP3 ADD PUSH0 SWAP1 SLOAD SWAP1 PUSH2 0x100 EXP SWAP1 DIV PUSH1 0xFF AND PUSH1 0x3 DUP2 GT ISZERO PUSH2 0x1A72 JUMPI PUSH2 0x1A71 PUSH2 0x2627 JUMP JUMPDEST JUMPDEST PUSH1 0x3 DUP2 GT ISZERO PUSH2 0x1A84 JUMPI PUSH2 0x1A83 PUSH2 0x2627 JUMP JUMPDEST JUMPDEST DUP2 MSTORE POP POP PUSH2 0x1AD8 JUMP JUMPDEST PUSH1 0x40 MLOAD DUP1 PUSH1 0x80 ADD PUSH1 0x40 MSTORE DUP1 PUSH0 DUP2 MSTORE PUSH1 0x20 ADD PUSH0 PUSH20 0xFFFFFFFFFFFFFFFFFFFFFFFFFFFFFFFFFFFFFFFF AND DUP2 MSTORE PUSH1 0x20 ADD PUSH0 DUP2 MSTORE PUSH1 0x20 ADD PUSH1 0x2 PUSH1 0x3 DUP2 GT ISZERO PUSH2 0x1AD4 JUMPI PUSH2 0x1AD3 PUSH2 0x2627 JUMP JUMPDEST JUMPDEST DUP2 MSTORE POP JUMPDEST SWAP2 POP POP SWAP2 SWAP1 POP JUMP JUMPDEST PUSH0 SLOAD DUP2 JUMP JUMPDEST PUSH32 0x0 PUSH20 0xFFFFFFFFFFFFFFFFFFFFFFFFFFFFFFFFFFFFFFFF AND CALLER PUSH20 0xFFFFFFFFFFFFFFFFFFFFFFFFFFFFFFFFFFFFFFFF AND EQ PUSH2 0x1B73 JUMPI PUSH1 0x40 MLOAD PUSH32 0x8C379A000000000000000000000000000000000000000000000000000000000 DUP2 MSTORE PUSH1 0x4 ADD PUSH2 0x1B6A SWAP1 PUSH2 0x32C6 JUMP JUMPDEST PUSH1 0x40 MLOAD DUP1 SWAP2 SUB SWAP1 REVERT JUMPDEST PUSH0 PUSH1 0x6 PUSH0 DUP5 PUSH20 0xFFFFFFFFFFFFFFFFFFFFFFFFFFFFFFFFFFFFFFFF AND PUSH20 0xFFFFFFFFFFFFFFFFFFFFFFFFFFFFFFFFFFFFFFFF AND DUP2 MSTORE PUSH1 0x20 ADD SWAP1 DUP2 MSTORE PUSH1 0x20 ADD PUSH0 KECCAK256 SLOAD SWAP1 POP PUSH0 DUP2 SUB PUSH2 0x1BF6 JUMPI PUSH1 0x40 MLOAD PUSH32 0x8C379A000000000000000000000000000000000000000000000000000000000 DUP2 MSTORE PUSH1 0x4 ADD PUSH2 0x1BED SWAP1 PUSH2 0x332E JUMP JUMPDEST PUSH1 0x40 MLOAD DUP1 SWAP2 SUB SWAP1 REVERT JUMPDEST DUP2 PUSH1 0x5 PUSH0 DUP4 DUP2 MSTORE PUSH1 0x20 ADD SWAP1 DUP2 MSTORE PUSH1 0x20 ADD PUSH0 KECCAK256 PUSH1 0x3 ADD PUSH0 PUSH2 0x100 EXP DUP2 SLOAD DUP2 PUSH1 0xFF MUL NOT AND SWAP1 DUP4 PUSH1 0x3 DUP2 GT ISZERO PUSH2 0x1C2C JUMPI PUSH2 0x1C2B PUSH2 0x2627 JUMP JUMPDEST JUMPDEST MUL OR SWAP1 SSTORE POP DUP3 PUSH20 0xFFFFFFFFFFFFFFFFFFFFFFFFFFFFFFFFFFFFFFFF AND PUSH32 0xB3B609C7A5E504A312603E90D906D1667FD5CAFF0A840AD07BF5709A3CA1A045 DUP4 PUSH1 0x40 MLOAD PUSH2 0x1C77 SWAP2 SWAP1 PUSH2 0x3206 JUMP JUMPDEST PUSH1 0x40 MLOAD DUP1 SWAP2 SUB SWAP1 LOG2 POP POP POP JUMP JUMPDEST PUSH1 0x4 PUSH1 0x20 MSTORE DUP1 PUSH0 MSTORE PUSH1 0x40 PUSH0 KECCAK256 PUSH0 SWAP2 POP SWAP1 POP DUP1 PUSH0 ADD SLOAD SWAP1 DUP1 PUSH1 0x1 ADD PUSH0 SWAP1 SLOAD SWAP1 PUSH2 0x100 EXP SWAP1 DIV PUSH20 0xFFFFFFFFFFFFFFFFFFFFFFFFFFFFFFFFFFFFFFFF AND SWAP1 DUP1 PUSH1 0x2 ADD PUSH0 SWAP1 SLOAD SWAP1 PUSH2 0x100 EXP SWAP1 DIV PUSH20 0xFFFFFFFFFFFFFFFFFFFFFFFFFFFFFFFFFFFFFFFF AND SWAP1 DUP1 PUSH1 0x3 ADD SLOAD SWAP1 DUP1 PUSH1 0x4 ADD SLOAD SWAP1 DUP1 PUSH1 0x5 ADD SLOAD SWAP1 DUP1 PUSH1 0x6 ADD PUSH0 SWAP1 SLOAD SWAP1 PUSH2 0x100 EXP SWAP1 DIV PUSH1 0xFF AND SWAP1 POP DUP8 JUMP JUMPDEST PUSH1 0x2 SLOAD DUP2 JUMP JUMPDEST PUSH1 0x6 PUSH1 0x20 MSTORE DUP1 PUSH0 MSTORE PUSH1 0x40 PUSH0 KECCAK256 PUSH0 SWAP2 POP SWAP1 POP SLOAD DUP2 JUMP JUMPDEST PUSH1 0x1 SLOAD DUP2 JUMP JUMPDEST PUSH0 PUSH1 0x6 PUSH0 CALLER PUSH20 0xFFFFFFFFFFFFFFFFFFFFFFFFFFFFFFFFFFFFFFFF AND PUSH20 0xFFFFFFFFFFFFFFFFFFFFFFFFFFFFFFFFFFFFFFFF AND DUP2 MSTORE PUSH1 0x20 ADD SWAP1 DUP2 MSTORE PUSH1 0x20 ADD PUSH0 KECCAK256 SLOAD SWAP1 POP PUSH0 DUP2 EQ ISZERO DUP1 ISZERO PUSH2 0x1DC2 JUMPI POP PUSH1 0x1 PUSH1 0x3 DUP2 GT ISZERO PUSH2 0x1D8D JUMPI PUSH2 0x1D8C PUSH2 0x2627 JUMP JUMPDEST JUMPDEST PUSH1 0x5 PUSH0 DUP4 DUP2 MSTORE PUSH1 0x20 ADD SWAP1 DUP2 MSTORE PUSH1 0x20 ADD PUSH0 KECCAK256 PUSH1 0x3 ADD PUSH0 SWAP1 SLOAD SWAP1 PUSH2 0x100 EXP SWAP1 DIV PUSH1 0xFF AND PUSH1 0x3 DUP2 GT ISZERO PUSH2 0x1DC0 JUMPI PUSH2 0x1DBF PUSH2 0x2627 JUMP JUMPDEST JUMPDEST EQ JUMPDEST PUSH2 0x1E01 JUMPI PUSH1 0x40 MLOAD PUSH32 0x8C379A000000000000000000000000000000000000000000000000000000000 DUP2 MSTORE PUSH1 0x4 ADD PUSH2 0x1DF8 SWAP1 PUSH2 0x2BFC JUMP JUMPDEST PUSH1 0x40 MLOAD DUP1 SWAP2 SUB SWAP1 REVERT JUMPDEST PUSH0 DUP8 DUP8 SWAP1 POP GT PUSH2 0x1E46 JUMPI PUSH1 0x40 MLOAD PUSH32 0x8C379A000000000000000000000000000000000000000000000000000000000 DUP2 MSTORE PUSH1 0x4 ADD PUSH2 0x1E3D SWAP1 PUSH2 0x3396 JUMP JUMPDEST PUSH1 0x40 MLOAD DUP1 SWAP2 SUB SWAP1 REVERT JUMPDEST PUSH0 PUSH0 PUSH0 DUP2 SLOAD DUP1 SWAP3 SWAP2 SWAP1 PUSH2 0x1E58 SWAP1 PUSH2 0x2F85 JUMP JUMPDEST SWAP2 SWAP1 POP SSTORE SWAP1 POP PUSH0 PUSH1 0x3 PUSH0 DUP4 DUP2 MSTORE PUSH1 0x20 ADD SWAP1 DUP2 MSTORE PUSH1 0x20 ADD PUSH0 KECCAK256 SWAP1 POP DUP2 DUP2 PUSH0 ADD DUP2 SWAP1 SSTORE POP CALLER DUP2 PUSH1 0x1 ADD PUSH0 PUSH2 0x100 EXP DUP2 SLOAD DUP2 PUSH20 0xFFFFFFFFFFFFFFFFFFFFFFFFFFFFFFFFFFFFFFFF MUL NOT AND SWAP1 DUP4 PUSH20 0xFFFFFFFFFFFFFFFFFFFFFFFFFFFFFFFFFFFFFFFF AND MUL OR SWAP1 SSTORE POP DUP9 DUP9 DUP3 PUSH1 0x2 ADD SWAP2 DUP3 PUSH2 0x1ECF SWAP3 SWAP2 SWAP1 PUSH2 0x355E JUMP JUMPDEST POP DUP7 DUP2 PUSH1 0x3 ADD DUP2 SWAP1 SSTORE POP DUP6 DUP6 DUP3 PUSH1 0x4 ADD SWAP2 DUP3 PUSH2 0x1EEC SWAP3 SWAP2 SWAP1 PUSH2 0x355E JUMP JUMPDEST POP DUP4 DUP2 PUSH1 0x5 ADD DUP2 SWAP1 SSTORE POP TIMESTAMP DUP2 PUSH1 0x6 ADD DUP2 SWAP1 SSTORE POP DUP7 DUP2 PUSH1 0x7 ADD PUSH0 CALLER PUSH20 0xFFFFFFFFFFFFFFFFFFFFFFFFFFFFFFFFFFFFFFFF AND PUSH20 0xFFFFFFFFFFFFFFFFFFFFFFFFFFFFFFFFFFFFFFFF AND DUP2 MSTORE PUSH1 0x20 ADD SWAP1 DUP2 MSTORE PUSH1 0x20 ADD PUSH0 KECCAK256 DUP2 SWAP1 SSTORE POP CALLER PUSH20 0xFFFFFFFFFFFFFFFFFFFFFFFFFFFFFFFFFFFFFFFF AND DUP3 PUSH32 0x463EC2A62C46678A81E23CDE640446CA4B512F102BB3309CF5A3E2A4AE831464 DUP12 DUP12 DUP12 PUSH1 0x40 MLOAD PUSH2 0x1F8E SWAP4 SWAP3 SWAP2 SWAP1 PUSH2 0x3665 JUMP JUMPDEST PUSH1 0x40 MLOAD DUP1 SWAP2 SUB SWAP1 LOG3 POP POP POP POP POP POP POP POP POP JUMP JUMPDEST PUSH0 PUSH0 PUSH1 0x60 PUSH0 PUSH0 PUSH0 PUSH0 PUSH0 PUSH1 0x3 PUSH0 DUP11 DUP2 MSTORE PUSH1 0x20 ADD SWAP1 DUP2 MSTORE PUSH1 0x20 ADD PUSH0 KECCAK256 SWAP1 POP DUP1 PUSH0 ADD SLOAD DUP2 PUSH1 0x1 ADD PUSH0 SWAP1 SLOAD SWAP1 PUSH2 0x100 EXP SWAP1 DIV PUSH20 0xFFFFFFFFFFFFFFFFFFFFFFFFFFFFFFFFFFFFFFFF AND DUP3 PUSH1 0x2 ADD DUP4 PUSH1 0x3 ADD SLOAD DUP5 PUSH1 0x5 ADD SLOAD DUP6 PUSH1 0x6 ADD SLOAD DUP7 PUSH1 0x7 ADD PUSH0 CALLER PUSH20 0xFFFFFFFFFFFFFFFFFFFFFFFFFFFFFFFFFFFFFFFF AND PUSH20 0xFFFFFFFFFFFFFFFFFFFFFFFFFFFFFFFFFFFFFFFF AND DUP2 MSTORE PUSH1 0x20 ADD SWAP1 DUP2 MSTORE PUSH1 0x20 ADD PUSH0 KECCAK256 SLOAD DUP5 DUP1 SLOAD PUSH2 0x2044 SWAP1 PUSH2 0x324C JUMP JUMPDEST DUP1 PUSH1 0x1F ADD PUSH1 0x20 DUP1 SWAP2 DIV MUL PUSH1 0x20 ADD PUSH1 0x40 MLOAD SWAP1 DUP2 ADD PUSH1 0x40 MSTORE DUP1 SWAP3 SWAP2 SWAP1 DUP2 DUP2 MSTORE PUSH1 0x20 ADD DUP3 DUP1 SLOAD PUSH2 0x2070 SWAP1 PUSH2 0x324C JUMP JUMPDEST DUP1 ISZERO PUSH2 0x20BB JUMPI DUP1 PUSH1 0x1F LT PUSH2 0x2092 JUMPI PUSH2 0x100 DUP1 DUP4 SLOAD DIV MUL DUP4 MSTORE SWAP2 PUSH1 0x20 ADD SWAP2 PUSH2 0x20BB JUMP JUMPDEST DUP3 ADD SWAP2 SWAP1 PUSH0 MSTORE PUSH1 0x20 PUSH0 KECCAK256 SWAP1 JUMPDEST DUP2 SLOAD DUP2 MSTORE SWAP1 PUSH1 0x1 ADD SWAP1 PUSH1 0x20 ADD DUP1 DUP4 GT PUSH2 0x209E JUMPI DUP3 SWAP1 SUB PUSH1 0x1F AND DUP3 ADD SWAP2 JUMPDEST POP POP POP POP POP SWAP5 POP SWAP8 POP SWAP8 POP SWAP8 POP SWAP8 POP SWAP8 POP SWAP8 POP SWAP8 POP POP SWAP2 SWAP4 SWAP6 SWAP8 SWAP1 SWAP3 SWAP5 SWAP7 POP JUMP JUMPDEST PUSH0 PUSH0 SLOAD DUP4 LT PUSH2 0x2120 JUMPI PUSH1 0x40 MLOAD PUSH32 0x8C379A000000000000000000000000000000000000000000000000000000000 DUP2 MSTORE PUSH1 0x4 ADD PUSH2 0x2117 SWAP1 PUSH2 0x2D34 JUMP JUMPDEST PUSH1 0x40 MLOAD DUP1 SWAP2 SUB SWAP1 REVERT JUMPDEST PUSH1 0x3 PUSH0 DUP5 DUP2 MSTORE PUSH1 0x20 ADD SWAP1 DUP2 MSTORE PUSH1 0x20 ADD PUSH0 KECCAK256 PUSH1 0x7 ADD PUSH0 DUP4 PUSH20 0xFFFFFFFFFFFFFFFFFFFFFFFFFFFFFFFFFFFFFFFF AND PUSH20 0xFFFFFFFFFFFFFFFFFFFFFFFFFFFFFFFFFFFFFFFF AND DUP2 MSTORE PUSH1 0x20 ADD SWAP1 DUP2 MSTORE PUSH1 0x20 ADD PUSH0 KECCAK256 SLOAD SWAP1 POP SWAP3 SWAP2 POP POP JUMP JUMPDEST PUSH32 0x0 DUP2 JUMP JUMPDEST PUSH2 0x21A4 PUSH2 0x2304 JUMP JUMPDEST PUSH1 0x2 PUSH2 0x21B6 PUSH2 0x21B1 PUSH2 0x2345 JUMP JUMPDEST PUSH2 0x236E JUMP JUMPDEST PUSH0 ADD DUP2 SWAP1 SSTORE POP JUMP JUMPDEST PUSH0 PUSH32 0xC0878B4B16A78E8085CBA0CA02FC0924F1492924058D153153A3F286E0FD70FF DUP3 EQ SWAP1 POP SWAP2 SWAP1 POP JUMP JUMPDEST PUSH0 PUSH32 0x95329F0F598032755F454B63034035528A2F09E00BB3DDE055A4F8E3F7B11683 DUP4 EQ DUP1 ISZERO PUSH2 0x2238 JUMPI POP PUSH32 0x992F90FFB92C5AD86F1DF6829115F18AAEA41D6094DADC8955C35086081A7BB9 DUP3 EQ JUMPDEST DUP1 PUSH2 0x228D JUMPI POP PUSH32 0x992F90FFB92C5AD86F1DF6829115F18AAEA41D6094DADC8955C35086081A7BB9 DUP4 EQ DUP1 ISZERO PUSH2 0x228C JUMPI POP PUSH32 0x1534E98F9DD33E3681193A0541F0C2E3D732D183DCDC630AAC2B943280AF42A0 DUP3 EQ JUMPDEST JUMPDEST DUP1 PUSH2 0x22E2 JUMPI POP PUSH32 0x1534E98F9DD33E3681193A0541F0C2E3D732D183DCDC630AAC2B943280AF42A0 DUP4 EQ DUP1 ISZERO PUSH2 0x22E1 JUMPI POP PUSH32 0xC0878B4B16A78E8085CBA0CA02FC0924F1492924058D153153A3F286E0FD70FF DUP3 EQ JUMPDEST JUMPDEST SWAP1 POP SWAP3 SWAP2 POP POP JUMP JUMPDEST PUSH1 0x1 PUSH2 0x22FC PUSH2 0x22F7 PUSH2 0x2345 JUMP JUMPDEST PUSH2 0x236E JUMP JUMPDEST PUSH0 ADD DUP2 SWAP1 SSTORE POP JUMP JUMPDEST PUSH2 0x230C PUSH2 0x2377 JUMP JUMPDEST ISZERO PUSH2 0x2343 JUMPI PUSH1 0x40 MLOAD PUSH32 0x3EE5AEB500000000000000000000000000000000000000000000000000000000 DUP2 MSTORE PUSH1 0x4 ADD PUSH1 0x40 MLOAD DUP1 SWAP2 SUB SWAP1 REVERT JUMPDEST JUMP JUMPDEST PUSH0 PUSH32 0x9B779B17422D0DF92223018B32B4D1FA46E071723D6817E2486D003BECC55F00 PUSH0 SHL SWAP1 POP SWAP1 JUMP JUMPDEST PUSH0 DUP2 SWAP1 POP SWAP2 SWAP1 POP JUMP JUMPDEST PUSH0 PUSH1 0x2 PUSH2 0x238A PUSH2 0x2385 PUSH2 0x2345 JUMP JUMPDEST PUSH2 0x236E JUMP JUMPDEST PUSH0 ADD SLOAD EQ SWAP1 POP SWAP1 JUMP JUMPDEST PUSH1 0x40 MLOAD DUP1 PUSH1 0x80 ADD PUSH1 0x40 MSTORE DUP1 PUSH0 DUP2 MSTORE PUSH1 0x20 ADD PUSH0 PUSH20 0xFFFFFFFFFFFFFFFFFFFFFFFFFFFFFFFFFFFFFFFF AND DUP2 MSTORE PUSH1 0x20 ADD PUSH0 DUP2 MSTORE PUSH1 0x20 ADD PUSH0 PUSH1 0x3 DUP2 GT ISZERO PUSH2 0x23D9 JUMPI PUSH2 0x23D8 PUSH2 0x2627 JUMP JUMPDEST JUMPDEST DUP2 MSTORE POP SWAP1 JUMP JUMPDEST PUSH0 PUSH0 REVERT JUMPDEST PUSH0 PUSH0 REVERT JUMPDEST PUSH0 PUSH20 0xFFFFFFFFFFFFFFFFFFFFFFFFFFFFFFFFFFFFFFFF DUP3 AND SWAP1 POP SWAP2 SWAP1 POP JUMP JUMPDEST PUSH0 PUSH2 0x2410 DUP3 PUSH2 0x23E7 JUMP JUMPDEST SWAP1 POP SWAP2 SWAP1 POP JUMP JUMPDEST PUSH2 0x2420 DUP2 PUSH2 0x2406 JUMP JUMPDEST DUP2 EQ PUSH2 0x242A JUMPI PUSH0 PUSH0 REVERT JUMPDEST POP JUMP JUMPDEST PUSH0 DUP2 CALLDATALOAD SWAP1 POP PUSH2 0x243B DUP2 PUSH2 0x2417 JUMP JUMPDEST SWAP3 SWAP2 POP POP JUMP JUMPDEST PUSH0 DUP2 SWAP1 POP SWAP2 SWAP1 POP JUMP JUMPDEST PUSH2 0x2453 DUP2 PUSH2 0x2441 JUMP JUMPDEST DUP2 EQ PUSH2 0x245D JUMPI PUSH0 PUSH0 REVERT JUMPDEST POP JUMP JUMPDEST PUSH0 DUP2 CALLDATALOAD SWAP1 POP PUSH2 0x246E DUP2 PUSH2 0x244A JUMP JUMPDEST SWAP3 SWAP2 POP POP JUMP JUMPDEST PUSH0 PUSH0 PUSH0 PUSH1 0x60 DUP5 DUP7 SUB SLT ISZERO PUSH2 0x248B JUMPI PUSH2 0x248A PUSH2 0x23DF JUMP JUMPDEST JUMPDEST PUSH0 PUSH2 0x2498 DUP7 DUP3 DUP8 ADD PUSH2 0x242D JUMP JUMPDEST SWAP4 POP POP PUSH1 0x20 PUSH2 0x24A9 DUP7 DUP3 DUP8 ADD PUSH2 0x2460 JUMP JUMPDEST SWAP3 POP POP PUSH1 0x40 PUSH2 0x24BA DUP7 DUP3 DUP8 ADD PUSH2 0x2460 JUMP JUMPDEST SWAP2 POP POP SWAP3 POP SWAP3 POP SWAP3 JUMP JUMPDEST PUSH0 PUSH1 0x20 DUP3 DUP5 SUB SLT ISZERO PUSH2 0x24D9 JUMPI PUSH2 0x24D8 PUSH2 0x23DF JUMP JUMPDEST JUMPDEST PUSH0 PUSH2 0x24E6 DUP5 DUP3 DUP6 ADD PUSH2 0x2460 JUMP JUMPDEST SWAP2 POP POP SWAP3 SWAP2 POP POP JUMP JUMPDEST PUSH0 PUSH1 0x20 DUP3 DUP5 SUB SLT ISZERO PUSH2 0x2504 JUMPI PUSH2 0x2503 PUSH2 0x23DF JUMP JUMPDEST JUMPDEST PUSH0 PUSH2 0x2511 DUP5 DUP3 DUP6 ADD PUSH2 0x242D JUMP JUMPDEST SWAP2 POP POP SWAP3 SWAP2 POP POP JUMP JUMPDEST PUSH0 DUP2 MLOAD SWAP1 POP SWAP2 SWAP1 POP JUMP JUMPDEST PUSH0 DUP3 DUP3 MSTORE PUSH1 0x20 DUP3 ADD SWAP1 POP SWAP3 SWAP2 POP POP JUMP JUMPDEST PUSH0 DUP2 SWAP1 POP PUSH1 0x20 DUP3 ADD SWAP1 POP SWAP2 SWAP1 POP JUMP JUMPDEST PUSH2 0x254C DUP2 PUSH2 0x2441 JUMP JUMPDEST DUP3 MSTORE POP POP JUMP JUMPDEST PUSH0 PUSH2 0x255D DUP4 DUP4 PUSH2 0x2543 JUMP JUMPDEST PUSH1 0x20 DUP4 ADD SWAP1 POP SWAP3 SWAP2 POP POP JUMP JUMPDEST PUSH0 PUSH1 0x20 DUP3 ADD SWAP1 POP SWAP2 SWAP1 POP JUMP JUMPDEST PUSH0 PUSH2 0x257F DUP3 PUSH2 0x251A JUMP JUMPDEST PUSH2 0x2589 DUP2 DUP6 PUSH2 0x2524 JUMP JUMPDEST SWAP4 POP PUSH2 0x2594 DUP4 PUSH2 0x2534 JUMP JUMPDEST DUP1 PUSH0 JUMPDEST DUP4 DUP2 LT ISZERO PUSH2 0x25C4 JUMPI DUP2 MLOAD PUSH2 0x25AB DUP9 DUP3 PUSH2 0x2552 JUMP JUMPDEST SWAP8 POP PUSH2 0x25B6 DUP4 PUSH2 0x2569 JUMP JUMPDEST SWAP3 POP POP PUSH1 0x1 DUP2 ADD SWAP1 POP PUSH2 0x2597 JUMP JUMPDEST POP DUP6 SWAP4 POP POP POP POP SWAP3 SWAP2 POP POP JUMP JUMPDEST PUSH0 PUSH1 0x20 DUP3 ADD SWAP1 POP DUP2 DUP2 SUB PUSH0 DUP4 ADD MSTORE PUSH2 0x25E9 DUP2 DUP5 PUSH2 0x2575 JUMP JUMPDEST SWAP1 POP SWAP3 SWAP2 POP POP JUMP JUMPDEST PUSH2 0x25FA DUP2 PUSH2 0x2441 JUMP JUMPDEST DUP3 MSTORE POP POP JUMP JUMPDEST PUSH2 0x2609 DUP2 PUSH2 0x2406 JUMP JUMPDEST DUP3 MSTORE POP POP JUMP JUMPDEST PUSH0 DUP2 SWAP1 POP SWAP2 SWAP1 POP JUMP JUMPDEST PUSH2 0x2621 DUP2 PUSH2 0x260F JUMP JUMPDEST DUP3 MSTORE POP POP JUMP JUMPDEST PUSH32 0x4E487B7100000000000000000000000000000000000000000000000000000000 PUSH0 MSTORE PUSH1 0x21 PUSH1 0x4 MSTORE PUSH1 0x24 PUSH0 REVERT JUMPDEST PUSH1 0x4 DUP2 LT PUSH2 0x2665 JUMPI PUSH2 0x2664 PUSH2 0x2627 JUMP JUMPDEST JUMPDEST POP JUMP JUMPDEST PUSH0 DUP2 SWAP1 POP PUSH2 0x2675 DUP3 PUSH2 0x2654 JUMP JUMPDEST SWAP2 SWAP1 POP JUMP JUMPDEST PUSH0 PUSH2 0x2684 DUP3 PUSH2 0x2668 JUMP JUMPDEST SWAP1 POP SWAP2 SWAP1 POP JUMP JUMPDEST PUSH2 0x2694 DUP2 PUSH2 0x267A JUMP JUMPDEST DUP3 MSTORE POP POP JUMP JUMPDEST PUSH0 PUSH1 0x80 DUP3 ADD SWAP1 POP PUSH2 0x26AD PUSH0 DUP4 ADD DUP8 PUSH2 0x25F1 JUMP JUMPDEST PUSH2 0x26BA PUSH1 0x20 DUP4 ADD DUP7 PUSH2 0x2600 JUMP JUMPDEST PUSH2 0x26C7 PUSH1 0x40 DUP4 ADD DUP6 PUSH2 0x2618 JUMP JUMPDEST PUSH2 0x26D4 PUSH1 0x60 DUP4 ADD DUP5 PUSH2 0x268B JUMP JUMPDEST SWAP6 SWAP5 POP POP POP POP POP JUMP JUMPDEST PUSH2 0x26E6 DUP2 PUSH2 0x260F JUMP JUMPDEST DUP2 EQ PUSH2 0x26F0 JUMPI PUSH0 PUSH0 REVERT JUMPDEST POP JUMP JUMPDEST PUSH0 DUP2 CALLDATALOAD SWAP1 POP PUSH2 0x2701 DUP2 PUSH2 0x26DD JUMP JUMPDEST SWAP3 SWAP2 POP POP JUMP JUMPDEST PUSH0 PUSH1 0x20 DUP3 DUP5 SUB SLT ISZERO PUSH2 0x271C JUMPI PUSH2 0x271B PUSH2 0x23DF JUMP JUMPDEST JUMPDEST PUSH0 PUSH2 0x2729 DUP5 DUP3 DUP6 ADD PUSH2 0x26F3 JUMP JUMPDEST SWAP2 POP POP SWAP3 SWAP2 POP POP JUMP JUMPDEST PUSH0 DUP2 MLOAD SWAP1 POP SWAP2 SWAP1 POP JUMP JUMPDEST PUSH0 DUP3 DUP3 MSTORE PUSH1 0x20 DUP3 ADD SWAP1 POP SWAP3 SWAP2 POP POP JUMP JUMPDEST DUP3 DUP2 DUP4 MCOPY PUSH0 DUP4 DUP4 ADD MSTORE POP POP POP JUMP JUMPDEST PUSH0 PUSH1 0x1F NOT PUSH1 0x1F DUP4 ADD AND SWAP1 POP SWAP2 SWAP1 POP JUMP JUMPDEST PUSH0 PUSH2 0x2774 DUP3 PUSH2 0x2732 JUMP JUMPDEST PUSH2 0x277E DUP2 DUP6 PUSH2 0x273C JUMP JUMPDEST SWAP4 POP PUSH2 0x278E DUP2 DUP6 PUSH1 0x20 DUP7 ADD PUSH2 0x274C JUMP JUMPDEST PUSH2 0x2797 DUP2 PUSH2 0x275A JUMP JUMPDEST DUP5 ADD SWAP2 POP POP SWAP3 SWAP2 POP POP JUMP JUMPDEST PUSH0 PUSH1 0xE0 DUP3 ADD SWAP1 POP PUSH2 0x27B5 PUSH0 DUP4 ADD DUP11 PUSH2 0x25F1 JUMP JUMPDEST PUSH2 0x27C2 PUSH1 0x20 DUP4 ADD DUP10 PUSH2 0x2600 JUMP JUMPDEST DUP2 DUP2 SUB PUSH1 0x40 DUP4 ADD MSTORE PUSH2 0x27D4 DUP2 DUP9 PUSH2 0x276A JUMP JUMPDEST SWAP1 POP PUSH2 0x27E3 PUSH1 0x60 DUP4 ADD DUP8 PUSH2 0x25F1 JUMP JUMPDEST DUP2 DUP2 SUB PUSH1 0x80 DUP4 ADD MSTORE PUSH2 0x27F5 DUP2 DUP7 PUSH2 0x276A JUMP JUMPDEST SWAP1 POP PUSH2 0x2804 PUSH1 0xA0 DUP4 ADD DUP6 PUSH2 0x25F1 JUMP JUMPDEST PUSH2 0x2811 PUSH1 0xC0 DUP4 ADD DUP5 PUSH2 0x25F1 JUMP JUMPDEST SWAP9 SWAP8 POP POP POP POP POP POP POP POP JUMP JUMPDEST PUSH2 0x2826 DUP2 PUSH2 0x2406 JUMP JUMPDEST DUP3 MSTORE POP POP JUMP JUMPDEST PUSH2 0x2835 DUP2 PUSH2 0x260F JUMP JUMPDEST DUP3 MSTORE POP POP JUMP JUMPDEST PUSH2 0x2844 DUP2 PUSH2 0x267A JUMP JUMPDEST DUP3 MSTORE POP POP JUMP JUMPDEST PUSH1 0x80 DUP3 ADD PUSH0 DUP3 ADD MLOAD PUSH2 0x285E PUSH0 DUP6 ADD DUP3 PUSH2 0x2543 JUMP JUMPDEST POP PUSH1 0x20 DUP3 ADD MLOAD PUSH2 0x2871 PUSH1 0x20 DUP6 ADD DUP3 PUSH2 0x281D JUMP JUMPDEST POP PUSH1 0x40 DUP3 ADD MLOAD PUSH2 0x2884 PUSH1 0x40 DUP6 ADD DUP3 PUSH2 0x282C JUMP JUMPDEST POP PUSH1 0x60 DUP3 ADD MLOAD PUSH2 0x2897 PUSH1 0x60 DUP6 ADD DUP3 PUSH2 0x283B JUMP JUMPDEST POP POP POP POP JUMP JUMPDEST PUSH0 PUSH1 0x80 DUP3 ADD SWAP1 POP PUSH2 0x28B0 PUSH0 DUP4 ADD DUP5 PUSH2 0x284A JUMP JUMPDEST SWAP3 SWAP2 POP POP JUMP JUMPDEST PUSH0 PUSH1 0x20 DUP3 ADD SWAP1 POP PUSH2 0x28C9 PUSH0 DUP4 ADD DUP5 PUSH2 0x25F1 JUMP JUMPDEST SWAP3 SWAP2 POP POP JUMP JUMPDEST PUSH1 0x4 DUP2 LT PUSH2 0x28DB JUMPI PUSH0 PUSH0 REVERT JUMPDEST POP JUMP JUMPDEST PUSH0 DUP2 CALLDATALOAD SWAP1 POP PUSH2 0x28EC DUP2 PUSH2 0x28CF JUMP JUMPDEST SWAP3 SWAP2 POP POP JUMP JUMPDEST PUSH0 PUSH0 PUSH1 0x40 DUP4 DUP6 SUB SLT ISZERO PUSH2 0x2908 JUMPI PUSH2 0x2907 PUSH2 0x23DF JUMP JUMPDEST JUMPDEST PUSH0 PUSH2 0x2915 DUP6 DUP3 DUP7 ADD PUSH2 0x242D JUMP JUMPDEST SWAP3 POP POP PUSH1 0x20 PUSH2 0x2926 DUP6 DUP3 DUP7 ADD PUSH2 0x28DE JUMP JUMPDEST SWAP2 POP POP SWAP3 POP SWAP3 SWAP1 POP JUMP JUMPDEST PUSH1 0x3 DUP2 LT PUSH2 0x2941 JUMPI PUSH2 0x2940 PUSH2 0x2627 JUMP JUMPDEST JUMPDEST POP JUMP JUMPDEST PUSH0 DUP2 SWAP1 POP PUSH2 0x2951 DUP3 PUSH2 0x2930 JUMP JUMPDEST SWAP2 SWAP1 POP JUMP JUMPDEST PUSH0 PUSH2 0x2960 DUP3 PUSH2 0x2944 JUMP JUMPDEST SWAP1 POP SWAP2 SWAP1 POP JUMP JUMPDEST PUSH2 0x2970 DUP2 PUSH2 0x2956 JUMP JUMPDEST DUP3 MSTORE POP POP JUMP JUMPDEST PUSH0 PUSH1 0xE0 DUP3 ADD SWAP1 POP PUSH2 0x2989 PUSH0 DUP4 ADD DUP11 PUSH2 0x25F1 JUMP JUMPDEST PUSH2 0x2996 PUSH1 0x20 DUP4 ADD DUP10 PUSH2 0x2600 JUMP JUMPDEST PUSH2 0x29A3 PUSH1 0x40 DUP4 ADD DUP9 PUSH2 0x2600 JUMP JUMPDEST PUSH2 0x29B0 PUSH1 0x60 DUP4 ADD DUP8 PUSH2 0x25F1 JUMP JUMPDEST PUSH2 0x29BD PUSH1 0x80 DUP4 ADD DUP7 PUSH2 0x25F1 JUMP JUMPDEST PUSH2 0x29CA PUSH1 0xA0 DUP4 ADD DUP6 PUSH2 0x25F1 JUMP JUMPDEST PUSH2 0x29D7 PUSH1 0xC0 DUP4 ADD DUP5 PUSH2 0x2967 JUMP JUMPDEST SWAP9 SWAP8 POP POP POP POP POP POP POP POP JUMP JUMPDEST PUSH0 PUSH0 REVERT JUMPDEST PUSH0 PUSH0 REVERT JUMPDEST PUSH0 PUSH0 REVERT JUMPDEST PUSH0 PUSH0 DUP4 PUSH1 0x1F DUP5 ADD SLT PUSH2 0x2A04 JUMPI PUSH2 0x2A03 PUSH2 0x29E3 JUMP JUMPDEST JUMPDEST DUP3 CALLDATALOAD SWAP1 POP PUSH8 0xFFFFFFFFFFFFFFFF DUP2 GT ISZERO PUSH2 0x2A21 JUMPI PUSH2 0x2A20 PUSH2 0x29E7 JUMP JUMPDEST JUMPDEST PUSH1 0x20 DUP4 ADD SWAP2 POP DUP4 PUSH1 0x1 DUP3 MUL DUP4 ADD GT ISZERO PUSH2 0x2A3D JUMPI PUSH2 0x2A3C PUSH2 0x29EB JUMP JUMPDEST JUMPDEST SWAP3 POP SWAP3 SWAP1 POP JUMP JUMPDEST PUSH0 PUSH0 PUSH0 PUSH0 PUSH0 PUSH0 PUSH1 0x80 DUP8 DUP10 SUB SLT ISZERO PUSH2 0x2A5E JUMPI PUSH2 0x2A5D PUSH2 0x23DF JUMP JUMPDEST JUMPDEST PUSH0 DUP8 ADD CALLDATALOAD PUSH8 0xFFFFFFFFFFFFFFFF DUP2 GT ISZERO PUSH2 0x2A7B JUMPI PUSH2 0x2A7A PUSH2 0x23E3 JUMP JUMPDEST JUMPDEST PUSH2 0x2A87 DUP10 DUP3 DUP11 ADD PUSH2 0x29EF JUMP JUMPDEST SWAP7 POP SWAP7 POP POP PUSH1 0x20 PUSH2 0x2A9A DUP10 DUP3 DUP11 ADD PUSH2 0x2460 JUMP JUMPDEST SWAP5 POP POP PUSH1 0x40 DUP8 ADD CALLDATALOAD PUSH8 0xFFFFFFFFFFFFFFFF DUP2 GT ISZERO PUSH2 0x2ABB JUMPI PUSH2 0x2ABA PUSH2 0x23E3 JUMP JUMPDEST JUMPDEST PUSH2 0x2AC7 DUP10 DUP3 DUP11 ADD PUSH2 0x29EF JUMP JUMPDEST SWAP4 POP SWAP4 POP POP PUSH1 0x60 PUSH2 0x2ADA DUP10 DUP3 DUP11 ADD PUSH2 0x2460 JUMP JUMPDEST SWAP2 POP POP SWAP3 SWAP6 POP SWAP3 SWAP6 POP SWAP3 SWAP6 JUMP JUMPDEST PUSH0 PUSH1 0xE0 DUP3 ADD SWAP1 POP PUSH2 0x2AFA PUSH0 DUP4 ADD DUP11 PUSH2 0x25F1 JUMP JUMPDEST PUSH2 0x2B07 PUSH1 0x20 DUP4 ADD DUP10 PUSH2 0x2600 JUMP JUMPDEST DUP2 DUP2 SUB PUSH1 0x40 DUP4 ADD MSTORE PUSH2 0x2B19 DUP2 DUP9 PUSH2 0x276A JUMP JUMPDEST SWAP1 POP PUSH2 0x2B28 PUSH1 0x60 DUP4 ADD DUP8 PUSH2 0x25F1 JUMP JUMPDEST PUSH2 0x2B35 PUSH1 0x80 DUP4 ADD DUP7 PUSH2 0x25F1 JUMP JUMPDEST PUSH2 0x2B42 PUSH1 0xA0 DUP4 ADD DUP6 PUSH2 0x25F1 JUMP JUMPDEST PUSH2 0x2B4F PUSH1 0xC0 DUP4 ADD DUP5 PUSH2 0x25F1 JUMP JUMPDEST SWAP9 SWAP8 POP POP POP POP POP POP POP POP JUMP JUMPDEST PUSH0 PUSH0 PUSH1 0x40 DUP4 DUP6 SUB SLT ISZERO PUSH2 0x2B71 JUMPI PUSH2 0x2B70 PUSH2 0x23DF JUMP JUMPDEST JUMPDEST PUSH0 PUSH2 0x2B7E DUP6 DUP3 DUP7 ADD PUSH2 0x2460 JUMP JUMPDEST SWAP3 POP POP PUSH1 0x20 PUSH2 0x2B8F DUP6 DUP3 DUP7 ADD PUSH2 0x242D JUMP JUMPDEST SWAP2 POP POP SWAP3 POP SWAP3 SWAP1 POP JUMP JUMPDEST PUSH0 PUSH1 0x20 DUP3 ADD SWAP1 POP PUSH2 0x2BAC PUSH0 DUP4 ADD DUP5 PUSH2 0x2600 JUMP JUMPDEST SWAP3 SWAP2 POP POP JUMP JUMPDEST PUSH32 0x4E6F7420617070726F7665640000000000000000000000000000000000000000 PUSH0 DUP3 ADD MSTORE POP JUMP JUMPDEST PUSH0 PUSH2 0x2BE6 PUSH1 0xC DUP4 PUSH2 0x273C JUMP JUMPDEST SWAP2 POP PUSH2 0x2BF1 DUP3 PUSH2 0x2BB2 JUMP JUMPDEST PUSH1 0x20 DUP3 ADD SWAP1 POP SWAP2 SWAP1 POP JUMP JUMPDEST PUSH0 PUSH1 0x20 DUP3 ADD SWAP1 POP DUP2 DUP2 SUB PUSH0 DUP4 ADD MSTORE PUSH2 0x2C13 DUP2 PUSH2 0x2BDA JUMP JUMPDEST SWAP1 POP SWAP2 SWAP1 POP JUMP JUMPDEST PUSH32 0x496E76616C696420726563697069656E74000000000000000000000000000000 PUSH0 DUP3 ADD MSTORE POP JUMP JUMPDEST PUSH0 PUSH2 0x2C4E PUSH1 0x11 DUP4 PUSH2 0x273C JUMP JUMPDEST SWAP2 POP PUSH2 0x2C59 DUP3 PUSH2 0x2C1A JUMP JUMPDEST PUSH1 0x20 DUP3 ADD SWAP1 POP SWAP2 SWAP1 POP JUMP JUMPDEST PUSH0 PUSH1 0x20 DUP3 ADD SWAP1 POP DUP2 DUP2 SUB PUSH0 DUP4 ADD MSTORE PUSH2 0x2C7B DUP2 PUSH2 0x2C42 JUMP JUMPDEST SWAP1 POP SWAP2 SWAP1 POP JUMP JUMPDEST PUSH32 0x416D6F756E74206D757374206265203E20300000000000000000000000000000 PUSH0 DUP3 ADD MSTORE POP JUMP JUMPDEST PUSH0 PUSH2 0x2CB6 PUSH1 0x12 DUP4 PUSH2 0x273C JUMP JUMPDEST SWAP2 POP PUSH2 0x2CC1 DUP3 PUSH2 0x2C82 JUMP JUMPDEST PUSH1 0x20 DUP3 ADD SWAP1 POP SWAP2 SWAP1 POP JUMP JUMPDEST PUSH0 PUSH1 0x20 DUP3 ADD SWAP1 POP DUP2 DUP2 SUB PUSH0 DUP4 ADD MSTORE PUSH2 0x2CE3 DUP2 PUSH2 0x2CAA JUMP JUMPDEST SWAP1 POP SWAP2 SWAP1 POP JUMP JUMPDEST PUSH32 0x546F6B656E20646F6573206E6F74206578697374000000000000000000000000 PUSH0 DUP3 ADD MSTORE POP JUMP JUMPDEST PUSH0 PUSH2 0x2D1E PUSH1 0x14 DUP4 PUSH2 0x273C JUMP JUMPDEST SWAP2 POP PUSH2 0x2D29 DUP3 PUSH2 0x2CEA JUMP JUMPDEST PUSH1 0x20 DUP3 ADD SWAP1 POP SWAP2 SWAP1 POP JUMP JUMPDEST PUSH0 PUSH1 0x20 DUP3 ADD SWAP1 POP DUP2 DUP2 SUB PUSH0 DUP4 ADD MSTORE PUSH2 0x2D4B DUP2 PUSH2 0x2D12 JUMP JUMPDEST SWAP1 POP SWAP2 SWAP1 POP JUMP JUMPDEST PUSH32 0x526563697069656E74206E6F7420726567697374657265640000000000000000 PUSH0 DUP3 ADD MSTORE POP JUMP JUMPDEST PUSH0 PUSH2 0x2D86 PUSH1 0x18 DUP4 PUSH2 0x273C JUMP JUMPDEST SWAP2 POP PUSH2 0x2D91 DUP3 PUSH2 0x2D52 JUMP JUMPDEST PUSH1 0x20 DUP3 ADD SWAP1 POP SWAP2 SWAP1 POP JUMP JUMPDEST PUSH0 PUSH1 0x20 DUP3 ADD SWAP1 POP DUP2 DUP2 SUB PUSH0 DUP4 ADD MSTORE PUSH2 0x2DB3 DUP2 PUSH2 0x2D7A JUMP JUMPDEST SWAP1 POP SWAP2 SWAP1 POP JUMP JUMPDEST PUSH32 0x436F6E73756D65722063616E6E6F74207472616E736665720000000000000000 PUSH0 DUP3 ADD MSTORE POP JUMP JUMPDEST PUSH0 PUSH2 0x2DEE PUSH1 0x18 DUP4 PUSH2 0x273C JUMP JUMPDEST SWAP2 POP PUSH2 0x2DF9 DUP3 PUSH2 0x2DBA JUMP JUMPDEST PUSH1 0x20 DUP3 ADD SWAP1 POP SWAP2 SWAP1 POP JUMP JUMPDEST PUSH0 PUSH1 0x20 DUP3 ADD SWAP1 POP DUP2 DUP2 SUB PUSH0 DUP4 ADD MSTORE PUSH2 0x2E1B DUP2 PUSH2 0x2DE2 JUMP JUMPDEST SWAP1 POP SWAP2 SWAP1 POP JUMP JUMPDEST PUSH32 0x496E76616C696420726F6C65207472616E736974696F6E000000000000000000 PUSH0 DUP3 ADD MSTORE POP JUMP JUMPDEST PUSH0 PUSH2 0x2E56 PUSH1 0x17 DUP4 PUSH2 0x273C JUMP JUMPDEST SWAP2 POP PUSH2 0x2E61 DUP3 PUSH2 0x2E22 JUMP JUMPDEST PUSH1 0x20 DUP3 ADD SWAP1 POP SWAP2 SWAP1 POP JUMP JUMPDEST PUSH0 PUSH1 0x20 DUP3 ADD SWAP1 POP DUP2 DUP2 SUB PUSH0 DUP4 ADD MSTORE PUSH2 0x2E83 DUP2 PUSH2 0x2E4A JUMP JUMPDEST SWAP1 POP SWAP2 SWAP1 POP JUMP JUMPDEST PUSH32 0x496E73756666696369656E742062616C616E6365000000000000000000000000 PUSH0 DUP3 ADD MSTORE POP JUMP JUMPDEST PUSH0 PUSH2 0x2EBE PUSH1 0x14 DUP4 PUSH2 0x273C JUMP JUMPDEST SWAP2 POP PUSH2 0x2EC9 DUP3 PUSH2 0x2E8A JUMP JUMPDEST PUSH1 0x20 DUP3 ADD SWAP1 POP SWAP2 SWAP1 POP JUMP JUMPDEST PUSH0 PUSH1 0x20 DUP3 ADD SWAP1 POP DUP2 DUP2 SUB PUSH0 DUP4 ADD MSTORE PUSH2 0x2EEB DUP2 PUSH2 0x2EB2 JUMP JUMPDEST SWAP1 POP SWAP2 SWAP1 POP JUMP JUMPDEST PUSH32 0x4E487B7100000000000000000000000000000000000000000000000000000000 PUSH0 MSTORE PUSH1 0x11 PUSH1 0x4 MSTORE PUSH1 0x24 PUSH0 REVERT JUMPDEST PUSH0 PUSH2 0x2F29 DUP3 PUSH2 0x2441 JUMP JUMPDEST SWAP2 POP PUSH2 0x2F34 DUP4 PUSH2 0x2441 JUMP JUMPDEST SWAP3 POP DUP3 DUP3 SUB SWAP1 POP DUP2 DUP2 GT ISZERO PUSH2 0x2F4C JUMPI PUSH2 0x2F4B PUSH2 0x2EF2 JUMP JUMPDEST JUMPDEST SWAP3 SWAP2 POP POP JUMP JUMPDEST PUSH0 PUSH2 0x2F5C DUP3 PUSH2 0x2441 JUMP JUMPDEST SWAP2 POP PUSH2 0x2F67 DUP4 PUSH2 0x2441 JUMP JUMPDEST SWAP3 POP DUP3 DUP3 ADD SWAP1 POP DUP1 DUP3 GT ISZERO PUSH2 0x2F7F JUMPI PUSH2 0x2F7E PUSH2 0x2EF2 JUMP JUMPDEST JUMPDEST SWAP3 SWAP2 POP POP JUMP JUMPDEST PUSH0 PUSH2 0x2F8F DUP3 PUSH2 0x2441 JUMP JUMPDEST SWAP2 POP PUSH32 0xFFFFFFFFFFFFFFFFFFFFFFFFFFFFFFFFFFFFFFFFFFFFFFFFFFFFFFFFFFFFFFFF DUP3 SUB PUSH2 0x2FC1 JUMPI PUSH2 0x2FC0 PUSH2 0x2EF2 JUMP JUMPDEST JUMPDEST PUSH1 0x1 DUP3 ADD SWAP1 POP SWAP2 SWAP1 POP JUMP JUMPDEST PUSH0 PUSH1 0x40 DUP3 ADD SWAP1 POP PUSH2 0x2FDF PUSH0 DUP4 ADD DUP6 PUSH2 0x25F1 JUMP JUMPDEST PUSH2 0x2FEC PUSH1 0x20 DUP4 ADD DUP5 PUSH2 0x25F1 JUMP JUMPDEST SWAP4 SWAP3 POP POP POP JUMP JUMPDEST PUSH32 0x4E6F742070656E64696E67000000000000000000000000000000000000000000 PUSH0 DUP3 ADD MSTORE POP JUMP JUMPDEST PUSH0 PUSH2 0x3027 PUSH1 0xB DUP4 PUSH2 0x273C JUMP JUMPDEST SWAP2 POP PUSH2 0x3032 DUP3 PUSH2 0x2FF3 JUMP JUMPDEST PUSH1 0x20 DUP3 ADD SWAP1 POP SWAP2 SWAP1 POP JUMP JUMPDEST PUSH0 PUSH1 0x20 DUP3 ADD SWAP1 POP DUP2 DUP2 SUB PUSH0 DUP4 ADD MSTORE PUSH2 0x3054 DUP2 PUSH2 0x301B JUMP JUMPDEST SWAP1 POP SWAP2 SWAP1 POP JUMP JUMPDEST PUSH32 0x4E6F7420617574686F72697A6564000000000000000000000000000000000000 PUSH0 DUP3 ADD MSTORE POP JUMP JUMPDEST PUSH0 PUSH2 0x308F PUSH1 0xE DUP4 PUSH2 0x273C JUMP JUMPDEST SWAP2 POP PUSH2 0x309A DUP3 PUSH2 0x305B JUMP JUMPDEST PUSH1 0x20 DUP3 ADD SWAP1 POP SWAP2 SWAP1 POP JUMP JUMPDEST PUSH0 PUSH1 0x20 DUP3 ADD SWAP1 POP DUP2 DUP2 SUB PUSH0 DUP4 ADD MSTORE PUSH2 0x30BC DUP2 PUSH2 0x3083 JUMP JUMPDEST SWAP1 POP SWAP2 SWAP1 POP JUMP JUMPDEST PUSH32 0x4E6F7420726563697069656E7400000000000000000000000000000000000000 PUSH0 DUP3 ADD MSTORE POP JUMP JUMPDEST PUSH0 PUSH2 0x30F7 PUSH1 0xD DUP4 PUSH2 0x273C JUMP JUMPDEST SWAP2 POP PUSH2 0x3102 DUP3 PUSH2 0x30C3 JUMP JUMPDEST PUSH1 0x20 DUP3 ADD SWAP1 POP SWAP2 SWAP1 POP JUMP JUMPDEST PUSH0 PUSH1 0x20 DUP3 ADD SWAP1 POP DUP2 DUP2 SUB PUSH0 DUP4 ADD MSTORE PUSH2 0x3124 DUP2 PUSH2 0x30EB JUMP JUMPDEST SWAP1 POP SWAP2 SWAP1 POP JUMP JUMPDEST PUSH32 0x4E487B7100000000000000000000000000000000000000000000000000000000 PUSH0 MSTORE PUSH1 0x41 PUSH1 0x4 MSTORE PUSH1 0x24 PUSH0 REVERT JUMPDEST PUSH32 0x4E487B7100000000000000000000000000000000000000000000000000000000 PUSH0 MSTORE PUSH1 0x32 PUSH1 0x4 MSTORE PUSH1 0x24 PUSH0 REVERT JUMPDEST PUSH32 0x496E76616C696420726F6C650000000000000000000000000000000000000000 PUSH0 DUP3 ADD MSTORE POP JUMP JUMPDEST PUSH0 PUSH2 0x31B9 PUSH1 0xC DUP4 PUSH2 0x273C JUMP JUMPDEST SWAP2 POP PUSH2 0x31C4 DUP3 PUSH2 0x3185 JUMP JUMPDEST PUSH1 0x20 DUP3 ADD SWAP1 POP SWAP2 SWAP1 POP JUMP JUMPDEST PUSH0 PUSH1 0x20 DUP3 ADD SWAP1 POP DUP2 DUP2 SUB PUSH0 DUP4 ADD MSTORE PUSH2 0x31E6 DUP2 PUSH2 0x31AD JUMP JUMPDEST SWAP1 POP SWAP2 SWAP1 POP JUMP JUMPDEST PUSH0 PUSH1 0x20 DUP3 ADD SWAP1 POP PUSH2 0x3200 PUSH0 DUP4 ADD DUP5 PUSH2 0x2618 JUMP JUMPDEST SWAP3 SWAP2 POP POP JUMP JUMPDEST PUSH0 PUSH1 0x20 DUP3 ADD SWAP1 POP PUSH2 0x3219 PUSH0 DUP4 ADD DUP5 PUSH2 0x268B JUMP JUMPDEST SWAP3 SWAP2 POP POP JUMP JUMPDEST PUSH32 0x4E487B7100000000000000000000000000000000000000000000000000000000 PUSH0 MSTORE PUSH1 0x22 PUSH1 0x4 MSTORE PUSH1 0x24 PUSH0 REVERT JUMPDEST PUSH0 PUSH1 0x2 DUP3 DIV SWAP1 POP PUSH1 0x1 DUP3 AND DUP1 PUSH2 0x3263 JUMPI PUSH1 0x7F DUP3 AND SWAP2 POP JUMPDEST PUSH1 0x20 DUP3 LT DUP2 SUB PUSH2 0x3276 JUMPI PUSH2 0x3275 PUSH2 0x321F JUMP JUMPDEST JUMPDEST POP SWAP2 SWAP1 POP JUMP JUMPDEST PUSH32 0x4E6F742061646D696E0000000000000000000000000000000000000000000000 PUSH0 DUP3 ADD MSTORE POP JUMP JUMPDEST PUSH0 PUSH2 0x32B0 PUSH1 0x9 DUP4 PUSH2 0x273C JUMP JUMPDEST SWAP2 POP PUSH2 0x32BB DUP3 PUSH2 0x327C JUMP JUMPDEST PUSH1 0x20 DUP3 ADD SWAP1 POP SWAP2 SWAP1 POP JUMP JUMPDEST PUSH0 PUSH1 0x20 DUP3 ADD SWAP1 POP DUP2 DUP2 SUB PUSH0 DUP4 ADD MSTORE PUSH2 0x32DD DUP2 PUSH2 0x32A4 JUMP JUMPDEST SWAP1 POP SWAP2 SWAP1 POP JUMP JUMPDEST PUSH32 0x55736572206E6F7420666F756E64000000000000000000000000000000000000 PUSH0 DUP3 ADD MSTORE POP JUMP JUMPDEST PUSH0 PUSH2 0x3318 PUSH1 0xE DUP4 PUSH2 0x273C JUMP JUMPDEST SWAP2 POP PUSH2 0x3323 DUP3 PUSH2 0x32E4 JUMP JUMPDEST PUSH1 0x20 DUP3 ADD SWAP1 POP SWAP2 SWAP1 POP JUMP JUMPDEST PUSH0 PUSH1 0x20 DUP3 ADD SWAP1 POP DUP2 DUP2 SUB PUSH0 DUP4 ADD MSTORE PUSH2 0x3345 DUP2 PUSH2 0x330C JUMP JUMPDEST SWAP1 POP SWAP2 SWAP1 POP JUMP JUMPDEST PUSH32 0x4E616D6520656D70747900000000000000000000000000000000000000000000 PUSH0 DUP3 ADD MSTORE POP JUMP JUMPDEST PUSH0 PUSH2 0x3380 PUSH1 0xA DUP4 PUSH2 0x273C JUMP JUMPDEST SWAP2 POP PUSH2 0x338B DUP3 PUSH2 0x334C JUMP JUMPDEST PUSH1 0x20 DUP3 ADD SWAP1 POP SWAP2 SWAP1 POP JUMP JUMPDEST PUSH0 PUSH1 0x20 DUP3 ADD SWAP1 POP DUP2 DUP2 SUB PUSH0 DUP4 ADD MSTORE PUSH2 0x33AD DUP2 PUSH2 0x3374 JUMP JUMPDEST SWAP1 POP SWAP2 SWAP1 POP JUMP JUMPDEST PUSH0 DUP3 SWAP1 POP SWAP3 SWAP2 POP POP JUMP JUMPDEST PUSH0 DUP2 SWAP1 POP DUP2 PUSH0 MSTORE PUSH1 0x20 PUSH0 KECCAK256 SWAP1 POP SWAP2 SWAP1 POP JUMP JUMPDEST PUSH0 PUSH1 0x20 PUSH1 0x1F DUP4 ADD DIV SWAP1 POP SWAP2 SWAP1 POP JUMP JUMPDEST PUSH0 DUP3 DUP3 SHL SWAP1 POP SWAP3 SWAP2 POP POP JUMP JUMPDEST PUSH0 PUSH1 0x8 DUP4 MUL PUSH2 0x341A PUSH32 0xFFFFFFFFFFFFFFFFFFFFFFFFFFFFFFFFFFFFFFFFFFFFFFFFFFFFFFFFFFFFFFFF DUP3 PUSH2 0x33DF JUMP JUMPDEST PUSH2 0x3424 DUP7 DUP4 PUSH2 0x33DF JUMP JUMPDEST SWAP6 POP DUP1 NOT DUP5 AND SWAP4 POP DUP1 DUP7 AND DUP5 OR SWAP3 POP POP POP SWAP4 SWAP3 POP POP POP JUMP JUMPDEST PUSH0 DUP2 SWAP1 POP SWAP2 SWAP1 POP JUMP JUMPDEST PUSH0 PUSH2 0x345F PUSH2 0x345A PUSH2 0x3455 DUP5 PUSH2 0x2441 JUMP JUMPDEST PUSH2 0x343C JUMP JUMPDEST PUSH2 0x2441 JUMP JUMPDEST SWAP1 POP SWAP2 SWAP1 POP JUMP JUMPDEST PUSH0 DUP2 SWAP1 POP SWAP2 SWAP1 POP JUMP JUMPDEST PUSH2 0x3478 DUP4 PUSH2 0x3445 JUMP JUMPDEST PUSH2 0x348C PUSH2 0x3484 DUP3 PUSH2 0x3466 JUMP JUMPDEST DUP5 DUP5 SLOAD PUSH2 0x33EB JUMP JUMPDEST DUP3 SSTORE POP POP POP POP JUMP JUMPDEST PUSH0 PUSH0 SWAP1 POP SWAP1 JUMP JUMPDEST PUSH2 0x34A3 PUSH2 0x3494 JUMP JUMPDEST PUSH2 0x34AE DUP2 DUP5 DUP5 PUSH2 0x346F JUMP JUMPDEST POP POP POP JUMP JUMPDEST JUMPDEST DUP2 DUP2 LT ISZERO PUSH2 0x34D1 JUMPI PUSH2 0x34C6 PUSH0 DUP3 PUSH2 0x349B JUMP JUMPDEST PUSH1 0x1 DUP2 ADD SWAP1 POP PUSH2 0x34B4 JUMP JUMPDEST POP POP JUMP JUMPDEST PUSH1 0x1F DUP3 GT ISZERO PUSH2 0x3516 JUMPI PUSH2 0x34E7 DUP2 PUSH2 0x33BE JUMP JUMPDEST PUSH2 0x34F0 DUP5 PUSH2 0x33D0 JUMP JUMPDEST DUP2 ADD PUSH1 0x20 DUP6 LT ISZERO PUSH2 0x34FF JUMPI DUP2 SWAP1 POP JUMPDEST PUSH2 0x3513 PUSH2 0x350B DUP6 PUSH2 0x33D0 JUMP JUMPDEST DUP4 ADD DUP3 PUSH2 0x34B3 JUMP JUMPDEST POP POP JUMPDEST POP POP POP JUMP JUMPDEST PUSH0 DUP3 DUP3 SHR SWAP1 POP SWAP3 SWAP2 POP POP JUMP JUMPDEST PUSH0 PUSH2 0x3536 PUSH0 NOT DUP5 PUSH1 0x8 MUL PUSH2 0x351B JUMP JUMPDEST NOT DUP1 DUP4 AND SWAP2 POP POP SWAP3 SWAP2 POP POP JUMP JUMPDEST PUSH0 PUSH2 0x354E DUP4 DUP4 PUSH2 0x3527 JUMP JUMPDEST SWAP2 POP DUP3 PUSH1 0x2 MUL DUP3 OR SWAP1 POP SWAP3 SWAP2 POP POP JUMP JUMPDEST PUSH2 0x3568 DUP4 DUP4 PUSH2 0x33B4 JUMP JUMPDEST PUSH8 0xFFFFFFFFFFFFFFFF DUP2 GT ISZERO PUSH2 0x3581 JUMPI PUSH2 0x3580 PUSH2 0x312B JUMP JUMPDEST JUMPDEST PUSH2 0x358B DUP3 SLOAD PUSH2 0x324C JUMP JUMPDEST PUSH2 0x3596 DUP3 DUP3 DUP6 PUSH2 0x34D5 JUMP JUMPDEST PUSH0 PUSH1 0x1F DUP4 GT PUSH1 0x1 DUP2 EQ PUSH2 0x35C3 JUMPI PUSH0 DUP5 ISZERO PUSH2 0x35B1 JUMPI DUP3 DUP8 ADD CALLDATALOAD SWAP1 POP JUMPDEST PUSH2 0x35BB DUP6 DUP3 PUSH2 0x3543 JUMP JUMPDEST DUP7 SSTORE POP PUSH2 0x3622 JUMP JUMPDEST PUSH1 0x1F NOT DUP5 AND PUSH2 0x35D1 DUP7 PUSH2 0x33BE JUMP JUMPDEST PUSH0 JUMPDEST DUP3 DUP2 LT ISZERO PUSH2 0x35F8 JUMPI DUP5 DUP10 ADD CALLDATALOAD DUP3 SSTORE PUSH1 0x1 DUP3 ADD SWAP2 POP PUSH1 0x20 DUP6 ADD SWAP5 POP PUSH1 0x20 DUP2 ADD SWAP1 POP PUSH2 0x35D3 JUMP JUMPDEST DUP7 DUP4 LT ISZERO PUSH2 0x3615 JUMPI DUP5 DUP10 ADD CALLDATALOAD PUSH2 0x3611 PUSH1 0x1F DUP10 AND DUP3 PUSH2 0x3527 JUMP JUMPDEST DUP4 SSTORE POP JUMPDEST PUSH1 0x1 PUSH1 0x2 DUP9 MUL ADD DUP9 SSTORE POP POP POP JUMPDEST POP POP POP POP POP POP POP JUMP JUMPDEST DUP3 DUP2 DUP4 CALLDATACOPY PUSH0 DUP4 DUP4 ADD MSTORE POP POP POP JUMP JUMPDEST PUSH0 PUSH2 0x3644 DUP4 DUP6 PUSH2 0x273C JUMP JUMPDEST SWAP4 POP PUSH2 0x3651 DUP4 DUP6 DUP5 PUSH2 0x362B JUMP JUMPDEST PUSH2 0x365A DUP4 PUSH2 0x275A JUMP JUMPDEST DUP5 ADD SWAP1 POP SWAP4 SWAP3 POP POP POP JUMP JUMPDEST PUSH0 PUSH1 0x40 DUP3 ADD SWAP1 POP DUP2 DUP2 SUB PUSH0 DUP4 ADD MSTORE PUSH2 0x367E DUP2 DUP6 DUP8 PUSH2 0x3639 JUMP JUMPDEST SWAP1 POP PUSH2 0x368D PUSH1 0x20 DUP4 ADD DUP5 PUSH2 0x25F1 JUMP JUMPDEST SWAP5 SWAP4 POP POP POP POP JUMP INVALID LOG2 PUSH5 0x6970667358 0x22 SLT KECCAK256 PUSH0 DUP1 CODESIZE 0xD4 0xEA PUSH8 0xE2CBE474EFFA4FD7 PUSH12 0xDEA7A3752005175AA460608D RJUMPI 0x42F0 JUMP PREVRANDAO PUSH5 0x736F6C6343 STOP ADDMOD 0x1E STOP CALLER "
				},
				"gasEstimates": {
					"creation": {
						"codeDepositCost": "2805400",
						"executionCost": "infinite",
						"totalCost": "infinite"
					},
					"external": {
						"acceptTransfer(uint256)": "48171",
						"addressToUserId(address)": "2913",
						"admin()": "infinite",
						"changeStatusUser(address,uint8)": "infinite",
						"createToken(string,uint256,string,uint256)": "infinite",
						"getToken(uint256)": "infinite",
						"getTokenBalance(uint256,address)": "infinite",
						"getUserInfo(address)": "infinite",
						"getUserTokens(address)": "infinite",
						"getUserTransfers(address)": "infinite",
						"nextTokenId()": "2447",
						"nextTransferId()": "2447",
						"nextUserId()": "2514",
						"rejectTransfer(uint256)": "infinite",
						"requestUserRole(bytes32)": "infinite",
						"tokens(uint256)": "infinite",
						"transfer(address,uint256,uint256)": "infinite",
						"transfers(uint256)": "infinite",
						"users(uint256)": "infinite"
					},
					"internal": {
						"_isConsumer(bytes32)": "33",
						"_isNextRole(bytes32,bytes32)": "184"
					}
				},
				"methodIdentifiers": {
					"acceptTransfer(uint256)": "274fae7c",
					"addressToUserId(address)": "b5ffbbcc",
					"admin()": "f851a440",
					"changeStatusUser(address,uint8)": "8782dc00",
					"createToken(string,uint256,string,uint256)": "d67b2d08",
					"getToken(uint256)": "e4b50cb8",
					"getTokenBalance(uint256,address)": "ef57e2d2",
					"getUserInfo(address)": "6386c1c7",
					"getUserTokens(address)": "519dc8d2",
					"getUserTransfers(address)": "335d3410",
					"nextTokenId()": "75794a3c",
					"nextTransferId()": "b85b381b",
					"nextUserId()": "a1e6a255",
					"rejectTransfer(uint256)": "12effc32",
					"requestUserRole(bytes32)": "49217ca4",
					"tokens(uint256)": "4f64b2be",
					"transfer(address,uint256,uint256)": "095bcdb6",
					"transfers(uint256)": "9377d711",
					"users(uint256)": "365b98b2"
				}
			},
			"storageLayout": {
				"storage": [
					{
						"astId": 320,
						"contract": "src/SupplyChain.sol:SupplyChainTracker",
						"label": "nextTokenId",
						"offset": 0,
						"slot": "0",
						"type": "t_uint256"
					},
					{
						"astId": 323,
						"contract": "src/SupplyChain.sol:SupplyChainTracker",
						"label": "nextTransferId",
						"offset": 0,
						"slot": "1",
						"type": "t_uint256"
					},
					{
						"astId": 326,
						"contract": "src/SupplyChain.sol:SupplyChainTracker",
						"label": "nextUserId",
						"offset": 0,
						"slot": "2",
						"type": "t_uint256"
					},
					{
						"astId": 331,
						"contract": "src/SupplyChain.sol:SupplyChainTracker",
						"label": "tokens",
						"offset": 0,
						"slot": "3",
						"type": "t_mapping(t_uint256,t_struct(Token)289_storage)"
					},
					{
						"astId": 336,
						"contract": "src/SupplyChain.sol:SupplyChainTracker",
						"label": "transfers",
						"offset": 0,
						"slot": "4",
						"type": "t_mapping(t_uint256,t_struct(Transfer)305_storage)"
					},
					{
						"astId": 341,
						"contract": "src/SupplyChain.sol:SupplyChainTracker",
						"label": "users",
						"offset": 0,
						"slot": "5",
						"type": "t_mapping(t_uint256,t_struct(User)315_storage)"
					},
					{
						"astId": 345,
						"contract": "src/SupplyChain.sol:SupplyChainTracker",
						"label": "addressToUserId",
						"offset": 0,
						"slot": "6",
						"type": "t_mapping(t_address,t_uint256)"
					}
				],
				"types": {
					"t_address": {
						"encoding": "inplace",
						"label": "address",
						"numberOfBytes": "20"
					},
					"t_bytes32": {
						"encoding": "inplace",
						"label": "bytes32",
						"numberOfBytes": "32"
					},
					"t_enum(TransferStatus)270": {
						"encoding": "inplace",
						"label": "enum SupplyChainTracker.TransferStatus",
						"numberOfBytes": "1"
					},
					"t_enum(UserStatus)266": {
						"encoding": "inplace",
						"label": "enum SupplyChainTracker.UserStatus",
						"numberOfBytes": "1"
					},
					"t_mapping(t_address,t_uint256)": {
						"encoding": "mapping",
						"key": "t_address",
						"label": "mapping(address => uint256)",
						"numberOfBytes": "32",
						"value": "t_uint256"
					},
					"t_mapping(t_uint256,t_struct(Token)289_storage)": {
						"encoding": "mapping",
						"key": "t_uint256",
						"label": "mapping(uint256 => struct SupplyChainTracker.Token)",
						"numberOfBytes": "32",
						"value": "t_struct(Token)289_storage"
					},
					"t_mapping(t_uint256,t_struct(Transfer)305_storage)": {
						"encoding": "mapping",
						"key": "t_uint256",
						"label": "mapping(uint256 => struct SupplyChainTracker.Transfer)",
						"numberOfBytes": "32",
						"value": "t_struct(Transfer)305_storage"
					},
					"t_mapping(t_uint256,t_struct(User)315_storage)": {
						"encoding": "mapping",
						"key": "t_uint256",
						"label": "mapping(uint256 => struct SupplyChainTracker.User)",
						"numberOfBytes": "32",
						"value": "t_struct(User)315_storage"
					},
					"t_string_storage": {
						"encoding": "bytes",
						"label": "string",
						"numberOfBytes": "32"
					},
					"t_struct(Token)289_storage": {
						"encoding": "inplace",
						"label": "struct SupplyChainTracker.Token",
						"members": [
							{
								"astId": 272,
								"contract": "src/SupplyChain.sol:SupplyChainTracker",
								"label": "id",
								"offset": 0,
								"slot": "0",
								"type": "t_uint256"
							},
							{
								"astId": 274,
								"contract": "src/SupplyChain.sol:SupplyChainTracker",
								"label": "creator",
								"offset": 0,
								"slot": "1",
								"type": "t_address"
							},
							{
								"astId": 276,
								"contract": "src/SupplyChain.sol:SupplyChainTracker",
								"label": "name",
								"offset": 0,
								"slot": "2",
								"type": "t_string_storage"
							},
							{
								"astId": 278,
								"contract": "src/SupplyChain.sol:SupplyChainTracker",
								"label": "totalSupply",
								"offset": 0,
								"slot": "3",
								"type": "t_uint256"
							},
							{
								"astId": 280,
								"contract": "src/SupplyChain.sol:SupplyChainTracker",
								"label": "features",
								"offset": 0,
								"slot": "4",
								"type": "t_string_storage"
							},
							{
								"astId": 282,
								"contract": "src/SupplyChain.sol:SupplyChainTracker",
								"label": "parentId",
								"offset": 0,
								"slot": "5",
								"type": "t_uint256"
							},
							{
								"astId": 284,
								"contract": "src/SupplyChain.sol:SupplyChainTracker",
								"label": "dateCreated",
								"offset": 0,
								"slot": "6",
								"type": "t_uint256"
							},
							{
								"astId": 288,
								"contract": "src/SupplyChain.sol:SupplyChainTracker",
								"label": "balance",
								"offset": 0,
								"slot": "7",
								"type": "t_mapping(t_address,t_uint256)"
							}
						],
						"numberOfBytes": "256"
					},
					"t_struct(Transfer)305_storage": {
						"encoding": "inplace",
						"label": "struct SupplyChainTracker.Transfer",
						"members": [
							{
								"astId": 291,
								"contract": "src/SupplyChain.sol:SupplyChainTracker",
								"label": "id",
								"offset": 0,
								"slot": "0",
								"type": "t_uint256"
							},
							{
								"astId": 293,
								"contract": "src/SupplyChain.sol:SupplyChainTracker",
								"label": "from",
								"offset": 0,
								"slot": "1",
								"type": "t_address"
							},
							{
								"astId": 295,
								"contract": "src/SupplyChain.sol:SupplyChainTracker",
								"label": "to",
								"offset": 0,
								"slot": "2",
								"type": "t_address"
							},
							{
								"astId": 297,
								"contract": "src/SupplyChain.sol:SupplyChainTracker",
								"label": "tokenId",
								"offset": 0,
								"slot": "3",
								"type": "t_uint256"
							},
							{
								"astId": 299,
								"contract": "src/SupplyChain.sol:SupplyChainTracker",
								"label": "dateCreated",
								"offset": 0,
								"slot": "4",
								"type": "t_uint256"
							},
							{
								"astId": 301,
								"contract": "src/SupplyChain.sol:SupplyChainTracker",
								"label": "amount",
								"offset": 0,
								"slot": "5",
								"type": "t_uint256"
							},
							{
								"astId": 304,
								"contract": "src/SupplyChain.sol:SupplyChainTracker",
								"label": "status",
								"offset": 0,
								"slot": "6",
								"type": "t_enum(TransferStatus)270"
							}
						],
						"numberOfBytes": "224"
					},
					"t_struct(User)315_storage": {
						"encoding": "inplace",
						"label": "struct SupplyChainTracker.User",
						"members": [
							{
								"astId": 307,
								"contract": "src/SupplyChain.sol:SupplyChainTracker",
								"label": "id",
								"offset": 0,
								"slot": "0",
								"type": "t_uint256"
							},
							{
								"astId": 309,
								"contract": "src/SupplyChain.sol:SupplyChainTracker",
								"label": "userAddress",
								"offset": 0,
								"slot": "1",
								"type": "t_address"
							},
							{
								"astId": 311,
								"contract": "src/SupplyChain.sol:SupplyChainTracker",
								"label": "role",
								"offset": 0,
								"slot": "2",
								"type": "t_bytes32"
							},
							{
								"astId": 314,
								"contract": "src/SupplyChain.sol:SupplyChainTracker",
								"label": "status",
								"offset": 0,
								"slot": "3",
								"type": "t_enum(UserStatus)266"
							}
						],
						"numberOfBytes": "128"
					},
					"t_uint256": {
						"encoding": "inplace",
						"label": "uint256",
						"numberOfBytes": "32"
					}
				}
			},
			"userdoc": {
				"kind": "user",
				"methods": {},
				"version": 1
			}
		}
	}
}