{"abi":[{"type":"function","name":"decrement","inputs":[],"outputs":[],"stateMutability":"nonpayable"},{"type":"function","name":"increment","inputs":[],"outputs":[],"stateMutability":"nonpayable"},{"type":"function","name":"number","inputs":[],"outputs":[{"name":"","type":"uint256","internalType":"uint256"}],"stateMutability":"view"},{"type":"function","name":"setNumber","inputs":[{"name":"newNumber","type":"uint256","internalType":"uint256"}],"outputs":[],"stateMutability":"nonpayable"}],"bytecode":{"object":"0x6080604052348015600e575f5ffd5b506104178061001c5f395ff3fe608060405234801561000f575f5ffd5b506004361061004a575f3560e01c80632baeceb71461004e5780633fb5c1cb146100585780638381f58a14610074578063d09de08a14610092575b5f5ffd5b61005661009c565b005b610072600480360381019061006d9190610236565b6100b4565b005b61007c6100fb565b6040516100899190610270565b60405180910390f35b61009a610100565b005b5f5f8154809291906100ad906102b6565b9190505550565b805f819055506100f86040518060400160405280601a81526020017f4c756973204361726c6f7320477261636961205075656e746573000000000000815250610118565b50565b5f5481565b5f5f815480929190610111906102dd565b9190505550565b6101ae8160405160240161012c9190610394565b6040516020818303038152906040527f41304fac000000000000000000000000000000000000000000000000000000007bffffffffffffffffffffffffffffffffffffffffffffffffffffffff19166020820180517bffffffffffffffffffffffffffffffffffffffffffffffffffffffff83818316178352505050506101b1565b50565b6101c8816101c06101cb6101ea565b63ffffffff16565b50565b5f6a636f6e736f6c652e6c6f6790505f5f835160208501845afa505050565b6101f5819050919050565b6101fd6103b4565b565b5f5ffd5b5f819050919050565b61021581610203565b811461021f575f5ffd5b50565b5f813590506102308161020c565b92915050565b5f6020828403121561024b5761024a6101ff565b5b5f61025884828501610222565b91505092915050565b61026a81610203565b82525050565b5f6020820190506102835f830184610261565b92915050565b7f4e487b71000000000000000000000000000000000000000000000000000000005f52601160045260245ffd5b5f6102c082610203565b91505f82036102d2576102d1610289565b5b600182039050919050565b5f6102e782610203565b91507fffffffffffffffffffffffffffffffffffffffffffffffffffffffffffffffff820361031957610318610289565b5b600182019050919050565b5f81519050919050565b5f82825260208201905092915050565b8281835e5f83830152505050565b5f601f19601f8301169050919050565b5f61036682610324565b610370818561032e565b935061038081856020860161033e565b6103898161034c565b840191505092915050565b5f6020820190508181035f8301526103ac818461035c565b905092915050565b7f4e487b71000000000000000000000000000000000000000000000000000000005f52605160045260245ffdfea2646970667358221220a317ca8a7c63bb00bde559b4d2adb868e787792d187a8763df93c358e9373b0564736f6c634300081e0033","linkReferences":{}},"methodIdentifiers":{"decrement()":"2baeceb7","increment()":"d09de08a","number()":"8381f58a","setNumber(uint256)":"3fb5c1cb"},"id":23}