{"abi":[{"type":"constructor","inputs":[{"name":"name_","type":"string","internalType":"string"},{"name":"symbol_","type":"string","internalType":"string"}],"stateMutability":"nonpayable"},{"type":"function","name":"allowance","inputs":[{"name":"_owner","type":"address","internalType":"address"},{"name":"_spender","type":"address","internalType":"address"}],"outputs":[{"name":"","type":"uint256","internalType":"uint256"}],"stateMutability":"view"},{"type":"function","name":"approve","inputs":[{"name":"_spender","type":"address","internalType":"address"},{"name":"_amount","type":"uint256","internalType":"uint256"}],"outputs":[{"name":"","type":"bool","internalType":"bool"}],"stateMutability":"nonpayable"},{"type":"function","name":"balanceOf","inputs":[{"name":"_account","type":"address","internalType":"address"}],"outputs":[{"name":"","type":"uint256","internalType":"uint256"}],"stateMutability":"view"},{"type":"function","name":"decimals","inputs":[],"outputs":[{"name":"","type":"uint8","internalType":"uint8"}],"stateMutability":"pure"},{"type":"function","name":"increaseTotalSupply","inputs":[{"name":"_account","type":"address","internalType":"address"},{"name":"_amount","type":"uint256","internalType":"uint256"}],"outputs":[],"stateMutability":"nonpayable"},{"type":"function","name":"name","inputs":[],"outputs":[{"name":"","type":"string","internalType":"string"}],"stateMutability":"view"},{"type":"function","name":"symbol","inputs":[],"outputs":[{"name":"","type":"string","internalType":"string"}],"stateMutability":"view"},{"type":"function","name":"totalSupply","inputs":[],"outputs":[{"name":"","type":"uint256","internalType":"uint256"}],"stateMutability":"view"},{"type":"function","name":"transfer","inputs":[{"name":"_to","type":"address","internalType":"address"},{"name":"_amount","type":"uint256","internalType":"uint256"}],"outputs":[{"name":"","type":"bool","internalType":"bool"}],"stateMutability":"nonpayable"},{"type":"function","name":"transferFrom","inputs":[{"name":"_from","type":"address","internalType":"address"},{"name":"_to","type":"address","internalType":"address"},{"name":"_amount","type":"uint256","internalType":"uint256"}],"outputs":[{"name":"","type":"bool","internalType":"bool"}],"stateMutability":"nonpayable"},{"type":"event","name":"Approval","inputs":[{"name":"_owner","type":"address","indexed":true,"internalType":"address"},{"name":"_spender","type":"address","indexed":true,"internalType":"address"},{"name":"_value","type":"uint256","indexed":false,"internalType":"uint256"}],"anonymous":false},{"type":"event","name":"Transfer","inputs":[{"name":"_from","type":"address","indexed":true,"internalType":"address"},{"name":"_to","type":"address","indexed":true,"internalType":"address"},{"name":"_value","type":"uint256","indexed":false,"internalType":"uint256"}],"anonymous":false}],"bytecode":{"object":"0x608060405234801562000010575f80fd5b5060405162001721380380620017218339818101604052810190620000369190620001e7565b8160039081620000479190620004a1565b508060049081620000599190620004a1565b50505062000585565b5f604051905090565b5f80fd5b5f80fd5b5f80fd5b5f80fd5b5f601f19601f8301169050919050565b7f4e487b71000000000000000000000000000000000000000000000000000000005f52604160045260245ffd5b620000c3826200007b565b810181811067ffffffffffffffff82111715620000e557620000e46200008b565b5b80604052505050565b5f620000f962000062565b9050620001078282620000b8565b919050565b5f67ffffffffffffffff8211156200012957620001286200008b565b5b62000134826200007b565b9050602081019050919050565b5f5b838110156200016057808201518184015260208101905062000143565b5f8484015250505050565b5f620001816200017b846200010c565b620000ee565b905082815260208101848484011115620001a0576200019f62000077565b5b620001ad84828562000141565b509392505050565b5f82601f830112620001cc57620001cb62000073565b5b8151620001de8482602086016200016b565b91505092915050565b5f80604083850312156200020057620001ff6200006b565b5b5f83015167ffffffffffffffff81111562000220576200021f6200006f565b5b6200022e85828601620001b5565b925050602083015167ffffffffffffffff8111156200025257620002516200006f565b5b6200026085828601620001b5565b9150509250929050565b5f81519050919050565b7f4e487b71000000000000000000000000000000000000000000000000000000005f52602260045260245ffd5b5f6002820490506001821680620002b957607f821691505b602082108103620002cf57620002ce62000274565b5b50919050565b5f819050815f5260205f209050919050565b5f6020601f8301049050919050565b5f82821b905092915050565b5f60088302620003337fffffffffffffffffffffffffffffffffffffffffffffffffffffffffffffffff82620002f6565b6200033f8683620002f6565b95508019841693508086168417925050509392505050565b5f819050919050565b5f819050919050565b5f62000389620003836200037d8462000357565b62000360565b62000357565b9050919050565b5f819050919050565b620003a48362000369565b620003bc620003b38262000390565b84845462000302565b825550505050565b5f90565b620003d2620003c4565b620003df81848462000399565b505050565b5b818110156200040657620003fa5f82620003c8565b600181019050620003e5565b5050565b601f82111562000455576200041f81620002d5565b6200042a84620002e7565b810160208510156200043a578190505b620004526200044985620002e7565b830182620003e4565b50505b505050565b5f82821c905092915050565b5f620004775f19846008026200045a565b1980831691505092915050565b5f62000491838362000466565b9150826002028217905092915050565b620004ac826200026a565b67ffffffffffffffff811115620004c857620004c76200008b565b5b620004d48254620002a1565b620004e18282856200040a565b5f60209050601f83116001811462000517575f841562000502578287015190505b6200050e858262000484565b8655506200057d565b601f1984166200052786620002d5565b5f5b82811015620005505784890151825560018201915060208501945060208101905062000529565b868310156200057057848901516200056c601f89168262000466565b8355505b6001600288020188555050505b505050505050565b61118e80620005935f395ff3fe608060405234801561000f575f80fd5b506004361061009c575f3560e01c806370a082311161006457806370a082311461015a57806395d89b411461018a578063a9059cbb146101a8578063b2aa9f0f146101d8578063dd62ed3e146101f45761009c565b806306fdde03146100a0578063095ea7b3146100be57806318160ddd146100ee57806323b872dd1461010c578063313ce5671461013c575b5f80fd5b6100a8610224565b6040516100b59190610a9b565b60405180910390f35b6100d860048036038101906100d39190610b4c565b6102b4565b6040516100e59190610ba4565b60405180910390f35b6100f66102cf565b6040516101039190610bcc565b60405180910390f35b61012660048036038101906101219190610be5565b6102d8565b6040516101339190610ba4565b60405180910390f35b6101446102ff565b6040516101519190610c50565b60405180910390f35b610174600480360381019061016f9190610c69565b610307565b6040516101819190610bcc565b60405180910390f35b61019261034c565b60405161019f9190610a9b565b60405180910390f35b6101c260048036038101906101bd9190610b4c565b6103dc565b6040516101cf9190610ba4565b60405180910390f35b6101f260048036038101906101ed9190610b4c565b6103f7565b005b61020e60048036038101906102099190610c94565b610405565b60405161021b9190610bcc565b60405180910390f35b60606003805461023390610cff565b80601f016020809104026020016040519081016040528092919081815260200182805461025f90610cff565b80156102aa5780601f10610281576101008083540402835291602001916102aa565b820191905f5260205f20905b81548152906001019060200180831161028d57829003601f168201915b5050505050905090565b5f803390506102c4818585610487565b600191505092915050565b5f600254905090565b5f803390506102e885828561064a565b6102f38585856106de565b60019150509392505050565b5f6012905090565b5f805f8373ffffffffffffffffffffffffffffffffffffffff1673ffffffffffffffffffffffffffffffffffffffff1681526020019081526020015f20549050919050565b60606004805461035b90610cff565b80601f016020809104026020016040519081016040528092919081815260200182805461038790610cff565b80156103d25780601f106103a9576101008083540402835291602001916103d2565b820191905f5260205f20905b8154815290600101906020018083116103b557829003601f168201915b5050505050905090565b5f803390506103ec8185856106de565b600191505092915050565b6104018282610935565b5050565b5f60015f8473ffffffffffffffffffffffffffffffffffffffff1673ffffffffffffffffffffffffffffffffffffffff1681526020019081526020015f205f8373ffffffffffffffffffffffffffffffffffffffff1673ffffffffffffffffffffffffffffffffffffffff1681526020019081526020015f2054905092915050565b5f73ffffffffffffffffffffffffffffffffffffffff168373ffffffffffffffffffffffffffffffffffffffff16036104f5576040517f08c379a00000000000000000000000000000000000000000000000000000000081526004016104ec90610d9f565b60405180910390fd5b5f73ffffffffffffffffffffffffffffffffffffffff168273ffffffffffffffffffffffffffffffffffffffff1603610563576040517f08c379a000000000000000000000000000000000000000000000000000000000815260040161055a90610e2d565b60405180910390fd5b8060015f8573ffffffffffffffffffffffffffffffffffffffff1673ffffffffffffffffffffffffffffffffffffffff1681526020019081526020015f205f8473ffffffffffffffffffffffffffffffffffffffff1673ffffffffffffffffffffffffffffffffffffffff1681526020019081526020015f20819055508173ffffffffffffffffffffffffffffffffffffffff168373ffffffffffffffffffffffffffffffffffffffff167f8c5be1e5ebec7d5bd14f71427d1e84f3dd0314c0f7b2291e5b200ac8c7c3b9258360405161063d9190610bcc565b60405180910390a3505050565b5f6106558484610405565b90507fffffffffffffffffffffffffffffffffffffffffffffffffffffffffffffffff81146106d857818110156106c1576040517f08c379a00000000000000000000000000000000000000000000000000000000081526004016106b890610e95565b60405180910390fd5b6106d7848484846106d29190610ee0565b610487565b5b50505050565b5f73ffffffffffffffffffffffffffffffffffffffff168373ffffffffffffffffffffffffffffffffffffffff160361074c576040517f08c379a000000000000000000000000000000000000000000000000000000000815260040161074390610f83565b60405180910390fd5b5f73ffffffffffffffffffffffffffffffffffffffff168273ffffffffffffffffffffffffffffffffffffffff16036107ba576040517f08c379a00000000000000000000000000000000000000000000000000000000081526004016107b190611011565b60405180910390fd5b5f805f8573ffffffffffffffffffffffffffffffffffffffff1673ffffffffffffffffffffffffffffffffffffffff1681526020019081526020015f205490508181101561083d576040517f08c379a00000000000000000000000000000000000000000000000000000000081526004016108349061109f565b60405180910390fd5b81816108499190610ee0565b5f808673ffffffffffffffffffffffffffffffffffffffff1673ffffffffffffffffffffffffffffffffffffffff1681526020019081526020015f2081905550815f808573ffffffffffffffffffffffffffffffffffffffff1673ffffffffffffffffffffffffffffffffffffffff1681526020019081526020015f20819055508273ffffffffffffffffffffffffffffffffffffffff168473ffffffffffffffffffffffffffffffffffffffff167fddf252ad1be2c89b69c2b068fc378daa952ba7f163c4a11628f55a4df523b3ef846040516109279190610bcc565b60405180910390a350505050565b5f73ffffffffffffffffffffffffffffffffffffffff168273ffffffffffffffffffffffffffffffffffffffff16036109a3576040517f08c379a000000000000000000000000000000000000000000000000000000000815260040161099a90611107565b60405180910390fd5b8060025f8282546109b49190611125565b92505081905550805f808473ffffffffffffffffffffffffffffffffffffffff1673ffffffffffffffffffffffffffffffffffffffff1681526020019081526020015f205f828254610a069190611125565b925050819055505050565b5f81519050919050565b5f82825260208201905092915050565b5f5b83811015610a48578082015181840152602081019050610a2d565b5f8484015250505050565b5f601f19601f8301169050919050565b5f610a6d82610a11565b610a778185610a1b565b9350610a87818560208601610a2b565b610a9081610a53565b840191505092915050565b5f6020820190508181035f830152610ab38184610a63565b905092915050565b5f80fd5b5f73ffffffffffffffffffffffffffffffffffffffff82169050919050565b5f610ae882610abf565b9050919050565b610af881610ade565b8114610b02575f80fd5b50565b5f81359050610b1381610aef565b92915050565b5f819050919050565b610b2b81610b19565b8114610b35575f80fd5b50565b5f81359050610b4681610b22565b92915050565b5f8060408385031215610b6257610b61610abb565b5b5f610b6f85828601610b05565b9250506020610b8085828601610b38565b9150509250929050565b5f8115159050919050565b610b9e81610b8a565b82525050565b5f602082019050610bb75f830184610b95565b92915050565b610bc681610b19565b82525050565b5f602082019050610bdf5f830184610bbd565b92915050565b5f805f60608486031215610bfc57610bfb610abb565b5b5f610c0986828701610b05565b9350506020610c1a86828701610b05565b9250506040610c2b86828701610b38565b9150509250925092565b5f60ff82169050919050565b610c4a81610c35565b82525050565b5f602082019050610c635f830184610c41565b92915050565b5f60208284031215610c7e57610c7d610abb565b5b5f610c8b84828501610b05565b91505092915050565b5f8060408385031215610caa57610ca9610abb565b5b5f610cb785828601610b05565b9250506020610cc885828601610b05565b9150509250929050565b7f4e487b71000000000000000000000000000000000000000000000000000000005f52602260045260245ffd5b5f6002820490506001821680610d1657607f821691505b602082108103610d2957610d28610cd2565b5b50919050565b7f45524332303a20417070726f7665206f776e657220746865207a65726f2061645f8201527f64726573732e0000000000000000000000000000000000000000000000000000602082015250565b5f610d89602683610a1b565b9150610d9482610d2f565b604082019050919050565b5f6020820190508181035f830152610db681610d7d565b9050919050565b7f45524332303a20417070726f766520746f20746865207a65726f2061646472655f8201527f73732e0000000000000000000000000000000000000000000000000000000000602082015250565b5f610e17602383610a1b565b9150610e2282610dbd565b604082019050919050565b5f6020820190508181035f830152610e4481610e0b565b9050919050565b7f45524332303a20496e737566696369656e7420616c6c6f77616e63652e0000005f82015250565b5f610e7f601d83610a1b565b9150610e8a82610e4b565b602082019050919050565b5f6020820190508181035f830152610eac81610e73565b9050919050565b7f4e487b71000000000000000000000000000000000000000000000000000000005f52601160045260245ffd5b5f610eea82610b19565b9150610ef583610b19565b9250828203905081811115610f0d57610f0c610eb3565b5b92915050565b7f45524332303a205472616e736665722066726f6d20746865207a65726f2061645f8201527f6472657373000000000000000000000000000000000000000000000000000000602082015250565b5f610f6d602583610a1b565b9150610f7882610f13565b604082019050919050565b5f6020820190508181035f830152610f9a81610f61565b9050919050565b7f45524332303a205472616e7366657220746f20746865207a65726f20616464725f8201527f6573730000000000000000000000000000000000000000000000000000000000602082015250565b5f610ffb602383610a1b565b915061100682610fa1565b604082019050919050565b5f6020820190508181035f83015261102881610fef565b9050919050565b7f45524332303a205472616e7366657220616d6f756e74206578636565647320625f8201527f616c616e63650000000000000000000000000000000000000000000000000000602082015250565b5f611089602683610a1b565b91506110948261102f565b604082019050919050565b5f6020820190508181035f8301526110b68161107d565b9050919050565b7f45524332303a204d696e7420746f20746865207a65726f2061646472657373005f82015250565b5f6110f1601f83610a1b565b91506110fc826110bd565b602082019050919050565b5f6020820190508181035f83015261111e816110e5565b9050919050565b5f61112f82610b19565b915061113a83610b19565b925082820190508082111561115257611151610eb3565b5b9291505056fea2646970667358221220159fb49856617b1386f5413edaf3273afa95a2eedc663fd68c98a1c1dc54324864736f6c63430008140033","linkReferences":{}},"methodIdentifiers":{"allowance(address,address)":"dd62ed3e","approve(address,uint256)":"095ea7b3","balanceOf(address)":"70a08231","decimals()":"313ce567","increaseTotalSupply(address,uint256)":"b2aa9f0f","name()":"06fdde03","symbol()":"95d89b41","totalSupply()":"18160ddd","transfer(address,uint256)":"a9059cbb","transferFrom(address,address,uint256)":"23b872dd"},"id":0}