{"abi":[{"type":"function","name":"performDos","inputs":[{"name":"_iterations","type":"uint256","internalType":"uint256"}],"outputs":[],"stateMutability":"pure"}],"bytecode":{"object":"0x608060405234801561000f575f80fd5b506103158061001d5f395ff3fe608060405234801561000f575f80fd5b5060043610610029575f3560e01c80637c448c121461002d575b5f80fd5b6100476004803603810190610042919061016e565b610049565b005b606481111561008d576040517f08c379a0000000000000000000000000000000000000000000000000000000008152600401610084906101f3565b60405180910390fd5b5f5b818111610133575f8267ffffffffffffffff8111156100b1576100b0610211565b5b6040519080825280602002602001820160405280156100df5781602001602082028036833780820191505090505b5090505f5b83811161011e57808282815181106100ff576100fe61023e565b5b602002602001018181525050808061011690610298565b9150506100e4565b5050808061012b90610298565b91505061008f565b5050565b5f80fd5b5f819050919050565b61014d8161013b565b8114610157575f80fd5b50565b5f8135905061016881610144565b92915050565b5f6020828403121561018357610182610137565b5b5f6101908482850161015a565b91505092915050565b5f82825260208201905092915050565b7f4578636564696f20656c206e756d65726f20646520697465726163696f6e65735f82015250565b5f6101dd602083610199565b91506101e8826101a9565b602082019050919050565b5f6020820190508181035f83015261020a816101d1565b9050919050565b7f4e487b71000000000000000000000000000000000000000000000000000000005f52604160045260245ffd5b7f4e487b71000000000000000000000000000000000000000000000000000000005f52603260045260245ffd5b7f4e487b71000000000000000000000000000000000000000000000000000000005f52601160045260245ffd5b5f6102a28261013b565b91507fffffffffffffffffffffffffffffffffffffffffffffffffffffffffffffffff82036102d4576102d361026b565b5b60018201905091905056fea264697066735822122022966c9eb45f68c546d5325d95602a87d8e8683efd27d40b96f00fd2652aa70f64736f6c63430008140033","linkReferences":{}},"methodIdentifiers":{"performDos(uint256)":"7c448c12"},"id":0}