{"abi":[{"type":"function","name":"overflowExample","inputs":[{"name":"_val","type":"uint8","internalType":"uint8"}],"outputs":[{"name":"","type":"uint8","internalType":"uint8"}],"stateMutability":"pure"},{"type":"function","name":"underflowExample","inputs":[{"name":"_val","type":"uint8","internalType":"uint8"}],"outputs":[{"name":"","type":"uint8","internalType":"uint8"}],"stateMutability":"pure"}],"bytecode":{"object":"0x608060405234801561000f575f80fd5b506103de8061001d5f395ff3fe608060405234801561000f575f80fd5b5060043610610034575f3560e01c80631dd74a1314610038578063d83c766014610068575b5f80fd5b610052600480360381019061004d91906101d9565b610098565b60405161005f9190610213565b60405180910390f35b610082600480360381019061007d91906101d9565b6100be565b60405161008f9190610213565b60405180910390f35b5f805f90506100b38360ff16826100e590919063ffffffff16565b905080915050919050565b5f8060ff90506100da8360ff168261014290919063ffffffff16565b905080915050919050565b5f82821115610129576040517f08c379a000000000000000000000000000000000000000000000000000000000815260040161012090610286565b60405180910390fd5b5f828461013691906102da565b90508091505092915050565b5f808284610150919061030d565b905083811015610195576040517f08c379a000000000000000000000000000000000000000000000000000000000815260040161018c9061038a565b60405180910390fd5b8091505092915050565b5f80fd5b5f60ff82169050919050565b6101b8816101a3565b81146101c2575f80fd5b50565b5f813590506101d3816101af565b92915050565b5f602082840312156101ee576101ed61019f565b5b5f6101fb848285016101c5565b91505092915050565b61020d816101a3565b82525050565b5f6020820190506102265f830184610204565b92915050565b5f82825260208201905092915050565b7f536166654d617468207375627472616374696f6e206f766572666c6f770000005f82015250565b5f610270601d8361022c565b915061027b8261023c565b602082019050919050565b5f6020820190508181035f83015261029d81610264565b9050919050565b5f819050919050565b7f4e487b71000000000000000000000000000000000000000000000000000000005f52601160045260245ffd5b5f6102e4826102a4565b91506102ef836102a4565b9250828203905081811115610307576103066102ad565b5b92915050565b5f610317826102a4565b9150610322836102a4565b925082820190508082111561033a576103396102ad565b5b92915050565b7f536166654d617468206164646974696f6e206f766572666c6f770000000000005f82015250565b5f610374601a8361022c565b915061037f82610340565b602082019050919050565b5f6020820190508181035f8301526103a181610368565b905091905056fea264697066735822122005873fed55d5929bc5a34b96ead7dc0f7b85d82539e851cfd80bfe9f5768fe5a64736f6c63430008140033","linkReferences":{}},"methodIdentifiers":{"overflowExample(uint8)":"d83c7660","underflowExample(uint8)":"1dd74a13"},"id":39}