{"abi":[{"type":"constructor","inputs":[],"stateMutability":"nonpayable"},{"type":"function","name":"getOwner","inputs":[],"outputs":[{"name":"","type":"address","internalType":"address"}],"stateMutability":"view"},{"type":"function","name":"getSecretNumber","inputs":[],"outputs":[{"name":"","type":"uint256","internalType":"uint256"}],"stateMutability":"view"},{"type":"function","name":"owner","inputs":[],"outputs":[{"name":"","type":"address","internalType":"address"}],"stateMutability":"view"},{"type":"function","name":"setSecretNumber","inputs":[{"name":"_newNumber","type":"uint256","internalType":"uint256"}],"outputs":[],"stateMutability":"nonpayable"}],"bytecode":{"object":"0x608060405234801561000f575f80fd5b503360015f6101000a81548173ffffffffffffffffffffffffffffffffffffffff021916908373ffffffffffffffffffffffffffffffffffffffff16021790555061023a8061005d5f395ff3fe608060405234801561000f575f80fd5b506004361061004a575f3560e01c806352ee5a551461004e57806384c1d6391461006a578063893d20e8146100885780638da5cb5b146100a6575b5f80fd5b61006860048036038101906100639190610159565b6100c4565b005b6100726100cd565b60405161007f9190610193565b60405180910390f35b6100906100d5565b60405161009d91906101eb565b60405180910390f35b6100ae6100fd565b6040516100bb91906101eb565b60405180910390f35b805f8190555050565b5f8054905090565b5f60015f9054906101000a900473ffffffffffffffffffffffffffffffffffffffff16905090565b60015f9054906101000a900473ffffffffffffffffffffffffffffffffffffffff1681565b5f80fd5b5f819050919050565b61013881610126565b8114610142575f80fd5b50565b5f813590506101538161012f565b92915050565b5f6020828403121561016e5761016d610122565b5b5f61017b84828501610145565b91505092915050565b61018d81610126565b82525050565b5f6020820190506101a65f830184610184565b92915050565b5f73ffffffffffffffffffffffffffffffffffffffff82169050919050565b5f6101d5826101ac565b9050919050565b6101e5816101cb565b82525050565b5f6020820190506101fe5f8301846101dc565b9291505056fea26469706673582212208b24fd4772cd33b5385e23ccf98a138e8395715ab1f7837c748a0173a01a9b1d64736f6c63430008140033","linkReferences":{}},"methodIdentifiers":{"getOwner()":"893d20e8","getSecretNumber()":"84c1d639","owner()":"8da5cb5b","setSecretNumber(uint256)":"52ee5a55"},"id":27}