{"abi":[{"type":"function","name":"createUser","inputs":[{"name":"_name","type":"string","internalType":"string"},{"name":"_age","type":"uint256","internalType":"uint256"}],"outputs":[],"stateMutability":"nonpayable"},{"type":"function","name":"deleteUser","inputs":[{"name":"_id","type":"uint256","internalType":"uint256"}],"outputs":[],"stateMutability":"nonpayable"},{"type":"function","name":"getAllActiveUsers","inputs":[],"outputs":[{"name":"","type":"tuple[]","internalType":"struct UserCrud.User[]","components":[{"name":"id","type":"uint256","internalType":"uint256"},{"name":"name","type":"string","internalType":"string"},{"name":"age","type":"uint256","internalType":"uint256"},{"name":"isActive","type":"bool","internalType":"bool"}]}],"stateMutability":"view"},{"type":"function","name":"readUser","inputs":[{"name":"_id","type":"uint256","internalType":"uint256"}],"outputs":[{"name":"","type":"tuple","internalType":"struct UserCrud.User","components":[{"name":"id","type":"uint256","internalType":"uint256"},{"name":"name","type":"string","internalType":"string"},{"name":"age","type":"uint256","internalType":"uint256"},{"name":"isActive","type":"bool","internalType":"bool"}]}],"stateMutability":"view"},{"type":"function","name":"updateUser","inputs":[{"name":"_id","type":"uint256","internalType":"uint256"},{"name":"_name","type":"string","internalType":"string"},{"name":"_age","type":"uint256","internalType":"uint256"}],"outputs":[],"stateMutability":"nonpayable"},{"type":"event","name":"UserCreated","inputs":[{"name":"id","type":"uint256","indexed":false,"internalType":"uint256"},{"name":"name","type":"string","indexed":false,"internalType":"string"},{"name":"age","type":"uint256","indexed":false,"internalType":"uint256"}],"anonymous":false},{"type":"event","name":"UserDeleted","inputs":[{"name":"id","type":"uint256","indexed":false,"internalType":"uint256"}],"anonymous":false},{"type":"event","name":"UserUpdated","inputs":[{"name":"id","type":"uint256","indexed":false,"internalType":"uint256"},{"name":"name","type":"string","indexed":false,"internalType":"string"},{"name":"age","type":"uint256","indexed":false,"internalType":"uint256"}],"anonymous":false}],"bytecode":{"object":"0x608060405234801561000f575f80fd5b5061118c8061001d5f395ff3fe608060405234801561000f575f80fd5b5060043610610055575f3560e01c80630d70e5d014610059578063121ef2431461008957806338f14845146100a55780634ed6bd1a146100c1578063b7787de9146100df575b5f80fd5b610073600480360381019061006e91906107e5565b6100fb565b6040516100809190610923565b60405180910390f35b6100a3600480360381019061009e9190610a6f565b610285565b005b6100bf60048036038101906100ba91906107e5565b61035f565b005b6100c9610466565b6040516100d69190610be4565b60405180910390f35b6100f960048036038101906100f49190610c04565b610668565b005b61010361077a565b6001548210610147576040517f08c379a000000000000000000000000000000000000000000000000000000000815260040161013e90610cca565b60405180910390fd5b5f808381526020019081526020015f206003015f9054906101000a900460ff166101a6576040517f08c379a000000000000000000000000000000000000000000000000000000000815260040161019d90610d32565b60405180910390fd5b5f808381526020019081526020015f206040518060800160405290815f82015481526020016001820180546101da90610d7d565b80601f016020809104026020016040519081016040528092919081815260200182805461020690610d7d565b80156102515780601f1061022857610100808354040283529160200191610251565b820191905f5260205f20905b81548152906001019060200180831161023457829003601f168201915b5050505050815260200160028201548152602001600382015f9054906101000a900460ff1615151515815250509050919050565b60015f81548092919061029790610dda565b919050555060405180608001604052806001548152602001838152602001828152602001600115158152505f8060015481526020019081526020015f205f820151815f015560208201518160010190816102f19190610fbe565b50604082015181600201556060820151816003015f6101000a81548160ff0219169083151502179055509050507f2d4ab3df663b5d79dd05758cbaa4114c7f6ed1ba4ca7bc3c89f0cac0ea1005e66001548383604051610353939291906110d4565b60405180910390a15050565b60015481106103a3576040517f08c379a000000000000000000000000000000000000000000000000000000000815260040161039a90610cca565b60405180910390fd5b5f808281526020019081526020015f206003015f9054906101000a900460ff16610402576040517f08c379a00000000000000000000000000000000000000000000000000000000081526004016103f990610d32565b60405180910390fd5b5f805f8381526020019081526020015f206003015f6101000a81548160ff0219169083151502179055507f42a77abd0397855f875460bb511f41935bfa5f396b556d95717d8c2e08334aae8160405161045b9190611110565b60405180910390a150565b60605f805b6001548110156104bc575f808281526020019081526020015f206003015f9054906101000a900460ff16156104a95781806104a590610dda565b9250505b80806104b490610dda565b91505061046b565b505f8167ffffffffffffffff8111156104d8576104d761094b565b5b60405190808252806020026020018201604052801561051157816020015b6104fe61077a565b8152602001906001900390816104f65790505b5090505f805b60015481101561065e575f808281526020019081526020015f206003015f9054906101000a900460ff161561064b575f808281526020019081526020015f206040518060800160405290815f820154815260200160018201805461057a90610d7d565b80601f01602080910402602001604051908101604052809291908181526020018280546105a690610d7d565b80156105f15780601f106105c8576101008083540402835291602001916105f1565b820191905f5260205f20905b8154815290600101906020018083116105d457829003601f168201915b5050505050815260200160028201548152602001600382015f9054906101000a900460ff16151515158152505083838151811061063157610630611129565b5b6020026020010181905250818061064790610dda565b9250505b808061065690610dda565b915050610517565b5081935050505090565b60015483106106ac576040517f08c379a00000000000000000000000000000000000000000000000000000000081526004016106a390610cca565b60405180910390fd5b5f808481526020019081526020015f206003015f9054906101000a900460ff1661070b576040517f08c379a000000000000000000000000000000000000000000000000000000000815260040161070290610d32565b60405180910390fd5b5f805f8581526020019081526020015f2090508281600101908161072f9190610fbe565b508181600201819055507fc1cd96e67887f45d4329ad94e5e332e36f17b9f7b511404a5c3bb7127ffe915f84848460405161076c939291906110d4565b60405180910390a150505050565b60405180608001604052805f8152602001606081526020015f81526020015f151581525090565b5f604051905090565b5f80fd5b5f80fd5b5f819050919050565b6107c4816107b2565b81146107ce575f80fd5b50565b5f813590506107df816107bb565b92915050565b5f602082840312156107fa576107f96107aa565b5b5f610807848285016107d1565b91505092915050565b610819816107b2565b82525050565b5f81519050919050565b5f82825260208201905092915050565b5f5b8381101561085657808201518184015260208101905061083b565b5f8484015250505050565b5f601f19601f8301169050919050565b5f61087b8261081f565b6108858185610829565b9350610895818560208601610839565b61089e81610861565b840191505092915050565b5f8115159050919050565b6108bd816108a9565b82525050565b5f608083015f8301516108d85f860182610810565b50602083015184820360208601526108f08282610871565b91505060408301516109056040860182610810565b50606083015161091860608601826108b4565b508091505092915050565b5f6020820190508181035f83015261093b81846108c3565b905092915050565b5f80fd5b5f80fd5b7f4e487b71000000000000000000000000000000000000000000000000000000005f52604160045260245ffd5b61098182610861565b810181811067ffffffffffffffff821117156109a05761099f61094b565b5b80604052505050565b5f6109b26107a1565b90506109be8282610978565b919050565b5f67ffffffffffffffff8211156109dd576109dc61094b565b5b6109e682610861565b9050602081019050919050565b828183375f83830152505050565b5f610a13610a0e846109c3565b6109a9565b905082815260208101848484011115610a2f57610a2e610947565b5b610a3a8482856109f3565b509392505050565b5f82601f830112610a5657610a55610943565b5b8135610a66848260208601610a01565b91505092915050565b5f8060408385031215610a8557610a846107aa565b5b5f83013567ffffffffffffffff811115610aa257610aa16107ae565b5b610aae85828601610a42565b9250506020610abf858286016107d1565b9150509250929050565b5f81519050919050565b5f82825260208201905092915050565b5f819050602082019050919050565b5f608083015f830151610b075f860182610810565b5060208301518482036020860152610b1f8282610871565b9150506040830151610b346040860182610810565b506060830151610b4760608601826108b4565b508091505092915050565b5f610b5d8383610af2565b905092915050565b5f602082019050919050565b5f610b7b82610ac9565b610b858185610ad3565b935083602082028501610b9785610ae3565b805f5b85811015610bd25784840389528151610bb38582610b52565b9450610bbe83610b65565b925060208a01995050600181019050610b9a565b50829750879550505050505092915050565b5f6020820190508181035f830152610bfc8184610b71565b905092915050565b5f805f60608486031215610c1b57610c1a6107aa565b5b5f610c28868287016107d1565b935050602084013567ffffffffffffffff811115610c4957610c486107ae565b5b610c5586828701610a42565b9250506040610c66868287016107d1565b9150509250925092565b5f82825260208201905092915050565b7f456c207573756172696f206e6f206578697374650000000000000000000000005f82015250565b5f610cb4601483610c70565b9150610cbf82610c80565b602082019050919050565b5f6020820190508181035f830152610ce181610ca8565b9050919050565b7f456c207573756172696f20657320696e61637469766f000000000000000000005f82015250565b5f610d1c601683610c70565b9150610d2782610ce8565b602082019050919050565b5f6020820190508181035f830152610d4981610d10565b9050919050565b7f4e487b71000000000000000000000000000000000000000000000000000000005f52602260045260245ffd5b5f6002820490506001821680610d9457607f821691505b602082108103610da757610da6610d50565b5b50919050565b7f4e487b71000000000000000000000000000000000000000000000000000000005f52601160045260245ffd5b5f610de4826107b2565b91507fffffffffffffffffffffffffffffffffffffffffffffffffffffffffffffffff8203610e1657610e15610dad565b5b600182019050919050565b5f819050815f5260205f209050919050565b5f6020601f8301049050919050565b5f82821b905092915050565b5f60088302610e7d7fffffffffffffffffffffffffffffffffffffffffffffffffffffffffffffffff82610e42565b610e878683610e42565b95508019841693508086168417925050509392505050565b5f819050919050565b5f610ec2610ebd610eb8846107b2565b610e9f565b6107b2565b9050919050565b5f819050919050565b610edb83610ea8565b610eef610ee782610ec9565b848454610e4e565b825550505050565b5f90565b610f03610ef7565b610f0e818484610ed2565b505050565b5b81811015610f3157610f265f82610efb565b600181019050610f14565b5050565b601f821115610f7657610f4781610e21565b610f5084610e33565b81016020851015610f5f578190505b610f73610f6b85610e33565b830182610f13565b50505b505050565b5f82821c905092915050565b5f610f965f1984600802610f7b565b1980831691505092915050565b5f610fae8383610f87565b9150826002028217905092915050565b610fc78261081f565b67ffffffffffffffff811115610fe057610fdf61094b565b5b610fea8254610d7d565b610ff5828285610f35565b5f60209050601f831160018114611026575f8415611014578287015190505b61101e8582610fa3565b865550611085565b601f19841661103486610e21565b5f5b8281101561105b57848901518255600182019150602085019450602081019050611036565b868310156110785784890151611074601f891682610f87565b8355505b6001600288020188555050505b505050505050565b611096816107b2565b82525050565b5f6110a68261081f565b6110b08185610c70565b93506110c0818560208601610839565b6110c981610861565b840191505092915050565b5f6060820190506110e75f83018661108d565b81810360208301526110f9818561109c565b9050611108604083018461108d565b949350505050565b5f6020820190506111235f83018461108d565b92915050565b7f4e487b71000000000000000000000000000000000000000000000000000000005f52603260045260245ffdfea264697066735822122038d517704917674e6b47c18329f7f415d8f6012c8214348f82ba274483b2e7ec64736f6c63430008140033","linkReferences":{}},"methodIdentifiers":{"createUser(string,uint256)":"121ef243","deleteUser(uint256)":"38f14845","getAllActiveUsers()":"4ed6bd1a","readUser(uint256)":"0d70e5d0","updateUser(uint256,string,uint256)":"b7787de9"},"id":0}