{"abi":[{"type":"function","name":"balances","inputs":[{"name":"","type":"address","internalType":"address"}],"outputs":[{"name":"","type":"uint256","internalType":"uint256"}],"stateMutability":"view"},{"type":"function","name":"deposit","inputs":[],"outputs":[],"stateMutability":"payable"},{"type":"function","name":"withdraw","inputs":[{"name":"_amount","type":"uint256","internalType":"uint256"}],"outputs":[],"stateMutability":"nonpayable"}],"bytecode":{"object":"0x608060405234801561000f575f80fd5b506104bc8061001d5f395ff3fe608060405260043610610033575f3560e01c806327e235e3146100375780632e1a7d4d14610073578063d0e30db01461009b575b5f80fd5b348015610042575f80fd5b5061005d60048036038101906100589190610295565b6100a5565b60405161006a91906102d8565b60405180910390f35b34801561007e575f80fd5b506100996004803603810190610094919061031b565b6100b9565b005b6100a36101e3565b005b5f602052805f5260405f205f915090505481565b805f803373ffffffffffffffffffffffffffffffffffffffff1673ffffffffffffffffffffffffffffffffffffffff1681526020019081526020015f20541015610138576040517f08c379a000000000000000000000000000000000000000000000000000000000815260040161012f906103a0565b60405180910390fd5b3373ffffffffffffffffffffffffffffffffffffffff166108fc8290811502906040515f60405180830381858888f19350505050503373ffffffffffffffffffffffffffffffffffffffff166108fc8290811502906040515f60405180830381858888f193505050506101e0576040517f08c379a00000000000000000000000000000000000000000000000000000000081526004016101d790610408565b60405180910390fd5b50565b345f803373ffffffffffffffffffffffffffffffffffffffff1673ffffffffffffffffffffffffffffffffffffffff1681526020019081526020015f205f82825461022e9190610453565b92505081905550565b5f80fd5b5f73ffffffffffffffffffffffffffffffffffffffff82169050919050565b5f6102648261023b565b9050919050565b6102748161025a565b811461027e575f80fd5b50565b5f8135905061028f8161026b565b92915050565b5f602082840312156102aa576102a9610237565b5b5f6102b784828501610281565b91505092915050565b5f819050919050565b6102d2816102c0565b82525050565b5f6020820190506102eb5f8301846102c9565b92915050565b6102fa816102c0565b8114610304575f80fd5b50565b5f81359050610315816102f1565b92915050565b5f602082840312156103305761032f610237565b5b5f61033d84828501610307565b91505092915050565b5f82825260208201905092915050565b7f53616c646f20696e737566696369656e746500000000000000000000000000005f82015250565b5f61038a601283610346565b915061039582610356565b602082019050919050565b5f6020820190508181035f8301526103b78161037e565b9050919050565b7f46616c6c6f20656c20656e76696f0000000000000000000000000000000000005f82015250565b5f6103f2600e83610346565b91506103fd826103be565b602082019050919050565b5f6020820190508181035f83015261041f816103e6565b9050919050565b7f4e487b71000000000000000000000000000000000000000000000000000000005f52601160045260245ffd5b5f61045d826102c0565b9150610468836102c0565b92508282019050808211156104805761047f610426565b5b9291505056fea26469706673582212201af7b51da60da8526d4a9601c66c61d54b0191bd899d83ccde74303b43a8cccd64736f6c63430008140033","linkReferences":{}},"methodIdentifiers":{"balances(address)":"27e235e3","deposit()":"d0e30db0","withdraw(uint256)":"2e1a7d4d"},"id":31}