{"abi":[{"type":"function","name":"deposit","inputs":[],"outputs":[],"stateMutability":"payable"},{"type":"function","name":"withdraw","inputs":[{"name":"_amount","type":"uint256","internalType":"uint256"}],"outputs":[],"stateMutability":"nonpayable"}],"bytecode":{"object":"0x608060405234801561000f575f80fd5b5061047b8061001d5f395ff3fe608060405260043610610028575f3560e01c80632e1a7d4d1461002c578063d0e30db014610054575b5f80fd5b348015610037575f80fd5b50610052600480360381019061004d9190610266565b61005e565b005b61005c6101db565b005b5f803373ffffffffffffffffffffffffffffffffffffffff1673ffffffffffffffffffffffffffffffffffffffff1681526020019081526020015f20548111156100dd576040517f08c379a00000000000000000000000000000000000000000000000000000000081526004016100d4906102eb565b60405180910390fd5b5f3373ffffffffffffffffffffffffffffffffffffffff168260405161010290610336565b5f6040518083038185875af1925050503d805f811461013c576040519150601f19603f3d011682016040523d82523d5f602084013e610141565b606091505b5050905080610185576040517f08c379a000000000000000000000000000000000000000000000000000000000815260040161017c90610394565b60405180910390fd5b815f803373ffffffffffffffffffffffffffffffffffffffff1673ffffffffffffffffffffffffffffffffffffffff1681526020019081526020015f205f8282546101d091906103df565b925050819055505050565b345f803373ffffffffffffffffffffffffffffffffffffffff1673ffffffffffffffffffffffffffffffffffffffff1681526020019081526020015f205f8282546102269190610412565b92505081905550565b5f80fd5b5f819050919050565b61024581610233565b811461024f575f80fd5b50565b5f813590506102608161023c565b92915050565b5f6020828403121561027b5761027a61022f565b5b5f61028884828501610252565b91505092915050565b5f82825260208201905092915050565b7f496e73756666696369656e742062616c616e63650000000000000000000000005f82015250565b5f6102d5601483610291565b91506102e0826102a1565b602082019050919050565b5f6020820190508181035f830152610302816102c9565b9050919050565b5f81905092915050565b50565b5f6103215f83610309565b915061032c82610313565b5f82019050919050565b5f61034082610316565b9150819050919050565b7f5472616e73666572206661696c656400000000000000000000000000000000005f82015250565b5f61037e600f83610291565b91506103898261034a565b602082019050919050565b5f6020820190508181035f8301526103ab81610372565b9050919050565b7f4e487b71000000000000000000000000000000000000000000000000000000005f52601160045260245ffd5b5f6103e982610233565b91506103f483610233565b925082820390508181111561040c5761040b6103b2565b5b92915050565b5f61041c82610233565b915061042783610233565b925082820190508082111561043f5761043e6103b2565b5b9291505056fea26469706673582212200e8403278e4ea465b027bb4da950de1fa476668a31e4e303d353aed717f1441364736f6c63430008140033","linkReferences":{}},"methodIdentifiers":{"deposit()":"d0e30db0","withdraw(uint256)":"2e1a7d4d"},"id":29}